{
	"data": {
		"bytecode": {
			"linkReferences": {},
			"object": "608060405234801561000f575f80fd5b50610d338061001d5f395ff3fe608060405234801561000f575f80fd5b5060043610610029575f3560e01c806377e6b3d81461002d575b5f80fd5b610047600480360381019061004291906106ef565b610049565b005b5f8081111561005b5761005a610749565b5b8161022001515f81111561007257610071610749565b5b146100b1577f2bb4b899e8f456da8fdc5a39646630653af0d5dff7c5dbd83c20fba63a2d8d8882826040516100a8929190610a06565b60405180910390a15b5f81908060018154018082558091505060019003905f5260205f2090601102015f909190919091505f820151815f0190816100ec9190610c2e565b5060208201518160010190816101029190610c2e565b506040820151816002015f6101000a81548173ffffffffffffffffffffffffffffffffffffffff021916908373ffffffffffffffffffffffffffffffffffffffff1602179055506060820151816003015f6101000a81548173ffffffffffffffffffffffffffffffffffffffff021916908373ffffffffffffffffffffffffffffffffffffffff1602179055506080820151816004015560a0820151816005015560c0820151816006015560e082015181600701556101008201518160080190816101cd9190610c2e565b506101208201518160090190816101e49190610c2e565b5061014082015181600a015561016082015181600b015561018082015181600c01556101a082015181600d01556101c082015181600e01556101e082015181600f0155610200820151816010015f6101000a81548173ffffffffffffffffffffffffffffffffffffffff021916908373ffffffffffffffffffffffffffffffffffffffff1602179055506102208201518160100160146101000a81548160ff02191690835f81111561029957610298610749565b5b021790555050505050565b5f604051905090565b5f80fd5b5f80fd5b5f73ffffffffffffffffffffffffffffffffffffffff82169050919050565b5f6102de826102b5565b9050919050565b6102ee816102d4565b81146102f8575f80fd5b50565b5f81359050610309816102e5565b92915050565b5f80fd5b5f601f19601f8301169050919050565b7f4e487b71000000000000000000000000000000000000000000000000000000005f52604160045260245ffd5b61035982610313565b810181811067ffffffffffffffff8211171561037857610377610323565b5b80604052505050565b5f61038a6102a4565b90506103968282610350565b919050565b5f80fd5b5f80fd5b5f80fd5b5f67ffffffffffffffff8211156103c1576103c0610323565b5b6103ca82610313565b9050602081019050919050565b828183375f83830152505050565b5f6103f76103f2846103a7565b610381565b905082815260208101848484011115610413576104126103a3565b5b61041e8482856103d7565b509392505050565b5f82601f83011261043a5761043961039f565b5b813561044a8482602086016103e5565b91505092915050565b5f819050919050565b61046581610453565b811461046f575f80fd5b50565b5f813590506104808161045c565b92915050565b5f819050919050565b61049881610486565b81146104a2575f80fd5b50565b5f813590506104b38161048f565b92915050565b600181106104c5575f80fd5b50565b5f813590506104d6816104b9565b92915050565b5f61024082840312156104f2576104f161030f565b5b6104fd610240610381565b90505f82013567ffffffffffffffff81111561051c5761051b61039b565b5b61052884828501610426565b5f83015250602082013567ffffffffffffffff81111561054b5761054a61039b565b5b61055784828501610426565b602083015250604061056b848285016102fb565b604083015250606061057f848285016102fb565b606083015250608061059384828501610472565b60808301525060a06105a784828501610472565b60a08301525060c06105bb84828501610472565b60c08301525060e06105cf84828501610472565b60e08301525061010082013567ffffffffffffffff8111156105f4576105f361039b565b5b61060084828501610426565b6101008301525061012082013567ffffffffffffffff8111156106265761062561039b565b5b61063284828501610426565b61012083015250610140610648848285016104a5565b6101408301525061016061065e848285016104a5565b61016083015250610180610674848285016104a5565b610180830152506101a061068a848285016104a5565b6101a0830152506101c06106a0848285016104a5565b6101c0830152506101e06106b6848285016104a5565b6101e0830152506102006106cc848285016102fb565b610200830152506102206106e2848285016104c8565b6102208301525092915050565b5f8060408385031215610705576107046102ad565b5b5f610712858286016102fb565b925050602083013567ffffffffffffffff811115610733576107326102b1565b5b61073f858286016104dc565b9150509250929050565b7f4e487b71000000000000000000000000000000000000000000000000000000005f52602160045260245ffd5b61077f816102d4565b82525050565b5f81519050919050565b5f82825260208201905092915050565b5f5b838110156107bc5780820151818401526020810190506107a1565b5f8484015250505050565b5f6107d182610785565b6107db818561078f565b93506107eb81856020860161079f565b6107f481610313565b840191505092915050565b610808816102d4565b82525050565b61081781610453565b82525050565b61082681610486565b82525050565b6001811061083d5761083c610749565b5b50565b5f81905061084d8261082c565b919050565b5f61085c82610840565b9050919050565b61086c81610852565b82525050565b5f61024083015f8301518482035f86015261088d82826107c7565b915050602083015184820360208601526108a782826107c7565b91505060408301516108bc60408601826107ff565b5060608301516108cf60608601826107ff565b5060808301516108e2608086018261080e565b5060a08301516108f560a086018261080e565b5060c083015161090860c086018261080e565b5060e083015161091b60e086018261080e565b5061010083015184820361010086015261093582826107c7565b91505061012083015184820361012086015261095182826107c7565b91505061014083015161096861014086018261081d565b5061016083015161097d61016086018261081d565b5061018083015161099261018086018261081d565b506101a08301516109a76101a086018261081d565b506101c08301516109bc6101c086018261081d565b506101e08301516109d16101e086018261081d565b506102008301516109e66102008601826107ff565b506102208301516109fb610220860182610863565b508091505092915050565b5f604082019050610a195f830185610776565b8181036020830152610a2b8184610872565b90509392505050565b7f4e487b71000000000000000000000000000000000000000000000000000000005f52602260045260245ffd5b5f6002820490506001821680610a7857607f821691505b602082108103610a8b57610a8a610a34565b5b50919050565b5f819050815f5260205f209050919050565b5f6020601f8301049050919050565b5f82821b905092915050565b5f60088302610aed7fffffffffffffffffffffffffffffffffffffffffffffffffffffffffffffffff82610ab2565b610af78683610ab2565b95508019841693508086168417925050509392505050565b5f819050919050565b5f610b32610b2d610b2884610486565b610b0f565b610486565b9050919050565b5f819050919050565b610b4b83610b18565b610b5f610b5782610b39565b848454610abe565b825550505050565b5f90565b610b73610b67565b610b7e818484610b42565b505050565b5b81811015610ba157610b965f82610b6b565b600181019050610b84565b5050565b601f821115610be657610bb781610a91565b610bc084610aa3565b81016020851015610bcf578190505b610be3610bdb85610aa3565b830182610b83565b50505b505050565b5f82821c905092915050565b5f610c065f1984600802610beb565b1980831691505092915050565b5f610c1e8383610bf7565b9150826002028217905092915050565b610c3782610785565b67ffffffffffffffff811115610c5057610c4f610323565b5b610c5a8254610a61565b610c65828285610ba5565b5f60209050601f831160018114610c96575f8415610c84578287015190505b610c8e8582610c13565b865550610cf5565b601f198416610ca486610a91565b5f5b82811015610ccb57848901518255600182019150602085019450602081019050610ca6565b86831015610ce85784890151610ce4601f891682610bf7565b8355505b6001600288020188555050505b50505050505056fea264697066735822122069ed4661088adf03a691bada49058c29c300a966ba073271f5894f9473475bec64736f6c63430008180033",
			"opcodes": "PUSH1 0x80 PUSH1 0x40 MSTORE CALLVALUE DUP1 ISZERO PUSH2 0xF JUMPI PUSH0 DUP1 REVERT JUMPDEST POP PUSH2 0xD33 DUP1 PUSH2 0x1D PUSH0 CODECOPY PUSH0 RETURN INVALID PUSH1 0x80 PUSH1 0x40 MSTORE CALLVALUE DUP1 ISZERO PUSH2 0xF JUMPI PUSH0 DUP1 REVERT JUMPDEST POP PUSH1 0x4 CALLDATASIZE LT PUSH2 0x29 JUMPI PUSH0 CALLDATALOAD PUSH1 0xE0 SHR DUP1 PUSH4 0x77E6B3D8 EQ PUSH2 0x2D JUMPI JUMPDEST PUSH0 DUP1 REVERT JUMPDEST PUSH2 0x47 PUSH1 0x4 DUP1 CALLDATASIZE SUB DUP2 ADD SWAP1 PUSH2 0x42 SWAP2 SWAP1 PUSH2 0x6EF JUMP JUMPDEST PUSH2 0x49 JUMP JUMPDEST STOP JUMPDEST PUSH0 DUP1 DUP2 GT ISZERO PUSH2 0x5B JUMPI PUSH2 0x5A PUSH2 0x749 JUMP JUMPDEST JUMPDEST DUP2 PUSH2 0x220 ADD MLOAD PUSH0 DUP2 GT ISZERO PUSH2 0x72 JUMPI PUSH2 0x71 PUSH2 0x749 JUMP JUMPDEST JUMPDEST EQ PUSH2 0xB1 JUMPI PUSH32 0x2BB4B899E8F456DA8FDC5A39646630653AF0D5DFF7C5DBD83C20FBA63A2D8D88 DUP3 DUP3 PUSH1 0x40 MLOAD PUSH2 0xA8 SWAP3 SWAP2 SWAP1 PUSH2 0xA06 JUMP JUMPDEST PUSH1 0x40 MLOAD DUP1 SWAP2 SUB SWAP1 LOG1 JUMPDEST PUSH0 DUP2 SWAP1 DUP1 PUSH1 0x1 DUP2 SLOAD ADD DUP1 DUP3 SSTORE DUP1 SWAP2 POP POP PUSH1 0x1 SWAP1 SUB SWAP1 PUSH0 MSTORE PUSH1 0x20 PUSH0 KECCAK256 SWAP1 PUSH1 0x11 MUL ADD PUSH0 SWAP1 SWAP2 SWAP1 SWAP2 SWAP1 SWAP2 POP PUSH0 DUP3 ADD MLOAD DUP2 PUSH0 ADD SWAP1 DUP2 PUSH2 0xEC SWAP2 SWAP1 PUSH2 0xC2E JUMP JUMPDEST POP PUSH1 0x20 DUP3 ADD MLOAD DUP2 PUSH1 0x1 ADD SWAP1 DUP2 PUSH2 0x102 SWAP2 SWAP1 PUSH2 0xC2E JUMP JUMPDEST POP PUSH1 0x40 DUP3 ADD MLOAD DUP2 PUSH1 0x2 ADD PUSH0 PUSH2 0x100 EXP DUP2 SLOAD DUP2 PUSH20 0xFFFFFFFFFFFFFFFFFFFFFFFFFFFFFFFFFFFFFFFF MUL NOT AND SWAP1 DUP4 PUSH20 0xFFFFFFFFFFFFFFFFFFFFFFFFFFFFFFFFFFFFFFFF AND MUL OR SWAP1 SSTORE POP PUSH1 0x60 DUP3 ADD MLOAD DUP2 PUSH1 0x3 ADD PUSH0 PUSH2 0x100 EXP DUP2 SLOAD DUP2 PUSH20 0xFFFFFFFFFFFFFFFFFFFFFFFFFFFFFFFFFFFFFFFF MUL NOT AND SWAP1 DUP4 PUSH20 0xFFFFFFFFFFFFFFFFFFFFFFFFFFFFFFFFFFFFFFFF AND MUL OR SWAP1 SSTORE POP PUSH1 0x80 DUP3 ADD MLOAD DUP2 PUSH1 0x4 ADD SSTORE PUSH1 0xA0 DUP3 ADD MLOAD DUP2 PUSH1 0x5 ADD SSTORE PUSH1 0xC0 DUP3 ADD MLOAD DUP2 PUSH1 0x6 ADD SSTORE PUSH1 0xE0 DUP3 ADD MLOAD DUP2 PUSH1 0x7 ADD SSTORE PUSH2 0x100 DUP3 ADD MLOAD DUP2 PUSH1 0x8 ADD SWAP1 DUP2 PUSH2 0x1CD SWAP2 SWAP1 PUSH2 0xC2E JUMP JUMPDEST POP PUSH2 0x120 DUP3 ADD MLOAD DUP2 PUSH1 0x9 ADD SWAP1 DUP2 PUSH2 0x1E4 SWAP2 SWAP1 PUSH2 0xC2E JUMP JUMPDEST POP PUSH2 0x140 DUP3 ADD MLOAD DUP2 PUSH1 0xA ADD SSTORE PUSH2 0x160 DUP3 ADD MLOAD DUP2 PUSH1 0xB ADD SSTORE PUSH2 0x180 DUP3 ADD MLOAD DUP2 PUSH1 0xC ADD SSTORE PUSH2 0x1A0 DUP3 ADD MLOAD DUP2 PUSH1 0xD ADD SSTORE PUSH2 0x1C0 DUP3 ADD MLOAD DUP2 PUSH1 0xE ADD SSTORE PUSH2 0x1E0 DUP3 ADD MLOAD DUP2 PUSH1 0xF ADD SSTORE PUSH2 0x200 DUP3 ADD MLOAD DUP2 PUSH1 0x10 ADD PUSH0 PUSH2 0x100 EXP DUP2 SLOAD DUP2 PUSH20 0xFFFFFFFFFFFFFFFFFFFFFFFFFFFFFFFFFFFFFFFF MUL NOT AND SWAP1 DUP4 PUSH20 0xFFFFFFFFFFFFFFFFFFFFFFFFFFFFFFFFFFFFFFFF AND MUL OR SWAP1 SSTORE POP PUSH2 0x220 DUP3 ADD MLOAD DUP2 PUSH1 0x10 ADD PUSH1 0x14 PUSH2 0x100 EXP DUP2 SLOAD DUP2 PUSH1 0xFF MUL NOT AND SWAP1 DUP4 PUSH0 DUP2 GT ISZERO PUSH2 0x299 JUMPI PUSH2 0x298 PUSH2 0x749 JUMP JUMPDEST JUMPDEST MUL OR SWAP1 SSTORE POP POP POP POP POP JUMP JUMPDEST PUSH0 PUSH1 0x40 MLOAD SWAP1 POP SWAP1 JUMP JUMPDEST PUSH0 DUP1 REVERT JUMPDEST PUSH0 DUP1 REVERT JUMPDEST PUSH0 PUSH20 0xFFFFFFFFFFFFFFFFFFFFFFFFFFFFFFFFFFFFFFFF DUP3 AND SWAP1 POP SWAP2 SWAP1 POP JUMP JUMPDEST PUSH0 PUSH2 0x2DE DUP3 PUSH2 0x2B5 JUMP JUMPDEST SWAP1 POP SWAP2 SWAP1 POP JUMP JUMPDEST PUSH2 0x2EE DUP2 PUSH2 0x2D4 JUMP JUMPDEST DUP2 EQ PUSH2 0x2F8 JUMPI PUSH0 DUP1 REVERT JUMPDEST POP JUMP JUMPDEST PUSH0 DUP2 CALLDATALOAD SWAP1 POP PUSH2 0x309 DUP2 PUSH2 0x2E5 JUMP JUMPDEST SWAP3 SWAP2 POP POP JUMP JUMPDEST PUSH0 DUP1 REVERT JUMPDEST PUSH0 PUSH1 0x1F NOT PUSH1 0x1F DUP4 ADD AND SWAP1 POP SWAP2 SWAP1 POP JUMP JUMPDEST PUSH32 0x4E487B7100000000000000000000000000000000000000000000000000000000 PUSH0 MSTORE PUSH1 0x41 PUSH1 0x4 MSTORE PUSH1 0x24 PUSH0 REVERT JUMPDEST PUSH2 0x359 DUP3 PUSH2 0x313 JUMP JUMPDEST DUP2 ADD DUP2 DUP2 LT PUSH8 0xFFFFFFFFFFFFFFFF DUP3 GT OR ISZERO PUSH2 0x378 JUMPI PUSH2 0x377 PUSH2 0x323 JUMP JUMPDEST JUMPDEST DUP1 PUSH1 0x40 MSTORE POP POP POP JUMP JUMPDEST PUSH0 PUSH2 0x38A PUSH2 0x2A4 JUMP JUMPDEST SWAP1 POP PUSH2 0x396 DUP3 DUP3 PUSH2 0x350 JUMP JUMPDEST SWAP2 SWAP1 POP JUMP JUMPDEST PUSH0 DUP1 REVERT JUMPDEST PUSH0 DUP1 REVERT JUMPDEST PUSH0 DUP1 REVERT JUMPDEST PUSH0 PUSH8 0xFFFFFFFFFFFFFFFF DUP3 GT ISZERO PUSH2 0x3C1 JUMPI PUSH2 0x3C0 PUSH2 0x323 JUMP JUMPDEST JUMPDEST PUSH2 0x3CA DUP3 PUSH2 0x313 JUMP JUMPDEST SWAP1 POP PUSH1 0x20 DUP2 ADD SWAP1 POP SWAP2 SWAP1 POP JUMP JUMPDEST DUP3 DUP2 DUP4 CALLDATACOPY PUSH0 DUP4 DUP4 ADD MSTORE POP POP POP JUMP JUMPDEST PUSH0 PUSH2 0x3F7 PUSH2 0x3F2 DUP5 PUSH2 0x3A7 JUMP JUMPDEST PUSH2 0x381 JUMP JUMPDEST SWAP1 POP DUP3 DUP2 MSTORE PUSH1 0x20 DUP2 ADD DUP5 DUP5 DUP5 ADD GT ISZERO PUSH2 0x413 JUMPI PUSH2 0x412 PUSH2 0x3A3 JUMP JUMPDEST JUMPDEST PUSH2 0x41E DUP5 DUP3 DUP6 PUSH2 0x3D7 JUMP JUMPDEST POP SWAP4 SWAP3 POP POP POP JUMP JUMPDEST PUSH0 DUP3 PUSH1 0x1F DUP4 ADD SLT PUSH2 0x43A JUMPI PUSH2 0x439 PUSH2 0x39F JUMP JUMPDEST JUMPDEST DUP2 CALLDATALOAD PUSH2 0x44A DUP5 DUP3 PUSH1 0x20 DUP7 ADD PUSH2 0x3E5 JUMP JUMPDEST SWAP2 POP POP SWAP3 SWAP2 POP POP JUMP JUMPDEST PUSH0 DUP2 SWAP1 POP SWAP2 SWAP1 POP JUMP JUMPDEST PUSH2 0x465 DUP2 PUSH2 0x453 JUMP JUMPDEST DUP2 EQ PUSH2 0x46F JUMPI PUSH0 DUP1 REVERT JUMPDEST POP JUMP JUMPDEST PUSH0 DUP2 CALLDATALOAD SWAP1 POP PUSH2 0x480 DUP2 PUSH2 0x45C JUMP JUMPDEST SWAP3 SWAP2 POP POP JUMP JUMPDEST PUSH0 DUP2 SWAP1 POP SWAP2 SWAP1 POP JUMP JUMPDEST PUSH2 0x498 DUP2 PUSH2 0x486 JUMP JUMPDEST DUP2 EQ PUSH2 0x4A2 JUMPI PUSH0 DUP1 REVERT JUMPDEST POP JUMP JUMPDEST PUSH0 DUP2 CALLDATALOAD SWAP1 POP PUSH2 0x4B3 DUP2 PUSH2 0x48F JUMP JUMPDEST SWAP3 SWAP2 POP POP JUMP JUMPDEST PUSH1 0x1 DUP2 LT PUSH2 0x4C5 JUMPI PUSH0 DUP1 REVERT JUMPDEST POP JUMP JUMPDEST PUSH0 DUP2 CALLDATALOAD SWAP1 POP PUSH2 0x4D6 DUP2 PUSH2 0x4B9 JUMP JUMPDEST SWAP3 SWAP2 POP POP JUMP JUMPDEST PUSH0 PUSH2 0x240 DUP3 DUP5 SUB SLT ISZERO PUSH2 0x4F2 JUMPI PUSH2 0x4F1 PUSH2 0x30F JUMP JUMPDEST JUMPDEST PUSH2 0x4FD PUSH2 0x240 PUSH2 0x381 JUMP JUMPDEST SWAP1 POP PUSH0 DUP3 ADD CALLDATALOAD PUSH8 0xFFFFFFFFFFFFFFFF DUP2 GT ISZERO PUSH2 0x51C JUMPI PUSH2 0x51B PUSH2 0x39B JUMP JUMPDEST JUMPDEST PUSH2 0x528 DUP5 DUP3 DUP6 ADD PUSH2 0x426 JUMP JUMPDEST PUSH0 DUP4 ADD MSTORE POP PUSH1 0x20 DUP3 ADD CALLDATALOAD PUSH8 0xFFFFFFFFFFFFFFFF DUP2 GT ISZERO PUSH2 0x54B JUMPI PUSH2 0x54A PUSH2 0x39B JUMP JUMPDEST JUMPDEST PUSH2 0x557 DUP5 DUP3 DUP6 ADD PUSH2 0x426 JUMP JUMPDEST PUSH1 0x20 DUP4 ADD MSTORE POP PUSH1 0x40 PUSH2 0x56B DUP5 DUP3 DUP6 ADD PUSH2 0x2FB JUMP JUMPDEST PUSH1 0x40 DUP4 ADD MSTORE POP PUSH1 0x60 PUSH2 0x57F DUP5 DUP3 DUP6 ADD PUSH2 0x2FB JUMP JUMPDEST PUSH1 0x60 DUP4 ADD MSTORE POP PUSH1 0x80 PUSH2 0x593 DUP5 DUP3 DUP6 ADD PUSH2 0x472 JUMP JUMPDEST PUSH1 0x80 DUP4 ADD MSTORE POP PUSH1 0xA0 PUSH2 0x5A7 DUP5 DUP3 DUP6 ADD PUSH2 0x472 JUMP JUMPDEST PUSH1 0xA0 DUP4 ADD MSTORE POP PUSH1 0xC0 PUSH2 0x5BB DUP5 DUP3 DUP6 ADD PUSH2 0x472 JUMP JUMPDEST PUSH1 0xC0 DUP4 ADD MSTORE POP PUSH1 0xE0 PUSH2 0x5CF DUP5 DUP3 DUP6 ADD PUSH2 0x472 JUMP JUMPDEST PUSH1 0xE0 DUP4 ADD MSTORE POP PUSH2 0x100 DUP3 ADD CALLDATALOAD PUSH8 0xFFFFFFFFFFFFFFFF DUP2 GT ISZERO PUSH2 0x5F4 JUMPI PUSH2 0x5F3 PUSH2 0x39B JUMP JUMPDEST JUMPDEST PUSH2 0x600 DUP5 DUP3 DUP6 ADD PUSH2 0x426 JUMP JUMPDEST PUSH2 0x100 DUP4 ADD MSTORE POP PUSH2 0x120 DUP3 ADD CALLDATALOAD PUSH8 0xFFFFFFFFFFFFFFFF DUP2 GT ISZERO PUSH2 0x626 JUMPI PUSH2 0x625 PUSH2 0x39B JUMP JUMPDEST JUMPDEST PUSH2 0x632 DUP5 DUP3 DUP6 ADD PUSH2 0x426 JUMP JUMPDEST PUSH2 0x120 DUP4 ADD MSTORE POP PUSH2 0x140 PUSH2 0x648 DUP5 DUP3 DUP6 ADD PUSH2 0x4A5 JUMP JUMPDEST PUSH2 0x140 DUP4 ADD MSTORE POP PUSH2 0x160 PUSH2 0x65E DUP5 DUP3 DUP6 ADD PUSH2 0x4A5 JUMP JUMPDEST PUSH2 0x160 DUP4 ADD MSTORE POP PUSH2 0x180 PUSH2 0x674 DUP5 DUP3 DUP6 ADD PUSH2 0x4A5 JUMP JUMPDEST PUSH2 0x180 DUP4 ADD MSTORE POP PUSH2 0x1A0 PUSH2 0x68A DUP5 DUP3 DUP6 ADD PUSH2 0x4A5 JUMP JUMPDEST PUSH2 0x1A0 DUP4 ADD MSTORE POP PUSH2 0x1C0 PUSH2 0x6A0 DUP5 DUP3 DUP6 ADD PUSH2 0x4A5 JUMP JUMPDEST PUSH2 0x1C0 DUP4 ADD MSTORE POP PUSH2 0x1E0 PUSH2 0x6B6 DUP5 DUP3 DUP6 ADD PUSH2 0x4A5 JUMP JUMPDEST PUSH2 0x1E0 DUP4 ADD MSTORE POP PUSH2 0x200 PUSH2 0x6CC DUP5 DUP3 DUP6 ADD PUSH2 0x2FB JUMP JUMPDEST PUSH2 0x200 DUP4 ADD MSTORE POP PUSH2 0x220 PUSH2 0x6E2 DUP5 DUP3 DUP6 ADD PUSH2 0x4C8 JUMP JUMPDEST PUSH2 0x220 DUP4 ADD MSTORE POP SWAP3 SWAP2 POP POP JUMP JUMPDEST PUSH0 DUP1 PUSH1 0x40 DUP4 DUP6 SUB SLT ISZERO PUSH2 0x705 JUMPI PUSH2 0x704 PUSH2 0x2AD JUMP JUMPDEST JUMPDEST PUSH0 PUSH2 0x712 DUP6 DUP3 DUP7 ADD PUSH2 0x2FB JUMP JUMPDEST SWAP3 POP POP PUSH1 0x20 DUP4 ADD CALLDATALOAD PUSH8 0xFFFFFFFFFFFFFFFF DUP2 GT ISZERO PUSH2 0x733 JUMPI PUSH2 0x732 PUSH2 0x2B1 JUMP JUMPDEST JUMPDEST PUSH2 0x73F DUP6 DUP3 DUP7 ADD PUSH2 0x4DC JUMP JUMPDEST SWAP2 POP POP SWAP3 POP SWAP3 SWAP1 POP JUMP JUMPDEST PUSH32 0x4E487B7100000000000000000000000000000000000000000000000000000000 PUSH0 MSTORE PUSH1 0x21 PUSH1 0x4 MSTORE PUSH1 0x24 PUSH0 REVERT JUMPDEST PUSH2 0x77F DUP2 PUSH2 0x2D4 JUMP JUMPDEST DUP3 MSTORE POP POP JUMP JUMPDEST PUSH0 DUP2 MLOAD SWAP1 POP SWAP2 SWAP1 POP JUMP JUMPDEST PUSH0 DUP3 DUP3 MSTORE PUSH1 0x20 DUP3 ADD SWAP1 POP SWAP3 SWAP2 POP POP JUMP JUMPDEST PUSH0 JUMPDEST DUP4 DUP2 LT ISZERO PUSH2 0x7BC JUMPI DUP1 DUP3 ADD MLOAD DUP2 DUP5 ADD MSTORE PUSH1 0x20 DUP2 ADD SWAP1 POP PUSH2 0x7A1 JUMP JUMPDEST PUSH0 DUP5 DUP5 ADD MSTORE POP POP POP POP JUMP JUMPDEST PUSH0 PUSH2 0x7D1 DUP3 PUSH2 0x785 JUMP JUMPDEST PUSH2 0x7DB DUP2 DUP6 PUSH2 0x78F JUMP JUMPDEST SWAP4 POP PUSH2 0x7EB DUP2 DUP6 PUSH1 0x20 DUP7 ADD PUSH2 0x79F JUMP JUMPDEST PUSH2 0x7F4 DUP2 PUSH2 0x313 JUMP JUMPDEST DUP5 ADD SWAP2 POP POP SWAP3 SWAP2 POP POP JUMP JUMPDEST PUSH2 0x808 DUP2 PUSH2 0x2D4 JUMP JUMPDEST DUP3 MSTORE POP POP JUMP JUMPDEST PUSH2 0x817 DUP2 PUSH2 0x453 JUMP JUMPDEST DUP3 MSTORE POP POP JUMP JUMPDEST PUSH2 0x826 DUP2 PUSH2 0x486 JUMP JUMPDEST DUP3 MSTORE POP POP JUMP JUMPDEST PUSH1 0x1 DUP2 LT PUSH2 0x83D JUMPI PUSH2 0x83C PUSH2 0x749 JUMP JUMPDEST JUMPDEST POP JUMP JUMPDEST PUSH0 DUP2 SWAP1 POP PUSH2 0x84D DUP3 PUSH2 0x82C JUMP JUMPDEST SWAP2 SWAP1 POP JUMP JUMPDEST PUSH0 PUSH2 0x85C DUP3 PUSH2 0x840 JUMP JUMPDEST SWAP1 POP SWAP2 SWAP1 POP JUMP JUMPDEST PUSH2 0x86C DUP2 PUSH2 0x852 JUMP JUMPDEST DUP3 MSTORE POP POP JUMP JUMPDEST PUSH0 PUSH2 0x240 DUP4 ADD PUSH0 DUP4 ADD MLOAD DUP5 DUP3 SUB PUSH0 DUP7 ADD MSTORE PUSH2 0x88D DUP3 DUP3 PUSH2 0x7C7 JUMP JUMPDEST SWAP2 POP POP PUSH1 0x20 DUP4 ADD MLOAD DUP5 DUP3 SUB PUSH1 0x20 DUP7 ADD MSTORE PUSH2 0x8A7 DUP3 DUP3 PUSH2 0x7C7 JUMP JUMPDEST SWAP2 POP POP PUSH1 0x40 DUP4 ADD MLOAD PUSH2 0x8BC PUSH1 0x40 DUP7 ADD DUP3 PUSH2 0x7FF JUMP JUMPDEST POP PUSH1 0x60 DUP4 ADD MLOAD PUSH2 0x8CF PUSH1 0x60 DUP7 ADD DUP3 PUSH2 0x7FF JUMP JUMPDEST POP PUSH1 0x80 DUP4 ADD MLOAD PUSH2 0x8E2 PUSH1 0x80 DUP7 ADD DUP3 PUSH2 0x80E JUMP JUMPDEST POP PUSH1 0xA0 DUP4 ADD MLOAD PUSH2 0x8F5 PUSH1 0xA0 DUP7 ADD DUP3 PUSH2 0x80E JUMP JUMPDEST POP PUSH1 0xC0 DUP4 ADD MLOAD PUSH2 0x908 PUSH1 0xC0 DUP7 ADD DUP3 PUSH2 0x80E JUMP JUMPDEST POP PUSH1 0xE0 DUP4 ADD MLOAD PUSH2 0x91B PUSH1 0xE0 DUP7 ADD DUP3 PUSH2 0x80E JUMP JUMPDEST POP PUSH2 0x100 DUP4 ADD MLOAD DUP5 DUP3 SUB PUSH2 0x100 DUP7 ADD MSTORE PUSH2 0x935 DUP3 DUP3 PUSH2 0x7C7 JUMP JUMPDEST SWAP2 POP POP PUSH2 0x120 DUP4 ADD MLOAD DUP5 DUP3 SUB PUSH2 0x120 DUP7 ADD MSTORE PUSH2 0x951 DUP3 DUP3 PUSH2 0x7C7 JUMP JUMPDEST SWAP2 POP POP PUSH2 0x140 DUP4 ADD MLOAD PUSH2 0x968 PUSH2 0x140 DUP7 ADD DUP3 PUSH2 0x81D JUMP JUMPDEST POP PUSH2 0x160 DUP4 ADD MLOAD PUSH2 0x97D PUSH2 0x160 DUP7 ADD DUP3 PUSH2 0x81D JUMP JUMPDEST POP PUSH2 0x180 DUP4 ADD MLOAD PUSH2 0x992 PUSH2 0x180 DUP7 ADD DUP3 PUSH2 0x81D JUMP JUMPDEST POP PUSH2 0x1A0 DUP4 ADD MLOAD PUSH2 0x9A7 PUSH2 0x1A0 DUP7 ADD DUP3 PUSH2 0x81D JUMP JUMPDEST POP PUSH2 0x1C0 DUP4 ADD MLOAD PUSH2 0x9BC PUSH2 0x1C0 DUP7 ADD DUP3 PUSH2 0x81D JUMP JUMPDEST POP PUSH2 0x1E0 DUP4 ADD MLOAD PUSH2 0x9D1 PUSH2 0x1E0 DUP7 ADD DUP3 PUSH2 0x81D JUMP JUMPDEST POP PUSH2 0x200 DUP4 ADD MLOAD PUSH2 0x9E6 PUSH2 0x200 DUP7 ADD DUP3 PUSH2 0x7FF JUMP JUMPDEST POP PUSH2 0x220 DUP4 ADD MLOAD PUSH2 0x9FB PUSH2 0x220 DUP7 ADD DUP3 PUSH2 0x863 JUMP JUMPDEST POP DUP1 SWAP2 POP POP SWAP3 SWAP2 POP POP JUMP JUMPDEST PUSH0 PUSH1 0x40 DUP3 ADD SWAP1 POP PUSH2 0xA19 PUSH0 DUP4 ADD DUP6 PUSH2 0x776 JUMP JUMPDEST DUP2 DUP2 SUB PUSH1 0x20 DUP4 ADD MSTORE PUSH2 0xA2B DUP2 DUP5 PUSH2 0x872 JUMP JUMPDEST SWAP1 POP SWAP4 SWAP3 POP POP POP JUMP JUMPDEST PUSH32 0x4E487B7100000000000000000000000000000000000000000000000000000000 PUSH0 MSTORE PUSH1 0x22 PUSH1 0x4 MSTORE PUSH1 0x24 PUSH0 REVERT JUMPDEST PUSH0 PUSH1 0x2 DUP3 DIV SWAP1 POP PUSH1 0x1 DUP3 AND DUP1 PUSH2 0xA78 JUMPI PUSH1 0x7F DUP3 AND SWAP2 POP JUMPDEST PUSH1 0x20 DUP3 LT DUP2 SUB PUSH2 0xA8B JUMPI PUSH2 0xA8A PUSH2 0xA34 JUMP JUMPDEST JUMPDEST POP SWAP2 SWAP1 POP JUMP JUMPDEST PUSH0 DUP2 SWAP1 POP DUP2 PUSH0 MSTORE PUSH1 0x20 PUSH0 KECCAK256 SWAP1 POP SWAP2 SWAP1 POP JUMP JUMPDEST PUSH0 PUSH1 0x20 PUSH1 0x1F DUP4 ADD DIV SWAP1 POP SWAP2 SWAP1 POP JUMP JUMPDEST PUSH0 DUP3 DUP3 SHL SWAP1 POP SWAP3 SWAP2 POP POP JUMP JUMPDEST PUSH0 PUSH1 0x8 DUP4 MUL PUSH2 0xAED PUSH32 0xFFFFFFFFFFFFFFFFFFFFFFFFFFFFFFFFFFFFFFFFFFFFFFFFFFFFFFFFFFFFFFFF DUP3 PUSH2 0xAB2 JUMP JUMPDEST PUSH2 0xAF7 DUP7 DUP4 PUSH2 0xAB2 JUMP JUMPDEST SWAP6 POP DUP1 NOT DUP5 AND SWAP4 POP DUP1 DUP7 AND DUP5 OR SWAP3 POP POP POP SWAP4 SWAP3 POP POP POP JUMP JUMPDEST PUSH0 DUP2 SWAP1 POP SWAP2 SWAP1 POP JUMP JUMPDEST PUSH0 PUSH2 0xB32 PUSH2 0xB2D PUSH2 0xB28 DUP5 PUSH2 0x486 JUMP JUMPDEST PUSH2 0xB0F JUMP JUMPDEST PUSH2 0x486 JUMP JUMPDEST SWAP1 POP SWAP2 SWAP1 POP JUMP JUMPDEST PUSH0 DUP2 SWAP1 POP SWAP2 SWAP1 POP JUMP JUMPDEST PUSH2 0xB4B DUP4 PUSH2 0xB18 JUMP JUMPDEST PUSH2 0xB5F PUSH2 0xB57 DUP3 PUSH2 0xB39 JUMP JUMPDEST DUP5 DUP5 SLOAD PUSH2 0xABE JUMP JUMPDEST DUP3 SSTORE POP POP POP POP JUMP JUMPDEST PUSH0 SWAP1 JUMP JUMPDEST PUSH2 0xB73 PUSH2 0xB67 JUMP JUMPDEST PUSH2 0xB7E DUP2 DUP5 DUP5 PUSH2 0xB42 JUMP JUMPDEST POP POP POP JUMP JUMPDEST JUMPDEST DUP2 DUP2 LT ISZERO PUSH2 0xBA1 JUMPI PUSH2 0xB96 PUSH0 DUP3 PUSH2 0xB6B JUMP JUMPDEST PUSH1 0x1 DUP2 ADD SWAP1 POP PUSH2 0xB84 JUMP JUMPDEST POP POP JUMP JUMPDEST PUSH1 0x1F DUP3 GT ISZERO PUSH2 0xBE6 JUMPI PUSH2 0xBB7 DUP2 PUSH2 0xA91 JUMP JUMPDEST PUSH2 0xBC0 DUP5 PUSH2 0xAA3 JUMP JUMPDEST DUP2 ADD PUSH1 0x20 DUP6 LT ISZERO PUSH2 0xBCF JUMPI DUP2 SWAP1 POP JUMPDEST PUSH2 0xBE3 PUSH2 0xBDB DUP6 PUSH2 0xAA3 JUMP JUMPDEST DUP4 ADD DUP3 PUSH2 0xB83 JUMP JUMPDEST POP POP JUMPDEST POP POP POP JUMP JUMPDEST PUSH0 DUP3 DUP3 SHR SWAP1 POP SWAP3 SWAP2 POP POP JUMP JUMPDEST PUSH0 PUSH2 0xC06 PUSH0 NOT DUP5 PUSH1 0x8 MUL PUSH2 0xBEB JUMP JUMPDEST NOT DUP1 DUP4 AND SWAP2 POP POP SWAP3 SWAP2 POP POP JUMP JUMPDEST PUSH0 PUSH2 0xC1E DUP4 DUP4 PUSH2 0xBF7 JUMP JUMPDEST SWAP2 POP DUP3 PUSH1 0x2 MUL DUP3 OR SWAP1 POP SWAP3 SWAP2 POP POP JUMP JUMPDEST PUSH2 0xC37 DUP3 PUSH2 0x785 JUMP JUMPDEST PUSH8 0xFFFFFFFFFFFFFFFF DUP2 GT ISZERO PUSH2 0xC50 JUMPI PUSH2 0xC4F PUSH2 0x323 JUMP JUMPDEST JUMPDEST PUSH2 0xC5A DUP3 SLOAD PUSH2 0xA61 JUMP JUMPDEST PUSH2 0xC65 DUP3 DUP3 DUP6 PUSH2 0xBA5 JUMP JUMPDEST PUSH0 PUSH1 0x20 SWAP1 POP PUSH1 0x1F DUP4 GT PUSH1 0x1 DUP2 EQ PUSH2 0xC96 JUMPI PUSH0 DUP5 ISZERO PUSH2 0xC84 JUMPI DUP3 DUP8 ADD MLOAD SWAP1 POP JUMPDEST PUSH2 0xC8E DUP6 DUP3 PUSH2 0xC13 JUMP JUMPDEST DUP7 SSTORE POP PUSH2 0xCF5 JUMP JUMPDEST PUSH1 0x1F NOT DUP5 AND PUSH2 0xCA4 DUP7 PUSH2 0xA91 JUMP JUMPDEST PUSH0 JUMPDEST DUP3 DUP2 LT ISZERO PUSH2 0xCCB JUMPI DUP5 DUP10 ADD MLOAD DUP3 SSTORE PUSH1 0x1 DUP3 ADD SWAP2 POP PUSH1 0x20 DUP6 ADD SWAP5 POP PUSH1 0x20 DUP2 ADD SWAP1 POP PUSH2 0xCA6 JUMP JUMPDEST DUP7 DUP4 LT ISZERO PUSH2 0xCE8 JUMPI DUP5 DUP10 ADD MLOAD PUSH2 0xCE4 PUSH1 0x1F DUP10 AND DUP3 PUSH2 0xBF7 JUMP JUMPDEST DUP4 SSTORE POP JUMPDEST PUSH1 0x1 PUSH1 0x2 DUP9 MUL ADD DUP9 SSTORE POP POP POP JUMPDEST POP POP POP POP POP POP JUMP INVALID LOG2 PUSH5 0x6970667358 0x22 SLT KECCAK256 PUSH10 0xED4661088ADF03A691BA 0xDA BLOBHASH SDIV DUP13 0x29 0xC3 STOP 0xA9 PUSH7 0xBA073271F5894F SWAP5 PUSH20 0x475BEC64736F6C63430008180033000000000000 "
		},
		"gasEstimates": {
			"creation": {
				"codeDepositCost": "675800",
				"executionCost": "706",
				"totalCost": "676506"
			},
			"external": {
				"saveDisutedServiceRequest(address,(string,string,address,address,int256,int256,int256,int256,string,string,uint256,uint256,uint256,uint256,uint256,uint256,address,uint8))": "infinite"
			}
		},
		"methodIdentifiers": {
			"saveDisutedServiceRequest(address,(string,string,address,address,int256,int256,int256,int256,string,string,uint256,uint256,uint256,uint256,uint256,uint256,address,uint8))": "77e6b3d8"
		}
	},
	"abi": [
		{
			"anonymous": false,
			"inputs": [
				{
					"indexed": false,
					"internalType": "address",
					"name": "from",
					"type": "address"
				},
				{
					"components": [
						{
							"internalType": "string",
							"name": "serviceRequestId",
							"type": "string"
						},
						{
							"internalType": "string",
							"name": "description",
							"type": "string"
						},
						{
							"internalType": "address",
							"name": "shipperAddr",
							"type": "address"
						},
						{
							"internalType": "address",
							"name": "receiverAddr",
							"type": "address"
						},
						{
							"internalType": "int256",
							"name": "originLatitude",
							"type": "int256"
						},
						{
							"internalType": "int256",
							"name": "originLongitude",
							"type": "int256"
						},
						{
							"internalType": "int256",
							"name": "destinationLatitude",
							"type": "int256"
						},
						{
							"internalType": "int256",
							"name": "destinationLongitude",
							"type": "int256"
						},
						{
							"internalType": "string",
							"name": "originLink",
							"type": "string"
						},
						{
							"internalType": "string",
							"name": "destinationLink",
							"type": "string"
						},
						{
							"internalType": "uint256",
							"name": "cargoInsurableValue",
							"type": "uint256"
						},
						{
							"internalType": "uint256",
							"name": "serviceFee",
							"type": "uint256"
						},
						{
							"internalType": "uint256",
							"name": "serviceFeeByBidder",
							"type": "uint256"
						},
						{
							"internalType": "uint256",
							"name": "requestedPickupTime",
							"type": "uint256"
						},
						{
							"internalType": "uint256",
							"name": "requestedDeliveryTime",
							"type": "uint256"
						},
						{
							"internalType": "uint256",
							"name": "auctionTime",
							"type": "uint256"
						},
						{
							"internalType": "address",
							"name": "driverAssigned",
							"type": "address"
						},
						{
							"internalType": "enum Types.Status",
							"name": "status",
							"type": "uint8"
						}
					],
					"indexed": false,
					"internalType": "struct Types.ServiceRequestInfo",
					"name": "serviceRequestInfo",
					"type": "tuple"
				}
			],
			"name": "OnlyDisputedSRCanBeSaved",
			"type": "event"
		},
		{
			"inputs": [
				{
					"internalType": "address",
					"name": "from",
					"type": "address"
				},
				{
					"components": [
						{
							"internalType": "string",
							"name": "serviceRequestId",
							"type": "string"
						},
						{
							"internalType": "string",
							"name": "description",
							"type": "string"
						},
						{
							"internalType": "address",
							"name": "shipperAddr",
							"type": "address"
						},
						{
							"internalType": "address",
							"name": "receiverAddr",
							"type": "address"
						},
						{
							"internalType": "int256",
							"name": "originLatitude",
							"type": "int256"
						},
						{
							"internalType": "int256",
							"name": "originLongitude",
							"type": "int256"
						},
						{
							"internalType": "int256",
							"name": "destinationLatitude",
							"type": "int256"
						},
						{
							"internalType": "int256",
							"name": "destinationLongitude",
							"type": "int256"
						},
						{
							"internalType": "string",
							"name": "originLink",
							"type": "string"
						},
						{
							"internalType": "string",
							"name": "destinationLink",
							"type": "string"
						},
						{
							"internalType": "uint256",
							"name": "cargoInsurableValue",
							"type": "uint256"
						},
						{
							"internalType": "uint256",
							"name": "serviceFee",
							"type": "uint256"
						},
						{
							"internalType": "uint256",
							"name": "serviceFeeByBidder",
							"type": "uint256"
						},
						{
							"internalType": "uint256",
							"name": "requestedPickupTime",
							"type": "uint256"
						},
						{
							"internalType": "uint256",
							"name": "requestedDeliveryTime",
							"type": "uint256"
						},
						{
							"internalType": "uint256",
							"name": "auctionTime",
							"type": "uint256"
						},
						{
							"internalType": "address",
							"name": "driverAssigned",
							"type": "address"
						},
						{
							"internalType": "enum Types.Status",
							"name": "status",
							"type": "uint8"
						}
					],
					"internalType": "struct Types.ServiceRequestInfo",
					"name": "serviceRequestInfo",
					"type": "tuple"
				}
			],
			"name": "saveDisutedServiceRequest",
			"outputs": [],
			"stateMutability": "nonpayable",
			"type": "function"
		}
	]
}