{
	"data": {
		"bytecode": {
			"linkReferences": {
				"contracts/Dispute/Helpers.sol": {
					"Helpers": [
						{
							"length": 20,
							"start": 3978
						}
					]
				}
			},
			"object": "6080604052348015600e575f80fd5b50612ad78061001c5f395ff3fe608060405234801561000f575f80fd5b506004361061003f575f3560e01c806304a215fc1461004357806377e6b3d81461006157806390ca27f31461007d575b5f80fd5b61004b610099565b6040516100589190611a37565b60405180910390f35b61007b60048036038101906100769190611e50565b610636565b005b61009760048036038101906100929190611ecd565b610938565b005b60605f6100a533610e63565b90505f808054905067ffffffffffffffff8111156100c6576100c5611a96565b5b6040519080825280602002602001820160405280156100ff57816020015b6100ec6115a6565b8152602001906001900390816100e45790505b5090505f805b5f80549050811015610583575f80828154811061012557610124611f27565b5b905f5260205f209060110201604051806102400160405290815f8201805461014c90611f81565b80601f016020809104026020016040519081016040528092919081815260200182805461017890611f81565b80156101c35780601f1061019a576101008083540402835291602001916101c3565b820191905f5260205f20905b8154815290600101906020018083116101a657829003601f168201915b505050505081526020016001820180546101dc90611f81565b80601f016020809104026020016040519081016040528092919081815260200182805461020890611f81565b80156102535780601f1061022a57610100808354040283529160200191610253565b820191905f5260205f20905b81548152906001019060200180831161023657829003601f168201915b50505050508152602001600282015f9054906101000a900473ffffffffffffffffffffffffffffffffffffffff1673ffffffffffffffffffffffffffffffffffffffff1673ffffffffffffffffffffffffffffffffffffffff168152602001600382015f9054906101000a900473ffffffffffffffffffffffffffffffffffffffff1673ffffffffffffffffffffffffffffffffffffffff1673ffffffffffffffffffffffffffffffffffffffff1681526020016004820154815260200160058201548152602001600682015481526020016007820154815260200160088201805461033e90611f81565b80601f016020809104026020016040519081016040528092919081815260200182805461036a90611f81565b80156103b55780601f1061038c576101008083540402835291602001916103b5565b820191905f5260205f20905b81548152906001019060200180831161039857829003601f168201915b505050505081526020016009820180546103ce90611f81565b80601f01602080910402602001604051908101604052809291908181526020018280546103fa90611f81565b80156104455780601f1061041c57610100808354040283529160200191610445565b820191905f5260205f20905b81548152906001019060200180831161042857829003601f168201915b50505050508152602001600a8201548152602001600b8201548152602001600c8201548152602001600d8201548152602001600e8201548152602001600f8201548152602001601082015f9054906101000a900473ffffffffffffffffffffffffffffffffffffffff1673ffffffffffffffffffffffffffffffffffffffff1673ffffffffffffffffffffffffffffffffffffffff1681526020016010820160149054906101000a900460ff16600a8111156105045761050361179e565b5b600a8111156105165761051561179e565b5b81525050905061052b85826101000151610e7b565b8015610542575061054185826101000151610e7b565b5b15610575578084848151811061055b5761055a611f27565b5b6020026020010181905250828061057190611fde565b9350505b508080600101915050610105565b505f8167ffffffffffffffff81111561059f5761059e611a96565b5b6040519080825280602002602001820160405280156105d857816020015b6105c56115a6565b8152602001906001900390816105bd5790505b5090505f5b8281101561062b578381815181106105f8576105f7611f27565b5b602002602001015182828151811061061357610612611f27565b5b602002602001018190525080806001019150506105dd565b508094505050505090565b6009600a81111561064a5761064961179e565b5b816102200151600a8111156106625761066161179e565b5b146106a5577f2bb4b899e8f456da8fdc5a39646630653af0d5dff7c5dbd83c20fba63a2d8d8882826040516106989291906121c8565b60405180910390a1610934565b5f81908060018154018082558091505060019003905f5260205f2090601102015f909190919091505f820151815f0190816106e09190612393565b5060208201518160010190816106f69190612393565b506040820151816002015f6101000a81548173ffffffffffffffffffffffffffffffffffffffff021916908373ffffffffffffffffffffffffffffffffffffffff1602179055506060820151816003015f6101000a81548173ffffffffffffffffffffffffffffffffffffffff021916908373ffffffffffffffffffffffffffffffffffffffff1602179055506080820151816004015560a0820151816005015560c0820151816006015560e082015181600701556101008201518160080190816107c19190612393565b506101208201518160090190816107d89190612393565b5061014082015181600a015561016082015181600b015561018082015181600c01556101a082015181600d01556101c082015181600e01556101e082015181600f0155610200820151816010015f6101000a81548173ffffffffffffffffffffffffffffffffffffffff021916908373ffffffffffffffffffffffffffffffffffffffff1602179055506102208201518160100160146101000a81548160ff0219169083600a81111561088e5761088d61179e565b5b021790555050505f60405180606001604052805f81526020015f81526020015f8152509050806001835f01516040516108c7919061249c565b90815260200160405180910390205f820151815f015560208201518160010155604082015181600201559050507f3021e48b95cf7a7864f6c33157631240af7ebcd97aa273e32728ce0b58a0277e83835f01518460405161092a939291906124fa565b60405180910390a1505b5050565b5f600283604051610949919061249c565b90815260200160405180910390208054806020026020016040519081016040528092919081815260200182805480156109d457602002820191905f5260205f20905b815f9054906101000a900473ffffffffffffffffffffffffffffffffffffffff1673ffffffffffffffffffffffffffffffffffffffff168152602001906001019080831161098b575b505050505090505f5b8151811015610a7d573373ffffffffffffffffffffffffffffffffffffffff16828281518110610a1057610a0f611f27565b5b602002602001015173ffffffffffffffffffffffffffffffffffffffff1603610a7057836040517fb068f674000000000000000000000000000000000000000000000000000000008152600401610a6791906125ad565b60405180910390fd5b80806001019150506109dd565b505f610a8884610f4e565b90505f815f015190505f610aa082610200015161147c565b9050610ab181836101000151610e7b565b1580610ac95750610ac781836101000151610e7b565b155b15610b0b57856040517f09d8f3d3000000000000000000000000000000000000000000000000000000008152600401610b029190612650565b60405180910390fd5b5f600187604051610b1c919061249c565b90815260200160405180910390206040518060600160405290815f82015481526020016001820154815260200160028201548152505090506005816040015110610cb0578060200151815f0151148015610ba557503373ffffffffffffffffffffffffffffffffffffffff16836040015173ffffffffffffffffffffffffffffffffffffffff16145b15610c7357610bb48787611494565b600287604051610bc4919061249c565b908152602001604051809103902033908060018154018082558091505060019003905f5260205f20015f9091909190916101000a81548173ffffffffffffffffffffffffffffffffffffffff021916908373ffffffffffffffffffffffffffffffffffffffff1602179055507f088e614dce54b9cab9e19a27c61e6a303485c70b576bb2e65503dbb10f0b00123388604051610c619291906126cd565b60405180910390a15050505050610e5f565b866040517f4f37edf4000000000000000000000000000000000000000000000000000000008152600401610ca79190612758565b60405180910390fd5b826040015173ffffffffffffffffffffffffffffffffffffffff163373ffffffffffffffffffffffffffffffffffffffff161480610d1d5750826060015173ffffffffffffffffffffffffffffffffffffffff163373ffffffffffffffffffffffffffffffffffffffff16145b80610d58575082610200015173ffffffffffffffffffffffffffffffffffffffff163373ffffffffffffffffffffffffffffffffffffffff16145b15610d9a57866040517f2927ddc0000000000000000000000000000000000000000000000000000000008152600401610d9191906127d5565b60405180910390fd5b600287604051610daa919061249c565b908152602001604051809103902033908060018154018082558091505060019003905f5260205f20015f9091909190916101000a81548173ffffffffffffffffffffffffffffffffffffffff021916908373ffffffffffffffffffffffffffffffffffffffff160217905550610e208787611494565b7f088e614dce54b9cab9e19a27c61e6a303485c70b576bb2e65503dbb10f0b00123388604051610e51929190612852565b60405180910390a150505050505b5050565b606060405180602001604052805f8152509050919050565b5f808390505f839050805182511115610e98575f92505050610f48565b5f5b8251811015610f4057818181518110610eb657610eb5611f27565b5b602001015160f81c60f81b7effffffffffffffffffffffffffffffffffffffffffffffffffffffffffffff1916838281518110610ef657610ef5611f27565b5b602001015160f81c60f81b7effffffffffffffffffffffffffffffffffffffffffffffffffffffffffffff191614610f33575f9350505050610f48565b8080600101915050610e9a565b506001925050505b92915050565b610f56611677565b610f5e611677565b5f5b5f805490508110156114395773__$74c743f6ea08d47a273d36e62cf8362df4$__63bed34bba5f8381548110610f9957610f98611f27565b5b905f5260205f2090601102015f01866040518363ffffffff1660e01b8152600401610fc592919061295c565b602060405180830381865af4158015610fe0573d5f803e3d5ffd5b505050506040513d601f19601f8201168201806040525081019061100491906129c6565b1561142c575f818154811061101c5761101b611f27565b5b905f5260205f209060110201604051806102400160405290815f8201805461104390611f81565b80601f016020809104026020016040519081016040528092919081815260200182805461106f90611f81565b80156110ba5780601f10611091576101008083540402835291602001916110ba565b820191905f5260205f20905b81548152906001019060200180831161109d57829003601f168201915b505050505081526020016001820180546110d390611f81565b80601f01602080910402602001604051908101604052809291908181526020018280546110ff90611f81565b801561114a5780601f106111215761010080835404028352916020019161114a565b820191905f5260205f20905b81548152906001019060200180831161112d57829003601f168201915b50505050508152602001600282015f9054906101000a900473ffffffffffffffffffffffffffffffffffffffff1673ffffffffffffffffffffffffffffffffffffffff1673ffffffffffffffffffffffffffffffffffffffff168152602001600382015f9054906101000a900473ffffffffffffffffffffffffffffffffffffffff1673ffffffffffffffffffffffffffffffffffffffff1673ffffffffffffffffffffffffffffffffffffffff1681526020016004820154815260200160058201548152602001600682015481526020016007820154815260200160088201805461123590611f81565b80601f016020809104026020016040519081016040528092919081815260200182805461126190611f81565b80156112ac5780601f10611283576101008083540402835291602001916112ac565b820191905f5260205f20905b81548152906001019060200180831161128f57829003601f168201915b505050505081526020016009820180546112c590611f81565b80601f01602080910402602001604051908101604052809291908181526020018280546112f190611f81565b801561133c5780601f106113135761010080835404028352916020019161133c565b820191905f5260205f20905b81548152906001019060200180831161131f57829003601f168201915b50505050508152602001600a8201548152602001600b8201548152602001600c8201548152602001600d8201548152602001600e8201548152602001600f8201548152602001601082015f9054906101000a900473ffffffffffffffffffffffffffffffffffffffff1673ffffffffffffffffffffffffffffffffffffffff1673ffffffffffffffffffffffffffffffffffffffff1681526020016010820160149054906101000a900460ff16600a8111156113fb576113fa61179e565b5b600a81111561140d5761140c61179e565b5b81525050825f0181905250808260200181815250508192505050611477565b8080600101915050610f60565b50826040517f0972acef00000000000000000000000000000000000000000000000000000000815260040161146e9190612a3b565b60405180910390fd5b919050565b606060405180602001604052805f8152509050919050565b5f60018111156114a7576114a661179e565b5b8160018111156114ba576114b961179e565b5b036114f9576001826040516114cf919061249c565b90815260200160405180910390205f015f8154809291906114ef90611fde565b9190505550611530565b600182604051611509919061249c565b90815260200160405180910390206001015f81548092919061152a90611fde565b91905055505b600182604051611540919061249c565b908152602001604051809103902060010154600183604051611562919061249c565b90815260200160405180910390205f015461157d9190612a6e565b60018360405161158d919061249c565b9081526020016040518091039020600201819055505050565b60405180610240016040528060608152602001606081526020015f73ffffffffffffffffffffffffffffffffffffffff1681526020015f73ffffffffffffffffffffffffffffffffffffffff1681526020015f81526020015f81526020015f81526020015f815260200160608152602001606081526020015f81526020015f81526020015f81526020015f81526020015f81526020015f81526020015f73ffffffffffffffffffffffffffffffffffffffff1681526020015f600a8111156116715761167061179e565b5b81525090565b604051806040016040528061168a6115a6565b81526020015f81525090565b5f81519050919050565b5f82825260208201905092915050565b5f819050602082019050919050565b5f81519050919050565b5f82825260208201905092915050565b8281835e5f83830152505050565b5f601f19601f8301169050919050565b5f611701826116bf565b61170b81856116c9565b935061171b8185602086016116d9565b611724816116e7565b840191505092915050565b5f73ffffffffffffffffffffffffffffffffffffffff82169050919050565b5f6117588261172f565b9050919050565b6117688161174e565b82525050565b5f819050919050565b6117808161176e565b82525050565b5f819050919050565b61179881611786565b82525050565b7f4e487b71000000000000000000000000000000000000000000000000000000005f52602160045260245ffd5b600b81106117dc576117db61179e565b5b50565b5f8190506117ec826117cb565b919050565b5f6117fb826117df565b9050919050565b61180b816117f1565b82525050565b5f61024083015f8301518482035f86015261182c82826116f7565b9150506020830151848203602086015261184682826116f7565b915050604083015161185b604086018261175f565b50606083015161186e606086018261175f565b5060808301516118816080860182611777565b5060a083015161189460a0860182611777565b5060c08301516118a760c0860182611777565b5060e08301516118ba60e0860182611777565b506101008301518482036101008601526118d482826116f7565b9150506101208301518482036101208601526118f082826116f7565b91505061014083015161190761014086018261178f565b5061016083015161191c61016086018261178f565b5061018083015161193161018086018261178f565b506101a08301516119466101a086018261178f565b506101c083015161195b6101c086018261178f565b506101e08301516119706101e086018261178f565b5061020083015161198561020086018261175f565b5061022083015161199a610220860182611802565b508091505092915050565b5f6119b08383611811565b905092915050565b5f602082019050919050565b5f6119ce82611696565b6119d881856116a0565b9350836020820285016119ea856116b0565b805f5b85811015611a255784840389528151611a0685826119a5565b9450611a11836119b8565b925060208a019950506001810190506119ed565b50829750879550505050505092915050565b5f6020820190508181035f830152611a4f81846119c4565b905092915050565b5f604051905090565b5f80fd5b5f80fd5b611a718161174e565b8114611a7b575f80fd5b50565b5f81359050611a8c81611a68565b92915050565b5f80fd5b7f4e487b71000000000000000000000000000000000000000000000000000000005f52604160045260245ffd5b611acc826116e7565b810181811067ffffffffffffffff82111715611aeb57611aea611a96565b5b80604052505050565b5f611afd611a57565b9050611b098282611ac3565b919050565b5f80fd5b5f80fd5b5f80fd5b5f67ffffffffffffffff821115611b3457611b33611a96565b5b611b3d826116e7565b9050602081019050919050565b828183375f83830152505050565b5f611b6a611b6584611b1a565b611af4565b905082815260208101848484011115611b8657611b85611b16565b5b611b91848285611b4a565b509392505050565b5f82601f830112611bad57611bac611b12565b5b8135611bbd848260208601611b58565b91505092915050565b611bcf8161176e565b8114611bd9575f80fd5b50565b5f81359050611bea81611bc6565b92915050565b611bf981611786565b8114611c03575f80fd5b50565b5f81359050611c1481611bf0565b92915050565b600b8110611c26575f80fd5b50565b5f81359050611c3781611c1a565b92915050565b5f6102408284031215611c5357611c52611a92565b5b611c5e610240611af4565b90505f82013567ffffffffffffffff811115611c7d57611c7c611b0e565b5b611c8984828501611b99565b5f83015250602082013567ffffffffffffffff811115611cac57611cab611b0e565b5b611cb884828501611b99565b6020830152506040611ccc84828501611a7e565b6040830152506060611ce084828501611a7e565b6060830152506080611cf484828501611bdc565b60808301525060a0611d0884828501611bdc565b60a08301525060c0611d1c84828501611bdc565b60c08301525060e0611d3084828501611bdc565b60e08301525061010082013567ffffffffffffffff811115611d5557611d54611b0e565b5b611d6184828501611b99565b6101008301525061012082013567ffffffffffffffff811115611d8757611d86611b0e565b5b611d9384828501611b99565b61012083015250610140611da984828501611c06565b61014083015250610160611dbf84828501611c06565b61016083015250610180611dd584828501611c06565b610180830152506101a0611deb84828501611c06565b6101a0830152506101c0611e0184828501611c06565b6101c0830152506101e0611e1784828501611c06565b6101e083015250610200611e2d84828501611a7e565b61020083015250610220611e4384828501611c29565b6102208301525092915050565b5f8060408385031215611e6657611e65611a60565b5b5f611e7385828601611a7e565b925050602083013567ffffffffffffffff811115611e9457611e93611a64565b5b611ea085828601611c3d565b9150509250929050565b60028110611eb6575f80fd5b50565b5f81359050611ec781611eaa565b92915050565b5f8060408385031215611ee357611ee2611a60565b5b5f83013567ffffffffffffffff811115611f0057611eff611a64565b5b611f0c85828601611b99565b9250506020611f1d85828601611eb9565b9150509250929050565b7f4e487b71000000000000000000000000000000000000000000000000000000005f52603260045260245ffd5b7f4e487b71000000000000000000000000000000000000000000000000000000005f52602260045260245ffd5b5f6002820490506001821680611f9857607f821691505b602082108103611fab57611faa611f54565b5b50919050565b7f4e487b71000000000000000000000000000000000000000000000000000000005f52601160045260245ffd5b5f611fe882611786565b91507fffffffffffffffffffffffffffffffffffffffffffffffffffffffffffffffff820361201a57612019611fb1565b5b600182019050919050565b61202e8161174e565b82525050565b5f61024083015f8301518482035f86015261204f82826116f7565b9150506020830151848203602086015261206982826116f7565b915050604083015161207e604086018261175f565b506060830151612091606086018261175f565b5060808301516120a46080860182611777565b5060a08301516120b760a0860182611777565b5060c08301516120ca60c0860182611777565b5060e08301516120dd60e0860182611777565b506101008301518482036101008601526120f782826116f7565b91505061012083015184820361012086015261211382826116f7565b91505061014083015161212a61014086018261178f565b5061016083015161213f61016086018261178f565b5061018083015161215461018086018261178f565b506101a08301516121696101a086018261178f565b506101c083015161217e6101c086018261178f565b506101e08301516121936101e086018261178f565b506102008301516121a861020086018261175f565b506102208301516121bd610220860182611802565b508091505092915050565b5f6040820190506121db5f830185612025565b81810360208301526121ed8184612034565b90509392505050565b5f819050815f5260205f209050919050565b5f6020601f8301049050919050565b5f82821b905092915050565b5f600883026122527fffffffffffffffffffffffffffffffffffffffffffffffffffffffffffffffff82612217565b61225c8683612217565b95508019841693508086168417925050509392505050565b5f819050919050565b5f61229761229261228d84611786565b612274565b611786565b9050919050565b5f819050919050565b6122b08361227d565b6122c46122bc8261229e565b848454612223565b825550505050565b5f90565b6122d86122cc565b6122e38184846122a7565b505050565b5b81811015612306576122fb5f826122d0565b6001810190506122e9565b5050565b601f82111561234b5761231c816121f6565b61232584612208565b81016020851015612334578190505b61234861234085612208565b8301826122e8565b50505b505050565b5f82821c905092915050565b5f61236b5f1984600802612350565b1980831691505092915050565b5f612383838361235c565b9150826002028217905092915050565b61239c826116bf565b67ffffffffffffffff8111156123b5576123b4611a96565b5b6123bf8254611f81565b6123ca82828561230a565b5f60209050601f8311600181146123fb575f84156123e9578287015190505b6123f38582612378565b86555061245a565b601f198416612409866121f6565b5f5b828110156124305784890151825560018201915060208501945060208101905061240b565b8683101561244d5784890151612449601f89168261235c565b8355505b6001600288020188555050505b505050505050565b5f81905092915050565b5f612476826116bf565b6124808185612462565b93506124908185602086016116d9565b80840191505092915050565b5f6124a7828461246c565b915081905092915050565b5f82825260208201905092915050565b5f6124cc826116bf565b6124d681856124b2565b93506124e68185602086016116d9565b6124ef816116e7565b840191505092915050565b5f60608201905061250d5f830186612025565b818103602083015261251f81856124c2565b905081810360408301526125338184612034565b9050949350505050565b7f596f75206861766520616c726561647920766f74656420666f722074686973205f8201527f7365727669636520726571756573740000000000000000000000000000000000602082015250565b5f612597602f836124b2565b91506125a28261253d565b604082019050919050565b5f6040820190508181035f8301526125c581846124c2565b905081810360208301526125d88161258b565b905092915050565b7f536572766963652072657175657374206e6f7420696e20796f757220726567695f8201527f6f6e000000000000000000000000000000000000000000000000000000000000602082015250565b5f61263a6022836124b2565b9150612645826125e0565b604082019050919050565b5f6040820190508181035f83015261266881846124c2565b9050818103602083015261267b8161262e565b905092915050565b7f566f746564207375636365737366756c6c7920627920736869707065720000005f82015250565b5f6126b7601d836124b2565b91506126c282612683565b602082019050919050565b5f6060820190506126e05f830185612025565b81810360208301526126f281846124c2565b90508181036040830152612705816126ab565b90509392505050565b7f566f74696e672068617320616c726561647920656e64656400000000000000005f82015250565b5f6127426018836124b2565b915061274d8261270e565b602082019050919050565b5f6040820190508181035f83015261277081846124c2565b9050818103602083015261278381612736565b905092915050565b7f53656c6620766f7465206973206e6f7420616c6c6f77656400000000000000005f82015250565b5f6127bf6018836124b2565b91506127ca8261278b565b602082019050919050565b5f6040820190508181035f8301526127ed81846124c2565b90508181036020830152612800816127b3565b905092915050565b7f566f746564207375636365737366756c6c7900000000000000000000000000005f82015250565b5f61283c6012836124b2565b915061284782612808565b602082019050919050565b5f6060820190506128655f830185612025565b818103602083015261287781846124c2565b9050818103604083015261288a81612830565b90509392505050565b5f82825260208201905092915050565b5f81546128af81611f81565b6128b98186612893565b9450600182165f81146128d357600181146128e95761291b565b60ff19831686528115156020028601935061291b565b6128f2856121f6565b5f5b83811015612913578154818901526001820191506020810190506128f4565b808801955050505b50505092915050565b5f61292e826116bf565b6129388185612893565b93506129488185602086016116d9565b612951816116e7565b840191505092915050565b5f6040820190508181035f83015261297481856128a3565b905081810360208301526129888184612924565b90509392505050565b5f8115159050919050565b6129a581612991565b81146129af575f80fd5b50565b5f815190506129c08161299c565b92915050565b5f602082840312156129db576129da611a60565b5b5f6129e8848285016129b2565b91505092915050565b7f53657276696365207265717565737420646f6573206e6f7420657869737473005f82015250565b5f612a25601f836124b2565b9150612a30826129f1565b602082019050919050565b5f6040820190508181035f830152612a5381846124c2565b90508181036020830152612a6681612a19565b905092915050565b5f612a7882611786565b9150612a8383611786565b9250828201905080821115612a9b57612a9a611fb1565b5b9291505056fea2646970667358221220b40469ed728236ef398a3e4f1dcc47de30066906520474847d2d98573185745e64736f6c63430008190033",
			"opcodes": "PUSH1 0x80 PUSH1 0x40 MSTORE CALLVALUE DUP1 ISZERO PUSH1 0xE JUMPI PUSH0 DUP1 REVERT JUMPDEST POP PUSH2 0x2AD7 DUP1 PUSH2 0x1C PUSH0 CODECOPY PUSH0 RETURN INVALID PUSH1 0x80 PUSH1 0x40 MSTORE CALLVALUE DUP1 ISZERO PUSH2 0xF JUMPI PUSH0 DUP1 REVERT JUMPDEST POP PUSH1 0x4 CALLDATASIZE LT PUSH2 0x3F JUMPI PUSH0 CALLDATALOAD PUSH1 0xE0 SHR DUP1 PUSH4 0x4A215FC EQ PUSH2 0x43 JUMPI DUP1 PUSH4 0x77E6B3D8 EQ PUSH2 0x61 JUMPI DUP1 PUSH4 0x90CA27F3 EQ PUSH2 0x7D JUMPI JUMPDEST PUSH0 DUP1 REVERT JUMPDEST PUSH2 0x4B PUSH2 0x99 JUMP JUMPDEST PUSH1 0x40 MLOAD PUSH2 0x58 SWAP2 SWAP1 PUSH2 0x1A37 JUMP JUMPDEST PUSH1 0x40 MLOAD DUP1 SWAP2 SUB SWAP1 RETURN JUMPDEST PUSH2 0x7B PUSH1 0x4 DUP1 CALLDATASIZE SUB DUP2 ADD SWAP1 PUSH2 0x76 SWAP2 SWAP1 PUSH2 0x1E50 JUMP JUMPDEST PUSH2 0x636 JUMP JUMPDEST STOP JUMPDEST PUSH2 0x97 PUSH1 0x4 DUP1 CALLDATASIZE SUB DUP2 ADD SWAP1 PUSH2 0x92 SWAP2 SWAP1 PUSH2 0x1ECD JUMP JUMPDEST PUSH2 0x938 JUMP JUMPDEST STOP JUMPDEST PUSH1 0x60 PUSH0 PUSH2 0xA5 CALLER PUSH2 0xE63 JUMP JUMPDEST SWAP1 POP PUSH0 DUP1 DUP1 SLOAD SWAP1 POP PUSH8 0xFFFFFFFFFFFFFFFF DUP2 GT ISZERO PUSH2 0xC6 JUMPI PUSH2 0xC5 PUSH2 0x1A96 JUMP JUMPDEST JUMPDEST PUSH1 0x40 MLOAD SWAP1 DUP1 DUP3 MSTORE DUP1 PUSH1 0x20 MUL PUSH1 0x20 ADD DUP3 ADD PUSH1 0x40 MSTORE DUP1 ISZERO PUSH2 0xFF JUMPI DUP2 PUSH1 0x20 ADD JUMPDEST PUSH2 0xEC PUSH2 0x15A6 JUMP JUMPDEST DUP2 MSTORE PUSH1 0x20 ADD SWAP1 PUSH1 0x1 SWAP1 SUB SWAP1 DUP2 PUSH2 0xE4 JUMPI SWAP1 POP JUMPDEST POP SWAP1 POP PUSH0 DUP1 JUMPDEST PUSH0 DUP1 SLOAD SWAP1 POP DUP2 LT ISZERO PUSH2 0x583 JUMPI PUSH0 DUP1 DUP3 DUP2 SLOAD DUP2 LT PUSH2 0x125 JUMPI PUSH2 0x124 PUSH2 0x1F27 JUMP JUMPDEST JUMPDEST SWAP1 PUSH0 MSTORE PUSH1 0x20 PUSH0 KECCAK256 SWAP1 PUSH1 0x11 MUL ADD PUSH1 0x40 MLOAD DUP1 PUSH2 0x240 ADD PUSH1 0x40 MSTORE SWAP1 DUP2 PUSH0 DUP3 ADD DUP1 SLOAD PUSH2 0x14C SWAP1 PUSH2 0x1F81 JUMP JUMPDEST DUP1 PUSH1 0x1F ADD PUSH1 0x20 DUP1 SWAP2 DIV MUL PUSH1 0x20 ADD PUSH1 0x40 MLOAD SWAP1 DUP2 ADD PUSH1 0x40 MSTORE DUP1 SWAP3 SWAP2 SWAP1 DUP2 DUP2 MSTORE PUSH1 0x20 ADD DUP3 DUP1 SLOAD PUSH2 0x178 SWAP1 PUSH2 0x1F81 JUMP JUMPDEST DUP1 ISZERO PUSH2 0x1C3 JUMPI DUP1 PUSH1 0x1F LT PUSH2 0x19A JUMPI PUSH2 0x100 DUP1 DUP4 SLOAD DIV MUL DUP4 MSTORE SWAP2 PUSH1 0x20 ADD SWAP2 PUSH2 0x1C3 JUMP JUMPDEST DUP3 ADD SWAP2 SWAP1 PUSH0 MSTORE PUSH1 0x20 PUSH0 KECCAK256 SWAP1 JUMPDEST DUP2 SLOAD DUP2 MSTORE SWAP1 PUSH1 0x1 ADD SWAP1 PUSH1 0x20 ADD DUP1 DUP4 GT PUSH2 0x1A6 JUMPI DUP3 SWAP1 SUB PUSH1 0x1F AND DUP3 ADD SWAP2 JUMPDEST POP POP POP POP POP DUP2 MSTORE PUSH1 0x20 ADD PUSH1 0x1 DUP3 ADD DUP1 SLOAD PUSH2 0x1DC SWAP1 PUSH2 0x1F81 JUMP JUMPDEST DUP1 PUSH1 0x1F ADD PUSH1 0x20 DUP1 SWAP2 DIV MUL PUSH1 0x20 ADD PUSH1 0x40 MLOAD SWAP1 DUP2 ADD PUSH1 0x40 MSTORE DUP1 SWAP3 SWAP2 SWAP1 DUP2 DUP2 MSTORE PUSH1 0x20 ADD DUP3 DUP1 SLOAD PUSH2 0x208 SWAP1 PUSH2 0x1F81 JUMP JUMPDEST DUP1 ISZERO PUSH2 0x253 JUMPI DUP1 PUSH1 0x1F LT PUSH2 0x22A JUMPI PUSH2 0x100 DUP1 DUP4 SLOAD DIV MUL DUP4 MSTORE SWAP2 PUSH1 0x20 ADD SWAP2 PUSH2 0x253 JUMP JUMPDEST DUP3 ADD SWAP2 SWAP1 PUSH0 MSTORE PUSH1 0x20 PUSH0 KECCAK256 SWAP1 JUMPDEST DUP2 SLOAD DUP2 MSTORE SWAP1 PUSH1 0x1 ADD SWAP1 PUSH1 0x20 ADD DUP1 DUP4 GT PUSH2 0x236 JUMPI DUP3 SWAP1 SUB PUSH1 0x1F AND DUP3 ADD SWAP2 JUMPDEST POP POP POP POP POP DUP2 MSTORE PUSH1 0x20 ADD PUSH1 0x2 DUP3 ADD PUSH0 SWAP1 SLOAD SWAP1 PUSH2 0x100 EXP SWAP1 DIV PUSH20 0xFFFFFFFFFFFFFFFFFFFFFFFFFFFFFFFFFFFFFFFF AND PUSH20 0xFFFFFFFFFFFFFFFFFFFFFFFFFFFFFFFFFFFFFFFF AND PUSH20 0xFFFFFFFFFFFFFFFFFFFFFFFFFFFFFFFFFFFFFFFF AND DUP2 MSTORE PUSH1 0x20 ADD PUSH1 0x3 DUP3 ADD PUSH0 SWAP1 SLOAD SWAP1 PUSH2 0x100 EXP SWAP1 DIV PUSH20 0xFFFFFFFFFFFFFFFFFFFFFFFFFFFFFFFFFFFFFFFF AND PUSH20 0xFFFFFFFFFFFFFFFFFFFFFFFFFFFFFFFFFFFFFFFF AND PUSH20 0xFFFFFFFFFFFFFFFFFFFFFFFFFFFFFFFFFFFFFFFF AND DUP2 MSTORE PUSH1 0x20 ADD PUSH1 0x4 DUP3 ADD SLOAD DUP2 MSTORE PUSH1 0x20 ADD PUSH1 0x5 DUP3 ADD SLOAD DUP2 MSTORE PUSH1 0x20 ADD PUSH1 0x6 DUP3 ADD SLOAD DUP2 MSTORE PUSH1 0x20 ADD PUSH1 0x7 DUP3 ADD SLOAD DUP2 MSTORE PUSH1 0x20 ADD PUSH1 0x8 DUP3 ADD DUP1 SLOAD PUSH2 0x33E SWAP1 PUSH2 0x1F81 JUMP JUMPDEST DUP1 PUSH1 0x1F ADD PUSH1 0x20 DUP1 SWAP2 DIV MUL PUSH1 0x20 ADD PUSH1 0x40 MLOAD SWAP1 DUP2 ADD PUSH1 0x40 MSTORE DUP1 SWAP3 SWAP2 SWAP1 DUP2 DUP2 MSTORE PUSH1 0x20 ADD DUP3 DUP1 SLOAD PUSH2 0x36A SWAP1 PUSH2 0x1F81 JUMP JUMPDEST DUP1 ISZERO PUSH2 0x3B5 JUMPI DUP1 PUSH1 0x1F LT PUSH2 0x38C JUMPI PUSH2 0x100 DUP1 DUP4 SLOAD DIV MUL DUP4 MSTORE SWAP2 PUSH1 0x20 ADD SWAP2 PUSH2 0x3B5 JUMP JUMPDEST DUP3 ADD SWAP2 SWAP1 PUSH0 MSTORE PUSH1 0x20 PUSH0 KECCAK256 SWAP1 JUMPDEST DUP2 SLOAD DUP2 MSTORE SWAP1 PUSH1 0x1 ADD SWAP1 PUSH1 0x20 ADD DUP1 DUP4 GT PUSH2 0x398 JUMPI DUP3 SWAP1 SUB PUSH1 0x1F AND DUP3 ADD SWAP2 JUMPDEST POP POP POP POP POP DUP2 MSTORE PUSH1 0x20 ADD PUSH1 0x9 DUP3 ADD DUP1 SLOAD PUSH2 0x3CE SWAP1 PUSH2 0x1F81 JUMP JUMPDEST DUP1 PUSH1 0x1F ADD PUSH1 0x20 DUP1 SWAP2 DIV MUL PUSH1 0x20 ADD PUSH1 0x40 MLOAD SWAP1 DUP2 ADD PUSH1 0x40 MSTORE DUP1 SWAP3 SWAP2 SWAP1 DUP2 DUP2 MSTORE PUSH1 0x20 ADD DUP3 DUP1 SLOAD PUSH2 0x3FA SWAP1 PUSH2 0x1F81 JUMP JUMPDEST DUP1 ISZERO PUSH2 0x445 JUMPI DUP1 PUSH1 0x1F LT PUSH2 0x41C JUMPI PUSH2 0x100 DUP1 DUP4 SLOAD DIV MUL DUP4 MSTORE SWAP2 PUSH1 0x20 ADD SWAP2 PUSH2 0x445 JUMP JUMPDEST DUP3 ADD SWAP2 SWAP1 PUSH0 MSTORE PUSH1 0x20 PUSH0 KECCAK256 SWAP1 JUMPDEST DUP2 SLOAD DUP2 MSTORE SWAP1 PUSH1 0x1 ADD SWAP1 PUSH1 0x20 ADD DUP1 DUP4 GT PUSH2 0x428 JUMPI DUP3 SWAP1 SUB PUSH1 0x1F AND DUP3 ADD SWAP2 JUMPDEST POP POP POP POP POP DUP2 MSTORE PUSH1 0x20 ADD PUSH1 0xA DUP3 ADD SLOAD DUP2 MSTORE PUSH1 0x20 ADD PUSH1 0xB DUP3 ADD SLOAD DUP2 MSTORE PUSH1 0x20 ADD PUSH1 0xC DUP3 ADD SLOAD DUP2 MSTORE PUSH1 0x20 ADD PUSH1 0xD DUP3 ADD SLOAD DUP2 MSTORE PUSH1 0x20 ADD PUSH1 0xE DUP3 ADD SLOAD DUP2 MSTORE PUSH1 0x20 ADD PUSH1 0xF DUP3 ADD SLOAD DUP2 MSTORE PUSH1 0x20 ADD PUSH1 0x10 DUP3 ADD PUSH0 SWAP1 SLOAD SWAP1 PUSH2 0x100 EXP SWAP1 DIV PUSH20 0xFFFFFFFFFFFFFFFFFFFFFFFFFFFFFFFFFFFFFFFF AND PUSH20 0xFFFFFFFFFFFFFFFFFFFFFFFFFFFFFFFFFFFFFFFF AND PUSH20 0xFFFFFFFFFFFFFFFFFFFFFFFFFFFFFFFFFFFFFFFF AND DUP2 MSTORE PUSH1 0x20 ADD PUSH1 0x10 DUP3 ADD PUSH1 0x14 SWAP1 SLOAD SWAP1 PUSH2 0x100 EXP SWAP1 DIV PUSH1 0xFF AND PUSH1 0xA DUP2 GT ISZERO PUSH2 0x504 JUMPI PUSH2 0x503 PUSH2 0x179E JUMP JUMPDEST JUMPDEST PUSH1 0xA DUP2 GT ISZERO PUSH2 0x516 JUMPI PUSH2 0x515 PUSH2 0x179E JUMP JUMPDEST JUMPDEST DUP2 MSTORE POP POP SWAP1 POP PUSH2 0x52B DUP6 DUP3 PUSH2 0x100 ADD MLOAD PUSH2 0xE7B JUMP JUMPDEST DUP1 ISZERO PUSH2 0x542 JUMPI POP PUSH2 0x541 DUP6 DUP3 PUSH2 0x100 ADD MLOAD PUSH2 0xE7B JUMP JUMPDEST JUMPDEST ISZERO PUSH2 0x575 JUMPI DUP1 DUP5 DUP5 DUP2 MLOAD DUP2 LT PUSH2 0x55B JUMPI PUSH2 0x55A PUSH2 0x1F27 JUMP JUMPDEST JUMPDEST PUSH1 0x20 MUL PUSH1 0x20 ADD ADD DUP2 SWAP1 MSTORE POP DUP3 DUP1 PUSH2 0x571 SWAP1 PUSH2 0x1FDE JUMP JUMPDEST SWAP4 POP POP JUMPDEST POP DUP1 DUP1 PUSH1 0x1 ADD SWAP2 POP POP PUSH2 0x105 JUMP JUMPDEST POP PUSH0 DUP2 PUSH8 0xFFFFFFFFFFFFFFFF DUP2 GT ISZERO PUSH2 0x59F JUMPI PUSH2 0x59E PUSH2 0x1A96 JUMP JUMPDEST JUMPDEST PUSH1 0x40 MLOAD SWAP1 DUP1 DUP3 MSTORE DUP1 PUSH1 0x20 MUL PUSH1 0x20 ADD DUP3 ADD PUSH1 0x40 MSTORE DUP1 ISZERO PUSH2 0x5D8 JUMPI DUP2 PUSH1 0x20 ADD JUMPDEST PUSH2 0x5C5 PUSH2 0x15A6 JUMP JUMPDEST DUP2 MSTORE PUSH1 0x20 ADD SWAP1 PUSH1 0x1 SWAP1 SUB SWAP1 DUP2 PUSH2 0x5BD JUMPI SWAP1 POP JUMPDEST POP SWAP1 POP PUSH0 JUMPDEST DUP3 DUP2 LT ISZERO PUSH2 0x62B JUMPI DUP4 DUP2 DUP2 MLOAD DUP2 LT PUSH2 0x5F8 JUMPI PUSH2 0x5F7 PUSH2 0x1F27 JUMP JUMPDEST JUMPDEST PUSH1 0x20 MUL PUSH1 0x20 ADD ADD MLOAD DUP3 DUP3 DUP2 MLOAD DUP2 LT PUSH2 0x613 JUMPI PUSH2 0x612 PUSH2 0x1F27 JUMP JUMPDEST JUMPDEST PUSH1 0x20 MUL PUSH1 0x20 ADD ADD DUP2 SWAP1 MSTORE POP DUP1 DUP1 PUSH1 0x1 ADD SWAP2 POP POP PUSH2 0x5DD JUMP JUMPDEST POP DUP1 SWAP5 POP POP POP POP POP SWAP1 JUMP JUMPDEST PUSH1 0x9 PUSH1 0xA DUP2 GT ISZERO PUSH2 0x64A JUMPI PUSH2 0x649 PUSH2 0x179E JUMP JUMPDEST JUMPDEST DUP2 PUSH2 0x220 ADD MLOAD PUSH1 0xA DUP2 GT ISZERO PUSH2 0x662 JUMPI PUSH2 0x661 PUSH2 0x179E JUMP JUMPDEST JUMPDEST EQ PUSH2 0x6A5 JUMPI PUSH32 0x2BB4B899E8F456DA8FDC5A39646630653AF0D5DFF7C5DBD83C20FBA63A2D8D88 DUP3 DUP3 PUSH1 0x40 MLOAD PUSH2 0x698 SWAP3 SWAP2 SWAP1 PUSH2 0x21C8 JUMP JUMPDEST PUSH1 0x40 MLOAD DUP1 SWAP2 SUB SWAP1 LOG1 PUSH2 0x934 JUMP JUMPDEST PUSH0 DUP2 SWAP1 DUP1 PUSH1 0x1 DUP2 SLOAD ADD DUP1 DUP3 SSTORE DUP1 SWAP2 POP POP PUSH1 0x1 SWAP1 SUB SWAP1 PUSH0 MSTORE PUSH1 0x20 PUSH0 KECCAK256 SWAP1 PUSH1 0x11 MUL ADD PUSH0 SWAP1 SWAP2 SWAP1 SWAP2 SWAP1 SWAP2 POP PUSH0 DUP3 ADD MLOAD DUP2 PUSH0 ADD SWAP1 DUP2 PUSH2 0x6E0 SWAP2 SWAP1 PUSH2 0x2393 JUMP JUMPDEST POP PUSH1 0x20 DUP3 ADD MLOAD DUP2 PUSH1 0x1 ADD SWAP1 DUP2 PUSH2 0x6F6 SWAP2 SWAP1 PUSH2 0x2393 JUMP JUMPDEST POP PUSH1 0x40 DUP3 ADD MLOAD DUP2 PUSH1 0x2 ADD PUSH0 PUSH2 0x100 EXP DUP2 SLOAD DUP2 PUSH20 0xFFFFFFFFFFFFFFFFFFFFFFFFFFFFFFFFFFFFFFFF MUL NOT AND SWAP1 DUP4 PUSH20 0xFFFFFFFFFFFFFFFFFFFFFFFFFFFFFFFFFFFFFFFF AND MUL OR SWAP1 SSTORE POP PUSH1 0x60 DUP3 ADD MLOAD DUP2 PUSH1 0x3 ADD PUSH0 PUSH2 0x100 EXP DUP2 SLOAD DUP2 PUSH20 0xFFFFFFFFFFFFFFFFFFFFFFFFFFFFFFFFFFFFFFFF MUL NOT AND SWAP1 DUP4 PUSH20 0xFFFFFFFFFFFFFFFFFFFFFFFFFFFFFFFFFFFFFFFF AND MUL OR SWAP1 SSTORE POP PUSH1 0x80 DUP3 ADD MLOAD DUP2 PUSH1 0x4 ADD SSTORE PUSH1 0xA0 DUP3 ADD MLOAD DUP2 PUSH1 0x5 ADD SSTORE PUSH1 0xC0 DUP3 ADD MLOAD DUP2 PUSH1 0x6 ADD SSTORE PUSH1 0xE0 DUP3 ADD MLOAD DUP2 PUSH1 0x7 ADD SSTORE PUSH2 0x100 DUP3 ADD MLOAD DUP2 PUSH1 0x8 ADD SWAP1 DUP2 PUSH2 0x7C1 SWAP2 SWAP1 PUSH2 0x2393 JUMP JUMPDEST POP PUSH2 0x120 DUP3 ADD MLOAD DUP2 PUSH1 0x9 ADD SWAP1 DUP2 PUSH2 0x7D8 SWAP2 SWAP1 PUSH2 0x2393 JUMP JUMPDEST POP PUSH2 0x140 DUP3 ADD MLOAD DUP2 PUSH1 0xA ADD SSTORE PUSH2 0x160 DUP3 ADD MLOAD DUP2 PUSH1 0xB ADD SSTORE PUSH2 0x180 DUP3 ADD MLOAD DUP2 PUSH1 0xC ADD SSTORE PUSH2 0x1A0 DUP3 ADD MLOAD DUP2 PUSH1 0xD ADD SSTORE PUSH2 0x1C0 DUP3 ADD MLOAD DUP2 PUSH1 0xE ADD SSTORE PUSH2 0x1E0 DUP3 ADD MLOAD DUP2 PUSH1 0xF ADD SSTORE PUSH2 0x200 DUP3 ADD MLOAD DUP2 PUSH1 0x10 ADD PUSH0 PUSH2 0x100 EXP DUP2 SLOAD DUP2 PUSH20 0xFFFFFFFFFFFFFFFFFFFFFFFFFFFFFFFFFFFFFFFF MUL NOT AND SWAP1 DUP4 PUSH20 0xFFFFFFFFFFFFFFFFFFFFFFFFFFFFFFFFFFFFFFFF AND MUL OR SWAP1 SSTORE POP PUSH2 0x220 DUP3 ADD MLOAD DUP2 PUSH1 0x10 ADD PUSH1 0x14 PUSH2 0x100 EXP DUP2 SLOAD DUP2 PUSH1 0xFF MUL NOT AND SWAP1 DUP4 PUSH1 0xA DUP2 GT ISZERO PUSH2 0x88E JUMPI PUSH2 0x88D PUSH2 0x179E JUMP JUMPDEST JUMPDEST MUL OR SWAP1 SSTORE POP POP POP PUSH0 PUSH1 0x40 MLOAD DUP1 PUSH1 0x60 ADD PUSH1 0x40 MSTORE DUP1 PUSH0 DUP2 MSTORE PUSH1 0x20 ADD PUSH0 DUP2 MSTORE PUSH1 0x20 ADD PUSH0 DUP2 MSTORE POP SWAP1 POP DUP1 PUSH1 0x1 DUP4 PUSH0 ADD MLOAD PUSH1 0x40 MLOAD PUSH2 0x8C7 SWAP2 SWAP1 PUSH2 0x249C JUMP JUMPDEST SWAP1 DUP2 MSTORE PUSH1 0x20 ADD PUSH1 0x40 MLOAD DUP1 SWAP2 SUB SWAP1 KECCAK256 PUSH0 DUP3 ADD MLOAD DUP2 PUSH0 ADD SSTORE PUSH1 0x20 DUP3 ADD MLOAD DUP2 PUSH1 0x1 ADD SSTORE PUSH1 0x40 DUP3 ADD MLOAD DUP2 PUSH1 0x2 ADD SSTORE SWAP1 POP POP PUSH32 0x3021E48B95CF7A7864F6C33157631240AF7EBCD97AA273E32728CE0B58A0277E DUP4 DUP4 PUSH0 ADD MLOAD DUP5 PUSH1 0x40 MLOAD PUSH2 0x92A SWAP4 SWAP3 SWAP2 SWAP1 PUSH2 0x24FA JUMP JUMPDEST PUSH1 0x40 MLOAD DUP1 SWAP2 SUB SWAP1 LOG1 POP JUMPDEST POP POP JUMP JUMPDEST PUSH0 PUSH1 0x2 DUP4 PUSH1 0x40 MLOAD PUSH2 0x949 SWAP2 SWAP1 PUSH2 0x249C JUMP JUMPDEST SWAP1 DUP2 MSTORE PUSH1 0x20 ADD PUSH1 0x40 MLOAD DUP1 SWAP2 SUB SWAP1 KECCAK256 DUP1 SLOAD DUP1 PUSH1 0x20 MUL PUSH1 0x20 ADD PUSH1 0x40 MLOAD SWAP1 DUP2 ADD PUSH1 0x40 MSTORE DUP1 SWAP3 SWAP2 SWAP1 DUP2 DUP2 MSTORE PUSH1 0x20 ADD DUP3 DUP1 SLOAD DUP1 ISZERO PUSH2 0x9D4 JUMPI PUSH1 0x20 MUL DUP3 ADD SWAP2 SWAP1 PUSH0 MSTORE PUSH1 0x20 PUSH0 KECCAK256 SWAP1 JUMPDEST DUP2 PUSH0 SWAP1 SLOAD SWAP1 PUSH2 0x100 EXP SWAP1 DIV PUSH20 0xFFFFFFFFFFFFFFFFFFFFFFFFFFFFFFFFFFFFFFFF AND PUSH20 0xFFFFFFFFFFFFFFFFFFFFFFFFFFFFFFFFFFFFFFFF AND DUP2 MSTORE PUSH1 0x20 ADD SWAP1 PUSH1 0x1 ADD SWAP1 DUP1 DUP4 GT PUSH2 0x98B JUMPI JUMPDEST POP POP POP POP POP SWAP1 POP PUSH0 JUMPDEST DUP2 MLOAD DUP2 LT ISZERO PUSH2 0xA7D JUMPI CALLER PUSH20 0xFFFFFFFFFFFFFFFFFFFFFFFFFFFFFFFFFFFFFFFF AND DUP3 DUP3 DUP2 MLOAD DUP2 LT PUSH2 0xA10 JUMPI PUSH2 0xA0F PUSH2 0x1F27 JUMP JUMPDEST JUMPDEST PUSH1 0x20 MUL PUSH1 0x20 ADD ADD MLOAD PUSH20 0xFFFFFFFFFFFFFFFFFFFFFFFFFFFFFFFFFFFFFFFF AND SUB PUSH2 0xA70 JUMPI DUP4 PUSH1 0x40 MLOAD PUSH32 0xB068F67400000000000000000000000000000000000000000000000000000000 DUP2 MSTORE PUSH1 0x4 ADD PUSH2 0xA67 SWAP2 SWAP1 PUSH2 0x25AD JUMP JUMPDEST PUSH1 0x40 MLOAD DUP1 SWAP2 SUB SWAP1 REVERT JUMPDEST DUP1 DUP1 PUSH1 0x1 ADD SWAP2 POP POP PUSH2 0x9DD JUMP JUMPDEST POP PUSH0 PUSH2 0xA88 DUP5 PUSH2 0xF4E JUMP JUMPDEST SWAP1 POP PUSH0 DUP2 PUSH0 ADD MLOAD SWAP1 POP PUSH0 PUSH2 0xAA0 DUP3 PUSH2 0x200 ADD MLOAD PUSH2 0x147C JUMP JUMPDEST SWAP1 POP PUSH2 0xAB1 DUP2 DUP4 PUSH2 0x100 ADD MLOAD PUSH2 0xE7B JUMP JUMPDEST ISZERO DUP1 PUSH2 0xAC9 JUMPI POP PUSH2 0xAC7 DUP2 DUP4 PUSH2 0x100 ADD MLOAD PUSH2 0xE7B JUMP JUMPDEST ISZERO JUMPDEST ISZERO PUSH2 0xB0B JUMPI DUP6 PUSH1 0x40 MLOAD PUSH32 0x9D8F3D300000000000000000000000000000000000000000000000000000000 DUP2 MSTORE PUSH1 0x4 ADD PUSH2 0xB02 SWAP2 SWAP1 PUSH2 0x2650 JUMP JUMPDEST PUSH1 0x40 MLOAD DUP1 SWAP2 SUB SWAP1 REVERT JUMPDEST PUSH0 PUSH1 0x1 DUP8 PUSH1 0x40 MLOAD PUSH2 0xB1C SWAP2 SWAP1 PUSH2 0x249C JUMP JUMPDEST SWAP1 DUP2 MSTORE PUSH1 0x20 ADD PUSH1 0x40 MLOAD DUP1 SWAP2 SUB SWAP1 KECCAK256 PUSH1 0x40 MLOAD DUP1 PUSH1 0x60 ADD PUSH1 0x40 MSTORE SWAP1 DUP2 PUSH0 DUP3 ADD SLOAD DUP2 MSTORE PUSH1 0x20 ADD PUSH1 0x1 DUP3 ADD SLOAD DUP2 MSTORE PUSH1 0x20 ADD PUSH1 0x2 DUP3 ADD SLOAD DUP2 MSTORE POP POP SWAP1 POP PUSH1 0x5 DUP2 PUSH1 0x40 ADD MLOAD LT PUSH2 0xCB0 JUMPI DUP1 PUSH1 0x20 ADD MLOAD DUP2 PUSH0 ADD MLOAD EQ DUP1 ISZERO PUSH2 0xBA5 JUMPI POP CALLER PUSH20 0xFFFFFFFFFFFFFFFFFFFFFFFFFFFFFFFFFFFFFFFF AND DUP4 PUSH1 0x40 ADD MLOAD PUSH20 0xFFFFFFFFFFFFFFFFFFFFFFFFFFFFFFFFFFFFFFFF AND EQ JUMPDEST ISZERO PUSH2 0xC73 JUMPI PUSH2 0xBB4 DUP8 DUP8 PUSH2 0x1494 JUMP JUMPDEST PUSH1 0x2 DUP8 PUSH1 0x40 MLOAD PUSH2 0xBC4 SWAP2 SWAP1 PUSH2 0x249C JUMP JUMPDEST SWAP1 DUP2 MSTORE PUSH1 0x20 ADD PUSH1 0x40 MLOAD DUP1 SWAP2 SUB SWAP1 KECCAK256 CALLER SWAP1 DUP1 PUSH1 0x1 DUP2 SLOAD ADD DUP1 DUP3 SSTORE DUP1 SWAP2 POP POP PUSH1 0x1 SWAP1 SUB SWAP1 PUSH0 MSTORE PUSH1 0x20 PUSH0 KECCAK256 ADD PUSH0 SWAP1 SWAP2 SWAP1 SWAP2 SWAP1 SWAP2 PUSH2 0x100 EXP DUP2 SLOAD DUP2 PUSH20 0xFFFFFFFFFFFFFFFFFFFFFFFFFFFFFFFFFFFFFFFF MUL NOT AND SWAP1 DUP4 PUSH20 0xFFFFFFFFFFFFFFFFFFFFFFFFFFFFFFFFFFFFFFFF AND MUL OR SWAP1 SSTORE POP PUSH32 0x88E614DCE54B9CAB9E19A27C61E6A303485C70B576BB2E65503DBB10F0B0012 CALLER DUP9 PUSH1 0x40 MLOAD PUSH2 0xC61 SWAP3 SWAP2 SWAP1 PUSH2 0x26CD JUMP JUMPDEST PUSH1 0x40 MLOAD DUP1 SWAP2 SUB SWAP1 LOG1 POP POP POP POP POP PUSH2 0xE5F JUMP JUMPDEST DUP7 PUSH1 0x40 MLOAD PUSH32 0x4F37EDF400000000000000000000000000000000000000000000000000000000 DUP2 MSTORE PUSH1 0x4 ADD PUSH2 0xCA7 SWAP2 SWAP1 PUSH2 0x2758 JUMP JUMPDEST PUSH1 0x40 MLOAD DUP1 SWAP2 SUB SWAP1 REVERT JUMPDEST DUP3 PUSH1 0x40 ADD MLOAD PUSH20 0xFFFFFFFFFFFFFFFFFFFFFFFFFFFFFFFFFFFFFFFF AND CALLER PUSH20 0xFFFFFFFFFFFFFFFFFFFFFFFFFFFFFFFFFFFFFFFF AND EQ DUP1 PUSH2 0xD1D JUMPI POP DUP3 PUSH1 0x60 ADD MLOAD PUSH20 0xFFFFFFFFFFFFFFFFFFFFFFFFFFFFFFFFFFFFFFFF AND CALLER PUSH20 0xFFFFFFFFFFFFFFFFFFFFFFFFFFFFFFFFFFFFFFFF AND EQ JUMPDEST DUP1 PUSH2 0xD58 JUMPI POP DUP3 PUSH2 0x200 ADD MLOAD PUSH20 0xFFFFFFFFFFFFFFFFFFFFFFFFFFFFFFFFFFFFFFFF AND CALLER PUSH20 0xFFFFFFFFFFFFFFFFFFFFFFFFFFFFFFFFFFFFFFFF AND EQ JUMPDEST ISZERO PUSH2 0xD9A JUMPI DUP7 PUSH1 0x40 MLOAD PUSH32 0x2927DDC000000000000000000000000000000000000000000000000000000000 DUP2 MSTORE PUSH1 0x4 ADD PUSH2 0xD91 SWAP2 SWAP1 PUSH2 0x27D5 JUMP JUMPDEST PUSH1 0x40 MLOAD DUP1 SWAP2 SUB SWAP1 REVERT JUMPDEST PUSH1 0x2 DUP8 PUSH1 0x40 MLOAD PUSH2 0xDAA SWAP2 SWAP1 PUSH2 0x249C JUMP JUMPDEST SWAP1 DUP2 MSTORE PUSH1 0x20 ADD PUSH1 0x40 MLOAD DUP1 SWAP2 SUB SWAP1 KECCAK256 CALLER SWAP1 DUP1 PUSH1 0x1 DUP2 SLOAD ADD DUP1 DUP3 SSTORE DUP1 SWAP2 POP POP PUSH1 0x1 SWAP1 SUB SWAP1 PUSH0 MSTORE PUSH1 0x20 PUSH0 KECCAK256 ADD PUSH0 SWAP1 SWAP2 SWAP1 SWAP2 SWAP1 SWAP2 PUSH2 0x100 EXP DUP2 SLOAD DUP2 PUSH20 0xFFFFFFFFFFFFFFFFFFFFFFFFFFFFFFFFFFFFFFFF MUL NOT AND SWAP1 DUP4 PUSH20 0xFFFFFFFFFFFFFFFFFFFFFFFFFFFFFFFFFFFFFFFF AND MUL OR SWAP1 SSTORE POP PUSH2 0xE20 DUP8 DUP8 PUSH2 0x1494 JUMP JUMPDEST PUSH32 0x88E614DCE54B9CAB9E19A27C61E6A303485C70B576BB2E65503DBB10F0B0012 CALLER DUP9 PUSH1 0x40 MLOAD PUSH2 0xE51 SWAP3 SWAP2 SWAP1 PUSH2 0x2852 JUMP JUMPDEST PUSH1 0x40 MLOAD DUP1 SWAP2 SUB SWAP1 LOG1 POP POP POP POP POP JUMPDEST POP POP JUMP JUMPDEST PUSH1 0x60 PUSH1 0x40 MLOAD DUP1 PUSH1 0x20 ADD PUSH1 0x40 MSTORE DUP1 PUSH0 DUP2 MSTORE POP SWAP1 POP SWAP2 SWAP1 POP JUMP JUMPDEST PUSH0 DUP1 DUP4 SWAP1 POP PUSH0 DUP4 SWAP1 POP DUP1 MLOAD DUP3 MLOAD GT ISZERO PUSH2 0xE98 JUMPI PUSH0 SWAP3 POP POP POP PUSH2 0xF48 JUMP JUMPDEST PUSH0 JUMPDEST DUP3 MLOAD DUP2 LT ISZERO PUSH2 0xF40 JUMPI DUP2 DUP2 DUP2 MLOAD DUP2 LT PUSH2 0xEB6 JUMPI PUSH2 0xEB5 PUSH2 0x1F27 JUMP JUMPDEST JUMPDEST PUSH1 0x20 ADD ADD MLOAD PUSH1 0xF8 SHR PUSH1 0xF8 SHL PUSH31 0xFFFFFFFFFFFFFFFFFFFFFFFFFFFFFFFFFFFFFFFFFFFFFFFFFFFFFFFFFFFFFF NOT AND DUP4 DUP3 DUP2 MLOAD DUP2 LT PUSH2 0xEF6 JUMPI PUSH2 0xEF5 PUSH2 0x1F27 JUMP JUMPDEST JUMPDEST PUSH1 0x20 ADD ADD MLOAD PUSH1 0xF8 SHR PUSH1 0xF8 SHL PUSH31 0xFFFFFFFFFFFFFFFFFFFFFFFFFFFFFFFFFFFFFFFFFFFFFFFFFFFFFFFFFFFFFF NOT AND EQ PUSH2 0xF33 JUMPI PUSH0 SWAP4 POP POP POP POP PUSH2 0xF48 JUMP JUMPDEST DUP1 DUP1 PUSH1 0x1 ADD SWAP2 POP POP PUSH2 0xE9A JUMP JUMPDEST POP PUSH1 0x1 SWAP3 POP POP POP JUMPDEST SWAP3 SWAP2 POP POP JUMP JUMPDEST PUSH2 0xF56 PUSH2 0x1677 JUMP JUMPDEST PUSH2 0xF5E PUSH2 0x1677 JUMP JUMPDEST PUSH0 JUMPDEST PUSH0 DUP1 SLOAD SWAP1 POP DUP2 LT ISZERO PUSH2 0x1439 JUMPI PUSH20 0x0 PUSH4 0xBED34BBA PUSH0 DUP4 DUP2 SLOAD DUP2 LT PUSH2 0xF99 JUMPI PUSH2 0xF98 PUSH2 0x1F27 JUMP JUMPDEST JUMPDEST SWAP1 PUSH0 MSTORE PUSH1 0x20 PUSH0 KECCAK256 SWAP1 PUSH1 0x11 MUL ADD PUSH0 ADD DUP7 PUSH1 0x40 MLOAD DUP4 PUSH4 0xFFFFFFFF AND PUSH1 0xE0 SHL DUP2 MSTORE PUSH1 0x4 ADD PUSH2 0xFC5 SWAP3 SWAP2 SWAP1 PUSH2 0x295C JUMP JUMPDEST PUSH1 0x20 PUSH1 0x40 MLOAD DUP1 DUP4 SUB DUP2 DUP7 GAS DELEGATECALL ISZERO DUP1 ISZERO PUSH2 0xFE0 JUMPI RETURNDATASIZE PUSH0 DUP1 RETURNDATACOPY RETURNDATASIZE PUSH0 REVERT JUMPDEST POP POP POP POP PUSH1 0x40 MLOAD RETURNDATASIZE PUSH1 0x1F NOT PUSH1 0x1F DUP3 ADD AND DUP3 ADD DUP1 PUSH1 0x40 MSTORE POP DUP2 ADD SWAP1 PUSH2 0x1004 SWAP2 SWAP1 PUSH2 0x29C6 JUMP JUMPDEST ISZERO PUSH2 0x142C JUMPI PUSH0 DUP2 DUP2 SLOAD DUP2 LT PUSH2 0x101C JUMPI PUSH2 0x101B PUSH2 0x1F27 JUMP JUMPDEST JUMPDEST SWAP1 PUSH0 MSTORE PUSH1 0x20 PUSH0 KECCAK256 SWAP1 PUSH1 0x11 MUL ADD PUSH1 0x40 MLOAD DUP1 PUSH2 0x240 ADD PUSH1 0x40 MSTORE SWAP1 DUP2 PUSH0 DUP3 ADD DUP1 SLOAD PUSH2 0x1043 SWAP1 PUSH2 0x1F81 JUMP JUMPDEST DUP1 PUSH1 0x1F ADD PUSH1 0x20 DUP1 SWAP2 DIV MUL PUSH1 0x20 ADD PUSH1 0x40 MLOAD SWAP1 DUP2 ADD PUSH1 0x40 MSTORE DUP1 SWAP3 SWAP2 SWAP1 DUP2 DUP2 MSTORE PUSH1 0x20 ADD DUP3 DUP1 SLOAD PUSH2 0x106F SWAP1 PUSH2 0x1F81 JUMP JUMPDEST DUP1 ISZERO PUSH2 0x10BA JUMPI DUP1 PUSH1 0x1F LT PUSH2 0x1091 JUMPI PUSH2 0x100 DUP1 DUP4 SLOAD DIV MUL DUP4 MSTORE SWAP2 PUSH1 0x20 ADD SWAP2 PUSH2 0x10BA JUMP JUMPDEST DUP3 ADD SWAP2 SWAP1 PUSH0 MSTORE PUSH1 0x20 PUSH0 KECCAK256 SWAP1 JUMPDEST DUP2 SLOAD DUP2 MSTORE SWAP1 PUSH1 0x1 ADD SWAP1 PUSH1 0x20 ADD DUP1 DUP4 GT PUSH2 0x109D JUMPI DUP3 SWAP1 SUB PUSH1 0x1F AND DUP3 ADD SWAP2 JUMPDEST POP POP POP POP POP DUP2 MSTORE PUSH1 0x20 ADD PUSH1 0x1 DUP3 ADD DUP1 SLOAD PUSH2 0x10D3 SWAP1 PUSH2 0x1F81 JUMP JUMPDEST DUP1 PUSH1 0x1F ADD PUSH1 0x20 DUP1 SWAP2 DIV MUL PUSH1 0x20 ADD PUSH1 0x40 MLOAD SWAP1 DUP2 ADD PUSH1 0x40 MSTORE DUP1 SWAP3 SWAP2 SWAP1 DUP2 DUP2 MSTORE PUSH1 0x20 ADD DUP3 DUP1 SLOAD PUSH2 0x10FF SWAP1 PUSH2 0x1F81 JUMP JUMPDEST DUP1 ISZERO PUSH2 0x114A JUMPI DUP1 PUSH1 0x1F LT PUSH2 0x1121 JUMPI PUSH2 0x100 DUP1 DUP4 SLOAD DIV MUL DUP4 MSTORE SWAP2 PUSH1 0x20 ADD SWAP2 PUSH2 0x114A JUMP JUMPDEST DUP3 ADD SWAP2 SWAP1 PUSH0 MSTORE PUSH1 0x20 PUSH0 KECCAK256 SWAP1 JUMPDEST DUP2 SLOAD DUP2 MSTORE SWAP1 PUSH1 0x1 ADD SWAP1 PUSH1 0x20 ADD DUP1 DUP4 GT PUSH2 0x112D JUMPI DUP3 SWAP1 SUB PUSH1 0x1F AND DUP3 ADD SWAP2 JUMPDEST POP POP POP POP POP DUP2 MSTORE PUSH1 0x20 ADD PUSH1 0x2 DUP3 ADD PUSH0 SWAP1 SLOAD SWAP1 PUSH2 0x100 EXP SWAP1 DIV PUSH20 0xFFFFFFFFFFFFFFFFFFFFFFFFFFFFFFFFFFFFFFFF AND PUSH20 0xFFFFFFFFFFFFFFFFFFFFFFFFFFFFFFFFFFFFFFFF AND PUSH20 0xFFFFFFFFFFFFFFFFFFFFFFFFFFFFFFFFFFFFFFFF AND DUP2 MSTORE PUSH1 0x20 ADD PUSH1 0x3 DUP3 ADD PUSH0 SWAP1 SLOAD SWAP1 PUSH2 0x100 EXP SWAP1 DIV PUSH20 0xFFFFFFFFFFFFFFFFFFFFFFFFFFFFFFFFFFFFFFFF AND PUSH20 0xFFFFFFFFFFFFFFFFFFFFFFFFFFFFFFFFFFFFFFFF AND PUSH20 0xFFFFFFFFFFFFFFFFFFFFFFFFFFFFFFFFFFFFFFFF AND DUP2 MSTORE PUSH1 0x20 ADD PUSH1 0x4 DUP3 ADD SLOAD DUP2 MSTORE PUSH1 0x20 ADD PUSH1 0x5 DUP3 ADD SLOAD DUP2 MSTORE PUSH1 0x20 ADD PUSH1 0x6 DUP3 ADD SLOAD DUP2 MSTORE PUSH1 0x20 ADD PUSH1 0x7 DUP3 ADD SLOAD DUP2 MSTORE PUSH1 0x20 ADD PUSH1 0x8 DUP3 ADD DUP1 SLOAD PUSH2 0x1235 SWAP1 PUSH2 0x1F81 JUMP JUMPDEST DUP1 PUSH1 0x1F ADD PUSH1 0x20 DUP1 SWAP2 DIV MUL PUSH1 0x20 ADD PUSH1 0x40 MLOAD SWAP1 DUP2 ADD PUSH1 0x40 MSTORE DUP1 SWAP3 SWAP2 SWAP1 DUP2 DUP2 MSTORE PUSH1 0x20 ADD DUP3 DUP1 SLOAD PUSH2 0x1261 SWAP1 PUSH2 0x1F81 JUMP JUMPDEST DUP1 ISZERO PUSH2 0x12AC JUMPI DUP1 PUSH1 0x1F LT PUSH2 0x1283 JUMPI PUSH2 0x100 DUP1 DUP4 SLOAD DIV MUL DUP4 MSTORE SWAP2 PUSH1 0x20 ADD SWAP2 PUSH2 0x12AC JUMP JUMPDEST DUP3 ADD SWAP2 SWAP1 PUSH0 MSTORE PUSH1 0x20 PUSH0 KECCAK256 SWAP1 JUMPDEST DUP2 SLOAD DUP2 MSTORE SWAP1 PUSH1 0x1 ADD SWAP1 PUSH1 0x20 ADD DUP1 DUP4 GT PUSH2 0x128F JUMPI DUP3 SWAP1 SUB PUSH1 0x1F AND DUP3 ADD SWAP2 JUMPDEST POP POP POP POP POP DUP2 MSTORE PUSH1 0x20 ADD PUSH1 0x9 DUP3 ADD DUP1 SLOAD PUSH2 0x12C5 SWAP1 PUSH2 0x1F81 JUMP JUMPDEST DUP1 PUSH1 0x1F ADD PUSH1 0x20 DUP1 SWAP2 DIV MUL PUSH1 0x20 ADD PUSH1 0x40 MLOAD SWAP1 DUP2 ADD PUSH1 0x40 MSTORE DUP1 SWAP3 SWAP2 SWAP1 DUP2 DUP2 MSTORE PUSH1 0x20 ADD DUP3 DUP1 SLOAD PUSH2 0x12F1 SWAP1 PUSH2 0x1F81 JUMP JUMPDEST DUP1 ISZERO PUSH2 0x133C JUMPI DUP1 PUSH1 0x1F LT PUSH2 0x1313 JUMPI PUSH2 0x100 DUP1 DUP4 SLOAD DIV MUL DUP4 MSTORE SWAP2 PUSH1 0x20 ADD SWAP2 PUSH2 0x133C JUMP JUMPDEST DUP3 ADD SWAP2 SWAP1 PUSH0 MSTORE PUSH1 0x20 PUSH0 KECCAK256 SWAP1 JUMPDEST DUP2 SLOAD DUP2 MSTORE SWAP1 PUSH1 0x1 ADD SWAP1 PUSH1 0x20 ADD DUP1 DUP4 GT PUSH2 0x131F JUMPI DUP3 SWAP1 SUB PUSH1 0x1F AND DUP3 ADD SWAP2 JUMPDEST POP POP POP POP POP DUP2 MSTORE PUSH1 0x20 ADD PUSH1 0xA DUP3 ADD SLOAD DUP2 MSTORE PUSH1 0x20 ADD PUSH1 0xB DUP3 ADD SLOAD DUP2 MSTORE PUSH1 0x20 ADD PUSH1 0xC DUP3 ADD SLOAD DUP2 MSTORE PUSH1 0x20 ADD PUSH1 0xD DUP3 ADD SLOAD DUP2 MSTORE PUSH1 0x20 ADD PUSH1 0xE DUP3 ADD SLOAD DUP2 MSTORE PUSH1 0x20 ADD PUSH1 0xF DUP3 ADD SLOAD DUP2 MSTORE PUSH1 0x20 ADD PUSH1 0x10 DUP3 ADD PUSH0 SWAP1 SLOAD SWAP1 PUSH2 0x100 EXP SWAP1 DIV PUSH20 0xFFFFFFFFFFFFFFFFFFFFFFFFFFFFFFFFFFFFFFFF AND PUSH20 0xFFFFFFFFFFFFFFFFFFFFFFFFFFFFFFFFFFFFFFFF AND PUSH20 0xFFFFFFFFFFFFFFFFFFFFFFFFFFFFFFFFFFFFFFFF AND DUP2 MSTORE PUSH1 0x20 ADD PUSH1 0x10 DUP3 ADD PUSH1 0x14 SWAP1 SLOAD SWAP1 PUSH2 0x100 EXP SWAP1 DIV PUSH1 0xFF AND PUSH1 0xA DUP2 GT ISZERO PUSH2 0x13FB JUMPI PUSH2 0x13FA PUSH2 0x179E JUMP JUMPDEST JUMPDEST PUSH1 0xA DUP2 GT ISZERO PUSH2 0x140D JUMPI PUSH2 0x140C PUSH2 0x179E JUMP JUMPDEST JUMPDEST DUP2 MSTORE POP POP DUP3 PUSH0 ADD DUP2 SWAP1 MSTORE POP DUP1 DUP3 PUSH1 0x20 ADD DUP2 DUP2 MSTORE POP POP DUP2 SWAP3 POP POP POP PUSH2 0x1477 JUMP JUMPDEST DUP1 DUP1 PUSH1 0x1 ADD SWAP2 POP POP PUSH2 0xF60 JUMP JUMPDEST POP DUP3 PUSH1 0x40 MLOAD PUSH32 0x972ACEF00000000000000000000000000000000000000000000000000000000 DUP2 MSTORE PUSH1 0x4 ADD PUSH2 0x146E SWAP2 SWAP1 PUSH2 0x2A3B JUMP JUMPDEST PUSH1 0x40 MLOAD DUP1 SWAP2 SUB SWAP1 REVERT JUMPDEST SWAP2 SWAP1 POP JUMP JUMPDEST PUSH1 0x60 PUSH1 0x40 MLOAD DUP1 PUSH1 0x20 ADD PUSH1 0x40 MSTORE DUP1 PUSH0 DUP2 MSTORE POP SWAP1 POP SWAP2 SWAP1 POP JUMP JUMPDEST PUSH0 PUSH1 0x1 DUP2 GT ISZERO PUSH2 0x14A7 JUMPI PUSH2 0x14A6 PUSH2 0x179E JUMP JUMPDEST JUMPDEST DUP2 PUSH1 0x1 DUP2 GT ISZERO PUSH2 0x14BA JUMPI PUSH2 0x14B9 PUSH2 0x179E JUMP JUMPDEST JUMPDEST SUB PUSH2 0x14F9 JUMPI PUSH1 0x1 DUP3 PUSH1 0x40 MLOAD PUSH2 0x14CF SWAP2 SWAP1 PUSH2 0x249C JUMP JUMPDEST SWAP1 DUP2 MSTORE PUSH1 0x20 ADD PUSH1 0x40 MLOAD DUP1 SWAP2 SUB SWAP1 KECCAK256 PUSH0 ADD PUSH0 DUP2 SLOAD DUP1 SWAP3 SWAP2 SWAP1 PUSH2 0x14EF SWAP1 PUSH2 0x1FDE JUMP JUMPDEST SWAP2 SWAP1 POP SSTORE POP PUSH2 0x1530 JUMP JUMPDEST PUSH1 0x1 DUP3 PUSH1 0x40 MLOAD PUSH2 0x1509 SWAP2 SWAP1 PUSH2 0x249C JUMP JUMPDEST SWAP1 DUP2 MSTORE PUSH1 0x20 ADD PUSH1 0x40 MLOAD DUP1 SWAP2 SUB SWAP1 KECCAK256 PUSH1 0x1 ADD PUSH0 DUP2 SLOAD DUP1 SWAP3 SWAP2 SWAP1 PUSH2 0x152A SWAP1 PUSH2 0x1FDE JUMP JUMPDEST SWAP2 SWAP1 POP SSTORE POP JUMPDEST PUSH1 0x1 DUP3 PUSH1 0x40 MLOAD PUSH2 0x1540 SWAP2 SWAP1 PUSH2 0x249C JUMP JUMPDEST SWAP1 DUP2 MSTORE PUSH1 0x20 ADD PUSH1 0x40 MLOAD DUP1 SWAP2 SUB SWAP1 KECCAK256 PUSH1 0x1 ADD SLOAD PUSH1 0x1 DUP4 PUSH1 0x40 MLOAD PUSH2 0x1562 SWAP2 SWAP1 PUSH2 0x249C JUMP JUMPDEST SWAP1 DUP2 MSTORE PUSH1 0x20 ADD PUSH1 0x40 MLOAD DUP1 SWAP2 SUB SWAP1 KECCAK256 PUSH0 ADD SLOAD PUSH2 0x157D SWAP2 SWAP1 PUSH2 0x2A6E JUMP JUMPDEST PUSH1 0x1 DUP4 PUSH1 0x40 MLOAD PUSH2 0x158D SWAP2 SWAP1 PUSH2 0x249C JUMP JUMPDEST SWAP1 DUP2 MSTORE PUSH1 0x20 ADD PUSH1 0x40 MLOAD DUP1 SWAP2 SUB SWAP1 KECCAK256 PUSH1 0x2 ADD DUP2 SWAP1 SSTORE POP POP POP JUMP JUMPDEST PUSH1 0x40 MLOAD DUP1 PUSH2 0x240 ADD PUSH1 0x40 MSTORE DUP1 PUSH1 0x60 DUP2 MSTORE PUSH1 0x20 ADD PUSH1 0x60 DUP2 MSTORE PUSH1 0x20 ADD PUSH0 PUSH20 0xFFFFFFFFFFFFFFFFFFFFFFFFFFFFFFFFFFFFFFFF AND DUP2 MSTORE PUSH1 0x20 ADD PUSH0 PUSH20 0xFFFFFFFFFFFFFFFFFFFFFFFFFFFFFFFFFFFFFFFF AND DUP2 MSTORE PUSH1 0x20 ADD PUSH0 DUP2 MSTORE PUSH1 0x20 ADD PUSH0 DUP2 MSTORE PUSH1 0x20 ADD PUSH0 DUP2 MSTORE PUSH1 0x20 ADD PUSH0 DUP2 MSTORE PUSH1 0x20 ADD PUSH1 0x60 DUP2 MSTORE PUSH1 0x20 ADD PUSH1 0x60 DUP2 MSTORE PUSH1 0x20 ADD PUSH0 DUP2 MSTORE PUSH1 0x20 ADD PUSH0 DUP2 MSTORE PUSH1 0x20 ADD PUSH0 DUP2 MSTORE PUSH1 0x20 ADD PUSH0 DUP2 MSTORE PUSH1 0x20 ADD PUSH0 DUP2 MSTORE PUSH1 0x20 ADD PUSH0 DUP2 MSTORE PUSH1 0x20 ADD PUSH0 PUSH20 0xFFFFFFFFFFFFFFFFFFFFFFFFFFFFFFFFFFFFFFFF AND DUP2 MSTORE PUSH1 0x20 ADD PUSH0 PUSH1 0xA DUP2 GT ISZERO PUSH2 0x1671 JUMPI PUSH2 0x1670 PUSH2 0x179E JUMP JUMPDEST JUMPDEST DUP2 MSTORE POP SWAP1 JUMP JUMPDEST PUSH1 0x40 MLOAD DUP1 PUSH1 0x40 ADD PUSH1 0x40 MSTORE DUP1 PUSH2 0x168A PUSH2 0x15A6 JUMP JUMPDEST DUP2 MSTORE PUSH1 0x20 ADD PUSH0 DUP2 MSTORE POP SWAP1 JUMP JUMPDEST PUSH0 DUP2 MLOAD SWAP1 POP SWAP2 SWAP1 POP JUMP JUMPDEST PUSH0 DUP3 DUP3 MSTORE PUSH1 0x20 DUP3 ADD SWAP1 POP SWAP3 SWAP2 POP POP JUMP JUMPDEST PUSH0 DUP2 SWAP1 POP PUSH1 0x20 DUP3 ADD SWAP1 POP SWAP2 SWAP1 POP JUMP JUMPDEST PUSH0 DUP2 MLOAD SWAP1 POP SWAP2 SWAP1 POP JUMP JUMPDEST PUSH0 DUP3 DUP3 MSTORE PUSH1 0x20 DUP3 ADD SWAP1 POP SWAP3 SWAP2 POP POP JUMP JUMPDEST DUP3 DUP2 DUP4 MCOPY PUSH0 DUP4 DUP4 ADD MSTORE POP POP POP JUMP JUMPDEST PUSH0 PUSH1 0x1F NOT PUSH1 0x1F DUP4 ADD AND SWAP1 POP SWAP2 SWAP1 POP JUMP JUMPDEST PUSH0 PUSH2 0x1701 DUP3 PUSH2 0x16BF JUMP JUMPDEST PUSH2 0x170B DUP2 DUP6 PUSH2 0x16C9 JUMP JUMPDEST SWAP4 POP PUSH2 0x171B DUP2 DUP6 PUSH1 0x20 DUP7 ADD PUSH2 0x16D9 JUMP JUMPDEST PUSH2 0x1724 DUP2 PUSH2 0x16E7 JUMP JUMPDEST DUP5 ADD SWAP2 POP POP SWAP3 SWAP2 POP POP JUMP JUMPDEST PUSH0 PUSH20 0xFFFFFFFFFFFFFFFFFFFFFFFFFFFFFFFFFFFFFFFF DUP3 AND SWAP1 POP SWAP2 SWAP1 POP JUMP JUMPDEST PUSH0 PUSH2 0x1758 DUP3 PUSH2 0x172F JUMP JUMPDEST SWAP1 POP SWAP2 SWAP1 POP JUMP JUMPDEST PUSH2 0x1768 DUP2 PUSH2 0x174E JUMP JUMPDEST DUP3 MSTORE POP POP JUMP JUMPDEST PUSH0 DUP2 SWAP1 POP SWAP2 SWAP1 POP JUMP JUMPDEST PUSH2 0x1780 DUP2 PUSH2 0x176E JUMP JUMPDEST DUP3 MSTORE POP POP JUMP JUMPDEST PUSH0 DUP2 SWAP1 POP SWAP2 SWAP1 POP JUMP JUMPDEST PUSH2 0x1798 DUP2 PUSH2 0x1786 JUMP JUMPDEST DUP3 MSTORE POP POP JUMP JUMPDEST PUSH32 0x4E487B7100000000000000000000000000000000000000000000000000000000 PUSH0 MSTORE PUSH1 0x21 PUSH1 0x4 MSTORE PUSH1 0x24 PUSH0 REVERT JUMPDEST PUSH1 0xB DUP2 LT PUSH2 0x17DC JUMPI PUSH2 0x17DB PUSH2 0x179E JUMP JUMPDEST JUMPDEST POP JUMP JUMPDEST PUSH0 DUP2 SWAP1 POP PUSH2 0x17EC DUP3 PUSH2 0x17CB JUMP JUMPDEST SWAP2 SWAP1 POP JUMP JUMPDEST PUSH0 PUSH2 0x17FB DUP3 PUSH2 0x17DF JUMP JUMPDEST SWAP1 POP SWAP2 SWAP1 POP JUMP JUMPDEST PUSH2 0x180B DUP2 PUSH2 0x17F1 JUMP JUMPDEST DUP3 MSTORE POP POP JUMP JUMPDEST PUSH0 PUSH2 0x240 DUP4 ADD PUSH0 DUP4 ADD MLOAD DUP5 DUP3 SUB PUSH0 DUP7 ADD MSTORE PUSH2 0x182C DUP3 DUP3 PUSH2 0x16F7 JUMP JUMPDEST SWAP2 POP POP PUSH1 0x20 DUP4 ADD MLOAD DUP5 DUP3 SUB PUSH1 0x20 DUP7 ADD MSTORE PUSH2 0x1846 DUP3 DUP3 PUSH2 0x16F7 JUMP JUMPDEST SWAP2 POP POP PUSH1 0x40 DUP4 ADD MLOAD PUSH2 0x185B PUSH1 0x40 DUP7 ADD DUP3 PUSH2 0x175F JUMP JUMPDEST POP PUSH1 0x60 DUP4 ADD MLOAD PUSH2 0x186E PUSH1 0x60 DUP7 ADD DUP3 PUSH2 0x175F JUMP JUMPDEST POP PUSH1 0x80 DUP4 ADD MLOAD PUSH2 0x1881 PUSH1 0x80 DUP7 ADD DUP3 PUSH2 0x1777 JUMP JUMPDEST POP PUSH1 0xA0 DUP4 ADD MLOAD PUSH2 0x1894 PUSH1 0xA0 DUP7 ADD DUP3 PUSH2 0x1777 JUMP JUMPDEST POP PUSH1 0xC0 DUP4 ADD MLOAD PUSH2 0x18A7 PUSH1 0xC0 DUP7 ADD DUP3 PUSH2 0x1777 JUMP JUMPDEST POP PUSH1 0xE0 DUP4 ADD MLOAD PUSH2 0x18BA PUSH1 0xE0 DUP7 ADD DUP3 PUSH2 0x1777 JUMP JUMPDEST POP PUSH2 0x100 DUP4 ADD MLOAD DUP5 DUP3 SUB PUSH2 0x100 DUP7 ADD MSTORE PUSH2 0x18D4 DUP3 DUP3 PUSH2 0x16F7 JUMP JUMPDEST SWAP2 POP POP PUSH2 0x120 DUP4 ADD MLOAD DUP5 DUP3 SUB PUSH2 0x120 DUP7 ADD MSTORE PUSH2 0x18F0 DUP3 DUP3 PUSH2 0x16F7 JUMP JUMPDEST SWAP2 POP POP PUSH2 0x140 DUP4 ADD MLOAD PUSH2 0x1907 PUSH2 0x140 DUP7 ADD DUP3 PUSH2 0x178F JUMP JUMPDEST POP PUSH2 0x160 DUP4 ADD MLOAD PUSH2 0x191C PUSH2 0x160 DUP7 ADD DUP3 PUSH2 0x178F JUMP JUMPDEST POP PUSH2 0x180 DUP4 ADD MLOAD PUSH2 0x1931 PUSH2 0x180 DUP7 ADD DUP3 PUSH2 0x178F JUMP JUMPDEST POP PUSH2 0x1A0 DUP4 ADD MLOAD PUSH2 0x1946 PUSH2 0x1A0 DUP7 ADD DUP3 PUSH2 0x178F JUMP JUMPDEST POP PUSH2 0x1C0 DUP4 ADD MLOAD PUSH2 0x195B PUSH2 0x1C0 DUP7 ADD DUP3 PUSH2 0x178F JUMP JUMPDEST POP PUSH2 0x1E0 DUP4 ADD MLOAD PUSH2 0x1970 PUSH2 0x1E0 DUP7 ADD DUP3 PUSH2 0x178F JUMP JUMPDEST POP PUSH2 0x200 DUP4 ADD MLOAD PUSH2 0x1985 PUSH2 0x200 DUP7 ADD DUP3 PUSH2 0x175F JUMP JUMPDEST POP PUSH2 0x220 DUP4 ADD MLOAD PUSH2 0x199A PUSH2 0x220 DUP7 ADD DUP3 PUSH2 0x1802 JUMP JUMPDEST POP DUP1 SWAP2 POP POP SWAP3 SWAP2 POP POP JUMP JUMPDEST PUSH0 PUSH2 0x19B0 DUP4 DUP4 PUSH2 0x1811 JUMP JUMPDEST SWAP1 POP SWAP3 SWAP2 POP POP JUMP JUMPDEST PUSH0 PUSH1 0x20 DUP3 ADD SWAP1 POP SWAP2 SWAP1 POP JUMP JUMPDEST PUSH0 PUSH2 0x19CE DUP3 PUSH2 0x1696 JUMP JUMPDEST PUSH2 0x19D8 DUP2 DUP6 PUSH2 0x16A0 JUMP JUMPDEST SWAP4 POP DUP4 PUSH1 0x20 DUP3 MUL DUP6 ADD PUSH2 0x19EA DUP6 PUSH2 0x16B0 JUMP JUMPDEST DUP1 PUSH0 JUMPDEST DUP6 DUP2 LT ISZERO PUSH2 0x1A25 JUMPI DUP5 DUP5 SUB DUP10 MSTORE DUP2 MLOAD PUSH2 0x1A06 DUP6 DUP3 PUSH2 0x19A5 JUMP JUMPDEST SWAP5 POP PUSH2 0x1A11 DUP4 PUSH2 0x19B8 JUMP JUMPDEST SWAP3 POP PUSH1 0x20 DUP11 ADD SWAP10 POP POP PUSH1 0x1 DUP2 ADD SWAP1 POP PUSH2 0x19ED JUMP JUMPDEST POP DUP3 SWAP8 POP DUP8 SWAP6 POP POP POP POP POP POP SWAP3 SWAP2 POP POP JUMP JUMPDEST PUSH0 PUSH1 0x20 DUP3 ADD SWAP1 POP DUP2 DUP2 SUB PUSH0 DUP4 ADD MSTORE PUSH2 0x1A4F DUP2 DUP5 PUSH2 0x19C4 JUMP JUMPDEST SWAP1 POP SWAP3 SWAP2 POP POP JUMP JUMPDEST PUSH0 PUSH1 0x40 MLOAD SWAP1 POP SWAP1 JUMP JUMPDEST PUSH0 DUP1 REVERT JUMPDEST PUSH0 DUP1 REVERT JUMPDEST PUSH2 0x1A71 DUP2 PUSH2 0x174E JUMP JUMPDEST DUP2 EQ PUSH2 0x1A7B JUMPI PUSH0 DUP1 REVERT JUMPDEST POP JUMP JUMPDEST PUSH0 DUP2 CALLDATALOAD SWAP1 POP PUSH2 0x1A8C DUP2 PUSH2 0x1A68 JUMP JUMPDEST SWAP3 SWAP2 POP POP JUMP JUMPDEST PUSH0 DUP1 REVERT JUMPDEST PUSH32 0x4E487B7100000000000000000000000000000000000000000000000000000000 PUSH0 MSTORE PUSH1 0x41 PUSH1 0x4 MSTORE PUSH1 0x24 PUSH0 REVERT JUMPDEST PUSH2 0x1ACC DUP3 PUSH2 0x16E7 JUMP JUMPDEST DUP2 ADD DUP2 DUP2 LT PUSH8 0xFFFFFFFFFFFFFFFF DUP3 GT OR ISZERO PUSH2 0x1AEB JUMPI PUSH2 0x1AEA PUSH2 0x1A96 JUMP JUMPDEST JUMPDEST DUP1 PUSH1 0x40 MSTORE POP POP POP JUMP JUMPDEST PUSH0 PUSH2 0x1AFD PUSH2 0x1A57 JUMP JUMPDEST SWAP1 POP PUSH2 0x1B09 DUP3 DUP3 PUSH2 0x1AC3 JUMP JUMPDEST SWAP2 SWAP1 POP JUMP JUMPDEST PUSH0 DUP1 REVERT JUMPDEST PUSH0 DUP1 REVERT JUMPDEST PUSH0 DUP1 REVERT JUMPDEST PUSH0 PUSH8 0xFFFFFFFFFFFFFFFF DUP3 GT ISZERO PUSH2 0x1B34 JUMPI PUSH2 0x1B33 PUSH2 0x1A96 JUMP JUMPDEST JUMPDEST PUSH2 0x1B3D DUP3 PUSH2 0x16E7 JUMP JUMPDEST SWAP1 POP PUSH1 0x20 DUP2 ADD SWAP1 POP SWAP2 SWAP1 POP JUMP JUMPDEST DUP3 DUP2 DUP4 CALLDATACOPY PUSH0 DUP4 DUP4 ADD MSTORE POP POP POP JUMP JUMPDEST PUSH0 PUSH2 0x1B6A PUSH2 0x1B65 DUP5 PUSH2 0x1B1A JUMP JUMPDEST PUSH2 0x1AF4 JUMP JUMPDEST SWAP1 POP DUP3 DUP2 MSTORE PUSH1 0x20 DUP2 ADD DUP5 DUP5 DUP5 ADD GT ISZERO PUSH2 0x1B86 JUMPI PUSH2 0x1B85 PUSH2 0x1B16 JUMP JUMPDEST JUMPDEST PUSH2 0x1B91 DUP5 DUP3 DUP6 PUSH2 0x1B4A JUMP JUMPDEST POP SWAP4 SWAP3 POP POP POP JUMP JUMPDEST PUSH0 DUP3 PUSH1 0x1F DUP4 ADD SLT PUSH2 0x1BAD JUMPI PUSH2 0x1BAC PUSH2 0x1B12 JUMP JUMPDEST JUMPDEST DUP2 CALLDATALOAD PUSH2 0x1BBD DUP5 DUP3 PUSH1 0x20 DUP7 ADD PUSH2 0x1B58 JUMP JUMPDEST SWAP2 POP POP SWAP3 SWAP2 POP POP JUMP JUMPDEST PUSH2 0x1BCF DUP2 PUSH2 0x176E JUMP JUMPDEST DUP2 EQ PUSH2 0x1BD9 JUMPI PUSH0 DUP1 REVERT JUMPDEST POP JUMP JUMPDEST PUSH0 DUP2 CALLDATALOAD SWAP1 POP PUSH2 0x1BEA DUP2 PUSH2 0x1BC6 JUMP JUMPDEST SWAP3 SWAP2 POP POP JUMP JUMPDEST PUSH2 0x1BF9 DUP2 PUSH2 0x1786 JUMP JUMPDEST DUP2 EQ PUSH2 0x1C03 JUMPI PUSH0 DUP1 REVERT JUMPDEST POP JUMP JUMPDEST PUSH0 DUP2 CALLDATALOAD SWAP1 POP PUSH2 0x1C14 DUP2 PUSH2 0x1BF0 JUMP JUMPDEST SWAP3 SWAP2 POP POP JUMP JUMPDEST PUSH1 0xB DUP2 LT PUSH2 0x1C26 JUMPI PUSH0 DUP1 REVERT JUMPDEST POP JUMP JUMPDEST PUSH0 DUP2 CALLDATALOAD SWAP1 POP PUSH2 0x1C37 DUP2 PUSH2 0x1C1A JUMP JUMPDEST SWAP3 SWAP2 POP POP JUMP JUMPDEST PUSH0 PUSH2 0x240 DUP3 DUP5 SUB SLT ISZERO PUSH2 0x1C53 JUMPI PUSH2 0x1C52 PUSH2 0x1A92 JUMP JUMPDEST JUMPDEST PUSH2 0x1C5E PUSH2 0x240 PUSH2 0x1AF4 JUMP JUMPDEST SWAP1 POP PUSH0 DUP3 ADD CALLDATALOAD PUSH8 0xFFFFFFFFFFFFFFFF DUP2 GT ISZERO PUSH2 0x1C7D JUMPI PUSH2 0x1C7C PUSH2 0x1B0E JUMP JUMPDEST JUMPDEST PUSH2 0x1C89 DUP5 DUP3 DUP6 ADD PUSH2 0x1B99 JUMP JUMPDEST PUSH0 DUP4 ADD MSTORE POP PUSH1 0x20 DUP3 ADD CALLDATALOAD PUSH8 0xFFFFFFFFFFFFFFFF DUP2 GT ISZERO PUSH2 0x1CAC JUMPI PUSH2 0x1CAB PUSH2 0x1B0E JUMP JUMPDEST JUMPDEST PUSH2 0x1CB8 DUP5 DUP3 DUP6 ADD PUSH2 0x1B99 JUMP JUMPDEST PUSH1 0x20 DUP4 ADD MSTORE POP PUSH1 0x40 PUSH2 0x1CCC DUP5 DUP3 DUP6 ADD PUSH2 0x1A7E JUMP JUMPDEST PUSH1 0x40 DUP4 ADD MSTORE POP PUSH1 0x60 PUSH2 0x1CE0 DUP5 DUP3 DUP6 ADD PUSH2 0x1A7E JUMP JUMPDEST PUSH1 0x60 DUP4 ADD MSTORE POP PUSH1 0x80 PUSH2 0x1CF4 DUP5 DUP3 DUP6 ADD PUSH2 0x1BDC JUMP JUMPDEST PUSH1 0x80 DUP4 ADD MSTORE POP PUSH1 0xA0 PUSH2 0x1D08 DUP5 DUP3 DUP6 ADD PUSH2 0x1BDC JUMP JUMPDEST PUSH1 0xA0 DUP4 ADD MSTORE POP PUSH1 0xC0 PUSH2 0x1D1C DUP5 DUP3 DUP6 ADD PUSH2 0x1BDC JUMP JUMPDEST PUSH1 0xC0 DUP4 ADD MSTORE POP PUSH1 0xE0 PUSH2 0x1D30 DUP5 DUP3 DUP6 ADD PUSH2 0x1BDC JUMP JUMPDEST PUSH1 0xE0 DUP4 ADD MSTORE POP PUSH2 0x100 DUP3 ADD CALLDATALOAD PUSH8 0xFFFFFFFFFFFFFFFF DUP2 GT ISZERO PUSH2 0x1D55 JUMPI PUSH2 0x1D54 PUSH2 0x1B0E JUMP JUMPDEST JUMPDEST PUSH2 0x1D61 DUP5 DUP3 DUP6 ADD PUSH2 0x1B99 JUMP JUMPDEST PUSH2 0x100 DUP4 ADD MSTORE POP PUSH2 0x120 DUP3 ADD CALLDATALOAD PUSH8 0xFFFFFFFFFFFFFFFF DUP2 GT ISZERO PUSH2 0x1D87 JUMPI PUSH2 0x1D86 PUSH2 0x1B0E JUMP JUMPDEST JUMPDEST PUSH2 0x1D93 DUP5 DUP3 DUP6 ADD PUSH2 0x1B99 JUMP JUMPDEST PUSH2 0x120 DUP4 ADD MSTORE POP PUSH2 0x140 PUSH2 0x1DA9 DUP5 DUP3 DUP6 ADD PUSH2 0x1C06 JUMP JUMPDEST PUSH2 0x140 DUP4 ADD MSTORE POP PUSH2 0x160 PUSH2 0x1DBF DUP5 DUP3 DUP6 ADD PUSH2 0x1C06 JUMP JUMPDEST PUSH2 0x160 DUP4 ADD MSTORE POP PUSH2 0x180 PUSH2 0x1DD5 DUP5 DUP3 DUP6 ADD PUSH2 0x1C06 JUMP JUMPDEST PUSH2 0x180 DUP4 ADD MSTORE POP PUSH2 0x1A0 PUSH2 0x1DEB DUP5 DUP3 DUP6 ADD PUSH2 0x1C06 JUMP JUMPDEST PUSH2 0x1A0 DUP4 ADD MSTORE POP PUSH2 0x1C0 PUSH2 0x1E01 DUP5 DUP3 DUP6 ADD PUSH2 0x1C06 JUMP JUMPDEST PUSH2 0x1C0 DUP4 ADD MSTORE POP PUSH2 0x1E0 PUSH2 0x1E17 DUP5 DUP3 DUP6 ADD PUSH2 0x1C06 JUMP JUMPDEST PUSH2 0x1E0 DUP4 ADD MSTORE POP PUSH2 0x200 PUSH2 0x1E2D DUP5 DUP3 DUP6 ADD PUSH2 0x1A7E JUMP JUMPDEST PUSH2 0x200 DUP4 ADD MSTORE POP PUSH2 0x220 PUSH2 0x1E43 DUP5 DUP3 DUP6 ADD PUSH2 0x1C29 JUMP JUMPDEST PUSH2 0x220 DUP4 ADD MSTORE POP SWAP3 SWAP2 POP POP JUMP JUMPDEST PUSH0 DUP1 PUSH1 0x40 DUP4 DUP6 SUB SLT ISZERO PUSH2 0x1E66 JUMPI PUSH2 0x1E65 PUSH2 0x1A60 JUMP JUMPDEST JUMPDEST PUSH0 PUSH2 0x1E73 DUP6 DUP3 DUP7 ADD PUSH2 0x1A7E JUMP JUMPDEST SWAP3 POP POP PUSH1 0x20 DUP4 ADD CALLDATALOAD PUSH8 0xFFFFFFFFFFFFFFFF DUP2 GT ISZERO PUSH2 0x1E94 JUMPI PUSH2 0x1E93 PUSH2 0x1A64 JUMP JUMPDEST JUMPDEST PUSH2 0x1EA0 DUP6 DUP3 DUP7 ADD PUSH2 0x1C3D JUMP JUMPDEST SWAP2 POP POP SWAP3 POP SWAP3 SWAP1 POP JUMP JUMPDEST PUSH1 0x2 DUP2 LT PUSH2 0x1EB6 JUMPI PUSH0 DUP1 REVERT JUMPDEST POP JUMP JUMPDEST PUSH0 DUP2 CALLDATALOAD SWAP1 POP PUSH2 0x1EC7 DUP2 PUSH2 0x1EAA JUMP JUMPDEST SWAP3 SWAP2 POP POP JUMP JUMPDEST PUSH0 DUP1 PUSH1 0x40 DUP4 DUP6 SUB SLT ISZERO PUSH2 0x1EE3 JUMPI PUSH2 0x1EE2 PUSH2 0x1A60 JUMP JUMPDEST JUMPDEST PUSH0 DUP4 ADD CALLDATALOAD PUSH8 0xFFFFFFFFFFFFFFFF DUP2 GT ISZERO PUSH2 0x1F00 JUMPI PUSH2 0x1EFF PUSH2 0x1A64 JUMP JUMPDEST JUMPDEST PUSH2 0x1F0C DUP6 DUP3 DUP7 ADD PUSH2 0x1B99 JUMP JUMPDEST SWAP3 POP POP PUSH1 0x20 PUSH2 0x1F1D DUP6 DUP3 DUP7 ADD PUSH2 0x1EB9 JUMP JUMPDEST SWAP2 POP POP SWAP3 POP SWAP3 SWAP1 POP JUMP JUMPDEST PUSH32 0x4E487B7100000000000000000000000000000000000000000000000000000000 PUSH0 MSTORE PUSH1 0x32 PUSH1 0x4 MSTORE PUSH1 0x24 PUSH0 REVERT JUMPDEST PUSH32 0x4E487B7100000000000000000000000000000000000000000000000000000000 PUSH0 MSTORE PUSH1 0x22 PUSH1 0x4 MSTORE PUSH1 0x24 PUSH0 REVERT JUMPDEST PUSH0 PUSH1 0x2 DUP3 DIV SWAP1 POP PUSH1 0x1 DUP3 AND DUP1 PUSH2 0x1F98 JUMPI PUSH1 0x7F DUP3 AND SWAP2 POP JUMPDEST PUSH1 0x20 DUP3 LT DUP2 SUB PUSH2 0x1FAB JUMPI PUSH2 0x1FAA PUSH2 0x1F54 JUMP JUMPDEST JUMPDEST POP SWAP2 SWAP1 POP JUMP JUMPDEST PUSH32 0x4E487B7100000000000000000000000000000000000000000000000000000000 PUSH0 MSTORE PUSH1 0x11 PUSH1 0x4 MSTORE PUSH1 0x24 PUSH0 REVERT JUMPDEST PUSH0 PUSH2 0x1FE8 DUP3 PUSH2 0x1786 JUMP JUMPDEST SWAP2 POP PUSH32 0xFFFFFFFFFFFFFFFFFFFFFFFFFFFFFFFFFFFFFFFFFFFFFFFFFFFFFFFFFFFFFFFF DUP3 SUB PUSH2 0x201A JUMPI PUSH2 0x2019 PUSH2 0x1FB1 JUMP JUMPDEST JUMPDEST PUSH1 0x1 DUP3 ADD SWAP1 POP SWAP2 SWAP1 POP JUMP JUMPDEST PUSH2 0x202E DUP2 PUSH2 0x174E JUMP JUMPDEST DUP3 MSTORE POP POP JUMP JUMPDEST PUSH0 PUSH2 0x240 DUP4 ADD PUSH0 DUP4 ADD MLOAD DUP5 DUP3 SUB PUSH0 DUP7 ADD MSTORE PUSH2 0x204F DUP3 DUP3 PUSH2 0x16F7 JUMP JUMPDEST SWAP2 POP POP PUSH1 0x20 DUP4 ADD MLOAD DUP5 DUP3 SUB PUSH1 0x20 DUP7 ADD MSTORE PUSH2 0x2069 DUP3 DUP3 PUSH2 0x16F7 JUMP JUMPDEST SWAP2 POP POP PUSH1 0x40 DUP4 ADD MLOAD PUSH2 0x207E PUSH1 0x40 DUP7 ADD DUP3 PUSH2 0x175F JUMP JUMPDEST POP PUSH1 0x60 DUP4 ADD MLOAD PUSH2 0x2091 PUSH1 0x60 DUP7 ADD DUP3 PUSH2 0x175F JUMP JUMPDEST POP PUSH1 0x80 DUP4 ADD MLOAD PUSH2 0x20A4 PUSH1 0x80 DUP7 ADD DUP3 PUSH2 0x1777 JUMP JUMPDEST POP PUSH1 0xA0 DUP4 ADD MLOAD PUSH2 0x20B7 PUSH1 0xA0 DUP7 ADD DUP3 PUSH2 0x1777 JUMP JUMPDEST POP PUSH1 0xC0 DUP4 ADD MLOAD PUSH2 0x20CA PUSH1 0xC0 DUP7 ADD DUP3 PUSH2 0x1777 JUMP JUMPDEST POP PUSH1 0xE0 DUP4 ADD MLOAD PUSH2 0x20DD PUSH1 0xE0 DUP7 ADD DUP3 PUSH2 0x1777 JUMP JUMPDEST POP PUSH2 0x100 DUP4 ADD MLOAD DUP5 DUP3 SUB PUSH2 0x100 DUP7 ADD MSTORE PUSH2 0x20F7 DUP3 DUP3 PUSH2 0x16F7 JUMP JUMPDEST SWAP2 POP POP PUSH2 0x120 DUP4 ADD MLOAD DUP5 DUP3 SUB PUSH2 0x120 DUP7 ADD MSTORE PUSH2 0x2113 DUP3 DUP3 PUSH2 0x16F7 JUMP JUMPDEST SWAP2 POP POP PUSH2 0x140 DUP4 ADD MLOAD PUSH2 0x212A PUSH2 0x140 DUP7 ADD DUP3 PUSH2 0x178F JUMP JUMPDEST POP PUSH2 0x160 DUP4 ADD MLOAD PUSH2 0x213F PUSH2 0x160 DUP7 ADD DUP3 PUSH2 0x178F JUMP JUMPDEST POP PUSH2 0x180 DUP4 ADD MLOAD PUSH2 0x2154 PUSH2 0x180 DUP7 ADD DUP3 PUSH2 0x178F JUMP JUMPDEST POP PUSH2 0x1A0 DUP4 ADD MLOAD PUSH2 0x2169 PUSH2 0x1A0 DUP7 ADD DUP3 PUSH2 0x178F JUMP JUMPDEST POP PUSH2 0x1C0 DUP4 ADD MLOAD PUSH2 0x217E PUSH2 0x1C0 DUP7 ADD DUP3 PUSH2 0x178F JUMP JUMPDEST POP PUSH2 0x1E0 DUP4 ADD MLOAD PUSH2 0x2193 PUSH2 0x1E0 DUP7 ADD DUP3 PUSH2 0x178F JUMP JUMPDEST POP PUSH2 0x200 DUP4 ADD MLOAD PUSH2 0x21A8 PUSH2 0x200 DUP7 ADD DUP3 PUSH2 0x175F JUMP JUMPDEST POP PUSH2 0x220 DUP4 ADD MLOAD PUSH2 0x21BD PUSH2 0x220 DUP7 ADD DUP3 PUSH2 0x1802 JUMP JUMPDEST POP DUP1 SWAP2 POP POP SWAP3 SWAP2 POP POP JUMP JUMPDEST PUSH0 PUSH1 0x40 DUP3 ADD SWAP1 POP PUSH2 0x21DB PUSH0 DUP4 ADD DUP6 PUSH2 0x2025 JUMP JUMPDEST DUP2 DUP2 SUB PUSH1 0x20 DUP4 ADD MSTORE PUSH2 0x21ED DUP2 DUP5 PUSH2 0x2034 JUMP JUMPDEST SWAP1 POP SWAP4 SWAP3 POP POP POP JUMP JUMPDEST PUSH0 DUP2 SWAP1 POP DUP2 PUSH0 MSTORE PUSH1 0x20 PUSH0 KECCAK256 SWAP1 POP SWAP2 SWAP1 POP JUMP JUMPDEST PUSH0 PUSH1 0x20 PUSH1 0x1F DUP4 ADD DIV SWAP1 POP SWAP2 SWAP1 POP JUMP JUMPDEST PUSH0 DUP3 DUP3 SHL SWAP1 POP SWAP3 SWAP2 POP POP JUMP JUMPDEST PUSH0 PUSH1 0x8 DUP4 MUL PUSH2 0x2252 PUSH32 0xFFFFFFFFFFFFFFFFFFFFFFFFFFFFFFFFFFFFFFFFFFFFFFFFFFFFFFFFFFFFFFFF DUP3 PUSH2 0x2217 JUMP JUMPDEST PUSH2 0x225C DUP7 DUP4 PUSH2 0x2217 JUMP JUMPDEST SWAP6 POP DUP1 NOT DUP5 AND SWAP4 POP DUP1 DUP7 AND DUP5 OR SWAP3 POP POP POP SWAP4 SWAP3 POP POP POP JUMP JUMPDEST PUSH0 DUP2 SWAP1 POP SWAP2 SWAP1 POP JUMP JUMPDEST PUSH0 PUSH2 0x2297 PUSH2 0x2292 PUSH2 0x228D DUP5 PUSH2 0x1786 JUMP JUMPDEST PUSH2 0x2274 JUMP JUMPDEST PUSH2 0x1786 JUMP JUMPDEST SWAP1 POP SWAP2 SWAP1 POP JUMP JUMPDEST PUSH0 DUP2 SWAP1 POP SWAP2 SWAP1 POP JUMP JUMPDEST PUSH2 0x22B0 DUP4 PUSH2 0x227D JUMP JUMPDEST PUSH2 0x22C4 PUSH2 0x22BC DUP3 PUSH2 0x229E JUMP JUMPDEST DUP5 DUP5 SLOAD PUSH2 0x2223 JUMP JUMPDEST DUP3 SSTORE POP POP POP POP JUMP JUMPDEST PUSH0 SWAP1 JUMP JUMPDEST PUSH2 0x22D8 PUSH2 0x22CC JUMP JUMPDEST PUSH2 0x22E3 DUP2 DUP5 DUP5 PUSH2 0x22A7 JUMP JUMPDEST POP POP POP JUMP JUMPDEST JUMPDEST DUP2 DUP2 LT ISZERO PUSH2 0x2306 JUMPI PUSH2 0x22FB PUSH0 DUP3 PUSH2 0x22D0 JUMP JUMPDEST PUSH1 0x1 DUP2 ADD SWAP1 POP PUSH2 0x22E9 JUMP JUMPDEST POP POP JUMP JUMPDEST PUSH1 0x1F DUP3 GT ISZERO PUSH2 0x234B JUMPI PUSH2 0x231C DUP2 PUSH2 0x21F6 JUMP JUMPDEST PUSH2 0x2325 DUP5 PUSH2 0x2208 JUMP JUMPDEST DUP2 ADD PUSH1 0x20 DUP6 LT ISZERO PUSH2 0x2334 JUMPI DUP2 SWAP1 POP JUMPDEST PUSH2 0x2348 PUSH2 0x2340 DUP6 PUSH2 0x2208 JUMP JUMPDEST DUP4 ADD DUP3 PUSH2 0x22E8 JUMP JUMPDEST POP POP JUMPDEST POP POP POP JUMP JUMPDEST PUSH0 DUP3 DUP3 SHR SWAP1 POP SWAP3 SWAP2 POP POP JUMP JUMPDEST PUSH0 PUSH2 0x236B PUSH0 NOT DUP5 PUSH1 0x8 MUL PUSH2 0x2350 JUMP JUMPDEST NOT DUP1 DUP4 AND SWAP2 POP POP SWAP3 SWAP2 POP POP JUMP JUMPDEST PUSH0 PUSH2 0x2383 DUP4 DUP4 PUSH2 0x235C JUMP JUMPDEST SWAP2 POP DUP3 PUSH1 0x2 MUL DUP3 OR SWAP1 POP SWAP3 SWAP2 POP POP JUMP JUMPDEST PUSH2 0x239C DUP3 PUSH2 0x16BF JUMP JUMPDEST PUSH8 0xFFFFFFFFFFFFFFFF DUP2 GT ISZERO PUSH2 0x23B5 JUMPI PUSH2 0x23B4 PUSH2 0x1A96 JUMP JUMPDEST JUMPDEST PUSH2 0x23BF DUP3 SLOAD PUSH2 0x1F81 JUMP JUMPDEST PUSH2 0x23CA DUP3 DUP3 DUP6 PUSH2 0x230A JUMP JUMPDEST PUSH0 PUSH1 0x20 SWAP1 POP PUSH1 0x1F DUP4 GT PUSH1 0x1 DUP2 EQ PUSH2 0x23FB JUMPI PUSH0 DUP5 ISZERO PUSH2 0x23E9 JUMPI DUP3 DUP8 ADD MLOAD SWAP1 POP JUMPDEST PUSH2 0x23F3 DUP6 DUP3 PUSH2 0x2378 JUMP JUMPDEST DUP7 SSTORE POP PUSH2 0x245A JUMP JUMPDEST PUSH1 0x1F NOT DUP5 AND PUSH2 0x2409 DUP7 PUSH2 0x21F6 JUMP JUMPDEST PUSH0 JUMPDEST DUP3 DUP2 LT ISZERO PUSH2 0x2430 JUMPI DUP5 DUP10 ADD MLOAD DUP3 SSTORE PUSH1 0x1 DUP3 ADD SWAP2 POP PUSH1 0x20 DUP6 ADD SWAP5 POP PUSH1 0x20 DUP2 ADD SWAP1 POP PUSH2 0x240B JUMP JUMPDEST DUP7 DUP4 LT ISZERO PUSH2 0x244D JUMPI DUP5 DUP10 ADD MLOAD PUSH2 0x2449 PUSH1 0x1F DUP10 AND DUP3 PUSH2 0x235C JUMP JUMPDEST DUP4 SSTORE POP JUMPDEST PUSH1 0x1 PUSH1 0x2 DUP9 MUL ADD DUP9 SSTORE POP POP POP JUMPDEST POP POP POP POP POP POP JUMP JUMPDEST PUSH0 DUP2 SWAP1 POP SWAP3 SWAP2 POP POP JUMP JUMPDEST PUSH0 PUSH2 0x2476 DUP3 PUSH2 0x16BF JUMP JUMPDEST PUSH2 0x2480 DUP2 DUP6 PUSH2 0x2462 JUMP JUMPDEST SWAP4 POP PUSH2 0x2490 DUP2 DUP6 PUSH1 0x20 DUP7 ADD PUSH2 0x16D9 JUMP JUMPDEST DUP1 DUP5 ADD SWAP2 POP POP SWAP3 SWAP2 POP POP JUMP JUMPDEST PUSH0 PUSH2 0x24A7 DUP3 DUP5 PUSH2 0x246C JUMP JUMPDEST SWAP2 POP DUP2 SWAP1 POP SWAP3 SWAP2 POP POP JUMP JUMPDEST PUSH0 DUP3 DUP3 MSTORE PUSH1 0x20 DUP3 ADD SWAP1 POP SWAP3 SWAP2 POP POP JUMP JUMPDEST PUSH0 PUSH2 0x24CC DUP3 PUSH2 0x16BF JUMP JUMPDEST PUSH2 0x24D6 DUP2 DUP6 PUSH2 0x24B2 JUMP JUMPDEST SWAP4 POP PUSH2 0x24E6 DUP2 DUP6 PUSH1 0x20 DUP7 ADD PUSH2 0x16D9 JUMP JUMPDEST PUSH2 0x24EF DUP2 PUSH2 0x16E7 JUMP JUMPDEST DUP5 ADD SWAP2 POP POP SWAP3 SWAP2 POP POP JUMP JUMPDEST PUSH0 PUSH1 0x60 DUP3 ADD SWAP1 POP PUSH2 0x250D PUSH0 DUP4 ADD DUP7 PUSH2 0x2025 JUMP JUMPDEST DUP2 DUP2 SUB PUSH1 0x20 DUP4 ADD MSTORE PUSH2 0x251F DUP2 DUP6 PUSH2 0x24C2 JUMP JUMPDEST SWAP1 POP DUP2 DUP2 SUB PUSH1 0x40 DUP4 ADD MSTORE PUSH2 0x2533 DUP2 DUP5 PUSH2 0x2034 JUMP JUMPDEST SWAP1 POP SWAP5 SWAP4 POP POP POP POP JUMP JUMPDEST PUSH32 0x596F75206861766520616C726561647920766F74656420666F72207468697320 PUSH0 DUP3 ADD MSTORE PUSH32 0x7365727669636520726571756573740000000000000000000000000000000000 PUSH1 0x20 DUP3 ADD MSTORE POP JUMP JUMPDEST PUSH0 PUSH2 0x2597 PUSH1 0x2F DUP4 PUSH2 0x24B2 JUMP JUMPDEST SWAP2 POP PUSH2 0x25A2 DUP3 PUSH2 0x253D JUMP JUMPDEST PUSH1 0x40 DUP3 ADD SWAP1 POP SWAP2 SWAP1 POP JUMP JUMPDEST PUSH0 PUSH1 0x40 DUP3 ADD SWAP1 POP DUP2 DUP2 SUB PUSH0 DUP4 ADD MSTORE PUSH2 0x25C5 DUP2 DUP5 PUSH2 0x24C2 JUMP JUMPDEST SWAP1 POP DUP2 DUP2 SUB PUSH1 0x20 DUP4 ADD MSTORE PUSH2 0x25D8 DUP2 PUSH2 0x258B JUMP JUMPDEST SWAP1 POP SWAP3 SWAP2 POP POP JUMP JUMPDEST PUSH32 0x536572766963652072657175657374206E6F7420696E20796F75722072656769 PUSH0 DUP3 ADD MSTORE PUSH32 0x6F6E000000000000000000000000000000000000000000000000000000000000 PUSH1 0x20 DUP3 ADD MSTORE POP JUMP JUMPDEST PUSH0 PUSH2 0x263A PUSH1 0x22 DUP4 PUSH2 0x24B2 JUMP JUMPDEST SWAP2 POP PUSH2 0x2645 DUP3 PUSH2 0x25E0 JUMP JUMPDEST PUSH1 0x40 DUP3 ADD SWAP1 POP SWAP2 SWAP1 POP JUMP JUMPDEST PUSH0 PUSH1 0x40 DUP3 ADD SWAP1 POP DUP2 DUP2 SUB PUSH0 DUP4 ADD MSTORE PUSH2 0x2668 DUP2 DUP5 PUSH2 0x24C2 JUMP JUMPDEST SWAP1 POP DUP2 DUP2 SUB PUSH1 0x20 DUP4 ADD MSTORE PUSH2 0x267B DUP2 PUSH2 0x262E JUMP JUMPDEST SWAP1 POP SWAP3 SWAP2 POP POP JUMP JUMPDEST PUSH32 0x566F746564207375636365737366756C6C792062792073686970706572000000 PUSH0 DUP3 ADD MSTORE POP JUMP JUMPDEST PUSH0 PUSH2 0x26B7 PUSH1 0x1D DUP4 PUSH2 0x24B2 JUMP JUMPDEST SWAP2 POP PUSH2 0x26C2 DUP3 PUSH2 0x2683 JUMP JUMPDEST PUSH1 0x20 DUP3 ADD SWAP1 POP SWAP2 SWAP1 POP JUMP JUMPDEST PUSH0 PUSH1 0x60 DUP3 ADD SWAP1 POP PUSH2 0x26E0 PUSH0 DUP4 ADD DUP6 PUSH2 0x2025 JUMP JUMPDEST DUP2 DUP2 SUB PUSH1 0x20 DUP4 ADD MSTORE PUSH2 0x26F2 DUP2 DUP5 PUSH2 0x24C2 JUMP JUMPDEST SWAP1 POP DUP2 DUP2 SUB PUSH1 0x40 DUP4 ADD MSTORE PUSH2 0x2705 DUP2 PUSH2 0x26AB JUMP JUMPDEST SWAP1 POP SWAP4 SWAP3 POP POP POP JUMP JUMPDEST PUSH32 0x566F74696E672068617320616C726561647920656E6465640000000000000000 PUSH0 DUP3 ADD MSTORE POP JUMP JUMPDEST PUSH0 PUSH2 0x2742 PUSH1 0x18 DUP4 PUSH2 0x24B2 JUMP JUMPDEST SWAP2 POP PUSH2 0x274D DUP3 PUSH2 0x270E JUMP JUMPDEST PUSH1 0x20 DUP3 ADD SWAP1 POP SWAP2 SWAP1 POP JUMP JUMPDEST PUSH0 PUSH1 0x40 DUP3 ADD SWAP1 POP DUP2 DUP2 SUB PUSH0 DUP4 ADD MSTORE PUSH2 0x2770 DUP2 DUP5 PUSH2 0x24C2 JUMP JUMPDEST SWAP1 POP DUP2 DUP2 SUB PUSH1 0x20 DUP4 ADD MSTORE PUSH2 0x2783 DUP2 PUSH2 0x2736 JUMP JUMPDEST SWAP1 POP SWAP3 SWAP2 POP POP JUMP JUMPDEST PUSH32 0x53656C6620766F7465206973206E6F7420616C6C6F7765640000000000000000 PUSH0 DUP3 ADD MSTORE POP JUMP JUMPDEST PUSH0 PUSH2 0x27BF PUSH1 0x18 DUP4 PUSH2 0x24B2 JUMP JUMPDEST SWAP2 POP PUSH2 0x27CA DUP3 PUSH2 0x278B JUMP JUMPDEST PUSH1 0x20 DUP3 ADD SWAP1 POP SWAP2 SWAP1 POP JUMP JUMPDEST PUSH0 PUSH1 0x40 DUP3 ADD SWAP1 POP DUP2 DUP2 SUB PUSH0 DUP4 ADD MSTORE PUSH2 0x27ED DUP2 DUP5 PUSH2 0x24C2 JUMP JUMPDEST SWAP1 POP DUP2 DUP2 SUB PUSH1 0x20 DUP4 ADD MSTORE PUSH2 0x2800 DUP2 PUSH2 0x27B3 JUMP JUMPDEST SWAP1 POP SWAP3 SWAP2 POP POP JUMP JUMPDEST PUSH32 0x566F746564207375636365737366756C6C790000000000000000000000000000 PUSH0 DUP3 ADD MSTORE POP JUMP JUMPDEST PUSH0 PUSH2 0x283C PUSH1 0x12 DUP4 PUSH2 0x24B2 JUMP JUMPDEST SWAP2 POP PUSH2 0x2847 DUP3 PUSH2 0x2808 JUMP JUMPDEST PUSH1 0x20 DUP3 ADD SWAP1 POP SWAP2 SWAP1 POP JUMP JUMPDEST PUSH0 PUSH1 0x60 DUP3 ADD SWAP1 POP PUSH2 0x2865 PUSH0 DUP4 ADD DUP6 PUSH2 0x2025 JUMP JUMPDEST DUP2 DUP2 SUB PUSH1 0x20 DUP4 ADD MSTORE PUSH2 0x2877 DUP2 DUP5 PUSH2 0x24C2 JUMP JUMPDEST SWAP1 POP DUP2 DUP2 SUB PUSH1 0x40 DUP4 ADD MSTORE PUSH2 0x288A DUP2 PUSH2 0x2830 JUMP JUMPDEST SWAP1 POP SWAP4 SWAP3 POP POP POP JUMP JUMPDEST PUSH0 DUP3 DUP3 MSTORE PUSH1 0x20 DUP3 ADD SWAP1 POP SWAP3 SWAP2 POP POP JUMP JUMPDEST PUSH0 DUP2 SLOAD PUSH2 0x28AF DUP2 PUSH2 0x1F81 JUMP JUMPDEST PUSH2 0x28B9 DUP2 DUP7 PUSH2 0x2893 JUMP JUMPDEST SWAP5 POP PUSH1 0x1 DUP3 AND PUSH0 DUP2 EQ PUSH2 0x28D3 JUMPI PUSH1 0x1 DUP2 EQ PUSH2 0x28E9 JUMPI PUSH2 0x291B JUMP JUMPDEST PUSH1 0xFF NOT DUP4 AND DUP7 MSTORE DUP2 ISZERO ISZERO PUSH1 0x20 MUL DUP7 ADD SWAP4 POP PUSH2 0x291B JUMP JUMPDEST PUSH2 0x28F2 DUP6 PUSH2 0x21F6 JUMP JUMPDEST PUSH0 JUMPDEST DUP4 DUP2 LT ISZERO PUSH2 0x2913 JUMPI DUP2 SLOAD DUP2 DUP10 ADD MSTORE PUSH1 0x1 DUP3 ADD SWAP2 POP PUSH1 0x20 DUP2 ADD SWAP1 POP PUSH2 0x28F4 JUMP JUMPDEST DUP1 DUP9 ADD SWAP6 POP POP POP JUMPDEST POP POP POP SWAP3 SWAP2 POP POP JUMP JUMPDEST PUSH0 PUSH2 0x292E DUP3 PUSH2 0x16BF JUMP JUMPDEST PUSH2 0x2938 DUP2 DUP6 PUSH2 0x2893 JUMP JUMPDEST SWAP4 POP PUSH2 0x2948 DUP2 DUP6 PUSH1 0x20 DUP7 ADD PUSH2 0x16D9 JUMP JUMPDEST PUSH2 0x2951 DUP2 PUSH2 0x16E7 JUMP JUMPDEST DUP5 ADD SWAP2 POP POP SWAP3 SWAP2 POP POP JUMP JUMPDEST PUSH0 PUSH1 0x40 DUP3 ADD SWAP1 POP DUP2 DUP2 SUB PUSH0 DUP4 ADD MSTORE PUSH2 0x2974 DUP2 DUP6 PUSH2 0x28A3 JUMP JUMPDEST SWAP1 POP DUP2 DUP2 SUB PUSH1 0x20 DUP4 ADD MSTORE PUSH2 0x2988 DUP2 DUP5 PUSH2 0x2924 JUMP JUMPDEST SWAP1 POP SWAP4 SWAP3 POP POP POP JUMP JUMPDEST PUSH0 DUP2 ISZERO ISZERO SWAP1 POP SWAP2 SWAP1 POP JUMP JUMPDEST PUSH2 0x29A5 DUP2 PUSH2 0x2991 JUMP JUMPDEST DUP2 EQ PUSH2 0x29AF JUMPI PUSH0 DUP1 REVERT JUMPDEST POP JUMP JUMPDEST PUSH0 DUP2 MLOAD SWAP1 POP PUSH2 0x29C0 DUP2 PUSH2 0x299C JUMP JUMPDEST SWAP3 SWAP2 POP POP JUMP JUMPDEST PUSH0 PUSH1 0x20 DUP3 DUP5 SUB SLT ISZERO PUSH2 0x29DB JUMPI PUSH2 0x29DA PUSH2 0x1A60 JUMP JUMPDEST JUMPDEST PUSH0 PUSH2 0x29E8 DUP5 DUP3 DUP6 ADD PUSH2 0x29B2 JUMP JUMPDEST SWAP2 POP POP SWAP3 SWAP2 POP POP JUMP JUMPDEST PUSH32 0x53657276696365207265717565737420646F6573206E6F742065786973747300 PUSH0 DUP3 ADD MSTORE POP JUMP JUMPDEST PUSH0 PUSH2 0x2A25 PUSH1 0x1F DUP4 PUSH2 0x24B2 JUMP JUMPDEST SWAP2 POP PUSH2 0x2A30 DUP3 PUSH2 0x29F1 JUMP JUMPDEST PUSH1 0x20 DUP3 ADD SWAP1 POP SWAP2 SWAP1 POP JUMP JUMPDEST PUSH0 PUSH1 0x40 DUP3 ADD SWAP1 POP DUP2 DUP2 SUB PUSH0 DUP4 ADD MSTORE PUSH2 0x2A53 DUP2 DUP5 PUSH2 0x24C2 JUMP JUMPDEST SWAP1 POP DUP2 DUP2 SUB PUSH1 0x20 DUP4 ADD MSTORE PUSH2 0x2A66 DUP2 PUSH2 0x2A19 JUMP JUMPDEST SWAP1 POP SWAP3 SWAP2 POP POP JUMP JUMPDEST PUSH0 PUSH2 0x2A78 DUP3 PUSH2 0x1786 JUMP JUMPDEST SWAP2 POP PUSH2 0x2A83 DUP4 PUSH2 0x1786 JUMP JUMPDEST SWAP3 POP DUP3 DUP3 ADD SWAP1 POP DUP1 DUP3 GT ISZERO PUSH2 0x2A9B JUMPI PUSH2 0x2A9A PUSH2 0x1FB1 JUMP JUMPDEST JUMPDEST SWAP3 SWAP2 POP POP JUMP INVALID LOG2 PUSH5 0x6970667358 0x22 SLT KECCAK256 0xB4 DIV PUSH10 0xED728236EF398A3E4F1D 0xCC SELFBALANCE 0xDE ADDRESS MOD PUSH10 0x6520474847D2D985731 DUP6 PUSH21 0x5E64736F6C63430008190033000000000000000000 "
		},
		"gasEstimates": {
			"creation": {
				"codeDepositCost": "2193400",
				"executionCost": "2336",
				"totalCost": "2195736"
			},
			"external": {
				"getAllDisputedServiceRequestInDriverArea()": "infinite",
				"saveDisutedServiceRequest(address,(string,string,address,address,int256,int256,int256,int256,string,string,uint256,uint256,uint256,uint256,uint256,uint256,address,uint8))": "infinite",
				"vote(string,uint8)": "infinite"
			},
			"internal": {
				"getDriverGeoHash(address)": "infinite",
				"getGeoHashOfUser(address)": "infinite",
				"getServiceRequestById(string memory)": "infinite",
				"increaseVote(string memory,enum Types.WhomToVote)": "infinite"
			}
		},
		"methodIdentifiers": {
			"getAllDisputedServiceRequestInDriverArea()": "04a215fc",
			"saveDisutedServiceRequest(address,(string,string,address,address,int256,int256,int256,int256,string,string,uint256,uint256,uint256,uint256,uint256,uint256,address,uint8))": "77e6b3d8",
			"vote(string,uint8)": "90ca27f3"
		}
	},
	"abi": [
		{
			"inputs": [
				{
					"internalType": "string",
					"name": "serviceRequestId",
					"type": "string"
				},
				{
					"internalType": "string",
					"name": "message",
					"type": "string"
				}
			],
			"name": "AlreadyVoted",
			"type": "error"
		},
		{
			"inputs": [
				{
					"internalType": "string",
					"name": "serviceRequestId",
					"type": "string"
				},
				{
					"internalType": "string",
					"name": "message",
					"type": "string"
				}
			],
			"name": "SelfVoteNotAllowed",
			"type": "error"
		},
		{
			"inputs": [
				{
					"internalType": "string",
					"name": "serviceRequestId",
					"type": "string"
				},
				{
					"internalType": "string",
					"name": "message",
					"type": "string"
				}
			],
			"name": "ServiceRequestDoesNotExists",
			"type": "error"
		},
		{
			"inputs": [
				{
					"internalType": "string",
					"name": "serviceRequestId",
					"type": "string"
				},
				{
					"internalType": "string",
					"name": "message",
					"type": "string"
				}
			],
			"name": "ServiceRequestOutOfRegion",
			"type": "error"
		},
		{
			"inputs": [
				{
					"internalType": "string",
					"name": "serviceRequestId",
					"type": "string"
				},
				{
					"internalType": "string",
					"name": "message",
					"type": "string"
				}
			],
			"name": "VotingEndedAlready",
			"type": "error"
		},
		{
			"anonymous": false,
			"inputs": [
				{
					"indexed": false,
					"internalType": "address",
					"name": "from",
					"type": "address"
				},
				{
					"indexed": false,
					"internalType": "string",
					"name": "serviceRequestId",
					"type": "string"
				},
				{
					"components": [
						{
							"internalType": "string",
							"name": "serviceRequestId",
							"type": "string"
						},
						{
							"internalType": "string",
							"name": "description",
							"type": "string"
						},
						{
							"internalType": "address",
							"name": "shipperAddr",
							"type": "address"
						},
						{
							"internalType": "address",
							"name": "receiverAddr",
							"type": "address"
						},
						{
							"internalType": "int256",
							"name": "originLatitude",
							"type": "int256"
						},
						{
							"internalType": "int256",
							"name": "originLongitude",
							"type": "int256"
						},
						{
							"internalType": "int256",
							"name": "destinationLatitude",
							"type": "int256"
						},
						{
							"internalType": "int256",
							"name": "destinationLongitude",
							"type": "int256"
						},
						{
							"internalType": "string",
							"name": "originLink",
							"type": "string"
						},
						{
							"internalType": "string",
							"name": "destinationLink",
							"type": "string"
						},
						{
							"internalType": "uint256",
							"name": "cargoInsurableValue",
							"type": "uint256"
						},
						{
							"internalType": "uint256",
							"name": "serviceFee",
							"type": "uint256"
						},
						{
							"internalType": "uint256",
							"name": "serviceFeeByBidder",
							"type": "uint256"
						},
						{
							"internalType": "uint256",
							"name": "requestedPickupTime",
							"type": "uint256"
						},
						{
							"internalType": "uint256",
							"name": "requestedDeliveryTime",
							"type": "uint256"
						},
						{
							"internalType": "uint256",
							"name": "auctionTime",
							"type": "uint256"
						},
						{
							"internalType": "address",
							"name": "driverAssigned",
							"type": "address"
						},
						{
							"internalType": "enum Types.Status",
							"name": "status",
							"type": "uint8"
						}
					],
					"indexed": false,
					"internalType": "struct Types.ServiceRequestInfo",
					"name": "serviceRequestInfo",
					"type": "tuple"
				}
			],
			"name": "DisutedSRSaved",
			"type": "event"
		},
		{
			"anonymous": false,
			"inputs": [
				{
					"indexed": false,
					"internalType": "address",
					"name": "from",
					"type": "address"
				},
				{
					"components": [
						{
							"internalType": "string",
							"name": "serviceRequestId",
							"type": "string"
						},
						{
							"internalType": "string",
							"name": "description",
							"type": "string"
						},
						{
							"internalType": "address",
							"name": "shipperAddr",
							"type": "address"
						},
						{
							"internalType": "address",
							"name": "receiverAddr",
							"type": "address"
						},
						{
							"internalType": "int256",
							"name": "originLatitude",
							"type": "int256"
						},
						{
							"internalType": "int256",
							"name": "originLongitude",
							"type": "int256"
						},
						{
							"internalType": "int256",
							"name": "destinationLatitude",
							"type": "int256"
						},
						{
							"internalType": "int256",
							"name": "destinationLongitude",
							"type": "int256"
						},
						{
							"internalType": "string",
							"name": "originLink",
							"type": "string"
						},
						{
							"internalType": "string",
							"name": "destinationLink",
							"type": "string"
						},
						{
							"internalType": "uint256",
							"name": "cargoInsurableValue",
							"type": "uint256"
						},
						{
							"internalType": "uint256",
							"name": "serviceFee",
							"type": "uint256"
						},
						{
							"internalType": "uint256",
							"name": "serviceFeeByBidder",
							"type": "uint256"
						},
						{
							"internalType": "uint256",
							"name": "requestedPickupTime",
							"type": "uint256"
						},
						{
							"internalType": "uint256",
							"name": "requestedDeliveryTime",
							"type": "uint256"
						},
						{
							"internalType": "uint256",
							"name": "auctionTime",
							"type": "uint256"
						},
						{
							"internalType": "address",
							"name": "driverAssigned",
							"type": "address"
						},
						{
							"internalType": "enum Types.Status",
							"name": "status",
							"type": "uint8"
						}
					],
					"indexed": false,
					"internalType": "struct Types.ServiceRequestInfo",
					"name": "serviceRequestInfo",
					"type": "tuple"
				}
			],
			"name": "OnlyDisputedSRCanBeSaved",
			"type": "event"
		},
		{
			"anonymous": false,
			"inputs": [
				{
					"indexed": false,
					"internalType": "address",
					"name": "from",
					"type": "address"
				},
				{
					"indexed": false,
					"internalType": "string",
					"name": "serviceRequestId",
					"type": "string"
				},
				{
					"indexed": false,
					"internalType": "string",
					"name": "message",
					"type": "string"
				}
			],
			"name": "VotingMessage",
			"type": "event"
		},
		{
			"inputs": [],
			"name": "getAllDisputedServiceRequestInDriverArea",
			"outputs": [
				{
					"components": [
						{
							"internalType": "string",
							"name": "serviceRequestId",
							"type": "string"
						},
						{
							"internalType": "string",
							"name": "description",
							"type": "string"
						},
						{
							"internalType": "address",
							"name": "shipperAddr",
							"type": "address"
						},
						{
							"internalType": "address",
							"name": "receiverAddr",
							"type": "address"
						},
						{
							"internalType": "int256",
							"name": "originLatitude",
							"type": "int256"
						},
						{
							"internalType": "int256",
							"name": "originLongitude",
							"type": "int256"
						},
						{
							"internalType": "int256",
							"name": "destinationLatitude",
							"type": "int256"
						},
						{
							"internalType": "int256",
							"name": "destinationLongitude",
							"type": "int256"
						},
						{
							"internalType": "string",
							"name": "originLink",
							"type": "string"
						},
						{
							"internalType": "string",
							"name": "destinationLink",
							"type": "string"
						},
						{
							"internalType": "uint256",
							"name": "cargoInsurableValue",
							"type": "uint256"
						},
						{
							"internalType": "uint256",
							"name": "serviceFee",
							"type": "uint256"
						},
						{
							"internalType": "uint256",
							"name": "serviceFeeByBidder",
							"type": "uint256"
						},
						{
							"internalType": "uint256",
							"name": "requestedPickupTime",
							"type": "uint256"
						},
						{
							"internalType": "uint256",
							"name": "requestedDeliveryTime",
							"type": "uint256"
						},
						{
							"internalType": "uint256",
							"name": "auctionTime",
							"type": "uint256"
						},
						{
							"internalType": "address",
							"name": "driverAssigned",
							"type": "address"
						},
						{
							"internalType": "enum Types.Status",
							"name": "status",
							"type": "uint8"
						}
					],
					"internalType": "struct Types.ServiceRequestInfo[]",
					"name": "",
					"type": "tuple[]"
				}
			],
			"stateMutability": "view",
			"type": "function"
		},
		{
			"inputs": [
				{
					"internalType": "address",
					"name": "from",
					"type": "address"
				},
				{
					"components": [
						{
							"internalType": "string",
							"name": "serviceRequestId",
							"type": "string"
						},
						{
							"internalType": "string",
							"name": "description",
							"type": "string"
						},
						{
							"internalType": "address",
							"name": "shipperAddr",
							"type": "address"
						},
						{
							"internalType": "address",
							"name": "receiverAddr",
							"type": "address"
						},
						{
							"internalType": "int256",
							"name": "originLatitude",
							"type": "int256"
						},
						{
							"internalType": "int256",
							"name": "originLongitude",
							"type": "int256"
						},
						{
							"internalType": "int256",
							"name": "destinationLatitude",
							"type": "int256"
						},
						{
							"internalType": "int256",
							"name": "destinationLongitude",
							"type": "int256"
						},
						{
							"internalType": "string",
							"name": "originLink",
							"type": "string"
						},
						{
							"internalType": "string",
							"name": "destinationLink",
							"type": "string"
						},
						{
							"internalType": "uint256",
							"name": "cargoInsurableValue",
							"type": "uint256"
						},
						{
							"internalType": "uint256",
							"name": "serviceFee",
							"type": "uint256"
						},
						{
							"internalType": "uint256",
							"name": "serviceFeeByBidder",
							"type": "uint256"
						},
						{
							"internalType": "uint256",
							"name": "requestedPickupTime",
							"type": "uint256"
						},
						{
							"internalType": "uint256",
							"name": "requestedDeliveryTime",
							"type": "uint256"
						},
						{
							"internalType": "uint256",
							"name": "auctionTime",
							"type": "uint256"
						},
						{
							"internalType": "address",
							"name": "driverAssigned",
							"type": "address"
						},
						{
							"internalType": "enum Types.Status",
							"name": "status",
							"type": "uint8"
						}
					],
					"internalType": "struct Types.ServiceRequestInfo",
					"name": "serviceRequestInfo",
					"type": "tuple"
				}
			],
			"name": "saveDisutedServiceRequest",
			"outputs": [],
			"stateMutability": "nonpayable",
			"type": "function"
		},
		{
			"inputs": [
				{
					"internalType": "string",
					"name": "_serviceRequestId",
					"type": "string"
				},
				{
					"internalType": "enum Types.WhomToVote",
					"name": "whomToVote",
					"type": "uint8"
				}
			],
			"name": "vote",
			"outputs": [],
			"stateMutability": "nonpayable",
			"type": "function"
		}
	]
}