{
	"contracts/GeekToken/GeekToken.sol": {
		"GeekToken": {
			"abi": [
				{
					"inputs": [
						{
							"internalType": "address",
							"name": "initialOwner",
							"type": "address"
						}
					],
					"stateMutability": "nonpayable",
					"type": "constructor"
				},
				{
					"inputs": [
						{
							"internalType": "address",
							"name": "spender",
							"type": "address"
						},
						{
							"internalType": "uint256",
							"name": "allowance",
							"type": "uint256"
						},
						{
							"internalType": "uint256",
							"name": "needed",
							"type": "uint256"
						}
					],
					"name": "ERC20InsufficientAllowance",
					"type": "error"
				},
				{
					"inputs": [
						{
							"internalType": "address",
							"name": "sender",
							"type": "address"
						},
						{
							"internalType": "uint256",
							"name": "balance",
							"type": "uint256"
						},
						{
							"internalType": "uint256",
							"name": "needed",
							"type": "uint256"
						}
					],
					"name": "ERC20InsufficientBalance",
					"type": "error"
				},
				{
					"inputs": [
						{
							"internalType": "address",
							"name": "approver",
							"type": "address"
						}
					],
					"name": "ERC20InvalidApprover",
					"type": "error"
				},
				{
					"inputs": [
						{
							"internalType": "address",
							"name": "receiver",
							"type": "address"
						}
					],
					"name": "ERC20InvalidReceiver",
					"type": "error"
				},
				{
					"inputs": [
						{
							"internalType": "address",
							"name": "sender",
							"type": "address"
						}
					],
					"name": "ERC20InvalidSender",
					"type": "error"
				},
				{
					"inputs": [
						{
							"internalType": "address",
							"name": "spender",
							"type": "address"
						}
					],
					"name": "ERC20InvalidSpender",
					"type": "error"
				},
				{
					"inputs": [],
					"name": "EnforcedPause",
					"type": "error"
				},
				{
					"inputs": [],
					"name": "ExpectedPause",
					"type": "error"
				},
				{
					"inputs": [
						{
							"internalType": "address",
							"name": "owner",
							"type": "address"
						}
					],
					"name": "OwnableInvalidOwner",
					"type": "error"
				},
				{
					"inputs": [
						{
							"internalType": "address",
							"name": "account",
							"type": "address"
						}
					],
					"name": "OwnableUnauthorizedAccount",
					"type": "error"
				},
				{
					"anonymous": false,
					"inputs": [
						{
							"indexed": true,
							"internalType": "address",
							"name": "owner",
							"type": "address"
						},
						{
							"indexed": true,
							"internalType": "address",
							"name": "spender",
							"type": "address"
						},
						{
							"indexed": false,
							"internalType": "uint256",
							"name": "value",
							"type": "uint256"
						}
					],
					"name": "Approval",
					"type": "event"
				},
				{
					"anonymous": false,
					"inputs": [
						{
							"indexed": true,
							"internalType": "address",
							"name": "previousOwner",
							"type": "address"
						},
						{
							"indexed": true,
							"internalType": "address",
							"name": "newOwner",
							"type": "address"
						}
					],
					"name": "OwnershipTransferred",
					"type": "event"
				},
				{
					"anonymous": false,
					"inputs": [
						{
							"indexed": false,
							"internalType": "address",
							"name": "account",
							"type": "address"
						}
					],
					"name": "Paused",
					"type": "event"
				},
				{
					"anonymous": false,
					"inputs": [
						{
							"indexed": true,
							"internalType": "address",
							"name": "from",
							"type": "address"
						},
						{
							"indexed": true,
							"internalType": "address",
							"name": "to",
							"type": "address"
						},
						{
							"indexed": false,
							"internalType": "uint256",
							"name": "value",
							"type": "uint256"
						}
					],
					"name": "Transfer",
					"type": "event"
				},
				{
					"anonymous": false,
					"inputs": [
						{
							"indexed": false,
							"internalType": "address",
							"name": "from",
							"type": "address"
						},
						{
							"indexed": false,
							"internalType": "address",
							"name": "to",
							"type": "address"
						},
						{
							"indexed": false,
							"internalType": "uint256",
							"name": "tokens",
							"type": "uint256"
						}
					],
					"name": "TransferedTokens",
					"type": "event"
				},
				{
					"anonymous": false,
					"inputs": [
						{
							"indexed": false,
							"internalType": "address",
							"name": "account",
							"type": "address"
						}
					],
					"name": "Unpaused",
					"type": "event"
				},
				{
					"inputs": [
						{
							"internalType": "address",
							"name": "owner",
							"type": "address"
						},
						{
							"internalType": "address",
							"name": "spender",
							"type": "address"
						}
					],
					"name": "allowance",
					"outputs": [
						{
							"internalType": "uint256",
							"name": "",
							"type": "uint256"
						}
					],
					"stateMutability": "view",
					"type": "function"
				},
				{
					"inputs": [
						{
							"internalType": "address",
							"name": "spender",
							"type": "address"
						},
						{
							"internalType": "uint256",
							"name": "value",
							"type": "uint256"
						}
					],
					"name": "approve",
					"outputs": [
						{
							"internalType": "bool",
							"name": "",
							"type": "bool"
						}
					],
					"stateMutability": "nonpayable",
					"type": "function"
				},
				{
					"inputs": [
						{
							"internalType": "address",
							"name": "account",
							"type": "address"
						}
					],
					"name": "balanceOf",
					"outputs": [
						{
							"internalType": "uint256",
							"name": "",
							"type": "uint256"
						}
					],
					"stateMutability": "view",
					"type": "function"
				},
				{
					"inputs": [
						{
							"internalType": "uint256",
							"name": "value",
							"type": "uint256"
						}
					],
					"name": "burn",
					"outputs": [],
					"stateMutability": "nonpayable",
					"type": "function"
				},
				{
					"inputs": [
						{
							"internalType": "address",
							"name": "account",
							"type": "address"
						},
						{
							"internalType": "uint256",
							"name": "value",
							"type": "uint256"
						}
					],
					"name": "burnFrom",
					"outputs": [],
					"stateMutability": "nonpayable",
					"type": "function"
				},
				{
					"inputs": [],
					"name": "decimals",
					"outputs": [
						{
							"internalType": "uint8",
							"name": "",
							"type": "uint8"
						}
					],
					"stateMutability": "view",
					"type": "function"
				},
				{
					"inputs": [
						{
							"internalType": "address",
							"name": "to",
							"type": "address"
						},
						{
							"internalType": "uint256",
							"name": "amount",
							"type": "uint256"
						}
					],
					"name": "mint",
					"outputs": [],
					"stateMutability": "nonpayable",
					"type": "function"
				},
				{
					"inputs": [],
					"name": "name",
					"outputs": [
						{
							"internalType": "string",
							"name": "",
							"type": "string"
						}
					],
					"stateMutability": "view",
					"type": "function"
				},
				{
					"inputs": [],
					"name": "owner",
					"outputs": [
						{
							"internalType": "address",
							"name": "",
							"type": "address"
						}
					],
					"stateMutability": "view",
					"type": "function"
				},
				{
					"inputs": [],
					"name": "pause",
					"outputs": [],
					"stateMutability": "nonpayable",
					"type": "function"
				},
				{
					"inputs": [],
					"name": "paused",
					"outputs": [
						{
							"internalType": "bool",
							"name": "",
							"type": "bool"
						}
					],
					"stateMutability": "view",
					"type": "function"
				},
				{
					"inputs": [],
					"name": "renounceOwnership",
					"outputs": [],
					"stateMutability": "nonpayable",
					"type": "function"
				},
				{
					"inputs": [],
					"name": "symbol",
					"outputs": [
						{
							"internalType": "string",
							"name": "",
							"type": "string"
						}
					],
					"stateMutability": "view",
					"type": "function"
				},
				{
					"inputs": [],
					"name": "totalSupply",
					"outputs": [
						{
							"internalType": "uint256",
							"name": "",
							"type": "uint256"
						}
					],
					"stateMutability": "view",
					"type": "function"
				},
				{
					"inputs": [
						{
							"internalType": "address",
							"name": "to",
							"type": "address"
						},
						{
							"internalType": "uint256",
							"name": "value",
							"type": "uint256"
						}
					],
					"name": "transfer",
					"outputs": [
						{
							"internalType": "bool",
							"name": "",
							"type": "bool"
						}
					],
					"stateMutability": "nonpayable",
					"type": "function"
				},
				{
					"inputs": [
						{
							"internalType": "address",
							"name": "from",
							"type": "address"
						},
						{
							"internalType": "address",
							"name": "to",
							"type": "address"
						},
						{
							"internalType": "uint256",
							"name": "value",
							"type": "uint256"
						}
					],
					"name": "transferFrom",
					"outputs": [
						{
							"internalType": "bool",
							"name": "",
							"type": "bool"
						}
					],
					"stateMutability": "nonpayable",
					"type": "function"
				},
				{
					"inputs": [
						{
							"internalType": "address",
							"name": "newOwner",
							"type": "address"
						}
					],
					"name": "transferOwnership",
					"outputs": [],
					"stateMutability": "nonpayable",
					"type": "function"
				},
				{
					"inputs": [
						{
							"internalType": "address",
							"name": "to",
							"type": "address"
						},
						{
							"internalType": "uint256",
							"name": "cargoInsurableValue",
							"type": "uint256"
						},
						{
							"internalType": "enum Types.Acceptance",
							"name": "acceptance",
							"type": "uint8"
						}
					],
					"name": "transferTokens",
					"outputs": [],
					"stateMutability": "nonpayable",
					"type": "function"
				},
				{
					"inputs": [],
					"name": "unpause",
					"outputs": [],
					"stateMutability": "nonpayable",
					"type": "function"
				}
			],
			"devdoc": {
				"errors": {
					"ERC20InsufficientAllowance(address,uint256,uint256)": [
						{
							"details": "Indicates a failure with the `spender`’s `allowance`. Used in transfers.",
							"params": {
								"allowance": "Amount of tokens a `spender` is allowed to operate with.",
								"needed": "Minimum amount required to perform a transfer.",
								"spender": "Address that may be allowed to operate on tokens without being their owner."
							}
						}
					],
					"ERC20InsufficientBalance(address,uint256,uint256)": [
						{
							"details": "Indicates an error related to the current `balance` of a `sender`. Used in transfers.",
							"params": {
								"balance": "Current balance for the interacting account.",
								"needed": "Minimum amount required to perform a transfer.",
								"sender": "Address whose tokens are being transferred."
							}
						}
					],
					"ERC20InvalidApprover(address)": [
						{
							"details": "Indicates a failure with the `approver` of a token to be approved. Used in approvals.",
							"params": {
								"approver": "Address initiating an approval operation."
							}
						}
					],
					"ERC20InvalidReceiver(address)": [
						{
							"details": "Indicates a failure with the token `receiver`. Used in transfers.",
							"params": {
								"receiver": "Address to which tokens are being transferred."
							}
						}
					],
					"ERC20InvalidSender(address)": [
						{
							"details": "Indicates a failure with the token `sender`. Used in transfers.",
							"params": {
								"sender": "Address whose tokens are being transferred."
							}
						}
					],
					"ERC20InvalidSpender(address)": [
						{
							"details": "Indicates a failure with the `spender` to be approved. Used in approvals.",
							"params": {
								"spender": "Address that may be allowed to operate on tokens without being their owner."
							}
						}
					],
					"EnforcedPause()": [
						{
							"details": "The operation failed because the contract is paused."
						}
					],
					"ExpectedPause()": [
						{
							"details": "The operation failed because the contract is not paused."
						}
					],
					"OwnableInvalidOwner(address)": [
						{
							"details": "The owner is not a valid owner account. (eg. `address(0)`)"
						}
					],
					"OwnableUnauthorizedAccount(address)": [
						{
							"details": "The caller account is not authorized to perform an operation."
						}
					]
				},
				"events": {
					"Approval(address,address,uint256)": {
						"details": "Emitted when the allowance of a `spender` for an `owner` is set by a call to {approve}. `value` is the new allowance."
					},
					"Paused(address)": {
						"details": "Emitted when the pause is triggered by `account`."
					},
					"Transfer(address,address,uint256)": {
						"details": "Emitted when `value` tokens are moved from one account (`from`) to another (`to`). Note that `value` may be zero."
					},
					"Unpaused(address)": {
						"details": "Emitted when the pause is lifted by `account`."
					}
				},
				"kind": "dev",
				"methods": {
					"allowance(address,address)": {
						"details": "See {IERC20-allowance}."
					},
					"approve(address,uint256)": {
						"details": "See {IERC20-approve}. NOTE: If `value` is the maximum `uint256`, the allowance is not updated on `transferFrom`. This is semantically equivalent to an infinite approval. Requirements: - `spender` cannot be the zero address."
					},
					"balanceOf(address)": {
						"details": "See {IERC20-balanceOf}."
					},
					"burn(uint256)": {
						"details": "Destroys a `value` amount of tokens from the caller. See {ERC20-_burn}."
					},
					"burnFrom(address,uint256)": {
						"details": "Destroys a `value` amount of tokens from `account`, deducting from the caller's allowance. See {ERC20-_burn} and {ERC20-allowance}. Requirements: - the caller must have allowance for ``accounts``'s tokens of at least `value`."
					},
					"decimals()": {
						"details": "Returns the number of decimals used to get its user representation. For example, if `decimals` equals `2`, a balance of `505` tokens should be displayed to a user as `5.05` (`505 / 10 ** 2`). Tokens usually opt for a value of 18, imitating the relationship between Ether and Wei. This is the default value returned by this function, unless it's overridden. NOTE: This information is only used for _display_ purposes: it in no way affects any of the arithmetic of the contract, including {IERC20-balanceOf} and {IERC20-transfer}."
					},
					"name()": {
						"details": "Returns the name of the token."
					},
					"owner()": {
						"details": "Returns the address of the current owner."
					},
					"paused()": {
						"details": "Returns true if the contract is paused, and false otherwise."
					},
					"renounceOwnership()": {
						"details": "Leaves the contract without owner. It will not be possible to call `onlyOwner` functions. Can only be called by the current owner. NOTE: Renouncing ownership will leave the contract without an owner, thereby disabling any functionality that is only available to the owner."
					},
					"symbol()": {
						"details": "Returns the symbol of the token, usually a shorter version of the name."
					},
					"totalSupply()": {
						"details": "See {IERC20-totalSupply}."
					},
					"transfer(address,uint256)": {
						"details": "See {IERC20-transfer}. Requirements: - `to` cannot be the zero address. - the caller must have a balance of at least `value`."
					},
					"transferFrom(address,address,uint256)": {
						"details": "See {IERC20-transferFrom}. Emits an {Approval} event indicating the updated allowance. This is not required by the EIP. See the note at the beginning of {ERC20}. NOTE: Does not update the allowance if the current allowance is the maximum `uint256`. Requirements: - `from` and `to` cannot be the zero address. - `from` must have a balance of at least `value`. - the caller must have allowance for ``from``'s tokens of at least `value`."
					},
					"transferOwnership(address)": {
						"details": "Transfers ownership of the contract to a new account (`newOwner`). Can only be called by the current owner."
					}
				},
				"version": 1
			},
			"evm": {
				"assembly": "    /* \"contracts/GeekToken/GeekToken.sol\":363:2829  contract GeekToken is ERC20, ERC20Burnable, ERC20Pausable, Ownable {... */\n  mstore(0x40, 0x80)\n    /* \"contracts/GeekToken/GeekToken.sol\":483:493  decimals() */\n  tag_1\n    /* \"contracts/GeekToken/GeekToken.sol\":483:491  decimals */\n  shl(0x20, tag_2)\n    /* \"contracts/GeekToken/GeekToken.sol\":483:493  decimals() */\n  0x20\n  shr\n  jump\t// in\ntag_1:\n    /* \"contracts/GeekToken/GeekToken.sol\":477:479  10 */\n  0x0a\n    /* \"contracts/GeekToken/GeekToken.sol\":477:493  10 ** decimals() */\n  tag_3\n  swap2\n  swap1\n  tag_4\n  jump\t// in\ntag_3:\n    /* \"contracts/GeekToken/GeekToken.sol\":465:473  10000000 */\n  0x989680\n    /* \"contracts/GeekToken/GeekToken.sol\":465:494  10000000 * (10 ** decimals()) */\n  tag_5\n  swap2\n  swap1\n  tag_6\n  jump\t// in\ntag_5:\n    /* \"contracts/GeekToken/GeekToken.sol\":436:494  uint256 internal maxSupply = 10000000 * (10 ** decimals()) */\n  0x06\n  sstore\n    /* \"contracts/GeekToken/GeekToken.sol\":528:718  constructor(address initialOwner)... */\n  callvalue\n  dup1\n  iszero\n  tag_7\n  jumpi\n  0x00\n  dup1\n  revert\ntag_7:\n  pop\n  mload(0x40)\n  sub(codesize, bytecodeSize)\n  dup1\n  bytecodeSize\n  dup4\n  codecopy\n  dup2\n  dup2\n  add\n  0x40\n  mstore\n  dup2\n  add\n  swap1\n  tag_8\n  swap2\n  swap1\n  tag_9\n  jump\t// in\ntag_8:\n    /* \"contracts/GeekToken/GeekToken.sol\":612:624  initialOwner */\n  dup1\n    /* \"@openzeppelin/contracts/token/ERC20/ERC20.sol\":1896:2009  constructor(string memory name_, string memory symbol_) {... */\n  mload(0x40)\n  dup1\n  0x40\n  add\n  0x40\n  mstore\n  dup1\n  0x09\n  dup2\n  mstore\n  0x20\n  add\n  0x4765656b546f6b656e0000000000000000000000000000000000000000000000\n  dup2\n  mstore\n  pop\n  mload(0x40)\n  dup1\n  0x40\n  add\n  0x40\n  mstore\n  dup1\n  0x03\n  dup2\n  mstore\n  0x20\n  add\n  0x47544b0000000000000000000000000000000000000000000000000000000000\n  dup2\n  mstore\n  pop\n    /* \"@openzeppelin/contracts/token/ERC20/ERC20.sol\":1970:1975  name_ */\n  dup2\n    /* \"@openzeppelin/contracts/token/ERC20/ERC20.sol\":1962:1967  _name */\n  0x03\n    /* \"@openzeppelin/contracts/token/ERC20/ERC20.sol\":1962:1975  _name = name_ */\n  swap1\n  dup2\n  tag_15\n  swap2\n  swap1\n  tag_16\n  jump\t// in\ntag_15:\n  pop\n    /* \"@openzeppelin/contracts/token/ERC20/ERC20.sol\":1995:2002  symbol_ */\n  dup1\n    /* \"@openzeppelin/contracts/token/ERC20/ERC20.sol\":1985:1992  _symbol */\n  0x04\n    /* \"@openzeppelin/contracts/token/ERC20/ERC20.sol\":1985:2002  _symbol = symbol_ */\n  swap1\n  dup2\n  tag_17\n  swap2\n  swap1\n  tag_16\n  jump\t// in\ntag_17:\n  pop\n    /* \"@openzeppelin/contracts/token/ERC20/ERC20.sol\":1896:2009  constructor(string memory name_, string memory symbol_) {... */\n  pop\n  pop\n    /* \"@openzeppelin/contracts/utils/Pausable.sol\":1241:1246  false */\n  0x00\n    /* \"@openzeppelin/contracts/utils/Pausable.sol\":1231:1238  _paused */\n  0x05\n  0x00\n    /* \"@openzeppelin/contracts/utils/Pausable.sol\":1231:1246  _paused = false */\n  0x0100\n  exp\n  dup2\n  sload\n  dup2\n  0xff\n  mul\n  not\n  and\n  swap1\n  dup4\n  iszero\n  iszero\n  mul\n  or\n  swap1\n  sstore\n  pop\n    /* \"@openzeppelin/contracts/access/Ownable.sol\":1297:1298  0 */\n  0x00\n    /* \"@openzeppelin/contracts/access/Ownable.sol\":1273:1299  initialOwner == address(0) */\n  0xffffffffffffffffffffffffffffffffffffffff\n  and\n    /* \"@openzeppelin/contracts/access/Ownable.sol\":1273:1285  initialOwner */\n  dup2\n    /* \"@openzeppelin/contracts/access/Ownable.sol\":1273:1299  initialOwner == address(0) */\n  0xffffffffffffffffffffffffffffffffffffffff\n  and\n  sub\n    /* \"@openzeppelin/contracts/access/Ownable.sol\":1269:1364  if (initialOwner == address(0)) {... */\n  tag_20\n  jumpi\n    /* \"@openzeppelin/contracts/access/Ownable.sol\":1350:1351  0 */\n  0x00\n    /* \"@openzeppelin/contracts/access/Ownable.sol\":1322:1353  OwnableInvalidOwner(address(0)) */\n  mload(0x40)\n  0x1e4fbdf700000000000000000000000000000000000000000000000000000000\n  dup2\n  mstore\n  0x04\n  add\n  tag_21\n  swap2\n  swap1\n  tag_22\n  jump\t// in\ntag_21:\n  mload(0x40)\n  dup1\n  swap2\n  sub\n  swap1\n  revert\n    /* \"@openzeppelin/contracts/access/Ownable.sol\":1269:1364  if (initialOwner == address(0)) {... */\ntag_20:\n    /* \"@openzeppelin/contracts/access/Ownable.sol\":1373:1405  _transferOwnership(initialOwner) */\n  tag_23\n    /* \"@openzeppelin/contracts/access/Ownable.sol\":1392:1404  initialOwner */\n  dup2\n    /* \"@openzeppelin/contracts/access/Ownable.sol\":1373:1391  _transferOwnership */\n  shl(0x20, tag_24)\n    /* \"@openzeppelin/contracts/access/Ownable.sol\":1373:1405  _transferOwnership(initialOwner) */\n  0x20\n  shr\n  jump\t// in\ntag_23:\n    /* \"@openzeppelin/contracts/access/Ownable.sol\":1225:1412  constructor(address initialOwner) {... */\n  pop\n    /* \"contracts/GeekToken/GeekToken.sol\":640:685  _mint(msg.sender, 2500000 * 10 ** decimals()) */\n  tag_26\n    /* \"contracts/GeekToken/GeekToken.sol\":646:656  msg.sender */\n  caller\n    /* \"contracts/GeekToken/GeekToken.sol\":674:684  decimals() */\n  tag_27\n    /* \"contracts/GeekToken/GeekToken.sol\":674:682  decimals */\n  shl(0x20, tag_2)\n    /* \"contracts/GeekToken/GeekToken.sol\":674:684  decimals() */\n  0x20\n  shr\n  jump\t// in\ntag_27:\n    /* \"contracts/GeekToken/GeekToken.sol\":668:670  10 */\n  0x0a\n    /* \"contracts/GeekToken/GeekToken.sol\":668:684  10 ** decimals() */\n  tag_28\n  swap2\n  swap1\n  tag_4\n  jump\t// in\ntag_28:\n    /* \"contracts/GeekToken/GeekToken.sol\":658:665  2500000 */\n  0x2625a0\n    /* \"contracts/GeekToken/GeekToken.sol\":658:684  2500000 * 10 ** decimals() */\n  tag_29\n  swap2\n  swap1\n  tag_6\n  jump\t// in\ntag_29:\n    /* \"contracts/GeekToken/GeekToken.sol\":640:645  _mint */\n  shl(0x20, tag_30)\n    /* \"contracts/GeekToken/GeekToken.sol\":640:685  _mint(msg.sender, 2500000 * 10 ** decimals()) */\n  0x20\n  shr\n  jump\t// in\ntag_26:\n    /* \"contracts/GeekToken/GeekToken.sol\":528:718  constructor(address initialOwner)... */\n  pop\n    /* \"contracts/GeekToken/GeekToken.sol\":363:2829  contract GeekToken is ERC20, ERC20Burnable, ERC20Pausable, Ownable {... */\n  jump(tag_31)\n    /* \"@openzeppelin/contracts/token/ERC20/ERC20.sol\":3002:3084  function decimals() public view virtual returns (uint8) {... */\ntag_2:\n    /* \"@openzeppelin/contracts/token/ERC20/ERC20.sol\":3051:3056  uint8 */\n  0x00\n    /* \"@openzeppelin/contracts/token/ERC20/ERC20.sol\":3075:3077  18 */\n  0x12\n    /* \"@openzeppelin/contracts/token/ERC20/ERC20.sol\":3068:3077  return 18 */\n  swap1\n  pop\n    /* \"@openzeppelin/contracts/token/ERC20/ERC20.sol\":3002:3084  function decimals() public view virtual returns (uint8) {... */\n  swap1\n  jump\t// out\n    /* \"@openzeppelin/contracts/access/Ownable.sol\":2912:3099  function _transferOwnership(address newOwner) internal virtual {... */\ntag_24:\n    /* \"@openzeppelin/contracts/access/Ownable.sol\":2985:3001  address oldOwner */\n  0x00\n    /* \"@openzeppelin/contracts/access/Ownable.sol\":3004:3010  _owner */\n  0x05\n  0x01\n  swap1\n  sload\n  swap1\n  0x0100\n  exp\n  swap1\n  div\n  0xffffffffffffffffffffffffffffffffffffffff\n  and\n    /* \"@openzeppelin/contracts/access/Ownable.sol\":2985:3010  address oldOwner = _owner */\n  swap1\n  pop\n    /* \"@openzeppelin/contracts/access/Ownable.sol\":3029:3037  newOwner */\n  dup2\n    /* \"@openzeppelin/contracts/access/Ownable.sol\":3020:3026  _owner */\n  0x05\n  0x01\n    /* \"@openzeppelin/contracts/access/Ownable.sol\":3020:3037  _owner = newOwner */\n  0x0100\n  exp\n  dup2\n  sload\n  dup2\n  0xffffffffffffffffffffffffffffffffffffffff\n  mul\n  not\n  and\n  swap1\n  dup4\n  0xffffffffffffffffffffffffffffffffffffffff\n  and\n  mul\n  or\n  swap1\n  sstore\n  pop\n    /* \"@openzeppelin/contracts/access/Ownable.sol\":3083:3091  newOwner */\n  dup2\n    /* \"@openzeppelin/contracts/access/Ownable.sol\":3052:3092  OwnershipTransferred(oldOwner, newOwner) */\n  0xffffffffffffffffffffffffffffffffffffffff\n  and\n    /* \"@openzeppelin/contracts/access/Ownable.sol\":3073:3081  oldOwner */\n  dup2\n    /* \"@openzeppelin/contracts/access/Ownable.sol\":3052:3092  OwnershipTransferred(oldOwner, newOwner) */\n  0xffffffffffffffffffffffffffffffffffffffff\n  and\n  0x8be0079c531659141344cd1fd0a4f28419497f9722a3daafe3b4186f6b6457e0\n  mload(0x40)\n  mload(0x40)\n  dup1\n  swap2\n  sub\n  swap1\n  log3\n    /* \"@openzeppelin/contracts/access/Ownable.sol\":2975:3099  {... */\n  pop\n    /* \"@openzeppelin/contracts/access/Ownable.sol\":2912:3099  function _transferOwnership(address newOwner) internal virtual {... */\n  pop\n  jump\t// out\n    /* \"@openzeppelin/contracts/token/ERC20/ERC20.sol\":7721:7929  function _mint(address account, uint256 value) internal {... */\ntag_30:\n    /* \"@openzeppelin/contracts/token/ERC20/ERC20.sol\":7810:7811  0 */\n  0x00\n    /* \"@openzeppelin/contracts/token/ERC20/ERC20.sol\":7791:7812  account == address(0) */\n  0xffffffffffffffffffffffffffffffffffffffff\n  and\n    /* \"@openzeppelin/contracts/token/ERC20/ERC20.sol\":7791:7798  account */\n  dup3\n    /* \"@openzeppelin/contracts/token/ERC20/ERC20.sol\":7791:7812  account == address(0) */\n  0xffffffffffffffffffffffffffffffffffffffff\n  and\n  sub\n    /* \"@openzeppelin/contracts/token/ERC20/ERC20.sol\":7787:7878  if (account == address(0)) {... */\n  tag_35\n  jumpi\n    /* \"@openzeppelin/contracts/token/ERC20/ERC20.sol\":7864:7865  0 */\n  0x00\n    /* \"@openzeppelin/contracts/token/ERC20/ERC20.sol\":7835:7867  ERC20InvalidReceiver(address(0)) */\n  mload(0x40)\n  0xec442f0500000000000000000000000000000000000000000000000000000000\n  dup2\n  mstore\n  0x04\n  add\n  tag_36\n  swap2\n  swap1\n  tag_22\n  jump\t// in\ntag_36:\n  mload(0x40)\n  dup1\n  swap2\n  sub\n  swap1\n  revert\n    /* \"@openzeppelin/contracts/token/ERC20/ERC20.sol\":7787:7878  if (account == address(0)) {... */\ntag_35:\n    /* \"@openzeppelin/contracts/token/ERC20/ERC20.sol\":7887:7922  _update(address(0), account, value) */\n  tag_37\n    /* \"@openzeppelin/contracts/token/ERC20/ERC20.sol\":7903:7904  0 */\n  0x00\n    /* \"@openzeppelin/contracts/token/ERC20/ERC20.sol\":7907:7914  account */\n  dup4\n    /* \"@openzeppelin/contracts/token/ERC20/ERC20.sol\":7916:7921  value */\n  dup4\n    /* \"@openzeppelin/contracts/token/ERC20/ERC20.sol\":7887:7894  _update */\n  shl(0x20, tag_38)\n    /* \"@openzeppelin/contracts/token/ERC20/ERC20.sol\":7887:7922  _update(address(0), account, value) */\n  0x20\n  shr\n  jump\t// in\ntag_37:\n    /* \"@openzeppelin/contracts/token/ERC20/ERC20.sol\":7721:7929  function _mint(address account, uint256 value) internal {... */\n  pop\n  pop\n  jump\t// out\n    /* \"contracts/GeekToken/GeekToken.sol\":1094:1259  function _update(address from, address to, uint256 value)... */\ntag_38:\n    /* \"contracts/GeekToken/GeekToken.sol\":1222:1252  super._update(from, to, value) */\n  tag_40\n    /* \"contracts/GeekToken/GeekToken.sol\":1236:1240  from */\n  dup4\n    /* \"contracts/GeekToken/GeekToken.sol\":1242:1244  to */\n  dup4\n    /* \"contracts/GeekToken/GeekToken.sol\":1246:1251  value */\n  dup4\n    /* \"contracts/GeekToken/GeekToken.sol\":1222:1235  super._update */\n  shl(0x20, tag_41)\n    /* \"contracts/GeekToken/GeekToken.sol\":1222:1252  super._update(from, to, value) */\n  0x20\n  shr\n  jump\t// in\ntag_40:\n    /* \"contracts/GeekToken/GeekToken.sol\":1094:1259  function _update(address from, address to, uint256 value)... */\n  pop\n  pop\n  pop\n  jump\t// out\n    /* \"@openzeppelin/contracts/token/ERC20/extensions/ERC20Pausable.sol\":1112:1257  function _update(address from, address to, uint256 value) internal virtual override whenNotPaused {... */\ntag_41:\n    /* \"@openzeppelin/contracts/utils/Pausable.sol\":1474:1493  _requireNotPaused() */\n  tag_43\n    /* \"@openzeppelin/contracts/utils/Pausable.sol\":1474:1491  _requireNotPaused */\n  shl(0x20, tag_44)\n    /* \"@openzeppelin/contracts/utils/Pausable.sol\":1474:1493  _requireNotPaused() */\n  0x20\n  shr\n  jump\t// in\ntag_43:\n    /* \"@openzeppelin/contracts/token/ERC20/extensions/ERC20Pausable.sol\":1220:1250  super._update(from, to, value) */\n  tag_46\n    /* \"@openzeppelin/contracts/token/ERC20/extensions/ERC20Pausable.sol\":1234:1238  from */\n  dup4\n    /* \"@openzeppelin/contracts/token/ERC20/extensions/ERC20Pausable.sol\":1240:1242  to */\n  dup4\n    /* \"@openzeppelin/contracts/token/ERC20/extensions/ERC20Pausable.sol\":1244:1249  value */\n  dup4\n    /* \"@openzeppelin/contracts/token/ERC20/extensions/ERC20Pausable.sol\":1220:1233  super._update */\n  shl(0x20, tag_47)\n    /* \"@openzeppelin/contracts/token/ERC20/extensions/ERC20Pausable.sol\":1220:1250  super._update(from, to, value) */\n  0x20\n  shr\n  jump\t// in\ntag_46:\n    /* \"@openzeppelin/contracts/token/ERC20/extensions/ERC20Pausable.sol\":1112:1257  function _update(address from, address to, uint256 value) internal virtual override whenNotPaused {... */\n  pop\n  pop\n  pop\n  jump\t// out\n    /* \"@openzeppelin/contracts/utils/Pausable.sol\":2002:2130  function _requireNotPaused() internal view virtual {... */\ntag_44:\n    /* \"@openzeppelin/contracts/utils/Pausable.sol\":2067:2075  paused() */\n  tag_49\n    /* \"@openzeppelin/contracts/utils/Pausable.sol\":2067:2073  paused */\n  shl(0x20, tag_50)\n    /* \"@openzeppelin/contracts/utils/Pausable.sol\":2067:2075  paused() */\n  0x20\n  shr\n  jump\t// in\ntag_49:\n    /* \"@openzeppelin/contracts/utils/Pausable.sol\":2063:2124  if (paused()) {... */\n  iszero\n  tag_51\n  jumpi\n    /* \"@openzeppelin/contracts/utils/Pausable.sol\":2098:2113  EnforcedPause() */\n  mload(0x40)\n  0xd93c066500000000000000000000000000000000000000000000000000000000\n  dup2\n  mstore\n  0x04\n  add\n  mload(0x40)\n  dup1\n  swap2\n  sub\n  swap1\n  revert\n    /* \"@openzeppelin/contracts/utils/Pausable.sol\":2063:2124  if (paused()) {... */\ntag_51:\n    /* \"@openzeppelin/contracts/utils/Pausable.sol\":2002:2130  function _requireNotPaused() internal view virtual {... */\n  jump\t// out\n    /* \"@openzeppelin/contracts/token/ERC20/ERC20.sol\":6271:7378  function _update(address from, address to, uint256 value) internal virtual {... */\ntag_47:\n    /* \"@openzeppelin/contracts/token/ERC20/ERC20.sol\":6376:6377  0 */\n  0x00\n    /* \"@openzeppelin/contracts/token/ERC20/ERC20.sol\":6360:6378  from == address(0) */\n  0xffffffffffffffffffffffffffffffffffffffff\n  and\n    /* \"@openzeppelin/contracts/token/ERC20/ERC20.sol\":6360:6364  from */\n  dup4\n    /* \"@openzeppelin/contracts/token/ERC20/ERC20.sol\":6360:6378  from == address(0) */\n  0xffffffffffffffffffffffffffffffffffffffff\n  and\n  sub\n    /* \"@openzeppelin/contracts/token/ERC20/ERC20.sol\":6356:6896  if (from == address(0)) {... */\n  tag_53\n  jumpi\n    /* \"@openzeppelin/contracts/token/ERC20/ERC20.sol\":6512:6517  value */\n  dup1\n    /* \"@openzeppelin/contracts/token/ERC20/ERC20.sol\":6496:6508  _totalSupply */\n  0x02\n  0x00\n    /* \"@openzeppelin/contracts/token/ERC20/ERC20.sol\":6496:6517  _totalSupply += value */\n  dup3\n  dup3\n  sload\n  tag_54\n  swap2\n  swap1\n  tag_55\n  jump\t// in\ntag_54:\n  swap3\n  pop\n  pop\n  dup2\n  swap1\n  sstore\n  pop\n    /* \"@openzeppelin/contracts/token/ERC20/ERC20.sol\":6356:6896  if (from == address(0)) {... */\n  jump(tag_56)\ntag_53:\n    /* \"@openzeppelin/contracts/token/ERC20/ERC20.sol\":6548:6567  uint256 fromBalance */\n  0x00\n    /* \"@openzeppelin/contracts/token/ERC20/ERC20.sol\":6570:6579  _balances */\n  dup1\n    /* \"@openzeppelin/contracts/token/ERC20/ERC20.sol\":6570:6585  _balances[from] */\n  0x00\n    /* \"@openzeppelin/contracts/token/ERC20/ERC20.sol\":6580:6584  from */\n  dup6\n    /* \"@openzeppelin/contracts/token/ERC20/ERC20.sol\":6570:6585  _balances[from] */\n  0xffffffffffffffffffffffffffffffffffffffff\n  and\n  0xffffffffffffffffffffffffffffffffffffffff\n  and\n  dup2\n  mstore\n  0x20\n  add\n  swap1\n  dup2\n  mstore\n  0x20\n  add\n  0x00\n  keccak256\n  sload\n    /* \"@openzeppelin/contracts/token/ERC20/ERC20.sol\":6548:6585  uint256 fromBalance = _balances[from] */\n  swap1\n  pop\n    /* \"@openzeppelin/contracts/token/ERC20/ERC20.sol\":6617:6622  value */\n  dup2\n    /* \"@openzeppelin/contracts/token/ERC20/ERC20.sol\":6603:6614  fromBalance */\n  dup2\n    /* \"@openzeppelin/contracts/token/ERC20/ERC20.sol\":6603:6622  fromBalance < value */\n  lt\n    /* \"@openzeppelin/contracts/token/ERC20/ERC20.sol\":6599:6714  if (fromBalance < value) {... */\n  iszero\n  tag_57\n  jumpi\n    /* \"@openzeppelin/contracts/token/ERC20/ERC20.sol\":6674:6678  from */\n  dup4\n    /* \"@openzeppelin/contracts/token/ERC20/ERC20.sol\":6680:6691  fromBalance */\n  dup2\n    /* \"@openzeppelin/contracts/token/ERC20/ERC20.sol\":6693:6698  value */\n  dup4\n    /* \"@openzeppelin/contracts/token/ERC20/ERC20.sol\":6649:6699  ERC20InsufficientBalance(from, fromBalance, value) */\n  mload(0x40)\n  0xe450d38c00000000000000000000000000000000000000000000000000000000\n  dup2\n  mstore\n  0x04\n  add\n  tag_58\n  swap4\n  swap3\n  swap2\n  swap1\n  tag_59\n  jump\t// in\ntag_58:\n  mload(0x40)\n  dup1\n  swap2\n  sub\n  swap1\n  revert\n    /* \"@openzeppelin/contracts/token/ERC20/ERC20.sol\":6599:6714  if (fromBalance < value) {... */\ntag_57:\n    /* \"@openzeppelin/contracts/token/ERC20/ERC20.sol\":6866:6871  value */\n  dup2\n    /* \"@openzeppelin/contracts/token/ERC20/ERC20.sol\":6852:6863  fromBalance */\n  dup2\n    /* \"@openzeppelin/contracts/token/ERC20/ERC20.sol\":6852:6871  fromBalance - value */\n  sub\n    /* \"@openzeppelin/contracts/token/ERC20/ERC20.sol\":6834:6843  _balances */\n  0x00\n    /* \"@openzeppelin/contracts/token/ERC20/ERC20.sol\":6834:6849  _balances[from] */\n  dup1\n    /* \"@openzeppelin/contracts/token/ERC20/ERC20.sol\":6844:6848  from */\n  dup7\n    /* \"@openzeppelin/contracts/token/ERC20/ERC20.sol\":6834:6849  _balances[from] */\n  0xffffffffffffffffffffffffffffffffffffffff\n  and\n  0xffffffffffffffffffffffffffffffffffffffff\n  and\n  dup2\n  mstore\n  0x20\n  add\n  swap1\n  dup2\n  mstore\n  0x20\n  add\n  0x00\n  keccak256\n    /* \"@openzeppelin/contracts/token/ERC20/ERC20.sol\":6834:6871  _balances[from] = fromBalance - value */\n  dup2\n  swap1\n  sstore\n  pop\n    /* \"@openzeppelin/contracts/token/ERC20/ERC20.sol\":6534:6896  {... */\n  pop\n    /* \"@openzeppelin/contracts/token/ERC20/ERC20.sol\":6356:6896  if (from == address(0)) {... */\ntag_56:\n    /* \"@openzeppelin/contracts/token/ERC20/ERC20.sol\":6924:6925  0 */\n  0x00\n    /* \"@openzeppelin/contracts/token/ERC20/ERC20.sol\":6910:6926  to == address(0) */\n  0xffffffffffffffffffffffffffffffffffffffff\n  and\n    /* \"@openzeppelin/contracts/token/ERC20/ERC20.sol\":6910:6912  to */\n  dup3\n    /* \"@openzeppelin/contracts/token/ERC20/ERC20.sol\":6910:6926  to == address(0) */\n  0xffffffffffffffffffffffffffffffffffffffff\n  and\n  sub\n    /* \"@openzeppelin/contracts/token/ERC20/ERC20.sol\":6906:7331  if (to == address(0)) {... */\n  tag_60\n  jumpi\n    /* \"@openzeppelin/contracts/token/ERC20/ERC20.sol\":7089:7094  value */\n  dup1\n    /* \"@openzeppelin/contracts/token/ERC20/ERC20.sol\":7073:7085  _totalSupply */\n  0x02\n  0x00\n    /* \"@openzeppelin/contracts/token/ERC20/ERC20.sol\":7073:7094  _totalSupply -= value */\n  dup3\n  dup3\n  sload\n  sub\n  swap3\n  pop\n  pop\n  dup2\n  swap1\n  sstore\n  pop\n    /* \"@openzeppelin/contracts/token/ERC20/ERC20.sol\":6906:7331  if (to == address(0)) {... */\n  jump(tag_61)\ntag_60:\n    /* \"@openzeppelin/contracts/token/ERC20/ERC20.sol\":7301:7306  value */\n  dup1\n    /* \"@openzeppelin/contracts/token/ERC20/ERC20.sol\":7284:7293  _balances */\n  0x00\n    /* \"@openzeppelin/contracts/token/ERC20/ERC20.sol\":7284:7297  _balances[to] */\n  dup1\n    /* \"@openzeppelin/contracts/token/ERC20/ERC20.sol\":7294:7296  to */\n  dup5\n    /* \"@openzeppelin/contracts/token/ERC20/ERC20.sol\":7284:7297  _balances[to] */\n  0xffffffffffffffffffffffffffffffffffffffff\n  and\n  0xffffffffffffffffffffffffffffffffffffffff\n  and\n  dup2\n  mstore\n  0x20\n  add\n  swap1\n  dup2\n  mstore\n  0x20\n  add\n  0x00\n  keccak256\n  0x00\n    /* \"@openzeppelin/contracts/token/ERC20/ERC20.sol\":7284:7306  _balances[to] += value */\n  dup3\n  dup3\n  sload\n  add\n  swap3\n  pop\n  pop\n  dup2\n  swap1\n  sstore\n  pop\n    /* \"@openzeppelin/contracts/token/ERC20/ERC20.sol\":6906:7331  if (to == address(0)) {... */\ntag_61:\n    /* \"@openzeppelin/contracts/token/ERC20/ERC20.sol\":7361:7363  to */\n  dup2\n    /* \"@openzeppelin/contracts/token/ERC20/ERC20.sol\":7346:7371  Transfer(from, to, value) */\n  0xffffffffffffffffffffffffffffffffffffffff\n  and\n    /* \"@openzeppelin/contracts/token/ERC20/ERC20.sol\":7355:7359  from */\n  dup4\n    /* \"@openzeppelin/contracts/token/ERC20/ERC20.sol\":7346:7371  Transfer(from, to, value) */\n  0xffffffffffffffffffffffffffffffffffffffff\n  and\n  0xddf252ad1be2c89b69c2b068fc378daa952ba7f163c4a11628f55a4df523b3ef\n    /* \"@openzeppelin/contracts/token/ERC20/ERC20.sol\":7365:7370  value */\n  dup4\n    /* \"@openzeppelin/contracts/token/ERC20/ERC20.sol\":7346:7371  Transfer(from, to, value) */\n  mload(0x40)\n  tag_62\n  swap2\n  swap1\n  tag_63\n  jump\t// in\ntag_62:\n  mload(0x40)\n  dup1\n  swap2\n  sub\n  swap1\n  log3\n    /* \"@openzeppelin/contracts/token/ERC20/ERC20.sol\":6271:7378  function _update(address from, address to, uint256 value) internal virtual {... */\n  pop\n  pop\n  pop\n  jump\t// out\n    /* \"@openzeppelin/contracts/utils/Pausable.sol\":1850:1934  function paused() public view virtual returns (bool) {... */\ntag_50:\n    /* \"@openzeppelin/contracts/utils/Pausable.sol\":1897:1901  bool */\n  0x00\n    /* \"@openzeppelin/contracts/utils/Pausable.sol\":1920:1927  _paused */\n  0x05\n  0x00\n  swap1\n  sload\n  swap1\n  0x0100\n  exp\n  swap1\n  div\n  0xff\n  and\n    /* \"@openzeppelin/contracts/utils/Pausable.sol\":1913:1927  return _paused */\n  swap1\n  pop\n    /* \"@openzeppelin/contracts/utils/Pausable.sol\":1850:1934  function paused() public view virtual returns (bool) {... */\n  swap1\n  jump\t// out\n    /* \"#utility.yul\":7:187   */\ntag_65:\n    /* \"#utility.yul\":55:132   */\n  0x4e487b7100000000000000000000000000000000000000000000000000000000\n    /* \"#utility.yul\":52:53   */\n  0x00\n    /* \"#utility.yul\":45:133   */\n  mstore\n    /* \"#utility.yul\":152:156   */\n  0x11\n    /* \"#utility.yul\":149:150   */\n  0x04\n    /* \"#utility.yul\":142:157   */\n  mstore\n    /* \"#utility.yul\":176:180   */\n  0x24\n    /* \"#utility.yul\":173:174   */\n  0x00\n    /* \"#utility.yul\":166:181   */\n  revert\n    /* \"#utility.yul\":193:295   */\ntag_66:\n    /* \"#utility.yul\":235:243   */\n  0x00\n    /* \"#utility.yul\":282:287   */\n  dup2\n    /* \"#utility.yul\":279:280   */\n  0x01\n    /* \"#utility.yul\":275:288   */\n  shr\n    /* \"#utility.yul\":254:288   */\n  swap1\n  pop\n    /* \"#utility.yul\":193:295   */\n  swap2\n  swap1\n  pop\n  jump\t// out\n    /* \"#utility.yul\":301:1149   */\ntag_67:\n    /* \"#utility.yul\":362:367   */\n  0x00\n    /* \"#utility.yul\":369:373   */\n  dup1\n    /* \"#utility.yul\":393:399   */\n  dup3\n    /* \"#utility.yul\":384:399   */\n  swap2\n  pop\n    /* \"#utility.yul\":417:422   */\n  dup4\n    /* \"#utility.yul\":408:422   */\n  swap1\n  pop\n    /* \"#utility.yul\":431:1143   */\ntag_103:\n    /* \"#utility.yul\":452:453   */\n  0x01\n    /* \"#utility.yul\":442:450   */\n  dup6\n    /* \"#utility.yul\":439:454   */\n  gt\n    /* \"#utility.yul\":431:1143   */\n  iszero\n  tag_105\n  jumpi\n    /* \"#utility.yul\":547:551   */\n  dup1\n    /* \"#utility.yul\":542:545   */\n  dup7\n    /* \"#utility.yul\":538:552   */\n  div\n    /* \"#utility.yul\":532:536   */\n  dup2\n    /* \"#utility.yul\":529:553   */\n  gt\n    /* \"#utility.yul\":526:576   */\n  iszero\n  tag_106\n  jumpi\n    /* \"#utility.yul\":556:574   */\n  tag_107\n  tag_65\n  jump\t// in\ntag_107:\n    /* \"#utility.yul\":526:576   */\ntag_106:\n    /* \"#utility.yul\":606:607   */\n  0x01\n    /* \"#utility.yul\":596:604   */\n  dup6\n    /* \"#utility.yul\":592:608   */\n  and\n    /* \"#utility.yul\":589:1040   */\n  iszero\n  tag_108\n  jumpi\n    /* \"#utility.yul\":1021:1025   */\n  dup1\n    /* \"#utility.yul\":1014:1019   */\n  dup3\n    /* \"#utility.yul\":1010:1026   */\n  mul\n    /* \"#utility.yul\":1001:1026   */\n  swap2\n  pop\n    /* \"#utility.yul\":589:1040   */\ntag_108:\n    /* \"#utility.yul\":1071:1075   */\n  dup1\n    /* \"#utility.yul\":1065:1069   */\n  dup2\n    /* \"#utility.yul\":1061:1076   */\n  mul\n    /* \"#utility.yul\":1053:1076   */\n  swap1\n  pop\n    /* \"#utility.yul\":1101:1133   */\n  tag_109\n    /* \"#utility.yul\":1124:1132   */\n  dup6\n    /* \"#utility.yul\":1101:1133   */\n  tag_66\n  jump\t// in\ntag_109:\n    /* \"#utility.yul\":1089:1133   */\n  swap5\n  pop\n    /* \"#utility.yul\":431:1143   */\n  jump(tag_103)\ntag_105:\n    /* \"#utility.yul\":301:1149   */\n  swap5\n  pop\n  swap5\n  swap3\n  pop\n  pop\n  pop\n  jump\t// out\n    /* \"#utility.yul\":1155:2228   */\ntag_68:\n    /* \"#utility.yul\":1209:1214   */\n  0x00\n    /* \"#utility.yul\":1400:1408   */\n  dup3\n    /* \"#utility.yul\":1390:1430   */\n  tag_111\n  jumpi\n    /* \"#utility.yul\":1421:1422   */\n  0x01\n    /* \"#utility.yul\":1412:1422   */\n  swap1\n  pop\n    /* \"#utility.yul\":1423:1428   */\n  jump(tag_110)\n    /* \"#utility.yul\":1390:1430   */\ntag_111:\n    /* \"#utility.yul\":1449:1453   */\n  dup2\n    /* \"#utility.yul\":1439:1475   */\n  tag_112\n  jumpi\n    /* \"#utility.yul\":1466:1467   */\n  0x00\n    /* \"#utility.yul\":1457:1467   */\n  swap1\n  pop\n    /* \"#utility.yul\":1468:1473   */\n  jump(tag_110)\n    /* \"#utility.yul\":1439:1475   */\ntag_112:\n    /* \"#utility.yul\":1535:1539   */\n  dup2\n    /* \"#utility.yul\":1583:1584   */\n  0x01\n    /* \"#utility.yul\":1578:1605   */\n  dup2\n  eq\n  tag_114\n  jumpi\n    /* \"#utility.yul\":1619:1620   */\n  0x02\n    /* \"#utility.yul\":1614:1805   */\n  dup2\n  eq\n  tag_115\n  jumpi\n    /* \"#utility.yul\":1528:1805   */\n  jump(tag_113)\n    /* \"#utility.yul\":1578:1605   */\ntag_114:\n    /* \"#utility.yul\":1596:1597   */\n  0x01\n    /* \"#utility.yul\":1587:1597   */\n  swap2\n  pop\n    /* \"#utility.yul\":1598:1603   */\n  pop\n  jump(tag_110)\n    /* \"#utility.yul\":1614:1805   */\ntag_115:\n    /* \"#utility.yul\":1659:1662   */\n  0xff\n    /* \"#utility.yul\":1649:1657   */\n  dup5\n    /* \"#utility.yul\":1646:1663   */\n  gt\n    /* \"#utility.yul\":1643:1686   */\n  iszero\n  tag_116\n  jumpi\n    /* \"#utility.yul\":1666:1684   */\n  tag_117\n  tag_65\n  jump\t// in\ntag_117:\n    /* \"#utility.yul\":1643:1686   */\ntag_116:\n    /* \"#utility.yul\":1715:1723   */\n  dup4\n    /* \"#utility.yul\":1712:1713   */\n  0x02\n    /* \"#utility.yul\":1708:1724   */\n  exp\n    /* \"#utility.yul\":1699:1724   */\n  swap2\n  pop\n    /* \"#utility.yul\":1750:1753   */\n  dup5\n    /* \"#utility.yul\":1743:1748   */\n  dup3\n    /* \"#utility.yul\":1740:1754   */\n  gt\n    /* \"#utility.yul\":1737:1777   */\n  iszero\n  tag_118\n  jumpi\n    /* \"#utility.yul\":1757:1775   */\n  tag_119\n  tag_65\n  jump\t// in\ntag_119:\n    /* \"#utility.yul\":1737:1777   */\ntag_118:\n    /* \"#utility.yul\":1790:1795   */\n  pop\n  jump(tag_110)\n    /* \"#utility.yul\":1528:1805   */\ntag_113:\n  pop\n    /* \"#utility.yul\":1914:1916   */\n  0x20\n    /* \"#utility.yul\":1904:1912   */\n  dup4\n    /* \"#utility.yul\":1901:1917   */\n  lt\n    /* \"#utility.yul\":1895:1898   */\n  0x0133\n    /* \"#utility.yul\":1889:1893   */\n  dup4\n    /* \"#utility.yul\":1886:1899   */\n  lt\n    /* \"#utility.yul\":1882:1918   */\n  and\n    /* \"#utility.yul\":1864:1866   */\n  0x4e\n    /* \"#utility.yul\":1854:1862   */\n  dup5\n    /* \"#utility.yul\":1851:1867   */\n  lt\n    /* \"#utility.yul\":1846:1848   */\n  0x0b\n    /* \"#utility.yul\":1840:1844   */\n  dup5\n    /* \"#utility.yul\":1837:1849   */\n  lt\n    /* \"#utility.yul\":1833:1868   */\n  and\n    /* \"#utility.yul\":1817:1928   */\n  or\n    /* \"#utility.yul\":1814:2060   */\n  iszero\n  tag_120\n  jumpi\n    /* \"#utility.yul\":1970:1978   */\n  dup3\n    /* \"#utility.yul\":1964:1968   */\n  dup3\n    /* \"#utility.yul\":1960:1979   */\n  exp\n    /* \"#utility.yul\":1951:1979   */\n  swap1\n  pop\n    /* \"#utility.yul\":2005:2008   */\n  dup4\n    /* \"#utility.yul\":1998:2003   */\n  dup2\n    /* \"#utility.yul\":1995:2009   */\n  gt\n    /* \"#utility.yul\":1992:2032   */\n  iszero\n  tag_121\n  jumpi\n    /* \"#utility.yul\":2012:2030   */\n  tag_122\n  tag_65\n  jump\t// in\ntag_122:\n    /* \"#utility.yul\":1992:2032   */\ntag_121:\n    /* \"#utility.yul\":2045:2050   */\n  jump(tag_110)\n    /* \"#utility.yul\":1814:2060   */\ntag_120:\n    /* \"#utility.yul\":2085:2127   */\n  tag_123\n    /* \"#utility.yul\":2123:2126   */\n  dup5\n    /* \"#utility.yul\":2113:2121   */\n  dup5\n    /* \"#utility.yul\":2107:2111   */\n  dup5\n    /* \"#utility.yul\":2104:2105   */\n  0x01\n    /* \"#utility.yul\":2085:2127   */\n  tag_67\n  jump\t// in\ntag_123:\n    /* \"#utility.yul\":2070:2127   */\n  swap3\n  pop\n  swap1\n  pop\n    /* \"#utility.yul\":2159:2163   */\n  dup2\n    /* \"#utility.yul\":2154:2157   */\n  dup5\n    /* \"#utility.yul\":2150:2164   */\n  div\n    /* \"#utility.yul\":2143:2148   */\n  dup2\n    /* \"#utility.yul\":2140:2165   */\n  gt\n    /* \"#utility.yul\":2137:2188   */\n  iszero\n  tag_124\n  jumpi\n    /* \"#utility.yul\":2168:2186   */\n  tag_125\n  tag_65\n  jump\t// in\ntag_125:\n    /* \"#utility.yul\":2137:2188   */\ntag_124:\n    /* \"#utility.yul\":2217:2221   */\n  dup2\n    /* \"#utility.yul\":2210:2215   */\n  dup2\n    /* \"#utility.yul\":2206:2222   */\n  mul\n    /* \"#utility.yul\":2197:2222   */\n  swap1\n  pop\n    /* \"#utility.yul\":1155:2228   */\ntag_110:\n  swap4\n  swap3\n  pop\n  pop\n  pop\n  jump\t// out\n    /* \"#utility.yul\":2234:2311   */\ntag_69:\n    /* \"#utility.yul\":2271:2278   */\n  0x00\n    /* \"#utility.yul\":2300:2305   */\n  dup2\n    /* \"#utility.yul\":2289:2305   */\n  swap1\n  pop\n    /* \"#utility.yul\":2234:2311   */\n  swap2\n  swap1\n  pop\n  jump\t// out\n    /* \"#utility.yul\":2317:2403   */\ntag_70:\n    /* \"#utility.yul\":2352:2359   */\n  0x00\n    /* \"#utility.yul\":2392:2396   */\n  0xff\n    /* \"#utility.yul\":2385:2390   */\n  dup3\n    /* \"#utility.yul\":2381:2397   */\n  and\n    /* \"#utility.yul\":2370:2397   */\n  swap1\n  pop\n    /* \"#utility.yul\":2317:2403   */\n  swap2\n  swap1\n  pop\n  jump\t// out\n    /* \"#utility.yul\":2409:2690   */\ntag_4:\n    /* \"#utility.yul\":2467:2472   */\n  0x00\n    /* \"#utility.yul\":2491:2514   */\n  tag_129\n    /* \"#utility.yul\":2509:2513   */\n  dup3\n    /* \"#utility.yul\":2491:2514   */\n  tag_69\n  jump\t// in\ntag_129:\n    /* \"#utility.yul\":2483:2514   */\n  swap2\n  pop\n    /* \"#utility.yul\":2535:2560   */\n  tag_130\n    /* \"#utility.yul\":2551:2559   */\n  dup4\n    /* \"#utility.yul\":2535:2560   */\n  tag_70\n  jump\t// in\ntag_130:\n    /* \"#utility.yul\":2523:2560   */\n  swap3\n  pop\n    /* \"#utility.yul\":2579:2683   */\n  tag_131\n    /* \"#utility.yul\":2616:2682   */\n  0xffffffffffffffffffffffffffffffffffffffffffffffffffffffffffffffff\n    /* \"#utility.yul\":2606:2614   */\n  dup5\n    /* \"#utility.yul\":2600:2604   */\n  dup5\n    /* \"#utility.yul\":2579:2683   */\n  tag_68\n  jump\t// in\ntag_131:\n    /* \"#utility.yul\":2570:2683   */\n  swap1\n  pop\n    /* \"#utility.yul\":2409:2690   */\n  swap3\n  swap2\n  pop\n  pop\n  jump\t// out\n    /* \"#utility.yul\":2696:3106   */\ntag_6:\n    /* \"#utility.yul\":2736:2743   */\n  0x00\n    /* \"#utility.yul\":2759:2779   */\n  tag_133\n    /* \"#utility.yul\":2777:2778   */\n  dup3\n    /* \"#utility.yul\":2759:2779   */\n  tag_69\n  jump\t// in\ntag_133:\n    /* \"#utility.yul\":2754:2779   */\n  swap2\n  pop\n    /* \"#utility.yul\":2793:2813   */\n  tag_134\n    /* \"#utility.yul\":2811:2812   */\n  dup4\n    /* \"#utility.yul\":2793:2813   */\n  tag_69\n  jump\t// in\ntag_134:\n    /* \"#utility.yul\":2788:2813   */\n  swap3\n  pop\n    /* \"#utility.yul\":2848:2849   */\n  dup3\n    /* \"#utility.yul\":2845:2846   */\n  dup3\n    /* \"#utility.yul\":2841:2850   */\n  mul\n    /* \"#utility.yul\":2870:2900   */\n  tag_135\n    /* \"#utility.yul\":2888:2899   */\n  dup2\n    /* \"#utility.yul\":2870:2900   */\n  tag_69\n  jump\t// in\ntag_135:\n    /* \"#utility.yul\":2859:2900   */\n  swap2\n  pop\n    /* \"#utility.yul\":3049:3050   */\n  dup3\n    /* \"#utility.yul\":3040:3047   */\n  dup3\n    /* \"#utility.yul\":3036:3051   */\n  div\n    /* \"#utility.yul\":3033:3034   */\n  dup5\n    /* \"#utility.yul\":3030:3052   */\n  eq\n    /* \"#utility.yul\":3010:3011   */\n  dup4\n    /* \"#utility.yul\":3003:3012   */\n  iszero\n    /* \"#utility.yul\":2983:3066   */\n  or\n    /* \"#utility.yul\":2960:3099   */\n  tag_136\n  jumpi\n    /* \"#utility.yul\":3079:3097   */\n  tag_137\n  tag_65\n  jump\t// in\ntag_137:\n    /* \"#utility.yul\":2960:3099   */\ntag_136:\n    /* \"#utility.yul\":2744:3106   */\n  pop\n    /* \"#utility.yul\":2696:3106   */\n  swap3\n  swap2\n  pop\n  pop\n  jump\t// out\n    /* \"#utility.yul\":3193:3310   */\ntag_72:\n    /* \"#utility.yul\":3302:3303   */\n  0x00\n    /* \"#utility.yul\":3299:3300   */\n  dup1\n    /* \"#utility.yul\":3292:3304   */\n  revert\n    /* \"#utility.yul\":3439:3565   */\ntag_74:\n    /* \"#utility.yul\":3476:3483   */\n  0x00\n    /* \"#utility.yul\":3516:3558   */\n  0xffffffffffffffffffffffffffffffffffffffff\n    /* \"#utility.yul\":3509:3514   */\n  dup3\n    /* \"#utility.yul\":3505:3559   */\n  and\n    /* \"#utility.yul\":3494:3559   */\n  swap1\n  pop\n    /* \"#utility.yul\":3439:3565   */\n  swap2\n  swap1\n  pop\n  jump\t// out\n    /* \"#utility.yul\":3571:3667   */\ntag_75:\n    /* \"#utility.yul\":3608:3615   */\n  0x00\n    /* \"#utility.yul\":3637:3661   */\n  tag_143\n    /* \"#utility.yul\":3655:3660   */\n  dup3\n    /* \"#utility.yul\":3637:3661   */\n  tag_74\n  jump\t// in\ntag_143:\n    /* \"#utility.yul\":3626:3661   */\n  swap1\n  pop\n    /* \"#utility.yul\":3571:3667   */\n  swap2\n  swap1\n  pop\n  jump\t// out\n    /* \"#utility.yul\":3673:3795   */\ntag_76:\n    /* \"#utility.yul\":3746:3770   */\n  tag_145\n    /* \"#utility.yul\":3764:3769   */\n  dup2\n    /* \"#utility.yul\":3746:3770   */\n  tag_75\n  jump\t// in\ntag_145:\n    /* \"#utility.yul\":3739:3744   */\n  dup2\n    /* \"#utility.yul\":3736:3771   */\n  eq\n    /* \"#utility.yul\":3726:3789   */\n  tag_146\n  jumpi\n    /* \"#utility.yul\":3785:3786   */\n  0x00\n    /* \"#utility.yul\":3782:3783   */\n  dup1\n    /* \"#utility.yul\":3775:3787   */\n  revert\n    /* \"#utility.yul\":3726:3789   */\ntag_146:\n    /* \"#utility.yul\":3673:3795   */\n  pop\n  jump\t// out\n    /* \"#utility.yul\":3801:3944   */\ntag_77:\n    /* \"#utility.yul\":3858:3863   */\n  0x00\n    /* \"#utility.yul\":3889:3895   */\n  dup2\n    /* \"#utility.yul\":3883:3896   */\n  mload\n    /* \"#utility.yul\":3874:3896   */\n  swap1\n  pop\n    /* \"#utility.yul\":3905:3938   */\n  tag_148\n    /* \"#utility.yul\":3932:3937   */\n  dup2\n    /* \"#utility.yul\":3905:3938   */\n  tag_76\n  jump\t// in\ntag_148:\n    /* \"#utility.yul\":3801:3944   */\n  swap3\n  swap2\n  pop\n  pop\n  jump\t// out\n    /* \"#utility.yul\":3950:4301   */\ntag_9:\n    /* \"#utility.yul\":4020:4026   */\n  0x00\n    /* \"#utility.yul\":4069:4071   */\n  0x20\n    /* \"#utility.yul\":4057:4066   */\n  dup3\n    /* \"#utility.yul\":4048:4055   */\n  dup5\n    /* \"#utility.yul\":4044:4067   */\n  sub\n    /* \"#utility.yul\":4040:4072   */\n  slt\n    /* \"#utility.yul\":4037:4156   */\n  iszero\n  tag_150\n  jumpi\n    /* \"#utility.yul\":4075:4154   */\n  tag_151\n  tag_72\n  jump\t// in\ntag_151:\n    /* \"#utility.yul\":4037:4156   */\ntag_150:\n    /* \"#utility.yul\":4195:4196   */\n  0x00\n    /* \"#utility.yul\":4220:4284   */\n  tag_152\n    /* \"#utility.yul\":4276:4283   */\n  dup5\n    /* \"#utility.yul\":4267:4273   */\n  dup3\n    /* \"#utility.yul\":4256:4265   */\n  dup6\n    /* \"#utility.yul\":4252:4274   */\n  add\n    /* \"#utility.yul\":4220:4284   */\n  tag_77\n  jump\t// in\ntag_152:\n    /* \"#utility.yul\":4210:4284   */\n  swap2\n  pop\n    /* \"#utility.yul\":4166:4294   */\n  pop\n    /* \"#utility.yul\":3950:4301   */\n  swap3\n  swap2\n  pop\n  pop\n  jump\t// out\n    /* \"#utility.yul\":4307:4406   */\ntag_78:\n    /* \"#utility.yul\":4359:4365   */\n  0x00\n    /* \"#utility.yul\":4393:4398   */\n  dup2\n    /* \"#utility.yul\":4387:4399   */\n  mload\n    /* \"#utility.yul\":4377:4399   */\n  swap1\n  pop\n    /* \"#utility.yul\":4307:4406   */\n  swap2\n  swap1\n  pop\n  jump\t// out\n    /* \"#utility.yul\":4412:4592   */\ntag_79:\n    /* \"#utility.yul\":4460:4537   */\n  0x4e487b7100000000000000000000000000000000000000000000000000000000\n    /* \"#utility.yul\":4457:4458   */\n  0x00\n    /* \"#utility.yul\":4450:4538   */\n  mstore\n    /* \"#utility.yul\":4557:4561   */\n  0x41\n    /* \"#utility.yul\":4554:4555   */\n  0x04\n    /* \"#utility.yul\":4547:4562   */\n  mstore\n    /* \"#utility.yul\":4581:4585   */\n  0x24\n    /* \"#utility.yul\":4578:4579   */\n  0x00\n    /* \"#utility.yul\":4571:4586   */\n  revert\n    /* \"#utility.yul\":4598:4778   */\ntag_80:\n    /* \"#utility.yul\":4646:4723   */\n  0x4e487b7100000000000000000000000000000000000000000000000000000000\n    /* \"#utility.yul\":4643:4644   */\n  0x00\n    /* \"#utility.yul\":4636:4724   */\n  mstore\n    /* \"#utility.yul\":4743:4747   */\n  0x22\n    /* \"#utility.yul\":4740:4741   */\n  0x04\n    /* \"#utility.yul\":4733:4748   */\n  mstore\n    /* \"#utility.yul\":4767:4771   */\n  0x24\n    /* \"#utility.yul\":4764:4765   */\n  0x00\n    /* \"#utility.yul\":4757:4772   */\n  revert\n    /* \"#utility.yul\":4784:5104   */\ntag_81:\n    /* \"#utility.yul\":4828:4834   */\n  0x00\n    /* \"#utility.yul\":4865:4866   */\n  0x02\n    /* \"#utility.yul\":4859:4863   */\n  dup3\n    /* \"#utility.yul\":4855:4867   */\n  div\n    /* \"#utility.yul\":4845:4867   */\n  swap1\n  pop\n    /* \"#utility.yul\":4912:4913   */\n  0x01\n    /* \"#utility.yul\":4906:4910   */\n  dup3\n    /* \"#utility.yul\":4902:4914   */\n  and\n    /* \"#utility.yul\":4933:4951   */\n  dup1\n    /* \"#utility.yul\":4923:5004   */\n  tag_157\n  jumpi\n    /* \"#utility.yul\":4989:4993   */\n  0x7f\n    /* \"#utility.yul\":4981:4987   */\n  dup3\n    /* \"#utility.yul\":4977:4994   */\n  and\n    /* \"#utility.yul\":4967:4994   */\n  swap2\n  pop\n    /* \"#utility.yul\":4923:5004   */\ntag_157:\n    /* \"#utility.yul\":5051:5053   */\n  0x20\n    /* \"#utility.yul\":5043:5049   */\n  dup3\n    /* \"#utility.yul\":5040:5054   */\n  lt\n    /* \"#utility.yul\":5020:5038   */\n  dup2\n    /* \"#utility.yul\":5017:5055   */\n  sub\n    /* \"#utility.yul\":5014:5098   */\n  tag_158\n  jumpi\n    /* \"#utility.yul\":5070:5088   */\n  tag_159\n  tag_80\n  jump\t// in\ntag_159:\n    /* \"#utility.yul\":5014:5098   */\ntag_158:\n    /* \"#utility.yul\":4835:5104   */\n  pop\n    /* \"#utility.yul\":4784:5104   */\n  swap2\n  swap1\n  pop\n  jump\t// out\n    /* \"#utility.yul\":5110:5251   */\ntag_82:\n    /* \"#utility.yul\":5159:5163   */\n  0x00\n    /* \"#utility.yul\":5182:5185   */\n  dup2\n    /* \"#utility.yul\":5174:5185   */\n  swap1\n  pop\n    /* \"#utility.yul\":5205:5208   */\n  dup2\n    /* \"#utility.yul\":5202:5203   */\n  0x00\n    /* \"#utility.yul\":5195:5209   */\n  mstore\n    /* \"#utility.yul\":5239:5243   */\n  0x20\n    /* \"#utility.yul\":5236:5237   */\n  0x00\n    /* \"#utility.yul\":5226:5244   */\n  keccak256\n    /* \"#utility.yul\":5218:5244   */\n  swap1\n  pop\n    /* \"#utility.yul\":5110:5251   */\n  swap2\n  swap1\n  pop\n  jump\t// out\n    /* \"#utility.yul\":5257:5350   */\ntag_83:\n    /* \"#utility.yul\":5294:5300   */\n  0x00\n    /* \"#utility.yul\":5341:5343   */\n  0x20\n    /* \"#utility.yul\":5336:5338   */\n  0x1f\n    /* \"#utility.yul\":5329:5334   */\n  dup4\n    /* \"#utility.yul\":5325:5339   */\n  add\n    /* \"#utility.yul\":5321:5344   */\n  div\n    /* \"#utility.yul\":5311:5344   */\n  swap1\n  pop\n    /* \"#utility.yul\":5257:5350   */\n  swap2\n  swap1\n  pop\n  jump\t// out\n    /* \"#utility.yul\":5356:5463   */\ntag_84:\n    /* \"#utility.yul\":5400:5408   */\n  0x00\n    /* \"#utility.yul\":5450:5455   */\n  dup3\n    /* \"#utility.yul\":5444:5448   */\n  dup3\n    /* \"#utility.yul\":5440:5456   */\n  shl\n    /* \"#utility.yul\":5419:5456   */\n  swap1\n  pop\n    /* \"#utility.yul\":5356:5463   */\n  swap3\n  swap2\n  pop\n  pop\n  jump\t// out\n    /* \"#utility.yul\":5469:5862   */\ntag_85:\n    /* \"#utility.yul\":5538:5544   */\n  0x00\n    /* \"#utility.yul\":5588:5589   */\n  0x08\n    /* \"#utility.yul\":5576:5586   */\n  dup4\n    /* \"#utility.yul\":5572:5590   */\n  mul\n    /* \"#utility.yul\":5611:5708   */\n  tag_164\n    /* \"#utility.yul\":5641:5707   */\n  0xffffffffffffffffffffffffffffffffffffffffffffffffffffffffffffffff\n    /* \"#utility.yul\":5630:5639   */\n  dup3\n    /* \"#utility.yul\":5611:5708   */\n  tag_84\n  jump\t// in\ntag_164:\n    /* \"#utility.yul\":5729:5768   */\n  tag_165\n    /* \"#utility.yul\":5759:5767   */\n  dup7\n    /* \"#utility.yul\":5748:5757   */\n  dup4\n    /* \"#utility.yul\":5729:5768   */\n  tag_84\n  jump\t// in\ntag_165:\n    /* \"#utility.yul\":5717:5768   */\n  swap6\n  pop\n    /* \"#utility.yul\":5801:5805   */\n  dup1\n    /* \"#utility.yul\":5797:5806   */\n  not\n    /* \"#utility.yul\":5790:5795   */\n  dup5\n    /* \"#utility.yul\":5786:5807   */\n  and\n    /* \"#utility.yul\":5777:5807   */\n  swap4\n  pop\n    /* \"#utility.yul\":5850:5854   */\n  dup1\n    /* \"#utility.yul\":5840:5848   */\n  dup7\n    /* \"#utility.yul\":5836:5855   */\n  and\n    /* \"#utility.yul\":5829:5834   */\n  dup5\n    /* \"#utility.yul\":5826:5856   */\n  or\n    /* \"#utility.yul\":5816:5856   */\n  swap3\n  pop\n    /* \"#utility.yul\":5545:5862   */\n  pop\n  pop\n    /* \"#utility.yul\":5469:5862   */\n  swap4\n  swap3\n  pop\n  pop\n  pop\n  jump\t// out\n    /* \"#utility.yul\":5868:5928   */\ntag_86:\n    /* \"#utility.yul\":5896:5899   */\n  0x00\n    /* \"#utility.yul\":5917:5922   */\n  dup2\n    /* \"#utility.yul\":5910:5922   */\n  swap1\n  pop\n    /* \"#utility.yul\":5868:5928   */\n  swap2\n  swap1\n  pop\n  jump\t// out\n    /* \"#utility.yul\":5934:6076   */\ntag_87:\n    /* \"#utility.yul\":5984:5993   */\n  0x00\n    /* \"#utility.yul\":6017:6070   */\n  tag_168\n    /* \"#utility.yul\":6035:6069   */\n  tag_169\n    /* \"#utility.yul\":6044:6068   */\n  tag_170\n    /* \"#utility.yul\":6062:6067   */\n  dup5\n    /* \"#utility.yul\":6044:6068   */\n  tag_69\n  jump\t// in\ntag_170:\n    /* \"#utility.yul\":6035:6069   */\n  tag_86\n  jump\t// in\ntag_169:\n    /* \"#utility.yul\":6017:6070   */\n  tag_69\n  jump\t// in\ntag_168:\n    /* \"#utility.yul\":6004:6070   */\n  swap1\n  pop\n    /* \"#utility.yul\":5934:6076   */\n  swap2\n  swap1\n  pop\n  jump\t// out\n    /* \"#utility.yul\":6082:6157   */\ntag_88:\n    /* \"#utility.yul\":6125:6128   */\n  0x00\n    /* \"#utility.yul\":6146:6151   */\n  dup2\n    /* \"#utility.yul\":6139:6151   */\n  swap1\n  pop\n    /* \"#utility.yul\":6082:6157   */\n  swap2\n  swap1\n  pop\n  jump\t// out\n    /* \"#utility.yul\":6163:6432   */\ntag_89:\n    /* \"#utility.yul\":6273:6312   */\n  tag_173\n    /* \"#utility.yul\":6304:6311   */\n  dup4\n    /* \"#utility.yul\":6273:6312   */\n  tag_87\n  jump\t// in\ntag_173:\n    /* \"#utility.yul\":6334:6425   */\n  tag_174\n    /* \"#utility.yul\":6383:6424   */\n  tag_175\n    /* \"#utility.yul\":6407:6423   */\n  dup3\n    /* \"#utility.yul\":6383:6424   */\n  tag_88\n  jump\t// in\ntag_175:\n    /* \"#utility.yul\":6375:6381   */\n  dup5\n    /* \"#utility.yul\":6368:6372   */\n  dup5\n    /* \"#utility.yul\":6362:6373   */\n  sload\n    /* \"#utility.yul\":6334:6425   */\n  tag_85\n  jump\t// in\ntag_174:\n    /* \"#utility.yul\":6328:6332   */\n  dup3\n    /* \"#utility.yul\":6321:6426   */\n  sstore\n    /* \"#utility.yul\":6239:6432   */\n  pop\n    /* \"#utility.yul\":6163:6432   */\n  pop\n  pop\n  pop\n  jump\t// out\n    /* \"#utility.yul\":6438:6511   */\ntag_90:\n    /* \"#utility.yul\":6483:6486   */\n  0x00\n    /* \"#utility.yul\":6438:6511   */\n  swap1\n  jump\t// out\n    /* \"#utility.yul\":6517:6706   */\ntag_91:\n    /* \"#utility.yul\":6594:6626   */\n  tag_178\n  tag_90\n  jump\t// in\ntag_178:\n    /* \"#utility.yul\":6635:6700   */\n  tag_179\n    /* \"#utility.yul\":6693:6699   */\n  dup2\n    /* \"#utility.yul\":6685:6691   */\n  dup5\n    /* \"#utility.yul\":6679:6683   */\n  dup5\n    /* \"#utility.yul\":6635:6700   */\n  tag_89\n  jump\t// in\ntag_179:\n    /* \"#utility.yul\":6570:6706   */\n  pop\n    /* \"#utility.yul\":6517:6706   */\n  pop\n  pop\n  jump\t// out\n    /* \"#utility.yul\":6712:6898   */\ntag_92:\n    /* \"#utility.yul\":6772:6892   */\ntag_181:\n    /* \"#utility.yul\":6789:6792   */\n  dup2\n    /* \"#utility.yul\":6782:6787   */\n  dup2\n    /* \"#utility.yul\":6779:6793   */\n  lt\n    /* \"#utility.yul\":6772:6892   */\n  iszero\n  tag_183\n  jumpi\n    /* \"#utility.yul\":6843:6882   */\n  tag_184\n    /* \"#utility.yul\":6880:6881   */\n  0x00\n    /* \"#utility.yul\":6873:6878   */\n  dup3\n    /* \"#utility.yul\":6843:6882   */\n  tag_91\n  jump\t// in\ntag_184:\n    /* \"#utility.yul\":6816:6817   */\n  0x01\n    /* \"#utility.yul\":6809:6814   */\n  dup2\n    /* \"#utility.yul\":6805:6818   */\n  add\n    /* \"#utility.yul\":6796:6818   */\n  swap1\n  pop\n    /* \"#utility.yul\":6772:6892   */\n  jump(tag_181)\ntag_183:\n    /* \"#utility.yul\":6712:6898   */\n  pop\n  pop\n  jump\t// out\n    /* \"#utility.yul\":6904:7447   */\ntag_93:\n    /* \"#utility.yul\":7005:7007   */\n  0x1f\n    /* \"#utility.yul\":7000:7003   */\n  dup3\n    /* \"#utility.yul\":6997:7008   */\n  gt\n    /* \"#utility.yul\":6994:7440   */\n  iszero\n  tag_186\n  jumpi\n    /* \"#utility.yul\":7039:7077   */\n  tag_187\n    /* \"#utility.yul\":7071:7076   */\n  dup2\n    /* \"#utility.yul\":7039:7077   */\n  tag_82\n  jump\t// in\ntag_187:\n    /* \"#utility.yul\":7123:7152   */\n  tag_188\n    /* \"#utility.yul\":7141:7151   */\n  dup5\n    /* \"#utility.yul\":7123:7152   */\n  tag_83\n  jump\t// in\ntag_188:\n    /* \"#utility.yul\":7113:7121   */\n  dup2\n    /* \"#utility.yul\":7109:7153   */\n  add\n    /* \"#utility.yul\":7306:7308   */\n  0x20\n    /* \"#utility.yul\":7294:7304   */\n  dup6\n    /* \"#utility.yul\":7291:7309   */\n  lt\n    /* \"#utility.yul\":7288:7337   */\n  iszero\n  tag_189\n  jumpi\n    /* \"#utility.yul\":7327:7335   */\n  dup2\n    /* \"#utility.yul\":7312:7335   */\n  swap1\n  pop\n    /* \"#utility.yul\":7288:7337   */\ntag_189:\n    /* \"#utility.yul\":7350:7430   */\n  tag_190\n    /* \"#utility.yul\":7406:7428   */\n  tag_191\n    /* \"#utility.yul\":7424:7427   */\n  dup6\n    /* \"#utility.yul\":7406:7428   */\n  tag_83\n  jump\t// in\ntag_191:\n    /* \"#utility.yul\":7396:7404   */\n  dup4\n    /* \"#utility.yul\":7392:7429   */\n  add\n    /* \"#utility.yul\":7379:7390   */\n  dup3\n    /* \"#utility.yul\":7350:7430   */\n  tag_92\n  jump\t// in\ntag_190:\n    /* \"#utility.yul\":7009:7440   */\n  pop\n  pop\n    /* \"#utility.yul\":6994:7440   */\ntag_186:\n    /* \"#utility.yul\":6904:7447   */\n  pop\n  pop\n  pop\n  jump\t// out\n    /* \"#utility.yul\":7453:7570   */\ntag_94:\n    /* \"#utility.yul\":7507:7515   */\n  0x00\n    /* \"#utility.yul\":7557:7562   */\n  dup3\n    /* \"#utility.yul\":7551:7555   */\n  dup3\n    /* \"#utility.yul\":7547:7563   */\n  shr\n    /* \"#utility.yul\":7526:7563   */\n  swap1\n  pop\n    /* \"#utility.yul\":7453:7570   */\n  swap3\n  swap2\n  pop\n  pop\n  jump\t// out\n    /* \"#utility.yul\":7576:7745   */\ntag_95:\n    /* \"#utility.yul\":7620:7626   */\n  0x00\n    /* \"#utility.yul\":7653:7704   */\n  tag_194\n    /* \"#utility.yul\":7701:7702   */\n  0x00\n    /* \"#utility.yul\":7697:7703   */\n  not\n    /* \"#utility.yul\":7689:7694   */\n  dup5\n    /* \"#utility.yul\":7686:7687   */\n  0x08\n    /* \"#utility.yul\":7682:7695   */\n  mul\n    /* \"#utility.yul\":7653:7704   */\n  tag_94\n  jump\t// in\ntag_194:\n    /* \"#utility.yul\":7649:7705   */\n  not\n    /* \"#utility.yul\":7734:7738   */\n  dup1\n    /* \"#utility.yul\":7728:7732   */\n  dup4\n    /* \"#utility.yul\":7724:7739   */\n  and\n    /* \"#utility.yul\":7714:7739   */\n  swap2\n  pop\n    /* \"#utility.yul\":7627:7745   */\n  pop\n    /* \"#utility.yul\":7576:7745   */\n  swap3\n  swap2\n  pop\n  pop\n  jump\t// out\n    /* \"#utility.yul\":7750:8045   */\ntag_96:\n    /* \"#utility.yul\":7826:7830   */\n  0x00\n    /* \"#utility.yul\":7972:8001   */\n  tag_196\n    /* \"#utility.yul\":7997:8000   */\n  dup4\n    /* \"#utility.yul\":7991:7995   */\n  dup4\n    /* \"#utility.yul\":7972:8001   */\n  tag_95\n  jump\t// in\ntag_196:\n    /* \"#utility.yul\":7964:8001   */\n  swap2\n  pop\n    /* \"#utility.yul\":8034:8037   */\n  dup3\n    /* \"#utility.yul\":8031:8032   */\n  0x02\n    /* \"#utility.yul\":8027:8038   */\n  mul\n    /* \"#utility.yul\":8021:8025   */\n  dup3\n    /* \"#utility.yul\":8018:8039   */\n  or\n    /* \"#utility.yul\":8010:8039   */\n  swap1\n  pop\n    /* \"#utility.yul\":7750:8045   */\n  swap3\n  swap2\n  pop\n  pop\n  jump\t// out\n    /* \"#utility.yul\":8050:9445   */\ntag_16:\n    /* \"#utility.yul\":8167:8204   */\n  tag_198\n    /* \"#utility.yul\":8200:8203   */\n  dup3\n    /* \"#utility.yul\":8167:8204   */\n  tag_78\n  jump\t// in\ntag_198:\n    /* \"#utility.yul\":8269:8287   */\n  0xffffffffffffffff\n    /* \"#utility.yul\":8261:8267   */\n  dup2\n    /* \"#utility.yul\":8258:8288   */\n  gt\n    /* \"#utility.yul\":8255:8311   */\n  iszero\n  tag_199\n  jumpi\n    /* \"#utility.yul\":8291:8309   */\n  tag_200\n  tag_79\n  jump\t// in\ntag_200:\n    /* \"#utility.yul\":8255:8311   */\ntag_199:\n    /* \"#utility.yul\":8335:8373   */\n  tag_201\n    /* \"#utility.yul\":8367:8371   */\n  dup3\n    /* \"#utility.yul\":8361:8372   */\n  sload\n    /* \"#utility.yul\":8335:8373   */\n  tag_81\n  jump\t// in\ntag_201:\n    /* \"#utility.yul\":8420:8487   */\n  tag_202\n    /* \"#utility.yul\":8480:8486   */\n  dup3\n    /* \"#utility.yul\":8472:8478   */\n  dup3\n    /* \"#utility.yul\":8466:8470   */\n  dup6\n    /* \"#utility.yul\":8420:8487   */\n  tag_93\n  jump\t// in\ntag_202:\n    /* \"#utility.yul\":8514:8515   */\n  0x00\n    /* \"#utility.yul\":8538:8542   */\n  0x20\n    /* \"#utility.yul\":8525:8542   */\n  swap1\n  pop\n    /* \"#utility.yul\":8570:8572   */\n  0x1f\n    /* \"#utility.yul\":8562:8568   */\n  dup4\n    /* \"#utility.yul\":8559:8573   */\n  gt\n    /* \"#utility.yul\":8587:8588   */\n  0x01\n    /* \"#utility.yul\":8582:9200   */\n  dup2\n  eq\n  tag_204\n  jumpi\n    /* \"#utility.yul\":9244:9245   */\n  0x00\n    /* \"#utility.yul\":9261:9267   */\n  dup5\n    /* \"#utility.yul\":9258:9335   */\n  iszero\n  tag_205\n  jumpi\n    /* \"#utility.yul\":9310:9319   */\n  dup3\n    /* \"#utility.yul\":9305:9308   */\n  dup8\n    /* \"#utility.yul\":9301:9320   */\n  add\n    /* \"#utility.yul\":9295:9321   */\n  mload\n    /* \"#utility.yul\":9286:9321   */\n  swap1\n  pop\n    /* \"#utility.yul\":9258:9335   */\ntag_205:\n    /* \"#utility.yul\":9361:9428   */\n  tag_206\n    /* \"#utility.yul\":9421:9427   */\n  dup6\n    /* \"#utility.yul\":9414:9419   */\n  dup3\n    /* \"#utility.yul\":9361:9428   */\n  tag_96\n  jump\t// in\ntag_206:\n    /* \"#utility.yul\":9355:9359   */\n  dup7\n    /* \"#utility.yul\":9348:9429   */\n  sstore\n    /* \"#utility.yul\":9217:9439   */\n  pop\n    /* \"#utility.yul\":8552:9439   */\n  jump(tag_203)\n    /* \"#utility.yul\":8582:9200   */\ntag_204:\n    /* \"#utility.yul\":8634:8638   */\n  0x1f\n    /* \"#utility.yul\":8630:8639   */\n  not\n    /* \"#utility.yul\":8622:8628   */\n  dup5\n    /* \"#utility.yul\":8618:8640   */\n  and\n    /* \"#utility.yul\":8668:8705   */\n  tag_207\n    /* \"#utility.yul\":8700:8704   */\n  dup7\n    /* \"#utility.yul\":8668:8705   */\n  tag_82\n  jump\t// in\ntag_207:\n    /* \"#utility.yul\":8727:8728   */\n  0x00\n    /* \"#utility.yul\":8741:8949   */\ntag_208:\n    /* \"#utility.yul\":8755:8762   */\n  dup3\n    /* \"#utility.yul\":8752:8753   */\n  dup2\n    /* \"#utility.yul\":8749:8763   */\n  lt\n    /* \"#utility.yul\":8741:8949   */\n  iszero\n  tag_210\n  jumpi\n    /* \"#utility.yul\":8834:8843   */\n  dup5\n    /* \"#utility.yul\":8829:8832   */\n  dup10\n    /* \"#utility.yul\":8825:8844   */\n  add\n    /* \"#utility.yul\":8819:8845   */\n  mload\n    /* \"#utility.yul\":8811:8817   */\n  dup3\n    /* \"#utility.yul\":8804:8846   */\n  sstore\n    /* \"#utility.yul\":8885:8886   */\n  0x01\n    /* \"#utility.yul\":8877:8883   */\n  dup3\n    /* \"#utility.yul\":8873:8887   */\n  add\n    /* \"#utility.yul\":8863:8887   */\n  swap2\n  pop\n    /* \"#utility.yul\":8932:8934   */\n  0x20\n    /* \"#utility.yul\":8921:8930   */\n  dup6\n    /* \"#utility.yul\":8917:8935   */\n  add\n    /* \"#utility.yul\":8904:8935   */\n  swap5\n  pop\n    /* \"#utility.yul\":8778:8782   */\n  0x20\n    /* \"#utility.yul\":8775:8776   */\n  dup2\n    /* \"#utility.yul\":8771:8783   */\n  add\n    /* \"#utility.yul\":8766:8783   */\n  swap1\n  pop\n    /* \"#utility.yul\":8741:8949   */\n  jump(tag_208)\ntag_210:\n    /* \"#utility.yul\":8977:8983   */\n  dup7\n    /* \"#utility.yul\":8968:8975   */\n  dup4\n    /* \"#utility.yul\":8965:8984   */\n  lt\n    /* \"#utility.yul\":8962:9141   */\n  iszero\n  tag_211\n  jumpi\n    /* \"#utility.yul\":9035:9044   */\n  dup5\n    /* \"#utility.yul\":9030:9033   */\n  dup10\n    /* \"#utility.yul\":9026:9045   */\n  add\n    /* \"#utility.yul\":9020:9046   */\n  mload\n    /* \"#utility.yul\":9078:9126   */\n  tag_212\n    /* \"#utility.yul\":9120:9124   */\n  0x1f\n    /* \"#utility.yul\":9112:9118   */\n  dup10\n    /* \"#utility.yul\":9108:9125   */\n  and\n    /* \"#utility.yul\":9097:9106   */\n  dup3\n    /* \"#utility.yul\":9078:9126   */\n  tag_95\n  jump\t// in\ntag_212:\n    /* \"#utility.yul\":9070:9076   */\n  dup4\n    /* \"#utility.yul\":9063:9127   */\n  sstore\n    /* \"#utility.yul\":8985:9141   */\n  pop\n    /* \"#utility.yul\":8962:9141   */\ntag_211:\n    /* \"#utility.yul\":9187:9188   */\n  0x01\n    /* \"#utility.yul\":9183:9184   */\n  0x02\n    /* \"#utility.yul\":9175:9181   */\n  dup9\n    /* \"#utility.yul\":9171:9185   */\n  mul\n    /* \"#utility.yul\":9167:9189   */\n  add\n    /* \"#utility.yul\":9161:9165   */\n  dup9\n    /* \"#utility.yul\":9154:9190   */\n  sstore\n    /* \"#utility.yul\":8589:9200   */\n  pop\n  pop\n  pop\n    /* \"#utility.yul\":8552:9439   */\ntag_203:\n  pop\n    /* \"#utility.yul\":8142:9445   */\n  pop\n  pop\n  pop\n    /* \"#utility.yul\":8050:9445   */\n  pop\n  pop\n  jump\t// out\n    /* \"#utility.yul\":9451:9569   */\ntag_97:\n    /* \"#utility.yul\":9538:9562   */\n  tag_214\n    /* \"#utility.yul\":9556:9561   */\n  dup2\n    /* \"#utility.yul\":9538:9562   */\n  tag_75\n  jump\t// in\ntag_214:\n    /* \"#utility.yul\":9533:9536   */\n  dup3\n    /* \"#utility.yul\":9526:9563   */\n  mstore\n    /* \"#utility.yul\":9451:9569   */\n  pop\n  pop\n  jump\t// out\n    /* \"#utility.yul\":9575:9797   */\ntag_22:\n    /* \"#utility.yul\":9668:9672   */\n  0x00\n    /* \"#utility.yul\":9706:9708   */\n  0x20\n    /* \"#utility.yul\":9695:9704   */\n  dup3\n    /* \"#utility.yul\":9691:9709   */\n  add\n    /* \"#utility.yul\":9683:9709   */\n  swap1\n  pop\n    /* \"#utility.yul\":9719:9790   */\n  tag_216\n    /* \"#utility.yul\":9787:9788   */\n  0x00\n    /* \"#utility.yul\":9776:9785   */\n  dup4\n    /* \"#utility.yul\":9772:9789   */\n  add\n    /* \"#utility.yul\":9763:9769   */\n  dup5\n    /* \"#utility.yul\":9719:9790   */\n  tag_97\n  jump\t// in\ntag_216:\n    /* \"#utility.yul\":9575:9797   */\n  swap3\n  swap2\n  pop\n  pop\n  jump\t// out\n    /* \"#utility.yul\":9803:9994   */\ntag_55:\n    /* \"#utility.yul\":9843:9846   */\n  0x00\n    /* \"#utility.yul\":9862:9882   */\n  tag_218\n    /* \"#utility.yul\":9880:9881   */\n  dup3\n    /* \"#utility.yul\":9862:9882   */\n  tag_69\n  jump\t// in\ntag_218:\n    /* \"#utility.yul\":9857:9882   */\n  swap2\n  pop\n    /* \"#utility.yul\":9896:9916   */\n  tag_219\n    /* \"#utility.yul\":9914:9915   */\n  dup4\n    /* \"#utility.yul\":9896:9916   */\n  tag_69\n  jump\t// in\ntag_219:\n    /* \"#utility.yul\":9891:9916   */\n  swap3\n  pop\n    /* \"#utility.yul\":9939:9940   */\n  dup3\n    /* \"#utility.yul\":9936:9937   */\n  dup3\n    /* \"#utility.yul\":9932:9941   */\n  add\n    /* \"#utility.yul\":9925:9941   */\n  swap1\n  pop\n    /* \"#utility.yul\":9960:9963   */\n  dup1\n    /* \"#utility.yul\":9957:9958   */\n  dup3\n    /* \"#utility.yul\":9954:9964   */\n  gt\n    /* \"#utility.yul\":9951:9987   */\n  iszero\n  tag_220\n  jumpi\n    /* \"#utility.yul\":9967:9985   */\n  tag_221\n  tag_65\n  jump\t// in\ntag_221:\n    /* \"#utility.yul\":9951:9987   */\ntag_220:\n    /* \"#utility.yul\":9803:9994   */\n  swap3\n  swap2\n  pop\n  pop\n  jump\t// out\n    /* \"#utility.yul\":10000:10118   */\ntag_98:\n    /* \"#utility.yul\":10087:10111   */\n  tag_223\n    /* \"#utility.yul\":10105:10110   */\n  dup2\n    /* \"#utility.yul\":10087:10111   */\n  tag_69\n  jump\t// in\ntag_223:\n    /* \"#utility.yul\":10082:10085   */\n  dup3\n    /* \"#utility.yul\":10075:10112   */\n  mstore\n    /* \"#utility.yul\":10000:10118   */\n  pop\n  pop\n  jump\t// out\n    /* \"#utility.yul\":10124:10566   */\ntag_59:\n    /* \"#utility.yul\":10273:10277   */\n  0x00\n    /* \"#utility.yul\":10311:10313   */\n  0x60\n    /* \"#utility.yul\":10300:10309   */\n  dup3\n    /* \"#utility.yul\":10296:10314   */\n  add\n    /* \"#utility.yul\":10288:10314   */\n  swap1\n  pop\n    /* \"#utility.yul\":10324:10395   */\n  tag_225\n    /* \"#utility.yul\":10392:10393   */\n  0x00\n    /* \"#utility.yul\":10381:10390   */\n  dup4\n    /* \"#utility.yul\":10377:10394   */\n  add\n    /* \"#utility.yul\":10368:10374   */\n  dup7\n    /* \"#utility.yul\":10324:10395   */\n  tag_97\n  jump\t// in\ntag_225:\n    /* \"#utility.yul\":10405:10477   */\n  tag_226\n    /* \"#utility.yul\":10473:10475   */\n  0x20\n    /* \"#utility.yul\":10462:10471   */\n  dup4\n    /* \"#utility.yul\":10458:10476   */\n  add\n    /* \"#utility.yul\":10449:10455   */\n  dup6\n    /* \"#utility.yul\":10405:10477   */\n  tag_98\n  jump\t// in\ntag_226:\n    /* \"#utility.yul\":10487:10559   */\n  tag_227\n    /* \"#utility.yul\":10555:10557   */\n  0x40\n    /* \"#utility.yul\":10544:10553   */\n  dup4\n    /* \"#utility.yul\":10540:10558   */\n  add\n    /* \"#utility.yul\":10531:10537   */\n  dup5\n    /* \"#utility.yul\":10487:10559   */\n  tag_98\n  jump\t// in\ntag_227:\n    /* \"#utility.yul\":10124:10566   */\n  swap5\n  swap4\n  pop\n  pop\n  pop\n  pop\n  jump\t// out\n    /* \"#utility.yul\":10572:10794   */\ntag_63:\n    /* \"#utility.yul\":10665:10669   */\n  0x00\n    /* \"#utility.yul\":10703:10705   */\n  0x20\n    /* \"#utility.yul\":10692:10701   */\n  dup3\n    /* \"#utility.yul\":10688:10706   */\n  add\n    /* \"#utility.yul\":10680:10706   */\n  swap1\n  pop\n    /* \"#utility.yul\":10716:10787   */\n  tag_229\n    /* \"#utility.yul\":10784:10785   */\n  0x00\n    /* \"#utility.yul\":10773:10782   */\n  dup4\n    /* \"#utility.yul\":10769:10786   */\n  add\n    /* \"#utility.yul\":10760:10766   */\n  dup5\n    /* \"#utility.yul\":10716:10787   */\n  tag_98\n  jump\t// in\ntag_229:\n    /* \"#utility.yul\":10572:10794   */\n  swap3\n  swap2\n  pop\n  pop\n  jump\t// out\n    /* \"contracts/GeekToken/GeekToken.sol\":363:2829  contract GeekToken is ERC20, ERC20Burnable, ERC20Pausable, Ownable {... */\ntag_31:\n  dataSize(sub_0)\n  dup1\n  dataOffset(sub_0)\n  0x00\n  codecopy\n  0x00\n  return\nstop\n\nsub_0: assembly {\n        /* \"contracts/GeekToken/GeekToken.sol\":363:2829  contract GeekToken is ERC20, ERC20Burnable, ERC20Pausable, Ownable {... */\n      mstore(0x40, 0x80)\n      callvalue\n      dup1\n      iszero\n      tag_1\n      jumpi\n      0x00\n      dup1\n      revert\n    tag_1:\n      pop\n      jumpi(tag_2, lt(calldatasize, 0x04))\n      shr(0xe0, calldataload(0x00))\n      dup1\n      0x5c975abb\n      gt\n      tag_22\n      jumpi\n      dup1\n      0x8da5cb5b\n      gt\n      tag_23\n      jumpi\n      dup1\n      0x8da5cb5b\n      eq\n      tag_17\n      jumpi\n      dup1\n      0x95d89b41\n      eq\n      tag_18\n      jumpi\n      dup1\n      0xa9059cbb\n      eq\n      tag_19\n      jumpi\n      dup1\n      0xdd62ed3e\n      eq\n      tag_20\n      jumpi\n      dup1\n      0xf2fde38b\n      eq\n      tag_21\n      jumpi\n      jump(tag_2)\n    tag_23:\n      dup1\n      0x5c975abb\n      eq\n      tag_12\n      jumpi\n      dup1\n      0x70a08231\n      eq\n      tag_13\n      jumpi\n      dup1\n      0x715018a6\n      eq\n      tag_14\n      jumpi\n      dup1\n      0x79cc6790\n      eq\n      tag_15\n      jumpi\n      dup1\n      0x8456cb59\n      eq\n      tag_16\n      jumpi\n      jump(tag_2)\n    tag_22:\n      dup1\n      0x313ce567\n      gt\n      tag_24\n      jumpi\n      dup1\n      0x313ce567\n      eq\n      tag_7\n      jumpi\n      dup1\n      0x3f4ba83a\n      eq\n      tag_8\n      jumpi\n      dup1\n      0x40c10f19\n      eq\n      tag_9\n      jumpi\n      dup1\n      0x42966c68\n      eq\n      tag_10\n      jumpi\n      dup1\n      0x48659097\n      eq\n      tag_11\n      jumpi\n      jump(tag_2)\n    tag_24:\n      dup1\n      0x06fdde03\n      eq\n      tag_3\n      jumpi\n      dup1\n      0x095ea7b3\n      eq\n      tag_4\n      jumpi\n      dup1\n      0x18160ddd\n      eq\n      tag_5\n      jumpi\n      dup1\n      0x23b872dd\n      eq\n      tag_6\n      jumpi\n    tag_2:\n      0x00\n      dup1\n      revert\n        /* \"@openzeppelin/contracts/token/ERC20/ERC20.sol\":2074:2163  function name() public view virtual returns (string memory) {... */\n    tag_3:\n      tag_25\n      tag_26\n      jump\t// in\n    tag_25:\n      mload(0x40)\n      tag_27\n      swap2\n      swap1\n      tag_28\n      jump\t// in\n    tag_27:\n      mload(0x40)\n      dup1\n      swap2\n      sub\n      swap1\n      return\n        /* \"@openzeppelin/contracts/token/ERC20/ERC20.sol\":4293:4479  function approve(address spender, uint256 value) public virtual returns (bool) {... */\n    tag_4:\n      tag_29\n      0x04\n      dup1\n      calldatasize\n      sub\n      dup2\n      add\n      swap1\n      tag_30\n      swap2\n      swap1\n      tag_31\n      jump\t// in\n    tag_30:\n      tag_32\n      jump\t// in\n    tag_29:\n      mload(0x40)\n      tag_33\n      swap2\n      swap1\n      tag_34\n      jump\t// in\n    tag_33:\n      mload(0x40)\n      dup1\n      swap2\n      sub\n      swap1\n      return\n        /* \"@openzeppelin/contracts/token/ERC20/ERC20.sol\":3144:3241  function totalSupply() public view virtual returns (uint256) {... */\n    tag_5:\n      tag_35\n      tag_36\n      jump\t// in\n    tag_35:\n      mload(0x40)\n      tag_37\n      swap2\n      swap1\n      tag_38\n      jump\t// in\n    tag_37:\n      mload(0x40)\n      dup1\n      swap2\n      sub\n      swap1\n      return\n        /* \"@openzeppelin/contracts/token/ERC20/ERC20.sol\":5039:5283  function transferFrom(address from, address to, uint256 value) public virtual returns (bool) {... */\n    tag_6:\n      tag_39\n      0x04\n      dup1\n      calldatasize\n      sub\n      dup2\n      add\n      swap1\n      tag_40\n      swap2\n      swap1\n      tag_41\n      jump\t// in\n    tag_40:\n      tag_42\n      jump\t// in\n    tag_39:\n      mload(0x40)\n      tag_43\n      swap2\n      swap1\n      tag_34\n      jump\t// in\n    tag_43:\n      mload(0x40)\n      dup1\n      swap2\n      sub\n      swap1\n      return\n        /* \"@openzeppelin/contracts/token/ERC20/ERC20.sol\":3002:3084  function decimals() public view virtual returns (uint8) {... */\n    tag_7:\n      tag_44\n      tag_45\n      jump\t// in\n    tag_44:\n      mload(0x40)\n      tag_46\n      swap2\n      swap1\n      tag_47\n      jump\t// in\n    tag_46:\n      mload(0x40)\n      dup1\n      swap2\n      sub\n      swap1\n      return\n        /* \"contracts/GeekToken/GeekToken.sol\":789:852  function unpause() public onlyOwner {... */\n    tag_8:\n      tag_48\n      tag_49\n      jump\t// in\n    tag_48:\n      stop\n        /* \"contracts/GeekToken/GeekToken.sol\":858:1020  function mint(address to, uint256 amount) public onlyOwner {... */\n    tag_9:\n      tag_50\n      0x04\n      dup1\n      calldatasize\n      sub\n      dup2\n      add\n      swap1\n      tag_51\n      swap2\n      swap1\n      tag_31\n      jump\t// in\n    tag_51:\n      tag_52\n      jump\t// in\n    tag_50:\n      stop\n        /* \"@openzeppelin/contracts/token/ERC20/extensions/ERC20Burnable.sol\":618:705  function burn(uint256 value) public virtual {... */\n    tag_10:\n      tag_53\n      0x04\n      dup1\n      calldatasize\n      sub\n      dup2\n      add\n      swap1\n      tag_54\n      swap2\n      swap1\n      tag_55\n      jump\t// in\n    tag_54:\n      tag_56\n      jump\t// in\n    tag_53:\n      stop\n        /* \"contracts/GeekToken/GeekToken.sol\":2526:2827  function transferTokens(address to, uint256 cargoInsurableValue, Types.Acceptance acceptance) external {... */\n    tag_11:\n      tag_57\n      0x04\n      dup1\n      calldatasize\n      sub\n      dup2\n      add\n      swap1\n      tag_58\n      swap2\n      swap1\n      tag_59\n      jump\t// in\n    tag_58:\n      tag_60\n      jump\t// in\n    tag_57:\n      stop\n        /* \"@openzeppelin/contracts/utils/Pausable.sol\":1850:1934  function paused() public view virtual returns (bool) {... */\n    tag_12:\n      tag_61\n      tag_62\n      jump\t// in\n    tag_61:\n      mload(0x40)\n      tag_63\n      swap2\n      swap1\n      tag_34\n      jump\t// in\n    tag_63:\n      mload(0x40)\n      dup1\n      swap2\n      sub\n      swap1\n      return\n        /* \"@openzeppelin/contracts/token/ERC20/ERC20.sol\":3299:3415  function balanceOf(address account) public view virtual returns (uint256) {... */\n    tag_13:\n      tag_64\n      0x04\n      dup1\n      calldatasize\n      sub\n      dup2\n      add\n      swap1\n      tag_65\n      swap2\n      swap1\n      tag_66\n      jump\t// in\n    tag_65:\n      tag_67\n      jump\t// in\n    tag_64:\n      mload(0x40)\n      tag_68\n      swap2\n      swap1\n      tag_38\n      jump\t// in\n    tag_68:\n      mload(0x40)\n      dup1\n      swap2\n      sub\n      swap1\n      return\n        /* \"@openzeppelin/contracts/access/Ownable.sol\":2293:2394  function renounceOwnership() public virtual onlyOwner {... */\n    tag_14:\n      tag_69\n      tag_70\n      jump\t// in\n    tag_69:\n      stop\n        /* \"@openzeppelin/contracts/token/ERC20/extensions/ERC20Burnable.sol\":1021:1179  function burnFrom(address account, uint256 value) public virtual {... */\n    tag_15:\n      tag_71\n      0x04\n      dup1\n      calldatasize\n      sub\n      dup2\n      add\n      swap1\n      tag_72\n      swap2\n      swap1\n      tag_31\n      jump\t// in\n    tag_72:\n      tag_73\n      jump\t// in\n    tag_71:\n      stop\n        /* \"contracts/GeekToken/GeekToken.sol\":724:783  function pause() public onlyOwner {... */\n    tag_16:\n      tag_74\n      tag_75\n      jump\t// in\n    tag_74:\n      stop\n        /* \"@openzeppelin/contracts/access/Ownable.sol\":1638:1723  function owner() public view virtual returns (address) {... */\n    tag_17:\n      tag_76\n      tag_77\n      jump\t// in\n    tag_76:\n      mload(0x40)\n      tag_78\n      swap2\n      swap1\n      tag_79\n      jump\t// in\n    tag_78:\n      mload(0x40)\n      dup1\n      swap2\n      sub\n      swap1\n      return\n        /* \"@openzeppelin/contracts/token/ERC20/ERC20.sol\":2276:2369  function symbol() public view virtual returns (string memory) {... */\n    tag_18:\n      tag_80\n      tag_81\n      jump\t// in\n    tag_80:\n      mload(0x40)\n      tag_82\n      swap2\n      swap1\n      tag_28\n      jump\t// in\n    tag_82:\n      mload(0x40)\n      dup1\n      swap2\n      sub\n      swap1\n      return\n        /* \"@openzeppelin/contracts/token/ERC20/ERC20.sol\":3610:3788  function transfer(address to, uint256 value) public virtual returns (bool) {... */\n    tag_19:\n      tag_83\n      0x04\n      dup1\n      calldatasize\n      sub\n      dup2\n      add\n      swap1\n      tag_84\n      swap2\n      swap1\n      tag_31\n      jump\t// in\n    tag_84:\n      tag_85\n      jump\t// in\n    tag_83:\n      mload(0x40)\n      tag_86\n      swap2\n      swap1\n      tag_34\n      jump\t// in\n    tag_86:\n      mload(0x40)\n      dup1\n      swap2\n      sub\n      swap1\n      return\n        /* \"@openzeppelin/contracts/token/ERC20/ERC20.sol\":3846:3986  function allowance(address owner, address spender) public view virtual returns (uint256) {... */\n    tag_20:\n      tag_87\n      0x04\n      dup1\n      calldatasize\n      sub\n      dup2\n      add\n      swap1\n      tag_88\n      swap2\n      swap1\n      tag_89\n      jump\t// in\n    tag_88:\n      tag_90\n      jump\t// in\n    tag_87:\n      mload(0x40)\n      tag_91\n      swap2\n      swap1\n      tag_38\n      jump\t// in\n    tag_91:\n      mload(0x40)\n      dup1\n      swap2\n      sub\n      swap1\n      return\n        /* \"@openzeppelin/contracts/access/Ownable.sol\":2543:2758  function transferOwnership(address newOwner) public virtual onlyOwner {... */\n    tag_21:\n      tag_92\n      0x04\n      dup1\n      calldatasize\n      sub\n      dup2\n      add\n      swap1\n      tag_93\n      swap2\n      swap1\n      tag_66\n      jump\t// in\n    tag_93:\n      tag_94\n      jump\t// in\n    tag_92:\n      stop\n        /* \"@openzeppelin/contracts/token/ERC20/ERC20.sol\":2074:2163  function name() public view virtual returns (string memory) {... */\n    tag_26:\n        /* \"@openzeppelin/contracts/token/ERC20/ERC20.sol\":2119:2132  string memory */\n      0x60\n        /* \"@openzeppelin/contracts/token/ERC20/ERC20.sol\":2151:2156  _name */\n      0x03\n        /* \"@openzeppelin/contracts/token/ERC20/ERC20.sol\":2144:2156  return _name */\n      dup1\n      sload\n      tag_96\n      swap1\n      tag_97\n      jump\t// in\n    tag_96:\n      dup1\n      0x1f\n      add\n      0x20\n      dup1\n      swap2\n      div\n      mul\n      0x20\n      add\n      mload(0x40)\n      swap1\n      dup2\n      add\n      0x40\n      mstore\n      dup1\n      swap3\n      swap2\n      swap1\n      dup2\n      dup2\n      mstore\n      0x20\n      add\n      dup3\n      dup1\n      sload\n      tag_98\n      swap1\n      tag_97\n      jump\t// in\n    tag_98:\n      dup1\n      iszero\n      tag_99\n      jumpi\n      dup1\n      0x1f\n      lt\n      tag_100\n      jumpi\n      0x0100\n      dup1\n      dup4\n      sload\n      div\n      mul\n      dup4\n      mstore\n      swap2\n      0x20\n      add\n      swap2\n      jump(tag_99)\n    tag_100:\n      dup3\n      add\n      swap2\n      swap1\n      0x00\n      mstore\n      keccak256(0x00, 0x20)\n      swap1\n    tag_101:\n      dup2\n      sload\n      dup2\n      mstore\n      swap1\n      0x01\n      add\n      swap1\n      0x20\n      add\n      dup1\n      dup4\n      gt\n      tag_101\n      jumpi\n      dup3\n      swap1\n      sub\n      0x1f\n      and\n      dup3\n      add\n      swap2\n    tag_99:\n      pop\n      pop\n      pop\n      pop\n      pop\n      swap1\n      pop\n        /* \"@openzeppelin/contracts/token/ERC20/ERC20.sol\":2074:2163  function name() public view virtual returns (string memory) {... */\n      swap1\n      jump\t// out\n        /* \"@openzeppelin/contracts/token/ERC20/ERC20.sol\":4293:4479  function approve(address spender, uint256 value) public virtual returns (bool) {... */\n    tag_32:\n        /* \"@openzeppelin/contracts/token/ERC20/ERC20.sol\":4366:4370  bool */\n      0x00\n        /* \"@openzeppelin/contracts/token/ERC20/ERC20.sol\":4382:4395  address owner */\n      dup1\n        /* \"@openzeppelin/contracts/token/ERC20/ERC20.sol\":4398:4410  _msgSender() */\n      tag_103\n        /* \"@openzeppelin/contracts/token/ERC20/ERC20.sol\":4398:4408  _msgSender */\n      tag_104\n        /* \"@openzeppelin/contracts/token/ERC20/ERC20.sol\":4398:4410  _msgSender() */\n      jump\t// in\n    tag_103:\n        /* \"@openzeppelin/contracts/token/ERC20/ERC20.sol\":4382:4410  address owner = _msgSender() */\n      swap1\n      pop\n        /* \"@openzeppelin/contracts/token/ERC20/ERC20.sol\":4420:4451  _approve(owner, spender, value) */\n      tag_105\n        /* \"@openzeppelin/contracts/token/ERC20/ERC20.sol\":4429:4434  owner */\n      dup2\n        /* \"@openzeppelin/contracts/token/ERC20/ERC20.sol\":4436:4443  spender */\n      dup6\n        /* \"@openzeppelin/contracts/token/ERC20/ERC20.sol\":4445:4450  value */\n      dup6\n        /* \"@openzeppelin/contracts/token/ERC20/ERC20.sol\":4420:4428  _approve */\n      tag_106\n        /* \"@openzeppelin/contracts/token/ERC20/ERC20.sol\":4420:4451  _approve(owner, spender, value) */\n      jump\t// in\n    tag_105:\n        /* \"@openzeppelin/contracts/token/ERC20/ERC20.sol\":4468:4472  true */\n      0x01\n        /* \"@openzeppelin/contracts/token/ERC20/ERC20.sol\":4461:4472  return true */\n      swap2\n      pop\n      pop\n        /* \"@openzeppelin/contracts/token/ERC20/ERC20.sol\":4293:4479  function approve(address spender, uint256 value) public virtual returns (bool) {... */\n      swap3\n      swap2\n      pop\n      pop\n      jump\t// out\n        /* \"@openzeppelin/contracts/token/ERC20/ERC20.sol\":3144:3241  function totalSupply() public view virtual returns (uint256) {... */\n    tag_36:\n        /* \"@openzeppelin/contracts/token/ERC20/ERC20.sol\":3196:3203  uint256 */\n      0x00\n        /* \"@openzeppelin/contracts/token/ERC20/ERC20.sol\":3222:3234  _totalSupply */\n      sload(0x02)\n        /* \"@openzeppelin/contracts/token/ERC20/ERC20.sol\":3215:3234  return _totalSupply */\n      swap1\n      pop\n        /* \"@openzeppelin/contracts/token/ERC20/ERC20.sol\":3144:3241  function totalSupply() public view virtual returns (uint256) {... */\n      swap1\n      jump\t// out\n        /* \"@openzeppelin/contracts/token/ERC20/ERC20.sol\":5039:5283  function transferFrom(address from, address to, uint256 value) public virtual returns (bool) {... */\n    tag_42:\n        /* \"@openzeppelin/contracts/token/ERC20/ERC20.sol\":5126:5130  bool */\n      0x00\n        /* \"@openzeppelin/contracts/token/ERC20/ERC20.sol\":5142:5157  address spender */\n      dup1\n        /* \"@openzeppelin/contracts/token/ERC20/ERC20.sol\":5160:5172  _msgSender() */\n      tag_109\n        /* \"@openzeppelin/contracts/token/ERC20/ERC20.sol\":5160:5170  _msgSender */\n      tag_104\n        /* \"@openzeppelin/contracts/token/ERC20/ERC20.sol\":5160:5172  _msgSender() */\n      jump\t// in\n    tag_109:\n        /* \"@openzeppelin/contracts/token/ERC20/ERC20.sol\":5142:5172  address spender = _msgSender() */\n      swap1\n      pop\n        /* \"@openzeppelin/contracts/token/ERC20/ERC20.sol\":5182:5219  _spendAllowance(from, spender, value) */\n      tag_110\n        /* \"@openzeppelin/contracts/token/ERC20/ERC20.sol\":5198:5202  from */\n      dup6\n        /* \"@openzeppelin/contracts/token/ERC20/ERC20.sol\":5204:5211  spender */\n      dup3\n        /* \"@openzeppelin/contracts/token/ERC20/ERC20.sol\":5213:5218  value */\n      dup6\n        /* \"@openzeppelin/contracts/token/ERC20/ERC20.sol\":5182:5197  _spendAllowance */\n      tag_111\n        /* \"@openzeppelin/contracts/token/ERC20/ERC20.sol\":5182:5219  _spendAllowance(from, spender, value) */\n      jump\t// in\n    tag_110:\n        /* \"@openzeppelin/contracts/token/ERC20/ERC20.sol\":5229:5255  _transfer(from, to, value) */\n      tag_112\n        /* \"@openzeppelin/contracts/token/ERC20/ERC20.sol\":5239:5243  from */\n      dup6\n        /* \"@openzeppelin/contracts/token/ERC20/ERC20.sol\":5245:5247  to */\n      dup6\n        /* \"@openzeppelin/contracts/token/ERC20/ERC20.sol\":5249:5254  value */\n      dup6\n        /* \"@openzeppelin/contracts/token/ERC20/ERC20.sol\":5229:5238  _transfer */\n      tag_113\n        /* \"@openzeppelin/contracts/token/ERC20/ERC20.sol\":5229:5255  _transfer(from, to, value) */\n      jump\t// in\n    tag_112:\n        /* \"@openzeppelin/contracts/token/ERC20/ERC20.sol\":5272:5276  true */\n      0x01\n        /* \"@openzeppelin/contracts/token/ERC20/ERC20.sol\":5265:5276  return true */\n      swap2\n      pop\n      pop\n        /* \"@openzeppelin/contracts/token/ERC20/ERC20.sol\":5039:5283  function transferFrom(address from, address to, uint256 value) public virtual returns (bool) {... */\n      swap4\n      swap3\n      pop\n      pop\n      pop\n      jump\t// out\n        /* \"@openzeppelin/contracts/token/ERC20/ERC20.sol\":3002:3084  function decimals() public view virtual returns (uint8) {... */\n    tag_45:\n        /* \"@openzeppelin/contracts/token/ERC20/ERC20.sol\":3051:3056  uint8 */\n      0x00\n        /* \"@openzeppelin/contracts/token/ERC20/ERC20.sol\":3075:3077  18 */\n      0x12\n        /* \"@openzeppelin/contracts/token/ERC20/ERC20.sol\":3068:3077  return 18 */\n      swap1\n      pop\n        /* \"@openzeppelin/contracts/token/ERC20/ERC20.sol\":3002:3084  function decimals() public view virtual returns (uint8) {... */\n      swap1\n      jump\t// out\n        /* \"contracts/GeekToken/GeekToken.sol\":789:852  function unpause() public onlyOwner {... */\n    tag_49:\n        /* \"@openzeppelin/contracts/access/Ownable.sol\":1531:1544  _checkOwner() */\n      tag_116\n        /* \"@openzeppelin/contracts/access/Ownable.sol\":1531:1542  _checkOwner */\n      tag_117\n        /* \"@openzeppelin/contracts/access/Ownable.sol\":1531:1544  _checkOwner() */\n      jump\t// in\n    tag_116:\n        /* \"contracts/GeekToken/GeekToken.sol\":835:845  _unpause() */\n      tag_119\n        /* \"contracts/GeekToken/GeekToken.sol\":835:843  _unpause */\n      tag_120\n        /* \"contracts/GeekToken/GeekToken.sol\":835:845  _unpause() */\n      jump\t// in\n    tag_119:\n        /* \"contracts/GeekToken/GeekToken.sol\":789:852  function unpause() public onlyOwner {... */\n      jump\t// out\n        /* \"contracts/GeekToken/GeekToken.sol\":858:1020  function mint(address to, uint256 amount) public onlyOwner {... */\n    tag_52:\n        /* \"@openzeppelin/contracts/access/Ownable.sol\":1531:1544  _checkOwner() */\n      tag_122\n        /* \"@openzeppelin/contracts/access/Ownable.sol\":1531:1542  _checkOwner */\n      tag_117\n        /* \"@openzeppelin/contracts/access/Ownable.sol\":1531:1544  _checkOwner() */\n      jump\t// in\n    tag_122:\n        /* \"contracts/GeekToken/GeekToken.sol\":961:970  maxSupply */\n      sload(0x06)\n        /* \"contracts/GeekToken/GeekToken.sol\":951:957  amount */\n      dup2\n        /* \"contracts/GeekToken/GeekToken.sol\":935:948  totalSupply() */\n      tag_124\n        /* \"contracts/GeekToken/GeekToken.sol\":935:946  totalSupply */\n      tag_36\n        /* \"contracts/GeekToken/GeekToken.sol\":935:948  totalSupply() */\n      jump\t// in\n    tag_124:\n        /* \"contracts/GeekToken/GeekToken.sol\":935:957  totalSupply() + amount */\n      tag_125\n      swap2\n      swap1\n      tag_126\n      jump\t// in\n    tag_125:\n        /* \"contracts/GeekToken/GeekToken.sol\":935:970  totalSupply() + amount <= maxSupply */\n      gt\n      iszero\n        /* \"contracts/GeekToken/GeekToken.sol\":927:986  require(totalSupply() + amount <= maxSupply, \"We sold out\") */\n      tag_127\n      jumpi\n      mload(0x40)\n      0x08c379a000000000000000000000000000000000000000000000000000000000\n      dup2\n      mstore\n      0x04\n      add\n      tag_128\n      swap1\n      tag_129\n      jump\t// in\n    tag_128:\n      mload(0x40)\n      dup1\n      swap2\n      sub\n      swap1\n      revert\n    tag_127:\n        /* \"contracts/GeekToken/GeekToken.sol\":996:1013  _mint(to, amount) */\n      tag_130\n        /* \"contracts/GeekToken/GeekToken.sol\":1002:1004  to */\n      dup3\n        /* \"contracts/GeekToken/GeekToken.sol\":1006:1012  amount */\n      dup3\n        /* \"contracts/GeekToken/GeekToken.sol\":996:1001  _mint */\n      tag_131\n        /* \"contracts/GeekToken/GeekToken.sol\":996:1013  _mint(to, amount) */\n      jump\t// in\n    tag_130:\n        /* \"contracts/GeekToken/GeekToken.sol\":858:1020  function mint(address to, uint256 amount) public onlyOwner {... */\n      pop\n      pop\n      jump\t// out\n        /* \"@openzeppelin/contracts/token/ERC20/extensions/ERC20Burnable.sol\":618:705  function burn(uint256 value) public virtual {... */\n    tag_56:\n        /* \"@openzeppelin/contracts/token/ERC20/extensions/ERC20Burnable.sol\":672:698  _burn(_msgSender(), value) */\n      tag_133\n        /* \"@openzeppelin/contracts/token/ERC20/extensions/ERC20Burnable.sol\":678:690  _msgSender() */\n      tag_134\n        /* \"@openzeppelin/contracts/token/ERC20/extensions/ERC20Burnable.sol\":678:688  _msgSender */\n      tag_104\n        /* \"@openzeppelin/contracts/token/ERC20/extensions/ERC20Burnable.sol\":678:690  _msgSender() */\n      jump\t// in\n    tag_134:\n        /* \"@openzeppelin/contracts/token/ERC20/extensions/ERC20Burnable.sol\":692:697  value */\n      dup3\n        /* \"@openzeppelin/contracts/token/ERC20/extensions/ERC20Burnable.sol\":672:677  _burn */\n      tag_135\n        /* \"@openzeppelin/contracts/token/ERC20/extensions/ERC20Burnable.sol\":672:698  _burn(_msgSender(), value) */\n      jump\t// in\n    tag_133:\n        /* \"@openzeppelin/contracts/token/ERC20/extensions/ERC20Burnable.sol\":618:705  function burn(uint256 value) public virtual {... */\n      pop\n      jump\t// out\n        /* \"contracts/GeekToken/GeekToken.sol\":2526:2827  function transferTokens(address to, uint256 cargoInsurableValue, Types.Acceptance acceptance) external {... */\n    tag_60:\n        /* \"contracts/GeekToken/GeekToken.sol\":2639:2661  uint256 tokensToReward */\n      0x00\n        /* \"contracts/GeekToken/GeekToken.sol\":2664:2708  tokenReward(cargoInsurableValue, acceptance) */\n      tag_137\n        /* \"contracts/GeekToken/GeekToken.sol\":2676:2695  cargoInsurableValue */\n      dup4\n        /* \"contracts/GeekToken/GeekToken.sol\":2697:2707  acceptance */\n      dup4\n        /* \"contracts/GeekToken/GeekToken.sol\":2664:2675  tokenReward */\n      tag_138\n        /* \"contracts/GeekToken/GeekToken.sol\":2664:2708  tokenReward(cargoInsurableValue, acceptance) */\n      jump\t// in\n    tag_137:\n        /* \"contracts/GeekToken/GeekToken.sol\":2639:2708  uint256 tokensToReward = tokenReward(cargoInsurableValue, acceptance) */\n      swap1\n      pop\n        /* \"contracts/GeekToken/GeekToken.sol\":2718:2746  transfer(to, tokensToReward) */\n      tag_139\n        /* \"contracts/GeekToken/GeekToken.sol\":2727:2729  to */\n      dup5\n        /* \"contracts/GeekToken/GeekToken.sol\":2731:2745  tokensToReward */\n      dup3\n        /* \"contracts/GeekToken/GeekToken.sol\":2718:2726  transfer */\n      tag_85\n        /* \"contracts/GeekToken/GeekToken.sol\":2718:2746  transfer(to, tokensToReward) */\n      jump\t// in\n    tag_139:\n      pop\n        /* \"contracts/GeekToken/GeekToken.sol\":2762:2820  Events.TransferedTokens(address(this), to, tokensToReward) */\n      0xfb5428f39f62fa9aa68d6c0db25fff3552d2958850e862561354749ea2bbef3d\n        /* \"contracts/GeekToken/GeekToken.sol\":2794:2798  this */\n      address\n        /* \"contracts/GeekToken/GeekToken.sol\":2801:2803  to */\n      dup6\n        /* \"contracts/GeekToken/GeekToken.sol\":2805:2819  tokensToReward */\n      dup4\n        /* \"contracts/GeekToken/GeekToken.sol\":2762:2820  Events.TransferedTokens(address(this), to, tokensToReward) */\n      mload(0x40)\n      tag_140\n      swap4\n      swap3\n      swap2\n      swap1\n      tag_141\n      jump\t// in\n    tag_140:\n      mload(0x40)\n      dup1\n      swap2\n      sub\n      swap1\n      log1\n        /* \"contracts/GeekToken/GeekToken.sol\":2629:2827  {... */\n      pop\n        /* \"contracts/GeekToken/GeekToken.sol\":2526:2827  function transferTokens(address to, uint256 cargoInsurableValue, Types.Acceptance acceptance) external {... */\n      pop\n      pop\n      pop\n      jump\t// out\n        /* \"@openzeppelin/contracts/utils/Pausable.sol\":1850:1934  function paused() public view virtual returns (bool) {... */\n    tag_62:\n        /* \"@openzeppelin/contracts/utils/Pausable.sol\":1897:1901  bool */\n      0x00\n        /* \"@openzeppelin/contracts/utils/Pausable.sol\":1920:1927  _paused */\n      0x05\n      0x00\n      swap1\n      sload\n      swap1\n      0x0100\n      exp\n      swap1\n      div\n      0xff\n      and\n        /* \"@openzeppelin/contracts/utils/Pausable.sol\":1913:1927  return _paused */\n      swap1\n      pop\n        /* \"@openzeppelin/contracts/utils/Pausable.sol\":1850:1934  function paused() public view virtual returns (bool) {... */\n      swap1\n      jump\t// out\n        /* \"@openzeppelin/contracts/token/ERC20/ERC20.sol\":3299:3415  function balanceOf(address account) public view virtual returns (uint256) {... */\n    tag_67:\n        /* \"@openzeppelin/contracts/token/ERC20/ERC20.sol\":3364:3371  uint256 */\n      0x00\n        /* \"@openzeppelin/contracts/token/ERC20/ERC20.sol\":3390:3399  _balances */\n      dup1\n        /* \"@openzeppelin/contracts/token/ERC20/ERC20.sol\":3390:3408  _balances[account] */\n      0x00\n        /* \"@openzeppelin/contracts/token/ERC20/ERC20.sol\":3400:3407  account */\n      dup4\n        /* \"@openzeppelin/contracts/token/ERC20/ERC20.sol\":3390:3408  _balances[account] */\n      0xffffffffffffffffffffffffffffffffffffffff\n      and\n      0xffffffffffffffffffffffffffffffffffffffff\n      and\n      dup2\n      mstore\n      0x20\n      add\n      swap1\n      dup2\n      mstore\n      0x20\n      add\n      0x00\n      keccak256\n      sload\n        /* \"@openzeppelin/contracts/token/ERC20/ERC20.sol\":3383:3408  return _balances[account] */\n      swap1\n      pop\n        /* \"@openzeppelin/contracts/token/ERC20/ERC20.sol\":3299:3415  function balanceOf(address account) public view virtual returns (uint256) {... */\n      swap2\n      swap1\n      pop\n      jump\t// out\n        /* \"@openzeppelin/contracts/access/Ownable.sol\":2293:2394  function renounceOwnership() public virtual onlyOwner {... */\n    tag_70:\n        /* \"@openzeppelin/contracts/access/Ownable.sol\":1531:1544  _checkOwner() */\n      tag_145\n        /* \"@openzeppelin/contracts/access/Ownable.sol\":1531:1542  _checkOwner */\n      tag_117\n        /* \"@openzeppelin/contracts/access/Ownable.sol\":1531:1544  _checkOwner() */\n      jump\t// in\n    tag_145:\n        /* \"@openzeppelin/contracts/access/Ownable.sol\":2357:2387  _transferOwnership(address(0)) */\n      tag_147\n        /* \"@openzeppelin/contracts/access/Ownable.sol\":2384:2385  0 */\n      0x00\n        /* \"@openzeppelin/contracts/access/Ownable.sol\":2357:2375  _transferOwnership */\n      tag_148\n        /* \"@openzeppelin/contracts/access/Ownable.sol\":2357:2387  _transferOwnership(address(0)) */\n      jump\t// in\n    tag_147:\n        /* \"@openzeppelin/contracts/access/Ownable.sol\":2293:2394  function renounceOwnership() public virtual onlyOwner {... */\n      jump\t// out\n        /* \"@openzeppelin/contracts/token/ERC20/extensions/ERC20Burnable.sol\":1021:1179  function burnFrom(address account, uint256 value) public virtual {... */\n    tag_73:\n        /* \"@openzeppelin/contracts/token/ERC20/extensions/ERC20Burnable.sol\":1096:1141  _spendAllowance(account, _msgSender(), value) */\n      tag_150\n        /* \"@openzeppelin/contracts/token/ERC20/extensions/ERC20Burnable.sol\":1112:1119  account */\n      dup3\n        /* \"@openzeppelin/contracts/token/ERC20/extensions/ERC20Burnable.sol\":1121:1133  _msgSender() */\n      tag_151\n        /* \"@openzeppelin/contracts/token/ERC20/extensions/ERC20Burnable.sol\":1121:1131  _msgSender */\n      tag_104\n        /* \"@openzeppelin/contracts/token/ERC20/extensions/ERC20Burnable.sol\":1121:1133  _msgSender() */\n      jump\t// in\n    tag_151:\n        /* \"@openzeppelin/contracts/token/ERC20/extensions/ERC20Burnable.sol\":1135:1140  value */\n      dup4\n        /* \"@openzeppelin/contracts/token/ERC20/extensions/ERC20Burnable.sol\":1096:1111  _spendAllowance */\n      tag_111\n        /* \"@openzeppelin/contracts/token/ERC20/extensions/ERC20Burnable.sol\":1096:1141  _spendAllowance(account, _msgSender(), value) */\n      jump\t// in\n    tag_150:\n        /* \"@openzeppelin/contracts/token/ERC20/extensions/ERC20Burnable.sol\":1151:1172  _burn(account, value) */\n      tag_152\n        /* \"@openzeppelin/contracts/token/ERC20/extensions/ERC20Burnable.sol\":1157:1164  account */\n      dup3\n        /* \"@openzeppelin/contracts/token/ERC20/extensions/ERC20Burnable.sol\":1166:1171  value */\n      dup3\n        /* \"@openzeppelin/contracts/token/ERC20/extensions/ERC20Burnable.sol\":1151:1156  _burn */\n      tag_135\n        /* \"@openzeppelin/contracts/token/ERC20/extensions/ERC20Burnable.sol\":1151:1172  _burn(account, value) */\n      jump\t// in\n    tag_152:\n        /* \"@openzeppelin/contracts/token/ERC20/extensions/ERC20Burnable.sol\":1021:1179  function burnFrom(address account, uint256 value) public virtual {... */\n      pop\n      pop\n      jump\t// out\n        /* \"contracts/GeekToken/GeekToken.sol\":724:783  function pause() public onlyOwner {... */\n    tag_75:\n        /* \"@openzeppelin/contracts/access/Ownable.sol\":1531:1544  _checkOwner() */\n      tag_154\n        /* \"@openzeppelin/contracts/access/Ownable.sol\":1531:1542  _checkOwner */\n      tag_117\n        /* \"@openzeppelin/contracts/access/Ownable.sol\":1531:1544  _checkOwner() */\n      jump\t// in\n    tag_154:\n        /* \"contracts/GeekToken/GeekToken.sol\":768:776  _pause() */\n      tag_156\n        /* \"contracts/GeekToken/GeekToken.sol\":768:774  _pause */\n      tag_157\n        /* \"contracts/GeekToken/GeekToken.sol\":768:776  _pause() */\n      jump\t// in\n    tag_156:\n        /* \"contracts/GeekToken/GeekToken.sol\":724:783  function pause() public onlyOwner {... */\n      jump\t// out\n        /* \"@openzeppelin/contracts/access/Ownable.sol\":1638:1723  function owner() public view virtual returns (address) {... */\n    tag_77:\n        /* \"@openzeppelin/contracts/access/Ownable.sol\":1684:1691  address */\n      0x00\n        /* \"@openzeppelin/contracts/access/Ownable.sol\":1710:1716  _owner */\n      0x05\n      0x01\n      swap1\n      sload\n      swap1\n      0x0100\n      exp\n      swap1\n      div\n      0xffffffffffffffffffffffffffffffffffffffff\n      and\n        /* \"@openzeppelin/contracts/access/Ownable.sol\":1703:1716  return _owner */\n      swap1\n      pop\n        /* \"@openzeppelin/contracts/access/Ownable.sol\":1638:1723  function owner() public view virtual returns (address) {... */\n      swap1\n      jump\t// out\n        /* \"@openzeppelin/contracts/token/ERC20/ERC20.sol\":2276:2369  function symbol() public view virtual returns (string memory) {... */\n    tag_81:\n        /* \"@openzeppelin/contracts/token/ERC20/ERC20.sol\":2323:2336  string memory */\n      0x60\n        /* \"@openzeppelin/contracts/token/ERC20/ERC20.sol\":2355:2362  _symbol */\n      0x04\n        /* \"@openzeppelin/contracts/token/ERC20/ERC20.sol\":2348:2362  return _symbol */\n      dup1\n      sload\n      tag_160\n      swap1\n      tag_97\n      jump\t// in\n    tag_160:\n      dup1\n      0x1f\n      add\n      0x20\n      dup1\n      swap2\n      div\n      mul\n      0x20\n      add\n      mload(0x40)\n      swap1\n      dup2\n      add\n      0x40\n      mstore\n      dup1\n      swap3\n      swap2\n      swap1\n      dup2\n      dup2\n      mstore\n      0x20\n      add\n      dup3\n      dup1\n      sload\n      tag_161\n      swap1\n      tag_97\n      jump\t// in\n    tag_161:\n      dup1\n      iszero\n      tag_162\n      jumpi\n      dup1\n      0x1f\n      lt\n      tag_163\n      jumpi\n      0x0100\n      dup1\n      dup4\n      sload\n      div\n      mul\n      dup4\n      mstore\n      swap2\n      0x20\n      add\n      swap2\n      jump(tag_162)\n    tag_163:\n      dup3\n      add\n      swap2\n      swap1\n      0x00\n      mstore\n      keccak256(0x00, 0x20)\n      swap1\n    tag_164:\n      dup2\n      sload\n      dup2\n      mstore\n      swap1\n      0x01\n      add\n      swap1\n      0x20\n      add\n      dup1\n      dup4\n      gt\n      tag_164\n      jumpi\n      dup3\n      swap1\n      sub\n      0x1f\n      and\n      dup3\n      add\n      swap2\n    tag_162:\n      pop\n      pop\n      pop\n      pop\n      pop\n      swap1\n      pop\n        /* \"@openzeppelin/contracts/token/ERC20/ERC20.sol\":2276:2369  function symbol() public view virtual returns (string memory) {... */\n      swap1\n      jump\t// out\n        /* \"@openzeppelin/contracts/token/ERC20/ERC20.sol\":3610:3788  function transfer(address to, uint256 value) public virtual returns (bool) {... */\n    tag_85:\n        /* \"@openzeppelin/contracts/token/ERC20/ERC20.sol\":3679:3683  bool */\n      0x00\n        /* \"@openzeppelin/contracts/token/ERC20/ERC20.sol\":3695:3708  address owner */\n      dup1\n        /* \"@openzeppelin/contracts/token/ERC20/ERC20.sol\":3711:3723  _msgSender() */\n      tag_166\n        /* \"@openzeppelin/contracts/token/ERC20/ERC20.sol\":3711:3721  _msgSender */\n      tag_104\n        /* \"@openzeppelin/contracts/token/ERC20/ERC20.sol\":3711:3723  _msgSender() */\n      jump\t// in\n    tag_166:\n        /* \"@openzeppelin/contracts/token/ERC20/ERC20.sol\":3695:3723  address owner = _msgSender() */\n      swap1\n      pop\n        /* \"@openzeppelin/contracts/token/ERC20/ERC20.sol\":3733:3760  _transfer(owner, to, value) */\n      tag_167\n        /* \"@openzeppelin/contracts/token/ERC20/ERC20.sol\":3743:3748  owner */\n      dup2\n        /* \"@openzeppelin/contracts/token/ERC20/ERC20.sol\":3750:3752  to */\n      dup6\n        /* \"@openzeppelin/contracts/token/ERC20/ERC20.sol\":3754:3759  value */\n      dup6\n        /* \"@openzeppelin/contracts/token/ERC20/ERC20.sol\":3733:3742  _transfer */\n      tag_113\n        /* \"@openzeppelin/contracts/token/ERC20/ERC20.sol\":3733:3760  _transfer(owner, to, value) */\n      jump\t// in\n    tag_167:\n        /* \"@openzeppelin/contracts/token/ERC20/ERC20.sol\":3777:3781  true */\n      0x01\n        /* \"@openzeppelin/contracts/token/ERC20/ERC20.sol\":3770:3781  return true */\n      swap2\n      pop\n      pop\n        /* \"@openzeppelin/contracts/token/ERC20/ERC20.sol\":3610:3788  function transfer(address to, uint256 value) public virtual returns (bool) {... */\n      swap3\n      swap2\n      pop\n      pop\n      jump\t// out\n        /* \"@openzeppelin/contracts/token/ERC20/ERC20.sol\":3846:3986  function allowance(address owner, address spender) public view virtual returns (uint256) {... */\n    tag_90:\n        /* \"@openzeppelin/contracts/token/ERC20/ERC20.sol\":3926:3933  uint256 */\n      0x00\n        /* \"@openzeppelin/contracts/token/ERC20/ERC20.sol\":3952:3963  _allowances */\n      0x01\n        /* \"@openzeppelin/contracts/token/ERC20/ERC20.sol\":3952:3970  _allowances[owner] */\n      0x00\n        /* \"@openzeppelin/contracts/token/ERC20/ERC20.sol\":3964:3969  owner */\n      dup5\n        /* \"@openzeppelin/contracts/token/ERC20/ERC20.sol\":3952:3970  _allowances[owner] */\n      0xffffffffffffffffffffffffffffffffffffffff\n      and\n      0xffffffffffffffffffffffffffffffffffffffff\n      and\n      dup2\n      mstore\n      0x20\n      add\n      swap1\n      dup2\n      mstore\n      0x20\n      add\n      0x00\n      keccak256\n        /* \"@openzeppelin/contracts/token/ERC20/ERC20.sol\":3952:3979  _allowances[owner][spender] */\n      0x00\n        /* \"@openzeppelin/contracts/token/ERC20/ERC20.sol\":3971:3978  spender */\n      dup4\n        /* \"@openzeppelin/contracts/token/ERC20/ERC20.sol\":3952:3979  _allowances[owner][spender] */\n      0xffffffffffffffffffffffffffffffffffffffff\n      and\n      0xffffffffffffffffffffffffffffffffffffffff\n      and\n      dup2\n      mstore\n      0x20\n      add\n      swap1\n      dup2\n      mstore\n      0x20\n      add\n      0x00\n      keccak256\n      sload\n        /* \"@openzeppelin/contracts/token/ERC20/ERC20.sol\":3945:3979  return _allowances[owner][spender] */\n      swap1\n      pop\n        /* \"@openzeppelin/contracts/token/ERC20/ERC20.sol\":3846:3986  function allowance(address owner, address spender) public view virtual returns (uint256) {... */\n      swap3\n      swap2\n      pop\n      pop\n      jump\t// out\n        /* \"@openzeppelin/contracts/access/Ownable.sol\":2543:2758  function transferOwnership(address newOwner) public virtual onlyOwner {... */\n    tag_94:\n        /* \"@openzeppelin/contracts/access/Ownable.sol\":1531:1544  _checkOwner() */\n      tag_170\n        /* \"@openzeppelin/contracts/access/Ownable.sol\":1531:1542  _checkOwner */\n      tag_117\n        /* \"@openzeppelin/contracts/access/Ownable.sol\":1531:1544  _checkOwner() */\n      jump\t// in\n    tag_170:\n        /* \"@openzeppelin/contracts/access/Ownable.sol\":2647:2648  0 */\n      0x00\n        /* \"@openzeppelin/contracts/access/Ownable.sol\":2627:2649  newOwner == address(0) */\n      0xffffffffffffffffffffffffffffffffffffffff\n      and\n        /* \"@openzeppelin/contracts/access/Ownable.sol\":2627:2635  newOwner */\n      dup2\n        /* \"@openzeppelin/contracts/access/Ownable.sol\":2627:2649  newOwner == address(0) */\n      0xffffffffffffffffffffffffffffffffffffffff\n      and\n      sub\n        /* \"@openzeppelin/contracts/access/Ownable.sol\":2623:2714  if (newOwner == address(0)) {... */\n      tag_172\n      jumpi\n        /* \"@openzeppelin/contracts/access/Ownable.sol\":2700:2701  0 */\n      0x00\n        /* \"@openzeppelin/contracts/access/Ownable.sol\":2672:2703  OwnableInvalidOwner(address(0)) */\n      mload(0x40)\n      0x1e4fbdf700000000000000000000000000000000000000000000000000000000\n      dup2\n      mstore\n      0x04\n      add\n      tag_173\n      swap2\n      swap1\n      tag_79\n      jump\t// in\n    tag_173:\n      mload(0x40)\n      dup1\n      swap2\n      sub\n      swap1\n      revert\n        /* \"@openzeppelin/contracts/access/Ownable.sol\":2623:2714  if (newOwner == address(0)) {... */\n    tag_172:\n        /* \"@openzeppelin/contracts/access/Ownable.sol\":2723:2751  _transferOwnership(newOwner) */\n      tag_174\n        /* \"@openzeppelin/contracts/access/Ownable.sol\":2742:2750  newOwner */\n      dup2\n        /* \"@openzeppelin/contracts/access/Ownable.sol\":2723:2741  _transferOwnership */\n      tag_148\n        /* \"@openzeppelin/contracts/access/Ownable.sol\":2723:2751  _transferOwnership(newOwner) */\n      jump\t// in\n    tag_174:\n        /* \"@openzeppelin/contracts/access/Ownable.sol\":2543:2758  function transferOwnership(address newOwner) public virtual onlyOwner {... */\n      pop\n      jump\t// out\n        /* \"@openzeppelin/contracts/utils/Context.sol\":656:752  function _msgSender() internal view virtual returns (address) {... */\n    tag_104:\n        /* \"@openzeppelin/contracts/utils/Context.sol\":709:716  address */\n      0x00\n        /* \"@openzeppelin/contracts/utils/Context.sol\":735:745  msg.sender */\n      caller\n        /* \"@openzeppelin/contracts/utils/Context.sol\":728:745  return msg.sender */\n      swap1\n      pop\n        /* \"@openzeppelin/contracts/utils/Context.sol\":656:752  function _msgSender() internal view virtual returns (address) {... */\n      swap1\n      jump\t// out\n        /* \"@openzeppelin/contracts/token/ERC20/ERC20.sol\":8989:9117  function _approve(address owner, address spender, uint256 value) internal {... */\n    tag_106:\n        /* \"@openzeppelin/contracts/token/ERC20/ERC20.sol\":9073:9110  _approve(owner, spender, value, true) */\n      tag_177\n        /* \"@openzeppelin/contracts/token/ERC20/ERC20.sol\":9082:9087  owner */\n      dup4\n        /* \"@openzeppelin/contracts/token/ERC20/ERC20.sol\":9089:9096  spender */\n      dup4\n        /* \"@openzeppelin/contracts/token/ERC20/ERC20.sol\":9098:9103  value */\n      dup4\n        /* \"@openzeppelin/contracts/token/ERC20/ERC20.sol\":9105:9109  true */\n      0x01\n        /* \"@openzeppelin/contracts/token/ERC20/ERC20.sol\":9073:9081  _approve */\n      tag_178\n        /* \"@openzeppelin/contracts/token/ERC20/ERC20.sol\":9073:9110  _approve(owner, spender, value, true) */\n      jump\t// in\n    tag_177:\n        /* \"@openzeppelin/contracts/token/ERC20/ERC20.sol\":8989:9117  function _approve(address owner, address spender, uint256 value) internal {... */\n      pop\n      pop\n      pop\n      jump\t// out\n        /* \"@openzeppelin/contracts/token/ERC20/ERC20.sol\":10663:11140  function _spendAllowance(address owner, address spender, uint256 value) internal virtual {... */\n    tag_111:\n        /* \"@openzeppelin/contracts/token/ERC20/ERC20.sol\":10762:10786  uint256 currentAllowance */\n      0x00\n        /* \"@openzeppelin/contracts/token/ERC20/ERC20.sol\":10789:10814  allowance(owner, spender) */\n      tag_180\n        /* \"@openzeppelin/contracts/token/ERC20/ERC20.sol\":10799:10804  owner */\n      dup5\n        /* \"@openzeppelin/contracts/token/ERC20/ERC20.sol\":10806:10813  spender */\n      dup5\n        /* \"@openzeppelin/contracts/token/ERC20/ERC20.sol\":10789:10798  allowance */\n      tag_90\n        /* \"@openzeppelin/contracts/token/ERC20/ERC20.sol\":10789:10814  allowance(owner, spender) */\n      jump\t// in\n    tag_180:\n        /* \"@openzeppelin/contracts/token/ERC20/ERC20.sol\":10762:10814  uint256 currentAllowance = allowance(owner, spender) */\n      swap1\n      pop\n        /* \"@openzeppelin/contracts/token/ERC20/ERC20.sol\":10848:10865  type(uint256).max */\n      0xffffffffffffffffffffffffffffffffffffffffffffffffffffffffffffffff\n        /* \"@openzeppelin/contracts/token/ERC20/ERC20.sol\":10828:10844  currentAllowance */\n      dup2\n        /* \"@openzeppelin/contracts/token/ERC20/ERC20.sol\":10828:10865  currentAllowance != type(uint256).max */\n      eq\n        /* \"@openzeppelin/contracts/token/ERC20/ERC20.sol\":10824:11134  if (currentAllowance != type(uint256).max) {... */\n      tag_181\n      jumpi\n        /* \"@openzeppelin/contracts/token/ERC20/ERC20.sol\":10904:10909  value */\n      dup2\n        /* \"@openzeppelin/contracts/token/ERC20/ERC20.sol\":10885:10901  currentAllowance */\n      dup2\n        /* \"@openzeppelin/contracts/token/ERC20/ERC20.sol\":10885:10909  currentAllowance < value */\n      lt\n        /* \"@openzeppelin/contracts/token/ERC20/ERC20.sol\":10881:11011  if (currentAllowance < value) {... */\n      iszero\n      tag_182\n      jumpi\n        /* \"@openzeppelin/contracts/token/ERC20/ERC20.sol\":10963:10970  spender */\n      dup3\n        /* \"@openzeppelin/contracts/token/ERC20/ERC20.sol\":10972:10988  currentAllowance */\n      dup2\n        /* \"@openzeppelin/contracts/token/ERC20/ERC20.sol\":10990:10995  value */\n      dup4\n        /* \"@openzeppelin/contracts/token/ERC20/ERC20.sol\":10936:10996  ERC20InsufficientAllowance(spender, currentAllowance, value) */\n      mload(0x40)\n      0xfb8f41b200000000000000000000000000000000000000000000000000000000\n      dup2\n      mstore\n      0x04\n      add\n      tag_183\n      swap4\n      swap3\n      swap2\n      swap1\n      tag_184\n      jump\t// in\n    tag_183:\n      mload(0x40)\n      dup1\n      swap2\n      sub\n      swap1\n      revert\n        /* \"@openzeppelin/contracts/token/ERC20/ERC20.sol\":10881:11011  if (currentAllowance < value) {... */\n    tag_182:\n        /* \"@openzeppelin/contracts/token/ERC20/ERC20.sol\":11052:11109  _approve(owner, spender, currentAllowance - value, false) */\n      tag_185\n        /* \"@openzeppelin/contracts/token/ERC20/ERC20.sol\":11061:11066  owner */\n      dup5\n        /* \"@openzeppelin/contracts/token/ERC20/ERC20.sol\":11068:11075  spender */\n      dup5\n        /* \"@openzeppelin/contracts/token/ERC20/ERC20.sol\":11096:11101  value */\n      dup5\n        /* \"@openzeppelin/contracts/token/ERC20/ERC20.sol\":11077:11093  currentAllowance */\n      dup5\n        /* \"@openzeppelin/contracts/token/ERC20/ERC20.sol\":11077:11101  currentAllowance - value */\n      sub\n        /* \"@openzeppelin/contracts/token/ERC20/ERC20.sol\":11103:11108  false */\n      0x00\n        /* \"@openzeppelin/contracts/token/ERC20/ERC20.sol\":11052:11060  _approve */\n      tag_178\n        /* \"@openzeppelin/contracts/token/ERC20/ERC20.sol\":11052:11109  _approve(owner, spender, currentAllowance - value, false) */\n      jump\t// in\n    tag_185:\n        /* \"@openzeppelin/contracts/token/ERC20/ERC20.sol\":10824:11134  if (currentAllowance != type(uint256).max) {... */\n    tag_181:\n        /* \"@openzeppelin/contracts/token/ERC20/ERC20.sol\":10752:11140  {... */\n      pop\n        /* \"@openzeppelin/contracts/token/ERC20/ERC20.sol\":10663:11140  function _spendAllowance(address owner, address spender, uint256 value) internal virtual {... */\n      pop\n      pop\n      pop\n      jump\t// out\n        /* \"@openzeppelin/contracts/token/ERC20/ERC20.sol\":5656:5956  function _transfer(address from, address to, uint256 value) internal {... */\n    tag_113:\n        /* \"@openzeppelin/contracts/token/ERC20/ERC20.sol\":5755:5756  0 */\n      0x00\n        /* \"@openzeppelin/contracts/token/ERC20/ERC20.sol\":5739:5757  from == address(0) */\n      0xffffffffffffffffffffffffffffffffffffffff\n      and\n        /* \"@openzeppelin/contracts/token/ERC20/ERC20.sol\":5739:5743  from */\n      dup4\n        /* \"@openzeppelin/contracts/token/ERC20/ERC20.sol\":5739:5757  from == address(0) */\n      0xffffffffffffffffffffffffffffffffffffffff\n      and\n      sub\n        /* \"@openzeppelin/contracts/token/ERC20/ERC20.sol\":5735:5821  if (from == address(0)) {... */\n      tag_187\n      jumpi\n        /* \"@openzeppelin/contracts/token/ERC20/ERC20.sol\":5807:5808  0 */\n      0x00\n        /* \"@openzeppelin/contracts/token/ERC20/ERC20.sol\":5780:5810  ERC20InvalidSender(address(0)) */\n      mload(0x40)\n      0x96c6fd1e00000000000000000000000000000000000000000000000000000000\n      dup2\n      mstore\n      0x04\n      add\n      tag_188\n      swap2\n      swap1\n      tag_79\n      jump\t// in\n    tag_188:\n      mload(0x40)\n      dup1\n      swap2\n      sub\n      swap1\n      revert\n        /* \"@openzeppelin/contracts/token/ERC20/ERC20.sol\":5735:5821  if (from == address(0)) {... */\n    tag_187:\n        /* \"@openzeppelin/contracts/token/ERC20/ERC20.sol\":5848:5849  0 */\n      0x00\n        /* \"@openzeppelin/contracts/token/ERC20/ERC20.sol\":5834:5850  to == address(0) */\n      0xffffffffffffffffffffffffffffffffffffffff\n      and\n        /* \"@openzeppelin/contracts/token/ERC20/ERC20.sol\":5834:5836  to */\n      dup3\n        /* \"@openzeppelin/contracts/token/ERC20/ERC20.sol\":5834:5850  to == address(0) */\n      0xffffffffffffffffffffffffffffffffffffffff\n      and\n      sub\n        /* \"@openzeppelin/contracts/token/ERC20/ERC20.sol\":5830:5916  if (to == address(0)) {... */\n      tag_189\n      jumpi\n        /* \"@openzeppelin/contracts/token/ERC20/ERC20.sol\":5902:5903  0 */\n      0x00\n        /* \"@openzeppelin/contracts/token/ERC20/ERC20.sol\":5873:5905  ERC20InvalidReceiver(address(0)) */\n      mload(0x40)\n      0xec442f0500000000000000000000000000000000000000000000000000000000\n      dup2\n      mstore\n      0x04\n      add\n      tag_190\n      swap2\n      swap1\n      tag_79\n      jump\t// in\n    tag_190:\n      mload(0x40)\n      dup1\n      swap2\n      sub\n      swap1\n      revert\n        /* \"@openzeppelin/contracts/token/ERC20/ERC20.sol\":5830:5916  if (to == address(0)) {... */\n    tag_189:\n        /* \"@openzeppelin/contracts/token/ERC20/ERC20.sol\":5925:5949  _update(from, to, value) */\n      tag_191\n        /* \"@openzeppelin/contracts/token/ERC20/ERC20.sol\":5933:5937  from */\n      dup4\n        /* \"@openzeppelin/contracts/token/ERC20/ERC20.sol\":5939:5941  to */\n      dup4\n        /* \"@openzeppelin/contracts/token/ERC20/ERC20.sol\":5943:5948  value */\n      dup4\n        /* \"@openzeppelin/contracts/token/ERC20/ERC20.sol\":5925:5932  _update */\n      tag_192\n        /* \"@openzeppelin/contracts/token/ERC20/ERC20.sol\":5925:5949  _update(from, to, value) */\n      jump\t// in\n    tag_191:\n        /* \"@openzeppelin/contracts/token/ERC20/ERC20.sol\":5656:5956  function _transfer(address from, address to, uint256 value) internal {... */\n      pop\n      pop\n      pop\n      jump\t// out\n        /* \"@openzeppelin/contracts/access/Ownable.sol\":1796:1958  function _checkOwner() internal view virtual {... */\n    tag_117:\n        /* \"@openzeppelin/contracts/access/Ownable.sol\":1866:1878  _msgSender() */\n      tag_194\n        /* \"@openzeppelin/contracts/access/Ownable.sol\":1866:1876  _msgSender */\n      tag_104\n        /* \"@openzeppelin/contracts/access/Ownable.sol\":1866:1878  _msgSender() */\n      jump\t// in\n    tag_194:\n        /* \"@openzeppelin/contracts/access/Ownable.sol\":1855:1878  owner() != _msgSender() */\n      0xffffffffffffffffffffffffffffffffffffffff\n      and\n        /* \"@openzeppelin/contracts/access/Ownable.sol\":1855:1862  owner() */\n      tag_195\n        /* \"@openzeppelin/contracts/access/Ownable.sol\":1855:1860  owner */\n      tag_77\n        /* \"@openzeppelin/contracts/access/Ownable.sol\":1855:1862  owner() */\n      jump\t// in\n    tag_195:\n        /* \"@openzeppelin/contracts/access/Ownable.sol\":1855:1878  owner() != _msgSender() */\n      0xffffffffffffffffffffffffffffffffffffffff\n      and\n      eq\n        /* \"@openzeppelin/contracts/access/Ownable.sol\":1851:1952  if (owner() != _msgSender()) {... */\n      tag_196\n      jumpi\n        /* \"@openzeppelin/contracts/access/Ownable.sol\":1928:1940  _msgSender() */\n      tag_197\n        /* \"@openzeppelin/contracts/access/Ownable.sol\":1928:1938  _msgSender */\n      tag_104\n        /* \"@openzeppelin/contracts/access/Ownable.sol\":1928:1940  _msgSender() */\n      jump\t// in\n    tag_197:\n        /* \"@openzeppelin/contracts/access/Ownable.sol\":1901:1941  OwnableUnauthorizedAccount(_msgSender()) */\n      mload(0x40)\n      0x118cdaa700000000000000000000000000000000000000000000000000000000\n      dup2\n      mstore\n      0x04\n      add\n      tag_198\n      swap2\n      swap1\n      tag_79\n      jump\t// in\n    tag_198:\n      mload(0x40)\n      dup1\n      swap2\n      sub\n      swap1\n      revert\n        /* \"@openzeppelin/contracts/access/Ownable.sol\":1851:1952  if (owner() != _msgSender()) {... */\n    tag_196:\n        /* \"@openzeppelin/contracts/access/Ownable.sol\":1796:1958  function _checkOwner() internal view virtual {... */\n      jump\t// out\n        /* \"@openzeppelin/contracts/utils/Pausable.sol\":2710:2827  function _unpause() internal virtual whenPaused {... */\n    tag_120:\n        /* \"@openzeppelin/contracts/utils/Pausable.sol\":1721:1737  _requirePaused() */\n      tag_200\n        /* \"@openzeppelin/contracts/utils/Pausable.sol\":1721:1735  _requirePaused */\n      tag_201\n        /* \"@openzeppelin/contracts/utils/Pausable.sol\":1721:1737  _requirePaused() */\n      jump\t// in\n    tag_200:\n        /* \"@openzeppelin/contracts/utils/Pausable.sol\":2778:2783  false */\n      0x00\n        /* \"@openzeppelin/contracts/utils/Pausable.sol\":2768:2775  _paused */\n      0x05\n      0x00\n        /* \"@openzeppelin/contracts/utils/Pausable.sol\":2768:2783  _paused = false */\n      0x0100\n      exp\n      dup2\n      sload\n      dup2\n      0xff\n      mul\n      not\n      and\n      swap1\n      dup4\n      iszero\n      iszero\n      mul\n      or\n      swap1\n      sstore\n      pop\n        /* \"@openzeppelin/contracts/utils/Pausable.sol\":2798:2820  Unpaused(_msgSender()) */\n      0x5db9ee0a495bf2e6ff9c91a7834c1ba4fdd244a5e8aa4e537bd38aeae4b073aa\n        /* \"@openzeppelin/contracts/utils/Pausable.sol\":2807:2819  _msgSender() */\n      tag_203\n        /* \"@openzeppelin/contracts/utils/Pausable.sol\":2807:2817  _msgSender */\n      tag_104\n        /* \"@openzeppelin/contracts/utils/Pausable.sol\":2807:2819  _msgSender() */\n      jump\t// in\n    tag_203:\n        /* \"@openzeppelin/contracts/utils/Pausable.sol\":2798:2820  Unpaused(_msgSender()) */\n      mload(0x40)\n      tag_204\n      swap2\n      swap1\n      tag_79\n      jump\t// in\n    tag_204:\n      mload(0x40)\n      dup1\n      swap2\n      sub\n      swap1\n      log1\n        /* \"@openzeppelin/contracts/utils/Pausable.sol\":2710:2827  function _unpause() internal virtual whenPaused {... */\n      jump\t// out\n        /* \"@openzeppelin/contracts/token/ERC20/ERC20.sol\":7721:7929  function _mint(address account, uint256 value) internal {... */\n    tag_131:\n        /* \"@openzeppelin/contracts/token/ERC20/ERC20.sol\":7810:7811  0 */\n      0x00\n        /* \"@openzeppelin/contracts/token/ERC20/ERC20.sol\":7791:7812  account == address(0) */\n      0xffffffffffffffffffffffffffffffffffffffff\n      and\n        /* \"@openzeppelin/contracts/token/ERC20/ERC20.sol\":7791:7798  account */\n      dup3\n        /* \"@openzeppelin/contracts/token/ERC20/ERC20.sol\":7791:7812  account == address(0) */\n      0xffffffffffffffffffffffffffffffffffffffff\n      and\n      sub\n        /* \"@openzeppelin/contracts/token/ERC20/ERC20.sol\":7787:7878  if (account == address(0)) {... */\n      tag_206\n      jumpi\n        /* \"@openzeppelin/contracts/token/ERC20/ERC20.sol\":7864:7865  0 */\n      0x00\n        /* \"@openzeppelin/contracts/token/ERC20/ERC20.sol\":7835:7867  ERC20InvalidReceiver(address(0)) */\n      mload(0x40)\n      0xec442f0500000000000000000000000000000000000000000000000000000000\n      dup2\n      mstore\n      0x04\n      add\n      tag_207\n      swap2\n      swap1\n      tag_79\n      jump\t// in\n    tag_207:\n      mload(0x40)\n      dup1\n      swap2\n      sub\n      swap1\n      revert\n        /* \"@openzeppelin/contracts/token/ERC20/ERC20.sol\":7787:7878  if (account == address(0)) {... */\n    tag_206:\n        /* \"@openzeppelin/contracts/token/ERC20/ERC20.sol\":7887:7922  _update(address(0), account, value) */\n      tag_208\n        /* \"@openzeppelin/contracts/token/ERC20/ERC20.sol\":7903:7904  0 */\n      0x00\n        /* \"@openzeppelin/contracts/token/ERC20/ERC20.sol\":7907:7914  account */\n      dup4\n        /* \"@openzeppelin/contracts/token/ERC20/ERC20.sol\":7916:7921  value */\n      dup4\n        /* \"@openzeppelin/contracts/token/ERC20/ERC20.sol\":7887:7894  _update */\n      tag_192\n        /* \"@openzeppelin/contracts/token/ERC20/ERC20.sol\":7887:7922  _update(address(0), account, value) */\n      jump\t// in\n    tag_208:\n        /* \"@openzeppelin/contracts/token/ERC20/ERC20.sol\":7721:7929  function _mint(address account, uint256 value) internal {... */\n      pop\n      pop\n      jump\t// out\n        /* \"@openzeppelin/contracts/token/ERC20/ERC20.sol\":8247:8453  function _burn(address account, uint256 value) internal {... */\n    tag_135:\n        /* \"@openzeppelin/contracts/token/ERC20/ERC20.sol\":8336:8337  0 */\n      0x00\n        /* \"@openzeppelin/contracts/token/ERC20/ERC20.sol\":8317:8338  account == address(0) */\n      0xffffffffffffffffffffffffffffffffffffffff\n      and\n        /* \"@openzeppelin/contracts/token/ERC20/ERC20.sol\":8317:8324  account */\n      dup3\n        /* \"@openzeppelin/contracts/token/ERC20/ERC20.sol\":8317:8338  account == address(0) */\n      0xffffffffffffffffffffffffffffffffffffffff\n      and\n      sub\n        /* \"@openzeppelin/contracts/token/ERC20/ERC20.sol\":8313:8402  if (account == address(0)) {... */\n      tag_210\n      jumpi\n        /* \"@openzeppelin/contracts/token/ERC20/ERC20.sol\":8388:8389  0 */\n      0x00\n        /* \"@openzeppelin/contracts/token/ERC20/ERC20.sol\":8361:8391  ERC20InvalidSender(address(0)) */\n      mload(0x40)\n      0x96c6fd1e00000000000000000000000000000000000000000000000000000000\n      dup2\n      mstore\n      0x04\n      add\n      tag_211\n      swap2\n      swap1\n      tag_79\n      jump\t// in\n    tag_211:\n      mload(0x40)\n      dup1\n      swap2\n      sub\n      swap1\n      revert\n        /* \"@openzeppelin/contracts/token/ERC20/ERC20.sol\":8313:8402  if (account == address(0)) {... */\n    tag_210:\n        /* \"@openzeppelin/contracts/token/ERC20/ERC20.sol\":8411:8446  _update(account, address(0), value) */\n      tag_212\n        /* \"@openzeppelin/contracts/token/ERC20/ERC20.sol\":8419:8426  account */\n      dup3\n        /* \"@openzeppelin/contracts/token/ERC20/ERC20.sol\":8436:8437  0 */\n      0x00\n        /* \"@openzeppelin/contracts/token/ERC20/ERC20.sol\":8440:8445  value */\n      dup4\n        /* \"@openzeppelin/contracts/token/ERC20/ERC20.sol\":8411:8418  _update */\n      tag_192\n        /* \"@openzeppelin/contracts/token/ERC20/ERC20.sol\":8411:8446  _update(account, address(0), value) */\n      jump\t// in\n    tag_212:\n        /* \"@openzeppelin/contracts/token/ERC20/ERC20.sol\":8247:8453  function _burn(address account, uint256 value) internal {... */\n      pop\n      pop\n      jump\t// out\n        /* \"contracts/GeekToken/GeekToken.sol\":1265:2520  function tokenReward(uint256 cargoInsuredValue, Types.Acceptance acceptance) internal view returns (uint256) {... */\n    tag_138:\n        /* \"contracts/GeekToken/GeekToken.sol\":1365:1372  uint256 */\n      0x00\n        /* \"contracts/GeekToken/GeekToken.sol\":1384:1399  uint256 _reward */\n      dup1\n        /* \"contracts/GeekToken/GeekToken.sol\":1402:1403  0 */\n      0x00\n        /* \"contracts/GeekToken/GeekToken.sol\":1384:1403  uint256 _reward = 0 */\n      swap1\n      pop\n        /* \"contracts/GeekToken/GeekToken.sol\":1413:1433  uint256 _totalSupply */\n      0x00\n        /* \"contracts/GeekToken/GeekToken.sol\":1436:1449  totalSupply() */\n      tag_214\n        /* \"contracts/GeekToken/GeekToken.sol\":1436:1447  totalSupply */\n      tag_36\n        /* \"contracts/GeekToken/GeekToken.sol\":1436:1449  totalSupply() */\n      jump\t// in\n    tag_214:\n        /* \"contracts/GeekToken/GeekToken.sol\":1413:1449  uint256 _totalSupply = totalSupply() */\n      swap1\n      pop\n        /* \"contracts/GeekToken/GeekToken.sol\":1496:1499  100 */\n      0x64\n        /* \"contracts/GeekToken/GeekToken.sol\":1491:1493  25 */\n      0x19\n        /* \"contracts/GeekToken/GeekToken.sol\":1479:1488  maxSupply */\n      sload(0x06)\n        /* \"contracts/GeekToken/GeekToken.sol\":1479:1493  maxSupply * 25 */\n      tag_215\n      swap2\n      swap1\n      tag_216\n      jump\t// in\n    tag_215:\n        /* \"contracts/GeekToken/GeekToken.sol\":1479:1499  maxSupply * 25 / 100 */\n      tag_217\n      swap2\n      swap1\n      tag_218\n      jump\t// in\n    tag_217:\n        /* \"contracts/GeekToken/GeekToken.sol\":1462:1474  _totalSupply */\n      dup2\n        /* \"contracts/GeekToken/GeekToken.sol\":1462:1500  _totalSupply >= (maxSupply * 25 / 100) */\n      lt\n      iszero\n        /* \"contracts/GeekToken/GeekToken.sol\":1462:1541  _totalSupply >= (maxSupply * 25 / 100) && _totalSupply < (maxSupply * 50 / 100) */\n      dup1\n      iszero\n      tag_219\n      jumpi\n      pop\n        /* \"contracts/GeekToken/GeekToken.sol\":1537:1540  100 */\n      0x64\n        /* \"contracts/GeekToken/GeekToken.sol\":1532:1534  50 */\n      0x32\n        /* \"contracts/GeekToken/GeekToken.sol\":1520:1529  maxSupply */\n      sload(0x06)\n        /* \"contracts/GeekToken/GeekToken.sol\":1520:1534  maxSupply * 50 */\n      tag_220\n      swap2\n      swap1\n      tag_216\n      jump\t// in\n    tag_220:\n        /* \"contracts/GeekToken/GeekToken.sol\":1520:1540  maxSupply * 50 / 100 */\n      tag_221\n      swap2\n      swap1\n      tag_218\n      jump\t// in\n    tag_221:\n        /* \"contracts/GeekToken/GeekToken.sol\":1504:1516  _totalSupply */\n      dup2\n        /* \"contracts/GeekToken/GeekToken.sol\":1504:1541  _totalSupply < (maxSupply * 50 / 100) */\n      lt\n        /* \"contracts/GeekToken/GeekToken.sol\":1462:1541  _totalSupply >= (maxSupply * 25 / 100) && _totalSupply < (maxSupply * 50 / 100) */\n    tag_219:\n        /* \"contracts/GeekToken/GeekToken.sol\":1459:2489  if(_totalSupply >= (maxSupply * 25 / 100) && _totalSupply < (maxSupply * 50 / 100)) {... */\n      iszero\n      tag_222\n      jumpi\n        /* \"contracts/GeekToken/GeekToken.sol\":1574:1602  Types.Acceptance.CONDITIONAL */\n      0x00\n        /* \"contracts/GeekToken/GeekToken.sol\":1560:1602  acceptance == Types.Acceptance.CONDITIONAL */\n      0x01\n      dup2\n      gt\n      iszero\n      tag_223\n      jumpi\n      tag_224\n      tag_225\n      jump\t// in\n    tag_224:\n    tag_223:\n        /* \"contracts/GeekToken/GeekToken.sol\":1560:1570  acceptance */\n      dup5\n        /* \"contracts/GeekToken/GeekToken.sol\":1560:1602  acceptance == Types.Acceptance.CONDITIONAL */\n      0x01\n      dup2\n      gt\n      iszero\n      tag_226\n      jumpi\n      tag_227\n      tag_225\n      jump\t// in\n    tag_227:\n    tag_226:\n      sub\n        /* \"contracts/GeekToken/GeekToken.sol\":1557:1771  if(acceptance == Types.Acceptance.CONDITIONAL)... */\n      tag_228\n      jumpi\n        /* \"contracts/GeekToken/GeekToken.sol\":1675:1678  100 */\n      0x64\n        /* \"contracts/GeekToken/GeekToken.sol\":1661:1671  decimals() */\n      tag_229\n        /* \"contracts/GeekToken/GeekToken.sol\":1661:1669  decimals */\n      tag_45\n        /* \"contracts/GeekToken/GeekToken.sol\":1661:1671  decimals() */\n      jump\t// in\n    tag_229:\n        /* \"contracts/GeekToken/GeekToken.sol\":1655:1657  10 */\n      0x0a\n        /* \"contracts/GeekToken/GeekToken.sol\":1655:1671  10 ** decimals() */\n      tag_230\n      swap2\n      swap1\n      tag_231\n      jump\t// in\n    tag_230:\n        /* \"contracts/GeekToken/GeekToken.sol\":1634:1651  cargoInsuredValue */\n      dup7\n        /* \"contracts/GeekToken/GeekToken.sol\":1630:1631  2 */\n      0x02\n        /* \"contracts/GeekToken/GeekToken.sol\":1630:1651  2 * cargoInsuredValue */\n      tag_232\n      swap2\n      swap1\n      tag_216\n      jump\t// in\n    tag_232:\n        /* \"contracts/GeekToken/GeekToken.sol\":1630:1672  2 * cargoInsuredValue * (10 ** decimals()) */\n      tag_233\n      swap2\n      swap1\n      tag_216\n      jump\t// in\n    tag_233:\n        /* \"contracts/GeekToken/GeekToken.sol\":1630:1678  2 * cargoInsuredValue * (10 ** decimals()) / 100 */\n      tag_234\n      swap2\n      swap1\n      tag_218\n      jump\t// in\n    tag_234:\n        /* \"contracts/GeekToken/GeekToken.sol\":1620:1678  _reward = 2 * cargoInsuredValue * (10 ** decimals()) / 100 */\n      swap2\n      pop\n        /* \"contracts/GeekToken/GeekToken.sol\":1557:1771  if(acceptance == Types.Acceptance.CONDITIONAL)... */\n      jump(tag_235)\n    tag_228:\n        /* \"contracts/GeekToken/GeekToken.sol\":1768:1771  100 */\n      0x64\n        /* \"contracts/GeekToken/GeekToken.sol\":1754:1764  decimals() */\n      tag_236\n        /* \"contracts/GeekToken/GeekToken.sol\":1754:1762  decimals */\n      tag_45\n        /* \"contracts/GeekToken/GeekToken.sol\":1754:1764  decimals() */\n      jump\t// in\n    tag_236:\n        /* \"contracts/GeekToken/GeekToken.sol\":1748:1750  10 */\n      0x0a\n        /* \"contracts/GeekToken/GeekToken.sol\":1748:1764  10 ** decimals() */\n      tag_237\n      swap2\n      swap1\n      tag_231\n      jump\t// in\n    tag_237:\n        /* \"contracts/GeekToken/GeekToken.sol\":1727:1744  cargoInsuredValue */\n      dup7\n        /* \"contracts/GeekToken/GeekToken.sol\":1723:1724  1 */\n      0x01\n        /* \"contracts/GeekToken/GeekToken.sol\":1723:1744  1 * cargoInsuredValue */\n      tag_238\n      swap2\n      swap1\n      tag_216\n      jump\t// in\n    tag_238:\n        /* \"contracts/GeekToken/GeekToken.sol\":1723:1765  1 * cargoInsuredValue * (10 ** decimals()) */\n      tag_239\n      swap2\n      swap1\n      tag_216\n      jump\t// in\n    tag_239:\n        /* \"contracts/GeekToken/GeekToken.sol\":1723:1771  1 * cargoInsuredValue * (10 ** decimals()) / 100 */\n      tag_240\n      swap2\n      swap1\n      tag_218\n      jump\t// in\n    tag_240:\n        /* \"contracts/GeekToken/GeekToken.sol\":1713:1771  _reward = 1 * cargoInsuredValue * (10 ** decimals()) / 100 */\n      swap2\n      pop\n        /* \"contracts/GeekToken/GeekToken.sol\":1557:1771  if(acceptance == Types.Acceptance.CONDITIONAL)... */\n    tag_235:\n        /* \"contracts/GeekToken/GeekToken.sol\":1459:2489  if(_totalSupply >= (maxSupply * 25 / 100) && _totalSupply < (maxSupply * 50 / 100)) {... */\n      jump(tag_241)\n    tag_222:\n        /* \"contracts/GeekToken/GeekToken.sol\":1825:1828  100 */\n      0x64\n        /* \"contracts/GeekToken/GeekToken.sol\":1820:1822  50 */\n      0x32\n        /* \"contracts/GeekToken/GeekToken.sol\":1808:1817  maxSupply */\n      sload(0x06)\n        /* \"contracts/GeekToken/GeekToken.sol\":1808:1822  maxSupply * 50 */\n      tag_242\n      swap2\n      swap1\n      tag_216\n      jump\t// in\n    tag_242:\n        /* \"contracts/GeekToken/GeekToken.sol\":1808:1828  maxSupply * 50 / 100 */\n      tag_243\n      swap2\n      swap1\n      tag_218\n      jump\t// in\n    tag_243:\n        /* \"contracts/GeekToken/GeekToken.sol\":1791:1803  _totalSupply */\n      dup2\n        /* \"contracts/GeekToken/GeekToken.sol\":1791:1829  _totalSupply >= (maxSupply * 50 / 100) */\n      lt\n      iszero\n        /* \"contracts/GeekToken/GeekToken.sol\":1791:1870  _totalSupply >= (maxSupply * 50 / 100) && _totalSupply < (maxSupply * 75 / 100) */\n      dup1\n      iszero\n      tag_244\n      jumpi\n      pop\n        /* \"contracts/GeekToken/GeekToken.sol\":1866:1869  100 */\n      0x64\n        /* \"contracts/GeekToken/GeekToken.sol\":1861:1863  75 */\n      0x4b\n        /* \"contracts/GeekToken/GeekToken.sol\":1849:1858  maxSupply */\n      sload(0x06)\n        /* \"contracts/GeekToken/GeekToken.sol\":1849:1863  maxSupply * 75 */\n      tag_245\n      swap2\n      swap1\n      tag_216\n      jump\t// in\n    tag_245:\n        /* \"contracts/GeekToken/GeekToken.sol\":1849:1869  maxSupply * 75 / 100 */\n      tag_246\n      swap2\n      swap1\n      tag_218\n      jump\t// in\n    tag_246:\n        /* \"contracts/GeekToken/GeekToken.sol\":1833:1845  _totalSupply */\n      dup2\n        /* \"contracts/GeekToken/GeekToken.sol\":1833:1870  _totalSupply < (maxSupply * 75 / 100) */\n      lt\n        /* \"contracts/GeekToken/GeekToken.sol\":1791:1870  _totalSupply >= (maxSupply * 50 / 100) && _totalSupply < (maxSupply * 75 / 100) */\n    tag_244:\n        /* \"contracts/GeekToken/GeekToken.sol\":1788:2489  if(_totalSupply >= (maxSupply * 50 / 100) && _totalSupply < (maxSupply * 75 / 100)) {... */\n      iszero\n      tag_247\n      jumpi\n        /* \"contracts/GeekToken/GeekToken.sol\":1904:1932  Types.Acceptance.CONDITIONAL */\n      0x00\n        /* \"contracts/GeekToken/GeekToken.sol\":1890:1932  acceptance == Types.Acceptance.CONDITIONAL */\n      0x01\n      dup2\n      gt\n      iszero\n      tag_248\n      jumpi\n      tag_249\n      tag_225\n      jump\t// in\n    tag_249:\n    tag_248:\n        /* \"contracts/GeekToken/GeekToken.sol\":1890:1900  acceptance */\n      dup5\n        /* \"contracts/GeekToken/GeekToken.sol\":1890:1932  acceptance == Types.Acceptance.CONDITIONAL */\n      0x01\n      dup2\n      gt\n      iszero\n      tag_250\n      jumpi\n      tag_251\n      tag_225\n      jump\t// in\n    tag_251:\n    tag_250:\n      sub\n        /* \"contracts/GeekToken/GeekToken.sol\":1887:2102  if(acceptance == Types.Acceptance.CONDITIONAL)... */\n      tag_252\n      jumpi\n        /* \"contracts/GeekToken/GeekToken.sol\":2005:2008  100 */\n      0x64\n        /* \"contracts/GeekToken/GeekToken.sol\":1991:2001  decimals() */\n      tag_253\n        /* \"contracts/GeekToken/GeekToken.sol\":1991:1999  decimals */\n      tag_45\n        /* \"contracts/GeekToken/GeekToken.sol\":1991:2001  decimals() */\n      jump\t// in\n    tag_253:\n        /* \"contracts/GeekToken/GeekToken.sol\":1985:1987  10 */\n      0x0a\n        /* \"contracts/GeekToken/GeekToken.sol\":1985:2001  10 ** decimals() */\n      tag_254\n      swap2\n      swap1\n      tag_231\n      jump\t// in\n    tag_254:\n        /* \"contracts/GeekToken/GeekToken.sol\":1964:1981  cargoInsuredValue */\n      dup7\n        /* \"contracts/GeekToken/GeekToken.sol\":1960:1961  1 */\n      0x01\n        /* \"contracts/GeekToken/GeekToken.sol\":1960:1981  1 * cargoInsuredValue */\n      tag_255\n      swap2\n      swap1\n      tag_216\n      jump\t// in\n    tag_255:\n        /* \"contracts/GeekToken/GeekToken.sol\":1960:2002  1 * cargoInsuredValue * (10 ** decimals()) */\n      tag_256\n      swap2\n      swap1\n      tag_216\n      jump\t// in\n    tag_256:\n        /* \"contracts/GeekToken/GeekToken.sol\":1960:2008  1 * cargoInsuredValue * (10 ** decimals()) / 100 */\n      tag_257\n      swap2\n      swap1\n      tag_218\n      jump\t// in\n    tag_257:\n        /* \"contracts/GeekToken/GeekToken.sol\":1950:2008  _reward = 1 * cargoInsuredValue * (10 ** decimals()) / 100 */\n      swap2\n      pop\n        /* \"contracts/GeekToken/GeekToken.sol\":1887:2102  if(acceptance == Types.Acceptance.CONDITIONAL)... */\n      jump(tag_258)\n    tag_252:\n        /* \"contracts/GeekToken/GeekToken.sol\":2098:2102  1000 */\n      0x03e8\n        /* \"contracts/GeekToken/GeekToken.sol\":2084:2094  decimals() */\n      tag_259\n        /* \"contracts/GeekToken/GeekToken.sol\":2084:2092  decimals */\n      tag_45\n        /* \"contracts/GeekToken/GeekToken.sol\":2084:2094  decimals() */\n      jump\t// in\n    tag_259:\n        /* \"contracts/GeekToken/GeekToken.sol\":2078:2080  10 */\n      0x0a\n        /* \"contracts/GeekToken/GeekToken.sol\":2078:2094  10 ** decimals() */\n      tag_260\n      swap2\n      swap1\n      tag_231\n      jump\t// in\n    tag_260:\n        /* \"contracts/GeekToken/GeekToken.sol\":2057:2074  cargoInsuredValue */\n      dup7\n        /* \"contracts/GeekToken/GeekToken.sol\":2053:2054  5 */\n      0x05\n        /* \"contracts/GeekToken/GeekToken.sol\":2053:2074  5 * cargoInsuredValue */\n      tag_261\n      swap2\n      swap1\n      tag_216\n      jump\t// in\n    tag_261:\n        /* \"contracts/GeekToken/GeekToken.sol\":2053:2095  5 * cargoInsuredValue * (10 ** decimals()) */\n      tag_262\n      swap2\n      swap1\n      tag_216\n      jump\t// in\n    tag_262:\n        /* \"contracts/GeekToken/GeekToken.sol\":2053:2102  5 * cargoInsuredValue * (10 ** decimals()) / 1000 */\n      tag_263\n      swap2\n      swap1\n      tag_218\n      jump\t// in\n    tag_263:\n        /* \"contracts/GeekToken/GeekToken.sol\":2043:2102  _reward = 5 * cargoInsuredValue * (10 ** decimals()) / 1000 */\n      swap2\n      pop\n        /* \"contracts/GeekToken/GeekToken.sol\":1887:2102  if(acceptance == Types.Acceptance.CONDITIONAL)... */\n    tag_258:\n        /* \"contracts/GeekToken/GeekToken.sol\":1788:2489  if(_totalSupply >= (maxSupply * 50 / 100) && _totalSupply < (maxSupply * 75 / 100)) {... */\n      jump(tag_264)\n    tag_247:\n        /* \"contracts/GeekToken/GeekToken.sol\":2156:2159  100 */\n      0x64\n        /* \"contracts/GeekToken/GeekToken.sol\":2151:2153  75 */\n      0x4b\n        /* \"contracts/GeekToken/GeekToken.sol\":2139:2148  maxSupply */\n      sload(0x06)\n        /* \"contracts/GeekToken/GeekToken.sol\":2139:2153  maxSupply * 75 */\n      tag_265\n      swap2\n      swap1\n      tag_216\n      jump\t// in\n    tag_265:\n        /* \"contracts/GeekToken/GeekToken.sol\":2139:2159  maxSupply * 75 / 100 */\n      tag_266\n      swap2\n      swap1\n      tag_218\n      jump\t// in\n    tag_266:\n        /* \"contracts/GeekToken/GeekToken.sol\":2122:2134  _totalSupply */\n      dup2\n        /* \"contracts/GeekToken/GeekToken.sol\":2122:2160  _totalSupply >= (maxSupply * 75 / 100) */\n      lt\n      iszero\n        /* \"contracts/GeekToken/GeekToken.sol\":2122:2201  _totalSupply >= (maxSupply * 75 / 100) && _totalSupply < (maxSupply * 95 / 100) */\n      dup1\n      iszero\n      tag_267\n      jumpi\n      pop\n        /* \"contracts/GeekToken/GeekToken.sol\":2197:2200  100 */\n      0x64\n        /* \"contracts/GeekToken/GeekToken.sol\":2192:2194  95 */\n      0x5f\n        /* \"contracts/GeekToken/GeekToken.sol\":2180:2189  maxSupply */\n      sload(0x06)\n        /* \"contracts/GeekToken/GeekToken.sol\":2180:2194  maxSupply * 95 */\n      tag_268\n      swap2\n      swap1\n      tag_216\n      jump\t// in\n    tag_268:\n        /* \"contracts/GeekToken/GeekToken.sol\":2180:2200  maxSupply * 95 / 100 */\n      tag_269\n      swap2\n      swap1\n      tag_218\n      jump\t// in\n    tag_269:\n        /* \"contracts/GeekToken/GeekToken.sol\":2164:2176  _totalSupply */\n      dup2\n        /* \"contracts/GeekToken/GeekToken.sol\":2164:2201  _totalSupply < (maxSupply * 95 / 100) */\n      lt\n        /* \"contracts/GeekToken/GeekToken.sol\":2122:2201  _totalSupply >= (maxSupply * 75 / 100) && _totalSupply < (maxSupply * 95 / 100) */\n    tag_267:\n        /* \"contracts/GeekToken/GeekToken.sol\":2119:2489  if(_totalSupply >= (maxSupply * 75 / 100) && _totalSupply < (maxSupply * 95 / 100)) {... */\n      iszero\n      tag_270\n      jumpi\n        /* \"contracts/GeekToken/GeekToken.sol\":2235:2263  Types.Acceptance.CONDITIONAL */\n      0x00\n        /* \"contracts/GeekToken/GeekToken.sol\":2221:2263  acceptance == Types.Acceptance.CONDITIONAL */\n      0x01\n      dup2\n      gt\n      iszero\n      tag_271\n      jumpi\n      tag_272\n      tag_225\n      jump\t// in\n    tag_272:\n    tag_271:\n        /* \"contracts/GeekToken/GeekToken.sol\":2221:2231  acceptance */\n      dup5\n        /* \"contracts/GeekToken/GeekToken.sol\":2221:2263  acceptance == Types.Acceptance.CONDITIONAL */\n      0x01\n      dup2\n      gt\n      iszero\n      tag_273\n      jumpi\n      tag_274\n      tag_225\n      jump\t// in\n    tag_274:\n    tag_273:\n      sub\n        /* \"contracts/GeekToken/GeekToken.sol\":2218:2436  if(acceptance == Types.Acceptance.CONDITIONAL)... */\n      tag_275\n      jumpi\n        /* \"contracts/GeekToken/GeekToken.sol\":2336:2340  1000 */\n      0x03e8\n        /* \"contracts/GeekToken/GeekToken.sol\":2322:2332  decimals() */\n      tag_276\n        /* \"contracts/GeekToken/GeekToken.sol\":2322:2330  decimals */\n      tag_45\n        /* \"contracts/GeekToken/GeekToken.sol\":2322:2332  decimals() */\n      jump\t// in\n    tag_276:\n        /* \"contracts/GeekToken/GeekToken.sol\":2316:2318  10 */\n      0x0a\n        /* \"contracts/GeekToken/GeekToken.sol\":2316:2332  10 ** decimals() */\n      tag_277\n      swap2\n      swap1\n      tag_231\n      jump\t// in\n    tag_277:\n        /* \"contracts/GeekToken/GeekToken.sol\":2295:2312  cargoInsuredValue */\n      dup7\n        /* \"contracts/GeekToken/GeekToken.sol\":2291:2292  5 */\n      0x05\n        /* \"contracts/GeekToken/GeekToken.sol\":2291:2312  5 * cargoInsuredValue */\n      tag_278\n      swap2\n      swap1\n      tag_216\n      jump\t// in\n    tag_278:\n        /* \"contracts/GeekToken/GeekToken.sol\":2291:2333  5 * cargoInsuredValue * (10 ** decimals()) */\n      tag_279\n      swap2\n      swap1\n      tag_216\n      jump\t// in\n    tag_279:\n        /* \"contracts/GeekToken/GeekToken.sol\":2291:2340  5 * cargoInsuredValue * (10 ** decimals()) / 1000 */\n      tag_280\n      swap2\n      swap1\n      tag_218\n      jump\t// in\n    tag_280:\n        /* \"contracts/GeekToken/GeekToken.sol\":2281:2340  _reward = 5 * cargoInsuredValue * (10 ** decimals()) / 1000 */\n      swap2\n      pop\n        /* \"contracts/GeekToken/GeekToken.sol\":2218:2436  if(acceptance == Types.Acceptance.CONDITIONAL)... */\n      jump(tag_281)\n    tag_275:\n        /* \"contracts/GeekToken/GeekToken.sol\":2431:2436  10000 */\n      0x2710\n        /* \"contracts/GeekToken/GeekToken.sol\":2417:2427  decimals() */\n      tag_282\n        /* \"contracts/GeekToken/GeekToken.sol\":2417:2425  decimals */\n      tag_45\n        /* \"contracts/GeekToken/GeekToken.sol\":2417:2427  decimals() */\n      jump\t// in\n    tag_282:\n        /* \"contracts/GeekToken/GeekToken.sol\":2411:2413  10 */\n      0x0a\n        /* \"contracts/GeekToken/GeekToken.sol\":2411:2427  10 ** decimals() */\n      tag_283\n      swap2\n      swap1\n      tag_231\n      jump\t// in\n    tag_283:\n        /* \"contracts/GeekToken/GeekToken.sol\":2390:2407  cargoInsuredValue */\n      dup7\n        /* \"contracts/GeekToken/GeekToken.sol\":2385:2387  25 */\n      0x19\n        /* \"contracts/GeekToken/GeekToken.sol\":2385:2407  25 * cargoInsuredValue */\n      tag_284\n      swap2\n      swap1\n      tag_216\n      jump\t// in\n    tag_284:\n        /* \"contracts/GeekToken/GeekToken.sol\":2385:2428  25 * cargoInsuredValue * (10 ** decimals()) */\n      tag_285\n      swap2\n      swap1\n      tag_216\n      jump\t// in\n    tag_285:\n        /* \"contracts/GeekToken/GeekToken.sol\":2385:2436  25 * cargoInsuredValue * (10 ** decimals()) / 10000 */\n      tag_286\n      swap2\n      swap1\n      tag_218\n      jump\t// in\n    tag_286:\n        /* \"contracts/GeekToken/GeekToken.sol\":2375:2436  _reward = 25 * cargoInsuredValue * (10 ** decimals()) / 10000 */\n      swap2\n      pop\n        /* \"contracts/GeekToken/GeekToken.sol\":2218:2436  if(acceptance == Types.Acceptance.CONDITIONAL)... */\n    tag_281:\n        /* \"contracts/GeekToken/GeekToken.sol\":2119:2489  if(_totalSupply >= (maxSupply * 75 / 100) && _totalSupply < (maxSupply * 95 / 100)) {... */\n      jump(tag_287)\n    tag_270:\n        /* \"contracts/GeekToken/GeekToken.sol\":2477:2478  0 */\n      0x00\n        /* \"contracts/GeekToken/GeekToken.sol\":2467:2478  _reward = 0 */\n      swap2\n      pop\n        /* \"contracts/GeekToken/GeekToken.sol\":2119:2489  if(_totalSupply >= (maxSupply * 75 / 100) && _totalSupply < (maxSupply * 95 / 100)) {... */\n    tag_287:\n        /* \"contracts/GeekToken/GeekToken.sol\":1788:2489  if(_totalSupply >= (maxSupply * 50 / 100) && _totalSupply < (maxSupply * 75 / 100)) {... */\n    tag_264:\n        /* \"contracts/GeekToken/GeekToken.sol\":1459:2489  if(_totalSupply >= (maxSupply * 25 / 100) && _totalSupply < (maxSupply * 50 / 100)) {... */\n    tag_241:\n        /* \"contracts/GeekToken/GeekToken.sol\":2506:2513  _reward */\n      dup2\n        /* \"contracts/GeekToken/GeekToken.sol\":2499:2513  return _reward */\n      swap3\n      pop\n      pop\n      pop\n        /* \"contracts/GeekToken/GeekToken.sol\":1265:2520  function tokenReward(uint256 cargoInsuredValue, Types.Acceptance acceptance) internal view returns (uint256) {... */\n      swap3\n      swap2\n      pop\n      pop\n      jump\t// out\n        /* \"@openzeppelin/contracts/access/Ownable.sol\":2912:3099  function _transferOwnership(address newOwner) internal virtual {... */\n    tag_148:\n        /* \"@openzeppelin/contracts/access/Ownable.sol\":2985:3001  address oldOwner */\n      0x00\n        /* \"@openzeppelin/contracts/access/Ownable.sol\":3004:3010  _owner */\n      0x05\n      0x01\n      swap1\n      sload\n      swap1\n      0x0100\n      exp\n      swap1\n      div\n      0xffffffffffffffffffffffffffffffffffffffff\n      and\n        /* \"@openzeppelin/contracts/access/Ownable.sol\":2985:3010  address oldOwner = _owner */\n      swap1\n      pop\n        /* \"@openzeppelin/contracts/access/Ownable.sol\":3029:3037  newOwner */\n      dup2\n        /* \"@openzeppelin/contracts/access/Ownable.sol\":3020:3026  _owner */\n      0x05\n      0x01\n        /* \"@openzeppelin/contracts/access/Ownable.sol\":3020:3037  _owner = newOwner */\n      0x0100\n      exp\n      dup2\n      sload\n      dup2\n      0xffffffffffffffffffffffffffffffffffffffff\n      mul\n      not\n      and\n      swap1\n      dup4\n      0xffffffffffffffffffffffffffffffffffffffff\n      and\n      mul\n      or\n      swap1\n      sstore\n      pop\n        /* \"@openzeppelin/contracts/access/Ownable.sol\":3083:3091  newOwner */\n      dup2\n        /* \"@openzeppelin/contracts/access/Ownable.sol\":3052:3092  OwnershipTransferred(oldOwner, newOwner) */\n      0xffffffffffffffffffffffffffffffffffffffff\n      and\n        /* \"@openzeppelin/contracts/access/Ownable.sol\":3073:3081  oldOwner */\n      dup2\n        /* \"@openzeppelin/contracts/access/Ownable.sol\":3052:3092  OwnershipTransferred(oldOwner, newOwner) */\n      0xffffffffffffffffffffffffffffffffffffffff\n      and\n      0x8be0079c531659141344cd1fd0a4f28419497f9722a3daafe3b4186f6b6457e0\n      mload(0x40)\n      mload(0x40)\n      dup1\n      swap2\n      sub\n      swap1\n      log3\n        /* \"@openzeppelin/contracts/access/Ownable.sol\":2975:3099  {... */\n      pop\n        /* \"@openzeppelin/contracts/access/Ownable.sol\":2912:3099  function _transferOwnership(address newOwner) internal virtual {... */\n      pop\n      jump\t// out\n        /* \"@openzeppelin/contracts/utils/Pausable.sol\":2463:2578  function _pause() internal virtual whenNotPaused {... */\n    tag_157:\n        /* \"@openzeppelin/contracts/utils/Pausable.sol\":1474:1493  _requireNotPaused() */\n      tag_290\n        /* \"@openzeppelin/contracts/utils/Pausable.sol\":1474:1491  _requireNotPaused */\n      tag_291\n        /* \"@openzeppelin/contracts/utils/Pausable.sol\":1474:1493  _requireNotPaused() */\n      jump\t// in\n    tag_290:\n        /* \"@openzeppelin/contracts/utils/Pausable.sol\":2532:2536  true */\n      0x01\n        /* \"@openzeppelin/contracts/utils/Pausable.sol\":2522:2529  _paused */\n      0x05\n      0x00\n        /* \"@openzeppelin/contracts/utils/Pausable.sol\":2522:2536  _paused = true */\n      0x0100\n      exp\n      dup2\n      sload\n      dup2\n      0xff\n      mul\n      not\n      and\n      swap1\n      dup4\n      iszero\n      iszero\n      mul\n      or\n      swap1\n      sstore\n      pop\n        /* \"@openzeppelin/contracts/utils/Pausable.sol\":2551:2571  Paused(_msgSender()) */\n      0x62e78cea01bee320cd4e420270b5ea74000d11b0c9f74754ebdbfc544b05a258\n        /* \"@openzeppelin/contracts/utils/Pausable.sol\":2558:2570  _msgSender() */\n      tag_293\n        /* \"@openzeppelin/contracts/utils/Pausable.sol\":2558:2568  _msgSender */\n      tag_104\n        /* \"@openzeppelin/contracts/utils/Pausable.sol\":2558:2570  _msgSender() */\n      jump\t// in\n    tag_293:\n        /* \"@openzeppelin/contracts/utils/Pausable.sol\":2551:2571  Paused(_msgSender()) */\n      mload(0x40)\n      tag_294\n      swap2\n      swap1\n      tag_79\n      jump\t// in\n    tag_294:\n      mload(0x40)\n      dup1\n      swap2\n      sub\n      swap1\n      log1\n        /* \"@openzeppelin/contracts/utils/Pausable.sol\":2463:2578  function _pause() internal virtual whenNotPaused {... */\n      jump\t// out\n        /* \"@openzeppelin/contracts/token/ERC20/ERC20.sol\":9949:10381  function _approve(address owner, address spender, uint256 value, bool emitEvent) internal virtual {... */\n    tag_178:\n        /* \"@openzeppelin/contracts/token/ERC20/ERC20.sol\":10078:10079  0 */\n      0x00\n        /* \"@openzeppelin/contracts/token/ERC20/ERC20.sol\":10061:10080  owner == address(0) */\n      0xffffffffffffffffffffffffffffffffffffffff\n      and\n        /* \"@openzeppelin/contracts/token/ERC20/ERC20.sol\":10061:10066  owner */\n      dup5\n        /* \"@openzeppelin/contracts/token/ERC20/ERC20.sol\":10061:10080  owner == address(0) */\n      0xffffffffffffffffffffffffffffffffffffffff\n      and\n      sub\n        /* \"@openzeppelin/contracts/token/ERC20/ERC20.sol\":10057:10146  if (owner == address(0)) {... */\n      tag_296\n      jumpi\n        /* \"@openzeppelin/contracts/token/ERC20/ERC20.sol\":10132:10133  0 */\n      0x00\n        /* \"@openzeppelin/contracts/token/ERC20/ERC20.sol\":10103:10135  ERC20InvalidApprover(address(0)) */\n      mload(0x40)\n      0xe602df0500000000000000000000000000000000000000000000000000000000\n      dup2\n      mstore\n      0x04\n      add\n      tag_297\n      swap2\n      swap1\n      tag_79\n      jump\t// in\n    tag_297:\n      mload(0x40)\n      dup1\n      swap2\n      sub\n      swap1\n      revert\n        /* \"@openzeppelin/contracts/token/ERC20/ERC20.sol\":10057:10146  if (owner == address(0)) {... */\n    tag_296:\n        /* \"@openzeppelin/contracts/token/ERC20/ERC20.sol\":10178:10179  0 */\n      0x00\n        /* \"@openzeppelin/contracts/token/ERC20/ERC20.sol\":10159:10180  spender == address(0) */\n      0xffffffffffffffffffffffffffffffffffffffff\n      and\n        /* \"@openzeppelin/contracts/token/ERC20/ERC20.sol\":10159:10166  spender */\n      dup4\n        /* \"@openzeppelin/contracts/token/ERC20/ERC20.sol\":10159:10180  spender == address(0) */\n      0xffffffffffffffffffffffffffffffffffffffff\n      and\n      sub\n        /* \"@openzeppelin/contracts/token/ERC20/ERC20.sol\":10155:10245  if (spender == address(0)) {... */\n      tag_298\n      jumpi\n        /* \"@openzeppelin/contracts/token/ERC20/ERC20.sol\":10231:10232  0 */\n      0x00\n        /* \"@openzeppelin/contracts/token/ERC20/ERC20.sol\":10203:10234  ERC20InvalidSpender(address(0)) */\n      mload(0x40)\n      0x94280d6200000000000000000000000000000000000000000000000000000000\n      dup2\n      mstore\n      0x04\n      add\n      tag_299\n      swap2\n      swap1\n      tag_79\n      jump\t// in\n    tag_299:\n      mload(0x40)\n      dup1\n      swap2\n      sub\n      swap1\n      revert\n        /* \"@openzeppelin/contracts/token/ERC20/ERC20.sol\":10155:10245  if (spender == address(0)) {... */\n    tag_298:\n        /* \"@openzeppelin/contracts/token/ERC20/ERC20.sol\":10284:10289  value */\n      dup2\n        /* \"@openzeppelin/contracts/token/ERC20/ERC20.sol\":10254:10265  _allowances */\n      0x01\n        /* \"@openzeppelin/contracts/token/ERC20/ERC20.sol\":10254:10272  _allowances[owner] */\n      0x00\n        /* \"@openzeppelin/contracts/token/ERC20/ERC20.sol\":10266:10271  owner */\n      dup7\n        /* \"@openzeppelin/contracts/token/ERC20/ERC20.sol\":10254:10272  _allowances[owner] */\n      0xffffffffffffffffffffffffffffffffffffffff\n      and\n      0xffffffffffffffffffffffffffffffffffffffff\n      and\n      dup2\n      mstore\n      0x20\n      add\n      swap1\n      dup2\n      mstore\n      0x20\n      add\n      0x00\n      keccak256\n        /* \"@openzeppelin/contracts/token/ERC20/ERC20.sol\":10254:10281  _allowances[owner][spender] */\n      0x00\n        /* \"@openzeppelin/contracts/token/ERC20/ERC20.sol\":10273:10280  spender */\n      dup6\n        /* \"@openzeppelin/contracts/token/ERC20/ERC20.sol\":10254:10281  _allowances[owner][spender] */\n      0xffffffffffffffffffffffffffffffffffffffff\n      and\n      0xffffffffffffffffffffffffffffffffffffffff\n      and\n      dup2\n      mstore\n      0x20\n      add\n      swap1\n      dup2\n      mstore\n      0x20\n      add\n      0x00\n      keccak256\n        /* \"@openzeppelin/contracts/token/ERC20/ERC20.sol\":10254:10289  _allowances[owner][spender] = value */\n      dup2\n      swap1\n      sstore\n      pop\n        /* \"@openzeppelin/contracts/token/ERC20/ERC20.sol\":10303:10312  emitEvent */\n      dup1\n        /* \"@openzeppelin/contracts/token/ERC20/ERC20.sol\":10299:10375  if (emitEvent) {... */\n      iszero\n      tag_300\n      jumpi\n        /* \"@openzeppelin/contracts/token/ERC20/ERC20.sol\":10349:10356  spender */\n      dup3\n        /* \"@openzeppelin/contracts/token/ERC20/ERC20.sol\":10333:10364  Approval(owner, spender, value) */\n      0xffffffffffffffffffffffffffffffffffffffff\n      and\n        /* \"@openzeppelin/contracts/token/ERC20/ERC20.sol\":10342:10347  owner */\n      dup5\n        /* \"@openzeppelin/contracts/token/ERC20/ERC20.sol\":10333:10364  Approval(owner, spender, value) */\n      0xffffffffffffffffffffffffffffffffffffffff\n      and\n      0x8c5be1e5ebec7d5bd14f71427d1e84f3dd0314c0f7b2291e5b200ac8c7c3b925\n        /* \"@openzeppelin/contracts/token/ERC20/ERC20.sol\":10358:10363  value */\n      dup5\n        /* \"@openzeppelin/contracts/token/ERC20/ERC20.sol\":10333:10364  Approval(owner, spender, value) */\n      mload(0x40)\n      tag_301\n      swap2\n      swap1\n      tag_38\n      jump\t// in\n    tag_301:\n      mload(0x40)\n      dup1\n      swap2\n      sub\n      swap1\n      log3\n        /* \"@openzeppelin/contracts/token/ERC20/ERC20.sol\":10299:10375  if (emitEvent) {... */\n    tag_300:\n        /* \"@openzeppelin/contracts/token/ERC20/ERC20.sol\":9949:10381  function _approve(address owner, address spender, uint256 value, bool emitEvent) internal virtual {... */\n      pop\n      pop\n      pop\n      pop\n      jump\t// out\n        /* \"contracts/GeekToken/GeekToken.sol\":1094:1259  function _update(address from, address to, uint256 value)... */\n    tag_192:\n        /* \"contracts/GeekToken/GeekToken.sol\":1222:1252  super._update(from, to, value) */\n      tag_303\n        /* \"contracts/GeekToken/GeekToken.sol\":1236:1240  from */\n      dup4\n        /* \"contracts/GeekToken/GeekToken.sol\":1242:1244  to */\n      dup4\n        /* \"contracts/GeekToken/GeekToken.sol\":1246:1251  value */\n      dup4\n        /* \"contracts/GeekToken/GeekToken.sol\":1222:1235  super._update */\n      tag_304\n        /* \"contracts/GeekToken/GeekToken.sol\":1222:1252  super._update(from, to, value) */\n      jump\t// in\n    tag_303:\n        /* \"contracts/GeekToken/GeekToken.sol\":1094:1259  function _update(address from, address to, uint256 value)... */\n      pop\n      pop\n      pop\n      jump\t// out\n        /* \"@openzeppelin/contracts/utils/Pausable.sol\":2202:2328  function _requirePaused() internal view virtual {... */\n    tag_201:\n        /* \"@openzeppelin/contracts/utils/Pausable.sol\":2265:2273  paused() */\n      tag_306\n        /* \"@openzeppelin/contracts/utils/Pausable.sol\":2265:2271  paused */\n      tag_62\n        /* \"@openzeppelin/contracts/utils/Pausable.sol\":2265:2273  paused() */\n      jump\t// in\n    tag_306:\n        /* \"@openzeppelin/contracts/utils/Pausable.sol\":2260:2322  if (!paused()) {... */\n      tag_307\n      jumpi\n        /* \"@openzeppelin/contracts/utils/Pausable.sol\":2296:2311  ExpectedPause() */\n      mload(0x40)\n      0x8dfc202b00000000000000000000000000000000000000000000000000000000\n      dup2\n      mstore\n      0x04\n      add\n      mload(0x40)\n      dup1\n      swap2\n      sub\n      swap1\n      revert\n        /* \"@openzeppelin/contracts/utils/Pausable.sol\":2260:2322  if (!paused()) {... */\n    tag_307:\n        /* \"@openzeppelin/contracts/utils/Pausable.sol\":2202:2328  function _requirePaused() internal view virtual {... */\n      jump\t// out\n        /* \"@openzeppelin/contracts/utils/Pausable.sol\":2002:2130  function _requireNotPaused() internal view virtual {... */\n    tag_291:\n        /* \"@openzeppelin/contracts/utils/Pausable.sol\":2067:2075  paused() */\n      tag_309\n        /* \"@openzeppelin/contracts/utils/Pausable.sol\":2067:2073  paused */\n      tag_62\n        /* \"@openzeppelin/contracts/utils/Pausable.sol\":2067:2075  paused() */\n      jump\t// in\n    tag_309:\n        /* \"@openzeppelin/contracts/utils/Pausable.sol\":2063:2124  if (paused()) {... */\n      iszero\n      tag_310\n      jumpi\n        /* \"@openzeppelin/contracts/utils/Pausable.sol\":2098:2113  EnforcedPause() */\n      mload(0x40)\n      0xd93c066500000000000000000000000000000000000000000000000000000000\n      dup2\n      mstore\n      0x04\n      add\n      mload(0x40)\n      dup1\n      swap2\n      sub\n      swap1\n      revert\n        /* \"@openzeppelin/contracts/utils/Pausable.sol\":2063:2124  if (paused()) {... */\n    tag_310:\n        /* \"@openzeppelin/contracts/utils/Pausable.sol\":2002:2130  function _requireNotPaused() internal view virtual {... */\n      jump\t// out\n        /* \"@openzeppelin/contracts/token/ERC20/extensions/ERC20Pausable.sol\":1112:1257  function _update(address from, address to, uint256 value) internal virtual override whenNotPaused {... */\n    tag_304:\n        /* \"@openzeppelin/contracts/utils/Pausable.sol\":1474:1493  _requireNotPaused() */\n      tag_312\n        /* \"@openzeppelin/contracts/utils/Pausable.sol\":1474:1491  _requireNotPaused */\n      tag_291\n        /* \"@openzeppelin/contracts/utils/Pausable.sol\":1474:1493  _requireNotPaused() */\n      jump\t// in\n    tag_312:\n        /* \"@openzeppelin/contracts/token/ERC20/extensions/ERC20Pausable.sol\":1220:1250  super._update(from, to, value) */\n      tag_314\n        /* \"@openzeppelin/contracts/token/ERC20/extensions/ERC20Pausable.sol\":1234:1238  from */\n      dup4\n        /* \"@openzeppelin/contracts/token/ERC20/extensions/ERC20Pausable.sol\":1240:1242  to */\n      dup4\n        /* \"@openzeppelin/contracts/token/ERC20/extensions/ERC20Pausable.sol\":1244:1249  value */\n      dup4\n        /* \"@openzeppelin/contracts/token/ERC20/extensions/ERC20Pausable.sol\":1220:1233  super._update */\n      tag_315\n        /* \"@openzeppelin/contracts/token/ERC20/extensions/ERC20Pausable.sol\":1220:1250  super._update(from, to, value) */\n      jump\t// in\n    tag_314:\n        /* \"@openzeppelin/contracts/token/ERC20/extensions/ERC20Pausable.sol\":1112:1257  function _update(address from, address to, uint256 value) internal virtual override whenNotPaused {... */\n      pop\n      pop\n      pop\n      jump\t// out\n        /* \"@openzeppelin/contracts/token/ERC20/ERC20.sol\":6271:7378  function _update(address from, address to, uint256 value) internal virtual {... */\n    tag_315:\n        /* \"@openzeppelin/contracts/token/ERC20/ERC20.sol\":6376:6377  0 */\n      0x00\n        /* \"@openzeppelin/contracts/token/ERC20/ERC20.sol\":6360:6378  from == address(0) */\n      0xffffffffffffffffffffffffffffffffffffffff\n      and\n        /* \"@openzeppelin/contracts/token/ERC20/ERC20.sol\":6360:6364  from */\n      dup4\n        /* \"@openzeppelin/contracts/token/ERC20/ERC20.sol\":6360:6378  from == address(0) */\n      0xffffffffffffffffffffffffffffffffffffffff\n      and\n      sub\n        /* \"@openzeppelin/contracts/token/ERC20/ERC20.sol\":6356:6896  if (from == address(0)) {... */\n      tag_317\n      jumpi\n        /* \"@openzeppelin/contracts/token/ERC20/ERC20.sol\":6512:6517  value */\n      dup1\n        /* \"@openzeppelin/contracts/token/ERC20/ERC20.sol\":6496:6508  _totalSupply */\n      0x02\n      0x00\n        /* \"@openzeppelin/contracts/token/ERC20/ERC20.sol\":6496:6517  _totalSupply += value */\n      dup3\n      dup3\n      sload\n      tag_318\n      swap2\n      swap1\n      tag_126\n      jump\t// in\n    tag_318:\n      swap3\n      pop\n      pop\n      dup2\n      swap1\n      sstore\n      pop\n        /* \"@openzeppelin/contracts/token/ERC20/ERC20.sol\":6356:6896  if (from == address(0)) {... */\n      jump(tag_319)\n    tag_317:\n        /* \"@openzeppelin/contracts/token/ERC20/ERC20.sol\":6548:6567  uint256 fromBalance */\n      0x00\n        /* \"@openzeppelin/contracts/token/ERC20/ERC20.sol\":6570:6579  _balances */\n      dup1\n        /* \"@openzeppelin/contracts/token/ERC20/ERC20.sol\":6570:6585  _balances[from] */\n      0x00\n        /* \"@openzeppelin/contracts/token/ERC20/ERC20.sol\":6580:6584  from */\n      dup6\n        /* \"@openzeppelin/contracts/token/ERC20/ERC20.sol\":6570:6585  _balances[from] */\n      0xffffffffffffffffffffffffffffffffffffffff\n      and\n      0xffffffffffffffffffffffffffffffffffffffff\n      and\n      dup2\n      mstore\n      0x20\n      add\n      swap1\n      dup2\n      mstore\n      0x20\n      add\n      0x00\n      keccak256\n      sload\n        /* \"@openzeppelin/contracts/token/ERC20/ERC20.sol\":6548:6585  uint256 fromBalance = _balances[from] */\n      swap1\n      pop\n        /* \"@openzeppelin/contracts/token/ERC20/ERC20.sol\":6617:6622  value */\n      dup2\n        /* \"@openzeppelin/contracts/token/ERC20/ERC20.sol\":6603:6614  fromBalance */\n      dup2\n        /* \"@openzeppelin/contracts/token/ERC20/ERC20.sol\":6603:6622  fromBalance < value */\n      lt\n        /* \"@openzeppelin/contracts/token/ERC20/ERC20.sol\":6599:6714  if (fromBalance < value) {... */\n      iszero\n      tag_320\n      jumpi\n        /* \"@openzeppelin/contracts/token/ERC20/ERC20.sol\":6674:6678  from */\n      dup4\n        /* \"@openzeppelin/contracts/token/ERC20/ERC20.sol\":6680:6691  fromBalance */\n      dup2\n        /* \"@openzeppelin/contracts/token/ERC20/ERC20.sol\":6693:6698  value */\n      dup4\n        /* \"@openzeppelin/contracts/token/ERC20/ERC20.sol\":6649:6699  ERC20InsufficientBalance(from, fromBalance, value) */\n      mload(0x40)\n      0xe450d38c00000000000000000000000000000000000000000000000000000000\n      dup2\n      mstore\n      0x04\n      add\n      tag_321\n      swap4\n      swap3\n      swap2\n      swap1\n      tag_184\n      jump\t// in\n    tag_321:\n      mload(0x40)\n      dup1\n      swap2\n      sub\n      swap1\n      revert\n        /* \"@openzeppelin/contracts/token/ERC20/ERC20.sol\":6599:6714  if (fromBalance < value) {... */\n    tag_320:\n        /* \"@openzeppelin/contracts/token/ERC20/ERC20.sol\":6866:6871  value */\n      dup2\n        /* \"@openzeppelin/contracts/token/ERC20/ERC20.sol\":6852:6863  fromBalance */\n      dup2\n        /* \"@openzeppelin/contracts/token/ERC20/ERC20.sol\":6852:6871  fromBalance - value */\n      sub\n        /* \"@openzeppelin/contracts/token/ERC20/ERC20.sol\":6834:6843  _balances */\n      0x00\n        /* \"@openzeppelin/contracts/token/ERC20/ERC20.sol\":6834:6849  _balances[from] */\n      dup1\n        /* \"@openzeppelin/contracts/token/ERC20/ERC20.sol\":6844:6848  from */\n      dup7\n        /* \"@openzeppelin/contracts/token/ERC20/ERC20.sol\":6834:6849  _balances[from] */\n      0xffffffffffffffffffffffffffffffffffffffff\n      and\n      0xffffffffffffffffffffffffffffffffffffffff\n      and\n      dup2\n      mstore\n      0x20\n      add\n      swap1\n      dup2\n      mstore\n      0x20\n      add\n      0x00\n      keccak256\n        /* \"@openzeppelin/contracts/token/ERC20/ERC20.sol\":6834:6871  _balances[from] = fromBalance - value */\n      dup2\n      swap1\n      sstore\n      pop\n        /* \"@openzeppelin/contracts/token/ERC20/ERC20.sol\":6534:6896  {... */\n      pop\n        /* \"@openzeppelin/contracts/token/ERC20/ERC20.sol\":6356:6896  if (from == address(0)) {... */\n    tag_319:\n        /* \"@openzeppelin/contracts/token/ERC20/ERC20.sol\":6924:6925  0 */\n      0x00\n        /* \"@openzeppelin/contracts/token/ERC20/ERC20.sol\":6910:6926  to == address(0) */\n      0xffffffffffffffffffffffffffffffffffffffff\n      and\n        /* \"@openzeppelin/contracts/token/ERC20/ERC20.sol\":6910:6912  to */\n      dup3\n        /* \"@openzeppelin/contracts/token/ERC20/ERC20.sol\":6910:6926  to == address(0) */\n      0xffffffffffffffffffffffffffffffffffffffff\n      and\n      sub\n        /* \"@openzeppelin/contracts/token/ERC20/ERC20.sol\":6906:7331  if (to == address(0)) {... */\n      tag_322\n      jumpi\n        /* \"@openzeppelin/contracts/token/ERC20/ERC20.sol\":7089:7094  value */\n      dup1\n        /* \"@openzeppelin/contracts/token/ERC20/ERC20.sol\":7073:7085  _totalSupply */\n      0x02\n      0x00\n        /* \"@openzeppelin/contracts/token/ERC20/ERC20.sol\":7073:7094  _totalSupply -= value */\n      dup3\n      dup3\n      sload\n      sub\n      swap3\n      pop\n      pop\n      dup2\n      swap1\n      sstore\n      pop\n        /* \"@openzeppelin/contracts/token/ERC20/ERC20.sol\":6906:7331  if (to == address(0)) {... */\n      jump(tag_323)\n    tag_322:\n        /* \"@openzeppelin/contracts/token/ERC20/ERC20.sol\":7301:7306  value */\n      dup1\n        /* \"@openzeppelin/contracts/token/ERC20/ERC20.sol\":7284:7293  _balances */\n      0x00\n        /* \"@openzeppelin/contracts/token/ERC20/ERC20.sol\":7284:7297  _balances[to] */\n      dup1\n        /* \"@openzeppelin/contracts/token/ERC20/ERC20.sol\":7294:7296  to */\n      dup5\n        /* \"@openzeppelin/contracts/token/ERC20/ERC20.sol\":7284:7297  _balances[to] */\n      0xffffffffffffffffffffffffffffffffffffffff\n      and\n      0xffffffffffffffffffffffffffffffffffffffff\n      and\n      dup2\n      mstore\n      0x20\n      add\n      swap1\n      dup2\n      mstore\n      0x20\n      add\n      0x00\n      keccak256\n      0x00\n        /* \"@openzeppelin/contracts/token/ERC20/ERC20.sol\":7284:7306  _balances[to] += value */\n      dup3\n      dup3\n      sload\n      add\n      swap3\n      pop\n      pop\n      dup2\n      swap1\n      sstore\n      pop\n        /* \"@openzeppelin/contracts/token/ERC20/ERC20.sol\":6906:7331  if (to == address(0)) {... */\n    tag_323:\n        /* \"@openzeppelin/contracts/token/ERC20/ERC20.sol\":7361:7363  to */\n      dup2\n        /* \"@openzeppelin/contracts/token/ERC20/ERC20.sol\":7346:7371  Transfer(from, to, value) */\n      0xffffffffffffffffffffffffffffffffffffffff\n      and\n        /* \"@openzeppelin/contracts/token/ERC20/ERC20.sol\":7355:7359  from */\n      dup4\n        /* \"@openzeppelin/contracts/token/ERC20/ERC20.sol\":7346:7371  Transfer(from, to, value) */\n      0xffffffffffffffffffffffffffffffffffffffff\n      and\n      0xddf252ad1be2c89b69c2b068fc378daa952ba7f163c4a11628f55a4df523b3ef\n        /* \"@openzeppelin/contracts/token/ERC20/ERC20.sol\":7365:7370  value */\n      dup4\n        /* \"@openzeppelin/contracts/token/ERC20/ERC20.sol\":7346:7371  Transfer(from, to, value) */\n      mload(0x40)\n      tag_324\n      swap2\n      swap1\n      tag_38\n      jump\t// in\n    tag_324:\n      mload(0x40)\n      dup1\n      swap2\n      sub\n      swap1\n      log3\n        /* \"@openzeppelin/contracts/token/ERC20/ERC20.sol\":6271:7378  function _update(address from, address to, uint256 value) internal virtual {... */\n      pop\n      pop\n      pop\n      jump\t// out\n        /* \"#utility.yul\":7:106   */\n    tag_325:\n        /* \"#utility.yul\":59:65   */\n      0x00\n        /* \"#utility.yul\":93:98   */\n      dup2\n        /* \"#utility.yul\":87:99   */\n      mload\n        /* \"#utility.yul\":77:99   */\n      swap1\n      pop\n        /* \"#utility.yul\":7:106   */\n      swap2\n      swap1\n      pop\n      jump\t// out\n        /* \"#utility.yul\":112:281   */\n    tag_326:\n        /* \"#utility.yul\":196:207   */\n      0x00\n        /* \"#utility.yul\":230:236   */\n      dup3\n        /* \"#utility.yul\":225:228   */\n      dup3\n        /* \"#utility.yul\":218:237   */\n      mstore\n        /* \"#utility.yul\":270:274   */\n      0x20\n        /* \"#utility.yul\":265:268   */\n      dup3\n        /* \"#utility.yul\":261:275   */\n      add\n        /* \"#utility.yul\":246:275   */\n      swap1\n      pop\n        /* \"#utility.yul\":112:281   */\n      swap3\n      swap2\n      pop\n      pop\n      jump\t// out\n        /* \"#utility.yul\":287:533   */\n    tag_327:\n        /* \"#utility.yul\":368:369   */\n      0x00\n        /* \"#utility.yul\":378:491   */\n    tag_360:\n        /* \"#utility.yul\":392:398   */\n      dup4\n        /* \"#utility.yul\":389:390   */\n      dup2\n        /* \"#utility.yul\":386:399   */\n      lt\n        /* \"#utility.yul\":378:491   */\n      iszero\n      tag_362\n      jumpi\n        /* \"#utility.yul\":477:478   */\n      dup1\n        /* \"#utility.yul\":472:475   */\n      dup3\n        /* \"#utility.yul\":468:479   */\n      add\n        /* \"#utility.yul\":462:480   */\n      mload\n        /* \"#utility.yul\":458:459   */\n      dup2\n        /* \"#utility.yul\":453:456   */\n      dup5\n        /* \"#utility.yul\":449:460   */\n      add\n        /* \"#utility.yul\":442:481   */\n      mstore\n        /* \"#utility.yul\":414:416   */\n      0x20\n        /* \"#utility.yul\":411:412   */\n      dup2\n        /* \"#utility.yul\":407:417   */\n      add\n        /* \"#utility.yul\":402:417   */\n      swap1\n      pop\n        /* \"#utility.yul\":378:491   */\n      jump(tag_360)\n    tag_362:\n        /* \"#utility.yul\":525:526   */\n      0x00\n        /* \"#utility.yul\":516:522   */\n      dup5\n        /* \"#utility.yul\":511:514   */\n      dup5\n        /* \"#utility.yul\":507:523   */\n      add\n        /* \"#utility.yul\":500:527   */\n      mstore\n        /* \"#utility.yul\":349:533   */\n      pop\n        /* \"#utility.yul\":287:533   */\n      pop\n      pop\n      pop\n      jump\t// out\n        /* \"#utility.yul\":539:641   */\n    tag_328:\n        /* \"#utility.yul\":580:586   */\n      0x00\n        /* \"#utility.yul\":631:633   */\n      0x1f\n        /* \"#utility.yul\":627:634   */\n      not\n        /* \"#utility.yul\":622:624   */\n      0x1f\n        /* \"#utility.yul\":615:620   */\n      dup4\n        /* \"#utility.yul\":611:625   */\n      add\n        /* \"#utility.yul\":607:635   */\n      and\n        /* \"#utility.yul\":597:635   */\n      swap1\n      pop\n        /* \"#utility.yul\":539:641   */\n      swap2\n      swap1\n      pop\n      jump\t// out\n        /* \"#utility.yul\":647:1024   */\n    tag_329:\n        /* \"#utility.yul\":735:738   */\n      0x00\n        /* \"#utility.yul\":763:802   */\n      tag_365\n        /* \"#utility.yul\":796:801   */\n      dup3\n        /* \"#utility.yul\":763:802   */\n      tag_325\n      jump\t// in\n    tag_365:\n        /* \"#utility.yul\":818:889   */\n      tag_366\n        /* \"#utility.yul\":882:888   */\n      dup2\n        /* \"#utility.yul\":877:880   */\n      dup6\n        /* \"#utility.yul\":818:889   */\n      tag_326\n      jump\t// in\n    tag_366:\n        /* \"#utility.yul\":811:889   */\n      swap4\n      pop\n        /* \"#utility.yul\":898:963   */\n      tag_367\n        /* \"#utility.yul\":956:962   */\n      dup2\n        /* \"#utility.yul\":951:954   */\n      dup6\n        /* \"#utility.yul\":944:948   */\n      0x20\n        /* \"#utility.yul\":937:942   */\n      dup7\n        /* \"#utility.yul\":933:949   */\n      add\n        /* \"#utility.yul\":898:963   */\n      tag_327\n      jump\t// in\n    tag_367:\n        /* \"#utility.yul\":988:1017   */\n      tag_368\n        /* \"#utility.yul\":1010:1016   */\n      dup2\n        /* \"#utility.yul\":988:1017   */\n      tag_328\n      jump\t// in\n    tag_368:\n        /* \"#utility.yul\":983:986   */\n      dup5\n        /* \"#utility.yul\":979:1018   */\n      add\n        /* \"#utility.yul\":972:1018   */\n      swap2\n      pop\n        /* \"#utility.yul\":739:1024   */\n      pop\n        /* \"#utility.yul\":647:1024   */\n      swap3\n      swap2\n      pop\n      pop\n      jump\t// out\n        /* \"#utility.yul\":1030:1343   */\n    tag_28:\n        /* \"#utility.yul\":1143:1147   */\n      0x00\n        /* \"#utility.yul\":1181:1183   */\n      0x20\n        /* \"#utility.yul\":1170:1179   */\n      dup3\n        /* \"#utility.yul\":1166:1184   */\n      add\n        /* \"#utility.yul\":1158:1184   */\n      swap1\n      pop\n        /* \"#utility.yul\":1230:1239   */\n      dup2\n        /* \"#utility.yul\":1224:1228   */\n      dup2\n        /* \"#utility.yul\":1220:1240   */\n      sub\n        /* \"#utility.yul\":1216:1217   */\n      0x00\n        /* \"#utility.yul\":1205:1214   */\n      dup4\n        /* \"#utility.yul\":1201:1218   */\n      add\n        /* \"#utility.yul\":1194:1241   */\n      mstore\n        /* \"#utility.yul\":1258:1336   */\n      tag_370\n        /* \"#utility.yul\":1331:1335   */\n      dup2\n        /* \"#utility.yul\":1322:1328   */\n      dup5\n        /* \"#utility.yul\":1258:1336   */\n      tag_329\n      jump\t// in\n    tag_370:\n        /* \"#utility.yul\":1250:1336   */\n      swap1\n      pop\n        /* \"#utility.yul\":1030:1343   */\n      swap3\n      swap2\n      pop\n      pop\n      jump\t// out\n        /* \"#utility.yul\":1430:1547   */\n    tag_331:\n        /* \"#utility.yul\":1539:1540   */\n      0x00\n        /* \"#utility.yul\":1536:1537   */\n      dup1\n        /* \"#utility.yul\":1529:1541   */\n      revert\n        /* \"#utility.yul\":1676:1802   */\n    tag_333:\n        /* \"#utility.yul\":1713:1720   */\n      0x00\n        /* \"#utility.yul\":1753:1795   */\n      0xffffffffffffffffffffffffffffffffffffffff\n        /* \"#utility.yul\":1746:1751   */\n      dup3\n        /* \"#utility.yul\":1742:1796   */\n      and\n        /* \"#utility.yul\":1731:1796   */\n      swap1\n      pop\n        /* \"#utility.yul\":1676:1802   */\n      swap2\n      swap1\n      pop\n      jump\t// out\n        /* \"#utility.yul\":1808:1904   */\n    tag_334:\n        /* \"#utility.yul\":1845:1852   */\n      0x00\n        /* \"#utility.yul\":1874:1898   */\n      tag_376\n        /* \"#utility.yul\":1892:1897   */\n      dup3\n        /* \"#utility.yul\":1874:1898   */\n      tag_333\n      jump\t// in\n    tag_376:\n        /* \"#utility.yul\":1863:1898   */\n      swap1\n      pop\n        /* \"#utility.yul\":1808:1904   */\n      swap2\n      swap1\n      pop\n      jump\t// out\n        /* \"#utility.yul\":1910:2032   */\n    tag_335:\n        /* \"#utility.yul\":1983:2007   */\n      tag_378\n        /* \"#utility.yul\":2001:2006   */\n      dup2\n        /* \"#utility.yul\":1983:2007   */\n      tag_334\n      jump\t// in\n    tag_378:\n        /* \"#utility.yul\":1976:1981   */\n      dup2\n        /* \"#utility.yul\":1973:2008   */\n      eq\n        /* \"#utility.yul\":1963:2026   */\n      tag_379\n      jumpi\n        /* \"#utility.yul\":2022:2023   */\n      0x00\n        /* \"#utility.yul\":2019:2020   */\n      dup1\n        /* \"#utility.yul\":2012:2024   */\n      revert\n        /* \"#utility.yul\":1963:2026   */\n    tag_379:\n        /* \"#utility.yul\":1910:2032   */\n      pop\n      jump\t// out\n        /* \"#utility.yul\":2038:2177   */\n    tag_336:\n        /* \"#utility.yul\":2084:2089   */\n      0x00\n        /* \"#utility.yul\":2122:2128   */\n      dup2\n        /* \"#utility.yul\":2109:2129   */\n      calldataload\n        /* \"#utility.yul\":2100:2129   */\n      swap1\n      pop\n        /* \"#utility.yul\":2138:2171   */\n      tag_381\n        /* \"#utility.yul\":2165:2170   */\n      dup2\n        /* \"#utility.yul\":2138:2171   */\n      tag_335\n      jump\t// in\n    tag_381:\n        /* \"#utility.yul\":2038:2177   */\n      swap3\n      swap2\n      pop\n      pop\n      jump\t// out\n        /* \"#utility.yul\":2183:2260   */\n    tag_337:\n        /* \"#utility.yul\":2220:2227   */\n      0x00\n        /* \"#utility.yul\":2249:2254   */\n      dup2\n        /* \"#utility.yul\":2238:2254   */\n      swap1\n      pop\n        /* \"#utility.yul\":2183:2260   */\n      swap2\n      swap1\n      pop\n      jump\t// out\n        /* \"#utility.yul\":2266:2388   */\n    tag_338:\n        /* \"#utility.yul\":2339:2363   */\n      tag_384\n        /* \"#utility.yul\":2357:2362   */\n      dup2\n        /* \"#utility.yul\":2339:2363   */\n      tag_337\n      jump\t// in\n    tag_384:\n        /* \"#utility.yul\":2332:2337   */\n      dup2\n        /* \"#utility.yul\":2329:2364   */\n      eq\n        /* \"#utility.yul\":2319:2382   */\n      tag_385\n      jumpi\n        /* \"#utility.yul\":2378:2379   */\n      0x00\n        /* \"#utility.yul\":2375:2376   */\n      dup1\n        /* \"#utility.yul\":2368:2380   */\n      revert\n        /* \"#utility.yul\":2319:2382   */\n    tag_385:\n        /* \"#utility.yul\":2266:2388   */\n      pop\n      jump\t// out\n        /* \"#utility.yul\":2394:2533   */\n    tag_339:\n        /* \"#utility.yul\":2440:2445   */\n      0x00\n        /* \"#utility.yul\":2478:2484   */\n      dup2\n        /* \"#utility.yul\":2465:2485   */\n      calldataload\n        /* \"#utility.yul\":2456:2485   */\n      swap1\n      pop\n        /* \"#utility.yul\":2494:2527   */\n      tag_387\n        /* \"#utility.yul\":2521:2526   */\n      dup2\n        /* \"#utility.yul\":2494:2527   */\n      tag_338\n      jump\t// in\n    tag_387:\n        /* \"#utility.yul\":2394:2533   */\n      swap3\n      swap2\n      pop\n      pop\n      jump\t// out\n        /* \"#utility.yul\":2539:3013   */\n    tag_31:\n        /* \"#utility.yul\":2607:2613   */\n      0x00\n        /* \"#utility.yul\":2615:2621   */\n      dup1\n        /* \"#utility.yul\":2664:2666   */\n      0x40\n        /* \"#utility.yul\":2652:2661   */\n      dup4\n        /* \"#utility.yul\":2643:2650   */\n      dup6\n        /* \"#utility.yul\":2639:2662   */\n      sub\n        /* \"#utility.yul\":2635:2667   */\n      slt\n        /* \"#utility.yul\":2632:2751   */\n      iszero\n      tag_389\n      jumpi\n        /* \"#utility.yul\":2670:2749   */\n      tag_390\n      tag_331\n      jump\t// in\n    tag_390:\n        /* \"#utility.yul\":2632:2751   */\n    tag_389:\n        /* \"#utility.yul\":2790:2791   */\n      0x00\n        /* \"#utility.yul\":2815:2868   */\n      tag_391\n        /* \"#utility.yul\":2860:2867   */\n      dup6\n        /* \"#utility.yul\":2851:2857   */\n      dup3\n        /* \"#utility.yul\":2840:2849   */\n      dup7\n        /* \"#utility.yul\":2836:2858   */\n      add\n        /* \"#utility.yul\":2815:2868   */\n      tag_336\n      jump\t// in\n    tag_391:\n        /* \"#utility.yul\":2805:2868   */\n      swap3\n      pop\n        /* \"#utility.yul\":2761:2878   */\n      pop\n        /* \"#utility.yul\":2917:2919   */\n      0x20\n        /* \"#utility.yul\":2943:2996   */\n      tag_392\n        /* \"#utility.yul\":2988:2995   */\n      dup6\n        /* \"#utility.yul\":2979:2985   */\n      dup3\n        /* \"#utility.yul\":2968:2977   */\n      dup7\n        /* \"#utility.yul\":2964:2986   */\n      add\n        /* \"#utility.yul\":2943:2996   */\n      tag_339\n      jump\t// in\n    tag_392:\n        /* \"#utility.yul\":2933:2996   */\n      swap2\n      pop\n        /* \"#utility.yul\":2888:3006   */\n      pop\n        /* \"#utility.yul\":2539:3013   */\n      swap3\n      pop\n      swap3\n      swap1\n      pop\n      jump\t// out\n        /* \"#utility.yul\":3019:3109   */\n    tag_340:\n        /* \"#utility.yul\":3053:3060   */\n      0x00\n        /* \"#utility.yul\":3096:3101   */\n      dup2\n        /* \"#utility.yul\":3089:3102   */\n      iszero\n        /* \"#utility.yul\":3082:3103   */\n      iszero\n        /* \"#utility.yul\":3071:3103   */\n      swap1\n      pop\n        /* \"#utility.yul\":3019:3109   */\n      swap2\n      swap1\n      pop\n      jump\t// out\n        /* \"#utility.yul\":3115:3224   */\n    tag_341:\n        /* \"#utility.yul\":3196:3217   */\n      tag_395\n        /* \"#utility.yul\":3211:3216   */\n      dup2\n        /* \"#utility.yul\":3196:3217   */\n      tag_340\n      jump\t// in\n    tag_395:\n        /* \"#utility.yul\":3191:3194   */\n      dup3\n        /* \"#utility.yul\":3184:3218   */\n      mstore\n        /* \"#utility.yul\":3115:3224   */\n      pop\n      pop\n      jump\t// out\n        /* \"#utility.yul\":3230:3440   */\n    tag_34:\n        /* \"#utility.yul\":3317:3321   */\n      0x00\n        /* \"#utility.yul\":3355:3357   */\n      0x20\n        /* \"#utility.yul\":3344:3353   */\n      dup3\n        /* \"#utility.yul\":3340:3358   */\n      add\n        /* \"#utility.yul\":3332:3358   */\n      swap1\n      pop\n        /* \"#utility.yul\":3368:3433   */\n      tag_397\n        /* \"#utility.yul\":3430:3431   */\n      0x00\n        /* \"#utility.yul\":3419:3428   */\n      dup4\n        /* \"#utility.yul\":3415:3432   */\n      add\n        /* \"#utility.yul\":3406:3412   */\n      dup5\n        /* \"#utility.yul\":3368:3433   */\n      tag_341\n      jump\t// in\n    tag_397:\n        /* \"#utility.yul\":3230:3440   */\n      swap3\n      swap2\n      pop\n      pop\n      jump\t// out\n        /* \"#utility.yul\":3446:3564   */\n    tag_342:\n        /* \"#utility.yul\":3533:3557   */\n      tag_399\n        /* \"#utility.yul\":3551:3556   */\n      dup2\n        /* \"#utility.yul\":3533:3557   */\n      tag_337\n      jump\t// in\n    tag_399:\n        /* \"#utility.yul\":3528:3531   */\n      dup3\n        /* \"#utility.yul\":3521:3558   */\n      mstore\n        /* \"#utility.yul\":3446:3564   */\n      pop\n      pop\n      jump\t// out\n        /* \"#utility.yul\":3570:3792   */\n    tag_38:\n        /* \"#utility.yul\":3663:3667   */\n      0x00\n        /* \"#utility.yul\":3701:3703   */\n      0x20\n        /* \"#utility.yul\":3690:3699   */\n      dup3\n        /* \"#utility.yul\":3686:3704   */\n      add\n        /* \"#utility.yul\":3678:3704   */\n      swap1\n      pop\n        /* \"#utility.yul\":3714:3785   */\n      tag_401\n        /* \"#utility.yul\":3782:3783   */\n      0x00\n        /* \"#utility.yul\":3771:3780   */\n      dup4\n        /* \"#utility.yul\":3767:3784   */\n      add\n        /* \"#utility.yul\":3758:3764   */\n      dup5\n        /* \"#utility.yul\":3714:3785   */\n      tag_342\n      jump\t// in\n    tag_401:\n        /* \"#utility.yul\":3570:3792   */\n      swap3\n      swap2\n      pop\n      pop\n      jump\t// out\n        /* \"#utility.yul\":3798:4417   */\n    tag_41:\n        /* \"#utility.yul\":3875:3881   */\n      0x00\n        /* \"#utility.yul\":3883:3889   */\n      dup1\n        /* \"#utility.yul\":3891:3897   */\n      0x00\n        /* \"#utility.yul\":3940:3942   */\n      0x60\n        /* \"#utility.yul\":3928:3937   */\n      dup5\n        /* \"#utility.yul\":3919:3926   */\n      dup7\n        /* \"#utility.yul\":3915:3938   */\n      sub\n        /* \"#utility.yul\":3911:3943   */\n      slt\n        /* \"#utility.yul\":3908:4027   */\n      iszero\n      tag_403\n      jumpi\n        /* \"#utility.yul\":3946:4025   */\n      tag_404\n      tag_331\n      jump\t// in\n    tag_404:\n        /* \"#utility.yul\":3908:4027   */\n    tag_403:\n        /* \"#utility.yul\":4066:4067   */\n      0x00\n        /* \"#utility.yul\":4091:4144   */\n      tag_405\n        /* \"#utility.yul\":4136:4143   */\n      dup7\n        /* \"#utility.yul\":4127:4133   */\n      dup3\n        /* \"#utility.yul\":4116:4125   */\n      dup8\n        /* \"#utility.yul\":4112:4134   */\n      add\n        /* \"#utility.yul\":4091:4144   */\n      tag_336\n      jump\t// in\n    tag_405:\n        /* \"#utility.yul\":4081:4144   */\n      swap4\n      pop\n        /* \"#utility.yul\":4037:4154   */\n      pop\n        /* \"#utility.yul\":4193:4195   */\n      0x20\n        /* \"#utility.yul\":4219:4272   */\n      tag_406\n        /* \"#utility.yul\":4264:4271   */\n      dup7\n        /* \"#utility.yul\":4255:4261   */\n      dup3\n        /* \"#utility.yul\":4244:4253   */\n      dup8\n        /* \"#utility.yul\":4240:4262   */\n      add\n        /* \"#utility.yul\":4219:4272   */\n      tag_336\n      jump\t// in\n    tag_406:\n        /* \"#utility.yul\":4209:4272   */\n      swap3\n      pop\n        /* \"#utility.yul\":4164:4282   */\n      pop\n        /* \"#utility.yul\":4321:4323   */\n      0x40\n        /* \"#utility.yul\":4347:4400   */\n      tag_407\n        /* \"#utility.yul\":4392:4399   */\n      dup7\n        /* \"#utility.yul\":4383:4389   */\n      dup3\n        /* \"#utility.yul\":4372:4381   */\n      dup8\n        /* \"#utility.yul\":4368:4390   */\n      add\n        /* \"#utility.yul\":4347:4400   */\n      tag_339\n      jump\t// in\n    tag_407:\n        /* \"#utility.yul\":4337:4400   */\n      swap2\n      pop\n        /* \"#utility.yul\":4292:4410   */\n      pop\n        /* \"#utility.yul\":3798:4417   */\n      swap3\n      pop\n      swap3\n      pop\n      swap3\n      jump\t// out\n        /* \"#utility.yul\":4423:4509   */\n    tag_343:\n        /* \"#utility.yul\":4458:4465   */\n      0x00\n        /* \"#utility.yul\":4498:4502   */\n      0xff\n        /* \"#utility.yul\":4491:4496   */\n      dup3\n        /* \"#utility.yul\":4487:4503   */\n      and\n        /* \"#utility.yul\":4476:4503   */\n      swap1\n      pop\n        /* \"#utility.yul\":4423:4509   */\n      swap2\n      swap1\n      pop\n      jump\t// out\n        /* \"#utility.yul\":4515:4627   */\n    tag_344:\n        /* \"#utility.yul\":4598:4620   */\n      tag_410\n        /* \"#utility.yul\":4614:4619   */\n      dup2\n        /* \"#utility.yul\":4598:4620   */\n      tag_343\n      jump\t// in\n    tag_410:\n        /* \"#utility.yul\":4593:4596   */\n      dup3\n        /* \"#utility.yul\":4586:4621   */\n      mstore\n        /* \"#utility.yul\":4515:4627   */\n      pop\n      pop\n      jump\t// out\n        /* \"#utility.yul\":4633:4847   */\n    tag_47:\n        /* \"#utility.yul\":4722:4726   */\n      0x00\n        /* \"#utility.yul\":4760:4762   */\n      0x20\n        /* \"#utility.yul\":4749:4758   */\n      dup3\n        /* \"#utility.yul\":4745:4763   */\n      add\n        /* \"#utility.yul\":4737:4763   */\n      swap1\n      pop\n        /* \"#utility.yul\":4773:4840   */\n      tag_412\n        /* \"#utility.yul\":4837:4838   */\n      0x00\n        /* \"#utility.yul\":4826:4835   */\n      dup4\n        /* \"#utility.yul\":4822:4839   */\n      add\n        /* \"#utility.yul\":4813:4819   */\n      dup5\n        /* \"#utility.yul\":4773:4840   */\n      tag_344\n      jump\t// in\n    tag_412:\n        /* \"#utility.yul\":4633:4847   */\n      swap3\n      swap2\n      pop\n      pop\n      jump\t// out\n        /* \"#utility.yul\":4853:5182   */\n    tag_55:\n        /* \"#utility.yul\":4912:4918   */\n      0x00\n        /* \"#utility.yul\":4961:4963   */\n      0x20\n        /* \"#utility.yul\":4949:4958   */\n      dup3\n        /* \"#utility.yul\":4940:4947   */\n      dup5\n        /* \"#utility.yul\":4936:4959   */\n      sub\n        /* \"#utility.yul\":4932:4964   */\n      slt\n        /* \"#utility.yul\":4929:5048   */\n      iszero\n      tag_414\n      jumpi\n        /* \"#utility.yul\":4967:5046   */\n      tag_415\n      tag_331\n      jump\t// in\n    tag_415:\n        /* \"#utility.yul\":4929:5048   */\n    tag_414:\n        /* \"#utility.yul\":5087:5088   */\n      0x00\n        /* \"#utility.yul\":5112:5165   */\n      tag_416\n        /* \"#utility.yul\":5157:5164   */\n      dup5\n        /* \"#utility.yul\":5148:5154   */\n      dup3\n        /* \"#utility.yul\":5137:5146   */\n      dup6\n        /* \"#utility.yul\":5133:5155   */\n      add\n        /* \"#utility.yul\":5112:5165   */\n      tag_339\n      jump\t// in\n    tag_416:\n        /* \"#utility.yul\":5102:5165   */\n      swap2\n      pop\n        /* \"#utility.yul\":5058:5175   */\n      pop\n        /* \"#utility.yul\":4853:5182   */\n      swap3\n      swap2\n      pop\n      pop\n      jump\t// out\n        /* \"#utility.yul\":5188:5302   */\n    tag_345:\n        /* \"#utility.yul\":5276:5277   */\n      0x02\n        /* \"#utility.yul\":5269:5274   */\n      dup2\n        /* \"#utility.yul\":5266:5278   */\n      lt\n        /* \"#utility.yul\":5256:5296   */\n      tag_418\n      jumpi\n        /* \"#utility.yul\":5292:5293   */\n      0x00\n        /* \"#utility.yul\":5289:5290   */\n      dup1\n        /* \"#utility.yul\":5282:5294   */\n      revert\n        /* \"#utility.yul\":5256:5296   */\n    tag_418:\n        /* \"#utility.yul\":5188:5302   */\n      pop\n      jump\t// out\n        /* \"#utility.yul\":5308:5477   */\n    tag_346:\n        /* \"#utility.yul\":5369:5374   */\n      0x00\n        /* \"#utility.yul\":5407:5413   */\n      dup2\n        /* \"#utility.yul\":5394:5414   */\n      calldataload\n        /* \"#utility.yul\":5385:5414   */\n      swap1\n      pop\n        /* \"#utility.yul\":5423:5471   */\n      tag_420\n        /* \"#utility.yul\":5465:5470   */\n      dup2\n        /* \"#utility.yul\":5423:5471   */\n      tag_345\n      jump\t// in\n    tag_420:\n        /* \"#utility.yul\":5308:5477   */\n      swap3\n      swap2\n      pop\n      pop\n      jump\t// out\n        /* \"#utility.yul\":5483:6132   */\n    tag_59:\n        /* \"#utility.yul\":5575:5581   */\n      0x00\n        /* \"#utility.yul\":5583:5589   */\n      dup1\n        /* \"#utility.yul\":5591:5597   */\n      0x00\n        /* \"#utility.yul\":5640:5642   */\n      0x60\n        /* \"#utility.yul\":5628:5637   */\n      dup5\n        /* \"#utility.yul\":5619:5626   */\n      dup7\n        /* \"#utility.yul\":5615:5638   */\n      sub\n        /* \"#utility.yul\":5611:5643   */\n      slt\n        /* \"#utility.yul\":5608:5727   */\n      iszero\n      tag_422\n      jumpi\n        /* \"#utility.yul\":5646:5725   */\n      tag_423\n      tag_331\n      jump\t// in\n    tag_423:\n        /* \"#utility.yul\":5608:5727   */\n    tag_422:\n        /* \"#utility.yul\":5766:5767   */\n      0x00\n        /* \"#utility.yul\":5791:5844   */\n      tag_424\n        /* \"#utility.yul\":5836:5843   */\n      dup7\n        /* \"#utility.yul\":5827:5833   */\n      dup3\n        /* \"#utility.yul\":5816:5825   */\n      dup8\n        /* \"#utility.yul\":5812:5834   */\n      add\n        /* \"#utility.yul\":5791:5844   */\n      tag_336\n      jump\t// in\n    tag_424:\n        /* \"#utility.yul\":5781:5844   */\n      swap4\n      pop\n        /* \"#utility.yul\":5737:5854   */\n      pop\n        /* \"#utility.yul\":5893:5895   */\n      0x20\n        /* \"#utility.yul\":5919:5972   */\n      tag_425\n        /* \"#utility.yul\":5964:5971   */\n      dup7\n        /* \"#utility.yul\":5955:5961   */\n      dup3\n        /* \"#utility.yul\":5944:5953   */\n      dup8\n        /* \"#utility.yul\":5940:5962   */\n      add\n        /* \"#utility.yul\":5919:5972   */\n      tag_339\n      jump\t// in\n    tag_425:\n        /* \"#utility.yul\":5909:5972   */\n      swap3\n      pop\n        /* \"#utility.yul\":5864:5982   */\n      pop\n        /* \"#utility.yul\":6021:6023   */\n      0x40\n        /* \"#utility.yul\":6047:6115   */\n      tag_426\n        /* \"#utility.yul\":6107:6114   */\n      dup7\n        /* \"#utility.yul\":6098:6104   */\n      dup3\n        /* \"#utility.yul\":6087:6096   */\n      dup8\n        /* \"#utility.yul\":6083:6105   */\n      add\n        /* \"#utility.yul\":6047:6115   */\n      tag_346\n      jump\t// in\n    tag_426:\n        /* \"#utility.yul\":6037:6115   */\n      swap2\n      pop\n        /* \"#utility.yul\":5992:6125   */\n      pop\n        /* \"#utility.yul\":5483:6132   */\n      swap3\n      pop\n      swap3\n      pop\n      swap3\n      jump\t// out\n        /* \"#utility.yul\":6138:6467   */\n    tag_66:\n        /* \"#utility.yul\":6197:6203   */\n      0x00\n        /* \"#utility.yul\":6246:6248   */\n      0x20\n        /* \"#utility.yul\":6234:6243   */\n      dup3\n        /* \"#utility.yul\":6225:6232   */\n      dup5\n        /* \"#utility.yul\":6221:6244   */\n      sub\n        /* \"#utility.yul\":6217:6249   */\n      slt\n        /* \"#utility.yul\":6214:6333   */\n      iszero\n      tag_428\n      jumpi\n        /* \"#utility.yul\":6252:6331   */\n      tag_429\n      tag_331\n      jump\t// in\n    tag_429:\n        /* \"#utility.yul\":6214:6333   */\n    tag_428:\n        /* \"#utility.yul\":6372:6373   */\n      0x00\n        /* \"#utility.yul\":6397:6450   */\n      tag_430\n        /* \"#utility.yul\":6442:6449   */\n      dup5\n        /* \"#utility.yul\":6433:6439   */\n      dup3\n        /* \"#utility.yul\":6422:6431   */\n      dup6\n        /* \"#utility.yul\":6418:6440   */\n      add\n        /* \"#utility.yul\":6397:6450   */\n      tag_336\n      jump\t// in\n    tag_430:\n        /* \"#utility.yul\":6387:6450   */\n      swap2\n      pop\n        /* \"#utility.yul\":6343:6460   */\n      pop\n        /* \"#utility.yul\":6138:6467   */\n      swap3\n      swap2\n      pop\n      pop\n      jump\t// out\n        /* \"#utility.yul\":6473:6591   */\n    tag_347:\n        /* \"#utility.yul\":6560:6584   */\n      tag_432\n        /* \"#utility.yul\":6578:6583   */\n      dup2\n        /* \"#utility.yul\":6560:6584   */\n      tag_334\n      jump\t// in\n    tag_432:\n        /* \"#utility.yul\":6555:6558   */\n      dup3\n        /* \"#utility.yul\":6548:6585   */\n      mstore\n        /* \"#utility.yul\":6473:6591   */\n      pop\n      pop\n      jump\t// out\n        /* \"#utility.yul\":6597:6819   */\n    tag_79:\n        /* \"#utility.yul\":6690:6694   */\n      0x00\n        /* \"#utility.yul\":6728:6730   */\n      0x20\n        /* \"#utility.yul\":6717:6726   */\n      dup3\n        /* \"#utility.yul\":6713:6731   */\n      add\n        /* \"#utility.yul\":6705:6731   */\n      swap1\n      pop\n        /* \"#utility.yul\":6741:6812   */\n      tag_434\n        /* \"#utility.yul\":6809:6810   */\n      0x00\n        /* \"#utility.yul\":6798:6807   */\n      dup4\n        /* \"#utility.yul\":6794:6811   */\n      add\n        /* \"#utility.yul\":6785:6791   */\n      dup5\n        /* \"#utility.yul\":6741:6812   */\n      tag_347\n      jump\t// in\n    tag_434:\n        /* \"#utility.yul\":6597:6819   */\n      swap3\n      swap2\n      pop\n      pop\n      jump\t// out\n        /* \"#utility.yul\":6825:7299   */\n    tag_89:\n        /* \"#utility.yul\":6893:6899   */\n      0x00\n        /* \"#utility.yul\":6901:6907   */\n      dup1\n        /* \"#utility.yul\":6950:6952   */\n      0x40\n        /* \"#utility.yul\":6938:6947   */\n      dup4\n        /* \"#utility.yul\":6929:6936   */\n      dup6\n        /* \"#utility.yul\":6925:6948   */\n      sub\n        /* \"#utility.yul\":6921:6953   */\n      slt\n        /* \"#utility.yul\":6918:7037   */\n      iszero\n      tag_436\n      jumpi\n        /* \"#utility.yul\":6956:7035   */\n      tag_437\n      tag_331\n      jump\t// in\n    tag_437:\n        /* \"#utility.yul\":6918:7037   */\n    tag_436:\n        /* \"#utility.yul\":7076:7077   */\n      0x00\n        /* \"#utility.yul\":7101:7154   */\n      tag_438\n        /* \"#utility.yul\":7146:7153   */\n      dup6\n        /* \"#utility.yul\":7137:7143   */\n      dup3\n        /* \"#utility.yul\":7126:7135   */\n      dup7\n        /* \"#utility.yul\":7122:7144   */\n      add\n        /* \"#utility.yul\":7101:7154   */\n      tag_336\n      jump\t// in\n    tag_438:\n        /* \"#utility.yul\":7091:7154   */\n      swap3\n      pop\n        /* \"#utility.yul\":7047:7164   */\n      pop\n        /* \"#utility.yul\":7203:7205   */\n      0x20\n        /* \"#utility.yul\":7229:7282   */\n      tag_439\n        /* \"#utility.yul\":7274:7281   */\n      dup6\n        /* \"#utility.yul\":7265:7271   */\n      dup3\n        /* \"#utility.yul\":7254:7263   */\n      dup7\n        /* \"#utility.yul\":7250:7272   */\n      add\n        /* \"#utility.yul\":7229:7282   */\n      tag_336\n      jump\t// in\n    tag_439:\n        /* \"#utility.yul\":7219:7282   */\n      swap2\n      pop\n        /* \"#utility.yul\":7174:7292   */\n      pop\n        /* \"#utility.yul\":6825:7299   */\n      swap3\n      pop\n      swap3\n      swap1\n      pop\n      jump\t// out\n        /* \"#utility.yul\":7305:7485   */\n    tag_348:\n        /* \"#utility.yul\":7353:7430   */\n      0x4e487b7100000000000000000000000000000000000000000000000000000000\n        /* \"#utility.yul\":7350:7351   */\n      0x00\n        /* \"#utility.yul\":7343:7431   */\n      mstore\n        /* \"#utility.yul\":7450:7454   */\n      0x22\n        /* \"#utility.yul\":7447:7448   */\n      0x04\n        /* \"#utility.yul\":7440:7455   */\n      mstore\n        /* \"#utility.yul\":7474:7478   */\n      0x24\n        /* \"#utility.yul\":7471:7472   */\n      0x00\n        /* \"#utility.yul\":7464:7479   */\n      revert\n        /* \"#utility.yul\":7491:7811   */\n    tag_97:\n        /* \"#utility.yul\":7535:7541   */\n      0x00\n        /* \"#utility.yul\":7572:7573   */\n      0x02\n        /* \"#utility.yul\":7566:7570   */\n      dup3\n        /* \"#utility.yul\":7562:7574   */\n      div\n        /* \"#utility.yul\":7552:7574   */\n      swap1\n      pop\n        /* \"#utility.yul\":7619:7620   */\n      0x01\n        /* \"#utility.yul\":7613:7617   */\n      dup3\n        /* \"#utility.yul\":7609:7621   */\n      and\n        /* \"#utility.yul\":7640:7658   */\n      dup1\n        /* \"#utility.yul\":7630:7711   */\n      tag_442\n      jumpi\n        /* \"#utility.yul\":7696:7700   */\n      0x7f\n        /* \"#utility.yul\":7688:7694   */\n      dup3\n        /* \"#utility.yul\":7684:7701   */\n      and\n        /* \"#utility.yul\":7674:7701   */\n      swap2\n      pop\n        /* \"#utility.yul\":7630:7711   */\n    tag_442:\n        /* \"#utility.yul\":7758:7760   */\n      0x20\n        /* \"#utility.yul\":7750:7756   */\n      dup3\n        /* \"#utility.yul\":7747:7761   */\n      lt\n        /* \"#utility.yul\":7727:7745   */\n      dup2\n        /* \"#utility.yul\":7724:7762   */\n      sub\n        /* \"#utility.yul\":7721:7805   */\n      tag_443\n      jumpi\n        /* \"#utility.yul\":7777:7795   */\n      tag_444\n      tag_348\n      jump\t// in\n    tag_444:\n        /* \"#utility.yul\":7721:7805   */\n    tag_443:\n        /* \"#utility.yul\":7542:7811   */\n      pop\n        /* \"#utility.yul\":7491:7811   */\n      swap2\n      swap1\n      pop\n      jump\t// out\n        /* \"#utility.yul\":7817:7997   */\n    tag_349:\n        /* \"#utility.yul\":7865:7942   */\n      0x4e487b7100000000000000000000000000000000000000000000000000000000\n        /* \"#utility.yul\":7862:7863   */\n      0x00\n        /* \"#utility.yul\":7855:7943   */\n      mstore\n        /* \"#utility.yul\":7962:7966   */\n      0x11\n        /* \"#utility.yul\":7959:7960   */\n      0x04\n        /* \"#utility.yul\":7952:7967   */\n      mstore\n        /* \"#utility.yul\":7986:7990   */\n      0x24\n        /* \"#utility.yul\":7983:7984   */\n      0x00\n        /* \"#utility.yul\":7976:7991   */\n      revert\n        /* \"#utility.yul\":8003:8194   */\n    tag_126:\n        /* \"#utility.yul\":8043:8046   */\n      0x00\n        /* \"#utility.yul\":8062:8082   */\n      tag_447\n        /* \"#utility.yul\":8080:8081   */\n      dup3\n        /* \"#utility.yul\":8062:8082   */\n      tag_337\n      jump\t// in\n    tag_447:\n        /* \"#utility.yul\":8057:8082   */\n      swap2\n      pop\n        /* \"#utility.yul\":8096:8116   */\n      tag_448\n        /* \"#utility.yul\":8114:8115   */\n      dup4\n        /* \"#utility.yul\":8096:8116   */\n      tag_337\n      jump\t// in\n    tag_448:\n        /* \"#utility.yul\":8091:8116   */\n      swap3\n      pop\n        /* \"#utility.yul\":8139:8140   */\n      dup3\n        /* \"#utility.yul\":8136:8137   */\n      dup3\n        /* \"#utility.yul\":8132:8141   */\n      add\n        /* \"#utility.yul\":8125:8141   */\n      swap1\n      pop\n        /* \"#utility.yul\":8160:8163   */\n      dup1\n        /* \"#utility.yul\":8157:8158   */\n      dup3\n        /* \"#utility.yul\":8154:8164   */\n      gt\n        /* \"#utility.yul\":8151:8187   */\n      iszero\n      tag_449\n      jumpi\n        /* \"#utility.yul\":8167:8185   */\n      tag_450\n      tag_349\n      jump\t// in\n    tag_450:\n        /* \"#utility.yul\":8151:8187   */\n    tag_449:\n        /* \"#utility.yul\":8003:8194   */\n      swap3\n      swap2\n      pop\n      pop\n      jump\t// out\n        /* \"#utility.yul\":8200:8361   */\n    tag_350:\n        /* \"#utility.yul\":8340:8353   */\n      0x576520736f6c64206f7574000000000000000000000000000000000000000000\n        /* \"#utility.yul\":8336:8337   */\n      0x00\n        /* \"#utility.yul\":8328:8334   */\n      dup3\n        /* \"#utility.yul\":8324:8338   */\n      add\n        /* \"#utility.yul\":8317:8354   */\n      mstore\n        /* \"#utility.yul\":8200:8361   */\n      pop\n      jump\t// out\n        /* \"#utility.yul\":8367:8733   */\n    tag_351:\n        /* \"#utility.yul\":8509:8512   */\n      0x00\n        /* \"#utility.yul\":8530:8597   */\n      tag_453\n        /* \"#utility.yul\":8594:8596   */\n      0x0b\n        /* \"#utility.yul\":8589:8592   */\n      dup4\n        /* \"#utility.yul\":8530:8597   */\n      tag_326\n      jump\t// in\n    tag_453:\n        /* \"#utility.yul\":8523:8597   */\n      swap2\n      pop\n        /* \"#utility.yul\":8606:8699   */\n      tag_454\n        /* \"#utility.yul\":8695:8698   */\n      dup3\n        /* \"#utility.yul\":8606:8699   */\n      tag_350\n      jump\t// in\n    tag_454:\n        /* \"#utility.yul\":8724:8726   */\n      0x20\n        /* \"#utility.yul\":8719:8722   */\n      dup3\n        /* \"#utility.yul\":8715:8727   */\n      add\n        /* \"#utility.yul\":8708:8727   */\n      swap1\n      pop\n        /* \"#utility.yul\":8367:8733   */\n      swap2\n      swap1\n      pop\n      jump\t// out\n        /* \"#utility.yul\":8739:9158   */\n    tag_129:\n        /* \"#utility.yul\":8905:8909   */\n      0x00\n        /* \"#utility.yul\":8943:8945   */\n      0x20\n        /* \"#utility.yul\":8932:8941   */\n      dup3\n        /* \"#utility.yul\":8928:8946   */\n      add\n        /* \"#utility.yul\":8920:8946   */\n      swap1\n      pop\n        /* \"#utility.yul\":8992:9001   */\n      dup2\n        /* \"#utility.yul\":8986:8990   */\n      dup2\n        /* \"#utility.yul\":8982:9002   */\n      sub\n        /* \"#utility.yul\":8978:8979   */\n      0x00\n        /* \"#utility.yul\":8967:8976   */\n      dup4\n        /* \"#utility.yul\":8963:8980   */\n      add\n        /* \"#utility.yul\":8956:9003   */\n      mstore\n        /* \"#utility.yul\":9020:9151   */\n      tag_456\n        /* \"#utility.yul\":9146:9150   */\n      dup2\n        /* \"#utility.yul\":9020:9151   */\n      tag_351\n      jump\t// in\n    tag_456:\n        /* \"#utility.yul\":9012:9151   */\n      swap1\n      pop\n        /* \"#utility.yul\":8739:9158   */\n      swap2\n      swap1\n      pop\n      jump\t// out\n        /* \"#utility.yul\":9164:9606   */\n    tag_141:\n        /* \"#utility.yul\":9313:9317   */\n      0x00\n        /* \"#utility.yul\":9351:9353   */\n      0x60\n        /* \"#utility.yul\":9340:9349   */\n      dup3\n        /* \"#utility.yul\":9336:9354   */\n      add\n        /* \"#utility.yul\":9328:9354   */\n      swap1\n      pop\n        /* \"#utility.yul\":9364:9435   */\n      tag_458\n        /* \"#utility.yul\":9432:9433   */\n      0x00\n        /* \"#utility.yul\":9421:9430   */\n      dup4\n        /* \"#utility.yul\":9417:9434   */\n      add\n        /* \"#utility.yul\":9408:9414   */\n      dup7\n        /* \"#utility.yul\":9364:9435   */\n      tag_347\n      jump\t// in\n    tag_458:\n        /* \"#utility.yul\":9445:9517   */\n      tag_459\n        /* \"#utility.yul\":9513:9515   */\n      0x20\n        /* \"#utility.yul\":9502:9511   */\n      dup4\n        /* \"#utility.yul\":9498:9516   */\n      add\n        /* \"#utility.yul\":9489:9495   */\n      dup6\n        /* \"#utility.yul\":9445:9517   */\n      tag_347\n      jump\t// in\n    tag_459:\n        /* \"#utility.yul\":9527:9599   */\n      tag_460\n        /* \"#utility.yul\":9595:9597   */\n      0x40\n        /* \"#utility.yul\":9584:9593   */\n      dup4\n        /* \"#utility.yul\":9580:9598   */\n      add\n        /* \"#utility.yul\":9571:9577   */\n      dup5\n        /* \"#utility.yul\":9527:9599   */\n      tag_342\n      jump\t// in\n    tag_460:\n        /* \"#utility.yul\":9164:9606   */\n      swap5\n      swap4\n      pop\n      pop\n      pop\n      pop\n      jump\t// out\n        /* \"#utility.yul\":9612:10054   */\n    tag_184:\n        /* \"#utility.yul\":9761:9765   */\n      0x00\n        /* \"#utility.yul\":9799:9801   */\n      0x60\n        /* \"#utility.yul\":9788:9797   */\n      dup3\n        /* \"#utility.yul\":9784:9802   */\n      add\n        /* \"#utility.yul\":9776:9802   */\n      swap1\n      pop\n        /* \"#utility.yul\":9812:9883   */\n      tag_462\n        /* \"#utility.yul\":9880:9881   */\n      0x00\n        /* \"#utility.yul\":9869:9878   */\n      dup4\n        /* \"#utility.yul\":9865:9882   */\n      add\n        /* \"#utility.yul\":9856:9862   */\n      dup7\n        /* \"#utility.yul\":9812:9883   */\n      tag_347\n      jump\t// in\n    tag_462:\n        /* \"#utility.yul\":9893:9965   */\n      tag_463\n        /* \"#utility.yul\":9961:9963   */\n      0x20\n        /* \"#utility.yul\":9950:9959   */\n      dup4\n        /* \"#utility.yul\":9946:9964   */\n      add\n        /* \"#utility.yul\":9937:9943   */\n      dup6\n        /* \"#utility.yul\":9893:9965   */\n      tag_342\n      jump\t// in\n    tag_463:\n        /* \"#utility.yul\":9975:10047   */\n      tag_464\n        /* \"#utility.yul\":10043:10045   */\n      0x40\n        /* \"#utility.yul\":10032:10041   */\n      dup4\n        /* \"#utility.yul\":10028:10046   */\n      add\n        /* \"#utility.yul\":10019:10025   */\n      dup5\n        /* \"#utility.yul\":9975:10047   */\n      tag_342\n      jump\t// in\n    tag_464:\n        /* \"#utility.yul\":9612:10054   */\n      swap5\n      swap4\n      pop\n      pop\n      pop\n      pop\n      jump\t// out\n        /* \"#utility.yul\":10060:10470   */\n    tag_216:\n        /* \"#utility.yul\":10100:10107   */\n      0x00\n        /* \"#utility.yul\":10123:10143   */\n      tag_466\n        /* \"#utility.yul\":10141:10142   */\n      dup3\n        /* \"#utility.yul\":10123:10143   */\n      tag_337\n      jump\t// in\n    tag_466:\n        /* \"#utility.yul\":10118:10143   */\n      swap2\n      pop\n        /* \"#utility.yul\":10157:10177   */\n      tag_467\n        /* \"#utility.yul\":10175:10176   */\n      dup4\n        /* \"#utility.yul\":10157:10177   */\n      tag_337\n      jump\t// in\n    tag_467:\n        /* \"#utility.yul\":10152:10177   */\n      swap3\n      pop\n        /* \"#utility.yul\":10212:10213   */\n      dup3\n        /* \"#utility.yul\":10209:10210   */\n      dup3\n        /* \"#utility.yul\":10205:10214   */\n      mul\n        /* \"#utility.yul\":10234:10264   */\n      tag_468\n        /* \"#utility.yul\":10252:10263   */\n      dup2\n        /* \"#utility.yul\":10234:10264   */\n      tag_337\n      jump\t// in\n    tag_468:\n        /* \"#utility.yul\":10223:10264   */\n      swap2\n      pop\n        /* \"#utility.yul\":10413:10414   */\n      dup3\n        /* \"#utility.yul\":10404:10411   */\n      dup3\n        /* \"#utility.yul\":10400:10415   */\n      div\n        /* \"#utility.yul\":10397:10398   */\n      dup5\n        /* \"#utility.yul\":10394:10416   */\n      eq\n        /* \"#utility.yul\":10374:10375   */\n      dup4\n        /* \"#utility.yul\":10367:10376   */\n      iszero\n        /* \"#utility.yul\":10347:10430   */\n      or\n        /* \"#utility.yul\":10324:10463   */\n      tag_469\n      jumpi\n        /* \"#utility.yul\":10443:10461   */\n      tag_470\n      tag_349\n      jump\t// in\n    tag_470:\n        /* \"#utility.yul\":10324:10463   */\n    tag_469:\n        /* \"#utility.yul\":10108:10470   */\n      pop\n        /* \"#utility.yul\":10060:10470   */\n      swap3\n      swap2\n      pop\n      pop\n      jump\t// out\n        /* \"#utility.yul\":10476:10656   */\n    tag_352:\n        /* \"#utility.yul\":10524:10601   */\n      0x4e487b7100000000000000000000000000000000000000000000000000000000\n        /* \"#utility.yul\":10521:10522   */\n      0x00\n        /* \"#utility.yul\":10514:10602   */\n      mstore\n        /* \"#utility.yul\":10621:10625   */\n      0x12\n        /* \"#utility.yul\":10618:10619   */\n      0x04\n        /* \"#utility.yul\":10611:10626   */\n      mstore\n        /* \"#utility.yul\":10645:10649   */\n      0x24\n        /* \"#utility.yul\":10642:10643   */\n      0x00\n        /* \"#utility.yul\":10635:10650   */\n      revert\n        /* \"#utility.yul\":10662:10847   */\n    tag_218:\n        /* \"#utility.yul\":10702:10703   */\n      0x00\n        /* \"#utility.yul\":10719:10739   */\n      tag_473\n        /* \"#utility.yul\":10737:10738   */\n      dup3\n        /* \"#utility.yul\":10719:10739   */\n      tag_337\n      jump\t// in\n    tag_473:\n        /* \"#utility.yul\":10714:10739   */\n      swap2\n      pop\n        /* \"#utility.yul\":10753:10773   */\n      tag_474\n        /* \"#utility.yul\":10771:10772   */\n      dup4\n        /* \"#utility.yul\":10753:10773   */\n      tag_337\n      jump\t// in\n    tag_474:\n        /* \"#utility.yul\":10748:10773   */\n      swap3\n      pop\n        /* \"#utility.yul\":10792:10793   */\n      dup3\n        /* \"#utility.yul\":10782:10817   */\n      tag_475\n      jumpi\n        /* \"#utility.yul\":10797:10815   */\n      tag_476\n      tag_352\n      jump\t// in\n    tag_476:\n        /* \"#utility.yul\":10782:10817   */\n    tag_475:\n        /* \"#utility.yul\":10839:10840   */\n      dup3\n        /* \"#utility.yul\":10836:10837   */\n      dup3\n        /* \"#utility.yul\":10832:10841   */\n      div\n        /* \"#utility.yul\":10827:10841   */\n      swap1\n      pop\n        /* \"#utility.yul\":10662:10847   */\n      swap3\n      swap2\n      pop\n      pop\n      jump\t// out\n        /* \"#utility.yul\":10853:11033   */\n    tag_225:\n        /* \"#utility.yul\":10901:10978   */\n      0x4e487b7100000000000000000000000000000000000000000000000000000000\n        /* \"#utility.yul\":10898:10899   */\n      0x00\n        /* \"#utility.yul\":10891:10979   */\n      mstore\n        /* \"#utility.yul\":10998:11002   */\n      0x21\n        /* \"#utility.yul\":10995:10996   */\n      0x04\n        /* \"#utility.yul\":10988:11003   */\n      mstore\n        /* \"#utility.yul\":11022:11026   */\n      0x24\n        /* \"#utility.yul\":11019:11020   */\n      0x00\n        /* \"#utility.yul\":11012:11027   */\n      revert\n        /* \"#utility.yul\":11039:11141   */\n    tag_353:\n        /* \"#utility.yul\":11081:11089   */\n      0x00\n        /* \"#utility.yul\":11128:11133   */\n      dup2\n        /* \"#utility.yul\":11125:11126   */\n      0x01\n        /* \"#utility.yul\":11121:11134   */\n      shr\n        /* \"#utility.yul\":11100:11134   */\n      swap1\n      pop\n        /* \"#utility.yul\":11039:11141   */\n      swap2\n      swap1\n      pop\n      jump\t// out\n        /* \"#utility.yul\":11147:11995   */\n    tag_354:\n        /* \"#utility.yul\":11208:11213   */\n      0x00\n        /* \"#utility.yul\":11215:11219   */\n      dup1\n        /* \"#utility.yul\":11239:11245   */\n      dup3\n        /* \"#utility.yul\":11230:11245   */\n      swap2\n      pop\n        /* \"#utility.yul\":11263:11268   */\n      dup4\n        /* \"#utility.yul\":11254:11268   */\n      swap1\n      pop\n        /* \"#utility.yul\":11277:11989   */\n    tag_480:\n        /* \"#utility.yul\":11298:11299   */\n      0x01\n        /* \"#utility.yul\":11288:11296   */\n      dup6\n        /* \"#utility.yul\":11285:11300   */\n      gt\n        /* \"#utility.yul\":11277:11989   */\n      iszero\n      tag_482\n      jumpi\n        /* \"#utility.yul\":11393:11397   */\n      dup1\n        /* \"#utility.yul\":11388:11391   */\n      dup7\n        /* \"#utility.yul\":11384:11398   */\n      div\n        /* \"#utility.yul\":11378:11382   */\n      dup2\n        /* \"#utility.yul\":11375:11399   */\n      gt\n        /* \"#utility.yul\":11372:11422   */\n      iszero\n      tag_483\n      jumpi\n        /* \"#utility.yul\":11402:11420   */\n      tag_484\n      tag_349\n      jump\t// in\n    tag_484:\n        /* \"#utility.yul\":11372:11422   */\n    tag_483:\n        /* \"#utility.yul\":11452:11453   */\n      0x01\n        /* \"#utility.yul\":11442:11450   */\n      dup6\n        /* \"#utility.yul\":11438:11454   */\n      and\n        /* \"#utility.yul\":11435:11886   */\n      iszero\n      tag_485\n      jumpi\n        /* \"#utility.yul\":11867:11871   */\n      dup1\n        /* \"#utility.yul\":11860:11865   */\n      dup3\n        /* \"#utility.yul\":11856:11872   */\n      mul\n        /* \"#utility.yul\":11847:11872   */\n      swap2\n      pop\n        /* \"#utility.yul\":11435:11886   */\n    tag_485:\n        /* \"#utility.yul\":11917:11921   */\n      dup1\n        /* \"#utility.yul\":11911:11915   */\n      dup2\n        /* \"#utility.yul\":11907:11922   */\n      mul\n        /* \"#utility.yul\":11899:11922   */\n      swap1\n      pop\n        /* \"#utility.yul\":11947:11979   */\n      tag_486\n        /* \"#utility.yul\":11970:11978   */\n      dup6\n        /* \"#utility.yul\":11947:11979   */\n      tag_353\n      jump\t// in\n    tag_486:\n        /* \"#utility.yul\":11935:11979   */\n      swap5\n      pop\n        /* \"#utility.yul\":11277:11989   */\n      jump(tag_480)\n    tag_482:\n        /* \"#utility.yul\":11147:11995   */\n      swap5\n      pop\n      swap5\n      swap3\n      pop\n      pop\n      pop\n      jump\t// out\n        /* \"#utility.yul\":12001:13074   */\n    tag_355:\n        /* \"#utility.yul\":12055:12060   */\n      0x00\n        /* \"#utility.yul\":12246:12254   */\n      dup3\n        /* \"#utility.yul\":12236:12276   */\n      tag_488\n      jumpi\n        /* \"#utility.yul\":12267:12268   */\n      0x01\n        /* \"#utility.yul\":12258:12268   */\n      swap1\n      pop\n        /* \"#utility.yul\":12269:12274   */\n      jump(tag_487)\n        /* \"#utility.yul\":12236:12276   */\n    tag_488:\n        /* \"#utility.yul\":12295:12299   */\n      dup2\n        /* \"#utility.yul\":12285:12321   */\n      tag_489\n      jumpi\n        /* \"#utility.yul\":12312:12313   */\n      0x00\n        /* \"#utility.yul\":12303:12313   */\n      swap1\n      pop\n        /* \"#utility.yul\":12314:12319   */\n      jump(tag_487)\n        /* \"#utility.yul\":12285:12321   */\n    tag_489:\n        /* \"#utility.yul\":12381:12385   */\n      dup2\n        /* \"#utility.yul\":12429:12430   */\n      0x01\n        /* \"#utility.yul\":12424:12451   */\n      dup2\n      eq\n      tag_491\n      jumpi\n        /* \"#utility.yul\":12465:12466   */\n      0x02\n        /* \"#utility.yul\":12460:12651   */\n      dup2\n      eq\n      tag_492\n      jumpi\n        /* \"#utility.yul\":12374:12651   */\n      jump(tag_490)\n        /* \"#utility.yul\":12424:12451   */\n    tag_491:\n        /* \"#utility.yul\":12442:12443   */\n      0x01\n        /* \"#utility.yul\":12433:12443   */\n      swap2\n      pop\n        /* \"#utility.yul\":12444:12449   */\n      pop\n      jump(tag_487)\n        /* \"#utility.yul\":12460:12651   */\n    tag_492:\n        /* \"#utility.yul\":12505:12508   */\n      0xff\n        /* \"#utility.yul\":12495:12503   */\n      dup5\n        /* \"#utility.yul\":12492:12509   */\n      gt\n        /* \"#utility.yul\":12489:12532   */\n      iszero\n      tag_493\n      jumpi\n        /* \"#utility.yul\":12512:12530   */\n      tag_494\n      tag_349\n      jump\t// in\n    tag_494:\n        /* \"#utility.yul\":12489:12532   */\n    tag_493:\n        /* \"#utility.yul\":12561:12569   */\n      dup4\n        /* \"#utility.yul\":12558:12559   */\n      0x02\n        /* \"#utility.yul\":12554:12570   */\n      exp\n        /* \"#utility.yul\":12545:12570   */\n      swap2\n      pop\n        /* \"#utility.yul\":12596:12599   */\n      dup5\n        /* \"#utility.yul\":12589:12594   */\n      dup3\n        /* \"#utility.yul\":12586:12600   */\n      gt\n        /* \"#utility.yul\":12583:12623   */\n      iszero\n      tag_495\n      jumpi\n        /* \"#utility.yul\":12603:12621   */\n      tag_496\n      tag_349\n      jump\t// in\n    tag_496:\n        /* \"#utility.yul\":12583:12623   */\n    tag_495:\n        /* \"#utility.yul\":12636:12641   */\n      pop\n      jump(tag_487)\n        /* \"#utility.yul\":12374:12651   */\n    tag_490:\n      pop\n        /* \"#utility.yul\":12760:12762   */\n      0x20\n        /* \"#utility.yul\":12750:12758   */\n      dup4\n        /* \"#utility.yul\":12747:12763   */\n      lt\n        /* \"#utility.yul\":12741:12744   */\n      0x0133\n        /* \"#utility.yul\":12735:12739   */\n      dup4\n        /* \"#utility.yul\":12732:12745   */\n      lt\n        /* \"#utility.yul\":12728:12764   */\n      and\n        /* \"#utility.yul\":12710:12712   */\n      0x4e\n        /* \"#utility.yul\":12700:12708   */\n      dup5\n        /* \"#utility.yul\":12697:12713   */\n      lt\n        /* \"#utility.yul\":12692:12694   */\n      0x0b\n        /* \"#utility.yul\":12686:12690   */\n      dup5\n        /* \"#utility.yul\":12683:12695   */\n      lt\n        /* \"#utility.yul\":12679:12714   */\n      and\n        /* \"#utility.yul\":12663:12774   */\n      or\n        /* \"#utility.yul\":12660:12906   */\n      iszero\n      tag_497\n      jumpi\n        /* \"#utility.yul\":12816:12824   */\n      dup3\n        /* \"#utility.yul\":12810:12814   */\n      dup3\n        /* \"#utility.yul\":12806:12825   */\n      exp\n        /* \"#utility.yul\":12797:12825   */\n      swap1\n      pop\n        /* \"#utility.yul\":12851:12854   */\n      dup4\n        /* \"#utility.yul\":12844:12849   */\n      dup2\n        /* \"#utility.yul\":12841:12855   */\n      gt\n        /* \"#utility.yul\":12838:12878   */\n      iszero\n      tag_498\n      jumpi\n        /* \"#utility.yul\":12858:12876   */\n      tag_499\n      tag_349\n      jump\t// in\n    tag_499:\n        /* \"#utility.yul\":12838:12878   */\n    tag_498:\n        /* \"#utility.yul\":12891:12896   */\n      jump(tag_487)\n        /* \"#utility.yul\":12660:12906   */\n    tag_497:\n        /* \"#utility.yul\":12931:12973   */\n      tag_500\n        /* \"#utility.yul\":12969:12972   */\n      dup5\n        /* \"#utility.yul\":12959:12967   */\n      dup5\n        /* \"#utility.yul\":12953:12957   */\n      dup5\n        /* \"#utility.yul\":12950:12951   */\n      0x01\n        /* \"#utility.yul\":12931:12973   */\n      tag_354\n      jump\t// in\n    tag_500:\n        /* \"#utility.yul\":12916:12973   */\n      swap3\n      pop\n      swap1\n      pop\n        /* \"#utility.yul\":13005:13009   */\n      dup2\n        /* \"#utility.yul\":13000:13003   */\n      dup5\n        /* \"#utility.yul\":12996:13010   */\n      div\n        /* \"#utility.yul\":12989:12994   */\n      dup2\n        /* \"#utility.yul\":12986:13011   */\n      gt\n        /* \"#utility.yul\":12983:13034   */\n      iszero\n      tag_501\n      jumpi\n        /* \"#utility.yul\":13014:13032   */\n      tag_502\n      tag_349\n      jump\t// in\n    tag_502:\n        /* \"#utility.yul\":12983:13034   */\n    tag_501:\n        /* \"#utility.yul\":13063:13067   */\n      dup2\n        /* \"#utility.yul\":13056:13061   */\n      dup2\n        /* \"#utility.yul\":13052:13068   */\n      mul\n        /* \"#utility.yul\":13043:13068   */\n      swap1\n      pop\n        /* \"#utility.yul\":12001:13074   */\n    tag_487:\n      swap4\n      swap3\n      pop\n      pop\n      pop\n      jump\t// out\n        /* \"#utility.yul\":13080:13361   */\n    tag_231:\n        /* \"#utility.yul\":13138:13143   */\n      0x00\n        /* \"#utility.yul\":13162:13185   */\n      tag_504\n        /* \"#utility.yul\":13180:13184   */\n      dup3\n        /* \"#utility.yul\":13162:13185   */\n      tag_337\n      jump\t// in\n    tag_504:\n        /* \"#utility.yul\":13154:13185   */\n      swap2\n      pop\n        /* \"#utility.yul\":13206:13231   */\n      tag_505\n        /* \"#utility.yul\":13222:13230   */\n      dup4\n        /* \"#utility.yul\":13206:13231   */\n      tag_343\n      jump\t// in\n    tag_505:\n        /* \"#utility.yul\":13194:13231   */\n      swap3\n      pop\n        /* \"#utility.yul\":13250:13354   */\n      tag_506\n        /* \"#utility.yul\":13287:13353   */\n      0xffffffffffffffffffffffffffffffffffffffffffffffffffffffffffffffff\n        /* \"#utility.yul\":13277:13285   */\n      dup5\n        /* \"#utility.yul\":13271:13275   */\n      dup5\n        /* \"#utility.yul\":13250:13354   */\n      tag_355\n      jump\t// in\n    tag_506:\n        /* \"#utility.yul\":13241:13354   */\n      swap1\n      pop\n        /* \"#utility.yul\":13080:13361   */\n      swap3\n      swap2\n      pop\n      pop\n      jump\t// out\n\n    auxdata: 0xa2646970667358221220682ea60214ed887cc4b9cf3a621e5a293bc8bd7461d8f3a8dfa868900691491b64736f6c63430008180033\n}\n",
				"bytecode": {
					"linkReferences": {},
					"object": "608060405262000014620001de60201b60201c565b600a6200002291906200078a565b62989680620000329190620007da565b60065534801562000041575f80fd5b506040516200285e3803806200285e833981810160405281019062000067919062000889565b806040518060400160405280600981526020017f4765656b546f6b656e00000000000000000000000000000000000000000000008152506040518060400160405280600381526020017f47544b00000000000000000000000000000000000000000000000000000000008152508160039081620000e5919062000b14565b508060049081620000f7919062000b14565b5050505f60055f6101000a81548160ff0219169083151502179055505f73ffffffffffffffffffffffffffffffffffffffff168173ffffffffffffffffffffffffffffffffffffffff160362000186575f6040517f1e4fbdf70000000000000000000000000000000000000000000000000000000081526004016200017d919062000c09565b60405180910390fd5b6200019781620001e660201b60201c565b50620001d733620001ad620001de60201b60201c565b600a620001bb91906200078a565b622625a0620001cb9190620007da565b620002ab60201b60201c565b5062000cc5565b5f6012905090565b5f600560019054906101000a900473ffffffffffffffffffffffffffffffffffffffff16905081600560016101000a81548173ffffffffffffffffffffffffffffffffffffffff021916908373ffffffffffffffffffffffffffffffffffffffff1602179055508173ffffffffffffffffffffffffffffffffffffffff168173ffffffffffffffffffffffffffffffffffffffff167f8be0079c531659141344cd1fd0a4f28419497f9722a3daafe3b4186f6b6457e060405160405180910390a35050565b5f73ffffffffffffffffffffffffffffffffffffffff168273ffffffffffffffffffffffffffffffffffffffff16036200031e575f6040517fec442f0500000000000000000000000000000000000000000000000000000000815260040162000315919062000c09565b60405180910390fd5b620003315f83836200033560201b60201c565b5050565b620003488383836200034d60201b60201c565b505050565b6200035d6200037560201b60201c565b62000370838383620003bf60201b60201c565b505050565b62000385620005e360201b60201c565b15620003bd576040517fd93c066500000000000000000000000000000000000000000000000000000000815260040160405180910390fd5b565b5f73ffffffffffffffffffffffffffffffffffffffff168373ffffffffffffffffffffffffffffffffffffffff160362000413578060025f82825462000406919062000c24565b92505081905550620004e4565b5f805f8573ffffffffffffffffffffffffffffffffffffffff1673ffffffffffffffffffffffffffffffffffffffff1681526020019081526020015f20549050818110156200049f578381836040517fe450d38c000000000000000000000000000000000000000000000000000000008152600401620004969392919062000c6f565b60405180910390fd5b8181035f808673ffffffffffffffffffffffffffffffffffffffff1673ffffffffffffffffffffffffffffffffffffffff1681526020019081526020015f2081905550505b5f73ffffffffffffffffffffffffffffffffffffffff168273ffffffffffffffffffffffffffffffffffffffff16036200052d578060025f828254039250508190555062000577565b805f808473ffffffffffffffffffffffffffffffffffffffff1673ffffffffffffffffffffffffffffffffffffffff1681526020019081526020015f205f82825401925050819055505b8173ffffffffffffffffffffffffffffffffffffffff168373ffffffffffffffffffffffffffffffffffffffff167fddf252ad1be2c89b69c2b068fc378daa952ba7f163c4a11628f55a4df523b3ef83604051620005d6919062000caa565b60405180910390a3505050565b5f60055f9054906101000a900460ff16905090565b7f4e487b71000000000000000000000000000000000000000000000000000000005f52601160045260245ffd5b5f8160011c9050919050565b5f808291508390505b600185111562000682578086048111156200065a5762000659620005f8565b5b60018516156200066a5780820291505b80810290506200067a8562000625565b94506200063a565b94509492505050565b5f826200069c57600190506200076e565b81620006ab575f90506200076e565b8160018114620006c45760028114620006cf5762000705565b60019150506200076e565b60ff841115620006e457620006e3620005f8565b5b8360020a915084821115620006fe57620006fd620005f8565b5b506200076e565b5060208310610133831016604e8410600b84101617156200073f5782820a905083811115620007395762000738620005f8565b5b6200076e565b6200074e848484600162000631565b92509050818404811115620007685762000767620005f8565b5b81810290505b9392505050565b5f819050919050565b5f60ff82169050919050565b5f620007968262000775565b9150620007a3836200077e565b9250620007d27fffffffffffffffffffffffffffffffffffffffffffffffffffffffffffffffff84846200068b565b905092915050565b5f620007e68262000775565b9150620007f38362000775565b9250828202620008038162000775565b915082820484148315176200081d576200081c620005f8565b5b5092915050565b5f80fd5b5f73ffffffffffffffffffffffffffffffffffffffff82169050919050565b5f620008538262000828565b9050919050565b620008658162000847565b811462000870575f80fd5b50565b5f8151905062000883816200085a565b92915050565b5f60208284031215620008a157620008a062000824565b5b5f620008b08482850162000873565b91505092915050565b5f81519050919050565b7f4e487b71000000000000000000000000000000000000000000000000000000005f52604160045260245ffd5b7f4e487b71000000000000000000000000000000000000000000000000000000005f52602260045260245ffd5b5f60028204905060018216806200093557607f821691505b6020821081036200094b576200094a620008f0565b5b50919050565b5f819050815f5260205f209050919050565b5f6020601f8301049050919050565b5f82821b905092915050565b5f60088302620009af7fffffffffffffffffffffffffffffffffffffffffffffffffffffffffffffffff8262000972565b620009bb868362000972565b95508019841693508086168417925050509392505050565b5f819050919050565b5f620009fc620009f6620009f08462000775565b620009d3565b62000775565b9050919050565b5f819050919050565b62000a1783620009dc565b62000a2f62000a268262000a03565b8484546200097e565b825550505050565b5f90565b62000a4562000a37565b62000a5281848462000a0c565b505050565b5b8181101562000a795762000a6d5f8262000a3b565b60018101905062000a58565b5050565b601f82111562000ac85762000a928162000951565b62000a9d8462000963565b8101602085101562000aad578190505b62000ac562000abc8562000963565b83018262000a57565b50505b505050565b5f82821c905092915050565b5f62000aea5f198460080262000acd565b1980831691505092915050565b5f62000b04838362000ad9565b9150826002028217905092915050565b62000b1f82620008b9565b67ffffffffffffffff81111562000b3b5762000b3a620008c3565b5b62000b4782546200091d565b62000b5482828562000a7d565b5f60209050601f83116001811462000b8a575f841562000b75578287015190505b62000b81858262000af7565b86555062000bf0565b601f19841662000b9a8662000951565b5f5b8281101562000bc35784890151825560018201915060208501945060208101905062000b9c565b8683101562000be3578489015162000bdf601f89168262000ad9565b8355505b6001600288020188555050505b505050505050565b62000c038162000847565b82525050565b5f60208201905062000c1e5f83018462000bf8565b92915050565b5f62000c308262000775565b915062000c3d8362000775565b925082820190508082111562000c585762000c57620005f8565b5b92915050565b62000c698162000775565b82525050565b5f60608201905062000c845f83018662000bf8565b62000c93602083018562000c5e565b62000ca2604083018462000c5e565b949350505050565b5f60208201905062000cbf5f83018462000c5e565b92915050565b611b8b8062000cd35f395ff3fe608060405234801561000f575f80fd5b506004361061011f575f3560e01c80635c975abb116100ab5780638da5cb5b1161006f5780638da5cb5b146102b957806395d89b41146102d7578063a9059cbb146102f5578063dd62ed3e14610325578063f2fde38b146103555761011f565b80635c975abb1461023b57806370a0823114610259578063715018a61461028957806379cc6790146102935780638456cb59146102af5761011f565b8063313ce567116100f2578063313ce567146101bf5780633f4ba83a146101dd57806340c10f19146101e757806342966c6814610203578063486590971461021f5761011f565b806306fdde0314610123578063095ea7b31461014157806318160ddd1461017157806323b872dd1461018f575b5f80fd5b61012b610371565b6040516101389190611485565b60405180910390f35b61015b60048036038101906101569190611536565b610401565b604051610168919061158e565b60405180910390f35b610179610423565b60405161018691906115b6565b60405180910390f35b6101a960048036038101906101a491906115cf565b61042c565b6040516101b6919061158e565b60405180910390f35b6101c761045a565b6040516101d4919061163a565b60405180910390f35b6101e5610462565b005b61020160048036038101906101fc9190611536565b610474565b005b61021d60048036038101906102189190611653565b6104e1565b005b610239600480360381019061023491906116a1565b6104f5565b005b61024361054e565b604051610250919061158e565b60405180910390f35b610273600480360381019061026e91906116f1565b610563565b60405161028091906115b6565b60405180910390f35b6102916105a8565b005b6102ad60048036038101906102a89190611536565b6105bb565b005b6102b76105db565b005b6102c16105ed565b6040516102ce919061172b565b60405180910390f35b6102df610616565b6040516102ec9190611485565b60405180910390f35b61030f600480360381019061030a9190611536565b6106a6565b60405161031c919061158e565b60405180910390f35b61033f600480360381019061033a9190611744565b6106c8565b60405161034c91906115b6565b60405180910390f35b61036f600480360381019061036a91906116f1565b61074a565b005b606060038054610380906117af565b80601f01602080910402602001604051908101604052809291908181526020018280546103ac906117af565b80156103f75780601f106103ce576101008083540402835291602001916103f7565b820191905f5260205f20905b8154815290600101906020018083116103da57829003601f168201915b5050505050905090565b5f8061040b6107ce565b90506104188185856107d5565b600191505092915050565b5f600254905090565b5f806104366107ce565b90506104438582856107e7565b61044e858585610879565b60019150509392505050565b5f6012905090565b61046a610969565b6104726109f0565b565b61047c610969565b60065481610488610423565b610492919061180c565b11156104d3576040517f08c379a00000000000000000000000000000000000000000000000000000000081526004016104ca90611889565b60405180910390fd5b6104dd8282610a51565b5050565b6104f26104ec6107ce565b82610ad0565b50565b5f6105008383610b4f565b905061050c84826106a6565b507ffb5428f39f62fa9aa68d6c0db25fff3552d2958850e862561354749ea2bbef3d308583604051610540939291906118a7565b60405180910390a150505050565b5f60055f9054906101000a900460ff16905090565b5f805f8373ffffffffffffffffffffffffffffffffffffffff1673ffffffffffffffffffffffffffffffffffffffff1681526020019081526020015f20549050919050565b6105b0610969565b6105b95f610e43565b565b6105cd826105c76107ce565b836107e7565b6105d78282610ad0565b5050565b6105e3610969565b6105eb610f08565b565b5f600560019054906101000a900473ffffffffffffffffffffffffffffffffffffffff16905090565b606060048054610625906117af565b80601f0160208091040260200160405190810160405280929190818152602001828054610651906117af565b801561069c5780601f106106735761010080835404028352916020019161069c565b820191905f5260205f20905b81548152906001019060200180831161067f57829003601f168201915b5050505050905090565b5f806106b06107ce565b90506106bd818585610879565b600191505092915050565b5f60015f8473ffffffffffffffffffffffffffffffffffffffff1673ffffffffffffffffffffffffffffffffffffffff1681526020019081526020015f205f8373ffffffffffffffffffffffffffffffffffffffff1673ffffffffffffffffffffffffffffffffffffffff1681526020019081526020015f2054905092915050565b610752610969565b5f73ffffffffffffffffffffffffffffffffffffffff168173ffffffffffffffffffffffffffffffffffffffff16036107c2575f6040517f1e4fbdf70000000000000000000000000000000000000000000000000000000081526004016107b9919061172b565b60405180910390fd5b6107cb81610e43565b50565b5f33905090565b6107e28383836001610f6a565b505050565b5f6107f284846106c8565b90507fffffffffffffffffffffffffffffffffffffffffffffffffffffffffffffffff81146108735781811015610864578281836040517ffb8f41b200000000000000000000000000000000000000000000000000000000815260040161085b939291906118dc565b60405180910390fd5b61087284848484035f610f6a565b5b50505050565b5f73ffffffffffffffffffffffffffffffffffffffff168373ffffffffffffffffffffffffffffffffffffffff16036108e9575f6040517f96c6fd1e0000000000000000000000000000000000000000000000000000000081526004016108e0919061172b565b60405180910390fd5b5f73ffffffffffffffffffffffffffffffffffffffff168273ffffffffffffffffffffffffffffffffffffffff1603610959575f6040517fec442f05000000000000000000000000000000000000000000000000000000008152600401610950919061172b565b60405180910390fd5b610964838383611139565b505050565b6109716107ce565b73ffffffffffffffffffffffffffffffffffffffff1661098f6105ed565b73ffffffffffffffffffffffffffffffffffffffff16146109ee576109b26107ce565b6040517f118cdaa70000000000000000000000000000000000000000000000000000000081526004016109e5919061172b565b60405180910390fd5b565b6109f8611149565b5f60055f6101000a81548160ff0219169083151502179055507f5db9ee0a495bf2e6ff9c91a7834c1ba4fdd244a5e8aa4e537bd38aeae4b073aa610a3a6107ce565b604051610a47919061172b565b60405180910390a1565b5f73ffffffffffffffffffffffffffffffffffffffff168273ffffffffffffffffffffffffffffffffffffffff1603610ac1575f6040517fec442f05000000000000000000000000000000000000000000000000000000008152600401610ab8919061172b565b60405180910390fd5b610acc5f8383611139565b5050565b5f73ffffffffffffffffffffffffffffffffffffffff168273ffffffffffffffffffffffffffffffffffffffff1603610b40575f6040517f96c6fd1e000000000000000000000000000000000000000000000000000000008152600401610b37919061172b565b60405180910390fd5b610b4b825f83611139565b5050565b5f805f90505f610b5d610423565b905060646019600654610b709190611911565b610b7a919061197f565b8110158015610ba2575060646032600654610b959190611911565b610b9f919061197f565b81105b15610c4f575f6001811115610bba57610bb96119af565b5b846001811115610bcd57610bcc6119af565b5b03610c10576064610bdc61045a565b600a610be89190611b0b565b866002610bf59190611911565b610bff9190611911565b610c09919061197f565b9150610c4a565b6064610c1a61045a565b600a610c269190611b0b565b866001610c339190611911565b610c3d9190611911565b610c47919061197f565b91505b610e38565b60646032600654610c609190611911565b610c6a919061197f565b8110158015610c9257506064604b600654610c859190611911565b610c8f919061197f565b81105b15610d40575f6001811115610caa57610ca96119af565b5b846001811115610cbd57610cbc6119af565b5b03610d00576064610ccc61045a565b600a610cd89190611b0b565b866001610ce59190611911565b610cef9190611911565b610cf9919061197f565b9150610d3b565b6103e8610d0b61045a565b600a610d179190611b0b565b866005610d249190611911565b610d2e9190611911565b610d38919061197f565b91505b610e37565b6064604b600654610d519190611911565b610d5b919061197f565b8110158015610d8357506064605f600654610d769190611911565b610d80919061197f565b81105b15610e32575f6001811115610d9b57610d9a6119af565b5b846001811115610dae57610dad6119af565b5b03610df2576103e8610dbe61045a565b600a610dca9190611b0b565b866005610dd79190611911565b610de19190611911565b610deb919061197f565b9150610e2d565b612710610dfd61045a565b600a610e099190611b0b565b866019610e169190611911565b610e209190611911565b610e2a919061197f565b91505b610e36565b5f91505b5b5b819250505092915050565b5f600560019054906101000a900473ffffffffffffffffffffffffffffffffffffffff16905081600560016101000a81548173ffffffffffffffffffffffffffffffffffffffff021916908373ffffffffffffffffffffffffffffffffffffffff1602179055508173ffffffffffffffffffffffffffffffffffffffff168173ffffffffffffffffffffffffffffffffffffffff167f8be0079c531659141344cd1fd0a4f28419497f9722a3daafe3b4186f6b6457e060405160405180910390a35050565b610f10611189565b600160055f6101000a81548160ff0219169083151502179055507f62e78cea01bee320cd4e420270b5ea74000d11b0c9f74754ebdbfc544b05a258610f536107ce565b604051610f60919061172b565b60405180910390a1565b5f73ffffffffffffffffffffffffffffffffffffffff168473ffffffffffffffffffffffffffffffffffffffff1603610fda575f6040517fe602df05000000000000000000000000000000000000000000000000000000008152600401610fd1919061172b565b60405180910390fd5b5f73ffffffffffffffffffffffffffffffffffffffff168373ffffffffffffffffffffffffffffffffffffffff160361104a575f6040517f94280d62000000000000000000000000000000000000000000000000000000008152600401611041919061172b565b60405180910390fd5b8160015f8673ffffffffffffffffffffffffffffffffffffffff1673ffffffffffffffffffffffffffffffffffffffff1681526020019081526020015f205f8573ffffffffffffffffffffffffffffffffffffffff1673ffffffffffffffffffffffffffffffffffffffff1681526020019081526020015f20819055508015611133578273ffffffffffffffffffffffffffffffffffffffff168473ffffffffffffffffffffffffffffffffffffffff167f8c5be1e5ebec7d5bd14f71427d1e84f3dd0314c0f7b2291e5b200ac8c7c3b9258460405161112a91906115b6565b60405180910390a35b50505050565b6111448383836111ca565b505050565b61115161054e565b611187576040517f8dfc202b00000000000000000000000000000000000000000000000000000000815260040160405180910390fd5b565b61119161054e565b156111c8576040517fd93c066500000000000000000000000000000000000000000000000000000000815260040160405180910390fd5b565b6111d2611189565b6111dd8383836111e2565b505050565b5f73ffffffffffffffffffffffffffffffffffffffff168373ffffffffffffffffffffffffffffffffffffffff1603611232578060025f828254611226919061180c565b92505081905550611300565b5f805f8573ffffffffffffffffffffffffffffffffffffffff1673ffffffffffffffffffffffffffffffffffffffff1681526020019081526020015f20549050818110156112bb578381836040517fe450d38c0000000000000000000000000000000000000000000000000000000081526004016112b2939291906118dc565b60405180910390fd5b8181035f808673ffffffffffffffffffffffffffffffffffffffff1673ffffffffffffffffffffffffffffffffffffffff1681526020019081526020015f2081905550505b5f73ffffffffffffffffffffffffffffffffffffffff168273ffffffffffffffffffffffffffffffffffffffff1603611347578060025f8282540392505081905550611391565b805f808473ffffffffffffffffffffffffffffffffffffffff1673ffffffffffffffffffffffffffffffffffffffff1681526020019081526020015f205f82825401925050819055505b8173ffffffffffffffffffffffffffffffffffffffff168373ffffffffffffffffffffffffffffffffffffffff167fddf252ad1be2c89b69c2b068fc378daa952ba7f163c4a11628f55a4df523b3ef836040516113ee91906115b6565b60405180910390a3505050565b5f81519050919050565b5f82825260208201905092915050565b5f5b83811015611432578082015181840152602081019050611417565b5f8484015250505050565b5f601f19601f8301169050919050565b5f611457826113fb565b6114618185611405565b9350611471818560208601611415565b61147a8161143d565b840191505092915050565b5f6020820190508181035f83015261149d818461144d565b905092915050565b5f80fd5b5f73ffffffffffffffffffffffffffffffffffffffff82169050919050565b5f6114d2826114a9565b9050919050565b6114e2816114c8565b81146114ec575f80fd5b50565b5f813590506114fd816114d9565b92915050565b5f819050919050565b61151581611503565b811461151f575f80fd5b50565b5f813590506115308161150c565b92915050565b5f806040838503121561154c5761154b6114a5565b5b5f611559858286016114ef565b925050602061156a85828601611522565b9150509250929050565b5f8115159050919050565b61158881611574565b82525050565b5f6020820190506115a15f83018461157f565b92915050565b6115b081611503565b82525050565b5f6020820190506115c95f8301846115a7565b92915050565b5f805f606084860312156115e6576115e56114a5565b5b5f6115f3868287016114ef565b9350506020611604868287016114ef565b925050604061161586828701611522565b9150509250925092565b5f60ff82169050919050565b6116348161161f565b82525050565b5f60208201905061164d5f83018461162b565b92915050565b5f60208284031215611668576116676114a5565b5b5f61167584828501611522565b91505092915050565b6002811061168a575f80fd5b50565b5f8135905061169b8161167e565b92915050565b5f805f606084860312156116b8576116b76114a5565b5b5f6116c5868287016114ef565b93505060206116d686828701611522565b92505060406116e78682870161168d565b9150509250925092565b5f60208284031215611706576117056114a5565b5b5f611713848285016114ef565b91505092915050565b611725816114c8565b82525050565b5f60208201905061173e5f83018461171c565b92915050565b5f806040838503121561175a576117596114a5565b5b5f611767858286016114ef565b9250506020611778858286016114ef565b9150509250929050565b7f4e487b71000000000000000000000000000000000000000000000000000000005f52602260045260245ffd5b5f60028204905060018216806117c657607f821691505b6020821081036117d9576117d8611782565b5b50919050565b7f4e487b71000000000000000000000000000000000000000000000000000000005f52601160045260245ffd5b5f61181682611503565b915061182183611503565b9250828201905080821115611839576118386117df565b5b92915050565b7f576520736f6c64206f75740000000000000000000000000000000000000000005f82015250565b5f611873600b83611405565b915061187e8261183f565b602082019050919050565b5f6020820190508181035f8301526118a081611867565b9050919050565b5f6060820190506118ba5f83018661171c565b6118c7602083018561171c565b6118d460408301846115a7565b949350505050565b5f6060820190506118ef5f83018661171c565b6118fc60208301856115a7565b61190960408301846115a7565b949350505050565b5f61191b82611503565b915061192683611503565b925082820261193481611503565b9150828204841483151761194b5761194a6117df565b5b5092915050565b7f4e487b71000000000000000000000000000000000000000000000000000000005f52601260045260245ffd5b5f61198982611503565b915061199483611503565b9250826119a4576119a3611952565b5b828204905092915050565b7f4e487b71000000000000000000000000000000000000000000000000000000005f52602160045260245ffd5b5f8160011c9050919050565b5f808291508390505b6001851115611a3157808604811115611a0d57611a0c6117df565b5b6001851615611a1c5780820291505b8081029050611a2a856119dc565b94506119f1565b94509492505050565b5f82611a495760019050611b04565b81611a56575f9050611b04565b8160018114611a6c5760028114611a7657611aa5565b6001915050611b04565b60ff841115611a8857611a876117df565b5b8360020a915084821115611a9f57611a9e6117df565b5b50611b04565b5060208310610133831016604e8410600b8410161715611ada5782820a905083811115611ad557611ad46117df565b5b611b04565b611ae784848460016119e8565b92509050818404811115611afe57611afd6117df565b5b81810290505b9392505050565b5f611b1582611503565b9150611b208361161f565b9250611b4d7fffffffffffffffffffffffffffffffffffffffffffffffffffffffffffffffff8484611a3a565b90509291505056fea2646970667358221220682ea60214ed887cc4b9cf3a621e5a293bc8bd7461d8f3a8dfa868900691491b64736f6c63430008180033",
					"opcodes": "PUSH1 0x80 PUSH1 0x40 MSTORE PUSH3 0x14 PUSH3 0x1DE PUSH1 0x20 SHL PUSH1 0x20 SHR JUMP JUMPDEST PUSH1 0xA PUSH3 0x22 SWAP2 SWAP1 PUSH3 0x78A JUMP JUMPDEST PUSH3 0x989680 PUSH3 0x32 SWAP2 SWAP1 PUSH3 0x7DA JUMP JUMPDEST PUSH1 0x6 SSTORE CALLVALUE DUP1 ISZERO PUSH3 0x41 JUMPI PUSH0 DUP1 REVERT JUMPDEST POP PUSH1 0x40 MLOAD PUSH3 0x285E CODESIZE SUB DUP1 PUSH3 0x285E DUP4 CODECOPY DUP2 DUP2 ADD PUSH1 0x40 MSTORE DUP2 ADD SWAP1 PUSH3 0x67 SWAP2 SWAP1 PUSH3 0x889 JUMP JUMPDEST DUP1 PUSH1 0x40 MLOAD DUP1 PUSH1 0x40 ADD PUSH1 0x40 MSTORE DUP1 PUSH1 0x9 DUP2 MSTORE PUSH1 0x20 ADD PUSH32 0x4765656B546F6B656E0000000000000000000000000000000000000000000000 DUP2 MSTORE POP PUSH1 0x40 MLOAD DUP1 PUSH1 0x40 ADD PUSH1 0x40 MSTORE DUP1 PUSH1 0x3 DUP2 MSTORE PUSH1 0x20 ADD PUSH32 0x47544B0000000000000000000000000000000000000000000000000000000000 DUP2 MSTORE POP DUP2 PUSH1 0x3 SWAP1 DUP2 PUSH3 0xE5 SWAP2 SWAP1 PUSH3 0xB14 JUMP JUMPDEST POP DUP1 PUSH1 0x4 SWAP1 DUP2 PUSH3 0xF7 SWAP2 SWAP1 PUSH3 0xB14 JUMP JUMPDEST POP POP POP PUSH0 PUSH1 0x5 PUSH0 PUSH2 0x100 EXP DUP2 SLOAD DUP2 PUSH1 0xFF MUL NOT AND SWAP1 DUP4 ISZERO ISZERO MUL OR SWAP1 SSTORE POP PUSH0 PUSH20 0xFFFFFFFFFFFFFFFFFFFFFFFFFFFFFFFFFFFFFFFF AND DUP2 PUSH20 0xFFFFFFFFFFFFFFFFFFFFFFFFFFFFFFFFFFFFFFFF AND SUB PUSH3 0x186 JUMPI PUSH0 PUSH1 0x40 MLOAD PUSH32 0x1E4FBDF700000000000000000000000000000000000000000000000000000000 DUP2 MSTORE PUSH1 0x4 ADD PUSH3 0x17D SWAP2 SWAP1 PUSH3 0xC09 JUMP JUMPDEST PUSH1 0x40 MLOAD DUP1 SWAP2 SUB SWAP1 REVERT JUMPDEST PUSH3 0x197 DUP2 PUSH3 0x1E6 PUSH1 0x20 SHL PUSH1 0x20 SHR JUMP JUMPDEST POP PUSH3 0x1D7 CALLER PUSH3 0x1AD PUSH3 0x1DE PUSH1 0x20 SHL PUSH1 0x20 SHR JUMP JUMPDEST PUSH1 0xA PUSH3 0x1BB SWAP2 SWAP1 PUSH3 0x78A JUMP JUMPDEST PUSH3 0x2625A0 PUSH3 0x1CB SWAP2 SWAP1 PUSH3 0x7DA JUMP JUMPDEST PUSH3 0x2AB PUSH1 0x20 SHL PUSH1 0x20 SHR JUMP JUMPDEST POP PUSH3 0xCC5 JUMP JUMPDEST PUSH0 PUSH1 0x12 SWAP1 POP SWAP1 JUMP JUMPDEST PUSH0 PUSH1 0x5 PUSH1 0x1 SWAP1 SLOAD SWAP1 PUSH2 0x100 EXP SWAP1 DIV PUSH20 0xFFFFFFFFFFFFFFFFFFFFFFFFFFFFFFFFFFFFFFFF AND SWAP1 POP DUP2 PUSH1 0x5 PUSH1 0x1 PUSH2 0x100 EXP DUP2 SLOAD DUP2 PUSH20 0xFFFFFFFFFFFFFFFFFFFFFFFFFFFFFFFFFFFFFFFF MUL NOT AND SWAP1 DUP4 PUSH20 0xFFFFFFFFFFFFFFFFFFFFFFFFFFFFFFFFFFFFFFFF AND MUL OR SWAP1 SSTORE POP DUP2 PUSH20 0xFFFFFFFFFFFFFFFFFFFFFFFFFFFFFFFFFFFFFFFF AND DUP2 PUSH20 0xFFFFFFFFFFFFFFFFFFFFFFFFFFFFFFFFFFFFFFFF AND PUSH32 0x8BE0079C531659141344CD1FD0A4F28419497F9722A3DAAFE3B4186F6B6457E0 PUSH1 0x40 MLOAD PUSH1 0x40 MLOAD DUP1 SWAP2 SUB SWAP1 LOG3 POP POP JUMP JUMPDEST PUSH0 PUSH20 0xFFFFFFFFFFFFFFFFFFFFFFFFFFFFFFFFFFFFFFFF AND DUP3 PUSH20 0xFFFFFFFFFFFFFFFFFFFFFFFFFFFFFFFFFFFFFFFF AND SUB PUSH3 0x31E JUMPI PUSH0 PUSH1 0x40 MLOAD PUSH32 0xEC442F0500000000000000000000000000000000000000000000000000000000 DUP2 MSTORE PUSH1 0x4 ADD PUSH3 0x315 SWAP2 SWAP1 PUSH3 0xC09 JUMP JUMPDEST PUSH1 0x40 MLOAD DUP1 SWAP2 SUB SWAP1 REVERT JUMPDEST PUSH3 0x331 PUSH0 DUP4 DUP4 PUSH3 0x335 PUSH1 0x20 SHL PUSH1 0x20 SHR JUMP JUMPDEST POP POP JUMP JUMPDEST PUSH3 0x348 DUP4 DUP4 DUP4 PUSH3 0x34D PUSH1 0x20 SHL PUSH1 0x20 SHR JUMP JUMPDEST POP POP POP JUMP JUMPDEST PUSH3 0x35D PUSH3 0x375 PUSH1 0x20 SHL PUSH1 0x20 SHR JUMP JUMPDEST PUSH3 0x370 DUP4 DUP4 DUP4 PUSH3 0x3BF PUSH1 0x20 SHL PUSH1 0x20 SHR JUMP JUMPDEST POP POP POP JUMP JUMPDEST PUSH3 0x385 PUSH3 0x5E3 PUSH1 0x20 SHL PUSH1 0x20 SHR JUMP JUMPDEST ISZERO PUSH3 0x3BD JUMPI PUSH1 0x40 MLOAD PUSH32 0xD93C066500000000000000000000000000000000000000000000000000000000 DUP2 MSTORE PUSH1 0x4 ADD PUSH1 0x40 MLOAD DUP1 SWAP2 SUB SWAP1 REVERT JUMPDEST JUMP JUMPDEST PUSH0 PUSH20 0xFFFFFFFFFFFFFFFFFFFFFFFFFFFFFFFFFFFFFFFF AND DUP4 PUSH20 0xFFFFFFFFFFFFFFFFFFFFFFFFFFFFFFFFFFFFFFFF AND SUB PUSH3 0x413 JUMPI DUP1 PUSH1 0x2 PUSH0 DUP3 DUP3 SLOAD PUSH3 0x406 SWAP2 SWAP1 PUSH3 0xC24 JUMP JUMPDEST SWAP3 POP POP DUP2 SWAP1 SSTORE POP PUSH3 0x4E4 JUMP JUMPDEST PUSH0 DUP1 PUSH0 DUP6 PUSH20 0xFFFFFFFFFFFFFFFFFFFFFFFFFFFFFFFFFFFFFFFF AND PUSH20 0xFFFFFFFFFFFFFFFFFFFFFFFFFFFFFFFFFFFFFFFF AND DUP2 MSTORE PUSH1 0x20 ADD SWAP1 DUP2 MSTORE PUSH1 0x20 ADD PUSH0 KECCAK256 SLOAD SWAP1 POP DUP2 DUP2 LT ISZERO PUSH3 0x49F JUMPI DUP4 DUP2 DUP4 PUSH1 0x40 MLOAD PUSH32 0xE450D38C00000000000000000000000000000000000000000000000000000000 DUP2 MSTORE PUSH1 0x4 ADD PUSH3 0x496 SWAP4 SWAP3 SWAP2 SWAP1 PUSH3 0xC6F JUMP JUMPDEST PUSH1 0x40 MLOAD DUP1 SWAP2 SUB SWAP1 REVERT JUMPDEST DUP2 DUP2 SUB PUSH0 DUP1 DUP7 PUSH20 0xFFFFFFFFFFFFFFFFFFFFFFFFFFFFFFFFFFFFFFFF AND PUSH20 0xFFFFFFFFFFFFFFFFFFFFFFFFFFFFFFFFFFFFFFFF AND DUP2 MSTORE PUSH1 0x20 ADD SWAP1 DUP2 MSTORE PUSH1 0x20 ADD PUSH0 KECCAK256 DUP2 SWAP1 SSTORE POP POP JUMPDEST PUSH0 PUSH20 0xFFFFFFFFFFFFFFFFFFFFFFFFFFFFFFFFFFFFFFFF AND DUP3 PUSH20 0xFFFFFFFFFFFFFFFFFFFFFFFFFFFFFFFFFFFFFFFF AND SUB PUSH3 0x52D JUMPI DUP1 PUSH1 0x2 PUSH0 DUP3 DUP3 SLOAD SUB SWAP3 POP POP DUP2 SWAP1 SSTORE POP PUSH3 0x577 JUMP JUMPDEST DUP1 PUSH0 DUP1 DUP5 PUSH20 0xFFFFFFFFFFFFFFFFFFFFFFFFFFFFFFFFFFFFFFFF AND PUSH20 0xFFFFFFFFFFFFFFFFFFFFFFFFFFFFFFFFFFFFFFFF AND DUP2 MSTORE PUSH1 0x20 ADD SWAP1 DUP2 MSTORE PUSH1 0x20 ADD PUSH0 KECCAK256 PUSH0 DUP3 DUP3 SLOAD ADD SWAP3 POP POP DUP2 SWAP1 SSTORE POP JUMPDEST DUP2 PUSH20 0xFFFFFFFFFFFFFFFFFFFFFFFFFFFFFFFFFFFFFFFF AND DUP4 PUSH20 0xFFFFFFFFFFFFFFFFFFFFFFFFFFFFFFFFFFFFFFFF AND PUSH32 0xDDF252AD1BE2C89B69C2B068FC378DAA952BA7F163C4A11628F55A4DF523B3EF DUP4 PUSH1 0x40 MLOAD PUSH3 0x5D6 SWAP2 SWAP1 PUSH3 0xCAA JUMP JUMPDEST PUSH1 0x40 MLOAD DUP1 SWAP2 SUB SWAP1 LOG3 POP POP POP JUMP JUMPDEST PUSH0 PUSH1 0x5 PUSH0 SWAP1 SLOAD SWAP1 PUSH2 0x100 EXP SWAP1 DIV PUSH1 0xFF AND SWAP1 POP SWAP1 JUMP JUMPDEST PUSH32 0x4E487B7100000000000000000000000000000000000000000000000000000000 PUSH0 MSTORE PUSH1 0x11 PUSH1 0x4 MSTORE PUSH1 0x24 PUSH0 REVERT JUMPDEST PUSH0 DUP2 PUSH1 0x1 SHR SWAP1 POP SWAP2 SWAP1 POP JUMP JUMPDEST PUSH0 DUP1 DUP3 SWAP2 POP DUP4 SWAP1 POP JUMPDEST PUSH1 0x1 DUP6 GT ISZERO PUSH3 0x682 JUMPI DUP1 DUP7 DIV DUP2 GT ISZERO PUSH3 0x65A JUMPI PUSH3 0x659 PUSH3 0x5F8 JUMP JUMPDEST JUMPDEST PUSH1 0x1 DUP6 AND ISZERO PUSH3 0x66A JUMPI DUP1 DUP3 MUL SWAP2 POP JUMPDEST DUP1 DUP2 MUL SWAP1 POP PUSH3 0x67A DUP6 PUSH3 0x625 JUMP JUMPDEST SWAP5 POP PUSH3 0x63A JUMP JUMPDEST SWAP5 POP SWAP5 SWAP3 POP POP POP JUMP JUMPDEST PUSH0 DUP3 PUSH3 0x69C JUMPI PUSH1 0x1 SWAP1 POP PUSH3 0x76E JUMP JUMPDEST DUP2 PUSH3 0x6AB JUMPI PUSH0 SWAP1 POP PUSH3 0x76E JUMP JUMPDEST DUP2 PUSH1 0x1 DUP2 EQ PUSH3 0x6C4 JUMPI PUSH1 0x2 DUP2 EQ PUSH3 0x6CF JUMPI PUSH3 0x705 JUMP JUMPDEST PUSH1 0x1 SWAP2 POP POP PUSH3 0x76E JUMP JUMPDEST PUSH1 0xFF DUP5 GT ISZERO PUSH3 0x6E4 JUMPI PUSH3 0x6E3 PUSH3 0x5F8 JUMP JUMPDEST JUMPDEST DUP4 PUSH1 0x2 EXP SWAP2 POP DUP5 DUP3 GT ISZERO PUSH3 0x6FE JUMPI PUSH3 0x6FD PUSH3 0x5F8 JUMP JUMPDEST JUMPDEST POP PUSH3 0x76E JUMP JUMPDEST POP PUSH1 0x20 DUP4 LT PUSH2 0x133 DUP4 LT AND PUSH1 0x4E DUP5 LT PUSH1 0xB DUP5 LT AND OR ISZERO PUSH3 0x73F JUMPI DUP3 DUP3 EXP SWAP1 POP DUP4 DUP2 GT ISZERO PUSH3 0x739 JUMPI PUSH3 0x738 PUSH3 0x5F8 JUMP JUMPDEST JUMPDEST PUSH3 0x76E JUMP JUMPDEST PUSH3 0x74E DUP5 DUP5 DUP5 PUSH1 0x1 PUSH3 0x631 JUMP JUMPDEST SWAP3 POP SWAP1 POP DUP2 DUP5 DIV DUP2 GT ISZERO PUSH3 0x768 JUMPI PUSH3 0x767 PUSH3 0x5F8 JUMP JUMPDEST JUMPDEST DUP2 DUP2 MUL SWAP1 POP JUMPDEST SWAP4 SWAP3 POP POP POP JUMP JUMPDEST PUSH0 DUP2 SWAP1 POP SWAP2 SWAP1 POP JUMP JUMPDEST PUSH0 PUSH1 0xFF DUP3 AND SWAP1 POP SWAP2 SWAP1 POP JUMP JUMPDEST PUSH0 PUSH3 0x796 DUP3 PUSH3 0x775 JUMP JUMPDEST SWAP2 POP PUSH3 0x7A3 DUP4 PUSH3 0x77E JUMP JUMPDEST SWAP3 POP PUSH3 0x7D2 PUSH32 0xFFFFFFFFFFFFFFFFFFFFFFFFFFFFFFFFFFFFFFFFFFFFFFFFFFFFFFFFFFFFFFFF DUP5 DUP5 PUSH3 0x68B JUMP JUMPDEST SWAP1 POP SWAP3 SWAP2 POP POP JUMP JUMPDEST PUSH0 PUSH3 0x7E6 DUP3 PUSH3 0x775 JUMP JUMPDEST SWAP2 POP PUSH3 0x7F3 DUP4 PUSH3 0x775 JUMP JUMPDEST SWAP3 POP DUP3 DUP3 MUL PUSH3 0x803 DUP2 PUSH3 0x775 JUMP JUMPDEST SWAP2 POP DUP3 DUP3 DIV DUP5 EQ DUP4 ISZERO OR PUSH3 0x81D JUMPI PUSH3 0x81C PUSH3 0x5F8 JUMP JUMPDEST JUMPDEST POP SWAP3 SWAP2 POP POP JUMP JUMPDEST PUSH0 DUP1 REVERT JUMPDEST PUSH0 PUSH20 0xFFFFFFFFFFFFFFFFFFFFFFFFFFFFFFFFFFFFFFFF DUP3 AND SWAP1 POP SWAP2 SWAP1 POP JUMP JUMPDEST PUSH0 PUSH3 0x853 DUP3 PUSH3 0x828 JUMP JUMPDEST SWAP1 POP SWAP2 SWAP1 POP JUMP JUMPDEST PUSH3 0x865 DUP2 PUSH3 0x847 JUMP JUMPDEST DUP2 EQ PUSH3 0x870 JUMPI PUSH0 DUP1 REVERT JUMPDEST POP JUMP JUMPDEST PUSH0 DUP2 MLOAD SWAP1 POP PUSH3 0x883 DUP2 PUSH3 0x85A JUMP JUMPDEST SWAP3 SWAP2 POP POP JUMP JUMPDEST PUSH0 PUSH1 0x20 DUP3 DUP5 SUB SLT ISZERO PUSH3 0x8A1 JUMPI PUSH3 0x8A0 PUSH3 0x824 JUMP JUMPDEST JUMPDEST PUSH0 PUSH3 0x8B0 DUP5 DUP3 DUP6 ADD PUSH3 0x873 JUMP JUMPDEST SWAP2 POP POP SWAP3 SWAP2 POP POP JUMP JUMPDEST PUSH0 DUP2 MLOAD SWAP1 POP SWAP2 SWAP1 POP JUMP JUMPDEST PUSH32 0x4E487B7100000000000000000000000000000000000000000000000000000000 PUSH0 MSTORE PUSH1 0x41 PUSH1 0x4 MSTORE PUSH1 0x24 PUSH0 REVERT JUMPDEST PUSH32 0x4E487B7100000000000000000000000000000000000000000000000000000000 PUSH0 MSTORE PUSH1 0x22 PUSH1 0x4 MSTORE PUSH1 0x24 PUSH0 REVERT JUMPDEST PUSH0 PUSH1 0x2 DUP3 DIV SWAP1 POP PUSH1 0x1 DUP3 AND DUP1 PUSH3 0x935 JUMPI PUSH1 0x7F DUP3 AND SWAP2 POP JUMPDEST PUSH1 0x20 DUP3 LT DUP2 SUB PUSH3 0x94B JUMPI PUSH3 0x94A PUSH3 0x8F0 JUMP JUMPDEST JUMPDEST POP SWAP2 SWAP1 POP JUMP JUMPDEST PUSH0 DUP2 SWAP1 POP DUP2 PUSH0 MSTORE PUSH1 0x20 PUSH0 KECCAK256 SWAP1 POP SWAP2 SWAP1 POP JUMP JUMPDEST PUSH0 PUSH1 0x20 PUSH1 0x1F DUP4 ADD DIV SWAP1 POP SWAP2 SWAP1 POP JUMP JUMPDEST PUSH0 DUP3 DUP3 SHL SWAP1 POP SWAP3 SWAP2 POP POP JUMP JUMPDEST PUSH0 PUSH1 0x8 DUP4 MUL PUSH3 0x9AF PUSH32 0xFFFFFFFFFFFFFFFFFFFFFFFFFFFFFFFFFFFFFFFFFFFFFFFFFFFFFFFFFFFFFFFF DUP3 PUSH3 0x972 JUMP JUMPDEST PUSH3 0x9BB DUP7 DUP4 PUSH3 0x972 JUMP JUMPDEST SWAP6 POP DUP1 NOT DUP5 AND SWAP4 POP DUP1 DUP7 AND DUP5 OR SWAP3 POP POP POP SWAP4 SWAP3 POP POP POP JUMP JUMPDEST PUSH0 DUP2 SWAP1 POP SWAP2 SWAP1 POP JUMP JUMPDEST PUSH0 PUSH3 0x9FC PUSH3 0x9F6 PUSH3 0x9F0 DUP5 PUSH3 0x775 JUMP JUMPDEST PUSH3 0x9D3 JUMP JUMPDEST PUSH3 0x775 JUMP JUMPDEST SWAP1 POP SWAP2 SWAP1 POP JUMP JUMPDEST PUSH0 DUP2 SWAP1 POP SWAP2 SWAP1 POP JUMP JUMPDEST PUSH3 0xA17 DUP4 PUSH3 0x9DC JUMP JUMPDEST PUSH3 0xA2F PUSH3 0xA26 DUP3 PUSH3 0xA03 JUMP JUMPDEST DUP5 DUP5 SLOAD PUSH3 0x97E JUMP JUMPDEST DUP3 SSTORE POP POP POP POP JUMP JUMPDEST PUSH0 SWAP1 JUMP JUMPDEST PUSH3 0xA45 PUSH3 0xA37 JUMP JUMPDEST PUSH3 0xA52 DUP2 DUP5 DUP5 PUSH3 0xA0C JUMP JUMPDEST POP POP POP JUMP JUMPDEST JUMPDEST DUP2 DUP2 LT ISZERO PUSH3 0xA79 JUMPI PUSH3 0xA6D PUSH0 DUP3 PUSH3 0xA3B JUMP JUMPDEST PUSH1 0x1 DUP2 ADD SWAP1 POP PUSH3 0xA58 JUMP JUMPDEST POP POP JUMP JUMPDEST PUSH1 0x1F DUP3 GT ISZERO PUSH3 0xAC8 JUMPI PUSH3 0xA92 DUP2 PUSH3 0x951 JUMP JUMPDEST PUSH3 0xA9D DUP5 PUSH3 0x963 JUMP JUMPDEST DUP2 ADD PUSH1 0x20 DUP6 LT ISZERO PUSH3 0xAAD JUMPI DUP2 SWAP1 POP JUMPDEST PUSH3 0xAC5 PUSH3 0xABC DUP6 PUSH3 0x963 JUMP JUMPDEST DUP4 ADD DUP3 PUSH3 0xA57 JUMP JUMPDEST POP POP JUMPDEST POP POP POP JUMP JUMPDEST PUSH0 DUP3 DUP3 SHR SWAP1 POP SWAP3 SWAP2 POP POP JUMP JUMPDEST PUSH0 PUSH3 0xAEA PUSH0 NOT DUP5 PUSH1 0x8 MUL PUSH3 0xACD JUMP JUMPDEST NOT DUP1 DUP4 AND SWAP2 POP POP SWAP3 SWAP2 POP POP JUMP JUMPDEST PUSH0 PUSH3 0xB04 DUP4 DUP4 PUSH3 0xAD9 JUMP JUMPDEST SWAP2 POP DUP3 PUSH1 0x2 MUL DUP3 OR SWAP1 POP SWAP3 SWAP2 POP POP JUMP JUMPDEST PUSH3 0xB1F DUP3 PUSH3 0x8B9 JUMP JUMPDEST PUSH8 0xFFFFFFFFFFFFFFFF DUP2 GT ISZERO PUSH3 0xB3B JUMPI PUSH3 0xB3A PUSH3 0x8C3 JUMP JUMPDEST JUMPDEST PUSH3 0xB47 DUP3 SLOAD PUSH3 0x91D JUMP JUMPDEST PUSH3 0xB54 DUP3 DUP3 DUP6 PUSH3 0xA7D JUMP JUMPDEST PUSH0 PUSH1 0x20 SWAP1 POP PUSH1 0x1F DUP4 GT PUSH1 0x1 DUP2 EQ PUSH3 0xB8A JUMPI PUSH0 DUP5 ISZERO PUSH3 0xB75 JUMPI DUP3 DUP8 ADD MLOAD SWAP1 POP JUMPDEST PUSH3 0xB81 DUP6 DUP3 PUSH3 0xAF7 JUMP JUMPDEST DUP7 SSTORE POP PUSH3 0xBF0 JUMP JUMPDEST PUSH1 0x1F NOT DUP5 AND PUSH3 0xB9A DUP7 PUSH3 0x951 JUMP JUMPDEST PUSH0 JUMPDEST DUP3 DUP2 LT ISZERO PUSH3 0xBC3 JUMPI DUP5 DUP10 ADD MLOAD DUP3 SSTORE PUSH1 0x1 DUP3 ADD SWAP2 POP PUSH1 0x20 DUP6 ADD SWAP5 POP PUSH1 0x20 DUP2 ADD SWAP1 POP PUSH3 0xB9C JUMP JUMPDEST DUP7 DUP4 LT ISZERO PUSH3 0xBE3 JUMPI DUP5 DUP10 ADD MLOAD PUSH3 0xBDF PUSH1 0x1F DUP10 AND DUP3 PUSH3 0xAD9 JUMP JUMPDEST DUP4 SSTORE POP JUMPDEST PUSH1 0x1 PUSH1 0x2 DUP9 MUL ADD DUP9 SSTORE POP POP POP JUMPDEST POP POP POP POP POP POP JUMP JUMPDEST PUSH3 0xC03 DUP2 PUSH3 0x847 JUMP JUMPDEST DUP3 MSTORE POP POP JUMP JUMPDEST PUSH0 PUSH1 0x20 DUP3 ADD SWAP1 POP PUSH3 0xC1E PUSH0 DUP4 ADD DUP5 PUSH3 0xBF8 JUMP JUMPDEST SWAP3 SWAP2 POP POP JUMP JUMPDEST PUSH0 PUSH3 0xC30 DUP3 PUSH3 0x775 JUMP JUMPDEST SWAP2 POP PUSH3 0xC3D DUP4 PUSH3 0x775 JUMP JUMPDEST SWAP3 POP DUP3 DUP3 ADD SWAP1 POP DUP1 DUP3 GT ISZERO PUSH3 0xC58 JUMPI PUSH3 0xC57 PUSH3 0x5F8 JUMP JUMPDEST JUMPDEST SWAP3 SWAP2 POP POP JUMP JUMPDEST PUSH3 0xC69 DUP2 PUSH3 0x775 JUMP JUMPDEST DUP3 MSTORE POP POP JUMP JUMPDEST PUSH0 PUSH1 0x60 DUP3 ADD SWAP1 POP PUSH3 0xC84 PUSH0 DUP4 ADD DUP7 PUSH3 0xBF8 JUMP JUMPDEST PUSH3 0xC93 PUSH1 0x20 DUP4 ADD DUP6 PUSH3 0xC5E JUMP JUMPDEST PUSH3 0xCA2 PUSH1 0x40 DUP4 ADD DUP5 PUSH3 0xC5E JUMP JUMPDEST SWAP5 SWAP4 POP POP POP POP JUMP JUMPDEST PUSH0 PUSH1 0x20 DUP3 ADD SWAP1 POP PUSH3 0xCBF PUSH0 DUP4 ADD DUP5 PUSH3 0xC5E JUMP JUMPDEST SWAP3 SWAP2 POP POP JUMP JUMPDEST PUSH2 0x1B8B DUP1 PUSH3 0xCD3 PUSH0 CODECOPY PUSH0 RETURN INVALID PUSH1 0x80 PUSH1 0x40 MSTORE CALLVALUE DUP1 ISZERO PUSH2 0xF JUMPI PUSH0 DUP1 REVERT JUMPDEST POP PUSH1 0x4 CALLDATASIZE LT PUSH2 0x11F JUMPI PUSH0 CALLDATALOAD PUSH1 0xE0 SHR DUP1 PUSH4 0x5C975ABB GT PUSH2 0xAB JUMPI DUP1 PUSH4 0x8DA5CB5B GT PUSH2 0x6F JUMPI DUP1 PUSH4 0x8DA5CB5B EQ PUSH2 0x2B9 JUMPI DUP1 PUSH4 0x95D89B41 EQ PUSH2 0x2D7 JUMPI DUP1 PUSH4 0xA9059CBB EQ PUSH2 0x2F5 JUMPI DUP1 PUSH4 0xDD62ED3E EQ PUSH2 0x325 JUMPI DUP1 PUSH4 0xF2FDE38B EQ PUSH2 0x355 JUMPI PUSH2 0x11F JUMP JUMPDEST DUP1 PUSH4 0x5C975ABB EQ PUSH2 0x23B JUMPI DUP1 PUSH4 0x70A08231 EQ PUSH2 0x259 JUMPI DUP1 PUSH4 0x715018A6 EQ PUSH2 0x289 JUMPI DUP1 PUSH4 0x79CC6790 EQ PUSH2 0x293 JUMPI DUP1 PUSH4 0x8456CB59 EQ PUSH2 0x2AF JUMPI PUSH2 0x11F JUMP JUMPDEST DUP1 PUSH4 0x313CE567 GT PUSH2 0xF2 JUMPI DUP1 PUSH4 0x313CE567 EQ PUSH2 0x1BF JUMPI DUP1 PUSH4 0x3F4BA83A EQ PUSH2 0x1DD JUMPI DUP1 PUSH4 0x40C10F19 EQ PUSH2 0x1E7 JUMPI DUP1 PUSH4 0x42966C68 EQ PUSH2 0x203 JUMPI DUP1 PUSH4 0x48659097 EQ PUSH2 0x21F JUMPI PUSH2 0x11F JUMP JUMPDEST DUP1 PUSH4 0x6FDDE03 EQ PUSH2 0x123 JUMPI DUP1 PUSH4 0x95EA7B3 EQ PUSH2 0x141 JUMPI DUP1 PUSH4 0x18160DDD EQ PUSH2 0x171 JUMPI DUP1 PUSH4 0x23B872DD EQ PUSH2 0x18F JUMPI JUMPDEST PUSH0 DUP1 REVERT JUMPDEST PUSH2 0x12B PUSH2 0x371 JUMP JUMPDEST PUSH1 0x40 MLOAD PUSH2 0x138 SWAP2 SWAP1 PUSH2 0x1485 JUMP JUMPDEST PUSH1 0x40 MLOAD DUP1 SWAP2 SUB SWAP1 RETURN JUMPDEST PUSH2 0x15B PUSH1 0x4 DUP1 CALLDATASIZE SUB DUP2 ADD SWAP1 PUSH2 0x156 SWAP2 SWAP1 PUSH2 0x1536 JUMP JUMPDEST PUSH2 0x401 JUMP JUMPDEST PUSH1 0x40 MLOAD PUSH2 0x168 SWAP2 SWAP1 PUSH2 0x158E JUMP JUMPDEST PUSH1 0x40 MLOAD DUP1 SWAP2 SUB SWAP1 RETURN JUMPDEST PUSH2 0x179 PUSH2 0x423 JUMP JUMPDEST PUSH1 0x40 MLOAD PUSH2 0x186 SWAP2 SWAP1 PUSH2 0x15B6 JUMP JUMPDEST PUSH1 0x40 MLOAD DUP1 SWAP2 SUB SWAP1 RETURN JUMPDEST PUSH2 0x1A9 PUSH1 0x4 DUP1 CALLDATASIZE SUB DUP2 ADD SWAP1 PUSH2 0x1A4 SWAP2 SWAP1 PUSH2 0x15CF JUMP JUMPDEST PUSH2 0x42C JUMP JUMPDEST PUSH1 0x40 MLOAD PUSH2 0x1B6 SWAP2 SWAP1 PUSH2 0x158E JUMP JUMPDEST PUSH1 0x40 MLOAD DUP1 SWAP2 SUB SWAP1 RETURN JUMPDEST PUSH2 0x1C7 PUSH2 0x45A JUMP JUMPDEST PUSH1 0x40 MLOAD PUSH2 0x1D4 SWAP2 SWAP1 PUSH2 0x163A JUMP JUMPDEST PUSH1 0x40 MLOAD DUP1 SWAP2 SUB SWAP1 RETURN JUMPDEST PUSH2 0x1E5 PUSH2 0x462 JUMP JUMPDEST STOP JUMPDEST PUSH2 0x201 PUSH1 0x4 DUP1 CALLDATASIZE SUB DUP2 ADD SWAP1 PUSH2 0x1FC SWAP2 SWAP1 PUSH2 0x1536 JUMP JUMPDEST PUSH2 0x474 JUMP JUMPDEST STOP JUMPDEST PUSH2 0x21D PUSH1 0x4 DUP1 CALLDATASIZE SUB DUP2 ADD SWAP1 PUSH2 0x218 SWAP2 SWAP1 PUSH2 0x1653 JUMP JUMPDEST PUSH2 0x4E1 JUMP JUMPDEST STOP JUMPDEST PUSH2 0x239 PUSH1 0x4 DUP1 CALLDATASIZE SUB DUP2 ADD SWAP1 PUSH2 0x234 SWAP2 SWAP1 PUSH2 0x16A1 JUMP JUMPDEST PUSH2 0x4F5 JUMP JUMPDEST STOP JUMPDEST PUSH2 0x243 PUSH2 0x54E JUMP JUMPDEST PUSH1 0x40 MLOAD PUSH2 0x250 SWAP2 SWAP1 PUSH2 0x158E JUMP JUMPDEST PUSH1 0x40 MLOAD DUP1 SWAP2 SUB SWAP1 RETURN JUMPDEST PUSH2 0x273 PUSH1 0x4 DUP1 CALLDATASIZE SUB DUP2 ADD SWAP1 PUSH2 0x26E SWAP2 SWAP1 PUSH2 0x16F1 JUMP JUMPDEST PUSH2 0x563 JUMP JUMPDEST PUSH1 0x40 MLOAD PUSH2 0x280 SWAP2 SWAP1 PUSH2 0x15B6 JUMP JUMPDEST PUSH1 0x40 MLOAD DUP1 SWAP2 SUB SWAP1 RETURN JUMPDEST PUSH2 0x291 PUSH2 0x5A8 JUMP JUMPDEST STOP JUMPDEST PUSH2 0x2AD PUSH1 0x4 DUP1 CALLDATASIZE SUB DUP2 ADD SWAP1 PUSH2 0x2A8 SWAP2 SWAP1 PUSH2 0x1536 JUMP JUMPDEST PUSH2 0x5BB JUMP JUMPDEST STOP JUMPDEST PUSH2 0x2B7 PUSH2 0x5DB JUMP JUMPDEST STOP JUMPDEST PUSH2 0x2C1 PUSH2 0x5ED JUMP JUMPDEST PUSH1 0x40 MLOAD PUSH2 0x2CE SWAP2 SWAP1 PUSH2 0x172B JUMP JUMPDEST PUSH1 0x40 MLOAD DUP1 SWAP2 SUB SWAP1 RETURN JUMPDEST PUSH2 0x2DF PUSH2 0x616 JUMP JUMPDEST PUSH1 0x40 MLOAD PUSH2 0x2EC SWAP2 SWAP1 PUSH2 0x1485 JUMP JUMPDEST PUSH1 0x40 MLOAD DUP1 SWAP2 SUB SWAP1 RETURN JUMPDEST PUSH2 0x30F PUSH1 0x4 DUP1 CALLDATASIZE SUB DUP2 ADD SWAP1 PUSH2 0x30A SWAP2 SWAP1 PUSH2 0x1536 JUMP JUMPDEST PUSH2 0x6A6 JUMP JUMPDEST PUSH1 0x40 MLOAD PUSH2 0x31C SWAP2 SWAP1 PUSH2 0x158E JUMP JUMPDEST PUSH1 0x40 MLOAD DUP1 SWAP2 SUB SWAP1 RETURN JUMPDEST PUSH2 0x33F PUSH1 0x4 DUP1 CALLDATASIZE SUB DUP2 ADD SWAP1 PUSH2 0x33A SWAP2 SWAP1 PUSH2 0x1744 JUMP JUMPDEST PUSH2 0x6C8 JUMP JUMPDEST PUSH1 0x40 MLOAD PUSH2 0x34C SWAP2 SWAP1 PUSH2 0x15B6 JUMP JUMPDEST PUSH1 0x40 MLOAD DUP1 SWAP2 SUB SWAP1 RETURN JUMPDEST PUSH2 0x36F PUSH1 0x4 DUP1 CALLDATASIZE SUB DUP2 ADD SWAP1 PUSH2 0x36A SWAP2 SWAP1 PUSH2 0x16F1 JUMP JUMPDEST PUSH2 0x74A JUMP JUMPDEST STOP JUMPDEST PUSH1 0x60 PUSH1 0x3 DUP1 SLOAD PUSH2 0x380 SWAP1 PUSH2 0x17AF JUMP JUMPDEST DUP1 PUSH1 0x1F ADD PUSH1 0x20 DUP1 SWAP2 DIV MUL PUSH1 0x20 ADD PUSH1 0x40 MLOAD SWAP1 DUP2 ADD PUSH1 0x40 MSTORE DUP1 SWAP3 SWAP2 SWAP1 DUP2 DUP2 MSTORE PUSH1 0x20 ADD DUP3 DUP1 SLOAD PUSH2 0x3AC SWAP1 PUSH2 0x17AF JUMP JUMPDEST DUP1 ISZERO PUSH2 0x3F7 JUMPI DUP1 PUSH1 0x1F LT PUSH2 0x3CE JUMPI PUSH2 0x100 DUP1 DUP4 SLOAD DIV MUL DUP4 MSTORE SWAP2 PUSH1 0x20 ADD SWAP2 PUSH2 0x3F7 JUMP JUMPDEST DUP3 ADD SWAP2 SWAP1 PUSH0 MSTORE PUSH1 0x20 PUSH0 KECCAK256 SWAP1 JUMPDEST DUP2 SLOAD DUP2 MSTORE SWAP1 PUSH1 0x1 ADD SWAP1 PUSH1 0x20 ADD DUP1 DUP4 GT PUSH2 0x3DA JUMPI DUP3 SWAP1 SUB PUSH1 0x1F AND DUP3 ADD SWAP2 JUMPDEST POP POP POP POP POP SWAP1 POP SWAP1 JUMP JUMPDEST PUSH0 DUP1 PUSH2 0x40B PUSH2 0x7CE JUMP JUMPDEST SWAP1 POP PUSH2 0x418 DUP2 DUP6 DUP6 PUSH2 0x7D5 JUMP JUMPDEST PUSH1 0x1 SWAP2 POP POP SWAP3 SWAP2 POP POP JUMP JUMPDEST PUSH0 PUSH1 0x2 SLOAD SWAP1 POP SWAP1 JUMP JUMPDEST PUSH0 DUP1 PUSH2 0x436 PUSH2 0x7CE JUMP JUMPDEST SWAP1 POP PUSH2 0x443 DUP6 DUP3 DUP6 PUSH2 0x7E7 JUMP JUMPDEST PUSH2 0x44E DUP6 DUP6 DUP6 PUSH2 0x879 JUMP JUMPDEST PUSH1 0x1 SWAP2 POP POP SWAP4 SWAP3 POP POP POP JUMP JUMPDEST PUSH0 PUSH1 0x12 SWAP1 POP SWAP1 JUMP JUMPDEST PUSH2 0x46A PUSH2 0x969 JUMP JUMPDEST PUSH2 0x472 PUSH2 0x9F0 JUMP JUMPDEST JUMP JUMPDEST PUSH2 0x47C PUSH2 0x969 JUMP JUMPDEST PUSH1 0x6 SLOAD DUP2 PUSH2 0x488 PUSH2 0x423 JUMP JUMPDEST PUSH2 0x492 SWAP2 SWAP1 PUSH2 0x180C JUMP JUMPDEST GT ISZERO PUSH2 0x4D3 JUMPI PUSH1 0x40 MLOAD PUSH32 0x8C379A000000000000000000000000000000000000000000000000000000000 DUP2 MSTORE PUSH1 0x4 ADD PUSH2 0x4CA SWAP1 PUSH2 0x1889 JUMP JUMPDEST PUSH1 0x40 MLOAD DUP1 SWAP2 SUB SWAP1 REVERT JUMPDEST PUSH2 0x4DD DUP3 DUP3 PUSH2 0xA51 JUMP JUMPDEST POP POP JUMP JUMPDEST PUSH2 0x4F2 PUSH2 0x4EC PUSH2 0x7CE JUMP JUMPDEST DUP3 PUSH2 0xAD0 JUMP JUMPDEST POP JUMP JUMPDEST PUSH0 PUSH2 0x500 DUP4 DUP4 PUSH2 0xB4F JUMP JUMPDEST SWAP1 POP PUSH2 0x50C DUP5 DUP3 PUSH2 0x6A6 JUMP JUMPDEST POP PUSH32 0xFB5428F39F62FA9AA68D6C0DB25FFF3552D2958850E862561354749EA2BBEF3D ADDRESS DUP6 DUP4 PUSH1 0x40 MLOAD PUSH2 0x540 SWAP4 SWAP3 SWAP2 SWAP1 PUSH2 0x18A7 JUMP JUMPDEST PUSH1 0x40 MLOAD DUP1 SWAP2 SUB SWAP1 LOG1 POP POP POP POP JUMP JUMPDEST PUSH0 PUSH1 0x5 PUSH0 SWAP1 SLOAD SWAP1 PUSH2 0x100 EXP SWAP1 DIV PUSH1 0xFF AND SWAP1 POP SWAP1 JUMP JUMPDEST PUSH0 DUP1 PUSH0 DUP4 PUSH20 0xFFFFFFFFFFFFFFFFFFFFFFFFFFFFFFFFFFFFFFFF AND PUSH20 0xFFFFFFFFFFFFFFFFFFFFFFFFFFFFFFFFFFFFFFFF AND DUP2 MSTORE PUSH1 0x20 ADD SWAP1 DUP2 MSTORE PUSH1 0x20 ADD PUSH0 KECCAK256 SLOAD SWAP1 POP SWAP2 SWAP1 POP JUMP JUMPDEST PUSH2 0x5B0 PUSH2 0x969 JUMP JUMPDEST PUSH2 0x5B9 PUSH0 PUSH2 0xE43 JUMP JUMPDEST JUMP JUMPDEST PUSH2 0x5CD DUP3 PUSH2 0x5C7 PUSH2 0x7CE JUMP JUMPDEST DUP4 PUSH2 0x7E7 JUMP JUMPDEST PUSH2 0x5D7 DUP3 DUP3 PUSH2 0xAD0 JUMP JUMPDEST POP POP JUMP JUMPDEST PUSH2 0x5E3 PUSH2 0x969 JUMP JUMPDEST PUSH2 0x5EB PUSH2 0xF08 JUMP JUMPDEST JUMP JUMPDEST PUSH0 PUSH1 0x5 PUSH1 0x1 SWAP1 SLOAD SWAP1 PUSH2 0x100 EXP SWAP1 DIV PUSH20 0xFFFFFFFFFFFFFFFFFFFFFFFFFFFFFFFFFFFFFFFF AND SWAP1 POP SWAP1 JUMP JUMPDEST PUSH1 0x60 PUSH1 0x4 DUP1 SLOAD PUSH2 0x625 SWAP1 PUSH2 0x17AF JUMP JUMPDEST DUP1 PUSH1 0x1F ADD PUSH1 0x20 DUP1 SWAP2 DIV MUL PUSH1 0x20 ADD PUSH1 0x40 MLOAD SWAP1 DUP2 ADD PUSH1 0x40 MSTORE DUP1 SWAP3 SWAP2 SWAP1 DUP2 DUP2 MSTORE PUSH1 0x20 ADD DUP3 DUP1 SLOAD PUSH2 0x651 SWAP1 PUSH2 0x17AF JUMP JUMPDEST DUP1 ISZERO PUSH2 0x69C JUMPI DUP1 PUSH1 0x1F LT PUSH2 0x673 JUMPI PUSH2 0x100 DUP1 DUP4 SLOAD DIV MUL DUP4 MSTORE SWAP2 PUSH1 0x20 ADD SWAP2 PUSH2 0x69C JUMP JUMPDEST DUP3 ADD SWAP2 SWAP1 PUSH0 MSTORE PUSH1 0x20 PUSH0 KECCAK256 SWAP1 JUMPDEST DUP2 SLOAD DUP2 MSTORE SWAP1 PUSH1 0x1 ADD SWAP1 PUSH1 0x20 ADD DUP1 DUP4 GT PUSH2 0x67F JUMPI DUP3 SWAP1 SUB PUSH1 0x1F AND DUP3 ADD SWAP2 JUMPDEST POP POP POP POP POP SWAP1 POP SWAP1 JUMP JUMPDEST PUSH0 DUP1 PUSH2 0x6B0 PUSH2 0x7CE JUMP JUMPDEST SWAP1 POP PUSH2 0x6BD DUP2 DUP6 DUP6 PUSH2 0x879 JUMP JUMPDEST PUSH1 0x1 SWAP2 POP POP SWAP3 SWAP2 POP POP JUMP JUMPDEST PUSH0 PUSH1 0x1 PUSH0 DUP5 PUSH20 0xFFFFFFFFFFFFFFFFFFFFFFFFFFFFFFFFFFFFFFFF AND PUSH20 0xFFFFFFFFFFFFFFFFFFFFFFFFFFFFFFFFFFFFFFFF AND DUP2 MSTORE PUSH1 0x20 ADD SWAP1 DUP2 MSTORE PUSH1 0x20 ADD PUSH0 KECCAK256 PUSH0 DUP4 PUSH20 0xFFFFFFFFFFFFFFFFFFFFFFFFFFFFFFFFFFFFFFFF AND PUSH20 0xFFFFFFFFFFFFFFFFFFFFFFFFFFFFFFFFFFFFFFFF AND DUP2 MSTORE PUSH1 0x20 ADD SWAP1 DUP2 MSTORE PUSH1 0x20 ADD PUSH0 KECCAK256 SLOAD SWAP1 POP SWAP3 SWAP2 POP POP JUMP JUMPDEST PUSH2 0x752 PUSH2 0x969 JUMP JUMPDEST PUSH0 PUSH20 0xFFFFFFFFFFFFFFFFFFFFFFFFFFFFFFFFFFFFFFFF AND DUP2 PUSH20 0xFFFFFFFFFFFFFFFFFFFFFFFFFFFFFFFFFFFFFFFF AND SUB PUSH2 0x7C2 JUMPI PUSH0 PUSH1 0x40 MLOAD PUSH32 0x1E4FBDF700000000000000000000000000000000000000000000000000000000 DUP2 MSTORE PUSH1 0x4 ADD PUSH2 0x7B9 SWAP2 SWAP1 PUSH2 0x172B JUMP JUMPDEST PUSH1 0x40 MLOAD DUP1 SWAP2 SUB SWAP1 REVERT JUMPDEST PUSH2 0x7CB DUP2 PUSH2 0xE43 JUMP JUMPDEST POP JUMP JUMPDEST PUSH0 CALLER SWAP1 POP SWAP1 JUMP JUMPDEST PUSH2 0x7E2 DUP4 DUP4 DUP4 PUSH1 0x1 PUSH2 0xF6A JUMP JUMPDEST POP POP POP JUMP JUMPDEST PUSH0 PUSH2 0x7F2 DUP5 DUP5 PUSH2 0x6C8 JUMP JUMPDEST SWAP1 POP PUSH32 0xFFFFFFFFFFFFFFFFFFFFFFFFFFFFFFFFFFFFFFFFFFFFFFFFFFFFFFFFFFFFFFFF DUP2 EQ PUSH2 0x873 JUMPI DUP2 DUP2 LT ISZERO PUSH2 0x864 JUMPI DUP3 DUP2 DUP4 PUSH1 0x40 MLOAD PUSH32 0xFB8F41B200000000000000000000000000000000000000000000000000000000 DUP2 MSTORE PUSH1 0x4 ADD PUSH2 0x85B SWAP4 SWAP3 SWAP2 SWAP1 PUSH2 0x18DC JUMP JUMPDEST PUSH1 0x40 MLOAD DUP1 SWAP2 SUB SWAP1 REVERT JUMPDEST PUSH2 0x872 DUP5 DUP5 DUP5 DUP5 SUB PUSH0 PUSH2 0xF6A JUMP JUMPDEST JUMPDEST POP POP POP POP JUMP JUMPDEST PUSH0 PUSH20 0xFFFFFFFFFFFFFFFFFFFFFFFFFFFFFFFFFFFFFFFF AND DUP4 PUSH20 0xFFFFFFFFFFFFFFFFFFFFFFFFFFFFFFFFFFFFFFFF AND SUB PUSH2 0x8E9 JUMPI PUSH0 PUSH1 0x40 MLOAD PUSH32 0x96C6FD1E00000000000000000000000000000000000000000000000000000000 DUP2 MSTORE PUSH1 0x4 ADD PUSH2 0x8E0 SWAP2 SWAP1 PUSH2 0x172B JUMP JUMPDEST PUSH1 0x40 MLOAD DUP1 SWAP2 SUB SWAP1 REVERT JUMPDEST PUSH0 PUSH20 0xFFFFFFFFFFFFFFFFFFFFFFFFFFFFFFFFFFFFFFFF AND DUP3 PUSH20 0xFFFFFFFFFFFFFFFFFFFFFFFFFFFFFFFFFFFFFFFF AND SUB PUSH2 0x959 JUMPI PUSH0 PUSH1 0x40 MLOAD PUSH32 0xEC442F0500000000000000000000000000000000000000000000000000000000 DUP2 MSTORE PUSH1 0x4 ADD PUSH2 0x950 SWAP2 SWAP1 PUSH2 0x172B JUMP JUMPDEST PUSH1 0x40 MLOAD DUP1 SWAP2 SUB SWAP1 REVERT JUMPDEST PUSH2 0x964 DUP4 DUP4 DUP4 PUSH2 0x1139 JUMP JUMPDEST POP POP POP JUMP JUMPDEST PUSH2 0x971 PUSH2 0x7CE JUMP JUMPDEST PUSH20 0xFFFFFFFFFFFFFFFFFFFFFFFFFFFFFFFFFFFFFFFF AND PUSH2 0x98F PUSH2 0x5ED JUMP JUMPDEST PUSH20 0xFFFFFFFFFFFFFFFFFFFFFFFFFFFFFFFFFFFFFFFF AND EQ PUSH2 0x9EE JUMPI PUSH2 0x9B2 PUSH2 0x7CE JUMP JUMPDEST PUSH1 0x40 MLOAD PUSH32 0x118CDAA700000000000000000000000000000000000000000000000000000000 DUP2 MSTORE PUSH1 0x4 ADD PUSH2 0x9E5 SWAP2 SWAP1 PUSH2 0x172B JUMP JUMPDEST PUSH1 0x40 MLOAD DUP1 SWAP2 SUB SWAP1 REVERT JUMPDEST JUMP JUMPDEST PUSH2 0x9F8 PUSH2 0x1149 JUMP JUMPDEST PUSH0 PUSH1 0x5 PUSH0 PUSH2 0x100 EXP DUP2 SLOAD DUP2 PUSH1 0xFF MUL NOT AND SWAP1 DUP4 ISZERO ISZERO MUL OR SWAP1 SSTORE POP PUSH32 0x5DB9EE0A495BF2E6FF9C91A7834C1BA4FDD244A5E8AA4E537BD38AEAE4B073AA PUSH2 0xA3A PUSH2 0x7CE JUMP JUMPDEST PUSH1 0x40 MLOAD PUSH2 0xA47 SWAP2 SWAP1 PUSH2 0x172B JUMP JUMPDEST PUSH1 0x40 MLOAD DUP1 SWAP2 SUB SWAP1 LOG1 JUMP JUMPDEST PUSH0 PUSH20 0xFFFFFFFFFFFFFFFFFFFFFFFFFFFFFFFFFFFFFFFF AND DUP3 PUSH20 0xFFFFFFFFFFFFFFFFFFFFFFFFFFFFFFFFFFFFFFFF AND SUB PUSH2 0xAC1 JUMPI PUSH0 PUSH1 0x40 MLOAD PUSH32 0xEC442F0500000000000000000000000000000000000000000000000000000000 DUP2 MSTORE PUSH1 0x4 ADD PUSH2 0xAB8 SWAP2 SWAP1 PUSH2 0x172B JUMP JUMPDEST PUSH1 0x40 MLOAD DUP1 SWAP2 SUB SWAP1 REVERT JUMPDEST PUSH2 0xACC PUSH0 DUP4 DUP4 PUSH2 0x1139 JUMP JUMPDEST POP POP JUMP JUMPDEST PUSH0 PUSH20 0xFFFFFFFFFFFFFFFFFFFFFFFFFFFFFFFFFFFFFFFF AND DUP3 PUSH20 0xFFFFFFFFFFFFFFFFFFFFFFFFFFFFFFFFFFFFFFFF AND SUB PUSH2 0xB40 JUMPI PUSH0 PUSH1 0x40 MLOAD PUSH32 0x96C6FD1E00000000000000000000000000000000000000000000000000000000 DUP2 MSTORE PUSH1 0x4 ADD PUSH2 0xB37 SWAP2 SWAP1 PUSH2 0x172B JUMP JUMPDEST PUSH1 0x40 MLOAD DUP1 SWAP2 SUB SWAP1 REVERT JUMPDEST PUSH2 0xB4B DUP3 PUSH0 DUP4 PUSH2 0x1139 JUMP JUMPDEST POP POP JUMP JUMPDEST PUSH0 DUP1 PUSH0 SWAP1 POP PUSH0 PUSH2 0xB5D PUSH2 0x423 JUMP JUMPDEST SWAP1 POP PUSH1 0x64 PUSH1 0x19 PUSH1 0x6 SLOAD PUSH2 0xB70 SWAP2 SWAP1 PUSH2 0x1911 JUMP JUMPDEST PUSH2 0xB7A SWAP2 SWAP1 PUSH2 0x197F JUMP JUMPDEST DUP2 LT ISZERO DUP1 ISZERO PUSH2 0xBA2 JUMPI POP PUSH1 0x64 PUSH1 0x32 PUSH1 0x6 SLOAD PUSH2 0xB95 SWAP2 SWAP1 PUSH2 0x1911 JUMP JUMPDEST PUSH2 0xB9F SWAP2 SWAP1 PUSH2 0x197F JUMP JUMPDEST DUP2 LT JUMPDEST ISZERO PUSH2 0xC4F JUMPI PUSH0 PUSH1 0x1 DUP2 GT ISZERO PUSH2 0xBBA JUMPI PUSH2 0xBB9 PUSH2 0x19AF JUMP JUMPDEST JUMPDEST DUP5 PUSH1 0x1 DUP2 GT ISZERO PUSH2 0xBCD JUMPI PUSH2 0xBCC PUSH2 0x19AF JUMP JUMPDEST JUMPDEST SUB PUSH2 0xC10 JUMPI PUSH1 0x64 PUSH2 0xBDC PUSH2 0x45A JUMP JUMPDEST PUSH1 0xA PUSH2 0xBE8 SWAP2 SWAP1 PUSH2 0x1B0B JUMP JUMPDEST DUP7 PUSH1 0x2 PUSH2 0xBF5 SWAP2 SWAP1 PUSH2 0x1911 JUMP JUMPDEST PUSH2 0xBFF SWAP2 SWAP1 PUSH2 0x1911 JUMP JUMPDEST PUSH2 0xC09 SWAP2 SWAP1 PUSH2 0x197F JUMP JUMPDEST SWAP2 POP PUSH2 0xC4A JUMP JUMPDEST PUSH1 0x64 PUSH2 0xC1A PUSH2 0x45A JUMP JUMPDEST PUSH1 0xA PUSH2 0xC26 SWAP2 SWAP1 PUSH2 0x1B0B JUMP JUMPDEST DUP7 PUSH1 0x1 PUSH2 0xC33 SWAP2 SWAP1 PUSH2 0x1911 JUMP JUMPDEST PUSH2 0xC3D SWAP2 SWAP1 PUSH2 0x1911 JUMP JUMPDEST PUSH2 0xC47 SWAP2 SWAP1 PUSH2 0x197F JUMP JUMPDEST SWAP2 POP JUMPDEST PUSH2 0xE38 JUMP JUMPDEST PUSH1 0x64 PUSH1 0x32 PUSH1 0x6 SLOAD PUSH2 0xC60 SWAP2 SWAP1 PUSH2 0x1911 JUMP JUMPDEST PUSH2 0xC6A SWAP2 SWAP1 PUSH2 0x197F JUMP JUMPDEST DUP2 LT ISZERO DUP1 ISZERO PUSH2 0xC92 JUMPI POP PUSH1 0x64 PUSH1 0x4B PUSH1 0x6 SLOAD PUSH2 0xC85 SWAP2 SWAP1 PUSH2 0x1911 JUMP JUMPDEST PUSH2 0xC8F SWAP2 SWAP1 PUSH2 0x197F JUMP JUMPDEST DUP2 LT JUMPDEST ISZERO PUSH2 0xD40 JUMPI PUSH0 PUSH1 0x1 DUP2 GT ISZERO PUSH2 0xCAA JUMPI PUSH2 0xCA9 PUSH2 0x19AF JUMP JUMPDEST JUMPDEST DUP5 PUSH1 0x1 DUP2 GT ISZERO PUSH2 0xCBD JUMPI PUSH2 0xCBC PUSH2 0x19AF JUMP JUMPDEST JUMPDEST SUB PUSH2 0xD00 JUMPI PUSH1 0x64 PUSH2 0xCCC PUSH2 0x45A JUMP JUMPDEST PUSH1 0xA PUSH2 0xCD8 SWAP2 SWAP1 PUSH2 0x1B0B JUMP JUMPDEST DUP7 PUSH1 0x1 PUSH2 0xCE5 SWAP2 SWAP1 PUSH2 0x1911 JUMP JUMPDEST PUSH2 0xCEF SWAP2 SWAP1 PUSH2 0x1911 JUMP JUMPDEST PUSH2 0xCF9 SWAP2 SWAP1 PUSH2 0x197F JUMP JUMPDEST SWAP2 POP PUSH2 0xD3B JUMP JUMPDEST PUSH2 0x3E8 PUSH2 0xD0B PUSH2 0x45A JUMP JUMPDEST PUSH1 0xA PUSH2 0xD17 SWAP2 SWAP1 PUSH2 0x1B0B JUMP JUMPDEST DUP7 PUSH1 0x5 PUSH2 0xD24 SWAP2 SWAP1 PUSH2 0x1911 JUMP JUMPDEST PUSH2 0xD2E SWAP2 SWAP1 PUSH2 0x1911 JUMP JUMPDEST PUSH2 0xD38 SWAP2 SWAP1 PUSH2 0x197F JUMP JUMPDEST SWAP2 POP JUMPDEST PUSH2 0xE37 JUMP JUMPDEST PUSH1 0x64 PUSH1 0x4B PUSH1 0x6 SLOAD PUSH2 0xD51 SWAP2 SWAP1 PUSH2 0x1911 JUMP JUMPDEST PUSH2 0xD5B SWAP2 SWAP1 PUSH2 0x197F JUMP JUMPDEST DUP2 LT ISZERO DUP1 ISZERO PUSH2 0xD83 JUMPI POP PUSH1 0x64 PUSH1 0x5F PUSH1 0x6 SLOAD PUSH2 0xD76 SWAP2 SWAP1 PUSH2 0x1911 JUMP JUMPDEST PUSH2 0xD80 SWAP2 SWAP1 PUSH2 0x197F JUMP JUMPDEST DUP2 LT JUMPDEST ISZERO PUSH2 0xE32 JUMPI PUSH0 PUSH1 0x1 DUP2 GT ISZERO PUSH2 0xD9B JUMPI PUSH2 0xD9A PUSH2 0x19AF JUMP JUMPDEST JUMPDEST DUP5 PUSH1 0x1 DUP2 GT ISZERO PUSH2 0xDAE JUMPI PUSH2 0xDAD PUSH2 0x19AF JUMP JUMPDEST JUMPDEST SUB PUSH2 0xDF2 JUMPI PUSH2 0x3E8 PUSH2 0xDBE PUSH2 0x45A JUMP JUMPDEST PUSH1 0xA PUSH2 0xDCA SWAP2 SWAP1 PUSH2 0x1B0B JUMP JUMPDEST DUP7 PUSH1 0x5 PUSH2 0xDD7 SWAP2 SWAP1 PUSH2 0x1911 JUMP JUMPDEST PUSH2 0xDE1 SWAP2 SWAP1 PUSH2 0x1911 JUMP JUMPDEST PUSH2 0xDEB SWAP2 SWAP1 PUSH2 0x197F JUMP JUMPDEST SWAP2 POP PUSH2 0xE2D JUMP JUMPDEST PUSH2 0x2710 PUSH2 0xDFD PUSH2 0x45A JUMP JUMPDEST PUSH1 0xA PUSH2 0xE09 SWAP2 SWAP1 PUSH2 0x1B0B JUMP JUMPDEST DUP7 PUSH1 0x19 PUSH2 0xE16 SWAP2 SWAP1 PUSH2 0x1911 JUMP JUMPDEST PUSH2 0xE20 SWAP2 SWAP1 PUSH2 0x1911 JUMP JUMPDEST PUSH2 0xE2A SWAP2 SWAP1 PUSH2 0x197F JUMP JUMPDEST SWAP2 POP JUMPDEST PUSH2 0xE36 JUMP JUMPDEST PUSH0 SWAP2 POP JUMPDEST JUMPDEST JUMPDEST DUP2 SWAP3 POP POP POP SWAP3 SWAP2 POP POP JUMP JUMPDEST PUSH0 PUSH1 0x5 PUSH1 0x1 SWAP1 SLOAD SWAP1 PUSH2 0x100 EXP SWAP1 DIV PUSH20 0xFFFFFFFFFFFFFFFFFFFFFFFFFFFFFFFFFFFFFFFF AND SWAP1 POP DUP2 PUSH1 0x5 PUSH1 0x1 PUSH2 0x100 EXP DUP2 SLOAD DUP2 PUSH20 0xFFFFFFFFFFFFFFFFFFFFFFFFFFFFFFFFFFFFFFFF MUL NOT AND SWAP1 DUP4 PUSH20 0xFFFFFFFFFFFFFFFFFFFFFFFFFFFFFFFFFFFFFFFF AND MUL OR SWAP1 SSTORE POP DUP2 PUSH20 0xFFFFFFFFFFFFFFFFFFFFFFFFFFFFFFFFFFFFFFFF AND DUP2 PUSH20 0xFFFFFFFFFFFFFFFFFFFFFFFFFFFFFFFFFFFFFFFF AND PUSH32 0x8BE0079C531659141344CD1FD0A4F28419497F9722A3DAAFE3B4186F6B6457E0 PUSH1 0x40 MLOAD PUSH1 0x40 MLOAD DUP1 SWAP2 SUB SWAP1 LOG3 POP POP JUMP JUMPDEST PUSH2 0xF10 PUSH2 0x1189 JUMP JUMPDEST PUSH1 0x1 PUSH1 0x5 PUSH0 PUSH2 0x100 EXP DUP2 SLOAD DUP2 PUSH1 0xFF MUL NOT AND SWAP1 DUP4 ISZERO ISZERO MUL OR SWAP1 SSTORE POP PUSH32 0x62E78CEA01BEE320CD4E420270B5EA74000D11B0C9F74754EBDBFC544B05A258 PUSH2 0xF53 PUSH2 0x7CE JUMP JUMPDEST PUSH1 0x40 MLOAD PUSH2 0xF60 SWAP2 SWAP1 PUSH2 0x172B JUMP JUMPDEST PUSH1 0x40 MLOAD DUP1 SWAP2 SUB SWAP1 LOG1 JUMP JUMPDEST PUSH0 PUSH20 0xFFFFFFFFFFFFFFFFFFFFFFFFFFFFFFFFFFFFFFFF AND DUP5 PUSH20 0xFFFFFFFFFFFFFFFFFFFFFFFFFFFFFFFFFFFFFFFF AND SUB PUSH2 0xFDA JUMPI PUSH0 PUSH1 0x40 MLOAD PUSH32 0xE602DF0500000000000000000000000000000000000000000000000000000000 DUP2 MSTORE PUSH1 0x4 ADD PUSH2 0xFD1 SWAP2 SWAP1 PUSH2 0x172B JUMP JUMPDEST PUSH1 0x40 MLOAD DUP1 SWAP2 SUB SWAP1 REVERT JUMPDEST PUSH0 PUSH20 0xFFFFFFFFFFFFFFFFFFFFFFFFFFFFFFFFFFFFFFFF AND DUP4 PUSH20 0xFFFFFFFFFFFFFFFFFFFFFFFFFFFFFFFFFFFFFFFF AND SUB PUSH2 0x104A JUMPI PUSH0 PUSH1 0x40 MLOAD PUSH32 0x94280D6200000000000000000000000000000000000000000000000000000000 DUP2 MSTORE PUSH1 0x4 ADD PUSH2 0x1041 SWAP2 SWAP1 PUSH2 0x172B JUMP JUMPDEST PUSH1 0x40 MLOAD DUP1 SWAP2 SUB SWAP1 REVERT JUMPDEST DUP2 PUSH1 0x1 PUSH0 DUP7 PUSH20 0xFFFFFFFFFFFFFFFFFFFFFFFFFFFFFFFFFFFFFFFF AND PUSH20 0xFFFFFFFFFFFFFFFFFFFFFFFFFFFFFFFFFFFFFFFF AND DUP2 MSTORE PUSH1 0x20 ADD SWAP1 DUP2 MSTORE PUSH1 0x20 ADD PUSH0 KECCAK256 PUSH0 DUP6 PUSH20 0xFFFFFFFFFFFFFFFFFFFFFFFFFFFFFFFFFFFFFFFF AND PUSH20 0xFFFFFFFFFFFFFFFFFFFFFFFFFFFFFFFFFFFFFFFF AND DUP2 MSTORE PUSH1 0x20 ADD SWAP1 DUP2 MSTORE PUSH1 0x20 ADD PUSH0 KECCAK256 DUP2 SWAP1 SSTORE POP DUP1 ISZERO PUSH2 0x1133 JUMPI DUP3 PUSH20 0xFFFFFFFFFFFFFFFFFFFFFFFFFFFFFFFFFFFFFFFF AND DUP5 PUSH20 0xFFFFFFFFFFFFFFFFFFFFFFFFFFFFFFFFFFFFFFFF AND PUSH32 0x8C5BE1E5EBEC7D5BD14F71427D1E84F3DD0314C0F7B2291E5B200AC8C7C3B925 DUP5 PUSH1 0x40 MLOAD PUSH2 0x112A SWAP2 SWAP1 PUSH2 0x15B6 JUMP JUMPDEST PUSH1 0x40 MLOAD DUP1 SWAP2 SUB SWAP1 LOG3 JUMPDEST POP POP POP POP JUMP JUMPDEST PUSH2 0x1144 DUP4 DUP4 DUP4 PUSH2 0x11CA JUMP JUMPDEST POP POP POP JUMP JUMPDEST PUSH2 0x1151 PUSH2 0x54E JUMP JUMPDEST PUSH2 0x1187 JUMPI PUSH1 0x40 MLOAD PUSH32 0x8DFC202B00000000000000000000000000000000000000000000000000000000 DUP2 MSTORE PUSH1 0x4 ADD PUSH1 0x40 MLOAD DUP1 SWAP2 SUB SWAP1 REVERT JUMPDEST JUMP JUMPDEST PUSH2 0x1191 PUSH2 0x54E JUMP JUMPDEST ISZERO PUSH2 0x11C8 JUMPI PUSH1 0x40 MLOAD PUSH32 0xD93C066500000000000000000000000000000000000000000000000000000000 DUP2 MSTORE PUSH1 0x4 ADD PUSH1 0x40 MLOAD DUP1 SWAP2 SUB SWAP1 REVERT JUMPDEST JUMP JUMPDEST PUSH2 0x11D2 PUSH2 0x1189 JUMP JUMPDEST PUSH2 0x11DD DUP4 DUP4 DUP4 PUSH2 0x11E2 JUMP JUMPDEST POP POP POP JUMP JUMPDEST PUSH0 PUSH20 0xFFFFFFFFFFFFFFFFFFFFFFFFFFFFFFFFFFFFFFFF AND DUP4 PUSH20 0xFFFFFFFFFFFFFFFFFFFFFFFFFFFFFFFFFFFFFFFF AND SUB PUSH2 0x1232 JUMPI DUP1 PUSH1 0x2 PUSH0 DUP3 DUP3 SLOAD PUSH2 0x1226 SWAP2 SWAP1 PUSH2 0x180C JUMP JUMPDEST SWAP3 POP POP DUP2 SWAP1 SSTORE POP PUSH2 0x1300 JUMP JUMPDEST PUSH0 DUP1 PUSH0 DUP6 PUSH20 0xFFFFFFFFFFFFFFFFFFFFFFFFFFFFFFFFFFFFFFFF AND PUSH20 0xFFFFFFFFFFFFFFFFFFFFFFFFFFFFFFFFFFFFFFFF AND DUP2 MSTORE PUSH1 0x20 ADD SWAP1 DUP2 MSTORE PUSH1 0x20 ADD PUSH0 KECCAK256 SLOAD SWAP1 POP DUP2 DUP2 LT ISZERO PUSH2 0x12BB JUMPI DUP4 DUP2 DUP4 PUSH1 0x40 MLOAD PUSH32 0xE450D38C00000000000000000000000000000000000000000000000000000000 DUP2 MSTORE PUSH1 0x4 ADD PUSH2 0x12B2 SWAP4 SWAP3 SWAP2 SWAP1 PUSH2 0x18DC JUMP JUMPDEST PUSH1 0x40 MLOAD DUP1 SWAP2 SUB SWAP1 REVERT JUMPDEST DUP2 DUP2 SUB PUSH0 DUP1 DUP7 PUSH20 0xFFFFFFFFFFFFFFFFFFFFFFFFFFFFFFFFFFFFFFFF AND PUSH20 0xFFFFFFFFFFFFFFFFFFFFFFFFFFFFFFFFFFFFFFFF AND DUP2 MSTORE PUSH1 0x20 ADD SWAP1 DUP2 MSTORE PUSH1 0x20 ADD PUSH0 KECCAK256 DUP2 SWAP1 SSTORE POP POP JUMPDEST PUSH0 PUSH20 0xFFFFFFFFFFFFFFFFFFFFFFFFFFFFFFFFFFFFFFFF AND DUP3 PUSH20 0xFFFFFFFFFFFFFFFFFFFFFFFFFFFFFFFFFFFFFFFF AND SUB PUSH2 0x1347 JUMPI DUP1 PUSH1 0x2 PUSH0 DUP3 DUP3 SLOAD SUB SWAP3 POP POP DUP2 SWAP1 SSTORE POP PUSH2 0x1391 JUMP JUMPDEST DUP1 PUSH0 DUP1 DUP5 PUSH20 0xFFFFFFFFFFFFFFFFFFFFFFFFFFFFFFFFFFFFFFFF AND PUSH20 0xFFFFFFFFFFFFFFFFFFFFFFFFFFFFFFFFFFFFFFFF AND DUP2 MSTORE PUSH1 0x20 ADD SWAP1 DUP2 MSTORE PUSH1 0x20 ADD PUSH0 KECCAK256 PUSH0 DUP3 DUP3 SLOAD ADD SWAP3 POP POP DUP2 SWAP1 SSTORE POP JUMPDEST DUP2 PUSH20 0xFFFFFFFFFFFFFFFFFFFFFFFFFFFFFFFFFFFFFFFF AND DUP4 PUSH20 0xFFFFFFFFFFFFFFFFFFFFFFFFFFFFFFFFFFFFFFFF AND PUSH32 0xDDF252AD1BE2C89B69C2B068FC378DAA952BA7F163C4A11628F55A4DF523B3EF DUP4 PUSH1 0x40 MLOAD PUSH2 0x13EE SWAP2 SWAP1 PUSH2 0x15B6 JUMP JUMPDEST PUSH1 0x40 MLOAD DUP1 SWAP2 SUB SWAP1 LOG3 POP POP POP JUMP JUMPDEST PUSH0 DUP2 MLOAD SWAP1 POP SWAP2 SWAP1 POP JUMP JUMPDEST PUSH0 DUP3 DUP3 MSTORE PUSH1 0x20 DUP3 ADD SWAP1 POP SWAP3 SWAP2 POP POP JUMP JUMPDEST PUSH0 JUMPDEST DUP4 DUP2 LT ISZERO PUSH2 0x1432 JUMPI DUP1 DUP3 ADD MLOAD DUP2 DUP5 ADD MSTORE PUSH1 0x20 DUP2 ADD SWAP1 POP PUSH2 0x1417 JUMP JUMPDEST PUSH0 DUP5 DUP5 ADD MSTORE POP POP POP POP JUMP JUMPDEST PUSH0 PUSH1 0x1F NOT PUSH1 0x1F DUP4 ADD AND SWAP1 POP SWAP2 SWAP1 POP JUMP JUMPDEST PUSH0 PUSH2 0x1457 DUP3 PUSH2 0x13FB JUMP JUMPDEST PUSH2 0x1461 DUP2 DUP6 PUSH2 0x1405 JUMP JUMPDEST SWAP4 POP PUSH2 0x1471 DUP2 DUP6 PUSH1 0x20 DUP7 ADD PUSH2 0x1415 JUMP JUMPDEST PUSH2 0x147A DUP2 PUSH2 0x143D JUMP JUMPDEST DUP5 ADD SWAP2 POP POP SWAP3 SWAP2 POP POP JUMP JUMPDEST PUSH0 PUSH1 0x20 DUP3 ADD SWAP1 POP DUP2 DUP2 SUB PUSH0 DUP4 ADD MSTORE PUSH2 0x149D DUP2 DUP5 PUSH2 0x144D JUMP JUMPDEST SWAP1 POP SWAP3 SWAP2 POP POP JUMP JUMPDEST PUSH0 DUP1 REVERT JUMPDEST PUSH0 PUSH20 0xFFFFFFFFFFFFFFFFFFFFFFFFFFFFFFFFFFFFFFFF DUP3 AND SWAP1 POP SWAP2 SWAP1 POP JUMP JUMPDEST PUSH0 PUSH2 0x14D2 DUP3 PUSH2 0x14A9 JUMP JUMPDEST SWAP1 POP SWAP2 SWAP1 POP JUMP JUMPDEST PUSH2 0x14E2 DUP2 PUSH2 0x14C8 JUMP JUMPDEST DUP2 EQ PUSH2 0x14EC JUMPI PUSH0 DUP1 REVERT JUMPDEST POP JUMP JUMPDEST PUSH0 DUP2 CALLDATALOAD SWAP1 POP PUSH2 0x14FD DUP2 PUSH2 0x14D9 JUMP JUMPDEST SWAP3 SWAP2 POP POP JUMP JUMPDEST PUSH0 DUP2 SWAP1 POP SWAP2 SWAP1 POP JUMP JUMPDEST PUSH2 0x1515 DUP2 PUSH2 0x1503 JUMP JUMPDEST DUP2 EQ PUSH2 0x151F JUMPI PUSH0 DUP1 REVERT JUMPDEST POP JUMP JUMPDEST PUSH0 DUP2 CALLDATALOAD SWAP1 POP PUSH2 0x1530 DUP2 PUSH2 0x150C JUMP JUMPDEST SWAP3 SWAP2 POP POP JUMP JUMPDEST PUSH0 DUP1 PUSH1 0x40 DUP4 DUP6 SUB SLT ISZERO PUSH2 0x154C JUMPI PUSH2 0x154B PUSH2 0x14A5 JUMP JUMPDEST JUMPDEST PUSH0 PUSH2 0x1559 DUP6 DUP3 DUP7 ADD PUSH2 0x14EF JUMP JUMPDEST SWAP3 POP POP PUSH1 0x20 PUSH2 0x156A DUP6 DUP3 DUP7 ADD PUSH2 0x1522 JUMP JUMPDEST SWAP2 POP POP SWAP3 POP SWAP3 SWAP1 POP JUMP JUMPDEST PUSH0 DUP2 ISZERO ISZERO SWAP1 POP SWAP2 SWAP1 POP JUMP JUMPDEST PUSH2 0x1588 DUP2 PUSH2 0x1574 JUMP JUMPDEST DUP3 MSTORE POP POP JUMP JUMPDEST PUSH0 PUSH1 0x20 DUP3 ADD SWAP1 POP PUSH2 0x15A1 PUSH0 DUP4 ADD DUP5 PUSH2 0x157F JUMP JUMPDEST SWAP3 SWAP2 POP POP JUMP JUMPDEST PUSH2 0x15B0 DUP2 PUSH2 0x1503 JUMP JUMPDEST DUP3 MSTORE POP POP JUMP JUMPDEST PUSH0 PUSH1 0x20 DUP3 ADD SWAP1 POP PUSH2 0x15C9 PUSH0 DUP4 ADD DUP5 PUSH2 0x15A7 JUMP JUMPDEST SWAP3 SWAP2 POP POP JUMP JUMPDEST PUSH0 DUP1 PUSH0 PUSH1 0x60 DUP5 DUP7 SUB SLT ISZERO PUSH2 0x15E6 JUMPI PUSH2 0x15E5 PUSH2 0x14A5 JUMP JUMPDEST JUMPDEST PUSH0 PUSH2 0x15F3 DUP7 DUP3 DUP8 ADD PUSH2 0x14EF JUMP JUMPDEST SWAP4 POP POP PUSH1 0x20 PUSH2 0x1604 DUP7 DUP3 DUP8 ADD PUSH2 0x14EF JUMP JUMPDEST SWAP3 POP POP PUSH1 0x40 PUSH2 0x1615 DUP7 DUP3 DUP8 ADD PUSH2 0x1522 JUMP JUMPDEST SWAP2 POP POP SWAP3 POP SWAP3 POP SWAP3 JUMP JUMPDEST PUSH0 PUSH1 0xFF DUP3 AND SWAP1 POP SWAP2 SWAP1 POP JUMP JUMPDEST PUSH2 0x1634 DUP2 PUSH2 0x161F JUMP JUMPDEST DUP3 MSTORE POP POP JUMP JUMPDEST PUSH0 PUSH1 0x20 DUP3 ADD SWAP1 POP PUSH2 0x164D PUSH0 DUP4 ADD DUP5 PUSH2 0x162B JUMP JUMPDEST SWAP3 SWAP2 POP POP JUMP JUMPDEST PUSH0 PUSH1 0x20 DUP3 DUP5 SUB SLT ISZERO PUSH2 0x1668 JUMPI PUSH2 0x1667 PUSH2 0x14A5 JUMP JUMPDEST JUMPDEST PUSH0 PUSH2 0x1675 DUP5 DUP3 DUP6 ADD PUSH2 0x1522 JUMP JUMPDEST SWAP2 POP POP SWAP3 SWAP2 POP POP JUMP JUMPDEST PUSH1 0x2 DUP2 LT PUSH2 0x168A JUMPI PUSH0 DUP1 REVERT JUMPDEST POP JUMP JUMPDEST PUSH0 DUP2 CALLDATALOAD SWAP1 POP PUSH2 0x169B DUP2 PUSH2 0x167E JUMP JUMPDEST SWAP3 SWAP2 POP POP JUMP JUMPDEST PUSH0 DUP1 PUSH0 PUSH1 0x60 DUP5 DUP7 SUB SLT ISZERO PUSH2 0x16B8 JUMPI PUSH2 0x16B7 PUSH2 0x14A5 JUMP JUMPDEST JUMPDEST PUSH0 PUSH2 0x16C5 DUP7 DUP3 DUP8 ADD PUSH2 0x14EF JUMP JUMPDEST SWAP4 POP POP PUSH1 0x20 PUSH2 0x16D6 DUP7 DUP3 DUP8 ADD PUSH2 0x1522 JUMP JUMPDEST SWAP3 POP POP PUSH1 0x40 PUSH2 0x16E7 DUP7 DUP3 DUP8 ADD PUSH2 0x168D JUMP JUMPDEST SWAP2 POP POP SWAP3 POP SWAP3 POP SWAP3 JUMP JUMPDEST PUSH0 PUSH1 0x20 DUP3 DUP5 SUB SLT ISZERO PUSH2 0x1706 JUMPI PUSH2 0x1705 PUSH2 0x14A5 JUMP JUMPDEST JUMPDEST PUSH0 PUSH2 0x1713 DUP5 DUP3 DUP6 ADD PUSH2 0x14EF JUMP JUMPDEST SWAP2 POP POP SWAP3 SWAP2 POP POP JUMP JUMPDEST PUSH2 0x1725 DUP2 PUSH2 0x14C8 JUMP JUMPDEST DUP3 MSTORE POP POP JUMP JUMPDEST PUSH0 PUSH1 0x20 DUP3 ADD SWAP1 POP PUSH2 0x173E PUSH0 DUP4 ADD DUP5 PUSH2 0x171C JUMP JUMPDEST SWAP3 SWAP2 POP POP JUMP JUMPDEST PUSH0 DUP1 PUSH1 0x40 DUP4 DUP6 SUB SLT ISZERO PUSH2 0x175A JUMPI PUSH2 0x1759 PUSH2 0x14A5 JUMP JUMPDEST JUMPDEST PUSH0 PUSH2 0x1767 DUP6 DUP3 DUP7 ADD PUSH2 0x14EF JUMP JUMPDEST SWAP3 POP POP PUSH1 0x20 PUSH2 0x1778 DUP6 DUP3 DUP7 ADD PUSH2 0x14EF JUMP JUMPDEST SWAP2 POP POP SWAP3 POP SWAP3 SWAP1 POP JUMP JUMPDEST PUSH32 0x4E487B7100000000000000000000000000000000000000000000000000000000 PUSH0 MSTORE PUSH1 0x22 PUSH1 0x4 MSTORE PUSH1 0x24 PUSH0 REVERT JUMPDEST PUSH0 PUSH1 0x2 DUP3 DIV SWAP1 POP PUSH1 0x1 DUP3 AND DUP1 PUSH2 0x17C6 JUMPI PUSH1 0x7F DUP3 AND SWAP2 POP JUMPDEST PUSH1 0x20 DUP3 LT DUP2 SUB PUSH2 0x17D9 JUMPI PUSH2 0x17D8 PUSH2 0x1782 JUMP JUMPDEST JUMPDEST POP SWAP2 SWAP1 POP JUMP JUMPDEST PUSH32 0x4E487B7100000000000000000000000000000000000000000000000000000000 PUSH0 MSTORE PUSH1 0x11 PUSH1 0x4 MSTORE PUSH1 0x24 PUSH0 REVERT JUMPDEST PUSH0 PUSH2 0x1816 DUP3 PUSH2 0x1503 JUMP JUMPDEST SWAP2 POP PUSH2 0x1821 DUP4 PUSH2 0x1503 JUMP JUMPDEST SWAP3 POP DUP3 DUP3 ADD SWAP1 POP DUP1 DUP3 GT ISZERO PUSH2 0x1839 JUMPI PUSH2 0x1838 PUSH2 0x17DF JUMP JUMPDEST JUMPDEST SWAP3 SWAP2 POP POP JUMP JUMPDEST PUSH32 0x576520736F6C64206F7574000000000000000000000000000000000000000000 PUSH0 DUP3 ADD MSTORE POP JUMP JUMPDEST PUSH0 PUSH2 0x1873 PUSH1 0xB DUP4 PUSH2 0x1405 JUMP JUMPDEST SWAP2 POP PUSH2 0x187E DUP3 PUSH2 0x183F JUMP JUMPDEST PUSH1 0x20 DUP3 ADD SWAP1 POP SWAP2 SWAP1 POP JUMP JUMPDEST PUSH0 PUSH1 0x20 DUP3 ADD SWAP1 POP DUP2 DUP2 SUB PUSH0 DUP4 ADD MSTORE PUSH2 0x18A0 DUP2 PUSH2 0x1867 JUMP JUMPDEST SWAP1 POP SWAP2 SWAP1 POP JUMP JUMPDEST PUSH0 PUSH1 0x60 DUP3 ADD SWAP1 POP PUSH2 0x18BA PUSH0 DUP4 ADD DUP7 PUSH2 0x171C JUMP JUMPDEST PUSH2 0x18C7 PUSH1 0x20 DUP4 ADD DUP6 PUSH2 0x171C JUMP JUMPDEST PUSH2 0x18D4 PUSH1 0x40 DUP4 ADD DUP5 PUSH2 0x15A7 JUMP JUMPDEST SWAP5 SWAP4 POP POP POP POP JUMP JUMPDEST PUSH0 PUSH1 0x60 DUP3 ADD SWAP1 POP PUSH2 0x18EF PUSH0 DUP4 ADD DUP7 PUSH2 0x171C JUMP JUMPDEST PUSH2 0x18FC PUSH1 0x20 DUP4 ADD DUP6 PUSH2 0x15A7 JUMP JUMPDEST PUSH2 0x1909 PUSH1 0x40 DUP4 ADD DUP5 PUSH2 0x15A7 JUMP JUMPDEST SWAP5 SWAP4 POP POP POP POP JUMP JUMPDEST PUSH0 PUSH2 0x191B DUP3 PUSH2 0x1503 JUMP JUMPDEST SWAP2 POP PUSH2 0x1926 DUP4 PUSH2 0x1503 JUMP JUMPDEST SWAP3 POP DUP3 DUP3 MUL PUSH2 0x1934 DUP2 PUSH2 0x1503 JUMP JUMPDEST SWAP2 POP DUP3 DUP3 DIV DUP5 EQ DUP4 ISZERO OR PUSH2 0x194B JUMPI PUSH2 0x194A PUSH2 0x17DF JUMP JUMPDEST JUMPDEST POP SWAP3 SWAP2 POP POP JUMP JUMPDEST PUSH32 0x4E487B7100000000000000000000000000000000000000000000000000000000 PUSH0 MSTORE PUSH1 0x12 PUSH1 0x4 MSTORE PUSH1 0x24 PUSH0 REVERT JUMPDEST PUSH0 PUSH2 0x1989 DUP3 PUSH2 0x1503 JUMP JUMPDEST SWAP2 POP PUSH2 0x1994 DUP4 PUSH2 0x1503 JUMP JUMPDEST SWAP3 POP DUP3 PUSH2 0x19A4 JUMPI PUSH2 0x19A3 PUSH2 0x1952 JUMP JUMPDEST JUMPDEST DUP3 DUP3 DIV SWAP1 POP SWAP3 SWAP2 POP POP JUMP JUMPDEST PUSH32 0x4E487B7100000000000000000000000000000000000000000000000000000000 PUSH0 MSTORE PUSH1 0x21 PUSH1 0x4 MSTORE PUSH1 0x24 PUSH0 REVERT JUMPDEST PUSH0 DUP2 PUSH1 0x1 SHR SWAP1 POP SWAP2 SWAP1 POP JUMP JUMPDEST PUSH0 DUP1 DUP3 SWAP2 POP DUP4 SWAP1 POP JUMPDEST PUSH1 0x1 DUP6 GT ISZERO PUSH2 0x1A31 JUMPI DUP1 DUP7 DIV DUP2 GT ISZERO PUSH2 0x1A0D JUMPI PUSH2 0x1A0C PUSH2 0x17DF JUMP JUMPDEST JUMPDEST PUSH1 0x1 DUP6 AND ISZERO PUSH2 0x1A1C JUMPI DUP1 DUP3 MUL SWAP2 POP JUMPDEST DUP1 DUP2 MUL SWAP1 POP PUSH2 0x1A2A DUP6 PUSH2 0x19DC JUMP JUMPDEST SWAP5 POP PUSH2 0x19F1 JUMP JUMPDEST SWAP5 POP SWAP5 SWAP3 POP POP POP JUMP JUMPDEST PUSH0 DUP3 PUSH2 0x1A49 JUMPI PUSH1 0x1 SWAP1 POP PUSH2 0x1B04 JUMP JUMPDEST DUP2 PUSH2 0x1A56 JUMPI PUSH0 SWAP1 POP PUSH2 0x1B04 JUMP JUMPDEST DUP2 PUSH1 0x1 DUP2 EQ PUSH2 0x1A6C JUMPI PUSH1 0x2 DUP2 EQ PUSH2 0x1A76 JUMPI PUSH2 0x1AA5 JUMP JUMPDEST PUSH1 0x1 SWAP2 POP POP PUSH2 0x1B04 JUMP JUMPDEST PUSH1 0xFF DUP5 GT ISZERO PUSH2 0x1A88 JUMPI PUSH2 0x1A87 PUSH2 0x17DF JUMP JUMPDEST JUMPDEST DUP4 PUSH1 0x2 EXP SWAP2 POP DUP5 DUP3 GT ISZERO PUSH2 0x1A9F JUMPI PUSH2 0x1A9E PUSH2 0x17DF JUMP JUMPDEST JUMPDEST POP PUSH2 0x1B04 JUMP JUMPDEST POP PUSH1 0x20 DUP4 LT PUSH2 0x133 DUP4 LT AND PUSH1 0x4E DUP5 LT PUSH1 0xB DUP5 LT AND OR ISZERO PUSH2 0x1ADA JUMPI DUP3 DUP3 EXP SWAP1 POP DUP4 DUP2 GT ISZERO PUSH2 0x1AD5 JUMPI PUSH2 0x1AD4 PUSH2 0x17DF JUMP JUMPDEST JUMPDEST PUSH2 0x1B04 JUMP JUMPDEST PUSH2 0x1AE7 DUP5 DUP5 DUP5 PUSH1 0x1 PUSH2 0x19E8 JUMP JUMPDEST SWAP3 POP SWAP1 POP DUP2 DUP5 DIV DUP2 GT ISZERO PUSH2 0x1AFE JUMPI PUSH2 0x1AFD PUSH2 0x17DF JUMP JUMPDEST JUMPDEST DUP2 DUP2 MUL SWAP1 POP JUMPDEST SWAP4 SWAP3 POP POP POP JUMP JUMPDEST PUSH0 PUSH2 0x1B15 DUP3 PUSH2 0x1503 JUMP JUMPDEST SWAP2 POP PUSH2 0x1B20 DUP4 PUSH2 0x161F JUMP JUMPDEST SWAP3 POP PUSH2 0x1B4D PUSH32 0xFFFFFFFFFFFFFFFFFFFFFFFFFFFFFFFFFFFFFFFFFFFFFFFFFFFFFFFFFFFFFFFF DUP5 DUP5 PUSH2 0x1A3A JUMP JUMPDEST SWAP1 POP SWAP3 SWAP2 POP POP JUMP INVALID LOG2 PUSH5 0x6970667358 0x22 SLT KECCAK256 PUSH9 0x2EA60214ED887CC4B9 0xCF GASPRICE PUSH3 0x1E5A29 EXTCODESIZE 0xC8 0xBD PUSH21 0x61D8F3A8DFA868900691491B64736F6C6343000818 STOP CALLER "
				},
				"gasEstimates": {
					"creation": {
						"codeDepositCost": "1410200",
						"executionCost": "infinite",
						"totalCost": "infinite"
					},
					"external": {
						"allowance(address,address)": "infinite",
						"approve(address,uint256)": "infinite",
						"balanceOf(address)": "2874",
						"burn(uint256)": "infinite",
						"burnFrom(address,uint256)": "infinite",
						"decimals()": "361",
						"mint(address,uint256)": "infinite",
						"name()": "infinite",
						"owner()": "2588",
						"pause()": "infinite",
						"paused()": "2496",
						"renounceOwnership()": "infinite",
						"symbol()": "infinite",
						"totalSupply()": "2500",
						"transfer(address,uint256)": "infinite",
						"transferFrom(address,address,uint256)": "infinite",
						"transferOwnership(address)": "infinite",
						"transferTokens(address,uint256,uint8)": "infinite",
						"unpause()": "infinite"
					},
					"internal": {
						"_update(address,address,uint256)": "infinite",
						"tokenReward(uint256,enum Types.Acceptance)": "infinite"
					}
				},
				"methodIdentifiers": {
					"allowance(address,address)": "dd62ed3e",
					"approve(address,uint256)": "095ea7b3",
					"balanceOf(address)": "70a08231",
					"burn(uint256)": "42966c68",
					"burnFrom(address,uint256)": "79cc6790",
					"decimals()": "313ce567",
					"mint(address,uint256)": "40c10f19",
					"name()": "06fdde03",
					"owner()": "8da5cb5b",
					"pause()": "8456cb59",
					"paused()": "5c975abb",
					"renounceOwnership()": "715018a6",
					"symbol()": "95d89b41",
					"totalSupply()": "18160ddd",
					"transfer(address,uint256)": "a9059cbb",
					"transferFrom(address,address,uint256)": "23b872dd",
					"transferOwnership(address)": "f2fde38b",
					"transferTokens(address,uint256,uint8)": "48659097",
					"unpause()": "3f4ba83a"
				}
			},
			"storageLayout": {
				"storage": [
					{
						"astId": 307,
						"contract": "contracts/GeekToken/GeekToken.sol:GeekToken",
						"label": "_balances",
						"offset": 0,
						"slot": "0",
						"type": "t_mapping(t_address,t_uint256)"
					},
					{
						"astId": 313,
						"contract": "contracts/GeekToken/GeekToken.sol:GeekToken",
						"label": "_allowances",
						"offset": 0,
						"slot": "1",
						"type": "t_mapping(t_address,t_mapping(t_address,t_uint256))"
					},
					{
						"astId": 315,
						"contract": "contracts/GeekToken/GeekToken.sol:GeekToken",
						"label": "_totalSupply",
						"offset": 0,
						"slot": "2",
						"type": "t_uint256"
					},
					{
						"astId": 317,
						"contract": "contracts/GeekToken/GeekToken.sol:GeekToken",
						"label": "_name",
						"offset": 0,
						"slot": "3",
						"type": "t_string_storage"
					},
					{
						"astId": 319,
						"contract": "contracts/GeekToken/GeekToken.sol:GeekToken",
						"label": "_symbol",
						"offset": 0,
						"slot": "4",
						"type": "t_string_storage"
					},
					{
						"astId": 1022,
						"contract": "contracts/GeekToken/GeekToken.sol:GeekToken",
						"label": "_paused",
						"offset": 0,
						"slot": "5",
						"type": "t_bool"
					},
					{
						"astId": 8,
						"contract": "contracts/GeekToken/GeekToken.sol:GeekToken",
						"label": "_owner",
						"offset": 1,
						"slot": "5",
						"type": "t_address"
					},
					{
						"astId": 1166,
						"contract": "contracts/GeekToken/GeekToken.sol:GeekToken",
						"label": "maxSupply",
						"offset": 0,
						"slot": "6",
						"type": "t_uint256"
					}
				],
				"types": {
					"t_address": {
						"encoding": "inplace",
						"label": "address",
						"numberOfBytes": "20"
					},
					"t_bool": {
						"encoding": "inplace",
						"label": "bool",
						"numberOfBytes": "1"
					},
					"t_mapping(t_address,t_mapping(t_address,t_uint256))": {
						"encoding": "mapping",
						"key": "t_address",
						"label": "mapping(address => mapping(address => uint256))",
						"numberOfBytes": "32",
						"value": "t_mapping(t_address,t_uint256)"
					},
					"t_mapping(t_address,t_uint256)": {
						"encoding": "mapping",
						"key": "t_address",
						"label": "mapping(address => uint256)",
						"numberOfBytes": "32",
						"value": "t_uint256"
					},
					"t_string_storage": {
						"encoding": "bytes",
						"label": "string",
						"numberOfBytes": "32"
					},
					"t_uint256": {
						"encoding": "inplace",
						"label": "uint256",
						"numberOfBytes": "32"
					}
				}
			},
			"userdoc": {
				"kind": "user",
				"methods": {},
				"version": 1
			}
		}
	}
}