{
	"contracts/User/UserRoleRequest.sol": {
		"UserRoleRequest": {
			"abi": [
				{
					"inputs": [
						{
							"internalType": "address",
							"name": "initialOwner",
							"type": "address"
						}
					],
					"stateMutability": "nonpayable",
					"type": "constructor"
				},
				{
					"inputs": [
						{
							"internalType": "address",
							"name": "userAddress",
							"type": "address"
						},
						{
							"internalType": "string",
							"name": "errMsg",
							"type": "string"
						},
						{
							"internalType": "string",
							"name": "requestId",
							"type": "string"
						}
					],
					"name": "AlreadyProcessedError",
					"type": "error"
				},
				{
					"inputs": [
						{
							"internalType": "address",
							"name": "userAddress",
							"type": "address"
						},
						{
							"internalType": "string",
							"name": "errMsg",
							"type": "string"
						}
					],
					"name": "InvalidInput",
					"type": "error"
				},
				{
					"inputs": [
						{
							"internalType": "address",
							"name": "userAddress",
							"type": "address"
						},
						{
							"internalType": "string",
							"name": "errMsg",
							"type": "string"
						}
					],
					"name": "NotAuthorized",
					"type": "error"
				},
				{
					"inputs": [
						{
							"internalType": "address",
							"name": "owner",
							"type": "address"
						}
					],
					"name": "OwnableInvalidOwner",
					"type": "error"
				},
				{
					"inputs": [
						{
							"internalType": "address",
							"name": "account",
							"type": "address"
						}
					],
					"name": "OwnableUnauthorizedAccount",
					"type": "error"
				},
				{
					"inputs": [
						{
							"internalType": "address",
							"name": "userAddress",
							"type": "address"
						},
						{
							"internalType": "string",
							"name": "errMsg",
							"type": "string"
						},
						{
							"internalType": "string",
							"name": "requestId",
							"type": "string"
						}
					],
					"name": "RoleRequestNotFound",
					"type": "error"
				},
				{
					"inputs": [
						{
							"internalType": "address",
							"name": "userAddress",
							"type": "address"
						},
						{
							"internalType": "string",
							"name": "errMsg",
							"type": "string"
						}
					],
					"name": "UserNotRegistered",
					"type": "error"
				},
				{
					"anonymous": false,
					"inputs": [
						{
							"indexed": false,
							"internalType": "string",
							"name": "requestId",
							"type": "string"
						},
						{
							"indexed": false,
							"internalType": "address",
							"name": "applicantAddress",
							"type": "address"
						},
						{
							"indexed": false,
							"internalType": "enum Types.Role",
							"name": "requestedRole",
							"type": "uint8"
						}
					],
					"name": "NewRoleRequestCreated",
					"type": "event"
				},
				{
					"anonymous": false,
					"inputs": [
						{
							"indexed": false,
							"internalType": "string",
							"name": "userName",
							"type": "string"
						},
						{
							"indexed": false,
							"internalType": "address",
							"name": "userAddr",
							"type": "address"
						},
						{
							"indexed": false,
							"internalType": "string",
							"name": "geoHash",
							"type": "string"
						}
					],
					"name": "NewUserCreated",
					"type": "event"
				},
				{
					"anonymous": false,
					"inputs": [
						{
							"indexed": true,
							"internalType": "address",
							"name": "previousOwner",
							"type": "address"
						},
						{
							"indexed": true,
							"internalType": "address",
							"name": "newOwner",
							"type": "address"
						}
					],
					"name": "OwnershipTransferred",
					"type": "event"
				},
				{
					"inputs": [
						{
							"internalType": "string",
							"name": "_roleRequestId",
							"type": "string"
						},
						{
							"internalType": "bool",
							"name": "approve",
							"type": "bool"
						}
					],
					"name": "approveOrRejectRoleRequest",
					"outputs": [],
					"stateMutability": "nonpayable",
					"type": "function"
				},
				{
					"inputs": [
						{
							"internalType": "enum Types.Role",
							"name": "_requestedRole",
							"type": "uint8"
						}
					],
					"name": "createRoleRequest",
					"outputs": [],
					"stateMutability": "nonpayable",
					"type": "function"
				},
				{
					"inputs": [
						{
							"internalType": "string",
							"name": "_userName",
							"type": "string"
						},
						{
							"internalType": "string",
							"name": "_geoHash",
							"type": "string"
						}
					],
					"name": "createUser",
					"outputs": [],
					"stateMutability": "nonpayable",
					"type": "function"
				},
				{
					"inputs": [
						{
							"internalType": "uint256",
							"name": "length",
							"type": "uint256"
						}
					],
					"name": "generateRandomString",
					"outputs": [
						{
							"internalType": "string",
							"name": "",
							"type": "string"
						}
					],
					"stateMutability": "view",
					"type": "function"
				},
				{
					"inputs": [
						{
							"internalType": "string",
							"name": "_roleRequestId",
							"type": "string"
						}
					],
					"name": "getRoleRequestByIdWithIndex",
					"outputs": [
						{
							"components": [
								{
									"components": [
										{
											"internalType": "string",
											"name": "requestId",
											"type": "string"
										},
										{
											"internalType": "address",
											"name": "applicantAddress",
											"type": "address"
										},
										{
											"internalType": "enum Types.Role",
											"name": "requestedRole",
											"type": "uint8"
										},
										{
											"internalType": "enum Types.RequestStatus",
											"name": "requestStatus",
											"type": "uint8"
										},
										{
											"internalType": "address",
											"name": "approverAddress",
											"type": "address"
										}
									],
									"internalType": "struct Types.RoleRequest",
									"name": "roleRequest",
									"type": "tuple"
								},
								{
									"internalType": "uint256",
									"name": "index",
									"type": "uint256"
								}
							],
							"internalType": "struct Types.RoleRequestWithIndexDto",
							"name": "",
							"type": "tuple"
						}
					],
					"stateMutability": "view",
					"type": "function"
				},
				{
					"inputs": [],
					"name": "getRoleRequests",
					"outputs": [
						{
							"components": [
								{
									"internalType": "string",
									"name": "requestId",
									"type": "string"
								},
								{
									"internalType": "address",
									"name": "applicantAddress",
									"type": "address"
								},
								{
									"internalType": "enum Types.Role",
									"name": "requestedRole",
									"type": "uint8"
								},
								{
									"internalType": "enum Types.RequestStatus",
									"name": "requestStatus",
									"type": "uint8"
								},
								{
									"internalType": "address",
									"name": "approverAddress",
									"type": "address"
								}
							],
							"internalType": "struct Types.RoleRequest[]",
							"name": "",
							"type": "tuple[]"
						}
					],
					"stateMutability": "view",
					"type": "function"
				},
				{
					"inputs": [
						{
							"internalType": "address",
							"name": "_userAddr",
							"type": "address"
						}
					],
					"name": "isUserRegistered",
					"outputs": [
						{
							"internalType": "bool",
							"name": "",
							"type": "bool"
						}
					],
					"stateMutability": "view",
					"type": "function"
				},
				{
					"inputs": [],
					"name": "owner",
					"outputs": [
						{
							"internalType": "address",
							"name": "",
							"type": "address"
						}
					],
					"stateMutability": "view",
					"type": "function"
				},
				{
					"inputs": [],
					"name": "renounceOwnership",
					"outputs": [],
					"stateMutability": "nonpayable",
					"type": "function"
				},
				{
					"inputs": [
						{
							"internalType": "address",
							"name": "newOwner",
							"type": "address"
						}
					],
					"name": "transferOwnership",
					"outputs": [],
					"stateMutability": "nonpayable",
					"type": "function"
				}
			],
			"devdoc": {
				"errors": {
					"OwnableInvalidOwner(address)": [
						{
							"details": "The owner is not a valid owner account. (eg. `address(0)`)"
						}
					],
					"OwnableUnauthorizedAccount(address)": [
						{
							"details": "The caller account is not authorized to perform an operation."
						}
					]
				},
				"kind": "dev",
				"methods": {
					"owner()": {
						"details": "Returns the address of the current owner."
					},
					"renounceOwnership()": {
						"details": "Leaves the contract without owner. It will not be possible to call `onlyOwner` functions. Can only be called by the current owner. NOTE: Renouncing ownership will leave the contract without an owner, thereby disabling any functionality that is only available to the owner."
					},
					"transferOwnership(address)": {
						"details": "Transfers ownership of the contract to a new account (`newOwner`). Can only be called by the current owner."
					}
				},
				"version": 1
			},
			"evm": {
				"assembly": "    /* \"contracts/User/UserRoleRequest.sol\":182:8145  contract UserRoleRequest is Ownable{... */\n  mstore(0x40, 0x80)\n    /* \"contracts/User/UserRoleRequest.sol\":314:710  constructor(address initialOwner) ... */\n  callvalue\n  dup1\n  iszero\n  tag_1\n  jumpi\n  0x00\n  dup1\n  revert\ntag_1:\n  pop\n  mload(0x40)\n  sub(codesize, bytecodeSize)\n  dup1\n  bytecodeSize\n  dup4\n  codecopy\n  dup2\n  dup2\n  add\n  0x40\n  mstore\n  dup2\n  add\n  swap1\n  tag_2\n  swap2\n  swap1\n  tag_3\n  jump\t// in\ntag_2:\n    /* \"contracts/User/UserRoleRequest.sol\":361:373  initialOwner */\n  dup1\n    /* \"@openzeppelin/contracts/access/Ownable.sol\":1297:1298  0 */\n  0x00\n    /* \"@openzeppelin/contracts/access/Ownable.sol\":1273:1299  initialOwner == address(0) */\n  0xffffffffffffffffffffffffffffffffffffffff\n  and\n    /* \"@openzeppelin/contracts/access/Ownable.sol\":1273:1285  initialOwner */\n  dup2\n    /* \"@openzeppelin/contracts/access/Ownable.sol\":1273:1299  initialOwner == address(0) */\n  0xffffffffffffffffffffffffffffffffffffffff\n  and\n  sub\n    /* \"@openzeppelin/contracts/access/Ownable.sol\":1269:1364  if (initialOwner == address(0)) {... */\n  tag_7\n  jumpi\n    /* \"@openzeppelin/contracts/access/Ownable.sol\":1350:1351  0 */\n  0x00\n    /* \"@openzeppelin/contracts/access/Ownable.sol\":1322:1353  OwnableInvalidOwner(address(0)) */\n  mload(0x40)\n  0x1e4fbdf700000000000000000000000000000000000000000000000000000000\n  dup2\n  mstore\n  0x04\n  add\n  tag_8\n  swap2\n  swap1\n  tag_9\n  jump\t// in\ntag_8:\n  mload(0x40)\n  dup1\n  swap2\n  sub\n  swap1\n  revert\n    /* \"@openzeppelin/contracts/access/Ownable.sol\":1269:1364  if (initialOwner == address(0)) {... */\ntag_7:\n    /* \"@openzeppelin/contracts/access/Ownable.sol\":1373:1405  _transferOwnership(initialOwner) */\n  tag_10\n    /* \"@openzeppelin/contracts/access/Ownable.sol\":1392:1404  initialOwner */\n  dup2\n    /* \"@openzeppelin/contracts/access/Ownable.sol\":1373:1391  _transferOwnership */\n  shl(0x20, tag_11)\n    /* \"@openzeppelin/contracts/access/Ownable.sol\":1373:1405  _transferOwnership(initialOwner) */\n  0x20\n  shr\n  jump\t// in\ntag_10:\n    /* \"@openzeppelin/contracts/access/Ownable.sol\":1225:1412  constructor(address initialOwner) {... */\n  pop\n    /* \"contracts/User/UserRoleRequest.sol\":390:419  Types.Role[] memory adminRole */\n  0x00\n    /* \"contracts/User/UserRoleRequest.sol\":439:440  1 */\n  0x01\n    /* \"contracts/User/UserRoleRequest.sol\":422:441  new Types.Role[](1) */\n  0xffffffffffffffff\n  dup2\n  gt\n  iszero\n  tag_13\n  jumpi\n  tag_14\n  tag_15\n  jump\t// in\ntag_14:\ntag_13:\n  mload(0x40)\n  swap1\n  dup1\n  dup3\n  mstore\n  dup1\n  0x20\n  mul\n  0x20\n  add\n  dup3\n  add\n  0x40\n  mstore\n  dup1\n  iszero\n  tag_16\n  jumpi\n  dup2\n  0x20\n  add\n  0x20\n  dup3\n  mul\n  dup1\n  calldatasize\n  dup4\n  calldatacopy\n  dup1\n  dup3\n  add\n  swap2\n  pop\n  pop\n  swap1\n  pop\ntag_16:\n  pop\n    /* \"contracts/User/UserRoleRequest.sol\":390:441  Types.Role[] memory adminRole = new Types.Role[](1) */\n  swap1\n  pop\n    /* \"contracts/User/UserRoleRequest.sol\":466:482  Types.Role.Admin */\n  0x01\n    /* \"contracts/User/UserRoleRequest.sol\":451:460  adminRole */\n  dup2\n    /* \"contracts/User/UserRoleRequest.sol\":461:462  0 */\n  0x00\n    /* \"contracts/User/UserRoleRequest.sol\":451:463  adminRole[0] */\n  dup2\n  mload\n  dup2\n  lt\n  tag_17\n  jumpi\n  tag_18\n  tag_19\n  jump\t// in\ntag_18:\ntag_17:\n  0x20\n  mul\n  0x20\n  add\n  add\n    /* \"contracts/User/UserRoleRequest.sol\":451:482  adminRole[0] = Types.Role.Admin */\n  swap1\n  0x04\n  dup2\n  gt\n  iszero\n  tag_20\n  jumpi\n  tag_21\n  tag_22\n  jump\t// in\ntag_21:\ntag_20:\n  swap1\n  dup2\n  0x04\n  dup2\n  gt\n  iszero\n  tag_23\n  jumpi\n  tag_24\n  tag_22\n  jump\t// in\ntag_24:\ntag_23:\n  dup2\n  mstore\n  pop\n  pop\n    /* \"contracts/User/UserRoleRequest.sol\":493:516  Types.User memory admin */\n  0x00\n    /* \"contracts/User/UserRoleRequest.sol\":519:665  Types.User({... */\n  mload(0x40)\n  dup1\n  0x80\n  add\n  0x40\n  mstore\n  dup1\n  mload(0x40)\n  dup1\n  0x40\n  add\n  0x40\n  mstore\n  dup1\n  0x05\n  dup2\n  mstore\n  0x20\n  add\n  0x41646d696e000000000000000000000000000000000000000000000000000000\n  dup2\n  mstore\n  pop\n  dup2\n  mstore\n  0x20\n  add\n    /* \"contracts/User/UserRoleRequest.sol\":588:600  initialOwner */\n  dup5\n    /* \"contracts/User/UserRoleRequest.sol\":519:665  Types.User({... */\n  0xffffffffffffffffffffffffffffffffffffffff\n  and\n  dup2\n  mstore\n  0x20\n  add\n  mload(0x40)\n  dup1\n  0x20\n  add\n  0x40\n  mstore\n  dup1\n  0x00\n  dup2\n  mstore\n  pop\n  dup2\n  mstore\n  0x20\n  add\n    /* \"contracts/User/UserRoleRequest.sol\":620:629  adminRole */\n  dup4\n    /* \"contracts/User/UserRoleRequest.sol\":519:665  Types.User({... */\n  dup2\n  mstore\n  pop\n    /* \"contracts/User/UserRoleRequest.sol\":493:665  Types.User memory admin = Types.User({... */\n  swap1\n  pop\n    /* \"contracts/User/UserRoleRequest.sol\":698:703  admin */\n  dup1\n    /* \"contracts/User/UserRoleRequest.sol\":676:681  users */\n  0x02\n    /* \"contracts/User/UserRoleRequest.sol\":676:695  users[initialOwner] */\n  0x00\n    /* \"contracts/User/UserRoleRequest.sol\":682:694  initialOwner */\n  dup6\n    /* \"contracts/User/UserRoleRequest.sol\":676:695  users[initialOwner] */\n  0xffffffffffffffffffffffffffffffffffffffff\n  and\n  0xffffffffffffffffffffffffffffffffffffffff\n  and\n  dup2\n  mstore\n  0x20\n  add\n  swap1\n  dup2\n  mstore\n  0x20\n  add\n  0x00\n  keccak256\n    /* \"contracts/User/UserRoleRequest.sol\":676:703  users[initialOwner] = admin */\n  0x00\n  dup3\n  add\n  mload\n  dup2\n  0x00\n  add\n  swap1\n  dup2\n  tag_25\n  swap2\n  swap1\n  tag_26\n  jump\t// in\ntag_25:\n  pop\n  0x20\n  dup3\n  add\n  mload\n  dup2\n  0x01\n  add\n  exp(0x0100, 0x00)\n  dup2\n  sload\n  dup2\n  0xffffffffffffffffffffffffffffffffffffffff\n  mul\n  not\n  and\n  swap1\n  dup4\n  0xffffffffffffffffffffffffffffffffffffffff\n  and\n  mul\n  or\n  swap1\n  sstore\n  pop\n  0x40\n  dup3\n  add\n  mload\n  dup2\n  0x02\n  add\n  swap1\n  dup2\n  tag_27\n  swap2\n  swap1\n  tag_26\n  jump\t// in\ntag_27:\n  pop\n  0x60\n  dup3\n  add\n  mload\n  dup2\n  0x03\n  add\n  swap1\n  dup1\n  mload\n  swap1\n  0x20\n  add\n  swap1\n  tag_28\n  swap3\n  swap2\n  swap1\n  tag_29\n  jump\t// in\ntag_28:\n  pop\n  swap1\n  pop\n  pop\n    /* \"contracts/User/UserRoleRequest.sol\":380:710  {... */\n  pop\n  pop\n    /* \"contracts/User/UserRoleRequest.sol\":314:710  constructor(address initialOwner) ... */\n  pop\n    /* \"contracts/User/UserRoleRequest.sol\":182:8145  contract UserRoleRequest is Ownable{... */\n  jump(tag_30)\n    /* \"@openzeppelin/contracts/access/Ownable.sol\":2912:3099  function _transferOwnership(address newOwner) internal virtual {... */\ntag_11:\n    /* \"@openzeppelin/contracts/access/Ownable.sol\":2985:3001  address oldOwner */\n  0x00\n    /* \"@openzeppelin/contracts/access/Ownable.sol\":3004:3010  _owner */\n  dup1\n  0x00\n  swap1\n  sload\n  swap1\n  0x0100\n  exp\n  swap1\n  div\n  0xffffffffffffffffffffffffffffffffffffffff\n  and\n    /* \"@openzeppelin/contracts/access/Ownable.sol\":2985:3010  address oldOwner = _owner */\n  swap1\n  pop\n    /* \"@openzeppelin/contracts/access/Ownable.sol\":3029:3037  newOwner */\n  dup2\n    /* \"@openzeppelin/contracts/access/Ownable.sol\":3020:3026  _owner */\n  0x00\n  dup1\n    /* \"@openzeppelin/contracts/access/Ownable.sol\":3020:3037  _owner = newOwner */\n  0x0100\n  exp\n  dup2\n  sload\n  dup2\n  0xffffffffffffffffffffffffffffffffffffffff\n  mul\n  not\n  and\n  swap1\n  dup4\n  0xffffffffffffffffffffffffffffffffffffffff\n  and\n  mul\n  or\n  swap1\n  sstore\n  pop\n    /* \"@openzeppelin/contracts/access/Ownable.sol\":3083:3091  newOwner */\n  dup2\n    /* \"@openzeppelin/contracts/access/Ownable.sol\":3052:3092  OwnershipTransferred(oldOwner, newOwner) */\n  0xffffffffffffffffffffffffffffffffffffffff\n  and\n    /* \"@openzeppelin/contracts/access/Ownable.sol\":3073:3081  oldOwner */\n  dup2\n    /* \"@openzeppelin/contracts/access/Ownable.sol\":3052:3092  OwnershipTransferred(oldOwner, newOwner) */\n  0xffffffffffffffffffffffffffffffffffffffff\n  and\n  0x8be0079c531659141344cd1fd0a4f28419497f9722a3daafe3b4186f6b6457e0\n  mload(0x40)\n  mload(0x40)\n  dup1\n  swap2\n  sub\n  swap1\n  log3\n    /* \"@openzeppelin/contracts/access/Ownable.sol\":2975:3099  {... */\n  pop\n    /* \"@openzeppelin/contracts/access/Ownable.sol\":2912:3099  function _transferOwnership(address newOwner) internal virtual {... */\n  pop\n  jump\t// out\n    /* \"contracts/User/UserRoleRequest.sol\":182:8145  contract UserRoleRequest is Ownable{... */\ntag_29:\n  dup3\n  dup1\n  sload\n  dup3\n  dup3\n  sstore\n  swap1\n  0x00\n  mstore\n  keccak256(0x00, 0x20)\n  swap1\n  0x1f\n  add\n  0x20\n  swap1\n  div\n  dup2\n  add\n  swap3\n  dup3\n  iszero\n  tag_32\n  jumpi\n  swap2\n  0x20\n  mul\n  dup3\n  add\n  0x00\ntag_33:\n  dup4\n  dup3\n  gt\n  iszero\n  tag_34\n  jumpi\n  dup4\n  mload\n  dup4\n  dup3\n  0x0100\n  exp\n  dup2\n  sload\n  dup2\n  0xff\n  mul\n  not\n  and\n  swap1\n  dup4\n  0x04\n  dup2\n  gt\n  iszero\n  tag_35\n  jumpi\n  tag_36\n  tag_22\n  jump\t// in\ntag_36:\ntag_35:\n  mul\n  or\n  swap1\n  sstore\n  pop\n  swap3\n  0x20\n  add\n  swap3\n  0x01\n  add\n  0x20\n  dup2\n  0x00\n  add\n  div\n  swap3\n  dup4\n  add\n  swap3\n  0x01\n  sub\n  mul\n  jump(tag_33)\ntag_34:\n  dup1\n  iszero\n  tag_37\n  jumpi\n  dup3\n  dup2\n  0x0100\n  exp\n  dup2\n  sload\n  swap1\n  0xff\n  mul\n  not\n  and\n  swap1\n  sstore\n  0x01\n  add\n  0x20\n  dup2\n  0x00\n  add\n  div\n  swap3\n  dup4\n  add\n  swap3\n  0x01\n  sub\n  mul\n  jump(tag_34)\ntag_37:\n  pop\ntag_32:\n  pop\n  swap1\n  pop\n  tag_38\n  swap2\n  swap1\n  tag_39\n  jump\t// in\ntag_38:\n  pop\n  swap1\n  jump\t// out\ntag_39:\ntag_40:\n  dup1\n  dup3\n  gt\n  iszero\n  tag_41\n  jumpi\n  0x00\n  dup2\n  0x00\n  swap1\n  sstore\n  pop\n  0x01\n  add\n  jump(tag_40)\ntag_41:\n  pop\n  swap1\n  jump\t// out\n    /* \"#utility.yul\":88:205   */\ntag_43:\n    /* \"#utility.yul\":197:198   */\n  0x00\n    /* \"#utility.yul\":194:195   */\n  dup1\n    /* \"#utility.yul\":187:199   */\n  revert\n    /* \"#utility.yul\":334:460   */\ntag_45:\n    /* \"#utility.yul\":371:378   */\n  0x00\n    /* \"#utility.yul\":411:453   */\n  0xffffffffffffffffffffffffffffffffffffffff\n    /* \"#utility.yul\":404:409   */\n  dup3\n    /* \"#utility.yul\":400:454   */\n  and\n    /* \"#utility.yul\":389:454   */\n  swap1\n  pop\n    /* \"#utility.yul\":334:460   */\n  swap2\n  swap1\n  pop\n  jump\t// out\n    /* \"#utility.yul\":466:562   */\ntag_46:\n    /* \"#utility.yul\":503:510   */\n  0x00\n    /* \"#utility.yul\":532:556   */\n  tag_75\n    /* \"#utility.yul\":550:555   */\n  dup3\n    /* \"#utility.yul\":532:556   */\n  tag_45\n  jump\t// in\ntag_75:\n    /* \"#utility.yul\":521:556   */\n  swap1\n  pop\n    /* \"#utility.yul\":466:562   */\n  swap2\n  swap1\n  pop\n  jump\t// out\n    /* \"#utility.yul\":568:690   */\ntag_47:\n    /* \"#utility.yul\":641:665   */\n  tag_77\n    /* \"#utility.yul\":659:664   */\n  dup2\n    /* \"#utility.yul\":641:665   */\n  tag_46\n  jump\t// in\ntag_77:\n    /* \"#utility.yul\":634:639   */\n  dup2\n    /* \"#utility.yul\":631:666   */\n  eq\n    /* \"#utility.yul\":621:684   */\n  tag_78\n  jumpi\n    /* \"#utility.yul\":680:681   */\n  0x00\n    /* \"#utility.yul\":677:678   */\n  dup1\n    /* \"#utility.yul\":670:682   */\n  revert\n    /* \"#utility.yul\":621:684   */\ntag_78:\n    /* \"#utility.yul\":568:690   */\n  pop\n  jump\t// out\n    /* \"#utility.yul\":696:839   */\ntag_48:\n    /* \"#utility.yul\":753:758   */\n  0x00\n    /* \"#utility.yul\":784:790   */\n  dup2\n    /* \"#utility.yul\":778:791   */\n  mload\n    /* \"#utility.yul\":769:791   */\n  swap1\n  pop\n    /* \"#utility.yul\":800:833   */\n  tag_80\n    /* \"#utility.yul\":827:832   */\n  dup2\n    /* \"#utility.yul\":800:833   */\n  tag_47\n  jump\t// in\ntag_80:\n    /* \"#utility.yul\":696:839   */\n  swap3\n  swap2\n  pop\n  pop\n  jump\t// out\n    /* \"#utility.yul\":845:1196   */\ntag_3:\n    /* \"#utility.yul\":915:921   */\n  0x00\n    /* \"#utility.yul\":964:966   */\n  0x20\n    /* \"#utility.yul\":952:961   */\n  dup3\n    /* \"#utility.yul\":943:950   */\n  dup5\n    /* \"#utility.yul\":939:962   */\n  sub\n    /* \"#utility.yul\":935:967   */\n  slt\n    /* \"#utility.yul\":932:1051   */\n  iszero\n  tag_82\n  jumpi\n    /* \"#utility.yul\":970:1049   */\n  tag_83\n  tag_43\n  jump\t// in\ntag_83:\n    /* \"#utility.yul\":932:1051   */\ntag_82:\n    /* \"#utility.yul\":1090:1091   */\n  0x00\n    /* \"#utility.yul\":1115:1179   */\n  tag_84\n    /* \"#utility.yul\":1171:1178   */\n  dup5\n    /* \"#utility.yul\":1162:1168   */\n  dup3\n    /* \"#utility.yul\":1151:1160   */\n  dup6\n    /* \"#utility.yul\":1147:1169   */\n  add\n    /* \"#utility.yul\":1115:1179   */\n  tag_48\n  jump\t// in\ntag_84:\n    /* \"#utility.yul\":1105:1179   */\n  swap2\n  pop\n    /* \"#utility.yul\":1061:1189   */\n  pop\n    /* \"#utility.yul\":845:1196   */\n  swap3\n  swap2\n  pop\n  pop\n  jump\t// out\n    /* \"#utility.yul\":1202:1320   */\ntag_49:\n    /* \"#utility.yul\":1289:1313   */\n  tag_86\n    /* \"#utility.yul\":1307:1312   */\n  dup2\n    /* \"#utility.yul\":1289:1313   */\n  tag_46\n  jump\t// in\ntag_86:\n    /* \"#utility.yul\":1284:1287   */\n  dup3\n    /* \"#utility.yul\":1277:1314   */\n  mstore\n    /* \"#utility.yul\":1202:1320   */\n  pop\n  pop\n  jump\t// out\n    /* \"#utility.yul\":1326:1548   */\ntag_9:\n    /* \"#utility.yul\":1419:1423   */\n  0x00\n    /* \"#utility.yul\":1457:1459   */\n  0x20\n    /* \"#utility.yul\":1446:1455   */\n  dup3\n    /* \"#utility.yul\":1442:1460   */\n  add\n    /* \"#utility.yul\":1434:1460   */\n  swap1\n  pop\n    /* \"#utility.yul\":1470:1541   */\n  tag_88\n    /* \"#utility.yul\":1538:1539   */\n  0x00\n    /* \"#utility.yul\":1527:1536   */\n  dup4\n    /* \"#utility.yul\":1523:1540   */\n  add\n    /* \"#utility.yul\":1514:1520   */\n  dup5\n    /* \"#utility.yul\":1470:1541   */\n  tag_49\n  jump\t// in\ntag_88:\n    /* \"#utility.yul\":1326:1548   */\n  swap3\n  swap2\n  pop\n  pop\n  jump\t// out\n    /* \"#utility.yul\":1554:1734   */\ntag_15:\n    /* \"#utility.yul\":1602:1679   */\n  0x4e487b7100000000000000000000000000000000000000000000000000000000\n    /* \"#utility.yul\":1599:1600   */\n  0x00\n    /* \"#utility.yul\":1592:1680   */\n  mstore\n    /* \"#utility.yul\":1699:1703   */\n  0x41\n    /* \"#utility.yul\":1696:1697   */\n  0x04\n    /* \"#utility.yul\":1689:1704   */\n  mstore\n    /* \"#utility.yul\":1723:1727   */\n  0x24\n    /* \"#utility.yul\":1720:1721   */\n  0x00\n    /* \"#utility.yul\":1713:1728   */\n  revert\n    /* \"#utility.yul\":1740:1920   */\ntag_19:\n    /* \"#utility.yul\":1788:1865   */\n  0x4e487b7100000000000000000000000000000000000000000000000000000000\n    /* \"#utility.yul\":1785:1786   */\n  0x00\n    /* \"#utility.yul\":1778:1866   */\n  mstore\n    /* \"#utility.yul\":1885:1889   */\n  0x32\n    /* \"#utility.yul\":1882:1883   */\n  0x04\n    /* \"#utility.yul\":1875:1890   */\n  mstore\n    /* \"#utility.yul\":1909:1913   */\n  0x24\n    /* \"#utility.yul\":1906:1907   */\n  0x00\n    /* \"#utility.yul\":1899:1914   */\n  revert\n    /* \"#utility.yul\":1926:2106   */\ntag_22:\n    /* \"#utility.yul\":1974:2051   */\n  0x4e487b7100000000000000000000000000000000000000000000000000000000\n    /* \"#utility.yul\":1971:1972   */\n  0x00\n    /* \"#utility.yul\":1964:2052   */\n  mstore\n    /* \"#utility.yul\":2071:2075   */\n  0x21\n    /* \"#utility.yul\":2068:2069   */\n  0x04\n    /* \"#utility.yul\":2061:2076   */\n  mstore\n    /* \"#utility.yul\":2095:2099   */\n  0x24\n    /* \"#utility.yul\":2092:2093   */\n  0x00\n    /* \"#utility.yul\":2085:2100   */\n  revert\n    /* \"#utility.yul\":2112:2211   */\ntag_50:\n    /* \"#utility.yul\":2164:2170   */\n  0x00\n    /* \"#utility.yul\":2198:2203   */\n  dup2\n    /* \"#utility.yul\":2192:2204   */\n  mload\n    /* \"#utility.yul\":2182:2204   */\n  swap1\n  pop\n    /* \"#utility.yul\":2112:2211   */\n  swap2\n  swap1\n  pop\n  jump\t// out\n    /* \"#utility.yul\":2217:2397   */\ntag_51:\n    /* \"#utility.yul\":2265:2342   */\n  0x4e487b7100000000000000000000000000000000000000000000000000000000\n    /* \"#utility.yul\":2262:2263   */\n  0x00\n    /* \"#utility.yul\":2255:2343   */\n  mstore\n    /* \"#utility.yul\":2362:2366   */\n  0x22\n    /* \"#utility.yul\":2359:2360   */\n  0x04\n    /* \"#utility.yul\":2352:2367   */\n  mstore\n    /* \"#utility.yul\":2386:2390   */\n  0x24\n    /* \"#utility.yul\":2383:2384   */\n  0x00\n    /* \"#utility.yul\":2376:2391   */\n  revert\n    /* \"#utility.yul\":2403:2723   */\ntag_52:\n    /* \"#utility.yul\":2447:2453   */\n  0x00\n    /* \"#utility.yul\":2484:2485   */\n  0x02\n    /* \"#utility.yul\":2478:2482   */\n  dup3\n    /* \"#utility.yul\":2474:2486   */\n  div\n    /* \"#utility.yul\":2464:2486   */\n  swap1\n  pop\n    /* \"#utility.yul\":2531:2532   */\n  0x01\n    /* \"#utility.yul\":2525:2529   */\n  dup3\n    /* \"#utility.yul\":2521:2533   */\n  and\n    /* \"#utility.yul\":2552:2570   */\n  dup1\n    /* \"#utility.yul\":2542:2623   */\n  tag_95\n  jumpi\n    /* \"#utility.yul\":2608:2612   */\n  0x7f\n    /* \"#utility.yul\":2600:2606   */\n  dup3\n    /* \"#utility.yul\":2596:2613   */\n  and\n    /* \"#utility.yul\":2586:2613   */\n  swap2\n  pop\n    /* \"#utility.yul\":2542:2623   */\ntag_95:\n    /* \"#utility.yul\":2670:2672   */\n  0x20\n    /* \"#utility.yul\":2662:2668   */\n  dup3\n    /* \"#utility.yul\":2659:2673   */\n  lt\n    /* \"#utility.yul\":2639:2657   */\n  dup2\n    /* \"#utility.yul\":2636:2674   */\n  sub\n    /* \"#utility.yul\":2633:2717   */\n  tag_96\n  jumpi\n    /* \"#utility.yul\":2689:2707   */\n  tag_97\n  tag_51\n  jump\t// in\ntag_97:\n    /* \"#utility.yul\":2633:2717   */\ntag_96:\n    /* \"#utility.yul\":2454:2723   */\n  pop\n    /* \"#utility.yul\":2403:2723   */\n  swap2\n  swap1\n  pop\n  jump\t// out\n    /* \"#utility.yul\":2729:2870   */\ntag_53:\n    /* \"#utility.yul\":2778:2782   */\n  0x00\n    /* \"#utility.yul\":2801:2804   */\n  dup2\n    /* \"#utility.yul\":2793:2804   */\n  swap1\n  pop\n    /* \"#utility.yul\":2824:2827   */\n  dup2\n    /* \"#utility.yul\":2821:2822   */\n  0x00\n    /* \"#utility.yul\":2814:2828   */\n  mstore\n    /* \"#utility.yul\":2858:2862   */\n  0x20\n    /* \"#utility.yul\":2855:2856   */\n  0x00\n    /* \"#utility.yul\":2845:2863   */\n  keccak256\n    /* \"#utility.yul\":2837:2863   */\n  swap1\n  pop\n    /* \"#utility.yul\":2729:2870   */\n  swap2\n  swap1\n  pop\n  jump\t// out\n    /* \"#utility.yul\":2876:2969   */\ntag_54:\n    /* \"#utility.yul\":2913:2919   */\n  0x00\n    /* \"#utility.yul\":2960:2962   */\n  0x20\n    /* \"#utility.yul\":2955:2957   */\n  0x1f\n    /* \"#utility.yul\":2948:2953   */\n  dup4\n    /* \"#utility.yul\":2944:2958   */\n  add\n    /* \"#utility.yul\":2940:2963   */\n  div\n    /* \"#utility.yul\":2930:2963   */\n  swap1\n  pop\n    /* \"#utility.yul\":2876:2969   */\n  swap2\n  swap1\n  pop\n  jump\t// out\n    /* \"#utility.yul\":2975:3082   */\ntag_55:\n    /* \"#utility.yul\":3019:3027   */\n  0x00\n    /* \"#utility.yul\":3069:3074   */\n  dup3\n    /* \"#utility.yul\":3063:3067   */\n  dup3\n    /* \"#utility.yul\":3059:3075   */\n  shl\n    /* \"#utility.yul\":3038:3075   */\n  swap1\n  pop\n    /* \"#utility.yul\":2975:3082   */\n  swap3\n  swap2\n  pop\n  pop\n  jump\t// out\n    /* \"#utility.yul\":3088:3481   */\ntag_56:\n    /* \"#utility.yul\":3157:3163   */\n  0x00\n    /* \"#utility.yul\":3207:3208   */\n  0x08\n    /* \"#utility.yul\":3195:3205   */\n  dup4\n    /* \"#utility.yul\":3191:3209   */\n  mul\n    /* \"#utility.yul\":3230:3327   */\n  tag_102\n    /* \"#utility.yul\":3260:3326   */\n  0xffffffffffffffffffffffffffffffffffffffffffffffffffffffffffffffff\n    /* \"#utility.yul\":3249:3258   */\n  dup3\n    /* \"#utility.yul\":3230:3327   */\n  tag_55\n  jump\t// in\ntag_102:\n    /* \"#utility.yul\":3348:3387   */\n  tag_103\n    /* \"#utility.yul\":3378:3386   */\n  dup7\n    /* \"#utility.yul\":3367:3376   */\n  dup4\n    /* \"#utility.yul\":3348:3387   */\n  tag_55\n  jump\t// in\ntag_103:\n    /* \"#utility.yul\":3336:3387   */\n  swap6\n  pop\n    /* \"#utility.yul\":3420:3424   */\n  dup1\n    /* \"#utility.yul\":3416:3425   */\n  not\n    /* \"#utility.yul\":3409:3414   */\n  dup5\n    /* \"#utility.yul\":3405:3426   */\n  and\n    /* \"#utility.yul\":3396:3426   */\n  swap4\n  pop\n    /* \"#utility.yul\":3469:3473   */\n  dup1\n    /* \"#utility.yul\":3459:3467   */\n  dup7\n    /* \"#utility.yul\":3455:3474   */\n  and\n    /* \"#utility.yul\":3448:3453   */\n  dup5\n    /* \"#utility.yul\":3445:3475   */\n  or\n    /* \"#utility.yul\":3435:3475   */\n  swap3\n  pop\n    /* \"#utility.yul\":3164:3481   */\n  pop\n  pop\n    /* \"#utility.yul\":3088:3481   */\n  swap4\n  swap3\n  pop\n  pop\n  pop\n  jump\t// out\n    /* \"#utility.yul\":3487:3564   */\ntag_57:\n    /* \"#utility.yul\":3524:3531   */\n  0x00\n    /* \"#utility.yul\":3553:3558   */\n  dup2\n    /* \"#utility.yul\":3542:3558   */\n  swap1\n  pop\n    /* \"#utility.yul\":3487:3564   */\n  swap2\n  swap1\n  pop\n  jump\t// out\n    /* \"#utility.yul\":3570:3630   */\ntag_58:\n    /* \"#utility.yul\":3598:3601   */\n  0x00\n    /* \"#utility.yul\":3619:3624   */\n  dup2\n    /* \"#utility.yul\":3612:3624   */\n  swap1\n  pop\n    /* \"#utility.yul\":3570:3630   */\n  swap2\n  swap1\n  pop\n  jump\t// out\n    /* \"#utility.yul\":3636:3778   */\ntag_59:\n    /* \"#utility.yul\":3686:3695   */\n  0x00\n    /* \"#utility.yul\":3719:3772   */\n  tag_107\n    /* \"#utility.yul\":3737:3771   */\n  tag_108\n    /* \"#utility.yul\":3746:3770   */\n  tag_109\n    /* \"#utility.yul\":3764:3769   */\n  dup5\n    /* \"#utility.yul\":3746:3770   */\n  tag_57\n  jump\t// in\ntag_109:\n    /* \"#utility.yul\":3737:3771   */\n  tag_58\n  jump\t// in\ntag_108:\n    /* \"#utility.yul\":3719:3772   */\n  tag_57\n  jump\t// in\ntag_107:\n    /* \"#utility.yul\":3706:3772   */\n  swap1\n  pop\n    /* \"#utility.yul\":3636:3778   */\n  swap2\n  swap1\n  pop\n  jump\t// out\n    /* \"#utility.yul\":3784:3859   */\ntag_60:\n    /* \"#utility.yul\":3827:3830   */\n  0x00\n    /* \"#utility.yul\":3848:3853   */\n  dup2\n    /* \"#utility.yul\":3841:3853   */\n  swap1\n  pop\n    /* \"#utility.yul\":3784:3859   */\n  swap2\n  swap1\n  pop\n  jump\t// out\n    /* \"#utility.yul\":3865:4134   */\ntag_61:\n    /* \"#utility.yul\":3975:4014   */\n  tag_112\n    /* \"#utility.yul\":4006:4013   */\n  dup4\n    /* \"#utility.yul\":3975:4014   */\n  tag_59\n  jump\t// in\ntag_112:\n    /* \"#utility.yul\":4036:4127   */\n  tag_113\n    /* \"#utility.yul\":4085:4126   */\n  tag_114\n    /* \"#utility.yul\":4109:4125   */\n  dup3\n    /* \"#utility.yul\":4085:4126   */\n  tag_60\n  jump\t// in\ntag_114:\n    /* \"#utility.yul\":4077:4083   */\n  dup5\n    /* \"#utility.yul\":4070:4074   */\n  dup5\n    /* \"#utility.yul\":4064:4075   */\n  sload\n    /* \"#utility.yul\":4036:4127   */\n  tag_56\n  jump\t// in\ntag_113:\n    /* \"#utility.yul\":4030:4034   */\n  dup3\n    /* \"#utility.yul\":4023:4128   */\n  sstore\n    /* \"#utility.yul\":3941:4134   */\n  pop\n    /* \"#utility.yul\":3865:4134   */\n  pop\n  pop\n  pop\n  jump\t// out\n    /* \"#utility.yul\":4140:4213   */\ntag_62:\n    /* \"#utility.yul\":4185:4188   */\n  0x00\n    /* \"#utility.yul\":4140:4213   */\n  swap1\n  jump\t// out\n    /* \"#utility.yul\":4219:4408   */\ntag_63:\n    /* \"#utility.yul\":4296:4328   */\n  tag_117\n  tag_62\n  jump\t// in\ntag_117:\n    /* \"#utility.yul\":4337:4402   */\n  tag_118\n    /* \"#utility.yul\":4395:4401   */\n  dup2\n    /* \"#utility.yul\":4387:4393   */\n  dup5\n    /* \"#utility.yul\":4381:4385   */\n  dup5\n    /* \"#utility.yul\":4337:4402   */\n  tag_61\n  jump\t// in\ntag_118:\n    /* \"#utility.yul\":4272:4408   */\n  pop\n    /* \"#utility.yul\":4219:4408   */\n  pop\n  pop\n  jump\t// out\n    /* \"#utility.yul\":4414:4600   */\ntag_64:\n    /* \"#utility.yul\":4474:4594   */\ntag_120:\n    /* \"#utility.yul\":4491:4494   */\n  dup2\n    /* \"#utility.yul\":4484:4489   */\n  dup2\n    /* \"#utility.yul\":4481:4495   */\n  lt\n    /* \"#utility.yul\":4474:4594   */\n  iszero\n  tag_122\n  jumpi\n    /* \"#utility.yul\":4545:4584   */\n  tag_123\n    /* \"#utility.yul\":4582:4583   */\n  0x00\n    /* \"#utility.yul\":4575:4580   */\n  dup3\n    /* \"#utility.yul\":4545:4584   */\n  tag_63\n  jump\t// in\ntag_123:\n    /* \"#utility.yul\":4518:4519   */\n  0x01\n    /* \"#utility.yul\":4511:4516   */\n  dup2\n    /* \"#utility.yul\":4507:4520   */\n  add\n    /* \"#utility.yul\":4498:4520   */\n  swap1\n  pop\n    /* \"#utility.yul\":4474:4594   */\n  jump(tag_120)\ntag_122:\n    /* \"#utility.yul\":4414:4600   */\n  pop\n  pop\n  jump\t// out\n    /* \"#utility.yul\":4606:5149   */\ntag_65:\n    /* \"#utility.yul\":4707:4709   */\n  0x1f\n    /* \"#utility.yul\":4702:4705   */\n  dup3\n    /* \"#utility.yul\":4699:4710   */\n  gt\n    /* \"#utility.yul\":4696:5142   */\n  iszero\n  tag_125\n  jumpi\n    /* \"#utility.yul\":4741:4779   */\n  tag_126\n    /* \"#utility.yul\":4773:4778   */\n  dup2\n    /* \"#utility.yul\":4741:4779   */\n  tag_53\n  jump\t// in\ntag_126:\n    /* \"#utility.yul\":4825:4854   */\n  tag_127\n    /* \"#utility.yul\":4843:4853   */\n  dup5\n    /* \"#utility.yul\":4825:4854   */\n  tag_54\n  jump\t// in\ntag_127:\n    /* \"#utility.yul\":4815:4823   */\n  dup2\n    /* \"#utility.yul\":4811:4855   */\n  add\n    /* \"#utility.yul\":5008:5010   */\n  0x20\n    /* \"#utility.yul\":4996:5006   */\n  dup6\n    /* \"#utility.yul\":4993:5011   */\n  lt\n    /* \"#utility.yul\":4990:5039   */\n  iszero\n  tag_128\n  jumpi\n    /* \"#utility.yul\":5029:5037   */\n  dup2\n    /* \"#utility.yul\":5014:5037   */\n  swap1\n  pop\n    /* \"#utility.yul\":4990:5039   */\ntag_128:\n    /* \"#utility.yul\":5052:5132   */\n  tag_129\n    /* \"#utility.yul\":5108:5130   */\n  tag_130\n    /* \"#utility.yul\":5126:5129   */\n  dup6\n    /* \"#utility.yul\":5108:5130   */\n  tag_54\n  jump\t// in\ntag_130:\n    /* \"#utility.yul\":5098:5106   */\n  dup4\n    /* \"#utility.yul\":5094:5131   */\n  add\n    /* \"#utility.yul\":5081:5092   */\n  dup3\n    /* \"#utility.yul\":5052:5132   */\n  tag_64\n  jump\t// in\ntag_129:\n    /* \"#utility.yul\":4711:5142   */\n  pop\n  pop\n    /* \"#utility.yul\":4696:5142   */\ntag_125:\n    /* \"#utility.yul\":4606:5149   */\n  pop\n  pop\n  pop\n  jump\t// out\n    /* \"#utility.yul\":5155:5272   */\ntag_66:\n    /* \"#utility.yul\":5209:5217   */\n  0x00\n    /* \"#utility.yul\":5259:5264   */\n  dup3\n    /* \"#utility.yul\":5253:5257   */\n  dup3\n    /* \"#utility.yul\":5249:5265   */\n  shr\n    /* \"#utility.yul\":5228:5265   */\n  swap1\n  pop\n    /* \"#utility.yul\":5155:5272   */\n  swap3\n  swap2\n  pop\n  pop\n  jump\t// out\n    /* \"#utility.yul\":5278:5447   */\ntag_67:\n    /* \"#utility.yul\":5322:5328   */\n  0x00\n    /* \"#utility.yul\":5355:5406   */\n  tag_133\n    /* \"#utility.yul\":5403:5404   */\n  0x00\n    /* \"#utility.yul\":5399:5405   */\n  not\n    /* \"#utility.yul\":5391:5396   */\n  dup5\n    /* \"#utility.yul\":5388:5389   */\n  0x08\n    /* \"#utility.yul\":5384:5397   */\n  mul\n    /* \"#utility.yul\":5355:5406   */\n  tag_66\n  jump\t// in\ntag_133:\n    /* \"#utility.yul\":5351:5407   */\n  not\n    /* \"#utility.yul\":5436:5440   */\n  dup1\n    /* \"#utility.yul\":5430:5434   */\n  dup4\n    /* \"#utility.yul\":5426:5441   */\n  and\n    /* \"#utility.yul\":5416:5441   */\n  swap2\n  pop\n    /* \"#utility.yul\":5329:5447   */\n  pop\n    /* \"#utility.yul\":5278:5447   */\n  swap3\n  swap2\n  pop\n  pop\n  jump\t// out\n    /* \"#utility.yul\":5452:5747   */\ntag_68:\n    /* \"#utility.yul\":5528:5532   */\n  0x00\n    /* \"#utility.yul\":5674:5703   */\n  tag_135\n    /* \"#utility.yul\":5699:5702   */\n  dup4\n    /* \"#utility.yul\":5693:5697   */\n  dup4\n    /* \"#utility.yul\":5674:5703   */\n  tag_67\n  jump\t// in\ntag_135:\n    /* \"#utility.yul\":5666:5703   */\n  swap2\n  pop\n    /* \"#utility.yul\":5736:5739   */\n  dup3\n    /* \"#utility.yul\":5733:5734   */\n  0x02\n    /* \"#utility.yul\":5729:5740   */\n  mul\n    /* \"#utility.yul\":5723:5727   */\n  dup3\n    /* \"#utility.yul\":5720:5741   */\n  or\n    /* \"#utility.yul\":5712:5741   */\n  swap1\n  pop\n    /* \"#utility.yul\":5452:5747   */\n  swap3\n  swap2\n  pop\n  pop\n  jump\t// out\n    /* \"#utility.yul\":5752:7147   */\ntag_26:\n    /* \"#utility.yul\":5869:5906   */\n  tag_137\n    /* \"#utility.yul\":5902:5905   */\n  dup3\n    /* \"#utility.yul\":5869:5906   */\n  tag_50\n  jump\t// in\ntag_137:\n    /* \"#utility.yul\":5971:5989   */\n  0xffffffffffffffff\n    /* \"#utility.yul\":5963:5969   */\n  dup2\n    /* \"#utility.yul\":5960:5990   */\n  gt\n    /* \"#utility.yul\":5957:6013   */\n  iszero\n  tag_138\n  jumpi\n    /* \"#utility.yul\":5993:6011   */\n  tag_139\n  tag_15\n  jump\t// in\ntag_139:\n    /* \"#utility.yul\":5957:6013   */\ntag_138:\n    /* \"#utility.yul\":6037:6075   */\n  tag_140\n    /* \"#utility.yul\":6069:6073   */\n  dup3\n    /* \"#utility.yul\":6063:6074   */\n  sload\n    /* \"#utility.yul\":6037:6075   */\n  tag_52\n  jump\t// in\ntag_140:\n    /* \"#utility.yul\":6122:6189   */\n  tag_141\n    /* \"#utility.yul\":6182:6188   */\n  dup3\n    /* \"#utility.yul\":6174:6180   */\n  dup3\n    /* \"#utility.yul\":6168:6172   */\n  dup6\n    /* \"#utility.yul\":6122:6189   */\n  tag_65\n  jump\t// in\ntag_141:\n    /* \"#utility.yul\":6216:6217   */\n  0x00\n    /* \"#utility.yul\":6240:6244   */\n  0x20\n    /* \"#utility.yul\":6227:6244   */\n  swap1\n  pop\n    /* \"#utility.yul\":6272:6274   */\n  0x1f\n    /* \"#utility.yul\":6264:6270   */\n  dup4\n    /* \"#utility.yul\":6261:6275   */\n  gt\n    /* \"#utility.yul\":6289:6290   */\n  0x01\n    /* \"#utility.yul\":6284:6902   */\n  dup2\n  eq\n  tag_143\n  jumpi\n    /* \"#utility.yul\":6946:6947   */\n  0x00\n    /* \"#utility.yul\":6963:6969   */\n  dup5\n    /* \"#utility.yul\":6960:7037   */\n  iszero\n  tag_144\n  jumpi\n    /* \"#utility.yul\":7012:7021   */\n  dup3\n    /* \"#utility.yul\":7007:7010   */\n  dup8\n    /* \"#utility.yul\":7003:7022   */\n  add\n    /* \"#utility.yul\":6997:7023   */\n  mload\n    /* \"#utility.yul\":6988:7023   */\n  swap1\n  pop\n    /* \"#utility.yul\":6960:7037   */\ntag_144:\n    /* \"#utility.yul\":7063:7130   */\n  tag_145\n    /* \"#utility.yul\":7123:7129   */\n  dup6\n    /* \"#utility.yul\":7116:7121   */\n  dup3\n    /* \"#utility.yul\":7063:7130   */\n  tag_68\n  jump\t// in\ntag_145:\n    /* \"#utility.yul\":7057:7061   */\n  dup7\n    /* \"#utility.yul\":7050:7131   */\n  sstore\n    /* \"#utility.yul\":6919:7141   */\n  pop\n    /* \"#utility.yul\":6254:7141   */\n  jump(tag_142)\n    /* \"#utility.yul\":6284:6902   */\ntag_143:\n    /* \"#utility.yul\":6336:6340   */\n  0x1f\n    /* \"#utility.yul\":6332:6341   */\n  not\n    /* \"#utility.yul\":6324:6330   */\n  dup5\n    /* \"#utility.yul\":6320:6342   */\n  and\n    /* \"#utility.yul\":6370:6407   */\n  tag_146\n    /* \"#utility.yul\":6402:6406   */\n  dup7\n    /* \"#utility.yul\":6370:6407   */\n  tag_53\n  jump\t// in\ntag_146:\n    /* \"#utility.yul\":6429:6430   */\n  0x00\n    /* \"#utility.yul\":6443:6651   */\ntag_147:\n    /* \"#utility.yul\":6457:6464   */\n  dup3\n    /* \"#utility.yul\":6454:6455   */\n  dup2\n    /* \"#utility.yul\":6451:6465   */\n  lt\n    /* \"#utility.yul\":6443:6651   */\n  iszero\n  tag_149\n  jumpi\n    /* \"#utility.yul\":6536:6545   */\n  dup5\n    /* \"#utility.yul\":6531:6534   */\n  dup10\n    /* \"#utility.yul\":6527:6546   */\n  add\n    /* \"#utility.yul\":6521:6547   */\n  mload\n    /* \"#utility.yul\":6513:6519   */\n  dup3\n    /* \"#utility.yul\":6506:6548   */\n  sstore\n    /* \"#utility.yul\":6587:6588   */\n  0x01\n    /* \"#utility.yul\":6579:6585   */\n  dup3\n    /* \"#utility.yul\":6575:6589   */\n  add\n    /* \"#utility.yul\":6565:6589   */\n  swap2\n  pop\n    /* \"#utility.yul\":6634:6636   */\n  0x20\n    /* \"#utility.yul\":6623:6632   */\n  dup6\n    /* \"#utility.yul\":6619:6637   */\n  add\n    /* \"#utility.yul\":6606:6637   */\n  swap5\n  pop\n    /* \"#utility.yul\":6480:6484   */\n  0x20\n    /* \"#utility.yul\":6477:6478   */\n  dup2\n    /* \"#utility.yul\":6473:6485   */\n  add\n    /* \"#utility.yul\":6468:6485   */\n  swap1\n  pop\n    /* \"#utility.yul\":6443:6651   */\n  jump(tag_147)\ntag_149:\n    /* \"#utility.yul\":6679:6685   */\n  dup7\n    /* \"#utility.yul\":6670:6677   */\n  dup4\n    /* \"#utility.yul\":6667:6686   */\n  lt\n    /* \"#utility.yul\":6664:6843   */\n  iszero\n  tag_150\n  jumpi\n    /* \"#utility.yul\":6737:6746   */\n  dup5\n    /* \"#utility.yul\":6732:6735   */\n  dup10\n    /* \"#utility.yul\":6728:6747   */\n  add\n    /* \"#utility.yul\":6722:6748   */\n  mload\n    /* \"#utility.yul\":6780:6828   */\n  tag_151\n    /* \"#utility.yul\":6822:6826   */\n  0x1f\n    /* \"#utility.yul\":6814:6820   */\n  dup10\n    /* \"#utility.yul\":6810:6827   */\n  and\n    /* \"#utility.yul\":6799:6808   */\n  dup3\n    /* \"#utility.yul\":6780:6828   */\n  tag_67\n  jump\t// in\ntag_151:\n    /* \"#utility.yul\":6772:6778   */\n  dup4\n    /* \"#utility.yul\":6765:6829   */\n  sstore\n    /* \"#utility.yul\":6687:6843   */\n  pop\n    /* \"#utility.yul\":6664:6843   */\ntag_150:\n    /* \"#utility.yul\":6889:6890   */\n  0x01\n    /* \"#utility.yul\":6885:6886   */\n  0x02\n    /* \"#utility.yul\":6877:6883   */\n  dup9\n    /* \"#utility.yul\":6873:6887   */\n  mul\n    /* \"#utility.yul\":6869:6891   */\n  add\n    /* \"#utility.yul\":6863:6867   */\n  dup9\n    /* \"#utility.yul\":6856:6892   */\n  sstore\n    /* \"#utility.yul\":6291:6902   */\n  pop\n  pop\n  pop\n    /* \"#utility.yul\":6254:7141   */\ntag_142:\n  pop\n    /* \"#utility.yul\":5844:7147   */\n  pop\n  pop\n  pop\n    /* \"#utility.yul\":5752:7147   */\n  pop\n  pop\n  jump\t// out\n    /* \"contracts/User/UserRoleRequest.sol\":182:8145  contract UserRoleRequest is Ownable{... */\ntag_30:\n  dataSize(sub_0)\n  dup1\n  dataOffset(sub_0)\n  0x00\n  codecopy\n  0x00\n  return\nstop\n\nsub_0: assembly {\n        /* \"contracts/User/UserRoleRequest.sol\":182:8145  contract UserRoleRequest is Ownable{... */\n      mstore(0x40, 0x80)\n      callvalue\n      dup1\n      iszero\n      tag_1\n      jumpi\n      0x00\n      dup1\n      revert\n    tag_1:\n      pop\n      jumpi(tag_2, lt(calldatasize, 0x04))\n      shr(0xe0, calldataload(0x00))\n      dup1\n      0xa8fff057\n      gt\n      tag_13\n      jumpi\n      dup1\n      0xa8fff057\n      eq\n      tag_8\n      jumpi\n      dup1\n      0xca9545d3\n      eq\n      tag_9\n      jumpi\n      dup1\n      0xe6d7a289\n      eq\n      tag_10\n      jumpi\n      dup1\n      0xf2fde38b\n      eq\n      tag_11\n      jumpi\n      dup1\n      0xf454e5ca\n      eq\n      tag_12\n      jumpi\n      jump(tag_2)\n    tag_13:\n      dup1\n      0x163f7522\n      eq\n      tag_3\n      jumpi\n      dup1\n      0x4f7d22e7\n      eq\n      tag_4\n      jumpi\n      dup1\n      0x715018a6\n      eq\n      tag_5\n      jumpi\n      dup1\n      0x87b162b5\n      eq\n      tag_6\n      jumpi\n      dup1\n      0x8da5cb5b\n      eq\n      tag_7\n      jumpi\n    tag_2:\n      0x00\n      dup1\n      revert\n        /* \"contracts/User/UserRoleRequest.sol\":3567:3760  function isUserRegistered(address _userAddr) public view returns(bool) {... */\n    tag_3:\n      tag_14\n      0x04\n      dup1\n      calldatasize\n      sub\n      dup2\n      add\n      swap1\n      tag_15\n      swap2\n      swap1\n      tag_16\n      jump\t// in\n    tag_15:\n      tag_17\n      jump\t// in\n    tag_14:\n      mload(0x40)\n      tag_18\n      swap2\n      swap1\n      tag_19\n      jump\t// in\n    tag_18:\n      mload(0x40)\n      dup1\n      swap2\n      sub\n      swap1\n      return\n        /* \"contracts/User/UserRoleRequest.sol\":716:1267  function generateRandomString(uint256 length) public view returns (string memory) {... */\n    tag_4:\n      tag_20\n      0x04\n      dup1\n      calldatasize\n      sub\n      dup2\n      add\n      swap1\n      tag_21\n      swap2\n      swap1\n      tag_22\n      jump\t// in\n    tag_21:\n      tag_23\n      jump\t// in\n    tag_20:\n      mload(0x40)\n      tag_24\n      swap2\n      swap1\n      tag_25\n      jump\t// in\n    tag_24:\n      mload(0x40)\n      dup1\n      swap2\n      sub\n      swap1\n      return\n        /* \"@openzeppelin/contracts/access/Ownable.sol\":2293:2394  function renounceOwnership() public virtual onlyOwner {... */\n    tag_5:\n      tag_26\n      tag_27\n      jump\t// in\n    tag_26:\n      stop\n        /* \"contracts/User/UserRoleRequest.sol\":2318:2835  function createUser(string memory _userName, string memory _geoHash) public checkValidInput(_userName,_geoHash) {... */\n    tag_6:\n      tag_28\n      0x04\n      dup1\n      calldatasize\n      sub\n      dup2\n      add\n      swap1\n      tag_29\n      swap2\n      swap1\n      tag_30\n      jump\t// in\n    tag_29:\n      tag_31\n      jump\t// in\n    tag_28:\n      stop\n        /* \"@openzeppelin/contracts/access/Ownable.sol\":1638:1723  function owner() public view virtual returns (address) {... */\n    tag_7:\n      tag_32\n      tag_33\n      jump\t// in\n    tag_32:\n      mload(0x40)\n      tag_34\n      swap2\n      swap1\n      tag_35\n      jump\t// in\n    tag_34:\n      mload(0x40)\n      dup1\n      swap2\n      sub\n      swap1\n      return\n        /* \"contracts/User/UserRoleRequest.sol\":3766:4358  function getRoleRequestByIdWithIndex(string memory _roleRequestId) public view returns(Types.RoleRequestWithIndexDto memory) {... */\n    tag_8:\n      tag_36\n      0x04\n      dup1\n      calldatasize\n      sub\n      dup2\n      add\n      swap1\n      tag_37\n      swap2\n      swap1\n      tag_38\n      jump\t// in\n    tag_37:\n      tag_39\n      jump\t// in\n    tag_36:\n      mload(0x40)\n      tag_40\n      swap2\n      swap1\n      tag_41\n      jump\t// in\n    tag_40:\n      mload(0x40)\n      dup1\n      swap2\n      sub\n      swap1\n      return\n        /* \"contracts/User/UserRoleRequest.sol\":4364:5531  function approveOrRejectRoleRequest(string memory _roleRequestId, bool approve) public {... */\n    tag_9:\n      tag_42\n      0x04\n      dup1\n      calldatasize\n      sub\n      dup2\n      add\n      swap1\n      tag_43\n      swap2\n      swap1\n      tag_44\n      jump\t// in\n    tag_43:\n      tag_45\n      jump\t// in\n    tag_42:\n      stop\n        /* \"contracts/User/UserRoleRequest.sol\":2841:3445  function createRoleRequest(Types.Role _requestedRole) public checkUserExists checkRoleRequest(_requestedRole) {... */\n    tag_10:\n      tag_46\n      0x04\n      dup1\n      calldatasize\n      sub\n      dup2\n      add\n      swap1\n      tag_47\n      swap2\n      swap1\n      tag_48\n      jump\t// in\n    tag_47:\n      tag_49\n      jump\t// in\n    tag_46:\n      stop\n        /* \"@openzeppelin/contracts/access/Ownable.sol\":2543:2758  function transferOwnership(address newOwner) public virtual onlyOwner {... */\n    tag_11:\n      tag_50\n      0x04\n      dup1\n      calldatasize\n      sub\n      dup2\n      add\n      swap1\n      tag_51\n      swap2\n      swap1\n      tag_16\n      jump\t// in\n    tag_51:\n      tag_52\n      jump\t// in\n    tag_50:\n      stop\n        /* \"contracts/User/UserRoleRequest.sol\":3451:3561  function getRoleRequests() public view returns(Types.RoleRequest[] memory){... */\n    tag_12:\n      tag_53\n      tag_54\n      jump\t// in\n    tag_53:\n      mload(0x40)\n      tag_55\n      swap2\n      swap1\n      tag_56\n      jump\t// in\n    tag_55:\n      mload(0x40)\n      dup1\n      swap2\n      sub\n      swap1\n      return\n        /* \"contracts/User/UserRoleRequest.sol\":3567:3760  function isUserRegistered(address _userAddr) public view returns(bool) {... */\n    tag_17:\n        /* \"contracts/User/UserRoleRequest.sol\":3632:3636  bool */\n      0x00\n        /* \"contracts/User/UserRoleRequest.sol\":3693:3694  0 */\n      dup1\n        /* \"contracts/User/UserRoleRequest.sol\":3657:3662  users */\n      0x02\n        /* \"contracts/User/UserRoleRequest.sol\":3657:3673  users[_userAddr] */\n      0x00\n        /* \"contracts/User/UserRoleRequest.sol\":3663:3672  _userAddr */\n      dup5\n        /* \"contracts/User/UserRoleRequest.sol\":3657:3673  users[_userAddr] */\n      0xffffffffffffffffffffffffffffffffffffffff\n      and\n      0xffffffffffffffffffffffffffffffffffffffff\n      and\n      dup2\n      mstore\n      0x20\n      add\n      swap1\n      dup2\n      mstore\n      0x20\n      add\n      0x00\n      keccak256\n        /* \"contracts/User/UserRoleRequest.sol\":3657:3682  users[_userAddr].userName */\n      0x00\n      add\n        /* \"contracts/User/UserRoleRequest.sol\":3651:3690  bytes(users[_userAddr].userName).length */\n      dup1\n      sload\n      tag_58\n      swap1\n      tag_59\n      jump\t// in\n    tag_58:\n      swap1\n      pop\n        /* \"contracts/User/UserRoleRequest.sol\":3651:3694  bytes(users[_userAddr].userName).length > 0 */\n      gt\n        /* \"contracts/User/UserRoleRequest.sol\":3648:3732  if(bytes(users[_userAddr].userName).length > 0) {... */\n      iszero\n      tag_60\n      jumpi\n        /* \"contracts/User/UserRoleRequest.sol\":3717:3721  true */\n      0x01\n        /* \"contracts/User/UserRoleRequest.sol\":3710:3721  return true */\n      swap1\n      pop\n      jump(tag_57)\n        /* \"contracts/User/UserRoleRequest.sol\":3648:3732  if(bytes(users[_userAddr].userName).length > 0) {... */\n    tag_60:\n        /* \"contracts/User/UserRoleRequest.sol\":3748:3753  false */\n      0x00\n        /* \"contracts/User/UserRoleRequest.sol\":3741:3753  return false */\n      swap1\n      pop\n        /* \"contracts/User/UserRoleRequest.sol\":3567:3760  function isUserRegistered(address _userAddr) public view returns(bool) {... */\n    tag_57:\n      swap2\n      swap1\n      pop\n      jump\t// out\n        /* \"contracts/User/UserRoleRequest.sol\":716:1267  function generateRandomString(uint256 length) public view returns (string memory) {... */\n    tag_23:\n        /* \"contracts/User/UserRoleRequest.sol\":783:796  string memory */\n      0x60\n        /* \"contracts/User/UserRoleRequest.sol\":808:831  bytes memory characters */\n      0x00\n        /* \"contracts/User/UserRoleRequest.sol\":808:898  bytes memory characters = \"abcdefghijklmnopqrstuvwxyzABCDEFGHIJKLMNOPQRSTUVWXYZ0123456789\" */\n      mload(0x40)\n      dup1\n      0x60\n      add\n      0x40\n      mstore\n      dup1\n      0x3e\n      dup2\n      mstore\n      0x20\n      add\n      data_b3209d81bebca962d527d5fbdb88c86ebaefb2fe1ae90a9e3a4315c0ab348daa\n      0x3e\n      swap2\n      codecopy\n      swap1\n      pop\n        /* \"contracts/User/UserRoleRequest.sol\":908:933  bytes memory randomString */\n      0x00\n        /* \"contracts/User/UserRoleRequest.sol\":946:952  length */\n      dup4\n        /* \"contracts/User/UserRoleRequest.sol\":936:953  new bytes(length) */\n      0xffffffffffffffff\n      dup2\n      gt\n      iszero\n      tag_62\n      jumpi\n      tag_63\n      tag_64\n      jump\t// in\n    tag_63:\n    tag_62:\n      mload(0x40)\n      swap1\n      dup1\n      dup3\n      mstore\n      dup1\n      0x1f\n      add\n      not(0x1f)\n      and\n      0x20\n      add\n      dup3\n      add\n      0x40\n      mstore\n      dup1\n      iszero\n      tag_65\n      jumpi\n      dup2\n      0x20\n      add\n      0x01\n      dup3\n      mul\n      dup1\n      calldatasize\n      dup4\n      calldatacopy\n      dup1\n      dup3\n      add\n      swap2\n      pop\n      pop\n      swap1\n      pop\n    tag_65:\n      pop\n        /* \"contracts/User/UserRoleRequest.sol\":908:953  bytes memory randomString = new bytes(length) */\n      swap1\n      pop\n        /* \"contracts/User/UserRoleRequest.sol\":963:981  uint256 charLength */\n      0x00\n        /* \"contracts/User/UserRoleRequest.sol\":984:994  characters */\n      dup3\n        /* \"contracts/User/UserRoleRequest.sol\":984:1001  characters.length */\n      mload\n        /* \"contracts/User/UserRoleRequest.sol\":963:1001  uint256 charLength = characters.length */\n      swap1\n      pop\n        /* \"contracts/User/UserRoleRequest.sol\":1017:1026  uint256 i */\n      0x00\n        /* \"contracts/User/UserRoleRequest.sol\":1012:1224  for (uint256 i = 0; i < length; i++) {... */\n    tag_66:\n        /* \"contracts/User/UserRoleRequest.sol\":1036:1042  length */\n      dup6\n        /* \"contracts/User/UserRoleRequest.sol\":1032:1033  i */\n      dup2\n        /* \"contracts/User/UserRoleRequest.sol\":1032:1042  i < length */\n      lt\n        /* \"contracts/User/UserRoleRequest.sol\":1012:1224  for (uint256 i = 0; i < length; i++) {... */\n      iszero\n      tag_67\n      jumpi\n        /* \"contracts/User/UserRoleRequest.sol\":1063:1075  uint256 rand */\n      0x00\n        /* \"contracts/User/UserRoleRequest.sol\":1155:1165  charLength */\n      dup3\n        /* \"contracts/User/UserRoleRequest.sol\":1113:1128  block.timestamp */\n      timestamp\n        /* \"contracts/User/UserRoleRequest.sol\":1130:1146  block.difficulty */\n      prevrandao\n        /* \"contracts/User/UserRoleRequest.sol\":1148:1149  i */\n      dup5\n        /* \"contracts/User/UserRoleRequest.sol\":1096:1150  abi.encodePacked(block.timestamp, block.difficulty, i) */\n      add(0x20, mload(0x40))\n      tag_69\n      swap4\n      swap3\n      swap2\n      swap1\n      tag_70\n      jump\t// in\n    tag_69:\n      mload(0x40)\n      0x20\n      dup2\n      dup4\n      sub\n      sub\n      dup2\n      mstore\n      swap1\n      0x40\n      mstore\n        /* \"contracts/User/UserRoleRequest.sol\":1086:1151  keccak256(abi.encodePacked(block.timestamp, block.difficulty, i)) */\n      dup1\n      mload\n      swap1\n      0x20\n      add\n      keccak256\n        /* \"contracts/User/UserRoleRequest.sol\":1078:1152  uint256(keccak256(abi.encodePacked(block.timestamp, block.difficulty, i))) */\n      0x00\n      shr\n        /* \"contracts/User/UserRoleRequest.sol\":1078:1165  uint256(keccak256(abi.encodePacked(block.timestamp, block.difficulty, i))) % charLength */\n      tag_71\n      swap2\n      swap1\n      tag_72\n      jump\t// in\n    tag_71:\n        /* \"contracts/User/UserRoleRequest.sol\":1063:1165  uint256 rand = uint256(keccak256(abi.encodePacked(block.timestamp, block.difficulty, i))) % charLength */\n      swap1\n      pop\n        /* \"contracts/User/UserRoleRequest.sol\":1197:1207  characters */\n      dup5\n        /* \"contracts/User/UserRoleRequest.sol\":1208:1212  rand */\n      dup2\n        /* \"contracts/User/UserRoleRequest.sol\":1197:1213  characters[rand] */\n      dup2\n      mload\n      dup2\n      lt\n      tag_73\n      jumpi\n      tag_74\n      tag_75\n      jump\t// in\n    tag_74:\n    tag_73:\n      0x20\n      add\n      add\n      mload\n      0xf8\n      shr\n      0xf8\n      shl\n        /* \"contracts/User/UserRoleRequest.sol\":1179:1191  randomString */\n      dup5\n        /* \"contracts/User/UserRoleRequest.sol\":1192:1193  i */\n      dup4\n        /* \"contracts/User/UserRoleRequest.sol\":1179:1194  randomString[i] */\n      dup2\n      mload\n      dup2\n      lt\n      tag_76\n      jumpi\n      tag_77\n      tag_75\n      jump\t// in\n    tag_77:\n    tag_76:\n      0x20\n      add\n      add\n        /* \"contracts/User/UserRoleRequest.sol\":1179:1213  randomString[i] = characters[rand] */\n      swap1\n      not(0xffffffffffffffffffffffffffffffffffffffffffffffffffffffffffffff)\n      and\n      swap1\n      dup2\n      0x00\n      byte\n      swap1\n      mstore8\n      pop\n        /* \"contracts/User/UserRoleRequest.sol\":1049:1224  {... */\n      pop\n        /* \"contracts/User/UserRoleRequest.sol\":1044:1047  i++ */\n      dup1\n      dup1\n      0x01\n      add\n      swap2\n      pop\n      pop\n        /* \"contracts/User/UserRoleRequest.sol\":1012:1224  for (uint256 i = 0; i < length; i++) {... */\n      jump(tag_66)\n    tag_67:\n      pop\n        /* \"contracts/User/UserRoleRequest.sol\":1247:1259  randomString */\n      dup2\n        /* \"contracts/User/UserRoleRequest.sol\":1233:1260  return string(randomString) */\n      swap4\n      pop\n      pop\n      pop\n      pop\n        /* \"contracts/User/UserRoleRequest.sol\":716:1267  function generateRandomString(uint256 length) public view returns (string memory) {... */\n      swap2\n      swap1\n      pop\n      jump\t// out\n        /* \"@openzeppelin/contracts/access/Ownable.sol\":2293:2394  function renounceOwnership() public virtual onlyOwner {... */\n    tag_27:\n        /* \"@openzeppelin/contracts/access/Ownable.sol\":1531:1544  _checkOwner() */\n      tag_79\n        /* \"@openzeppelin/contracts/access/Ownable.sol\":1531:1542  _checkOwner */\n      tag_80\n        /* \"@openzeppelin/contracts/access/Ownable.sol\":1531:1544  _checkOwner() */\n      jump\t// in\n    tag_79:\n        /* \"@openzeppelin/contracts/access/Ownable.sol\":2357:2387  _transferOwnership(address(0)) */\n      tag_82\n        /* \"@openzeppelin/contracts/access/Ownable.sol\":2384:2385  0 */\n      0x00\n        /* \"@openzeppelin/contracts/access/Ownable.sol\":2357:2375  _transferOwnership */\n      tag_83\n        /* \"@openzeppelin/contracts/access/Ownable.sol\":2357:2387  _transferOwnership(address(0)) */\n      jump\t// in\n    tag_82:\n        /* \"@openzeppelin/contracts/access/Ownable.sol\":2293:2394  function renounceOwnership() public virtual onlyOwner {... */\n      jump\t// out\n        /* \"contracts/User/UserRoleRequest.sol\":2318:2835  function createUser(string memory _userName, string memory _geoHash) public checkValidInput(_userName,_geoHash) {... */\n    tag_31:\n        /* \"contracts/User/UserRoleRequest.sol\":2410:2419  _userName */\n      dup2\n        /* \"contracts/User/UserRoleRequest.sol\":2420:2428  _geoHash */\n      dup2\n        /* \"contracts/User/UserRoleRequest.sol\":1655:1656  0 */\n      0x00\n        /* \"contracts/User/UserRoleRequest.sol\":1634:1643  _userName */\n      dup3\n        /* \"contracts/User/UserRoleRequest.sol\":1628:1651  bytes(_userName).length */\n      mload\n        /* \"contracts/User/UserRoleRequest.sol\":1628:1656  bytes(_userName).length <= 0 */\n      gt\n        /* \"contracts/User/UserRoleRequest.sol\":1625:1810  if(bytes(_userName).length <= 0){... */\n      tag_85\n      jumpi\n        /* \"contracts/User/UserRoleRequest.sol\":1729:1739  msg.sender */\n      caller\n        /* \"contracts/User/UserRoleRequest.sol\":1678:1799  Errors.InvalidInput({... */\n      mload(0x40)\n      0x5012f88600000000000000000000000000000000000000000000000000000000\n      dup2\n      mstore\n      0x04\n      add\n      tag_86\n      swap2\n      swap1\n      tag_87\n      jump\t// in\n    tag_86:\n      mload(0x40)\n      dup1\n      swap2\n      sub\n      swap1\n      revert\n        /* \"contracts/User/UserRoleRequest.sol\":1625:1810  if(bytes(_userName).length <= 0){... */\n    tag_85:\n        /* \"contracts/User/UserRoleRequest.sol\":1858:1859  0 */\n      0x00\n        /* \"contracts/User/UserRoleRequest.sol\":1837:1846  _userName */\n      dup3\n        /* \"contracts/User/UserRoleRequest.sol\":1831:1854  bytes(_userName).length */\n      mload\n        /* \"contracts/User/UserRoleRequest.sol\":1831:1859  bytes(_userName).length <= 0 */\n      gt\n        /* \"contracts/User/UserRoleRequest.sol\":1828:2012  if(bytes(_userName).length <= 0){... */\n      tag_88\n      jumpi\n        /* \"contracts/User/UserRoleRequest.sol\":1932:1942  msg.sender */\n      caller\n        /* \"contracts/User/UserRoleRequest.sol\":1881:2001  Errors.InvalidInput({... */\n      mload(0x40)\n      0x5012f88600000000000000000000000000000000000000000000000000000000\n      dup2\n      mstore\n      0x04\n      add\n      tag_89\n      swap2\n      swap1\n      tag_90\n      jump\t// in\n    tag_89:\n      mload(0x40)\n      dup1\n      swap2\n      sub\n      swap1\n      revert\n        /* \"contracts/User/UserRoleRequest.sol\":1828:2012  if(bytes(_userName).length <= 0){... */\n    tag_88:\n        /* \"contracts/User/UserRoleRequest.sol\":2440:2468  Types.Role[] memory noneRole */\n      0x00\n        /* \"contracts/User/UserRoleRequest.sol\":2488:2489  1 */\n      0x01\n        /* \"contracts/User/UserRoleRequest.sol\":2471:2490  new Types.Role[](1) */\n      0xffffffffffffffff\n      dup2\n      gt\n      iszero\n      tag_92\n      jumpi\n      tag_93\n      tag_64\n      jump\t// in\n    tag_93:\n    tag_92:\n      mload(0x40)\n      swap1\n      dup1\n      dup3\n      mstore\n      dup1\n      0x20\n      mul\n      0x20\n      add\n      dup3\n      add\n      0x40\n      mstore\n      dup1\n      iszero\n      tag_94\n      jumpi\n      dup2\n      0x20\n      add\n      0x20\n      dup3\n      mul\n      dup1\n      calldatasize\n      dup4\n      calldatacopy\n      dup1\n      dup3\n      add\n      swap2\n      pop\n      pop\n      swap1\n      pop\n    tag_94:\n      pop\n        /* \"contracts/User/UserRoleRequest.sol\":2440:2490  Types.Role[] memory noneRole = new Types.Role[](1) */\n      swap1\n      pop\n        /* \"contracts/User/UserRoleRequest.sol\":2514:2529  Types.Role.None */\n      0x00\n        /* \"contracts/User/UserRoleRequest.sol\":2500:2508  noneRole */\n      dup2\n        /* \"contracts/User/UserRoleRequest.sol\":2509:2510  0 */\n      0x00\n        /* \"contracts/User/UserRoleRequest.sol\":2500:2511  noneRole[0] */\n      dup2\n      mload\n      dup2\n      lt\n      tag_95\n      jumpi\n      tag_96\n      tag_75\n      jump\t// in\n    tag_96:\n    tag_95:\n      0x20\n      mul\n      0x20\n      add\n      add\n        /* \"contracts/User/UserRoleRequest.sol\":2500:2529  noneRole[0] = Types.Role.None */\n      swap1\n      0x04\n      dup2\n      gt\n      iszero\n      tag_97\n      jumpi\n      tag_98\n      tag_99\n      jump\t// in\n    tag_98:\n    tag_97:\n      swap1\n      dup2\n      0x04\n      dup2\n      gt\n      iszero\n      tag_100\n      jumpi\n      tag_101\n      tag_99\n      jump\t// in\n    tag_101:\n    tag_100:\n      dup2\n      mstore\n      pop\n      pop\n        /* \"contracts/User/UserRoleRequest.sol\":2541:2566  Types.User memory newUser */\n      0x00\n        /* \"contracts/User/UserRoleRequest.sol\":2569:2720  Types.User({... */\n      mload(0x40)\n      dup1\n      0x80\n      add\n      0x40\n      mstore\n      dup1\n        /* \"contracts/User/UserRoleRequest.sol\":2604:2613  _userName */\n      dup8\n        /* \"contracts/User/UserRoleRequest.sol\":2569:2720  Types.User({... */\n      dup2\n      mstore\n      0x20\n      add\n        /* \"contracts/User/UserRoleRequest.sol\":2640:2650  msg.sender */\n      caller\n        /* \"contracts/User/UserRoleRequest.sol\":2569:2720  Types.User({... */\n      0xffffffffffffffffffffffffffffffffffffffff\n      and\n      dup2\n      mstore\n      0x20\n      add\n        /* \"contracts/User/UserRoleRequest.sol\":2701:2709  _geoHash */\n      dup7\n        /* \"contracts/User/UserRoleRequest.sol\":2569:2720  Types.User({... */\n      dup2\n      mstore\n      0x20\n      add\n        /* \"contracts/User/UserRoleRequest.sol\":2670:2678  noneRole */\n      dup4\n        /* \"contracts/User/UserRoleRequest.sol\":2569:2720  Types.User({... */\n      dup2\n      mstore\n      pop\n        /* \"contracts/User/UserRoleRequest.sol\":2541:2720  Types.User memory newUser = Types.User({... */\n      swap1\n      pop\n        /* \"contracts/User/UserRoleRequest.sol\":2751:2758  newUser */\n      dup1\n        /* \"contracts/User/UserRoleRequest.sol\":2731:2736  users */\n      0x02\n        /* \"contracts/User/UserRoleRequest.sol\":2731:2748  users[msg.sender] */\n      0x00\n        /* \"contracts/User/UserRoleRequest.sol\":2737:2747  msg.sender */\n      caller\n        /* \"contracts/User/UserRoleRequest.sol\":2731:2748  users[msg.sender] */\n      0xffffffffffffffffffffffffffffffffffffffff\n      and\n      0xffffffffffffffffffffffffffffffffffffffff\n      and\n      dup2\n      mstore\n      0x20\n      add\n      swap1\n      dup2\n      mstore\n      0x20\n      add\n      0x00\n      keccak256\n        /* \"contracts/User/UserRoleRequest.sol\":2731:2758  users[msg.sender] = newUser */\n      0x00\n      dup3\n      add\n      mload\n      dup2\n      0x00\n      add\n      swap1\n      dup2\n      tag_102\n      swap2\n      swap1\n      tag_103\n      jump\t// in\n    tag_102:\n      pop\n      0x20\n      dup3\n      add\n      mload\n      dup2\n      0x01\n      add\n      exp(0x0100, 0x00)\n      dup2\n      sload\n      dup2\n      0xffffffffffffffffffffffffffffffffffffffff\n      mul\n      not\n      and\n      swap1\n      dup4\n      0xffffffffffffffffffffffffffffffffffffffff\n      and\n      mul\n      or\n      swap1\n      sstore\n      pop\n      0x40\n      dup3\n      add\n      mload\n      dup2\n      0x02\n      add\n      swap1\n      dup2\n      tag_104\n      swap2\n      swap1\n      tag_103\n      jump\t// in\n    tag_104:\n      pop\n      0x60\n      dup3\n      add\n      mload\n      dup2\n      0x03\n      add\n      swap1\n      dup1\n      mload\n      swap1\n      0x20\n      add\n      swap1\n      tag_105\n      swap3\n      swap2\n      swap1\n      tag_106\n      jump\t// in\n    tag_105:\n      pop\n      swap1\n      pop\n      pop\n        /* \"contracts/User/UserRoleRequest.sol\":2774:2828  Events.NewUserCreated(_userName, msg.sender, _geoHash) */\n      0xbb193fe0a34fdd537c950d0cae2072791bd1768ebe79a45754cc99f7aa93d841\n        /* \"contracts/User/UserRoleRequest.sol\":2796:2805  _userName */\n      dup7\n        /* \"contracts/User/UserRoleRequest.sol\":2807:2817  msg.sender */\n      caller\n        /* \"contracts/User/UserRoleRequest.sol\":2819:2827  _geoHash */\n      dup8\n        /* \"contracts/User/UserRoleRequest.sol\":2774:2828  Events.NewUserCreated(_userName, msg.sender, _geoHash) */\n      mload(0x40)\n      tag_107\n      swap4\n      swap3\n      swap2\n      swap1\n      tag_108\n      jump\t// in\n    tag_107:\n      mload(0x40)\n      dup1\n      swap2\n      sub\n      swap1\n      log1\n        /* \"contracts/User/UserRoleRequest.sol\":2430:2835  {... */\n      pop\n      pop\n        /* \"contracts/User/UserRoleRequest.sol\":2318:2835  function createUser(string memory _userName, string memory _geoHash) public checkValidInput(_userName,_geoHash) {... */\n      pop\n      pop\n      pop\n      pop\n      jump\t// out\n        /* \"@openzeppelin/contracts/access/Ownable.sol\":1638:1723  function owner() public view virtual returns (address) {... */\n    tag_33:\n        /* \"@openzeppelin/contracts/access/Ownable.sol\":1684:1691  address */\n      0x00\n        /* \"@openzeppelin/contracts/access/Ownable.sol\":1710:1716  _owner */\n      dup1\n      0x00\n      swap1\n      sload\n      swap1\n      0x0100\n      exp\n      swap1\n      div\n      0xffffffffffffffffffffffffffffffffffffffff\n      and\n        /* \"@openzeppelin/contracts/access/Ownable.sol\":1703:1716  return _owner */\n      swap1\n      pop\n        /* \"@openzeppelin/contracts/access/Ownable.sol\":1638:1723  function owner() public view virtual returns (address) {... */\n      swap1\n      jump\t// out\n        /* \"contracts/User/UserRoleRequest.sol\":3766:4358  function getRoleRequestByIdWithIndex(string memory _roleRequestId) public view returns(Types.RoleRequestWithIndexDto memory) {... */\n    tag_39:\n        /* \"contracts/User/UserRoleRequest.sol\":3853:3889  Types.RoleRequestWithIndexDto memory */\n      tag_110\n      tag_111\n      jump\t// in\n    tag_110:\n        /* \"contracts/User/UserRoleRequest.sol\":3906:3912  uint i */\n      0x00\n        /* \"contracts/User/UserRoleRequest.sol\":3902:4160  for(uint i=0; i<roleRequests.length; i++){... */\n    tag_113:\n        /* \"contracts/User/UserRoleRequest.sol\":3918:3930  roleRequests */\n      0x01\n        /* \"contracts/User/UserRoleRequest.sol\":3918:3937  roleRequests.length */\n      dup1\n      sload\n      swap1\n      pop\n        /* \"contracts/User/UserRoleRequest.sol\":3916:3917  i */\n      dup2\n        /* \"contracts/User/UserRoleRequest.sol\":3916:3937  i<roleRequests.length */\n      lt\n        /* \"contracts/User/UserRoleRequest.sol\":3902:4160  for(uint i=0; i<roleRequests.length; i++){... */\n      iszero\n      tag_114\n      jumpi\n        /* \"contracts/User/UserRoleRequest.sol\":4023:4037  _roleRequestId */\n      dup3\n        /* \"contracts/User/UserRoleRequest.sol\":4007:4039  keccak256(bytes(_roleRequestId)) */\n      dup1\n      mload\n      swap1\n      0x20\n      add\n      keccak256\n        /* \"contracts/User/UserRoleRequest.sol\":3976:3988  roleRequests */\n      0x01\n        /* \"contracts/User/UserRoleRequest.sol\":3989:3990  i */\n      dup3\n        /* \"contracts/User/UserRoleRequest.sol\":3976:3991  roleRequests[i] */\n      dup2\n      sload\n      dup2\n      lt\n      tag_116\n      jumpi\n      tag_117\n      tag_75\n      jump\t// in\n    tag_117:\n    tag_116:\n      swap1\n      0x00\n      mstore\n      keccak256(0x00, 0x20)\n      swap1\n      0x03\n      mul\n      add\n        /* \"contracts/User/UserRoleRequest.sol\":3976:4001  roleRequests[i].requestId */\n      0x00\n      add\n        /* \"contracts/User/UserRoleRequest.sol\":3960:4003  keccak256(bytes(roleRequests[i].requestId)) */\n      mload(0x40)\n      tag_119\n      swap2\n      swap1\n      tag_120\n      jump\t// in\n    tag_119:\n      mload(0x40)\n      dup1\n      swap2\n      sub\n      swap1\n      keccak256\n        /* \"contracts/User/UserRoleRequest.sol\":3960:4039  keccak256(bytes(roleRequests[i].requestId)) == keccak256(bytes(_roleRequestId)) */\n      sub\n        /* \"contracts/User/UserRoleRequest.sol\":3957:4150  if(keccak256(bytes(roleRequests[i].requestId)) == keccak256(bytes(_roleRequestId))){... */\n      tag_121\n      jumpi\n        /* \"contracts/User/UserRoleRequest.sol\":4065:4135  Types.RoleRequestWithIndexDto({roleRequest:roleRequests[i], index: i}) */\n      mload(0x40)\n      dup1\n      0x40\n      add\n      0x40\n      mstore\n      dup1\n        /* \"contracts/User/UserRoleRequest.sol\":4108:4120  roleRequests */\n      0x01\n        /* \"contracts/User/UserRoleRequest.sol\":4121:4122  i */\n      dup4\n        /* \"contracts/User/UserRoleRequest.sol\":4108:4123  roleRequests[i] */\n      dup2\n      sload\n      dup2\n      lt\n      tag_122\n      jumpi\n      tag_123\n      tag_75\n      jump\t// in\n    tag_123:\n    tag_122:\n      swap1\n      0x00\n      mstore\n      keccak256(0x00, 0x20)\n      swap1\n      0x03\n      mul\n      add\n        /* \"contracts/User/UserRoleRequest.sol\":4065:4135  Types.RoleRequestWithIndexDto({roleRequest:roleRequests[i], index: i}) */\n      mload(0x40)\n      dup1\n      0xa0\n      add\n      0x40\n      mstore\n      swap1\n      dup2\n      0x00\n      dup3\n      add\n      dup1\n      sload\n      tag_125\n      swap1\n      tag_59\n      jump\t// in\n    tag_125:\n      dup1\n      0x1f\n      add\n      0x20\n      dup1\n      swap2\n      div\n      mul\n      0x20\n      add\n      mload(0x40)\n      swap1\n      dup2\n      add\n      0x40\n      mstore\n      dup1\n      swap3\n      swap2\n      swap1\n      dup2\n      dup2\n      mstore\n      0x20\n      add\n      dup3\n      dup1\n      sload\n      tag_126\n      swap1\n      tag_59\n      jump\t// in\n    tag_126:\n      dup1\n      iszero\n      tag_127\n      jumpi\n      dup1\n      0x1f\n      lt\n      tag_128\n      jumpi\n      0x0100\n      dup1\n      dup4\n      sload\n      div\n      mul\n      dup4\n      mstore\n      swap2\n      0x20\n      add\n      swap2\n      jump(tag_127)\n    tag_128:\n      dup3\n      add\n      swap2\n      swap1\n      0x00\n      mstore\n      keccak256(0x00, 0x20)\n      swap1\n    tag_129:\n      dup2\n      sload\n      dup2\n      mstore\n      swap1\n      0x01\n      add\n      swap1\n      0x20\n      add\n      dup1\n      dup4\n      gt\n      tag_129\n      jumpi\n      dup3\n      swap1\n      sub\n      0x1f\n      and\n      dup3\n      add\n      swap2\n    tag_127:\n      pop\n      pop\n      pop\n      pop\n      pop\n      dup2\n      mstore\n      0x20\n      add\n      0x01\n      dup3\n      add\n      0x00\n      swap1\n      sload\n      swap1\n      0x0100\n      exp\n      swap1\n      div\n      0xffffffffffffffffffffffffffffffffffffffff\n      and\n      0xffffffffffffffffffffffffffffffffffffffff\n      and\n      0xffffffffffffffffffffffffffffffffffffffff\n      and\n      dup2\n      mstore\n      0x20\n      add\n      0x01\n      dup3\n      add\n      0x14\n      swap1\n      sload\n      swap1\n      0x0100\n      exp\n      swap1\n      div\n      0xff\n      and\n      0x04\n      dup2\n      gt\n      iszero\n      tag_130\n      jumpi\n      tag_131\n      tag_99\n      jump\t// in\n    tag_131:\n    tag_130:\n      0x04\n      dup2\n      gt\n      iszero\n      tag_132\n      jumpi\n      tag_133\n      tag_99\n      jump\t// in\n    tag_133:\n    tag_132:\n      dup2\n      mstore\n      0x20\n      add\n      0x01\n      dup3\n      add\n      0x15\n      swap1\n      sload\n      swap1\n      0x0100\n      exp\n      swap1\n      div\n      0xff\n      and\n      0x02\n      dup2\n      gt\n      iszero\n      tag_134\n      jumpi\n      tag_135\n      tag_99\n      jump\t// in\n    tag_135:\n    tag_134:\n      0x02\n      dup2\n      gt\n      iszero\n      tag_136\n      jumpi\n      tag_137\n      tag_99\n      jump\t// in\n    tag_137:\n    tag_136:\n      dup2\n      mstore\n      0x20\n      add\n      0x02\n      dup3\n      add\n      0x00\n      swap1\n      sload\n      swap1\n      0x0100\n      exp\n      swap1\n      div\n      0xffffffffffffffffffffffffffffffffffffffff\n      and\n      0xffffffffffffffffffffffffffffffffffffffff\n      and\n      0xffffffffffffffffffffffffffffffffffffffff\n      and\n      dup2\n      mstore\n      pop\n      pop\n      dup2\n      mstore\n      0x20\n      add\n        /* \"contracts/User/UserRoleRequest.sol\":4132:4133  i */\n      dup3\n        /* \"contracts/User/UserRoleRequest.sol\":4065:4135  Types.RoleRequestWithIndexDto({roleRequest:roleRequests[i], index: i}) */\n      dup2\n      mstore\n      pop\n        /* \"contracts/User/UserRoleRequest.sol\":4058:4135  return Types.RoleRequestWithIndexDto({roleRequest:roleRequests[i], index: i}) */\n      swap2\n      pop\n      pop\n      jump(tag_112)\n        /* \"contracts/User/UserRoleRequest.sol\":3957:4150  if(keccak256(bytes(roleRequests[i].requestId)) == keccak256(bytes(_roleRequestId))){... */\n    tag_121:\n        /* \"contracts/User/UserRoleRequest.sol\":3939:3942  i++ */\n      dup1\n      dup1\n      0x01\n      add\n      swap2\n      pop\n      pop\n        /* \"contracts/User/UserRoleRequest.sol\":3902:4160  for(uint i=0; i<roleRequests.length; i++){... */\n      jump(tag_113)\n    tag_114:\n      pop\n        /* \"contracts/User/UserRoleRequest.sol\":4237:4247  msg.sender */\n      caller\n        /* \"contracts/User/UserRoleRequest.sol\":4318:4332  _roleRequestId */\n      dup3\n        /* \"contracts/User/UserRoleRequest.sol\":4183:4343  Errors.RoleRequestNotFound({... */\n      mload(0x40)\n      0x1af0041900000000000000000000000000000000000000000000000000000000\n      dup2\n      mstore\n      0x04\n      add\n      tag_138\n      swap3\n      swap2\n      swap1\n      tag_139\n      jump\t// in\n    tag_138:\n      mload(0x40)\n      dup1\n      swap2\n      sub\n      swap1\n      revert\n        /* \"contracts/User/UserRoleRequest.sol\":3766:4358  function getRoleRequestByIdWithIndex(string memory _roleRequestId) public view returns(Types.RoleRequestWithIndexDto memory) {... */\n    tag_112:\n      swap2\n      swap1\n      pop\n      jump\t// out\n        /* \"contracts/User/UserRoleRequest.sol\":4364:5531  function approveOrRejectRoleRequest(string memory _roleRequestId, bool approve) public {... */\n    tag_45:\n        /* \"contracts/User/UserRoleRequest.sol\":4461:4494  Types.Role[] memory approverRoles */\n      0x00\n        /* \"contracts/User/UserRoleRequest.sol\":4497:4502  users */\n      0x02\n        /* \"contracts/User/UserRoleRequest.sol\":4497:4514  users[msg.sender] */\n      0x00\n        /* \"contracts/User/UserRoleRequest.sol\":4503:4513  msg.sender */\n      caller\n        /* \"contracts/User/UserRoleRequest.sol\":4497:4514  users[msg.sender] */\n      0xffffffffffffffffffffffffffffffffffffffff\n      and\n      0xffffffffffffffffffffffffffffffffffffffff\n      and\n      dup2\n      mstore\n      0x20\n      add\n      swap1\n      dup2\n      mstore\n      0x20\n      add\n      0x00\n      keccak256\n        /* \"contracts/User/UserRoleRequest.sol\":4497:4519  users[msg.sender].role */\n      0x03\n      add\n        /* \"contracts/User/UserRoleRequest.sol\":4461:4519  Types.Role[] memory approverRoles = users[msg.sender].role */\n      dup1\n      sload\n      dup1\n      0x20\n      mul\n      0x20\n      add\n      mload(0x40)\n      swap1\n      dup2\n      add\n      0x40\n      mstore\n      dup1\n      swap3\n      swap2\n      swap1\n      dup2\n      dup2\n      mstore\n      0x20\n      add\n      dup3\n      dup1\n      sload\n      dup1\n      iszero\n      tag_141\n      jumpi\n      0x20\n      mul\n      dup3\n      add\n      swap2\n      swap1\n      0x00\n      mstore\n      keccak256(0x00, 0x20)\n      swap1\n      0x00\n      swap1\n    tag_142:\n      dup3\n      dup3\n      swap1\n      sload\n      swap1\n      0x0100\n      exp\n      swap1\n      div\n      0xff\n      and\n      0x04\n      dup2\n      gt\n      iszero\n      tag_143\n      jumpi\n      tag_144\n      tag_99\n      jump\t// in\n    tag_144:\n    tag_143:\n      dup2\n      mstore\n      0x20\n      add\n      swap1\n      0x01\n      add\n      swap1\n      0x20\n      dup3\n      0x00\n      add\n      div\n      swap3\n      dup4\n      add\n      swap3\n      0x01\n      sub\n      dup3\n      mul\n      swap2\n      pop\n      dup1\n      dup5\n      gt\n      tag_142\n      jumpi\n      swap1\n      pop\n    tag_141:\n      pop\n      pop\n      pop\n      pop\n      pop\n      swap1\n      pop\n        /* \"contracts/User/UserRoleRequest.sol\":4530:4587  Types.RoleRequestWithIndexDto memory roleRequestWithIndex */\n      0x00\n        /* \"contracts/User/UserRoleRequest.sol\":4590:4633  getRoleRequestByIdWithIndex(_roleRequestId) */\n      tag_145\n        /* \"contracts/User/UserRoleRequest.sol\":4618:4632  _roleRequestId */\n      dup5\n        /* \"contracts/User/UserRoleRequest.sol\":4590:4617  getRoleRequestByIdWithIndex */\n      tag_39\n        /* \"contracts/User/UserRoleRequest.sol\":4590:4633  getRoleRequestByIdWithIndex(_roleRequestId) */\n      jump\t// in\n    tag_145:\n        /* \"contracts/User/UserRoleRequest.sol\":4530:4633  Types.RoleRequestWithIndexDto memory roleRequestWithIndex = getRoleRequestByIdWithIndex(_roleRequestId) */\n      swap1\n      pop\n        /* \"contracts/User/UserRoleRequest.sol\":4644:4680  Types.RoleRequest memory roleRequest */\n      0x00\n        /* \"contracts/User/UserRoleRequest.sol\":4683:4703  roleRequestWithIndex */\n      dup2\n        /* \"contracts/User/UserRoleRequest.sol\":4683:4715  roleRequestWithIndex.roleRequest */\n      0x00\n      add\n      mload\n        /* \"contracts/User/UserRoleRequest.sol\":4644:4715  Types.RoleRequest memory roleRequest = roleRequestWithIndex.roleRequest */\n      swap1\n      pop\n        /* \"contracts/User/UserRoleRequest.sol\":4730:4798  isApproverHavingPermission(approverRoles, roleRequest.requestedRole) */\n      tag_146\n        /* \"contracts/User/UserRoleRequest.sol\":4757:4770  approverRoles */\n      dup4\n        /* \"contracts/User/UserRoleRequest.sol\":4772:4783  roleRequest */\n      dup3\n        /* \"contracts/User/UserRoleRequest.sol\":4772:4797  roleRequest.requestedRole */\n      0x40\n      add\n      mload\n        /* \"contracts/User/UserRoleRequest.sol\":4730:4756  isApproverHavingPermission */\n      tag_147\n        /* \"contracts/User/UserRoleRequest.sol\":4730:4798  isApproverHavingPermission(approverRoles, roleRequest.requestedRole) */\n      jump\t// in\n    tag_146:\n        /* \"contracts/User/UserRoleRequest.sol\":4726:4986  if(!isApproverHavingPermission(approverRoles, roleRequest.requestedRole)) {... */\n      tag_148\n      jumpi\n        /* \"contracts/User/UserRoleRequest.sol\":4873:4883  msg.sender */\n      caller\n        /* \"contracts/User/UserRoleRequest.sol\":4821:4975  Errors.NotAuthorized({... */\n      mload(0x40)\n      0x50df61b300000000000000000000000000000000000000000000000000000000\n      dup2\n      mstore\n      0x04\n      add\n      tag_149\n      swap2\n      swap1\n      tag_150\n      jump\t// in\n    tag_149:\n      mload(0x40)\n      dup1\n      swap2\n      sub\n      swap1\n      revert\n        /* \"contracts/User/UserRoleRequest.sol\":4726:4986  if(!isApproverHavingPermission(approverRoles, roleRequest.requestedRole)) {... */\n    tag_148:\n        /* \"contracts/User/UserRoleRequest.sol\":4996:5031  checkRoleRequestStatus(roleRequest) */\n      tag_151\n        /* \"contracts/User/UserRoleRequest.sol\":5019:5030  roleRequest */\n      dup2\n        /* \"contracts/User/UserRoleRequest.sol\":4996:5018  checkRoleRequestStatus */\n      tag_152\n        /* \"contracts/User/UserRoleRequest.sol\":4996:5031  checkRoleRequestStatus(roleRequest) */\n      jump\t// in\n    tag_151:\n        /* \"contracts/User/UserRoleRequest.sol\":5098:5105  approve */\n      dup4\n        /* \"contracts/User/UserRoleRequest.sol\":5095:5351  if(approve){... */\n      iszero\n      tag_153\n      jumpi\n        /* \"contracts/User/UserRoleRequest.sol\":5148:5176  Types.RequestStatus.Approved */\n      0x01\n        /* \"contracts/User/UserRoleRequest.sol\":5120:5131  roleRequest */\n      dup2\n        /* \"contracts/User/UserRoleRequest.sol\":5120:5145  roleRequest.requestStatus */\n      0x60\n      add\n        /* \"contracts/User/UserRoleRequest.sol\":5120:5176  roleRequest.requestStatus = Types.RequestStatus.Approved */\n      swap1\n      0x02\n      dup2\n      gt\n      iszero\n      tag_154\n      jumpi\n      tag_155\n      tag_99\n      jump\t// in\n    tag_155:\n    tag_154:\n      swap1\n      dup2\n      0x02\n      dup2\n      gt\n      iszero\n      tag_156\n      jumpi\n      tag_157\n      tag_99\n      jump\t// in\n    tag_157:\n    tag_156:\n      dup2\n      mstore\n      pop\n      pop\n        /* \"contracts/User/UserRoleRequest.sol\":5220:5230  msg.sender */\n      caller\n        /* \"contracts/User/UserRoleRequest.sol\":5190:5201  roleRequest */\n      dup2\n        /* \"contracts/User/UserRoleRequest.sol\":5190:5217  roleRequest.approverAddress */\n      0x80\n      add\n        /* \"contracts/User/UserRoleRequest.sol\":5190:5230  roleRequest.approverAddress = msg.sender */\n      swap1\n      0xffffffffffffffffffffffffffffffffffffffff\n      and\n      swap1\n      dup2\n      0xffffffffffffffffffffffffffffffffffffffff\n      and\n      dup2\n      mstore\n      pop\n      pop\n        /* \"contracts/User/UserRoleRequest.sol\":5288:5299  roleRequest */\n      dup1\n        /* \"contracts/User/UserRoleRequest.sol\":5245:5257  roleRequests */\n      0x01\n        /* \"contracts/User/UserRoleRequest.sol\":5258:5278  roleRequestWithIndex */\n      dup4\n        /* \"contracts/User/UserRoleRequest.sol\":5258:5284  roleRequestWithIndex.index */\n      0x20\n      add\n      mload\n        /* \"contracts/User/UserRoleRequest.sol\":5245:5285  roleRequests[roleRequestWithIndex.index] */\n      dup2\n      sload\n      dup2\n      lt\n      tag_158\n      jumpi\n      tag_159\n      tag_75\n      jump\t// in\n    tag_159:\n    tag_158:\n      swap1\n      0x00\n      mstore\n      keccak256(0x00, 0x20)\n      swap1\n      0x03\n      mul\n      add\n        /* \"contracts/User/UserRoleRequest.sol\":5245:5299  roleRequests[roleRequestWithIndex.index] = roleRequest */\n      0x00\n      dup3\n      add\n      mload\n      dup2\n      0x00\n      add\n      swap1\n      dup2\n      tag_161\n      swap2\n      swap1\n      tag_103\n      jump\t// in\n    tag_161:\n      pop\n      0x20\n      dup3\n      add\n      mload\n      dup2\n      0x01\n      add\n      exp(0x0100, 0x00)\n      dup2\n      sload\n      dup2\n      0xffffffffffffffffffffffffffffffffffffffff\n      mul\n      not\n      and\n      swap1\n      dup4\n      0xffffffffffffffffffffffffffffffffffffffff\n      and\n      mul\n      or\n      swap1\n      sstore\n      pop\n      0x40\n      dup3\n      add\n      mload\n      dup2\n      0x01\n      add\n      exp(0x0100, 0x14)\n      dup2\n      sload\n      dup2\n      0xff\n      mul\n      not\n      and\n      swap1\n      dup4\n      0x04\n      dup2\n      gt\n      iszero\n      tag_162\n      jumpi\n      tag_163\n      tag_99\n      jump\t// in\n    tag_163:\n    tag_162:\n      mul\n      or\n      swap1\n      sstore\n      pop\n      0x60\n      dup3\n      add\n      mload\n      dup2\n      0x01\n      add\n      exp(0x0100, 0x15)\n      dup2\n      sload\n      dup2\n      0xff\n      mul\n      not\n      and\n      swap1\n      dup4\n      0x02\n      dup2\n      gt\n      iszero\n      tag_164\n      jumpi\n      tag_165\n      tag_99\n      jump\t// in\n    tag_165:\n    tag_164:\n      mul\n      or\n      swap1\n      sstore\n      pop\n      0x80\n      dup3\n      add\n      mload\n      dup2\n      0x02\n      add\n      exp(0x0100, 0x00)\n      dup2\n      sload\n      dup2\n      0xffffffffffffffffffffffffffffffffffffffff\n      mul\n      not\n      and\n      swap1\n      dup4\n      0xffffffffffffffffffffffffffffffffffffffff\n      and\n      mul\n      or\n      swap1\n      sstore\n      pop\n      swap1\n      pop\n      pop\n        /* \"contracts/User/UserRoleRequest.sol\":5314:5340  addRoleToUser(roleRequest) */\n      tag_166\n        /* \"contracts/User/UserRoleRequest.sol\":5328:5339  roleRequest */\n      dup2\n        /* \"contracts/User/UserRoleRequest.sol\":5314:5327  addRoleToUser */\n      tag_167\n        /* \"contracts/User/UserRoleRequest.sol\":5314:5340  addRoleToUser(roleRequest) */\n      jump\t// in\n    tag_166:\n        /* \"contracts/User/UserRoleRequest.sol\":5095:5351  if(approve){... */\n    tag_153:\n        /* \"contracts/User/UserRoleRequest.sol\":5365:5372  approve */\n      dup4\n        /* \"contracts/User/UserRoleRequest.sol\":5361:5523  if(!approve) {... */\n      tag_168\n      jumpi\n        /* \"contracts/User/UserRoleRequest.sol\":5416:5444  Types.RequestStatus.Rejected */\n      0x02\n        /* \"contracts/User/UserRoleRequest.sol\":5388:5399  roleRequest */\n      dup2\n        /* \"contracts/User/UserRoleRequest.sol\":5388:5413  roleRequest.requestStatus */\n      0x60\n      add\n        /* \"contracts/User/UserRoleRequest.sol\":5388:5444  roleRequest.requestStatus = Types.RequestStatus.Rejected */\n      swap1\n      0x02\n      dup2\n      gt\n      iszero\n      tag_169\n      jumpi\n      tag_170\n      tag_99\n      jump\t// in\n    tag_170:\n    tag_169:\n      swap1\n      dup2\n      0x02\n      dup2\n      gt\n      iszero\n      tag_171\n      jumpi\n      tag_172\n      tag_99\n      jump\t// in\n    tag_172:\n    tag_171:\n      dup2\n      mstore\n      pop\n      pop\n        /* \"contracts/User/UserRoleRequest.sol\":5501:5512  roleRequest */\n      dup1\n        /* \"contracts/User/UserRoleRequest.sol\":5458:5470  roleRequests */\n      0x01\n        /* \"contracts/User/UserRoleRequest.sol\":5471:5491  roleRequestWithIndex */\n      dup4\n        /* \"contracts/User/UserRoleRequest.sol\":5471:5497  roleRequestWithIndex.index */\n      0x20\n      add\n      mload\n        /* \"contracts/User/UserRoleRequest.sol\":5458:5498  roleRequests[roleRequestWithIndex.index] */\n      dup2\n      sload\n      dup2\n      lt\n      tag_173\n      jumpi\n      tag_174\n      tag_75\n      jump\t// in\n    tag_174:\n    tag_173:\n      swap1\n      0x00\n      mstore\n      keccak256(0x00, 0x20)\n      swap1\n      0x03\n      mul\n      add\n        /* \"contracts/User/UserRoleRequest.sol\":5458:5512  roleRequests[roleRequestWithIndex.index] = roleRequest */\n      0x00\n      dup3\n      add\n      mload\n      dup2\n      0x00\n      add\n      swap1\n      dup2\n      tag_176\n      swap2\n      swap1\n      tag_103\n      jump\t// in\n    tag_176:\n      pop\n      0x20\n      dup3\n      add\n      mload\n      dup2\n      0x01\n      add\n      exp(0x0100, 0x00)\n      dup2\n      sload\n      dup2\n      0xffffffffffffffffffffffffffffffffffffffff\n      mul\n      not\n      and\n      swap1\n      dup4\n      0xffffffffffffffffffffffffffffffffffffffff\n      and\n      mul\n      or\n      swap1\n      sstore\n      pop\n      0x40\n      dup3\n      add\n      mload\n      dup2\n      0x01\n      add\n      exp(0x0100, 0x14)\n      dup2\n      sload\n      dup2\n      0xff\n      mul\n      not\n      and\n      swap1\n      dup4\n      0x04\n      dup2\n      gt\n      iszero\n      tag_177\n      jumpi\n      tag_178\n      tag_99\n      jump\t// in\n    tag_178:\n    tag_177:\n      mul\n      or\n      swap1\n      sstore\n      pop\n      0x60\n      dup3\n      add\n      mload\n      dup2\n      0x01\n      add\n      exp(0x0100, 0x15)\n      dup2\n      sload\n      dup2\n      0xff\n      mul\n      not\n      and\n      swap1\n      dup4\n      0x02\n      dup2\n      gt\n      iszero\n      tag_179\n      jumpi\n      tag_180\n      tag_99\n      jump\t// in\n    tag_180:\n    tag_179:\n      mul\n      or\n      swap1\n      sstore\n      pop\n      0x80\n      dup3\n      add\n      mload\n      dup2\n      0x02\n      add\n      exp(0x0100, 0x00)\n      dup2\n      sload\n      dup2\n      0xffffffffffffffffffffffffffffffffffffffff\n      mul\n      not\n      and\n      swap1\n      dup4\n      0xffffffffffffffffffffffffffffffffffffffff\n      and\n      mul\n      or\n      swap1\n      sstore\n      pop\n      swap1\n      pop\n      pop\n        /* \"contracts/User/UserRoleRequest.sol\":5361:5523  if(!approve) {... */\n    tag_168:\n        /* \"contracts/User/UserRoleRequest.sol\":4451:5531  {... */\n      pop\n      pop\n      pop\n        /* \"contracts/User/UserRoleRequest.sol\":4364:5531  function approveOrRejectRoleRequest(string memory _roleRequestId, bool approve) public {... */\n      pop\n      pop\n      jump\t// out\n        /* \"contracts/User/UserRoleRequest.sol\":2841:3445  function createRoleRequest(Types.Role _requestedRole) public checkUserExists checkRoleRequest(_requestedRole) {... */\n    tag_49:\n        /* \"contracts/User/UserRoleRequest.sol\":1353:1354  0 */\n      0x00\n        /* \"contracts/User/UserRoleRequest.sol\":1312:1355  users[msg.sender].userAddress == address(0) */\n      0xffffffffffffffffffffffffffffffffffffffff\n      and\n        /* \"contracts/User/UserRoleRequest.sol\":1312:1317  users */\n      0x02\n        /* \"contracts/User/UserRoleRequest.sol\":1312:1329  users[msg.sender] */\n      0x00\n        /* \"contracts/User/UserRoleRequest.sol\":1318:1328  msg.sender */\n      caller\n        /* \"contracts/User/UserRoleRequest.sol\":1312:1329  users[msg.sender] */\n      0xffffffffffffffffffffffffffffffffffffffff\n      and\n      0xffffffffffffffffffffffffffffffffffffffff\n      and\n      dup2\n      mstore\n      0x20\n      add\n      swap1\n      dup2\n      mstore\n      0x20\n      add\n      0x00\n      keccak256\n        /* \"contracts/User/UserRoleRequest.sol\":1312:1341  users[msg.sender].userAddress */\n      0x01\n      add\n      0x00\n      swap1\n      sload\n      swap1\n      0x0100\n      exp\n      swap1\n      div\n      0xffffffffffffffffffffffffffffffffffffffff\n      and\n        /* \"contracts/User/UserRoleRequest.sol\":1312:1355  users[msg.sender].userAddress == address(0) */\n      0xffffffffffffffffffffffffffffffffffffffff\n      and\n      sub\n        /* \"contracts/User/UserRoleRequest.sol\":1309:1519  if(users[msg.sender].userAddress == address(0)){... */\n      tag_182\n      jumpi\n        /* \"contracts/User/UserRoleRequest.sol\":1433:1443  msg.sender */\n      caller\n        /* \"contracts/User/UserRoleRequest.sol\":1377:1508  Errors.UserNotRegistered({... */\n      mload(0x40)\n      0x0c3ebdcc00000000000000000000000000000000000000000000000000000000\n      dup2\n      mstore\n      0x04\n      add\n      tag_183\n      swap2\n      swap1\n      tag_184\n      jump\t// in\n    tag_183:\n      mload(0x40)\n      dup1\n      swap2\n      sub\n      swap1\n      revert\n        /* \"contracts/User/UserRoleRequest.sol\":1309:1519  if(users[msg.sender].userAddress == address(0)){... */\n    tag_182:\n        /* \"contracts/User/UserRoleRequest.sol\":2935:2949  _requestedRole */\n      dup1\n        /* \"contracts/User/UserRoleRequest.sol\":2119:2134  Types.Role.None */\n      0x00\n        /* \"contracts/User/UserRoleRequest.sol\":2101:2134  _requestedRole == Types.Role.None */\n      0x04\n      dup2\n      gt\n      iszero\n      tag_186\n      jumpi\n      tag_187\n      tag_99\n      jump\t// in\n    tag_187:\n    tag_186:\n        /* \"contracts/User/UserRoleRequest.sol\":2101:2115  _requestedRole */\n      dup2\n        /* \"contracts/User/UserRoleRequest.sol\":2101:2134  _requestedRole == Types.Role.None */\n      0x04\n      dup2\n      gt\n      iszero\n      tag_188\n      jumpi\n      tag_189\n      tag_99\n      jump\t// in\n    tag_189:\n    tag_188:\n      sub\n        /* \"contracts/User/UserRoleRequest.sol\":2098:2295  if(_requestedRole == Types.Role.None){... */\n      tag_190\n      jumpi\n        /* \"contracts/User/UserRoleRequest.sol\":2207:2217  msg.sender */\n      caller\n        /* \"contracts/User/UserRoleRequest.sol\":2156:2284  Errors.InvalidInput({... */\n      mload(0x40)\n      0x5012f88600000000000000000000000000000000000000000000000000000000\n      dup2\n      mstore\n      0x04\n      add\n      tag_191\n      swap2\n      swap1\n      tag_192\n      jump\t// in\n    tag_191:\n      mload(0x40)\n      dup1\n      swap2\n      sub\n      swap1\n      revert\n        /* \"contracts/User/UserRoleRequest.sol\":2098:2295  if(_requestedRole == Types.Role.None){... */\n    tag_190:\n        /* \"contracts/User/UserRoleRequest.sol\":2961:2985  string memory _requestId */\n      0x00\n        /* \"contracts/User/UserRoleRequest.sol\":2988:3011  generateRandomString(4) */\n      tag_194\n        /* \"contracts/User/UserRoleRequest.sol\":3009:3010  4 */\n      0x04\n        /* \"contracts/User/UserRoleRequest.sol\":2988:3008  generateRandomString */\n      tag_23\n        /* \"contracts/User/UserRoleRequest.sol\":2988:3011  generateRandomString(4) */\n      jump\t// in\n    tag_194:\n        /* \"contracts/User/UserRoleRequest.sol\":2961:3011  string memory _requestId = generateRandomString(4) */\n      swap1\n      pop\n        /* \"contracts/User/UserRoleRequest.sol\":3022:3061  Types.RoleRequest memory newRoleRequest */\n      0x00\n        /* \"contracts/User/UserRoleRequest.sol\":3064:3310  Types.RoleRequest({... */\n      mload(0x40)\n      dup1\n      0xa0\n      add\n      0x40\n      mstore\n      dup1\n        /* \"contracts/User/UserRoleRequest.sol\":3107:3117  _requestId */\n      dup4\n        /* \"contracts/User/UserRoleRequest.sol\":3064:3310  Types.RoleRequest({... */\n      dup2\n      mstore\n      0x20\n      add\n        /* \"contracts/User/UserRoleRequest.sol\":3149:3159  msg.sender */\n      caller\n        /* \"contracts/User/UserRoleRequest.sol\":3064:3310  Types.RoleRequest({... */\n      0xffffffffffffffffffffffffffffffffffffffff\n      and\n      dup2\n      mstore\n      0x20\n      add\n        /* \"contracts/User/UserRoleRequest.sol\":3188:3202  _requestedRole */\n      dup6\n        /* \"contracts/User/UserRoleRequest.sol\":3064:3310  Types.RoleRequest({... */\n      0x04\n      dup2\n      gt\n      iszero\n      tag_195\n      jumpi\n      tag_196\n      tag_99\n      jump\t// in\n    tag_196:\n    tag_195:\n      dup2\n      mstore\n      0x20\n      add\n        /* \"contracts/User/UserRoleRequest.sol\":3231:3258  Types.RequestStatus.Pending */\n      0x00\n        /* \"contracts/User/UserRoleRequest.sol\":3064:3310  Types.RoleRequest({... */\n      0x02\n      dup2\n      gt\n      iszero\n      tag_197\n      jumpi\n      tag_198\n      tag_99\n      jump\t// in\n    tag_198:\n    tag_197:\n      dup2\n      mstore\n      0x20\n      add\n        /* \"contracts/User/UserRoleRequest.sol\":3297:3298  0 */\n      0x00\n        /* \"contracts/User/UserRoleRequest.sol\":3064:3310  Types.RoleRequest({... */\n      0xffffffffffffffffffffffffffffffffffffffff\n      and\n      dup2\n      mstore\n      pop\n        /* \"contracts/User/UserRoleRequest.sol\":3022:3310  Types.RoleRequest memory newRoleRequest = Types.RoleRequest({... */\n      swap1\n      pop\n        /* \"contracts/User/UserRoleRequest.sol\":3321:3333  roleRequests */\n      0x01\n        /* \"contracts/User/UserRoleRequest.sol\":3339:3353  newRoleRequest */\n      dup2\n        /* \"contracts/User/UserRoleRequest.sol\":3321:3354  roleRequests.push(newRoleRequest) */\n      swap1\n      dup1\n      0x01\n      dup2\n      sload\n      add\n      dup1\n      dup3\n      sstore\n      dup1\n      swap2\n      pop\n      pop\n      0x01\n      swap1\n      sub\n      swap1\n      0x00\n      mstore\n      keccak256(0x00, 0x20)\n      swap1\n      0x03\n      mul\n      add\n      0x00\n      swap1\n      swap2\n      swap1\n      swap2\n      swap1\n      swap2\n      pop\n      0x00\n      dup3\n      add\n      mload\n      dup2\n      0x00\n      add\n      swap1\n      dup2\n      tag_200\n      swap2\n      swap1\n      tag_103\n      jump\t// in\n    tag_200:\n      pop\n      0x20\n      dup3\n      add\n      mload\n      dup2\n      0x01\n      add\n      exp(0x0100, 0x00)\n      dup2\n      sload\n      dup2\n      0xffffffffffffffffffffffffffffffffffffffff\n      mul\n      not\n      and\n      swap1\n      dup4\n      0xffffffffffffffffffffffffffffffffffffffff\n      and\n      mul\n      or\n      swap1\n      sstore\n      pop\n      0x40\n      dup3\n      add\n      mload\n      dup2\n      0x01\n      add\n      exp(0x0100, 0x14)\n      dup2\n      sload\n      dup2\n      0xff\n      mul\n      not\n      and\n      swap1\n      dup4\n      0x04\n      dup2\n      gt\n      iszero\n      tag_201\n      jumpi\n      tag_202\n      tag_99\n      jump\t// in\n    tag_202:\n    tag_201:\n      mul\n      or\n      swap1\n      sstore\n      pop\n      0x60\n      dup3\n      add\n      mload\n      dup2\n      0x01\n      add\n      exp(0x0100, 0x15)\n      dup2\n      sload\n      dup2\n      0xff\n      mul\n      not\n      and\n      swap1\n      dup4\n      0x02\n      dup2\n      gt\n      iszero\n      tag_203\n      jumpi\n      tag_204\n      tag_99\n      jump\t// in\n    tag_204:\n    tag_203:\n      mul\n      or\n      swap1\n      sstore\n      pop\n      0x80\n      dup3\n      add\n      mload\n      dup2\n      0x02\n      add\n      exp(0x0100, 0x00)\n      dup2\n      sload\n      dup2\n      0xffffffffffffffffffffffffffffffffffffffff\n      mul\n      not\n      and\n      swap1\n      dup4\n      0xffffffffffffffffffffffffffffffffffffffff\n      and\n      mul\n      or\n      swap1\n      sstore\n      pop\n      pop\n      pop\n        /* \"contracts/User/UserRoleRequest.sol\":3370:3438  Events.NewRoleRequestCreated(_requestId, msg.sender, _requestedRole) */\n      0xee5da8b7295e0a9fc7e3423a3b6db4c18dbcb289917e609001558e093e311507\n        /* \"contracts/User/UserRoleRequest.sol\":3399:3409  _requestId */\n      dup3\n        /* \"contracts/User/UserRoleRequest.sol\":3411:3421  msg.sender */\n      caller\n        /* \"contracts/User/UserRoleRequest.sol\":3423:3437  _requestedRole */\n      dup7\n        /* \"contracts/User/UserRoleRequest.sol\":3370:3438  Events.NewRoleRequestCreated(_requestId, msg.sender, _requestedRole) */\n      mload(0x40)\n      tag_205\n      swap4\n      swap3\n      swap2\n      swap1\n      tag_206\n      jump\t// in\n    tag_205:\n      mload(0x40)\n      dup1\n      swap2\n      sub\n      swap1\n      log1\n        /* \"contracts/User/UserRoleRequest.sol\":2951:3445  {... */\n      pop\n      pop\n        /* \"contracts/User/UserRoleRequest.sol\":1528:1529  _ */\n      pop\n        /* \"contracts/User/UserRoleRequest.sol\":2841:3445  function createRoleRequest(Types.Role _requestedRole) public checkUserExists checkRoleRequest(_requestedRole) {... */\n      pop\n      jump\t// out\n        /* \"@openzeppelin/contracts/access/Ownable.sol\":2543:2758  function transferOwnership(address newOwner) public virtual onlyOwner {... */\n    tag_52:\n        /* \"@openzeppelin/contracts/access/Ownable.sol\":1531:1544  _checkOwner() */\n      tag_208\n        /* \"@openzeppelin/contracts/access/Ownable.sol\":1531:1542  _checkOwner */\n      tag_80\n        /* \"@openzeppelin/contracts/access/Ownable.sol\":1531:1544  _checkOwner() */\n      jump\t// in\n    tag_208:\n        /* \"@openzeppelin/contracts/access/Ownable.sol\":2647:2648  0 */\n      0x00\n        /* \"@openzeppelin/contracts/access/Ownable.sol\":2627:2649  newOwner == address(0) */\n      0xffffffffffffffffffffffffffffffffffffffff\n      and\n        /* \"@openzeppelin/contracts/access/Ownable.sol\":2627:2635  newOwner */\n      dup2\n        /* \"@openzeppelin/contracts/access/Ownable.sol\":2627:2649  newOwner == address(0) */\n      0xffffffffffffffffffffffffffffffffffffffff\n      and\n      sub\n        /* \"@openzeppelin/contracts/access/Ownable.sol\":2623:2714  if (newOwner == address(0)) {... */\n      tag_210\n      jumpi\n        /* \"@openzeppelin/contracts/access/Ownable.sol\":2700:2701  0 */\n      0x00\n        /* \"@openzeppelin/contracts/access/Ownable.sol\":2672:2703  OwnableInvalidOwner(address(0)) */\n      mload(0x40)\n      0x1e4fbdf700000000000000000000000000000000000000000000000000000000\n      dup2\n      mstore\n      0x04\n      add\n      tag_211\n      swap2\n      swap1\n      tag_35\n      jump\t// in\n    tag_211:\n      mload(0x40)\n      dup1\n      swap2\n      sub\n      swap1\n      revert\n        /* \"@openzeppelin/contracts/access/Ownable.sol\":2623:2714  if (newOwner == address(0)) {... */\n    tag_210:\n        /* \"@openzeppelin/contracts/access/Ownable.sol\":2723:2751  _transferOwnership(newOwner) */\n      tag_212\n        /* \"@openzeppelin/contracts/access/Ownable.sol\":2742:2750  newOwner */\n      dup2\n        /* \"@openzeppelin/contracts/access/Ownable.sol\":2723:2741  _transferOwnership */\n      tag_83\n        /* \"@openzeppelin/contracts/access/Ownable.sol\":2723:2751  _transferOwnership(newOwner) */\n      jump\t// in\n    tag_212:\n        /* \"@openzeppelin/contracts/access/Ownable.sol\":2543:2758  function transferOwnership(address newOwner) public virtual onlyOwner {... */\n      pop\n      jump\t// out\n        /* \"contracts/User/UserRoleRequest.sol\":3451:3561  function getRoleRequests() public view returns(Types.RoleRequest[] memory){... */\n    tag_54:\n        /* \"contracts/User/UserRoleRequest.sol\":3498:3524  Types.RoleRequest[] memory */\n      0x60\n        /* \"contracts/User/UserRoleRequest.sol\":3542:3554  roleRequests */\n      0x01\n        /* \"contracts/User/UserRoleRequest.sol\":3535:3554  return roleRequests */\n      dup1\n      sload\n      dup1\n      0x20\n      mul\n      0x20\n      add\n      mload(0x40)\n      swap1\n      dup2\n      add\n      0x40\n      mstore\n      dup1\n      swap3\n      swap2\n      swap1\n      dup2\n      dup2\n      mstore\n      0x20\n      add\n      0x00\n      swap1\n    tag_214:\n      dup3\n      dup3\n      lt\n      iszero\n      tag_215\n      jumpi\n      dup4\n      dup3\n      swap1\n      0x00\n      mstore\n      keccak256(0x00, 0x20)\n      swap1\n      0x03\n      mul\n      add\n      mload(0x40)\n      dup1\n      0xa0\n      add\n      0x40\n      mstore\n      swap1\n      dup2\n      0x00\n      dup3\n      add\n      dup1\n      sload\n      tag_217\n      swap1\n      tag_59\n      jump\t// in\n    tag_217:\n      dup1\n      0x1f\n      add\n      0x20\n      dup1\n      swap2\n      div\n      mul\n      0x20\n      add\n      mload(0x40)\n      swap1\n      dup2\n      add\n      0x40\n      mstore\n      dup1\n      swap3\n      swap2\n      swap1\n      dup2\n      dup2\n      mstore\n      0x20\n      add\n      dup3\n      dup1\n      sload\n      tag_218\n      swap1\n      tag_59\n      jump\t// in\n    tag_218:\n      dup1\n      iszero\n      tag_219\n      jumpi\n      dup1\n      0x1f\n      lt\n      tag_220\n      jumpi\n      0x0100\n      dup1\n      dup4\n      sload\n      div\n      mul\n      dup4\n      mstore\n      swap2\n      0x20\n      add\n      swap2\n      jump(tag_219)\n    tag_220:\n      dup3\n      add\n      swap2\n      swap1\n      0x00\n      mstore\n      keccak256(0x00, 0x20)\n      swap1\n    tag_221:\n      dup2\n      sload\n      dup2\n      mstore\n      swap1\n      0x01\n      add\n      swap1\n      0x20\n      add\n      dup1\n      dup4\n      gt\n      tag_221\n      jumpi\n      dup3\n      swap1\n      sub\n      0x1f\n      and\n      dup3\n      add\n      swap2\n    tag_219:\n      pop\n      pop\n      pop\n      pop\n      pop\n      dup2\n      mstore\n      0x20\n      add\n      0x01\n      dup3\n      add\n      0x00\n      swap1\n      sload\n      swap1\n      0x0100\n      exp\n      swap1\n      div\n      0xffffffffffffffffffffffffffffffffffffffff\n      and\n      0xffffffffffffffffffffffffffffffffffffffff\n      and\n      0xffffffffffffffffffffffffffffffffffffffff\n      and\n      dup2\n      mstore\n      0x20\n      add\n      0x01\n      dup3\n      add\n      0x14\n      swap1\n      sload\n      swap1\n      0x0100\n      exp\n      swap1\n      div\n      0xff\n      and\n      0x04\n      dup2\n      gt\n      iszero\n      tag_222\n      jumpi\n      tag_223\n      tag_99\n      jump\t// in\n    tag_223:\n    tag_222:\n      0x04\n      dup2\n      gt\n      iszero\n      tag_224\n      jumpi\n      tag_225\n      tag_99\n      jump\t// in\n    tag_225:\n    tag_224:\n      dup2\n      mstore\n      0x20\n      add\n      0x01\n      dup3\n      add\n      0x15\n      swap1\n      sload\n      swap1\n      0x0100\n      exp\n      swap1\n      div\n      0xff\n      and\n      0x02\n      dup2\n      gt\n      iszero\n      tag_226\n      jumpi\n      tag_227\n      tag_99\n      jump\t// in\n    tag_227:\n    tag_226:\n      0x02\n      dup2\n      gt\n      iszero\n      tag_228\n      jumpi\n      tag_229\n      tag_99\n      jump\t// in\n    tag_229:\n    tag_228:\n      dup2\n      mstore\n      0x20\n      add\n      0x02\n      dup3\n      add\n      0x00\n      swap1\n      sload\n      swap1\n      0x0100\n      exp\n      swap1\n      div\n      0xffffffffffffffffffffffffffffffffffffffff\n      and\n      0xffffffffffffffffffffffffffffffffffffffff\n      and\n      0xffffffffffffffffffffffffffffffffffffffff\n      and\n      dup2\n      mstore\n      pop\n      pop\n      dup2\n      mstore\n      0x20\n      add\n      swap1\n      0x01\n      add\n      swap1\n      jump(tag_214)\n    tag_215:\n      pop\n      pop\n      pop\n      pop\n      swap1\n      pop\n        /* \"contracts/User/UserRoleRequest.sol\":3451:3561  function getRoleRequests() public view returns(Types.RoleRequest[] memory){... */\n      swap1\n      jump\t// out\n        /* \"@openzeppelin/contracts/access/Ownable.sol\":1796:1958  function _checkOwner() internal view virtual {... */\n    tag_80:\n        /* \"@openzeppelin/contracts/access/Ownable.sol\":1866:1878  _msgSender() */\n      tag_231\n        /* \"@openzeppelin/contracts/access/Ownable.sol\":1866:1876  _msgSender */\n      tag_232\n        /* \"@openzeppelin/contracts/access/Ownable.sol\":1866:1878  _msgSender() */\n      jump\t// in\n    tag_231:\n        /* \"@openzeppelin/contracts/access/Ownable.sol\":1855:1878  owner() != _msgSender() */\n      0xffffffffffffffffffffffffffffffffffffffff\n      and\n        /* \"@openzeppelin/contracts/access/Ownable.sol\":1855:1862  owner() */\n      tag_233\n        /* \"@openzeppelin/contracts/access/Ownable.sol\":1855:1860  owner */\n      tag_33\n        /* \"@openzeppelin/contracts/access/Ownable.sol\":1855:1862  owner() */\n      jump\t// in\n    tag_233:\n        /* \"@openzeppelin/contracts/access/Ownable.sol\":1855:1878  owner() != _msgSender() */\n      0xffffffffffffffffffffffffffffffffffffffff\n      and\n      eq\n        /* \"@openzeppelin/contracts/access/Ownable.sol\":1851:1952  if (owner() != _msgSender()) {... */\n      tag_234\n      jumpi\n        /* \"@openzeppelin/contracts/access/Ownable.sol\":1928:1940  _msgSender() */\n      tag_235\n        /* \"@openzeppelin/contracts/access/Ownable.sol\":1928:1938  _msgSender */\n      tag_232\n        /* \"@openzeppelin/contracts/access/Ownable.sol\":1928:1940  _msgSender() */\n      jump\t// in\n    tag_235:\n        /* \"@openzeppelin/contracts/access/Ownable.sol\":1901:1941  OwnableUnauthorizedAccount(_msgSender()) */\n      mload(0x40)\n      0x118cdaa700000000000000000000000000000000000000000000000000000000\n      dup2\n      mstore\n      0x04\n      add\n      tag_236\n      swap2\n      swap1\n      tag_35\n      jump\t// in\n    tag_236:\n      mload(0x40)\n      dup1\n      swap2\n      sub\n      swap1\n      revert\n        /* \"@openzeppelin/contracts/access/Ownable.sol\":1851:1952  if (owner() != _msgSender()) {... */\n    tag_234:\n        /* \"@openzeppelin/contracts/access/Ownable.sol\":1796:1958  function _checkOwner() internal view virtual {... */\n      jump\t// out\n        /* \"@openzeppelin/contracts/access/Ownable.sol\":2912:3099  function _transferOwnership(address newOwner) internal virtual {... */\n    tag_83:\n        /* \"@openzeppelin/contracts/access/Ownable.sol\":2985:3001  address oldOwner */\n      0x00\n        /* \"@openzeppelin/contracts/access/Ownable.sol\":3004:3010  _owner */\n      dup1\n      0x00\n      swap1\n      sload\n      swap1\n      0x0100\n      exp\n      swap1\n      div\n      0xffffffffffffffffffffffffffffffffffffffff\n      and\n        /* \"@openzeppelin/contracts/access/Ownable.sol\":2985:3010  address oldOwner = _owner */\n      swap1\n      pop\n        /* \"@openzeppelin/contracts/access/Ownable.sol\":3029:3037  newOwner */\n      dup2\n        /* \"@openzeppelin/contracts/access/Ownable.sol\":3020:3026  _owner */\n      0x00\n      dup1\n        /* \"@openzeppelin/contracts/access/Ownable.sol\":3020:3037  _owner = newOwner */\n      0x0100\n      exp\n      dup2\n      sload\n      dup2\n      0xffffffffffffffffffffffffffffffffffffffff\n      mul\n      not\n      and\n      swap1\n      dup4\n      0xffffffffffffffffffffffffffffffffffffffff\n      and\n      mul\n      or\n      swap1\n      sstore\n      pop\n        /* \"@openzeppelin/contracts/access/Ownable.sol\":3083:3091  newOwner */\n      dup2\n        /* \"@openzeppelin/contracts/access/Ownable.sol\":3052:3092  OwnershipTransferred(oldOwner, newOwner) */\n      0xffffffffffffffffffffffffffffffffffffffff\n      and\n        /* \"@openzeppelin/contracts/access/Ownable.sol\":3073:3081  oldOwner */\n      dup2\n        /* \"@openzeppelin/contracts/access/Ownable.sol\":3052:3092  OwnershipTransferred(oldOwner, newOwner) */\n      0xffffffffffffffffffffffffffffffffffffffff\n      and\n      0x8be0079c531659141344cd1fd0a4f28419497f9722a3daafe3b4186f6b6457e0\n      mload(0x40)\n      mload(0x40)\n      dup1\n      swap2\n      sub\n      swap1\n      log3\n        /* \"@openzeppelin/contracts/access/Ownable.sol\":2975:3099  {... */\n      pop\n        /* \"@openzeppelin/contracts/access/Ownable.sol\":2912:3099  function _transferOwnership(address newOwner) internal virtual {... */\n      pop\n      jump\t// out\n        /* \"contracts/User/UserRoleRequest.sol\":6715:8143  function isApproverHavingPermission(Types.Role[] memory approverRoles,Types.Role requestedRole) internal pure returns (bool) {... */\n    tag_147:\n        /* \"contracts/User/UserRoleRequest.sol\":6834:6838  bool */\n      0x00\n        /* \"contracts/User/UserRoleRequest.sol\":6870:6886  Types.Role.Admin */\n      0x01\n        /* \"contracts/User/UserRoleRequest.sol\":6853:6886  requestedRole == Types.Role.Admin */\n      0x04\n      dup2\n      gt\n      iszero\n      tag_239\n      jumpi\n      tag_240\n      tag_99\n      jump\t// in\n    tag_240:\n    tag_239:\n        /* \"contracts/User/UserRoleRequest.sol\":6853:6866  requestedRole */\n      dup3\n        /* \"contracts/User/UserRoleRequest.sol\":6853:6886  requestedRole == Types.Role.Admin */\n      0x04\n      dup2\n      gt\n      iszero\n      tag_241\n      jumpi\n      tag_242\n      tag_99\n      jump\t// in\n    tag_242:\n    tag_241:\n      sub\n        /* \"contracts/User/UserRoleRequest.sol\":6850:7105  if(requestedRole == Types.Role.Admin) {... */\n      tag_243\n      jumpi\n        /* \"contracts/User/UserRoleRequest.sol\":6906:6912  uint i */\n      0x00\n        /* \"contracts/User/UserRoleRequest.sol\":6902:7069  for(uint i=0; i<approverRoles.length; i++){... */\n    tag_244:\n        /* \"contracts/User/UserRoleRequest.sol\":6918:6931  approverRoles */\n      dup4\n        /* \"contracts/User/UserRoleRequest.sol\":6918:6938  approverRoles.length */\n      mload\n        /* \"contracts/User/UserRoleRequest.sol\":6916:6917  i */\n      dup2\n        /* \"contracts/User/UserRoleRequest.sol\":6916:6938  i<approverRoles.length */\n      lt\n        /* \"contracts/User/UserRoleRequest.sol\":6902:7069  for(uint i=0; i<approverRoles.length; i++){... */\n      iszero\n      tag_245\n      jumpi\n        /* \"contracts/User/UserRoleRequest.sol\":6985:7001  Types.Role.Admin */\n      0x01\n        /* \"contracts/User/UserRoleRequest.sol\":6965:7001  approverRoles[i] == Types.Role.Admin */\n      0x04\n      dup2\n      gt\n      iszero\n      tag_247\n      jumpi\n      tag_248\n      tag_99\n      jump\t// in\n    tag_248:\n    tag_247:\n        /* \"contracts/User/UserRoleRequest.sol\":6965:6978  approverRoles */\n      dup5\n        /* \"contracts/User/UserRoleRequest.sol\":6979:6980  i */\n      dup3\n        /* \"contracts/User/UserRoleRequest.sol\":6965:6981  approverRoles[i] */\n      dup2\n      mload\n      dup2\n      lt\n      tag_249\n      jumpi\n      tag_250\n      tag_75\n      jump\t// in\n    tag_250:\n    tag_249:\n      0x20\n      mul\n      0x20\n      add\n      add\n      mload\n        /* \"contracts/User/UserRoleRequest.sol\":6965:7001  approverRoles[i] == Types.Role.Admin */\n      0x04\n      dup2\n      gt\n      iszero\n      tag_251\n      jumpi\n      tag_252\n      tag_99\n      jump\t// in\n    tag_252:\n    tag_251:\n      sub\n        /* \"contracts/User/UserRoleRequest.sol\":6962:7055  if(approverRoles[i] == Types.Role.Admin) {... */\n      tag_253\n      jumpi\n        /* \"contracts/User/UserRoleRequest.sol\":7032:7036  true */\n      0x01\n        /* \"contracts/User/UserRoleRequest.sol\":7025:7036  return true */\n      swap2\n      pop\n      pop\n      jump(tag_238)\n        /* \"contracts/User/UserRoleRequest.sol\":6962:7055  if(approverRoles[i] == Types.Role.Admin) {... */\n    tag_253:\n        /* \"contracts/User/UserRoleRequest.sol\":6940:6943  i++ */\n      dup1\n      dup1\n      0x01\n      add\n      swap2\n      pop\n      pop\n        /* \"contracts/User/UserRoleRequest.sol\":6902:7069  for(uint i=0; i<approverRoles.length; i++){... */\n      jump(tag_244)\n    tag_245:\n      pop\n        /* \"contracts/User/UserRoleRequest.sol\":7089:7094  false */\n      0x00\n        /* \"contracts/User/UserRoleRequest.sol\":7082:7094  return false */\n      swap1\n      pop\n      jump(tag_238)\n        /* \"contracts/User/UserRoleRequest.sol\":6850:7105  if(requestedRole == Types.Role.Admin) {... */\n    tag_243:\n        /* \"contracts/User/UserRoleRequest.sol\":7135:7153  Types.Role.Shipper */\n      0x02\n        /* \"contracts/User/UserRoleRequest.sol\":7118:7153  requestedRole == Types.Role.Shipper */\n      0x04\n      dup2\n      gt\n      iszero\n      tag_254\n      jumpi\n      tag_255\n      tag_99\n      jump\t// in\n    tag_255:\n    tag_254:\n        /* \"contracts/User/UserRoleRequest.sol\":7118:7131  requestedRole */\n      dup3\n        /* \"contracts/User/UserRoleRequest.sol\":7118:7153  requestedRole == Types.Role.Shipper */\n      0x04\n      dup2\n      gt\n      iszero\n      tag_256\n      jumpi\n      tag_257\n      tag_99\n      jump\t// in\n    tag_257:\n    tag_256:\n      sub\n        /* \"contracts/User/UserRoleRequest.sol\":7115:7439  if(requestedRole == Types.Role.Shipper) {... */\n      tag_258\n      jumpi\n        /* \"contracts/User/UserRoleRequest.sol\":7173:7179  uint i */\n      0x00\n        /* \"contracts/User/UserRoleRequest.sol\":7169:7403  for(uint i=0; i<approverRoles.length; i++){... */\n    tag_259:\n        /* \"contracts/User/UserRoleRequest.sol\":7185:7198  approverRoles */\n      dup4\n        /* \"contracts/User/UserRoleRequest.sol\":7185:7205  approverRoles.length */\n      mload\n        /* \"contracts/User/UserRoleRequest.sol\":7183:7184  i */\n      dup2\n        /* \"contracts/User/UserRoleRequest.sol\":7183:7205  i<approverRoles.length */\n      lt\n        /* \"contracts/User/UserRoleRequest.sol\":7169:7403  for(uint i=0; i<approverRoles.length; i++){... */\n      iszero\n      tag_260\n      jumpi\n        /* \"contracts/User/UserRoleRequest.sol\":7252:7268  Types.Role.Admin */\n      0x01\n        /* \"contracts/User/UserRoleRequest.sol\":7232:7268  approverRoles[i] == Types.Role.Admin */\n      0x04\n      dup2\n      gt\n      iszero\n      tag_262\n      jumpi\n      tag_263\n      tag_99\n      jump\t// in\n    tag_263:\n    tag_262:\n        /* \"contracts/User/UserRoleRequest.sol\":7232:7245  approverRoles */\n      dup5\n        /* \"contracts/User/UserRoleRequest.sol\":7246:7247  i */\n      dup3\n        /* \"contracts/User/UserRoleRequest.sol\":7232:7248  approverRoles[i] */\n      dup2\n      mload\n      dup2\n      lt\n      tag_264\n      jumpi\n      tag_265\n      tag_75\n      jump\t// in\n    tag_265:\n    tag_264:\n      0x20\n      mul\n      0x20\n      add\n      add\n      mload\n        /* \"contracts/User/UserRoleRequest.sol\":7232:7268  approverRoles[i] == Types.Role.Admin */\n      0x04\n      dup2\n      gt\n      iszero\n      tag_266\n      jumpi\n      tag_267\n      tag_99\n      jump\t// in\n    tag_267:\n    tag_266:\n      eq\n        /* \"contracts/User/UserRoleRequest.sol\":7232:7335  approverRoles[i] == Types.Role.Admin ... */\n      dup1\n      tag_268\n      jumpi\n      pop\n        /* \"contracts/User/UserRoleRequest.sol\":7317:7335  Types.Role.Shipper */\n      0x02\n        /* \"contracts/User/UserRoleRequest.sol\":7297:7335  approverRoles[i] == Types.Role.Shipper */\n      0x04\n      dup2\n      gt\n      iszero\n      tag_269\n      jumpi\n      tag_270\n      tag_99\n      jump\t// in\n    tag_270:\n    tag_269:\n        /* \"contracts/User/UserRoleRequest.sol\":7297:7310  approverRoles */\n      dup5\n        /* \"contracts/User/UserRoleRequest.sol\":7311:7312  i */\n      dup3\n        /* \"contracts/User/UserRoleRequest.sol\":7297:7313  approverRoles[i] */\n      dup2\n      mload\n      dup2\n      lt\n      tag_271\n      jumpi\n      tag_272\n      tag_75\n      jump\t// in\n    tag_272:\n    tag_271:\n      0x20\n      mul\n      0x20\n      add\n      add\n      mload\n        /* \"contracts/User/UserRoleRequest.sol\":7297:7335  approverRoles[i] == Types.Role.Shipper */\n      0x04\n      dup2\n      gt\n      iszero\n      tag_273\n      jumpi\n      tag_274\n      tag_99\n      jump\t// in\n    tag_274:\n    tag_273:\n      eq\n        /* \"contracts/User/UserRoleRequest.sol\":7232:7335  approverRoles[i] == Types.Role.Admin ... */\n    tag_268:\n        /* \"contracts/User/UserRoleRequest.sol\":7229:7389  if(approverRoles[i] == Types.Role.Admin ... */\n      iszero\n      tag_275\n      jumpi\n        /* \"contracts/User/UserRoleRequest.sol\":7366:7370  true */\n      0x01\n        /* \"contracts/User/UserRoleRequest.sol\":7359:7370  return true */\n      swap2\n      pop\n      pop\n      jump(tag_238)\n        /* \"contracts/User/UserRoleRequest.sol\":7229:7389  if(approverRoles[i] == Types.Role.Admin ... */\n    tag_275:\n        /* \"contracts/User/UserRoleRequest.sol\":7207:7210  i++ */\n      dup1\n      dup1\n      0x01\n      add\n      swap2\n      pop\n      pop\n        /* \"contracts/User/UserRoleRequest.sol\":7169:7403  for(uint i=0; i<approverRoles.length; i++){... */\n      jump(tag_259)\n    tag_260:\n      pop\n        /* \"contracts/User/UserRoleRequest.sol\":7423:7428  false */\n      0x00\n        /* \"contracts/User/UserRoleRequest.sol\":7416:7428  return false */\n      swap1\n      pop\n      jump(tag_238)\n        /* \"contracts/User/UserRoleRequest.sol\":7115:7439  if(requestedRole == Types.Role.Shipper) {... */\n    tag_258:\n        /* \"contracts/User/UserRoleRequest.sol\":7469:7486  Types.Role.Driver */\n      0x03\n        /* \"contracts/User/UserRoleRequest.sol\":7452:7486  requestedRole == Types.Role.Driver */\n      0x04\n      dup2\n      gt\n      iszero\n      tag_276\n      jumpi\n      tag_277\n      tag_99\n      jump\t// in\n    tag_277:\n    tag_276:\n        /* \"contracts/User/UserRoleRequest.sol\":7452:7465  requestedRole */\n      dup3\n        /* \"contracts/User/UserRoleRequest.sol\":7452:7486  requestedRole == Types.Role.Driver */\n      0x04\n      dup2\n      gt\n      iszero\n      tag_278\n      jumpi\n      tag_279\n      tag_99\n      jump\t// in\n    tag_279:\n    tag_278:\n      sub\n        /* \"contracts/User/UserRoleRequest.sol\":7449:7838  if(requestedRole == Types.Role.Driver) {... */\n      tag_280\n      jumpi\n        /* \"contracts/User/UserRoleRequest.sol\":7506:7512  uint i */\n      0x00\n        /* \"contracts/User/UserRoleRequest.sol\":7502:7802  for(uint i=0; i<approverRoles.length; i++){... */\n    tag_281:\n        /* \"contracts/User/UserRoleRequest.sol\":7518:7531  approverRoles */\n      dup4\n        /* \"contracts/User/UserRoleRequest.sol\":7518:7538  approverRoles.length */\n      mload\n        /* \"contracts/User/UserRoleRequest.sol\":7516:7517  i */\n      dup2\n        /* \"contracts/User/UserRoleRequest.sol\":7516:7538  i<approverRoles.length */\n      lt\n        /* \"contracts/User/UserRoleRequest.sol\":7502:7802  for(uint i=0; i<approverRoles.length; i++){... */\n      iszero\n      tag_282\n      jumpi\n        /* \"contracts/User/UserRoleRequest.sol\":7585:7601  Types.Role.Admin */\n      0x01\n        /* \"contracts/User/UserRoleRequest.sol\":7565:7601  approverRoles[i] == Types.Role.Admin */\n      0x04\n      dup2\n      gt\n      iszero\n      tag_284\n      jumpi\n      tag_285\n      tag_99\n      jump\t// in\n    tag_285:\n    tag_284:\n        /* \"contracts/User/UserRoleRequest.sol\":7565:7578  approverRoles */\n      dup5\n        /* \"contracts/User/UserRoleRequest.sol\":7579:7580  i */\n      dup3\n        /* \"contracts/User/UserRoleRequest.sol\":7565:7581  approverRoles[i] */\n      dup2\n      mload\n      dup2\n      lt\n      tag_286\n      jumpi\n      tag_287\n      tag_75\n      jump\t// in\n    tag_287:\n    tag_286:\n      0x20\n      mul\n      0x20\n      add\n      add\n      mload\n        /* \"contracts/User/UserRoleRequest.sol\":7565:7601  approverRoles[i] == Types.Role.Admin */\n      0x04\n      dup2\n      gt\n      iszero\n      tag_288\n      jumpi\n      tag_289\n      tag_99\n      jump\t// in\n    tag_289:\n    tag_288:\n      eq\n        /* \"contracts/User/UserRoleRequest.sol\":7565:7668  approverRoles[i] == Types.Role.Admin ... */\n      dup1\n      tag_290\n      jumpi\n      pop\n        /* \"contracts/User/UserRoleRequest.sol\":7650:7668  Types.Role.Shipper */\n      0x02\n        /* \"contracts/User/UserRoleRequest.sol\":7630:7668  approverRoles[i] == Types.Role.Shipper */\n      0x04\n      dup2\n      gt\n      iszero\n      tag_291\n      jumpi\n      tag_292\n      tag_99\n      jump\t// in\n    tag_292:\n    tag_291:\n        /* \"contracts/User/UserRoleRequest.sol\":7630:7643  approverRoles */\n      dup5\n        /* \"contracts/User/UserRoleRequest.sol\":7644:7645  i */\n      dup3\n        /* \"contracts/User/UserRoleRequest.sol\":7630:7646  approverRoles[i] */\n      dup2\n      mload\n      dup2\n      lt\n      tag_293\n      jumpi\n      tag_294\n      tag_75\n      jump\t// in\n    tag_294:\n    tag_293:\n      0x20\n      mul\n      0x20\n      add\n      add\n      mload\n        /* \"contracts/User/UserRoleRequest.sol\":7630:7668  approverRoles[i] == Types.Role.Shipper */\n      0x04\n      dup2\n      gt\n      iszero\n      tag_295\n      jumpi\n      tag_296\n      tag_99\n      jump\t// in\n    tag_296:\n    tag_295:\n      eq\n        /* \"contracts/User/UserRoleRequest.sol\":7565:7668  approverRoles[i] == Types.Role.Admin ... */\n    tag_290:\n        /* \"contracts/User/UserRoleRequest.sol\":7565:7734  approverRoles[i] == Types.Role.Admin ... */\n      dup1\n      tag_297\n      jumpi\n      pop\n        /* \"contracts/User/UserRoleRequest.sol\":7717:7734  Types.Role.Driver */\n      0x03\n        /* \"contracts/User/UserRoleRequest.sol\":7697:7734  approverRoles[i] == Types.Role.Driver */\n      0x04\n      dup2\n      gt\n      iszero\n      tag_298\n      jumpi\n      tag_299\n      tag_99\n      jump\t// in\n    tag_299:\n    tag_298:\n        /* \"contracts/User/UserRoleRequest.sol\":7697:7710  approverRoles */\n      dup5\n        /* \"contracts/User/UserRoleRequest.sol\":7711:7712  i */\n      dup3\n        /* \"contracts/User/UserRoleRequest.sol\":7697:7713  approverRoles[i] */\n      dup2\n      mload\n      dup2\n      lt\n      tag_300\n      jumpi\n      tag_301\n      tag_75\n      jump\t// in\n    tag_301:\n    tag_300:\n      0x20\n      mul\n      0x20\n      add\n      add\n      mload\n        /* \"contracts/User/UserRoleRequest.sol\":7697:7734  approverRoles[i] == Types.Role.Driver */\n      0x04\n      dup2\n      gt\n      iszero\n      tag_302\n      jumpi\n      tag_303\n      tag_99\n      jump\t// in\n    tag_303:\n    tag_302:\n      eq\n        /* \"contracts/User/UserRoleRequest.sol\":7565:7734  approverRoles[i] == Types.Role.Admin ... */\n    tag_297:\n        /* \"contracts/User/UserRoleRequest.sol\":7562:7788  if(approverRoles[i] == Types.Role.Admin ... */\n      iszero\n      tag_304\n      jumpi\n        /* \"contracts/User/UserRoleRequest.sol\":7765:7769  true */\n      0x01\n        /* \"contracts/User/UserRoleRequest.sol\":7758:7769  return true */\n      swap2\n      pop\n      pop\n      jump(tag_238)\n        /* \"contracts/User/UserRoleRequest.sol\":7562:7788  if(approverRoles[i] == Types.Role.Admin ... */\n    tag_304:\n        /* \"contracts/User/UserRoleRequest.sol\":7540:7543  i++ */\n      dup1\n      dup1\n      0x01\n      add\n      swap2\n      pop\n      pop\n        /* \"contracts/User/UserRoleRequest.sol\":7502:7802  for(uint i=0; i<approverRoles.length; i++){... */\n      jump(tag_281)\n    tag_282:\n      pop\n        /* \"contracts/User/UserRoleRequest.sol\":7822:7827  false */\n      0x00\n        /* \"contracts/User/UserRoleRequest.sol\":7815:7827  return false */\n      swap1\n      pop\n      jump(tag_238)\n        /* \"contracts/User/UserRoleRequest.sol\":7449:7838  if(requestedRole == Types.Role.Driver) {... */\n    tag_280:\n        /* \"contracts/User/UserRoleRequest.sol\":7868:7887  Types.Role.Reciever */\n      0x04\n        /* \"contracts/User/UserRoleRequest.sol\":7851:7887  requestedRole == Types.Role.Reciever */\n      dup1\n      dup2\n      gt\n      iszero\n      tag_305\n      jumpi\n      tag_306\n      tag_99\n      jump\t// in\n    tag_306:\n    tag_305:\n        /* \"contracts/User/UserRoleRequest.sol\":7851:7864  requestedRole */\n      dup3\n        /* \"contracts/User/UserRoleRequest.sol\":7851:7887  requestedRole == Types.Role.Reciever */\n      0x04\n      dup2\n      gt\n      iszero\n      tag_307\n      jumpi\n      tag_308\n      tag_99\n      jump\t// in\n    tag_308:\n    tag_307:\n      sub\n        /* \"contracts/User/UserRoleRequest.sol\":7848:8105  if(requestedRole == Types.Role.Reciever) {... */\n      tag_309\n      jumpi\n        /* \"contracts/User/UserRoleRequest.sol\":7907:7913  uint i */\n      0x00\n        /* \"contracts/User/UserRoleRequest.sol\":7903:8070  for(uint i=0; i<approverRoles.length; i++){... */\n    tag_310:\n        /* \"contracts/User/UserRoleRequest.sol\":7919:7932  approverRoles */\n      dup4\n        /* \"contracts/User/UserRoleRequest.sol\":7919:7939  approverRoles.length */\n      mload\n        /* \"contracts/User/UserRoleRequest.sol\":7917:7918  i */\n      dup2\n        /* \"contracts/User/UserRoleRequest.sol\":7917:7939  i<approverRoles.length */\n      lt\n        /* \"contracts/User/UserRoleRequest.sol\":7903:8070  for(uint i=0; i<approverRoles.length; i++){... */\n      iszero\n      tag_311\n      jumpi\n        /* \"contracts/User/UserRoleRequest.sol\":7986:8001  Types.Role.None */\n      0x00\n        /* \"contracts/User/UserRoleRequest.sol\":7966:8001  approverRoles[i] == Types.Role.None */\n      0x04\n      dup2\n      gt\n      iszero\n      tag_313\n      jumpi\n      tag_314\n      tag_99\n      jump\t// in\n    tag_314:\n    tag_313:\n        /* \"contracts/User/UserRoleRequest.sol\":7966:7979  approverRoles */\n      dup5\n        /* \"contracts/User/UserRoleRequest.sol\":7980:7981  i */\n      dup3\n        /* \"contracts/User/UserRoleRequest.sol\":7966:7982  approverRoles[i] */\n      dup2\n      mload\n      dup2\n      lt\n      tag_315\n      jumpi\n      tag_316\n      tag_75\n      jump\t// in\n    tag_316:\n    tag_315:\n      0x20\n      mul\n      0x20\n      add\n      add\n      mload\n        /* \"contracts/User/UserRoleRequest.sol\":7966:8001  approverRoles[i] == Types.Role.None */\n      0x04\n      dup2\n      gt\n      iszero\n      tag_317\n      jumpi\n      tag_318\n      tag_99\n      jump\t// in\n    tag_318:\n    tag_317:\n      sub\n        /* \"contracts/User/UserRoleRequest.sol\":7963:8056  if(approverRoles[i] == Types.Role.None) {... */\n      tag_319\n      jumpi\n        /* \"contracts/User/UserRoleRequest.sol\":8032:8037  false */\n      0x00\n        /* \"contracts/User/UserRoleRequest.sol\":8025:8037  return false */\n      swap2\n      pop\n      pop\n      jump(tag_238)\n        /* \"contracts/User/UserRoleRequest.sol\":7963:8056  if(approverRoles[i] == Types.Role.None) {... */\n    tag_319:\n        /* \"contracts/User/UserRoleRequest.sol\":7941:7944  i++ */\n      dup1\n      dup1\n      0x01\n      add\n      swap2\n      pop\n      pop\n        /* \"contracts/User/UserRoleRequest.sol\":7903:8070  for(uint i=0; i<approverRoles.length; i++){... */\n      jump(tag_310)\n    tag_311:\n      pop\n        /* \"contracts/User/UserRoleRequest.sol\":8090:8094  true */\n      0x01\n        /* \"contracts/User/UserRoleRequest.sol\":8083:8094  return true */\n      swap1\n      pop\n      jump(tag_238)\n        /* \"contracts/User/UserRoleRequest.sol\":7848:8105  if(requestedRole == Types.Role.Reciever) {... */\n    tag_309:\n        /* \"contracts/User/UserRoleRequest.sol\":8122:8127  false */\n      0x00\n        /* \"contracts/User/UserRoleRequest.sol\":8115:8127  return false */\n      swap1\n      pop\n        /* \"contracts/User/UserRoleRequest.sol\":6715:8143  function isApproverHavingPermission(Types.Role[] memory approverRoles,Types.Role requestedRole) internal pure returns (bool) {... */\n    tag_238:\n      swap3\n      swap2\n      pop\n      pop\n      jump\t// out\n        /* \"contracts/User/UserRoleRequest.sol\":6027:6709  function checkRoleRequestStatus(Types.RoleRequest memory roleRequest) internal view {... */\n    tag_152:\n        /* \"contracts/User/UserRoleRequest.sol\":6153:6181  Types.RequestStatus.Approved */\n      0x01\n        /* \"contracts/User/UserRoleRequest.sol\":6124:6181  roleRequest.requestStatus == Types.RequestStatus.Approved */\n      0x02\n      dup2\n      gt\n      iszero\n      tag_321\n      jumpi\n      tag_322\n      tag_99\n      jump\t// in\n    tag_322:\n    tag_321:\n        /* \"contracts/User/UserRoleRequest.sol\":6124:6135  roleRequest */\n      dup2\n        /* \"contracts/User/UserRoleRequest.sol\":6124:6149  roleRequest.requestStatus */\n      0x60\n      add\n      mload\n        /* \"contracts/User/UserRoleRequest.sol\":6124:6181  roleRequest.requestStatus == Types.RequestStatus.Approved */\n      0x02\n      dup2\n      gt\n      iszero\n      tag_323\n      jumpi\n      tag_324\n      tag_99\n      jump\t// in\n    tag_324:\n    tag_323:\n      sub\n        /* \"contracts/User/UserRoleRequest.sol\":6121:6407  if(roleRequest.requestStatus == Types.RequestStatus.Approved) {... */\n      tag_325\n      jumpi\n        /* \"contracts/User/UserRoleRequest.sol\":6264:6274  msg.sender */\n      caller\n        /* \"contracts/User/UserRoleRequest.sol\":6360:6371  roleRequest */\n      dup2\n        /* \"contracts/User/UserRoleRequest.sol\":6360:6381  roleRequest.requestId */\n      0x00\n      add\n      mload\n        /* \"contracts/User/UserRoleRequest.sol\":6204:6396  Errors.AlreadyProcessedError({... */\n      mload(0x40)\n      0xc4c67e0100000000000000000000000000000000000000000000000000000000\n      dup2\n      mstore\n      0x04\n      add\n      tag_326\n      swap3\n      swap2\n      swap1\n      tag_327\n      jump\t// in\n    tag_326:\n      mload(0x40)\n      dup1\n      swap2\n      sub\n      swap1\n      revert\n        /* \"contracts/User/UserRoleRequest.sol\":6121:6407  if(roleRequest.requestStatus == Types.RequestStatus.Approved) {... */\n    tag_325:\n        /* \"contracts/User/UserRoleRequest.sol\":6449:6477  Types.RequestStatus.Rejected */\n      0x02\n        /* \"contracts/User/UserRoleRequest.sol\":6420:6477  roleRequest.requestStatus == Types.RequestStatus.Rejected */\n      dup1\n      dup2\n      gt\n      iszero\n      tag_328\n      jumpi\n      tag_329\n      tag_99\n      jump\t// in\n    tag_329:\n    tag_328:\n        /* \"contracts/User/UserRoleRequest.sol\":6420:6431  roleRequest */\n      dup2\n        /* \"contracts/User/UserRoleRequest.sol\":6420:6445  roleRequest.requestStatus */\n      0x60\n      add\n      mload\n        /* \"contracts/User/UserRoleRequest.sol\":6420:6477  roleRequest.requestStatus == Types.RequestStatus.Rejected */\n      0x02\n      dup2\n      gt\n      iszero\n      tag_330\n      jumpi\n      tag_331\n      tag_99\n      jump\t// in\n    tag_331:\n    tag_330:\n      sub\n        /* \"contracts/User/UserRoleRequest.sol\":6417:6703  if(roleRequest.requestStatus == Types.RequestStatus.Rejected) {... */\n      tag_332\n      jumpi\n        /* \"contracts/User/UserRoleRequest.sol\":6560:6570  msg.sender */\n      caller\n        /* \"contracts/User/UserRoleRequest.sol\":6656:6667  roleRequest */\n      dup2\n        /* \"contracts/User/UserRoleRequest.sol\":6656:6677  roleRequest.requestId */\n      0x00\n      add\n      mload\n        /* \"contracts/User/UserRoleRequest.sol\":6500:6692  Errors.AlreadyProcessedError({... */\n      mload(0x40)\n      0xc4c67e0100000000000000000000000000000000000000000000000000000000\n      dup2\n      mstore\n      0x04\n      add\n      tag_333\n      swap3\n      swap2\n      swap1\n      tag_334\n      jump\t// in\n    tag_333:\n      mload(0x40)\n      dup1\n      swap2\n      sub\n      swap1\n      revert\n        /* \"contracts/User/UserRoleRequest.sol\":6417:6703  if(roleRequest.requestStatus == Types.RequestStatus.Rejected) {... */\n    tag_332:\n        /* \"contracts/User/UserRoleRequest.sol\":6027:6709  function checkRoleRequestStatus(Types.RoleRequest memory roleRequest) internal view {... */\n      pop\n      jump\t// out\n        /* \"contracts/User/UserRoleRequest.sol\":5537:6021  function addRoleToUser(Types.RoleRequest memory roleRequest) internal view {... */\n    tag_167:\n        /* \"contracts/User/UserRoleRequest.sol\":5622:5644  Types.User memory user */\n      0x00\n        /* \"contracts/User/UserRoleRequest.sol\":5647:5652  users */\n      0x02\n        /* \"contracts/User/UserRoleRequest.sol\":5647:5682  users[roleRequest.applicantAddress] */\n      0x00\n        /* \"contracts/User/UserRoleRequest.sol\":5653:5664  roleRequest */\n      dup4\n        /* \"contracts/User/UserRoleRequest.sol\":5653:5681  roleRequest.applicantAddress */\n      0x20\n      add\n      mload\n        /* \"contracts/User/UserRoleRequest.sol\":5647:5682  users[roleRequest.applicantAddress] */\n      0xffffffffffffffffffffffffffffffffffffffff\n      and\n      0xffffffffffffffffffffffffffffffffffffffff\n      and\n      dup2\n      mstore\n      0x20\n      add\n      swap1\n      dup2\n      mstore\n      0x20\n      add\n      0x00\n      keccak256\n        /* \"contracts/User/UserRoleRequest.sol\":5622:5682  Types.User memory user = users[roleRequest.applicantAddress] */\n      mload(0x40)\n      dup1\n      0x80\n      add\n      0x40\n      mstore\n      swap1\n      dup2\n      0x00\n      dup3\n      add\n      dup1\n      sload\n      tag_336\n      swap1\n      tag_59\n      jump\t// in\n    tag_336:\n      dup1\n      0x1f\n      add\n      0x20\n      dup1\n      swap2\n      div\n      mul\n      0x20\n      add\n      mload(0x40)\n      swap1\n      dup2\n      add\n      0x40\n      mstore\n      dup1\n      swap3\n      swap2\n      swap1\n      dup2\n      dup2\n      mstore\n      0x20\n      add\n      dup3\n      dup1\n      sload\n      tag_337\n      swap1\n      tag_59\n      jump\t// in\n    tag_337:\n      dup1\n      iszero\n      tag_338\n      jumpi\n      dup1\n      0x1f\n      lt\n      tag_339\n      jumpi\n      0x0100\n      dup1\n      dup4\n      sload\n      div\n      mul\n      dup4\n      mstore\n      swap2\n      0x20\n      add\n      swap2\n      jump(tag_338)\n    tag_339:\n      dup3\n      add\n      swap2\n      swap1\n      0x00\n      mstore\n      keccak256(0x00, 0x20)\n      swap1\n    tag_340:\n      dup2\n      sload\n      dup2\n      mstore\n      swap1\n      0x01\n      add\n      swap1\n      0x20\n      add\n      dup1\n      dup4\n      gt\n      tag_340\n      jumpi\n      dup3\n      swap1\n      sub\n      0x1f\n      and\n      dup3\n      add\n      swap2\n    tag_338:\n      pop\n      pop\n      pop\n      pop\n      pop\n      dup2\n      mstore\n      0x20\n      add\n      0x01\n      dup3\n      add\n      0x00\n      swap1\n      sload\n      swap1\n      0x0100\n      exp\n      swap1\n      div\n      0xffffffffffffffffffffffffffffffffffffffff\n      and\n      0xffffffffffffffffffffffffffffffffffffffff\n      and\n      0xffffffffffffffffffffffffffffffffffffffff\n      and\n      dup2\n      mstore\n      0x20\n      add\n      0x02\n      dup3\n      add\n      dup1\n      sload\n      tag_341\n      swap1\n      tag_59\n      jump\t// in\n    tag_341:\n      dup1\n      0x1f\n      add\n      0x20\n      dup1\n      swap2\n      div\n      mul\n      0x20\n      add\n      mload(0x40)\n      swap1\n      dup2\n      add\n      0x40\n      mstore\n      dup1\n      swap3\n      swap2\n      swap1\n      dup2\n      dup2\n      mstore\n      0x20\n      add\n      dup3\n      dup1\n      sload\n      tag_342\n      swap1\n      tag_59\n      jump\t// in\n    tag_342:\n      dup1\n      iszero\n      tag_343\n      jumpi\n      dup1\n      0x1f\n      lt\n      tag_344\n      jumpi\n      0x0100\n      dup1\n      dup4\n      sload\n      div\n      mul\n      dup4\n      mstore\n      swap2\n      0x20\n      add\n      swap2\n      jump(tag_343)\n    tag_344:\n      dup3\n      add\n      swap2\n      swap1\n      0x00\n      mstore\n      keccak256(0x00, 0x20)\n      swap1\n    tag_345:\n      dup2\n      sload\n      dup2\n      mstore\n      swap1\n      0x01\n      add\n      swap1\n      0x20\n      add\n      dup1\n      dup4\n      gt\n      tag_345\n      jumpi\n      dup3\n      swap1\n      sub\n      0x1f\n      and\n      dup3\n      add\n      swap2\n    tag_343:\n      pop\n      pop\n      pop\n      pop\n      pop\n      dup2\n      mstore\n      0x20\n      add\n      0x03\n      dup3\n      add\n      dup1\n      sload\n      dup1\n      0x20\n      mul\n      0x20\n      add\n      mload(0x40)\n      swap1\n      dup2\n      add\n      0x40\n      mstore\n      dup1\n      swap3\n      swap2\n      swap1\n      dup2\n      dup2\n      mstore\n      0x20\n      add\n      dup3\n      dup1\n      sload\n      dup1\n      iszero\n      tag_346\n      jumpi\n      0x20\n      mul\n      dup3\n      add\n      swap2\n      swap1\n      0x00\n      mstore\n      keccak256(0x00, 0x20)\n      swap1\n      0x00\n      swap1\n    tag_347:\n      dup3\n      dup3\n      swap1\n      sload\n      swap1\n      0x0100\n      exp\n      swap1\n      div\n      0xff\n      and\n      0x04\n      dup2\n      gt\n      iszero\n      tag_348\n      jumpi\n      tag_349\n      tag_99\n      jump\t// in\n    tag_349:\n    tag_348:\n      dup2\n      mstore\n      0x20\n      add\n      swap1\n      0x01\n      add\n      swap1\n      0x20\n      dup3\n      0x00\n      add\n      div\n      swap3\n      dup4\n      add\n      swap3\n      0x01\n      sub\n      dup3\n      mul\n      swap2\n      pop\n      dup1\n      dup5\n      gt\n      tag_347\n      jumpi\n      swap1\n      pop\n    tag_346:\n      pop\n      pop\n      pop\n      pop\n      pop\n      dup2\n      mstore\n      pop\n      pop\n      swap1\n      pop\n        /* \"contracts/User/UserRoleRequest.sol\":5692:5724  Types.Role[] memory updatedRoles */\n      0x00\n        /* \"contracts/User/UserRoleRequest.sol\":5763:5764  1 */\n      0x01\n        /* \"contracts/User/UserRoleRequest.sol\":5744:5748  user */\n      dup3\n        /* \"contracts/User/UserRoleRequest.sol\":5744:5753  user.role */\n      0x60\n      add\n      mload\n        /* \"contracts/User/UserRoleRequest.sol\":5744:5760  user.role.length */\n      mload\n        /* \"contracts/User/UserRoleRequest.sol\":5744:5764  user.role.length + 1 */\n      tag_350\n      swap2\n      swap1\n      tag_351\n      jump\t// in\n    tag_350:\n        /* \"contracts/User/UserRoleRequest.sol\":5727:5765  new Types.Role[](user.role.length + 1) */\n      0xffffffffffffffff\n      dup2\n      gt\n      iszero\n      tag_352\n      jumpi\n      tag_353\n      tag_64\n      jump\t// in\n    tag_353:\n    tag_352:\n      mload(0x40)\n      swap1\n      dup1\n      dup3\n      mstore\n      dup1\n      0x20\n      mul\n      0x20\n      add\n      dup3\n      add\n      0x40\n      mstore\n      dup1\n      iszero\n      tag_354\n      jumpi\n      dup2\n      0x20\n      add\n      0x20\n      dup3\n      mul\n      dup1\n      calldatasize\n      dup4\n      calldatacopy\n      dup1\n      dup3\n      add\n      swap2\n      pop\n      pop\n      swap1\n      pop\n    tag_354:\n      pop\n        /* \"contracts/User/UserRoleRequest.sol\":5692:5765  Types.Role[] memory updatedRoles = new Types.Role[](user.role.length + 1) */\n      swap1\n      pop\n        /* \"contracts/User/UserRoleRequest.sol\":5798:5807  uint256 i */\n      0x00\n        /* \"contracts/User/UserRoleRequest.sol\":5793:5895  for (uint256 i = 0; i < user.role.length; i++) {... */\n    tag_355:\n        /* \"contracts/User/UserRoleRequest.sol\":5817:5821  user */\n      dup3\n        /* \"contracts/User/UserRoleRequest.sol\":5817:5826  user.role */\n      0x60\n      add\n      mload\n        /* \"contracts/User/UserRoleRequest.sol\":5817:5833  user.role.length */\n      mload\n        /* \"contracts/User/UserRoleRequest.sol\":5813:5814  i */\n      dup2\n        /* \"contracts/User/UserRoleRequest.sol\":5813:5833  i < user.role.length */\n      lt\n        /* \"contracts/User/UserRoleRequest.sol\":5793:5895  for (uint256 i = 0; i < user.role.length; i++) {... */\n      iszero\n      tag_356\n      jumpi\n        /* \"contracts/User/UserRoleRequest.sol\":5872:5876  user */\n      dup3\n        /* \"contracts/User/UserRoleRequest.sol\":5872:5881  user.role */\n      0x60\n      add\n      mload\n        /* \"contracts/User/UserRoleRequest.sol\":5882:5883  i */\n      dup2\n        /* \"contracts/User/UserRoleRequest.sol\":5872:5884  user.role[i] */\n      dup2\n      mload\n      dup2\n      lt\n      tag_358\n      jumpi\n      tag_359\n      tag_75\n      jump\t// in\n    tag_359:\n    tag_358:\n      0x20\n      mul\n      0x20\n      add\n      add\n      mload\n        /* \"contracts/User/UserRoleRequest.sol\":5854:5866  updatedRoles */\n      dup3\n        /* \"contracts/User/UserRoleRequest.sol\":5867:5868  i */\n      dup3\n        /* \"contracts/User/UserRoleRequest.sol\":5854:5869  updatedRoles[i] */\n      dup2\n      mload\n      dup2\n      lt\n      tag_360\n      jumpi\n      tag_361\n      tag_75\n      jump\t// in\n    tag_361:\n    tag_360:\n      0x20\n      mul\n      0x20\n      add\n      add\n        /* \"contracts/User/UserRoleRequest.sol\":5854:5884  updatedRoles[i] = user.role[i] */\n      swap1\n      0x04\n      dup2\n      gt\n      iszero\n      tag_362\n      jumpi\n      tag_363\n      tag_99\n      jump\t// in\n    tag_363:\n    tag_362:\n      swap1\n      dup2\n      0x04\n      dup2\n      gt\n      iszero\n      tag_364\n      jumpi\n      tag_365\n      tag_99\n      jump\t// in\n    tag_365:\n    tag_364:\n      dup2\n      mstore\n      pop\n      pop\n        /* \"contracts/User/UserRoleRequest.sol\":5835:5838  i++ */\n      dup1\n      dup1\n      0x01\n      add\n      swap2\n      pop\n      pop\n        /* \"contracts/User/UserRoleRequest.sol\":5793:5895  for (uint256 i = 0; i < user.role.length; i++) {... */\n      jump(tag_355)\n    tag_356:\n      pop\n        /* \"contracts/User/UserRoleRequest.sol\":5946:5957  roleRequest */\n      dup3\n        /* \"contracts/User/UserRoleRequest.sol\":5946:5971  roleRequest.requestedRole */\n      0x40\n      add\n      mload\n        /* \"contracts/User/UserRoleRequest.sol\":5913:5925  updatedRoles */\n      dup2\n        /* \"contracts/User/UserRoleRequest.sol\":5926:5930  user */\n      dup4\n        /* \"contracts/User/UserRoleRequest.sol\":5926:5935  user.role */\n      0x60\n      add\n      mload\n        /* \"contracts/User/UserRoleRequest.sol\":5926:5942  user.role.length */\n      mload\n        /* \"contracts/User/UserRoleRequest.sol\":5913:5943  updatedRoles[user.role.length] */\n      dup2\n      mload\n      dup2\n      lt\n      tag_366\n      jumpi\n      tag_367\n      tag_75\n      jump\t// in\n    tag_367:\n    tag_366:\n      0x20\n      mul\n      0x20\n      add\n      add\n        /* \"contracts/User/UserRoleRequest.sol\":5913:5971  updatedRoles[user.role.length] = roleRequest.requestedRole */\n      swap1\n      0x04\n      dup2\n      gt\n      iszero\n      tag_368\n      jumpi\n      tag_369\n      tag_99\n      jump\t// in\n    tag_369:\n    tag_368:\n      swap1\n      dup2\n      0x04\n      dup2\n      gt\n      iszero\n      tag_370\n      jumpi\n      tag_371\n      tag_99\n      jump\t// in\n    tag_371:\n    tag_370:\n      dup2\n      mstore\n      pop\n      pop\n        /* \"contracts/User/UserRoleRequest.sol\":6002:6014  updatedRoles */\n      dup1\n        /* \"contracts/User/UserRoleRequest.sol\":5990:5994  user */\n      dup3\n        /* \"contracts/User/UserRoleRequest.sol\":5990:5999  user.role */\n      0x60\n      add\n        /* \"contracts/User/UserRoleRequest.sol\":5990:6014  user.role = updatedRoles */\n      dup2\n      swap1\n      mstore\n      pop\n        /* \"contracts/User/UserRoleRequest.sol\":5612:6021  {... */\n      pop\n      pop\n        /* \"contracts/User/UserRoleRequest.sol\":5537:6021  function addRoleToUser(Types.RoleRequest memory roleRequest) internal view {... */\n      pop\n      jump\t// out\n        /* \"@openzeppelin/contracts/utils/Context.sol\":656:752  function _msgSender() internal view virtual returns (address) {... */\n    tag_232:\n        /* \"@openzeppelin/contracts/utils/Context.sol\":709:716  address */\n      0x00\n        /* \"@openzeppelin/contracts/utils/Context.sol\":735:745  msg.sender */\n      caller\n        /* \"@openzeppelin/contracts/utils/Context.sol\":728:745  return msg.sender */\n      swap1\n      pop\n        /* \"@openzeppelin/contracts/utils/Context.sol\":656:752  function _msgSender() internal view virtual returns (address) {... */\n      swap1\n      jump\t// out\n    tag_106:\n      dup3\n      dup1\n      sload\n      dup3\n      dup3\n      sstore\n      swap1\n      0x00\n      mstore\n      keccak256(0x00, 0x20)\n      swap1\n      0x1f\n      add\n      0x20\n      swap1\n      div\n      dup2\n      add\n      swap3\n      dup3\n      iszero\n      tag_373\n      jumpi\n      swap2\n      0x20\n      mul\n      dup3\n      add\n      0x00\n    tag_374:\n      dup4\n      dup3\n      gt\n      iszero\n      tag_375\n      jumpi\n      dup4\n      mload\n      dup4\n      dup3\n      0x0100\n      exp\n      dup2\n      sload\n      dup2\n      0xff\n      mul\n      not\n      and\n      swap1\n      dup4\n      0x04\n      dup2\n      gt\n      iszero\n      tag_376\n      jumpi\n      tag_377\n      tag_99\n      jump\t// in\n    tag_377:\n    tag_376:\n      mul\n      or\n      swap1\n      sstore\n      pop\n      swap3\n      0x20\n      add\n      swap3\n      0x01\n      add\n      0x20\n      dup2\n      0x00\n      add\n      div\n      swap3\n      dup4\n      add\n      swap3\n      0x01\n      sub\n      mul\n      jump(tag_374)\n    tag_375:\n      dup1\n      iszero\n      tag_378\n      jumpi\n      dup3\n      dup2\n      0x0100\n      exp\n      dup2\n      sload\n      swap1\n      0xff\n      mul\n      not\n      and\n      swap1\n      sstore\n      0x01\n      add\n      0x20\n      dup2\n      0x00\n      add\n      div\n      swap3\n      dup4\n      add\n      swap3\n      0x01\n      sub\n      mul\n      jump(tag_375)\n    tag_378:\n      pop\n    tag_373:\n      pop\n      swap1\n      pop\n      tag_379\n      swap2\n      swap1\n      tag_380\n      jump\t// in\n    tag_379:\n      pop\n      swap1\n      jump\t// out\n    tag_111:\n      mload(0x40)\n      dup1\n      0x40\n      add\n      0x40\n      mstore\n      dup1\n      tag_381\n      tag_382\n      jump\t// in\n    tag_381:\n      dup2\n      mstore\n      0x20\n      add\n      0x00\n      dup2\n      mstore\n      pop\n      swap1\n      jump\t// out\n    tag_380:\n    tag_383:\n      dup1\n      dup3\n      gt\n      iszero\n      tag_384\n      jumpi\n      0x00\n      dup2\n      0x00\n      swap1\n      sstore\n      pop\n      0x01\n      add\n      jump(tag_383)\n    tag_384:\n      pop\n      swap1\n      jump\t// out\n    tag_382:\n      mload(0x40)\n      dup1\n      0xa0\n      add\n      0x40\n      mstore\n      dup1\n      0x60\n      dup2\n      mstore\n      0x20\n      add\n      and(0xffffffffffffffffffffffffffffffffffffffff, 0x00)\n      dup2\n      mstore\n      0x20\n      add\n      0x00\n      0x04\n      dup2\n      gt\n      iszero\n      tag_385\n      jumpi\n      tag_386\n      tag_99\n      jump\t// in\n    tag_386:\n    tag_385:\n      dup2\n      mstore\n      0x20\n      add\n      0x00\n      0x02\n      dup2\n      gt\n      iszero\n      tag_387\n      jumpi\n      tag_388\n      tag_99\n      jump\t// in\n    tag_388:\n    tag_387:\n      dup2\n      mstore\n      0x20\n      add\n      and(0xffffffffffffffffffffffffffffffffffffffff, 0x00)\n      dup2\n      mstore\n      pop\n      swap1\n      jump\t// out\n        /* \"#utility.yul\":7:82   */\n    tag_389:\n        /* \"#utility.yul\":40:46   */\n      0x00\n        /* \"#utility.yul\":73:75   */\n      0x40\n        /* \"#utility.yul\":67:76   */\n      mload\n        /* \"#utility.yul\":57:76   */\n      swap1\n      pop\n        /* \"#utility.yul\":7:82   */\n      swap1\n      jump\t// out\n        /* \"#utility.yul\":88:205   */\n    tag_390:\n        /* \"#utility.yul\":197:198   */\n      0x00\n        /* \"#utility.yul\":194:195   */\n      dup1\n        /* \"#utility.yul\":187:199   */\n      revert\n        /* \"#utility.yul\":211:328   */\n    tag_391:\n        /* \"#utility.yul\":320:321   */\n      0x00\n        /* \"#utility.yul\":317:318   */\n      dup1\n        /* \"#utility.yul\":310:322   */\n      revert\n        /* \"#utility.yul\":334:460   */\n    tag_392:\n        /* \"#utility.yul\":371:378   */\n      0x00\n        /* \"#utility.yul\":411:453   */\n      0xffffffffffffffffffffffffffffffffffffffff\n        /* \"#utility.yul\":404:409   */\n      dup3\n        /* \"#utility.yul\":400:454   */\n      and\n        /* \"#utility.yul\":389:454   */\n      swap1\n      pop\n        /* \"#utility.yul\":334:460   */\n      swap2\n      swap1\n      pop\n      jump\t// out\n        /* \"#utility.yul\":466:562   */\n    tag_393:\n        /* \"#utility.yul\":503:510   */\n      0x00\n        /* \"#utility.yul\":532:556   */\n      tag_485\n        /* \"#utility.yul\":550:555   */\n      dup3\n        /* \"#utility.yul\":532:556   */\n      tag_392\n      jump\t// in\n    tag_485:\n        /* \"#utility.yul\":521:556   */\n      swap1\n      pop\n        /* \"#utility.yul\":466:562   */\n      swap2\n      swap1\n      pop\n      jump\t// out\n        /* \"#utility.yul\":568:690   */\n    tag_394:\n        /* \"#utility.yul\":641:665   */\n      tag_487\n        /* \"#utility.yul\":659:664   */\n      dup2\n        /* \"#utility.yul\":641:665   */\n      tag_393\n      jump\t// in\n    tag_487:\n        /* \"#utility.yul\":634:639   */\n      dup2\n        /* \"#utility.yul\":631:666   */\n      eq\n        /* \"#utility.yul\":621:684   */\n      tag_488\n      jumpi\n        /* \"#utility.yul\":680:681   */\n      0x00\n        /* \"#utility.yul\":677:678   */\n      dup1\n        /* \"#utility.yul\":670:682   */\n      revert\n        /* \"#utility.yul\":621:684   */\n    tag_488:\n        /* \"#utility.yul\":568:690   */\n      pop\n      jump\t// out\n        /* \"#utility.yul\":696:835   */\n    tag_395:\n        /* \"#utility.yul\":742:747   */\n      0x00\n        /* \"#utility.yul\":780:786   */\n      dup2\n        /* \"#utility.yul\":767:787   */\n      calldataload\n        /* \"#utility.yul\":758:787   */\n      swap1\n      pop\n        /* \"#utility.yul\":796:829   */\n      tag_490\n        /* \"#utility.yul\":823:828   */\n      dup2\n        /* \"#utility.yul\":796:829   */\n      tag_394\n      jump\t// in\n    tag_490:\n        /* \"#utility.yul\":696:835   */\n      swap3\n      swap2\n      pop\n      pop\n      jump\t// out\n        /* \"#utility.yul\":841:1170   */\n    tag_16:\n        /* \"#utility.yul\":900:906   */\n      0x00\n        /* \"#utility.yul\":949:951   */\n      0x20\n        /* \"#utility.yul\":937:946   */\n      dup3\n        /* \"#utility.yul\":928:935   */\n      dup5\n        /* \"#utility.yul\":924:947   */\n      sub\n        /* \"#utility.yul\":920:952   */\n      slt\n        /* \"#utility.yul\":917:1036   */\n      iszero\n      tag_492\n      jumpi\n        /* \"#utility.yul\":955:1034   */\n      tag_493\n      tag_390\n      jump\t// in\n    tag_493:\n        /* \"#utility.yul\":917:1036   */\n    tag_492:\n        /* \"#utility.yul\":1075:1076   */\n      0x00\n        /* \"#utility.yul\":1100:1153   */\n      tag_494\n        /* \"#utility.yul\":1145:1152   */\n      dup5\n        /* \"#utility.yul\":1136:1142   */\n      dup3\n        /* \"#utility.yul\":1125:1134   */\n      dup6\n        /* \"#utility.yul\":1121:1143   */\n      add\n        /* \"#utility.yul\":1100:1153   */\n      tag_395\n      jump\t// in\n    tag_494:\n        /* \"#utility.yul\":1090:1153   */\n      swap2\n      pop\n        /* \"#utility.yul\":1046:1163   */\n      pop\n        /* \"#utility.yul\":841:1170   */\n      swap3\n      swap2\n      pop\n      pop\n      jump\t// out\n        /* \"#utility.yul\":1176:1266   */\n    tag_396:\n        /* \"#utility.yul\":1210:1217   */\n      0x00\n        /* \"#utility.yul\":1253:1258   */\n      dup2\n        /* \"#utility.yul\":1246:1259   */\n      iszero\n        /* \"#utility.yul\":1239:1260   */\n      iszero\n        /* \"#utility.yul\":1228:1260   */\n      swap1\n      pop\n        /* \"#utility.yul\":1176:1266   */\n      swap2\n      swap1\n      pop\n      jump\t// out\n        /* \"#utility.yul\":1272:1381   */\n    tag_397:\n        /* \"#utility.yul\":1353:1374   */\n      tag_497\n        /* \"#utility.yul\":1368:1373   */\n      dup2\n        /* \"#utility.yul\":1353:1374   */\n      tag_396\n      jump\t// in\n    tag_497:\n        /* \"#utility.yul\":1348:1351   */\n      dup3\n        /* \"#utility.yul\":1341:1375   */\n      mstore\n        /* \"#utility.yul\":1272:1381   */\n      pop\n      pop\n      jump\t// out\n        /* \"#utility.yul\":1387:1597   */\n    tag_19:\n        /* \"#utility.yul\":1474:1478   */\n      0x00\n        /* \"#utility.yul\":1512:1514   */\n      0x20\n        /* \"#utility.yul\":1501:1510   */\n      dup3\n        /* \"#utility.yul\":1497:1515   */\n      add\n        /* \"#utility.yul\":1489:1515   */\n      swap1\n      pop\n        /* \"#utility.yul\":1525:1590   */\n      tag_499\n        /* \"#utility.yul\":1587:1588   */\n      0x00\n        /* \"#utility.yul\":1576:1585   */\n      dup4\n        /* \"#utility.yul\":1572:1589   */\n      add\n        /* \"#utility.yul\":1563:1569   */\n      dup5\n        /* \"#utility.yul\":1525:1590   */\n      tag_397\n      jump\t// in\n    tag_499:\n        /* \"#utility.yul\":1387:1597   */\n      swap3\n      swap2\n      pop\n      pop\n      jump\t// out\n        /* \"#utility.yul\":1603:1680   */\n    tag_398:\n        /* \"#utility.yul\":1640:1647   */\n      0x00\n        /* \"#utility.yul\":1669:1674   */\n      dup2\n        /* \"#utility.yul\":1658:1674   */\n      swap1\n      pop\n        /* \"#utility.yul\":1603:1680   */\n      swap2\n      swap1\n      pop\n      jump\t// out\n        /* \"#utility.yul\":1686:1808   */\n    tag_399:\n        /* \"#utility.yul\":1759:1783   */\n      tag_502\n        /* \"#utility.yul\":1777:1782   */\n      dup2\n        /* \"#utility.yul\":1759:1783   */\n      tag_398\n      jump\t// in\n    tag_502:\n        /* \"#utility.yul\":1752:1757   */\n      dup2\n        /* \"#utility.yul\":1749:1784   */\n      eq\n        /* \"#utility.yul\":1739:1802   */\n      tag_503\n      jumpi\n        /* \"#utility.yul\":1798:1799   */\n      0x00\n        /* \"#utility.yul\":1795:1796   */\n      dup1\n        /* \"#utility.yul\":1788:1800   */\n      revert\n        /* \"#utility.yul\":1739:1802   */\n    tag_503:\n        /* \"#utility.yul\":1686:1808   */\n      pop\n      jump\t// out\n        /* \"#utility.yul\":1814:1953   */\n    tag_400:\n        /* \"#utility.yul\":1860:1865   */\n      0x00\n        /* \"#utility.yul\":1898:1904   */\n      dup2\n        /* \"#utility.yul\":1885:1905   */\n      calldataload\n        /* \"#utility.yul\":1876:1905   */\n      swap1\n      pop\n        /* \"#utility.yul\":1914:1947   */\n      tag_505\n        /* \"#utility.yul\":1941:1946   */\n      dup2\n        /* \"#utility.yul\":1914:1947   */\n      tag_399\n      jump\t// in\n    tag_505:\n        /* \"#utility.yul\":1814:1953   */\n      swap3\n      swap2\n      pop\n      pop\n      jump\t// out\n        /* \"#utility.yul\":1959:2288   */\n    tag_22:\n        /* \"#utility.yul\":2018:2024   */\n      0x00\n        /* \"#utility.yul\":2067:2069   */\n      0x20\n        /* \"#utility.yul\":2055:2064   */\n      dup3\n        /* \"#utility.yul\":2046:2053   */\n      dup5\n        /* \"#utility.yul\":2042:2065   */\n      sub\n        /* \"#utility.yul\":2038:2070   */\n      slt\n        /* \"#utility.yul\":2035:2154   */\n      iszero\n      tag_507\n      jumpi\n        /* \"#utility.yul\":2073:2152   */\n      tag_508\n      tag_390\n      jump\t// in\n    tag_508:\n        /* \"#utility.yul\":2035:2154   */\n    tag_507:\n        /* \"#utility.yul\":2193:2194   */\n      0x00\n        /* \"#utility.yul\":2218:2271   */\n      tag_509\n        /* \"#utility.yul\":2263:2270   */\n      dup5\n        /* \"#utility.yul\":2254:2260   */\n      dup3\n        /* \"#utility.yul\":2243:2252   */\n      dup6\n        /* \"#utility.yul\":2239:2261   */\n      add\n        /* \"#utility.yul\":2218:2271   */\n      tag_400\n      jump\t// in\n    tag_509:\n        /* \"#utility.yul\":2208:2271   */\n      swap2\n      pop\n        /* \"#utility.yul\":2164:2281   */\n      pop\n        /* \"#utility.yul\":1959:2288   */\n      swap3\n      swap2\n      pop\n      pop\n      jump\t// out\n        /* \"#utility.yul\":2294:2393   */\n    tag_401:\n        /* \"#utility.yul\":2346:2352   */\n      0x00\n        /* \"#utility.yul\":2380:2385   */\n      dup2\n        /* \"#utility.yul\":2374:2386   */\n      mload\n        /* \"#utility.yul\":2364:2386   */\n      swap1\n      pop\n        /* \"#utility.yul\":2294:2393   */\n      swap2\n      swap1\n      pop\n      jump\t// out\n        /* \"#utility.yul\":2399:2568   */\n    tag_402:\n        /* \"#utility.yul\":2483:2494   */\n      0x00\n        /* \"#utility.yul\":2517:2523   */\n      dup3\n        /* \"#utility.yul\":2512:2515   */\n      dup3\n        /* \"#utility.yul\":2505:2524   */\n      mstore\n        /* \"#utility.yul\":2557:2561   */\n      0x20\n        /* \"#utility.yul\":2552:2555   */\n      dup3\n        /* \"#utility.yul\":2548:2562   */\n      add\n        /* \"#utility.yul\":2533:2562   */\n      swap1\n      pop\n        /* \"#utility.yul\":2399:2568   */\n      swap3\n      swap2\n      pop\n      pop\n      jump\t// out\n        /* \"#utility.yul\":2574:2713   */\n    tag_403:\n        /* \"#utility.yul\":2663:2669   */\n      dup3\n        /* \"#utility.yul\":2658:2661   */\n      dup2\n        /* \"#utility.yul\":2653:2656   */\n      dup4\n        /* \"#utility.yul\":2647:2670   */\n      mcopy\n        /* \"#utility.yul\":2704:2705   */\n      0x00\n        /* \"#utility.yul\":2695:2701   */\n      dup4\n        /* \"#utility.yul\":2690:2693   */\n      dup4\n        /* \"#utility.yul\":2686:2702   */\n      add\n        /* \"#utility.yul\":2679:2706   */\n      mstore\n        /* \"#utility.yul\":2574:2713   */\n      pop\n      pop\n      pop\n      jump\t// out\n        /* \"#utility.yul\":2719:2821   */\n    tag_404:\n        /* \"#utility.yul\":2760:2766   */\n      0x00\n        /* \"#utility.yul\":2811:2813   */\n      0x1f\n        /* \"#utility.yul\":2807:2814   */\n      not\n        /* \"#utility.yul\":2802:2804   */\n      0x1f\n        /* \"#utility.yul\":2795:2800   */\n      dup4\n        /* \"#utility.yul\":2791:2805   */\n      add\n        /* \"#utility.yul\":2787:2815   */\n      and\n        /* \"#utility.yul\":2777:2815   */\n      swap1\n      pop\n        /* \"#utility.yul\":2719:2821   */\n      swap2\n      swap1\n      pop\n      jump\t// out\n        /* \"#utility.yul\":2827:3204   */\n    tag_405:\n        /* \"#utility.yul\":2915:2918   */\n      0x00\n        /* \"#utility.yul\":2943:2982   */\n      tag_515\n        /* \"#utility.yul\":2976:2981   */\n      dup3\n        /* \"#utility.yul\":2943:2982   */\n      tag_401\n      jump\t// in\n    tag_515:\n        /* \"#utility.yul\":2998:3069   */\n      tag_516\n        /* \"#utility.yul\":3062:3068   */\n      dup2\n        /* \"#utility.yul\":3057:3060   */\n      dup6\n        /* \"#utility.yul\":2998:3069   */\n      tag_402\n      jump\t// in\n    tag_516:\n        /* \"#utility.yul\":2991:3069   */\n      swap4\n      pop\n        /* \"#utility.yul\":3078:3143   */\n      tag_517\n        /* \"#utility.yul\":3136:3142   */\n      dup2\n        /* \"#utility.yul\":3131:3134   */\n      dup6\n        /* \"#utility.yul\":3124:3128   */\n      0x20\n        /* \"#utility.yul\":3117:3122   */\n      dup7\n        /* \"#utility.yul\":3113:3129   */\n      add\n        /* \"#utility.yul\":3078:3143   */\n      tag_403\n      jump\t// in\n    tag_517:\n        /* \"#utility.yul\":3168:3197   */\n      tag_518\n        /* \"#utility.yul\":3190:3196   */\n      dup2\n        /* \"#utility.yul\":3168:3197   */\n      tag_404\n      jump\t// in\n    tag_518:\n        /* \"#utility.yul\":3163:3166   */\n      dup5\n        /* \"#utility.yul\":3159:3198   */\n      add\n        /* \"#utility.yul\":3152:3198   */\n      swap2\n      pop\n        /* \"#utility.yul\":2919:3204   */\n      pop\n        /* \"#utility.yul\":2827:3204   */\n      swap3\n      swap2\n      pop\n      pop\n      jump\t// out\n        /* \"#utility.yul\":3210:3523   */\n    tag_25:\n        /* \"#utility.yul\":3323:3327   */\n      0x00\n        /* \"#utility.yul\":3361:3363   */\n      0x20\n        /* \"#utility.yul\":3350:3359   */\n      dup3\n        /* \"#utility.yul\":3346:3364   */\n      add\n        /* \"#utility.yul\":3338:3364   */\n      swap1\n      pop\n        /* \"#utility.yul\":3410:3419   */\n      dup2\n        /* \"#utility.yul\":3404:3408   */\n      dup2\n        /* \"#utility.yul\":3400:3420   */\n      sub\n        /* \"#utility.yul\":3396:3397   */\n      0x00\n        /* \"#utility.yul\":3385:3394   */\n      dup4\n        /* \"#utility.yul\":3381:3398   */\n      add\n        /* \"#utility.yul\":3374:3421   */\n      mstore\n        /* \"#utility.yul\":3438:3516   */\n      tag_520\n        /* \"#utility.yul\":3511:3515   */\n      dup2\n        /* \"#utility.yul\":3502:3508   */\n      dup5\n        /* \"#utility.yul\":3438:3516   */\n      tag_405\n      jump\t// in\n    tag_520:\n        /* \"#utility.yul\":3430:3516   */\n      swap1\n      pop\n        /* \"#utility.yul\":3210:3523   */\n      swap3\n      swap2\n      pop\n      pop\n      jump\t// out\n        /* \"#utility.yul\":3529:3646   */\n    tag_406:\n        /* \"#utility.yul\":3638:3639   */\n      0x00\n        /* \"#utility.yul\":3635:3636   */\n      dup1\n        /* \"#utility.yul\":3628:3640   */\n      revert\n        /* \"#utility.yul\":3652:3769   */\n    tag_407:\n        /* \"#utility.yul\":3761:3762   */\n      0x00\n        /* \"#utility.yul\":3758:3759   */\n      dup1\n        /* \"#utility.yul\":3751:3763   */\n      revert\n        /* \"#utility.yul\":3775:3955   */\n    tag_64:\n        /* \"#utility.yul\":3823:3900   */\n      0x4e487b7100000000000000000000000000000000000000000000000000000000\n        /* \"#utility.yul\":3820:3821   */\n      0x00\n        /* \"#utility.yul\":3813:3901   */\n      mstore\n        /* \"#utility.yul\":3920:3924   */\n      0x41\n        /* \"#utility.yul\":3917:3918   */\n      0x04\n        /* \"#utility.yul\":3910:3925   */\n      mstore\n        /* \"#utility.yul\":3944:3948   */\n      0x24\n        /* \"#utility.yul\":3941:3942   */\n      0x00\n        /* \"#utility.yul\":3934:3949   */\n      revert\n        /* \"#utility.yul\":3961:4242   */\n    tag_408:\n        /* \"#utility.yul\":4044:4071   */\n      tag_525\n        /* \"#utility.yul\":4066:4070   */\n      dup3\n        /* \"#utility.yul\":4044:4071   */\n      tag_404\n      jump\t// in\n    tag_525:\n        /* \"#utility.yul\":4036:4042   */\n      dup2\n        /* \"#utility.yul\":4032:4072   */\n      add\n        /* \"#utility.yul\":4174:4180   */\n      dup2\n        /* \"#utility.yul\":4162:4172   */\n      dup2\n        /* \"#utility.yul\":4159:4181   */\n      lt\n        /* \"#utility.yul\":4138:4156   */\n      0xffffffffffffffff\n        /* \"#utility.yul\":4126:4136   */\n      dup3\n        /* \"#utility.yul\":4123:4157   */\n      gt\n        /* \"#utility.yul\":4120:4182   */\n      or\n        /* \"#utility.yul\":4117:4205   */\n      iszero\n      tag_526\n      jumpi\n        /* \"#utility.yul\":4185:4203   */\n      tag_527\n      tag_64\n      jump\t// in\n    tag_527:\n        /* \"#utility.yul\":4117:4205   */\n    tag_526:\n        /* \"#utility.yul\":4225:4235   */\n      dup1\n        /* \"#utility.yul\":4221:4223   */\n      0x40\n        /* \"#utility.yul\":4214:4236   */\n      mstore\n        /* \"#utility.yul\":4004:4242   */\n      pop\n        /* \"#utility.yul\":3961:4242   */\n      pop\n      pop\n      jump\t// out\n        /* \"#utility.yul\":4248:4377   */\n    tag_409:\n        /* \"#utility.yul\":4282:4288   */\n      0x00\n        /* \"#utility.yul\":4309:4329   */\n      tag_529\n      tag_389\n      jump\t// in\n    tag_529:\n        /* \"#utility.yul\":4299:4329   */\n      swap1\n      pop\n        /* \"#utility.yul\":4338:4371   */\n      tag_530\n        /* \"#utility.yul\":4366:4370   */\n      dup3\n        /* \"#utility.yul\":4358:4364   */\n      dup3\n        /* \"#utility.yul\":4338:4371   */\n      tag_408\n      jump\t// in\n    tag_530:\n        /* \"#utility.yul\":4248:4377   */\n      swap2\n      swap1\n      pop\n      jump\t// out\n        /* \"#utility.yul\":4383:4691   */\n    tag_410:\n        /* \"#utility.yul\":4445:4449   */\n      0x00\n        /* \"#utility.yul\":4535:4553   */\n      0xffffffffffffffff\n        /* \"#utility.yul\":4527:4533   */\n      dup3\n        /* \"#utility.yul\":4524:4554   */\n      gt\n        /* \"#utility.yul\":4521:4577   */\n      iszero\n      tag_532\n      jumpi\n        /* \"#utility.yul\":4557:4575   */\n      tag_533\n      tag_64\n      jump\t// in\n    tag_533:\n        /* \"#utility.yul\":4521:4577   */\n    tag_532:\n        /* \"#utility.yul\":4595:4624   */\n      tag_534\n        /* \"#utility.yul\":4617:4623   */\n      dup3\n        /* \"#utility.yul\":4595:4624   */\n      tag_404\n      jump\t// in\n    tag_534:\n        /* \"#utility.yul\":4587:4624   */\n      swap1\n      pop\n        /* \"#utility.yul\":4679:4683   */\n      0x20\n        /* \"#utility.yul\":4673:4677   */\n      dup2\n        /* \"#utility.yul\":4669:4684   */\n      add\n        /* \"#utility.yul\":4661:4684   */\n      swap1\n      pop\n        /* \"#utility.yul\":4383:4691   */\n      swap2\n      swap1\n      pop\n      jump\t// out\n        /* \"#utility.yul\":4697:4845   */\n    tag_411:\n        /* \"#utility.yul\":4795:4801   */\n      dup3\n        /* \"#utility.yul\":4790:4793   */\n      dup2\n        /* \"#utility.yul\":4785:4788   */\n      dup4\n        /* \"#utility.yul\":4772:4802   */\n      calldatacopy\n        /* \"#utility.yul\":4836:4837   */\n      0x00\n        /* \"#utility.yul\":4827:4833   */\n      dup4\n        /* \"#utility.yul\":4822:4825   */\n      dup4\n        /* \"#utility.yul\":4818:4834   */\n      add\n        /* \"#utility.yul\":4811:4838   */\n      mstore\n        /* \"#utility.yul\":4697:4845   */\n      pop\n      pop\n      pop\n      jump\t// out\n        /* \"#utility.yul\":4851:5276   */\n    tag_412:\n        /* \"#utility.yul\":4929:4934   */\n      0x00\n        /* \"#utility.yul\":4954:5020   */\n      tag_537\n        /* \"#utility.yul\":4970:5019   */\n      tag_538\n        /* \"#utility.yul\":5012:5018   */\n      dup5\n        /* \"#utility.yul\":4970:5019   */\n      tag_410\n      jump\t// in\n    tag_538:\n        /* \"#utility.yul\":4954:5020   */\n      tag_409\n      jump\t// in\n    tag_537:\n        /* \"#utility.yul\":4945:5020   */\n      swap1\n      pop\n        /* \"#utility.yul\":5043:5049   */\n      dup3\n        /* \"#utility.yul\":5036:5041   */\n      dup2\n        /* \"#utility.yul\":5029:5050   */\n      mstore\n        /* \"#utility.yul\":5081:5085   */\n      0x20\n        /* \"#utility.yul\":5074:5079   */\n      dup2\n        /* \"#utility.yul\":5070:5086   */\n      add\n        /* \"#utility.yul\":5119:5122   */\n      dup5\n        /* \"#utility.yul\":5110:5116   */\n      dup5\n        /* \"#utility.yul\":5105:5108   */\n      dup5\n        /* \"#utility.yul\":5101:5117   */\n      add\n        /* \"#utility.yul\":5098:5123   */\n      gt\n        /* \"#utility.yul\":5095:5207   */\n      iszero\n      tag_539\n      jumpi\n        /* \"#utility.yul\":5126:5205   */\n      tag_540\n      tag_407\n      jump\t// in\n    tag_540:\n        /* \"#utility.yul\":5095:5207   */\n    tag_539:\n        /* \"#utility.yul\":5216:5270   */\n      tag_541\n        /* \"#utility.yul\":5263:5269   */\n      dup5\n        /* \"#utility.yul\":5258:5261   */\n      dup3\n        /* \"#utility.yul\":5253:5256   */\n      dup6\n        /* \"#utility.yul\":5216:5270   */\n      tag_411\n      jump\t// in\n    tag_541:\n        /* \"#utility.yul\":4935:5276   */\n      pop\n        /* \"#utility.yul\":4851:5276   */\n      swap4\n      swap3\n      pop\n      pop\n      pop\n      jump\t// out\n        /* \"#utility.yul\":5296:5636   */\n    tag_413:\n        /* \"#utility.yul\":5352:5357   */\n      0x00\n        /* \"#utility.yul\":5401:5404   */\n      dup3\n        /* \"#utility.yul\":5394:5398   */\n      0x1f\n        /* \"#utility.yul\":5386:5392   */\n      dup4\n        /* \"#utility.yul\":5382:5399   */\n      add\n        /* \"#utility.yul\":5378:5405   */\n      slt\n        /* \"#utility.yul\":5368:5490   */\n      tag_543\n      jumpi\n        /* \"#utility.yul\":5409:5488   */\n      tag_544\n      tag_406\n      jump\t// in\n    tag_544:\n        /* \"#utility.yul\":5368:5490   */\n    tag_543:\n        /* \"#utility.yul\":5526:5532   */\n      dup2\n        /* \"#utility.yul\":5513:5533   */\n      calldataload\n        /* \"#utility.yul\":5551:5630   */\n      tag_545\n        /* \"#utility.yul\":5626:5629   */\n      dup5\n        /* \"#utility.yul\":5618:5624   */\n      dup3\n        /* \"#utility.yul\":5611:5615   */\n      0x20\n        /* \"#utility.yul\":5603:5609   */\n      dup7\n        /* \"#utility.yul\":5599:5616   */\n      add\n        /* \"#utility.yul\":5551:5630   */\n      tag_412\n      jump\t// in\n    tag_545:\n        /* \"#utility.yul\":5542:5630   */\n      swap2\n      pop\n        /* \"#utility.yul\":5358:5636   */\n      pop\n        /* \"#utility.yul\":5296:5636   */\n      swap3\n      swap2\n      pop\n      pop\n      jump\t// out\n        /* \"#utility.yul\":5642:6476   */\n    tag_30:\n        /* \"#utility.yul\":5730:5736   */\n      0x00\n        /* \"#utility.yul\":5738:5744   */\n      dup1\n        /* \"#utility.yul\":5787:5789   */\n      0x40\n        /* \"#utility.yul\":5775:5784   */\n      dup4\n        /* \"#utility.yul\":5766:5773   */\n      dup6\n        /* \"#utility.yul\":5762:5785   */\n      sub\n        /* \"#utility.yul\":5758:5790   */\n      slt\n        /* \"#utility.yul\":5755:5874   */\n      iszero\n      tag_547\n      jumpi\n        /* \"#utility.yul\":5793:5872   */\n      tag_548\n      tag_390\n      jump\t// in\n    tag_548:\n        /* \"#utility.yul\":5755:5874   */\n    tag_547:\n        /* \"#utility.yul\":5941:5942   */\n      0x00\n        /* \"#utility.yul\":5930:5939   */\n      dup4\n        /* \"#utility.yul\":5926:5943   */\n      add\n        /* \"#utility.yul\":5913:5944   */\n      calldataload\n        /* \"#utility.yul\":5971:5989   */\n      0xffffffffffffffff\n        /* \"#utility.yul\":5963:5969   */\n      dup2\n        /* \"#utility.yul\":5960:5990   */\n      gt\n        /* \"#utility.yul\":5957:6074   */\n      iszero\n      tag_549\n      jumpi\n        /* \"#utility.yul\":5993:6072   */\n      tag_550\n      tag_391\n      jump\t// in\n    tag_550:\n        /* \"#utility.yul\":5957:6074   */\n    tag_549:\n        /* \"#utility.yul\":6098:6161   */\n      tag_551\n        /* \"#utility.yul\":6153:6160   */\n      dup6\n        /* \"#utility.yul\":6144:6150   */\n      dup3\n        /* \"#utility.yul\":6133:6142   */\n      dup7\n        /* \"#utility.yul\":6129:6151   */\n      add\n        /* \"#utility.yul\":6098:6161   */\n      tag_413\n      jump\t// in\n    tag_551:\n        /* \"#utility.yul\":6088:6161   */\n      swap3\n      pop\n        /* \"#utility.yul\":5884:6171   */\n      pop\n        /* \"#utility.yul\":6238:6240   */\n      0x20\n        /* \"#utility.yul\":6227:6236   */\n      dup4\n        /* \"#utility.yul\":6223:6241   */\n      add\n        /* \"#utility.yul\":6210:6242   */\n      calldataload\n        /* \"#utility.yul\":6269:6287   */\n      0xffffffffffffffff\n        /* \"#utility.yul\":6261:6267   */\n      dup2\n        /* \"#utility.yul\":6258:6288   */\n      gt\n        /* \"#utility.yul\":6255:6372   */\n      iszero\n      tag_552\n      jumpi\n        /* \"#utility.yul\":6291:6370   */\n      tag_553\n      tag_391\n      jump\t// in\n    tag_553:\n        /* \"#utility.yul\":6255:6372   */\n    tag_552:\n        /* \"#utility.yul\":6396:6459   */\n      tag_554\n        /* \"#utility.yul\":6451:6458   */\n      dup6\n        /* \"#utility.yul\":6442:6448   */\n      dup3\n        /* \"#utility.yul\":6431:6440   */\n      dup7\n        /* \"#utility.yul\":6427:6449   */\n      add\n        /* \"#utility.yul\":6396:6459   */\n      tag_413\n      jump\t// in\n    tag_554:\n        /* \"#utility.yul\":6386:6459   */\n      swap2\n      pop\n        /* \"#utility.yul\":6181:6469   */\n      pop\n        /* \"#utility.yul\":5642:6476   */\n      swap3\n      pop\n      swap3\n      swap1\n      pop\n      jump\t// out\n        /* \"#utility.yul\":6482:6600   */\n    tag_414:\n        /* \"#utility.yul\":6569:6593   */\n      tag_556\n        /* \"#utility.yul\":6587:6592   */\n      dup2\n        /* \"#utility.yul\":6569:6593   */\n      tag_393\n      jump\t// in\n    tag_556:\n        /* \"#utility.yul\":6564:6567   */\n      dup3\n        /* \"#utility.yul\":6557:6594   */\n      mstore\n        /* \"#utility.yul\":6482:6600   */\n      pop\n      pop\n      jump\t// out\n        /* \"#utility.yul\":6606:6828   */\n    tag_35:\n        /* \"#utility.yul\":6699:6703   */\n      0x00\n        /* \"#utility.yul\":6737:6739   */\n      0x20\n        /* \"#utility.yul\":6726:6735   */\n      dup3\n        /* \"#utility.yul\":6722:6740   */\n      add\n        /* \"#utility.yul\":6714:6740   */\n      swap1\n      pop\n        /* \"#utility.yul\":6750:6821   */\n      tag_558\n        /* \"#utility.yul\":6818:6819   */\n      0x00\n        /* \"#utility.yul\":6807:6816   */\n      dup4\n        /* \"#utility.yul\":6803:6820   */\n      add\n        /* \"#utility.yul\":6794:6800   */\n      dup5\n        /* \"#utility.yul\":6750:6821   */\n      tag_414\n      jump\t// in\n    tag_558:\n        /* \"#utility.yul\":6606:6828   */\n      swap3\n      swap2\n      pop\n      pop\n      jump\t// out\n        /* \"#utility.yul\":6834:7343   */\n    tag_38:\n        /* \"#utility.yul\":6903:6909   */\n      0x00\n        /* \"#utility.yul\":6952:6954   */\n      0x20\n        /* \"#utility.yul\":6940:6949   */\n      dup3\n        /* \"#utility.yul\":6931:6938   */\n      dup5\n        /* \"#utility.yul\":6927:6950   */\n      sub\n        /* \"#utility.yul\":6923:6955   */\n      slt\n        /* \"#utility.yul\":6920:7039   */\n      iszero\n      tag_560\n      jumpi\n        /* \"#utility.yul\":6958:7037   */\n      tag_561\n      tag_390\n      jump\t// in\n    tag_561:\n        /* \"#utility.yul\":6920:7039   */\n    tag_560:\n        /* \"#utility.yul\":7106:7107   */\n      0x00\n        /* \"#utility.yul\":7095:7104   */\n      dup3\n        /* \"#utility.yul\":7091:7108   */\n      add\n        /* \"#utility.yul\":7078:7109   */\n      calldataload\n        /* \"#utility.yul\":7136:7154   */\n      0xffffffffffffffff\n        /* \"#utility.yul\":7128:7134   */\n      dup2\n        /* \"#utility.yul\":7125:7155   */\n      gt\n        /* \"#utility.yul\":7122:7239   */\n      iszero\n      tag_562\n      jumpi\n        /* \"#utility.yul\":7158:7237   */\n      tag_563\n      tag_391\n      jump\t// in\n    tag_563:\n        /* \"#utility.yul\":7122:7239   */\n    tag_562:\n        /* \"#utility.yul\":7263:7326   */\n      tag_564\n        /* \"#utility.yul\":7318:7325   */\n      dup5\n        /* \"#utility.yul\":7309:7315   */\n      dup3\n        /* \"#utility.yul\":7298:7307   */\n      dup6\n        /* \"#utility.yul\":7294:7316   */\n      add\n        /* \"#utility.yul\":7263:7326   */\n      tag_413\n      jump\t// in\n    tag_564:\n        /* \"#utility.yul\":7253:7326   */\n      swap2\n      pop\n        /* \"#utility.yul\":7049:7336   */\n      pop\n        /* \"#utility.yul\":6834:7343   */\n      swap3\n      swap2\n      pop\n      pop\n      jump\t// out\n        /* \"#utility.yul\":7349:7508   */\n    tag_415:\n        /* \"#utility.yul\":7423:7434   */\n      0x00\n        /* \"#utility.yul\":7457:7463   */\n      dup3\n        /* \"#utility.yul\":7452:7455   */\n      dup3\n        /* \"#utility.yul\":7445:7464   */\n      mstore\n        /* \"#utility.yul\":7497:7501   */\n      0x20\n        /* \"#utility.yul\":7492:7495   */\n      dup3\n        /* \"#utility.yul\":7488:7502   */\n      add\n        /* \"#utility.yul\":7473:7502   */\n      swap1\n      pop\n        /* \"#utility.yul\":7349:7508   */\n      swap3\n      swap2\n      pop\n      pop\n      jump\t// out\n        /* \"#utility.yul\":7514:7871   */\n    tag_416:\n        /* \"#utility.yul\":7592:7595   */\n      0x00\n        /* \"#utility.yul\":7620:7659   */\n      tag_567\n        /* \"#utility.yul\":7653:7658   */\n      dup3\n        /* \"#utility.yul\":7620:7659   */\n      tag_401\n      jump\t// in\n    tag_567:\n        /* \"#utility.yul\":7675:7736   */\n      tag_568\n        /* \"#utility.yul\":7729:7735   */\n      dup2\n        /* \"#utility.yul\":7724:7727   */\n      dup6\n        /* \"#utility.yul\":7675:7736   */\n      tag_415\n      jump\t// in\n    tag_568:\n        /* \"#utility.yul\":7668:7736   */\n      swap4\n      pop\n        /* \"#utility.yul\":7745:7810   */\n      tag_569\n        /* \"#utility.yul\":7803:7809   */\n      dup2\n        /* \"#utility.yul\":7798:7801   */\n      dup6\n        /* \"#utility.yul\":7791:7795   */\n      0x20\n        /* \"#utility.yul\":7784:7789   */\n      dup7\n        /* \"#utility.yul\":7780:7796   */\n      add\n        /* \"#utility.yul\":7745:7810   */\n      tag_403\n      jump\t// in\n    tag_569:\n        /* \"#utility.yul\":7835:7864   */\n      tag_570\n        /* \"#utility.yul\":7857:7863   */\n      dup2\n        /* \"#utility.yul\":7835:7864   */\n      tag_404\n      jump\t// in\n    tag_570:\n        /* \"#utility.yul\":7830:7833   */\n      dup5\n        /* \"#utility.yul\":7826:7865   */\n      add\n        /* \"#utility.yul\":7819:7865   */\n      swap2\n      pop\n        /* \"#utility.yul\":7596:7871   */\n      pop\n        /* \"#utility.yul\":7514:7871   */\n      swap3\n      swap2\n      pop\n      pop\n      jump\t// out\n        /* \"#utility.yul\":7877:7985   */\n    tag_417:\n        /* \"#utility.yul\":7954:7978   */\n      tag_572\n        /* \"#utility.yul\":7972:7977   */\n      dup2\n        /* \"#utility.yul\":7954:7978   */\n      tag_393\n      jump\t// in\n    tag_572:\n        /* \"#utility.yul\":7949:7952   */\n      dup3\n        /* \"#utility.yul\":7942:7979   */\n      mstore\n        /* \"#utility.yul\":7877:7985   */\n      pop\n      pop\n      jump\t// out\n        /* \"#utility.yul\":7991:8171   */\n    tag_99:\n        /* \"#utility.yul\":8039:8116   */\n      0x4e487b7100000000000000000000000000000000000000000000000000000000\n        /* \"#utility.yul\":8036:8037   */\n      0x00\n        /* \"#utility.yul\":8029:8117   */\n      mstore\n        /* \"#utility.yul\":8136:8140   */\n      0x21\n        /* \"#utility.yul\":8133:8134   */\n      0x04\n        /* \"#utility.yul\":8126:8141   */\n      mstore\n        /* \"#utility.yul\":8160:8164   */\n      0x24\n        /* \"#utility.yul\":8157:8158   */\n      0x00\n        /* \"#utility.yul\":8150:8165   */\n      revert\n        /* \"#utility.yul\":8177:8290   */\n    tag_418:\n        /* \"#utility.yul\":8258:8259   */\n      0x05\n        /* \"#utility.yul\":8251:8256   */\n      dup2\n        /* \"#utility.yul\":8248:8260   */\n      lt\n        /* \"#utility.yul\":8238:8284   */\n      tag_575\n      jumpi\n        /* \"#utility.yul\":8264:8282   */\n      tag_576\n      tag_99\n      jump\t// in\n    tag_576:\n        /* \"#utility.yul\":8238:8284   */\n    tag_575:\n        /* \"#utility.yul\":8177:8290   */\n      pop\n      jump\t// out\n        /* \"#utility.yul\":8296:8423   */\n    tag_419:\n        /* \"#utility.yul\":8341:8348   */\n      0x00\n        /* \"#utility.yul\":8370:8375   */\n      dup2\n        /* \"#utility.yul\":8359:8375   */\n      swap1\n      pop\n        /* \"#utility.yul\":8376:8417   */\n      tag_578\n        /* \"#utility.yul\":8411:8416   */\n      dup3\n        /* \"#utility.yul\":8376:8417   */\n      tag_418\n      jump\t// in\n    tag_578:\n        /* \"#utility.yul\":8296:8423   */\n      swap2\n      swap1\n      pop\n      jump\t// out\n        /* \"#utility.yul\":8429:8556   */\n    tag_420:\n        /* \"#utility.yul\":8485:8494   */\n      0x00\n        /* \"#utility.yul\":8518:8550   */\n      tag_580\n        /* \"#utility.yul\":8544:8549   */\n      dup3\n        /* \"#utility.yul\":8518:8550   */\n      tag_419\n      jump\t// in\n    tag_580:\n        /* \"#utility.yul\":8505:8550   */\n      swap1\n      pop\n        /* \"#utility.yul\":8429:8556   */\n      swap2\n      swap1\n      pop\n      jump\t// out\n        /* \"#utility.yul\":8562:8695   */\n    tag_421:\n        /* \"#utility.yul\":8645:8688   */\n      tag_582\n        /* \"#utility.yul\":8682:8687   */\n      dup2\n        /* \"#utility.yul\":8645:8688   */\n      tag_420\n      jump\t// in\n    tag_582:\n        /* \"#utility.yul\":8640:8643   */\n      dup3\n        /* \"#utility.yul\":8633:8689   */\n      mstore\n        /* \"#utility.yul\":8562:8695   */\n      pop\n      pop\n      jump\t// out\n        /* \"#utility.yul\":8701:8823   */\n    tag_422:\n        /* \"#utility.yul\":8791:8792   */\n      0x03\n        /* \"#utility.yul\":8784:8789   */\n      dup2\n        /* \"#utility.yul\":8781:8793   */\n      lt\n        /* \"#utility.yul\":8771:8817   */\n      tag_584\n      jumpi\n        /* \"#utility.yul\":8797:8815   */\n      tag_585\n      tag_99\n      jump\t// in\n    tag_585:\n        /* \"#utility.yul\":8771:8817   */\n    tag_584:\n        /* \"#utility.yul\":8701:8823   */\n      pop\n      jump\t// out\n        /* \"#utility.yul\":8829:8974   */\n    tag_423:\n        /* \"#utility.yul\":8883:8890   */\n      0x00\n        /* \"#utility.yul\":8912:8917   */\n      dup2\n        /* \"#utility.yul\":8901:8917   */\n      swap1\n      pop\n        /* \"#utility.yul\":8918:8968   */\n      tag_587\n        /* \"#utility.yul\":8962:8967   */\n      dup3\n        /* \"#utility.yul\":8918:8968   */\n      tag_422\n      jump\t// in\n    tag_587:\n        /* \"#utility.yul\":8829:8974   */\n      swap2\n      swap1\n      pop\n      jump\t// out\n        /* \"#utility.yul\":8980:9125   */\n    tag_424:\n        /* \"#utility.yul\":9045:9054   */\n      0x00\n        /* \"#utility.yul\":9078:9119   */\n      tag_589\n        /* \"#utility.yul\":9113:9118   */\n      dup3\n        /* \"#utility.yul\":9078:9119   */\n      tag_423\n      jump\t// in\n    tag_589:\n        /* \"#utility.yul\":9065:9119   */\n      swap1\n      pop\n        /* \"#utility.yul\":8980:9125   */\n      swap2\n      swap1\n      pop\n      jump\t// out\n        /* \"#utility.yul\":9131:9282   */\n    tag_425:\n        /* \"#utility.yul\":9223:9275   */\n      tag_591\n        /* \"#utility.yul\":9269:9274   */\n      dup2\n        /* \"#utility.yul\":9223:9275   */\n      tag_424\n      jump\t// in\n    tag_591:\n        /* \"#utility.yul\":9218:9221   */\n      dup3\n        /* \"#utility.yul\":9211:9276   */\n      mstore\n        /* \"#utility.yul\":9131:9282   */\n      pop\n      pop\n      jump\t// out\n        /* \"#utility.yul\":9348:10539   */\n    tag_426:\n        /* \"#utility.yul\":9463:9466   */\n      0x00\n        /* \"#utility.yul\":9499:9503   */\n      0xa0\n        /* \"#utility.yul\":9494:9497   */\n      dup4\n        /* \"#utility.yul\":9490:9504   */\n      add\n        /* \"#utility.yul\":9591:9595   */\n      0x00\n        /* \"#utility.yul\":9584:9589   */\n      dup4\n        /* \"#utility.yul\":9580:9596   */\n      add\n        /* \"#utility.yul\":9574:9597   */\n      mload\n        /* \"#utility.yul\":9644:9647   */\n      dup5\n        /* \"#utility.yul\":9638:9642   */\n      dup3\n        /* \"#utility.yul\":9634:9648   */\n      sub\n        /* \"#utility.yul\":9627:9631   */\n      0x00\n        /* \"#utility.yul\":9622:9625   */\n      dup7\n        /* \"#utility.yul\":9618:9632   */\n      add\n        /* \"#utility.yul\":9611:9649   */\n      mstore\n        /* \"#utility.yul\":9670:9743   */\n      tag_593\n        /* \"#utility.yul\":9738:9742   */\n      dup3\n        /* \"#utility.yul\":9724:9736   */\n      dup3\n        /* \"#utility.yul\":9670:9743   */\n      tag_416\n      jump\t// in\n    tag_593:\n        /* \"#utility.yul\":9662:9743   */\n      swap2\n      pop\n        /* \"#utility.yul\":9514:9754   */\n      pop\n        /* \"#utility.yul\":9848:9852   */\n      0x20\n        /* \"#utility.yul\":9841:9846   */\n      dup4\n        /* \"#utility.yul\":9837:9853   */\n      add\n        /* \"#utility.yul\":9831:9854   */\n      mload\n        /* \"#utility.yul\":9867:9930   */\n      tag_594\n        /* \"#utility.yul\":9924:9928   */\n      0x20\n        /* \"#utility.yul\":9919:9922   */\n      dup7\n        /* \"#utility.yul\":9915:9929   */\n      add\n        /* \"#utility.yul\":9901:9913   */\n      dup3\n        /* \"#utility.yul\":9867:9930   */\n      tag_417\n      jump\t// in\n    tag_594:\n        /* \"#utility.yul\":9764:9940   */\n      pop\n        /* \"#utility.yul\":10031:10035   */\n      0x40\n        /* \"#utility.yul\":10024:10029   */\n      dup4\n        /* \"#utility.yul\":10020:10036   */\n      add\n        /* \"#utility.yul\":10014:10037   */\n      mload\n        /* \"#utility.yul\":10050:10119   */\n      tag_595\n        /* \"#utility.yul\":10113:10117   */\n      0x40\n        /* \"#utility.yul\":10108:10111   */\n      dup7\n        /* \"#utility.yul\":10104:10118   */\n      add\n        /* \"#utility.yul\":10090:10102   */\n      dup3\n        /* \"#utility.yul\":10050:10119   */\n      tag_421\n      jump\t// in\n    tag_595:\n        /* \"#utility.yul\":9950:10129   */\n      pop\n        /* \"#utility.yul\":10220:10224   */\n      0x60\n        /* \"#utility.yul\":10213:10218   */\n      dup4\n        /* \"#utility.yul\":10209:10225   */\n      add\n        /* \"#utility.yul\":10203:10226   */\n      mload\n        /* \"#utility.yul\":10239:10317   */\n      tag_596\n        /* \"#utility.yul\":10311:10315   */\n      0x60\n        /* \"#utility.yul\":10306:10309   */\n      dup7\n        /* \"#utility.yul\":10302:10316   */\n      add\n        /* \"#utility.yul\":10288:10300   */\n      dup3\n        /* \"#utility.yul\":10239:10317   */\n      tag_425\n      jump\t// in\n    tag_596:\n        /* \"#utility.yul\":10139:10327   */\n      pop\n        /* \"#utility.yul\":10420:10424   */\n      0x80\n        /* \"#utility.yul\":10413:10418   */\n      dup4\n        /* \"#utility.yul\":10409:10425   */\n      add\n        /* \"#utility.yul\":10403:10426   */\n      mload\n        /* \"#utility.yul\":10439:10502   */\n      tag_597\n        /* \"#utility.yul\":10496:10500   */\n      0x80\n        /* \"#utility.yul\":10491:10494   */\n      dup7\n        /* \"#utility.yul\":10487:10501   */\n      add\n        /* \"#utility.yul\":10473:10485   */\n      dup3\n        /* \"#utility.yul\":10439:10502   */\n      tag_417\n      jump\t// in\n    tag_597:\n        /* \"#utility.yul\":10337:10512   */\n      pop\n        /* \"#utility.yul\":10529:10533   */\n      dup1\n        /* \"#utility.yul\":10522:10533   */\n      swap2\n      pop\n        /* \"#utility.yul\":9468:10539   */\n      pop\n        /* \"#utility.yul\":9348:10539   */\n      swap3\n      swap2\n      pop\n      pop\n      jump\t// out\n        /* \"#utility.yul\":10545:10653   */\n    tag_427:\n        /* \"#utility.yul\":10622:10646   */\n      tag_599\n        /* \"#utility.yul\":10640:10645   */\n      dup2\n        /* \"#utility.yul\":10622:10646   */\n      tag_398\n      jump\t// in\n    tag_599:\n        /* \"#utility.yul\":10617:10620   */\n      dup3\n        /* \"#utility.yul\":10610:10647   */\n      mstore\n        /* \"#utility.yul\":10545:10653   */\n      pop\n      pop\n      jump\t// out\n        /* \"#utility.yul\":10743:11423   */\n    tag_428:\n        /* \"#utility.yul\":10892:10895   */\n      0x00\n        /* \"#utility.yul\":10928:10932   */\n      0x40\n        /* \"#utility.yul\":10923:10926   */\n      dup4\n        /* \"#utility.yul\":10919:10933   */\n      add\n        /* \"#utility.yul\":11022:11026   */\n      0x00\n        /* \"#utility.yul\":11015:11020   */\n      dup4\n        /* \"#utility.yul\":11011:11027   */\n      add\n        /* \"#utility.yul\":11005:11028   */\n      mload\n        /* \"#utility.yul\":11075:11078   */\n      dup5\n        /* \"#utility.yul\":11069:11073   */\n      dup3\n        /* \"#utility.yul\":11065:11079   */\n      sub\n        /* \"#utility.yul\":11058:11062   */\n      0x00\n        /* \"#utility.yul\":11053:11056   */\n      dup7\n        /* \"#utility.yul\":11049:11063   */\n      add\n        /* \"#utility.yul\":11042:11080   */\n      mstore\n        /* \"#utility.yul\":11101:11210   */\n      tag_601\n        /* \"#utility.yul\":11205:11209   */\n      dup3\n        /* \"#utility.yul\":11191:11203   */\n      dup3\n        /* \"#utility.yul\":11101:11210   */\n      tag_426\n      jump\t// in\n    tag_601:\n        /* \"#utility.yul\":11093:11210   */\n      swap2\n      pop\n        /* \"#utility.yul\":10943:11221   */\n      pop\n        /* \"#utility.yul\":11304:11308   */\n      0x20\n        /* \"#utility.yul\":11297:11302   */\n      dup4\n        /* \"#utility.yul\":11293:11309   */\n      add\n        /* \"#utility.yul\":11287:11310   */\n      mload\n        /* \"#utility.yul\":11323:11386   */\n      tag_602\n        /* \"#utility.yul\":11380:11384   */\n      0x20\n        /* \"#utility.yul\":11375:11378   */\n      dup7\n        /* \"#utility.yul\":11371:11385   */\n      add\n        /* \"#utility.yul\":11357:11369   */\n      dup3\n        /* \"#utility.yul\":11323:11386   */\n      tag_427\n      jump\t// in\n    tag_602:\n        /* \"#utility.yul\":11231:11396   */\n      pop\n        /* \"#utility.yul\":11413:11417   */\n      dup1\n        /* \"#utility.yul\":11406:11417   */\n      swap2\n      pop\n        /* \"#utility.yul\":10897:11423   */\n      pop\n        /* \"#utility.yul\":10743:11423   */\n      swap3\n      swap2\n      pop\n      pop\n      jump\t// out\n        /* \"#utility.yul\":11429:11862   */\n    tag_41:\n        /* \"#utility.yul\":11602:11606   */\n      0x00\n        /* \"#utility.yul\":11640:11642   */\n      0x20\n        /* \"#utility.yul\":11629:11638   */\n      dup3\n        /* \"#utility.yul\":11625:11643   */\n      add\n        /* \"#utility.yul\":11617:11643   */\n      swap1\n      pop\n        /* \"#utility.yul\":11689:11698   */\n      dup2\n        /* \"#utility.yul\":11683:11687   */\n      dup2\n        /* \"#utility.yul\":11679:11699   */\n      sub\n        /* \"#utility.yul\":11675:11676   */\n      0x00\n        /* \"#utility.yul\":11664:11673   */\n      dup4\n        /* \"#utility.yul\":11660:11677   */\n      add\n        /* \"#utility.yul\":11653:11700   */\n      mstore\n        /* \"#utility.yul\":11717:11855   */\n      tag_604\n        /* \"#utility.yul\":11850:11854   */\n      dup2\n        /* \"#utility.yul\":11841:11847   */\n      dup5\n        /* \"#utility.yul\":11717:11855   */\n      tag_428\n      jump\t// in\n    tag_604:\n        /* \"#utility.yul\":11709:11855   */\n      swap1\n      pop\n        /* \"#utility.yul\":11429:11862   */\n      swap3\n      swap2\n      pop\n      pop\n      jump\t// out\n        /* \"#utility.yul\":11868:11984   */\n    tag_429:\n        /* \"#utility.yul\":11938:11959   */\n      tag_606\n        /* \"#utility.yul\":11953:11958   */\n      dup2\n        /* \"#utility.yul\":11938:11959   */\n      tag_396\n      jump\t// in\n    tag_606:\n        /* \"#utility.yul\":11931:11936   */\n      dup2\n        /* \"#utility.yul\":11928:11960   */\n      eq\n        /* \"#utility.yul\":11918:11978   */\n      tag_607\n      jumpi\n        /* \"#utility.yul\":11974:11975   */\n      0x00\n        /* \"#utility.yul\":11971:11972   */\n      dup1\n        /* \"#utility.yul\":11964:11976   */\n      revert\n        /* \"#utility.yul\":11918:11978   */\n    tag_607:\n        /* \"#utility.yul\":11868:11984   */\n      pop\n      jump\t// out\n        /* \"#utility.yul\":11990:12123   */\n    tag_430:\n        /* \"#utility.yul\":12033:12038   */\n      0x00\n        /* \"#utility.yul\":12071:12077   */\n      dup2\n        /* \"#utility.yul\":12058:12078   */\n      calldataload\n        /* \"#utility.yul\":12049:12078   */\n      swap1\n      pop\n        /* \"#utility.yul\":12087:12117   */\n      tag_609\n        /* \"#utility.yul\":12111:12116   */\n      dup2\n        /* \"#utility.yul\":12087:12117   */\n      tag_429\n      jump\t// in\n    tag_609:\n        /* \"#utility.yul\":11990:12123   */\n      swap3\n      swap2\n      pop\n      pop\n      jump\t// out\n        /* \"#utility.yul\":12129:12777   */\n    tag_44:\n        /* \"#utility.yul\":12204:12210   */\n      0x00\n        /* \"#utility.yul\":12212:12218   */\n      dup1\n        /* \"#utility.yul\":12261:12263   */\n      0x40\n        /* \"#utility.yul\":12249:12258   */\n      dup4\n        /* \"#utility.yul\":12240:12247   */\n      dup6\n        /* \"#utility.yul\":12236:12259   */\n      sub\n        /* \"#utility.yul\":12232:12264   */\n      slt\n        /* \"#utility.yul\":12229:12348   */\n      iszero\n      tag_611\n      jumpi\n        /* \"#utility.yul\":12267:12346   */\n      tag_612\n      tag_390\n      jump\t// in\n    tag_612:\n        /* \"#utility.yul\":12229:12348   */\n    tag_611:\n        /* \"#utility.yul\":12415:12416   */\n      0x00\n        /* \"#utility.yul\":12404:12413   */\n      dup4\n        /* \"#utility.yul\":12400:12417   */\n      add\n        /* \"#utility.yul\":12387:12418   */\n      calldataload\n        /* \"#utility.yul\":12445:12463   */\n      0xffffffffffffffff\n        /* \"#utility.yul\":12437:12443   */\n      dup2\n        /* \"#utility.yul\":12434:12464   */\n      gt\n        /* \"#utility.yul\":12431:12548   */\n      iszero\n      tag_613\n      jumpi\n        /* \"#utility.yul\":12467:12546   */\n      tag_614\n      tag_391\n      jump\t// in\n    tag_614:\n        /* \"#utility.yul\":12431:12548   */\n    tag_613:\n        /* \"#utility.yul\":12572:12635   */\n      tag_615\n        /* \"#utility.yul\":12627:12634   */\n      dup6\n        /* \"#utility.yul\":12618:12624   */\n      dup3\n        /* \"#utility.yul\":12607:12616   */\n      dup7\n        /* \"#utility.yul\":12603:12625   */\n      add\n        /* \"#utility.yul\":12572:12635   */\n      tag_413\n      jump\t// in\n    tag_615:\n        /* \"#utility.yul\":12562:12635   */\n      swap3\n      pop\n        /* \"#utility.yul\":12358:12645   */\n      pop\n        /* \"#utility.yul\":12684:12686   */\n      0x20\n        /* \"#utility.yul\":12710:12760   */\n      tag_616\n        /* \"#utility.yul\":12752:12759   */\n      dup6\n        /* \"#utility.yul\":12743:12749   */\n      dup3\n        /* \"#utility.yul\":12732:12741   */\n      dup7\n        /* \"#utility.yul\":12728:12750   */\n      add\n        /* \"#utility.yul\":12710:12760   */\n      tag_430\n      jump\t// in\n    tag_616:\n        /* \"#utility.yul\":12700:12760   */\n      swap2\n      pop\n        /* \"#utility.yul\":12655:12770   */\n      pop\n        /* \"#utility.yul\":12129:12777   */\n      swap3\n      pop\n      swap3\n      swap1\n      pop\n      jump\t// out\n        /* \"#utility.yul\":12783:12890   */\n    tag_431:\n        /* \"#utility.yul\":12864:12865   */\n      0x05\n        /* \"#utility.yul\":12857:12862   */\n      dup2\n        /* \"#utility.yul\":12854:12866   */\n      lt\n        /* \"#utility.yul\":12844:12884   */\n      tag_618\n      jumpi\n        /* \"#utility.yul\":12880:12881   */\n      0x00\n        /* \"#utility.yul\":12877:12878   */\n      dup1\n        /* \"#utility.yul\":12870:12882   */\n      revert\n        /* \"#utility.yul\":12844:12884   */\n    tag_618:\n        /* \"#utility.yul\":12783:12890   */\n      pop\n      jump\t// out\n        /* \"#utility.yul\":12896:13051   */\n    tag_432:\n        /* \"#utility.yul\":12950:12955   */\n      0x00\n        /* \"#utility.yul\":12988:12994   */\n      dup2\n        /* \"#utility.yul\":12975:12995   */\n      calldataload\n        /* \"#utility.yul\":12966:12995   */\n      swap1\n      pop\n        /* \"#utility.yul\":13004:13045   */\n      tag_620\n        /* \"#utility.yul\":13039:13044   */\n      dup2\n        /* \"#utility.yul\":13004:13045   */\n      tag_431\n      jump\t// in\n    tag_620:\n        /* \"#utility.yul\":12896:13051   */\n      swap3\n      swap2\n      pop\n      pop\n      jump\t// out\n        /* \"#utility.yul\":13057:13402   */\n    tag_48:\n        /* \"#utility.yul\":13124:13130   */\n      0x00\n        /* \"#utility.yul\":13173:13175   */\n      0x20\n        /* \"#utility.yul\":13161:13170   */\n      dup3\n        /* \"#utility.yul\":13152:13159   */\n      dup5\n        /* \"#utility.yul\":13148:13171   */\n      sub\n        /* \"#utility.yul\":13144:13176   */\n      slt\n        /* \"#utility.yul\":13141:13260   */\n      iszero\n      tag_622\n      jumpi\n        /* \"#utility.yul\":13179:13258   */\n      tag_623\n      tag_390\n      jump\t// in\n    tag_623:\n        /* \"#utility.yul\":13141:13260   */\n    tag_622:\n        /* \"#utility.yul\":13299:13300   */\n      0x00\n        /* \"#utility.yul\":13324:13385   */\n      tag_624\n        /* \"#utility.yul\":13377:13384   */\n      dup5\n        /* \"#utility.yul\":13368:13374   */\n      dup3\n        /* \"#utility.yul\":13357:13366   */\n      dup6\n        /* \"#utility.yul\":13353:13375   */\n      add\n        /* \"#utility.yul\":13324:13385   */\n      tag_432\n      jump\t// in\n    tag_624:\n        /* \"#utility.yul\":13314:13385   */\n      swap2\n      pop\n        /* \"#utility.yul\":13270:13395   */\n      pop\n        /* \"#utility.yul\":13057:13402   */\n      swap3\n      swap2\n      pop\n      pop\n      jump\t// out\n        /* \"#utility.yul\":13408:13550   */\n    tag_433:\n        /* \"#utility.yul\":13503:13509   */\n      0x00\n        /* \"#utility.yul\":13537:13542   */\n      dup2\n        /* \"#utility.yul\":13531:13543   */\n      mload\n        /* \"#utility.yul\":13521:13543   */\n      swap1\n      pop\n        /* \"#utility.yul\":13408:13550   */\n      swap2\n      swap1\n      pop\n      jump\t// out\n        /* \"#utility.yul\":13556:13768   */\n    tag_434:\n        /* \"#utility.yul\":13683:13694   */\n      0x00\n        /* \"#utility.yul\":13717:13723   */\n      dup3\n        /* \"#utility.yul\":13712:13715   */\n      dup3\n        /* \"#utility.yul\":13705:13724   */\n      mstore\n        /* \"#utility.yul\":13757:13761   */\n      0x20\n        /* \"#utility.yul\":13752:13755   */\n      dup3\n        /* \"#utility.yul\":13748:13762   */\n      add\n        /* \"#utility.yul\":13733:13762   */\n      swap1\n      pop\n        /* \"#utility.yul\":13556:13768   */\n      swap3\n      swap2\n      pop\n      pop\n      jump\t// out\n        /* \"#utility.yul\":13774:13934   */\n    tag_435:\n        /* \"#utility.yul\":13869:13873   */\n      0x00\n        /* \"#utility.yul\":13892:13895   */\n      dup2\n        /* \"#utility.yul\":13884:13895   */\n      swap1\n      pop\n        /* \"#utility.yul\":13922:13926   */\n      0x20\n        /* \"#utility.yul\":13917:13920   */\n      dup3\n        /* \"#utility.yul\":13913:13927   */\n      add\n        /* \"#utility.yul\":13905:13927   */\n      swap1\n      pop\n        /* \"#utility.yul\":13774:13934   */\n      swap2\n      swap1\n      pop\n      jump\t// out\n        /* \"#utility.yul\":13940:14208   */\n    tag_436:\n        /* \"#utility.yul\":14065:14075   */\n      0x00\n        /* \"#utility.yul\":14100:14202   */\n      tag_629\n        /* \"#utility.yul\":14198:14201   */\n      dup4\n        /* \"#utility.yul\":14190:14196   */\n      dup4\n        /* \"#utility.yul\":14100:14202   */\n      tag_426\n      jump\t// in\n    tag_629:\n        /* \"#utility.yul\":14086:14202   */\n      swap1\n      pop\n        /* \"#utility.yul\":13940:14208   */\n      swap3\n      swap2\n      pop\n      pop\n      jump\t// out\n        /* \"#utility.yul\":14214:14355   */\n    tag_437:\n        /* \"#utility.yul\":14312:14316   */\n      0x00\n        /* \"#utility.yul\":14344:14348   */\n      0x20\n        /* \"#utility.yul\":14339:14342   */\n      dup3\n        /* \"#utility.yul\":14335:14349   */\n      add\n        /* \"#utility.yul\":14327:14349   */\n      swap1\n      pop\n        /* \"#utility.yul\":14214:14355   */\n      swap2\n      swap1\n      pop\n      jump\t// out\n        /* \"#utility.yul\":14425:15560   */\n    tag_438:\n        /* \"#utility.yul\":14600:14603   */\n      0x00\n        /* \"#utility.yul\":14629:14711   */\n      tag_632\n        /* \"#utility.yul\":14705:14710   */\n      dup3\n        /* \"#utility.yul\":14629:14711   */\n      tag_433\n      jump\t// in\n    tag_632:\n        /* \"#utility.yul\":14727:14841   */\n      tag_633\n        /* \"#utility.yul\":14834:14840   */\n      dup2\n        /* \"#utility.yul\":14829:14832   */\n      dup6\n        /* \"#utility.yul\":14727:14841   */\n      tag_434\n      jump\t// in\n    tag_633:\n        /* \"#utility.yul\":14720:14841   */\n      swap4\n      pop\n        /* \"#utility.yul\":14867:14870   */\n      dup4\n        /* \"#utility.yul\":14912:14916   */\n      0x20\n        /* \"#utility.yul\":14904:14910   */\n      dup3\n        /* \"#utility.yul\":14900:14917   */\n      mul\n        /* \"#utility.yul\":14895:14898   */\n      dup6\n        /* \"#utility.yul\":14891:14918   */\n      add\n        /* \"#utility.yul\":14942:15026   */\n      tag_634\n        /* \"#utility.yul\":15020:15025   */\n      dup6\n        /* \"#utility.yul\":14942:15026   */\n      tag_435\n      jump\t// in\n    tag_634:\n        /* \"#utility.yul\":15049:15056   */\n      dup1\n        /* \"#utility.yul\":15080:15081   */\n      0x00\n        /* \"#utility.yul\":15065:15515   */\n    tag_635:\n        /* \"#utility.yul\":15090:15096   */\n      dup6\n        /* \"#utility.yul\":15087:15088   */\n      dup2\n        /* \"#utility.yul\":15084:15097   */\n      lt\n        /* \"#utility.yul\":15065:15515   */\n      iszero\n      tag_637\n      jumpi\n        /* \"#utility.yul\":15161:15170   */\n      dup5\n        /* \"#utility.yul\":15155:15159   */\n      dup5\n        /* \"#utility.yul\":15151:15171   */\n      sub\n        /* \"#utility.yul\":15146:15149   */\n      dup10\n        /* \"#utility.yul\":15139:15172   */\n      mstore\n        /* \"#utility.yul\":15212:15218   */\n      dup2\n        /* \"#utility.yul\":15206:15219   */\n      mload\n        /* \"#utility.yul\":15240:15360   */\n      tag_638\n        /* \"#utility.yul\":15355:15359   */\n      dup6\n        /* \"#utility.yul\":15340:15353   */\n      dup3\n        /* \"#utility.yul\":15240:15360   */\n      tag_436\n      jump\t// in\n    tag_638:\n        /* \"#utility.yul\":15232:15360   */\n      swap5\n      pop\n        /* \"#utility.yul\":15383:15471   */\n      tag_639\n        /* \"#utility.yul\":15464:15470   */\n      dup4\n        /* \"#utility.yul\":15383:15471   */\n      tag_437\n      jump\t// in\n    tag_639:\n        /* \"#utility.yul\":15373:15471   */\n      swap3\n      pop\n        /* \"#utility.yul\":15500:15504   */\n      0x20\n        /* \"#utility.yul\":15495:15498   */\n      dup11\n        /* \"#utility.yul\":15491:15505   */\n      add\n        /* \"#utility.yul\":15484:15505   */\n      swap10\n      pop\n        /* \"#utility.yul\":15125:15515   */\n      pop\n        /* \"#utility.yul\":15112:15113   */\n      0x01\n        /* \"#utility.yul\":15109:15110   */\n      dup2\n        /* \"#utility.yul\":15105:15114   */\n      add\n        /* \"#utility.yul\":15100:15114   */\n      swap1\n      pop\n        /* \"#utility.yul\":15065:15515   */\n      jump(tag_635)\n    tag_637:\n        /* \"#utility.yul\":15069:15083   */\n      pop\n        /* \"#utility.yul\":15531:15535   */\n      dup3\n        /* \"#utility.yul\":15524:15535   */\n      swap8\n      pop\n        /* \"#utility.yul\":15551:15554   */\n      dup8\n        /* \"#utility.yul\":15544:15554   */\n      swap6\n      pop\n        /* \"#utility.yul\":14605:15560   */\n      pop\n      pop\n      pop\n      pop\n      pop\n        /* \"#utility.yul\":14425:15560   */\n      swap3\n      swap2\n      pop\n      pop\n      jump\t// out\n        /* \"#utility.yul\":15566:16051   */\n    tag_56:\n        /* \"#utility.yul\":15765:15769   */\n      0x00\n        /* \"#utility.yul\":15803:15805   */\n      0x20\n        /* \"#utility.yul\":15792:15801   */\n      dup3\n        /* \"#utility.yul\":15788:15806   */\n      add\n        /* \"#utility.yul\":15780:15806   */\n      swap1\n      pop\n        /* \"#utility.yul\":15852:15861   */\n      dup2\n        /* \"#utility.yul\":15846:15850   */\n      dup2\n        /* \"#utility.yul\":15842:15862   */\n      sub\n        /* \"#utility.yul\":15838:15839   */\n      0x00\n        /* \"#utility.yul\":15827:15836   */\n      dup4\n        /* \"#utility.yul\":15823:15840   */\n      add\n        /* \"#utility.yul\":15816:15863   */\n      mstore\n        /* \"#utility.yul\":15880:16044   */\n      tag_641\n        /* \"#utility.yul\":16039:16043   */\n      dup2\n        /* \"#utility.yul\":16030:16036   */\n      dup5\n        /* \"#utility.yul\":15880:16044   */\n      tag_438\n      jump\t// in\n    tag_641:\n        /* \"#utility.yul\":15872:16044   */\n      swap1\n      pop\n        /* \"#utility.yul\":15566:16051   */\n      swap3\n      swap2\n      pop\n      pop\n      jump\t// out\n        /* \"#utility.yul\":16057:16237   */\n    tag_439:\n        /* \"#utility.yul\":16105:16182   */\n      0x4e487b7100000000000000000000000000000000000000000000000000000000\n        /* \"#utility.yul\":16102:16103   */\n      0x00\n        /* \"#utility.yul\":16095:16183   */\n      mstore\n        /* \"#utility.yul\":16202:16206   */\n      0x22\n        /* \"#utility.yul\":16199:16200   */\n      0x04\n        /* \"#utility.yul\":16192:16207   */\n      mstore\n        /* \"#utility.yul\":16226:16230   */\n      0x24\n        /* \"#utility.yul\":16223:16224   */\n      0x00\n        /* \"#utility.yul\":16216:16231   */\n      revert\n        /* \"#utility.yul\":16243:16563   */\n    tag_59:\n        /* \"#utility.yul\":16287:16293   */\n      0x00\n        /* \"#utility.yul\":16324:16325   */\n      0x02\n        /* \"#utility.yul\":16318:16322   */\n      dup3\n        /* \"#utility.yul\":16314:16326   */\n      div\n        /* \"#utility.yul\":16304:16326   */\n      swap1\n      pop\n        /* \"#utility.yul\":16371:16372   */\n      0x01\n        /* \"#utility.yul\":16365:16369   */\n      dup3\n        /* \"#utility.yul\":16361:16373   */\n      and\n        /* \"#utility.yul\":16392:16410   */\n      dup1\n        /* \"#utility.yul\":16382:16463   */\n      tag_644\n      jumpi\n        /* \"#utility.yul\":16448:16452   */\n      0x7f\n        /* \"#utility.yul\":16440:16446   */\n      dup3\n        /* \"#utility.yul\":16436:16453   */\n      and\n        /* \"#utility.yul\":16426:16453   */\n      swap2\n      pop\n        /* \"#utility.yul\":16382:16463   */\n    tag_644:\n        /* \"#utility.yul\":16510:16512   */\n      0x20\n        /* \"#utility.yul\":16502:16508   */\n      dup3\n        /* \"#utility.yul\":16499:16513   */\n      lt\n        /* \"#utility.yul\":16479:16497   */\n      dup2\n        /* \"#utility.yul\":16476:16514   */\n      sub\n        /* \"#utility.yul\":16473:16557   */\n      tag_645\n      jumpi\n        /* \"#utility.yul\":16529:16547   */\n      tag_646\n      tag_439\n      jump\t// in\n    tag_646:\n        /* \"#utility.yul\":16473:16557   */\n    tag_645:\n        /* \"#utility.yul\":16294:16563   */\n      pop\n        /* \"#utility.yul\":16243:16563   */\n      swap2\n      swap1\n      pop\n      jump\t// out\n        /* \"#utility.yul\":16569:16648   */\n    tag_440:\n        /* \"#utility.yul\":16608:16615   */\n      0x00\n        /* \"#utility.yul\":16637:16642   */\n      dup2\n        /* \"#utility.yul\":16626:16642   */\n      swap1\n      pop\n        /* \"#utility.yul\":16569:16648   */\n      swap2\n      swap1\n      pop\n      jump\t// out\n        /* \"#utility.yul\":16654:16811   */\n    tag_441:\n        /* \"#utility.yul\":16759:16804   */\n      tag_649\n        /* \"#utility.yul\":16779:16803   */\n      tag_650\n        /* \"#utility.yul\":16797:16802   */\n      dup3\n        /* \"#utility.yul\":16779:16803   */\n      tag_398\n      jump\t// in\n    tag_650:\n        /* \"#utility.yul\":16759:16804   */\n      tag_440\n      jump\t// in\n    tag_649:\n        /* \"#utility.yul\":16754:16757   */\n      dup3\n        /* \"#utility.yul\":16747:16805   */\n      mstore\n        /* \"#utility.yul\":16654:16811   */\n      pop\n      pop\n      jump\t// out\n        /* \"#utility.yul\":16817:17355   */\n    tag_70:\n        /* \"#utility.yul\":16985:16988   */\n      0x00\n        /* \"#utility.yul\":17000:17075   */\n      tag_652\n        /* \"#utility.yul\":17071:17074   */\n      dup3\n        /* \"#utility.yul\":17062:17068   */\n      dup7\n        /* \"#utility.yul\":17000:17075   */\n      tag_441\n      jump\t// in\n    tag_652:\n        /* \"#utility.yul\":17100:17102   */\n      0x20\n        /* \"#utility.yul\":17095:17098   */\n      dup3\n        /* \"#utility.yul\":17091:17103   */\n      add\n        /* \"#utility.yul\":17084:17103   */\n      swap2\n      pop\n        /* \"#utility.yul\":17113:17188   */\n      tag_653\n        /* \"#utility.yul\":17184:17187   */\n      dup3\n        /* \"#utility.yul\":17175:17181   */\n      dup6\n        /* \"#utility.yul\":17113:17188   */\n      tag_441\n      jump\t// in\n    tag_653:\n        /* \"#utility.yul\":17213:17215   */\n      0x20\n        /* \"#utility.yul\":17208:17211   */\n      dup3\n        /* \"#utility.yul\":17204:17216   */\n      add\n        /* \"#utility.yul\":17197:17216   */\n      swap2\n      pop\n        /* \"#utility.yul\":17226:17301   */\n      tag_654\n        /* \"#utility.yul\":17297:17300   */\n      dup3\n        /* \"#utility.yul\":17288:17294   */\n      dup5\n        /* \"#utility.yul\":17226:17301   */\n      tag_441\n      jump\t// in\n    tag_654:\n        /* \"#utility.yul\":17326:17328   */\n      0x20\n        /* \"#utility.yul\":17321:17324   */\n      dup3\n        /* \"#utility.yul\":17317:17329   */\n      add\n        /* \"#utility.yul\":17310:17329   */\n      swap2\n      pop\n        /* \"#utility.yul\":17346:17349   */\n      dup2\n        /* \"#utility.yul\":17339:17349   */\n      swap1\n      pop\n        /* \"#utility.yul\":16817:17355   */\n      swap5\n      swap4\n      pop\n      pop\n      pop\n      pop\n      jump\t// out\n        /* \"#utility.yul\":17361:17541   */\n    tag_442:\n        /* \"#utility.yul\":17409:17486   */\n      0x4e487b7100000000000000000000000000000000000000000000000000000000\n        /* \"#utility.yul\":17406:17407   */\n      0x00\n        /* \"#utility.yul\":17399:17487   */\n      mstore\n        /* \"#utility.yul\":17506:17510   */\n      0x12\n        /* \"#utility.yul\":17503:17504   */\n      0x04\n        /* \"#utility.yul\":17496:17511   */\n      mstore\n        /* \"#utility.yul\":17530:17534   */\n      0x24\n        /* \"#utility.yul\":17527:17528   */\n      0x00\n        /* \"#utility.yul\":17520:17535   */\n      revert\n        /* \"#utility.yul\":17547:17723   */\n    tag_72:\n        /* \"#utility.yul\":17579:17580   */\n      0x00\n        /* \"#utility.yul\":17596:17616   */\n      tag_657\n        /* \"#utility.yul\":17614:17615   */\n      dup3\n        /* \"#utility.yul\":17596:17616   */\n      tag_398\n      jump\t// in\n    tag_657:\n        /* \"#utility.yul\":17591:17616   */\n      swap2\n      pop\n        /* \"#utility.yul\":17630:17650   */\n      tag_658\n        /* \"#utility.yul\":17648:17649   */\n      dup4\n        /* \"#utility.yul\":17630:17650   */\n      tag_398\n      jump\t// in\n    tag_658:\n        /* \"#utility.yul\":17625:17650   */\n      swap3\n      pop\n        /* \"#utility.yul\":17669:17670   */\n      dup3\n        /* \"#utility.yul\":17659:17694   */\n      tag_659\n      jumpi\n        /* \"#utility.yul\":17674:17692   */\n      tag_660\n      tag_442\n      jump\t// in\n    tag_660:\n        /* \"#utility.yul\":17659:17694   */\n    tag_659:\n        /* \"#utility.yul\":17715:17716   */\n      dup3\n        /* \"#utility.yul\":17712:17713   */\n      dup3\n        /* \"#utility.yul\":17708:17717   */\n      mod\n        /* \"#utility.yul\":17703:17717   */\n      swap1\n      pop\n        /* \"#utility.yul\":17547:17723   */\n      swap3\n      swap2\n      pop\n      pop\n      jump\t// out\n        /* \"#utility.yul\":17729:17909   */\n    tag_75:\n        /* \"#utility.yul\":17777:17854   */\n      0x4e487b7100000000000000000000000000000000000000000000000000000000\n        /* \"#utility.yul\":17774:17775   */\n      0x00\n        /* \"#utility.yul\":17767:17855   */\n      mstore\n        /* \"#utility.yul\":17874:17878   */\n      0x32\n        /* \"#utility.yul\":17871:17872   */\n      0x04\n        /* \"#utility.yul\":17864:17879   */\n      mstore\n        /* \"#utility.yul\":17898:17902   */\n      0x24\n        /* \"#utility.yul\":17895:17896   */\n      0x00\n        /* \"#utility.yul\":17888:17903   */\n      revert\n        /* \"#utility.yul\":17915:18082   */\n    tag_443:\n        /* \"#utility.yul\":18055:18074   */\n      0x557365726e616d65207265717569726564000000000000000000000000000000\n        /* \"#utility.yul\":18051:18052   */\n      0x00\n        /* \"#utility.yul\":18043:18049   */\n      dup3\n        /* \"#utility.yul\":18039:18053   */\n      add\n        /* \"#utility.yul\":18032:18075   */\n      mstore\n        /* \"#utility.yul\":17915:18082   */\n      pop\n      jump\t// out\n        /* \"#utility.yul\":18088:18454   */\n    tag_444:\n        /* \"#utility.yul\":18230:18233   */\n      0x00\n        /* \"#utility.yul\":18251:18318   */\n      tag_664\n        /* \"#utility.yul\":18315:18317   */\n      0x11\n        /* \"#utility.yul\":18310:18313   */\n      dup4\n        /* \"#utility.yul\":18251:18318   */\n      tag_402\n      jump\t// in\n    tag_664:\n        /* \"#utility.yul\":18244:18318   */\n      swap2\n      pop\n        /* \"#utility.yul\":18327:18420   */\n      tag_665\n        /* \"#utility.yul\":18416:18419   */\n      dup3\n        /* \"#utility.yul\":18327:18420   */\n      tag_443\n      jump\t// in\n    tag_665:\n        /* \"#utility.yul\":18445:18447   */\n      0x20\n        /* \"#utility.yul\":18440:18443   */\n      dup3\n        /* \"#utility.yul\":18436:18448   */\n      add\n        /* \"#utility.yul\":18429:18448   */\n      swap1\n      pop\n        /* \"#utility.yul\":18088:18454   */\n      swap2\n      swap1\n      pop\n      jump\t// out\n        /* \"#utility.yul\":18460:18989   */\n    tag_87:\n        /* \"#utility.yul\":18654:18658   */\n      0x00\n        /* \"#utility.yul\":18692:18694   */\n      0x40\n        /* \"#utility.yul\":18681:18690   */\n      dup3\n        /* \"#utility.yul\":18677:18695   */\n      add\n        /* \"#utility.yul\":18669:18695   */\n      swap1\n      pop\n        /* \"#utility.yul\":18705:18776   */\n      tag_667\n        /* \"#utility.yul\":18773:18774   */\n      0x00\n        /* \"#utility.yul\":18762:18771   */\n      dup4\n        /* \"#utility.yul\":18758:18775   */\n      add\n        /* \"#utility.yul\":18749:18755   */\n      dup5\n        /* \"#utility.yul\":18705:18776   */\n      tag_414\n      jump\t// in\n    tag_667:\n        /* \"#utility.yul\":18823:18832   */\n      dup2\n        /* \"#utility.yul\":18817:18821   */\n      dup2\n        /* \"#utility.yul\":18813:18833   */\n      sub\n        /* \"#utility.yul\":18808:18810   */\n      0x20\n        /* \"#utility.yul\":18797:18806   */\n      dup4\n        /* \"#utility.yul\":18793:18811   */\n      add\n        /* \"#utility.yul\":18786:18834   */\n      mstore\n        /* \"#utility.yul\":18851:18982   */\n      tag_668\n        /* \"#utility.yul\":18977:18981   */\n      dup2\n        /* \"#utility.yul\":18851:18982   */\n      tag_444\n      jump\t// in\n    tag_668:\n        /* \"#utility.yul\":18843:18982   */\n      swap1\n      pop\n        /* \"#utility.yul\":18460:18989   */\n      swap3\n      swap2\n      pop\n      pop\n      jump\t// out\n        /* \"#utility.yul\":18995:19161   */\n    tag_445:\n        /* \"#utility.yul\":19135:19153   */\n      0x47656f4861736820726571756972656400000000000000000000000000000000\n        /* \"#utility.yul\":19131:19132   */\n      0x00\n        /* \"#utility.yul\":19123:19129   */\n      dup3\n        /* \"#utility.yul\":19119:19133   */\n      add\n        /* \"#utility.yul\":19112:19154   */\n      mstore\n        /* \"#utility.yul\":18995:19161   */\n      pop\n      jump\t// out\n        /* \"#utility.yul\":19167:19533   */\n    tag_446:\n        /* \"#utility.yul\":19309:19312   */\n      0x00\n        /* \"#utility.yul\":19330:19397   */\n      tag_671\n        /* \"#utility.yul\":19394:19396   */\n      0x10\n        /* \"#utility.yul\":19389:19392   */\n      dup4\n        /* \"#utility.yul\":19330:19397   */\n      tag_402\n      jump\t// in\n    tag_671:\n        /* \"#utility.yul\":19323:19397   */\n      swap2\n      pop\n        /* \"#utility.yul\":19406:19499   */\n      tag_672\n        /* \"#utility.yul\":19495:19498   */\n      dup3\n        /* \"#utility.yul\":19406:19499   */\n      tag_445\n      jump\t// in\n    tag_672:\n        /* \"#utility.yul\":19524:19526   */\n      0x20\n        /* \"#utility.yul\":19519:19522   */\n      dup3\n        /* \"#utility.yul\":19515:19527   */\n      add\n        /* \"#utility.yul\":19508:19527   */\n      swap1\n      pop\n        /* \"#utility.yul\":19167:19533   */\n      swap2\n      swap1\n      pop\n      jump\t// out\n        /* \"#utility.yul\":19539:20068   */\n    tag_90:\n        /* \"#utility.yul\":19733:19737   */\n      0x00\n        /* \"#utility.yul\":19771:19773   */\n      0x40\n        /* \"#utility.yul\":19760:19769   */\n      dup3\n        /* \"#utility.yul\":19756:19774   */\n      add\n        /* \"#utility.yul\":19748:19774   */\n      swap1\n      pop\n        /* \"#utility.yul\":19784:19855   */\n      tag_674\n        /* \"#utility.yul\":19852:19853   */\n      0x00\n        /* \"#utility.yul\":19841:19850   */\n      dup4\n        /* \"#utility.yul\":19837:19854   */\n      add\n        /* \"#utility.yul\":19828:19834   */\n      dup5\n        /* \"#utility.yul\":19784:19855   */\n      tag_414\n      jump\t// in\n    tag_674:\n        /* \"#utility.yul\":19902:19911   */\n      dup2\n        /* \"#utility.yul\":19896:19900   */\n      dup2\n        /* \"#utility.yul\":19892:19912   */\n      sub\n        /* \"#utility.yul\":19887:19889   */\n      0x20\n        /* \"#utility.yul\":19876:19885   */\n      dup4\n        /* \"#utility.yul\":19872:19890   */\n      add\n        /* \"#utility.yul\":19865:19913   */\n      mstore\n        /* \"#utility.yul\":19930:20061   */\n      tag_675\n        /* \"#utility.yul\":20056:20060   */\n      dup2\n        /* \"#utility.yul\":19930:20061   */\n      tag_446\n      jump\t// in\n    tag_675:\n        /* \"#utility.yul\":19922:20061   */\n      swap1\n      pop\n        /* \"#utility.yul\":19539:20068   */\n      swap3\n      swap2\n      pop\n      pop\n      jump\t// out\n        /* \"#utility.yul\":20074:20215   */\n    tag_447:\n        /* \"#utility.yul\":20123:20127   */\n      0x00\n        /* \"#utility.yul\":20146:20149   */\n      dup2\n        /* \"#utility.yul\":20138:20149   */\n      swap1\n      pop\n        /* \"#utility.yul\":20169:20172   */\n      dup2\n        /* \"#utility.yul\":20166:20167   */\n      0x00\n        /* \"#utility.yul\":20159:20173   */\n      mstore\n        /* \"#utility.yul\":20203:20207   */\n      0x20\n        /* \"#utility.yul\":20200:20201   */\n      0x00\n        /* \"#utility.yul\":20190:20208   */\n      keccak256\n        /* \"#utility.yul\":20182:20208   */\n      swap1\n      pop\n        /* \"#utility.yul\":20074:20215   */\n      swap2\n      swap1\n      pop\n      jump\t// out\n        /* \"#utility.yul\":20221:20314   */\n    tag_448:\n        /* \"#utility.yul\":20258:20264   */\n      0x00\n        /* \"#utility.yul\":20305:20307   */\n      0x20\n        /* \"#utility.yul\":20300:20302   */\n      0x1f\n        /* \"#utility.yul\":20293:20298   */\n      dup4\n        /* \"#utility.yul\":20289:20303   */\n      add\n        /* \"#utility.yul\":20285:20308   */\n      div\n        /* \"#utility.yul\":20275:20308   */\n      swap1\n      pop\n        /* \"#utility.yul\":20221:20314   */\n      swap2\n      swap1\n      pop\n      jump\t// out\n        /* \"#utility.yul\":20320:20427   */\n    tag_449:\n        /* \"#utility.yul\":20364:20372   */\n      0x00\n        /* \"#utility.yul\":20414:20419   */\n      dup3\n        /* \"#utility.yul\":20408:20412   */\n      dup3\n        /* \"#utility.yul\":20404:20420   */\n      shl\n        /* \"#utility.yul\":20383:20420   */\n      swap1\n      pop\n        /* \"#utility.yul\":20320:20427   */\n      swap3\n      swap2\n      pop\n      pop\n      jump\t// out\n        /* \"#utility.yul\":20433:20826   */\n    tag_450:\n        /* \"#utility.yul\":20502:20508   */\n      0x00\n        /* \"#utility.yul\":20552:20553   */\n      0x08\n        /* \"#utility.yul\":20540:20550   */\n      dup4\n        /* \"#utility.yul\":20536:20554   */\n      mul\n        /* \"#utility.yul\":20575:20672   */\n      tag_680\n        /* \"#utility.yul\":20605:20671   */\n      0xffffffffffffffffffffffffffffffffffffffffffffffffffffffffffffffff\n        /* \"#utility.yul\":20594:20603   */\n      dup3\n        /* \"#utility.yul\":20575:20672   */\n      tag_449\n      jump\t// in\n    tag_680:\n        /* \"#utility.yul\":20693:20732   */\n      tag_681\n        /* \"#utility.yul\":20723:20731   */\n      dup7\n        /* \"#utility.yul\":20712:20721   */\n      dup4\n        /* \"#utility.yul\":20693:20732   */\n      tag_449\n      jump\t// in\n    tag_681:\n        /* \"#utility.yul\":20681:20732   */\n      swap6\n      pop\n        /* \"#utility.yul\":20765:20769   */\n      dup1\n        /* \"#utility.yul\":20761:20770   */\n      not\n        /* \"#utility.yul\":20754:20759   */\n      dup5\n        /* \"#utility.yul\":20750:20771   */\n      and\n        /* \"#utility.yul\":20741:20771   */\n      swap4\n      pop\n        /* \"#utility.yul\":20814:20818   */\n      dup1\n        /* \"#utility.yul\":20804:20812   */\n      dup7\n        /* \"#utility.yul\":20800:20819   */\n      and\n        /* \"#utility.yul\":20793:20798   */\n      dup5\n        /* \"#utility.yul\":20790:20820   */\n      or\n        /* \"#utility.yul\":20780:20820   */\n      swap3\n      pop\n        /* \"#utility.yul\":20509:20826   */\n      pop\n      pop\n        /* \"#utility.yul\":20433:20826   */\n      swap4\n      swap3\n      pop\n      pop\n      pop\n      jump\t// out\n        /* \"#utility.yul\":20832:20892   */\n    tag_451:\n        /* \"#utility.yul\":20860:20863   */\n      0x00\n        /* \"#utility.yul\":20881:20886   */\n      dup2\n        /* \"#utility.yul\":20874:20886   */\n      swap1\n      pop\n        /* \"#utility.yul\":20832:20892   */\n      swap2\n      swap1\n      pop\n      jump\t// out\n        /* \"#utility.yul\":20898:21040   */\n    tag_452:\n        /* \"#utility.yul\":20948:20957   */\n      0x00\n        /* \"#utility.yul\":20981:21034   */\n      tag_684\n        /* \"#utility.yul\":20999:21033   */\n      tag_685\n        /* \"#utility.yul\":21008:21032   */\n      tag_686\n        /* \"#utility.yul\":21026:21031   */\n      dup5\n        /* \"#utility.yul\":21008:21032   */\n      tag_398\n      jump\t// in\n    tag_686:\n        /* \"#utility.yul\":20999:21033   */\n      tag_451\n      jump\t// in\n    tag_685:\n        /* \"#utility.yul\":20981:21034   */\n      tag_398\n      jump\t// in\n    tag_684:\n        /* \"#utility.yul\":20968:21034   */\n      swap1\n      pop\n        /* \"#utility.yul\":20898:21040   */\n      swap2\n      swap1\n      pop\n      jump\t// out\n        /* \"#utility.yul\":21046:21121   */\n    tag_453:\n        /* \"#utility.yul\":21089:21092   */\n      0x00\n        /* \"#utility.yul\":21110:21115   */\n      dup2\n        /* \"#utility.yul\":21103:21115   */\n      swap1\n      pop\n        /* \"#utility.yul\":21046:21121   */\n      swap2\n      swap1\n      pop\n      jump\t// out\n        /* \"#utility.yul\":21127:21396   */\n    tag_454:\n        /* \"#utility.yul\":21237:21276   */\n      tag_689\n        /* \"#utility.yul\":21268:21275   */\n      dup4\n        /* \"#utility.yul\":21237:21276   */\n      tag_452\n      jump\t// in\n    tag_689:\n        /* \"#utility.yul\":21298:21389   */\n      tag_690\n        /* \"#utility.yul\":21347:21388   */\n      tag_691\n        /* \"#utility.yul\":21371:21387   */\n      dup3\n        /* \"#utility.yul\":21347:21388   */\n      tag_453\n      jump\t// in\n    tag_691:\n        /* \"#utility.yul\":21339:21345   */\n      dup5\n        /* \"#utility.yul\":21332:21336   */\n      dup5\n        /* \"#utility.yul\":21326:21337   */\n      sload\n        /* \"#utility.yul\":21298:21389   */\n      tag_450\n      jump\t// in\n    tag_690:\n        /* \"#utility.yul\":21292:21296   */\n      dup3\n        /* \"#utility.yul\":21285:21390   */\n      sstore\n        /* \"#utility.yul\":21203:21396   */\n      pop\n        /* \"#utility.yul\":21127:21396   */\n      pop\n      pop\n      pop\n      jump\t// out\n        /* \"#utility.yul\":21402:21475   */\n    tag_455:\n        /* \"#utility.yul\":21447:21450   */\n      0x00\n        /* \"#utility.yul\":21402:21475   */\n      swap1\n      jump\t// out\n        /* \"#utility.yul\":21481:21670   */\n    tag_456:\n        /* \"#utility.yul\":21558:21590   */\n      tag_694\n      tag_455\n      jump\t// in\n    tag_694:\n        /* \"#utility.yul\":21599:21664   */\n      tag_695\n        /* \"#utility.yul\":21657:21663   */\n      dup2\n        /* \"#utility.yul\":21649:21655   */\n      dup5\n        /* \"#utility.yul\":21643:21647   */\n      dup5\n        /* \"#utility.yul\":21599:21664   */\n      tag_454\n      jump\t// in\n    tag_695:\n        /* \"#utility.yul\":21534:21670   */\n      pop\n        /* \"#utility.yul\":21481:21670   */\n      pop\n      pop\n      jump\t// out\n        /* \"#utility.yul\":21676:21862   */\n    tag_457:\n        /* \"#utility.yul\":21736:21856   */\n    tag_697:\n        /* \"#utility.yul\":21753:21756   */\n      dup2\n        /* \"#utility.yul\":21746:21751   */\n      dup2\n        /* \"#utility.yul\":21743:21757   */\n      lt\n        /* \"#utility.yul\":21736:21856   */\n      iszero\n      tag_699\n      jumpi\n        /* \"#utility.yul\":21807:21846   */\n      tag_700\n        /* \"#utility.yul\":21844:21845   */\n      0x00\n        /* \"#utility.yul\":21837:21842   */\n      dup3\n        /* \"#utility.yul\":21807:21846   */\n      tag_456\n      jump\t// in\n    tag_700:\n        /* \"#utility.yul\":21780:21781   */\n      0x01\n        /* \"#utility.yul\":21773:21778   */\n      dup2\n        /* \"#utility.yul\":21769:21782   */\n      add\n        /* \"#utility.yul\":21760:21782   */\n      swap1\n      pop\n        /* \"#utility.yul\":21736:21856   */\n      jump(tag_697)\n    tag_699:\n        /* \"#utility.yul\":21676:21862   */\n      pop\n      pop\n      jump\t// out\n        /* \"#utility.yul\":21868:22411   */\n    tag_458:\n        /* \"#utility.yul\":21969:21971   */\n      0x1f\n        /* \"#utility.yul\":21964:21967   */\n      dup3\n        /* \"#utility.yul\":21961:21972   */\n      gt\n        /* \"#utility.yul\":21958:22404   */\n      iszero\n      tag_702\n      jumpi\n        /* \"#utility.yul\":22003:22041   */\n      tag_703\n        /* \"#utility.yul\":22035:22040   */\n      dup2\n        /* \"#utility.yul\":22003:22041   */\n      tag_447\n      jump\t// in\n    tag_703:\n        /* \"#utility.yul\":22087:22116   */\n      tag_704\n        /* \"#utility.yul\":22105:22115   */\n      dup5\n        /* \"#utility.yul\":22087:22116   */\n      tag_448\n      jump\t// in\n    tag_704:\n        /* \"#utility.yul\":22077:22085   */\n      dup2\n        /* \"#utility.yul\":22073:22117   */\n      add\n        /* \"#utility.yul\":22270:22272   */\n      0x20\n        /* \"#utility.yul\":22258:22268   */\n      dup6\n        /* \"#utility.yul\":22255:22273   */\n      lt\n        /* \"#utility.yul\":22252:22301   */\n      iszero\n      tag_705\n      jumpi\n        /* \"#utility.yul\":22291:22299   */\n      dup2\n        /* \"#utility.yul\":22276:22299   */\n      swap1\n      pop\n        /* \"#utility.yul\":22252:22301   */\n    tag_705:\n        /* \"#utility.yul\":22314:22394   */\n      tag_706\n        /* \"#utility.yul\":22370:22392   */\n      tag_707\n        /* \"#utility.yul\":22388:22391   */\n      dup6\n        /* \"#utility.yul\":22370:22392   */\n      tag_448\n      jump\t// in\n    tag_707:\n        /* \"#utility.yul\":22360:22368   */\n      dup4\n        /* \"#utility.yul\":22356:22393   */\n      add\n        /* \"#utility.yul\":22343:22354   */\n      dup3\n        /* \"#utility.yul\":22314:22394   */\n      tag_457\n      jump\t// in\n    tag_706:\n        /* \"#utility.yul\":21973:22404   */\n      pop\n      pop\n        /* \"#utility.yul\":21958:22404   */\n    tag_702:\n        /* \"#utility.yul\":21868:22411   */\n      pop\n      pop\n      pop\n      jump\t// out\n        /* \"#utility.yul\":22417:22534   */\n    tag_459:\n        /* \"#utility.yul\":22471:22479   */\n      0x00\n        /* \"#utility.yul\":22521:22526   */\n      dup3\n        /* \"#utility.yul\":22515:22519   */\n      dup3\n        /* \"#utility.yul\":22511:22527   */\n      shr\n        /* \"#utility.yul\":22490:22527   */\n      swap1\n      pop\n        /* \"#utility.yul\":22417:22534   */\n      swap3\n      swap2\n      pop\n      pop\n      jump\t// out\n        /* \"#utility.yul\":22540:22709   */\n    tag_460:\n        /* \"#utility.yul\":22584:22590   */\n      0x00\n        /* \"#utility.yul\":22617:22668   */\n      tag_710\n        /* \"#utility.yul\":22665:22666   */\n      0x00\n        /* \"#utility.yul\":22661:22667   */\n      not\n        /* \"#utility.yul\":22653:22658   */\n      dup5\n        /* \"#utility.yul\":22650:22651   */\n      0x08\n        /* \"#utility.yul\":22646:22659   */\n      mul\n        /* \"#utility.yul\":22617:22668   */\n      tag_459\n      jump\t// in\n    tag_710:\n        /* \"#utility.yul\":22613:22669   */\n      not\n        /* \"#utility.yul\":22698:22702   */\n      dup1\n        /* \"#utility.yul\":22692:22696   */\n      dup4\n        /* \"#utility.yul\":22688:22703   */\n      and\n        /* \"#utility.yul\":22678:22703   */\n      swap2\n      pop\n        /* \"#utility.yul\":22591:22709   */\n      pop\n        /* \"#utility.yul\":22540:22709   */\n      swap3\n      swap2\n      pop\n      pop\n      jump\t// out\n        /* \"#utility.yul\":22714:23009   */\n    tag_461:\n        /* \"#utility.yul\":22790:22794   */\n      0x00\n        /* \"#utility.yul\":22936:22965   */\n      tag_712\n        /* \"#utility.yul\":22961:22964   */\n      dup4\n        /* \"#utility.yul\":22955:22959   */\n      dup4\n        /* \"#utility.yul\":22936:22965   */\n      tag_460\n      jump\t// in\n    tag_712:\n        /* \"#utility.yul\":22928:22965   */\n      swap2\n      pop\n        /* \"#utility.yul\":22998:23001   */\n      dup3\n        /* \"#utility.yul\":22995:22996   */\n      0x02\n        /* \"#utility.yul\":22991:23002   */\n      mul\n        /* \"#utility.yul\":22985:22989   */\n      dup3\n        /* \"#utility.yul\":22982:23003   */\n      or\n        /* \"#utility.yul\":22974:23003   */\n      swap1\n      pop\n        /* \"#utility.yul\":22714:23009   */\n      swap3\n      swap2\n      pop\n      pop\n      jump\t// out\n        /* \"#utility.yul\":23014:24409   */\n    tag_103:\n        /* \"#utility.yul\":23131:23168   */\n      tag_714\n        /* \"#utility.yul\":23164:23167   */\n      dup3\n        /* \"#utility.yul\":23131:23168   */\n      tag_401\n      jump\t// in\n    tag_714:\n        /* \"#utility.yul\":23233:23251   */\n      0xffffffffffffffff\n        /* \"#utility.yul\":23225:23231   */\n      dup2\n        /* \"#utility.yul\":23222:23252   */\n      gt\n        /* \"#utility.yul\":23219:23275   */\n      iszero\n      tag_715\n      jumpi\n        /* \"#utility.yul\":23255:23273   */\n      tag_716\n      tag_64\n      jump\t// in\n    tag_716:\n        /* \"#utility.yul\":23219:23275   */\n    tag_715:\n        /* \"#utility.yul\":23299:23337   */\n      tag_717\n        /* \"#utility.yul\":23331:23335   */\n      dup3\n        /* \"#utility.yul\":23325:23336   */\n      sload\n        /* \"#utility.yul\":23299:23337   */\n      tag_59\n      jump\t// in\n    tag_717:\n        /* \"#utility.yul\":23384:23451   */\n      tag_718\n        /* \"#utility.yul\":23444:23450   */\n      dup3\n        /* \"#utility.yul\":23436:23442   */\n      dup3\n        /* \"#utility.yul\":23430:23434   */\n      dup6\n        /* \"#utility.yul\":23384:23451   */\n      tag_458\n      jump\t// in\n    tag_718:\n        /* \"#utility.yul\":23478:23479   */\n      0x00\n        /* \"#utility.yul\":23502:23506   */\n      0x20\n        /* \"#utility.yul\":23489:23506   */\n      swap1\n      pop\n        /* \"#utility.yul\":23534:23536   */\n      0x1f\n        /* \"#utility.yul\":23526:23532   */\n      dup4\n        /* \"#utility.yul\":23523:23537   */\n      gt\n        /* \"#utility.yul\":23551:23552   */\n      0x01\n        /* \"#utility.yul\":23546:24164   */\n      dup2\n      eq\n      tag_720\n      jumpi\n        /* \"#utility.yul\":24208:24209   */\n      0x00\n        /* \"#utility.yul\":24225:24231   */\n      dup5\n        /* \"#utility.yul\":24222:24299   */\n      iszero\n      tag_721\n      jumpi\n        /* \"#utility.yul\":24274:24283   */\n      dup3\n        /* \"#utility.yul\":24269:24272   */\n      dup8\n        /* \"#utility.yul\":24265:24284   */\n      add\n        /* \"#utility.yul\":24259:24285   */\n      mload\n        /* \"#utility.yul\":24250:24285   */\n      swap1\n      pop\n        /* \"#utility.yul\":24222:24299   */\n    tag_721:\n        /* \"#utility.yul\":24325:24392   */\n      tag_722\n        /* \"#utility.yul\":24385:24391   */\n      dup6\n        /* \"#utility.yul\":24378:24383   */\n      dup3\n        /* \"#utility.yul\":24325:24392   */\n      tag_461\n      jump\t// in\n    tag_722:\n        /* \"#utility.yul\":24319:24323   */\n      dup7\n        /* \"#utility.yul\":24312:24393   */\n      sstore\n        /* \"#utility.yul\":24181:24403   */\n      pop\n        /* \"#utility.yul\":23516:24403   */\n      jump(tag_719)\n        /* \"#utility.yul\":23546:24164   */\n    tag_720:\n        /* \"#utility.yul\":23598:23602   */\n      0x1f\n        /* \"#utility.yul\":23594:23603   */\n      not\n        /* \"#utility.yul\":23586:23592   */\n      dup5\n        /* \"#utility.yul\":23582:23604   */\n      and\n        /* \"#utility.yul\":23632:23669   */\n      tag_723\n        /* \"#utility.yul\":23664:23668   */\n      dup7\n        /* \"#utility.yul\":23632:23669   */\n      tag_447\n      jump\t// in\n    tag_723:\n        /* \"#utility.yul\":23691:23692   */\n      0x00\n        /* \"#utility.yul\":23705:23913   */\n    tag_724:\n        /* \"#utility.yul\":23719:23726   */\n      dup3\n        /* \"#utility.yul\":23716:23717   */\n      dup2\n        /* \"#utility.yul\":23713:23727   */\n      lt\n        /* \"#utility.yul\":23705:23913   */\n      iszero\n      tag_726\n      jumpi\n        /* \"#utility.yul\":23798:23807   */\n      dup5\n        /* \"#utility.yul\":23793:23796   */\n      dup10\n        /* \"#utility.yul\":23789:23808   */\n      add\n        /* \"#utility.yul\":23783:23809   */\n      mload\n        /* \"#utility.yul\":23775:23781   */\n      dup3\n        /* \"#utility.yul\":23768:23810   */\n      sstore\n        /* \"#utility.yul\":23849:23850   */\n      0x01\n        /* \"#utility.yul\":23841:23847   */\n      dup3\n        /* \"#utility.yul\":23837:23851   */\n      add\n        /* \"#utility.yul\":23827:23851   */\n      swap2\n      pop\n        /* \"#utility.yul\":23896:23898   */\n      0x20\n        /* \"#utility.yul\":23885:23894   */\n      dup6\n        /* \"#utility.yul\":23881:23899   */\n      add\n        /* \"#utility.yul\":23868:23899   */\n      swap5\n      pop\n        /* \"#utility.yul\":23742:23746   */\n      0x20\n        /* \"#utility.yul\":23739:23740   */\n      dup2\n        /* \"#utility.yul\":23735:23747   */\n      add\n        /* \"#utility.yul\":23730:23747   */\n      swap1\n      pop\n        /* \"#utility.yul\":23705:23913   */\n      jump(tag_724)\n    tag_726:\n        /* \"#utility.yul\":23941:23947   */\n      dup7\n        /* \"#utility.yul\":23932:23939   */\n      dup4\n        /* \"#utility.yul\":23929:23948   */\n      lt\n        /* \"#utility.yul\":23926:24105   */\n      iszero\n      tag_727\n      jumpi\n        /* \"#utility.yul\":23999:24008   */\n      dup5\n        /* \"#utility.yul\":23994:23997   */\n      dup10\n        /* \"#utility.yul\":23990:24009   */\n      add\n        /* \"#utility.yul\":23984:24010   */\n      mload\n        /* \"#utility.yul\":24042:24090   */\n      tag_728\n        /* \"#utility.yul\":24084:24088   */\n      0x1f\n        /* \"#utility.yul\":24076:24082   */\n      dup10\n        /* \"#utility.yul\":24072:24089   */\n      and\n        /* \"#utility.yul\":24061:24070   */\n      dup3\n        /* \"#utility.yul\":24042:24090   */\n      tag_460\n      jump\t// in\n    tag_728:\n        /* \"#utility.yul\":24034:24040   */\n      dup4\n        /* \"#utility.yul\":24027:24091   */\n      sstore\n        /* \"#utility.yul\":23949:24105   */\n      pop\n        /* \"#utility.yul\":23926:24105   */\n    tag_727:\n        /* \"#utility.yul\":24151:24152   */\n      0x01\n        /* \"#utility.yul\":24147:24148   */\n      0x02\n        /* \"#utility.yul\":24139:24145   */\n      dup9\n        /* \"#utility.yul\":24135:24149   */\n      mul\n        /* \"#utility.yul\":24131:24153   */\n      add\n        /* \"#utility.yul\":24125:24129   */\n      dup9\n        /* \"#utility.yul\":24118:24154   */\n      sstore\n        /* \"#utility.yul\":23553:24164   */\n      pop\n      pop\n      pop\n        /* \"#utility.yul\":23516:24403   */\n    tag_719:\n      pop\n        /* \"#utility.yul\":23106:24409   */\n      pop\n      pop\n      pop\n        /* \"#utility.yul\":23014:24409   */\n      pop\n      pop\n      jump\t// out\n        /* \"#utility.yul\":24415:25039   */\n    tag_108:\n        /* \"#utility.yul\":24604:24608   */\n      0x00\n        /* \"#utility.yul\":24642:24644   */\n      0x60\n        /* \"#utility.yul\":24631:24640   */\n      dup3\n        /* \"#utility.yul\":24627:24645   */\n      add\n        /* \"#utility.yul\":24619:24645   */\n      swap1\n      pop\n        /* \"#utility.yul\":24691:24700   */\n      dup2\n        /* \"#utility.yul\":24685:24689   */\n      dup2\n        /* \"#utility.yul\":24681:24701   */\n      sub\n        /* \"#utility.yul\":24677:24678   */\n      0x00\n        /* \"#utility.yul\":24666:24675   */\n      dup4\n        /* \"#utility.yul\":24662:24679   */\n      add\n        /* \"#utility.yul\":24655:24702   */\n      mstore\n        /* \"#utility.yul\":24719:24797   */\n      tag_730\n        /* \"#utility.yul\":24792:24796   */\n      dup2\n        /* \"#utility.yul\":24783:24789   */\n      dup7\n        /* \"#utility.yul\":24719:24797   */\n      tag_405\n      jump\t// in\n    tag_730:\n        /* \"#utility.yul\":24711:24797   */\n      swap1\n      pop\n        /* \"#utility.yul\":24807:24879   */\n      tag_731\n        /* \"#utility.yul\":24875:24877   */\n      0x20\n        /* \"#utility.yul\":24864:24873   */\n      dup4\n        /* \"#utility.yul\":24860:24878   */\n      add\n        /* \"#utility.yul\":24851:24857   */\n      dup6\n        /* \"#utility.yul\":24807:24879   */\n      tag_414\n      jump\t// in\n    tag_731:\n        /* \"#utility.yul\":24926:24935   */\n      dup2\n        /* \"#utility.yul\":24920:24924   */\n      dup2\n        /* \"#utility.yul\":24916:24936   */\n      sub\n        /* \"#utility.yul\":24911:24913   */\n      0x40\n        /* \"#utility.yul\":24900:24909   */\n      dup4\n        /* \"#utility.yul\":24896:24914   */\n      add\n        /* \"#utility.yul\":24889:24937   */\n      mstore\n        /* \"#utility.yul\":24954:25032   */\n      tag_732\n        /* \"#utility.yul\":25027:25031   */\n      dup2\n        /* \"#utility.yul\":25018:25024   */\n      dup5\n        /* \"#utility.yul\":24954:25032   */\n      tag_405\n      jump\t// in\n    tag_732:\n        /* \"#utility.yul\":24946:25032   */\n      swap1\n      pop\n        /* \"#utility.yul\":24415:25039   */\n      swap5\n      swap4\n      pop\n      pop\n      pop\n      pop\n      jump\t// out\n        /* \"#utility.yul\":25045:25192   */\n    tag_462:\n        /* \"#utility.yul\":25146:25157   */\n      0x00\n        /* \"#utility.yul\":25183:25186   */\n      dup2\n        /* \"#utility.yul\":25168:25186   */\n      swap1\n      pop\n        /* \"#utility.yul\":25045:25192   */\n      swap3\n      swap2\n      pop\n      pop\n      jump\t// out\n        /* \"#utility.yul\":25198:25342   */\n    tag_463:\n        /* \"#utility.yul\":25250:25254   */\n      0x00\n        /* \"#utility.yul\":25273:25276   */\n      dup2\n        /* \"#utility.yul\":25265:25276   */\n      swap1\n      pop\n        /* \"#utility.yul\":25296:25299   */\n      dup2\n        /* \"#utility.yul\":25293:25294   */\n      0x00\n        /* \"#utility.yul\":25286:25300   */\n      mstore\n        /* \"#utility.yul\":25330:25334   */\n      0x20\n        /* \"#utility.yul\":25327:25328   */\n      0x00\n        /* \"#utility.yul\":25317:25335   */\n      keccak256\n        /* \"#utility.yul\":25309:25335   */\n      swap1\n      pop\n        /* \"#utility.yul\":25198:25342   */\n      swap2\n      swap1\n      pop\n      jump\t// out\n        /* \"#utility.yul\":25370:26248   */\n    tag_464:\n        /* \"#utility.yul\":25475:25478   */\n      0x00\n        /* \"#utility.yul\":25512:25517   */\n      dup2\n        /* \"#utility.yul\":25506:25518   */\n      sload\n        /* \"#utility.yul\":25541:25577   */\n      tag_736\n        /* \"#utility.yul\":25567:25576   */\n      dup2\n        /* \"#utility.yul\":25541:25577   */\n      tag_59\n      jump\t// in\n    tag_736:\n        /* \"#utility.yul\":25593:25681   */\n      tag_737\n        /* \"#utility.yul\":25674:25680   */\n      dup2\n        /* \"#utility.yul\":25669:25672   */\n      dup7\n        /* \"#utility.yul\":25593:25681   */\n      tag_462\n      jump\t// in\n    tag_737:\n        /* \"#utility.yul\":25586:25681   */\n      swap5\n      pop\n        /* \"#utility.yul\":25712:25713   */\n      0x01\n        /* \"#utility.yul\":25701:25710   */\n      dup3\n        /* \"#utility.yul\":25697:25714   */\n      and\n        /* \"#utility.yul\":25728:25729   */\n      0x00\n        /* \"#utility.yul\":25723:25889   */\n      dup2\n      eq\n      tag_739\n      jumpi\n        /* \"#utility.yul\":25903:25904   */\n      0x01\n        /* \"#utility.yul\":25898:26242   */\n      dup2\n      eq\n      tag_740\n      jumpi\n        /* \"#utility.yul\":25690:26242   */\n      jump(tag_738)\n        /* \"#utility.yul\":25723:25889   */\n    tag_739:\n        /* \"#utility.yul\":25807:25811   */\n      0xff\n        /* \"#utility.yul\":25803:25812   */\n      not\n        /* \"#utility.yul\":25792:25801   */\n      dup4\n        /* \"#utility.yul\":25788:25813   */\n      and\n        /* \"#utility.yul\":25783:25786   */\n      dup7\n        /* \"#utility.yul\":25776:25814   */\n      mstore\n        /* \"#utility.yul\":25869:25875   */\n      dup2\n        /* \"#utility.yul\":25862:25876   */\n      iszero\n        /* \"#utility.yul\":25855:25877   */\n      iszero\n        /* \"#utility.yul\":25847:25853   */\n      dup3\n        /* \"#utility.yul\":25843:25878   */\n      mul\n        /* \"#utility.yul\":25838:25841   */\n      dup7\n        /* \"#utility.yul\":25834:25879   */\n      add\n        /* \"#utility.yul\":25827:25879   */\n      swap4\n      pop\n        /* \"#utility.yul\":25723:25889   */\n      jump(tag_738)\n        /* \"#utility.yul\":25898:26242   */\n    tag_740:\n        /* \"#utility.yul\":25965:26006   */\n      tag_741\n        /* \"#utility.yul\":26000:26005   */\n      dup6\n        /* \"#utility.yul\":25965:26006   */\n      tag_463\n      jump\t// in\n    tag_741:\n        /* \"#utility.yul\":26028:26029   */\n      0x00\n        /* \"#utility.yul\":26042:26196   */\n    tag_742:\n        /* \"#utility.yul\":26056:26062   */\n      dup4\n        /* \"#utility.yul\":26053:26054   */\n      dup2\n        /* \"#utility.yul\":26050:26063   */\n      lt\n        /* \"#utility.yul\":26042:26196   */\n      iszero\n      tag_744\n      jumpi\n        /* \"#utility.yul\":26130:26137   */\n      dup2\n        /* \"#utility.yul\":26124:26138   */\n      sload\n        /* \"#utility.yul\":26120:26121   */\n      dup2\n        /* \"#utility.yul\":26115:26118   */\n      dup10\n        /* \"#utility.yul\":26111:26122   */\n      add\n        /* \"#utility.yul\":26104:26139   */\n      mstore\n        /* \"#utility.yul\":26180:26181   */\n      0x01\n        /* \"#utility.yul\":26171:26178   */\n      dup3\n        /* \"#utility.yul\":26167:26182   */\n      add\n        /* \"#utility.yul\":26156:26182   */\n      swap2\n      pop\n        /* \"#utility.yul\":26078:26082   */\n      0x20\n        /* \"#utility.yul\":26075:26076   */\n      dup2\n        /* \"#utility.yul\":26071:26083   */\n      add\n        /* \"#utility.yul\":26066:26083   */\n      swap1\n      pop\n        /* \"#utility.yul\":26042:26196   */\n      jump(tag_742)\n    tag_744:\n        /* \"#utility.yul\":26225:26231   */\n      dup4\n        /* \"#utility.yul\":26220:26223   */\n      dup9\n        /* \"#utility.yul\":26216:26232   */\n      add\n        /* \"#utility.yul\":26209:26232   */\n      swap6\n      pop\n        /* \"#utility.yul\":25905:26242   */\n      pop\n      pop\n        /* \"#utility.yul\":25690:26242   */\n    tag_738:\n      pop\n        /* \"#utility.yul\":25479:26248   */\n      pop\n      pop\n        /* \"#utility.yul\":25370:26248   */\n      swap3\n      swap2\n      pop\n      pop\n      jump\t// out\n        /* \"#utility.yul\":26254:26527   */\n    tag_120:\n        /* \"#utility.yul\":26385:26388   */\n      0x00\n        /* \"#utility.yul\":26407:26501   */\n      tag_746\n        /* \"#utility.yul\":26497:26500   */\n      dup3\n        /* \"#utility.yul\":26488:26494   */\n      dup5\n        /* \"#utility.yul\":26407:26501   */\n      tag_464\n      jump\t// in\n    tag_746:\n        /* \"#utility.yul\":26400:26501   */\n      swap2\n      pop\n        /* \"#utility.yul\":26518:26521   */\n      dup2\n        /* \"#utility.yul\":26511:26521   */\n      swap1\n      pop\n        /* \"#utility.yul\":26254:26527   */\n      swap3\n      swap2\n      pop\n      pop\n      jump\t// out\n        /* \"#utility.yul\":26533:26705   */\n    tag_465:\n        /* \"#utility.yul\":26673:26697   */\n      0x526f6c652052657175657374206e6f7420666f756e6400000000000000000000\n        /* \"#utility.yul\":26669:26670   */\n      0x00\n        /* \"#utility.yul\":26661:26667   */\n      dup3\n        /* \"#utility.yul\":26657:26671   */\n      add\n        /* \"#utility.yul\":26650:26698   */\n      mstore\n        /* \"#utility.yul\":26533:26705   */\n      pop\n      jump\t// out\n        /* \"#utility.yul\":26711:27077   */\n    tag_466:\n        /* \"#utility.yul\":26853:26856   */\n      0x00\n        /* \"#utility.yul\":26874:26941   */\n      tag_749\n        /* \"#utility.yul\":26938:26940   */\n      0x16\n        /* \"#utility.yul\":26933:26936   */\n      dup4\n        /* \"#utility.yul\":26874:26941   */\n      tag_402\n      jump\t// in\n    tag_749:\n        /* \"#utility.yul\":26867:26941   */\n      swap2\n      pop\n        /* \"#utility.yul\":26950:27043   */\n      tag_750\n        /* \"#utility.yul\":27039:27042   */\n      dup3\n        /* \"#utility.yul\":26950:27043   */\n      tag_465\n      jump\t// in\n    tag_750:\n        /* \"#utility.yul\":27068:27070   */\n      0x20\n        /* \"#utility.yul\":27063:27066   */\n      dup3\n        /* \"#utility.yul\":27059:27071   */\n      add\n        /* \"#utility.yul\":27052:27071   */\n      swap1\n      pop\n        /* \"#utility.yul\":26711:27077   */\n      swap2\n      swap1\n      pop\n      jump\t// out\n        /* \"#utility.yul\":27083:27813   */\n    tag_139:\n        /* \"#utility.yul\":27325:27329   */\n      0x00\n        /* \"#utility.yul\":27363:27365   */\n      0x60\n        /* \"#utility.yul\":27352:27361   */\n      dup3\n        /* \"#utility.yul\":27348:27366   */\n      add\n        /* \"#utility.yul\":27340:27366   */\n      swap1\n      pop\n        /* \"#utility.yul\":27376:27447   */\n      tag_752\n        /* \"#utility.yul\":27444:27445   */\n      0x00\n        /* \"#utility.yul\":27433:27442   */\n      dup4\n        /* \"#utility.yul\":27429:27446   */\n      add\n        /* \"#utility.yul\":27420:27426   */\n      dup6\n        /* \"#utility.yul\":27376:27447   */\n      tag_414\n      jump\t// in\n    tag_752:\n        /* \"#utility.yul\":27494:27503   */\n      dup2\n        /* \"#utility.yul\":27488:27492   */\n      dup2\n        /* \"#utility.yul\":27484:27504   */\n      sub\n        /* \"#utility.yul\":27479:27481   */\n      0x20\n        /* \"#utility.yul\":27468:27477   */\n      dup4\n        /* \"#utility.yul\":27464:27482   */\n      add\n        /* \"#utility.yul\":27457:27505   */\n      mstore\n        /* \"#utility.yul\":27522:27653   */\n      tag_753\n        /* \"#utility.yul\":27648:27652   */\n      dup2\n        /* \"#utility.yul\":27522:27653   */\n      tag_466\n      jump\t// in\n    tag_753:\n        /* \"#utility.yul\":27514:27653   */\n      swap1\n      pop\n        /* \"#utility.yul\":27700:27709   */\n      dup2\n        /* \"#utility.yul\":27694:27698   */\n      dup2\n        /* \"#utility.yul\":27690:27710   */\n      sub\n        /* \"#utility.yul\":27685:27687   */\n      0x40\n        /* \"#utility.yul\":27674:27683   */\n      dup4\n        /* \"#utility.yul\":27670:27688   */\n      add\n        /* \"#utility.yul\":27663:27711   */\n      mstore\n        /* \"#utility.yul\":27728:27806   */\n      tag_754\n        /* \"#utility.yul\":27801:27805   */\n      dup2\n        /* \"#utility.yul\":27792:27798   */\n      dup5\n        /* \"#utility.yul\":27728:27806   */\n      tag_405\n      jump\t// in\n    tag_754:\n        /* \"#utility.yul\":27720:27806   */\n      swap1\n      pop\n        /* \"#utility.yul\":27083:27813   */\n      swap4\n      swap3\n      pop\n      pop\n      pop\n      jump\t// out\n        /* \"#utility.yul\":27819:28055   */\n    tag_467:\n        /* \"#utility.yul\":27959:27993   */\n      0x596f7520646f6e27742068617665207065726d697373696f6e20746f20617070\n        /* \"#utility.yul\":27955:27956   */\n      0x00\n        /* \"#utility.yul\":27947:27953   */\n      dup3\n        /* \"#utility.yul\":27943:27957   */\n      add\n        /* \"#utility.yul\":27936:27994   */\n      mstore\n        /* \"#utility.yul\":28028:28047   */\n      0x726f766520746869732072657175657374000000000000000000000000000000\n        /* \"#utility.yul\":28023:28025   */\n      0x20\n        /* \"#utility.yul\":28015:28021   */\n      dup3\n        /* \"#utility.yul\":28011:28026   */\n      add\n        /* \"#utility.yul\":28004:28048   */\n      mstore\n        /* \"#utility.yul\":27819:28055   */\n      pop\n      jump\t// out\n        /* \"#utility.yul\":28061:28427   */\n    tag_468:\n        /* \"#utility.yul\":28203:28206   */\n      0x00\n        /* \"#utility.yul\":28224:28291   */\n      tag_757\n        /* \"#utility.yul\":28288:28290   */\n      0x31\n        /* \"#utility.yul\":28283:28286   */\n      dup4\n        /* \"#utility.yul\":28224:28291   */\n      tag_402\n      jump\t// in\n    tag_757:\n        /* \"#utility.yul\":28217:28291   */\n      swap2\n      pop\n        /* \"#utility.yul\":28300:28393   */\n      tag_758\n        /* \"#utility.yul\":28389:28392   */\n      dup3\n        /* \"#utility.yul\":28300:28393   */\n      tag_467\n      jump\t// in\n    tag_758:\n        /* \"#utility.yul\":28418:28420   */\n      0x40\n        /* \"#utility.yul\":28413:28416   */\n      dup3\n        /* \"#utility.yul\":28409:28421   */\n      add\n        /* \"#utility.yul\":28402:28421   */\n      swap1\n      pop\n        /* \"#utility.yul\":28061:28427   */\n      swap2\n      swap1\n      pop\n      jump\t// out\n        /* \"#utility.yul\":28433:28962   */\n    tag_150:\n        /* \"#utility.yul\":28627:28631   */\n      0x00\n        /* \"#utility.yul\":28665:28667   */\n      0x40\n        /* \"#utility.yul\":28654:28663   */\n      dup3\n        /* \"#utility.yul\":28650:28668   */\n      add\n        /* \"#utility.yul\":28642:28668   */\n      swap1\n      pop\n        /* \"#utility.yul\":28678:28749   */\n      tag_760\n        /* \"#utility.yul\":28746:28747   */\n      0x00\n        /* \"#utility.yul\":28735:28744   */\n      dup4\n        /* \"#utility.yul\":28731:28748   */\n      add\n        /* \"#utility.yul\":28722:28728   */\n      dup5\n        /* \"#utility.yul\":28678:28749   */\n      tag_414\n      jump\t// in\n    tag_760:\n        /* \"#utility.yul\":28796:28805   */\n      dup2\n        /* \"#utility.yul\":28790:28794   */\n      dup2\n        /* \"#utility.yul\":28786:28806   */\n      sub\n        /* \"#utility.yul\":28781:28783   */\n      0x20\n        /* \"#utility.yul\":28770:28779   */\n      dup4\n        /* \"#utility.yul\":28766:28784   */\n      add\n        /* \"#utility.yul\":28759:28807   */\n      mstore\n        /* \"#utility.yul\":28824:28955   */\n      tag_761\n        /* \"#utility.yul\":28950:28954   */\n      dup2\n        /* \"#utility.yul\":28824:28955   */\n      tag_468\n      jump\t// in\n    tag_761:\n        /* \"#utility.yul\":28816:28955   */\n      swap1\n      pop\n        /* \"#utility.yul\":28433:28962   */\n      swap3\n      swap2\n      pop\n      pop\n      jump\t// out\n        /* \"#utility.yul\":28968:29140   */\n    tag_469:\n        /* \"#utility.yul\":29108:29132   */\n      0x55736572206973206e6f74207265676973746572656400000000000000000000\n        /* \"#utility.yul\":29104:29105   */\n      0x00\n        /* \"#utility.yul\":29096:29102   */\n      dup3\n        /* \"#utility.yul\":29092:29106   */\n      add\n        /* \"#utility.yul\":29085:29133   */\n      mstore\n        /* \"#utility.yul\":28968:29140   */\n      pop\n      jump\t// out\n        /* \"#utility.yul\":29146:29512   */\n    tag_470:\n        /* \"#utility.yul\":29288:29291   */\n      0x00\n        /* \"#utility.yul\":29309:29376   */\n      tag_764\n        /* \"#utility.yul\":29373:29375   */\n      0x16\n        /* \"#utility.yul\":29368:29371   */\n      dup4\n        /* \"#utility.yul\":29309:29376   */\n      tag_402\n      jump\t// in\n    tag_764:\n        /* \"#utility.yul\":29302:29376   */\n      swap2\n      pop\n        /* \"#utility.yul\":29385:29478   */\n      tag_765\n        /* \"#utility.yul\":29474:29477   */\n      dup3\n        /* \"#utility.yul\":29385:29478   */\n      tag_469\n      jump\t// in\n    tag_765:\n        /* \"#utility.yul\":29503:29505   */\n      0x20\n        /* \"#utility.yul\":29498:29501   */\n      dup3\n        /* \"#utility.yul\":29494:29506   */\n      add\n        /* \"#utility.yul\":29487:29506   */\n      swap1\n      pop\n        /* \"#utility.yul\":29146:29512   */\n      swap2\n      swap1\n      pop\n      jump\t// out\n        /* \"#utility.yul\":29518:30047   */\n    tag_184:\n        /* \"#utility.yul\":29712:29716   */\n      0x00\n        /* \"#utility.yul\":29750:29752   */\n      0x40\n        /* \"#utility.yul\":29739:29748   */\n      dup3\n        /* \"#utility.yul\":29735:29753   */\n      add\n        /* \"#utility.yul\":29727:29753   */\n      swap1\n      pop\n        /* \"#utility.yul\":29763:29834   */\n      tag_767\n        /* \"#utility.yul\":29831:29832   */\n      0x00\n        /* \"#utility.yul\":29820:29829   */\n      dup4\n        /* \"#utility.yul\":29816:29833   */\n      add\n        /* \"#utility.yul\":29807:29813   */\n      dup5\n        /* \"#utility.yul\":29763:29834   */\n      tag_414\n      jump\t// in\n    tag_767:\n        /* \"#utility.yul\":29881:29890   */\n      dup2\n        /* \"#utility.yul\":29875:29879   */\n      dup2\n        /* \"#utility.yul\":29871:29891   */\n      sub\n        /* \"#utility.yul\":29866:29868   */\n      0x20\n        /* \"#utility.yul\":29855:29864   */\n      dup4\n        /* \"#utility.yul\":29851:29869   */\n      add\n        /* \"#utility.yul\":29844:29892   */\n      mstore\n        /* \"#utility.yul\":29909:30040   */\n      tag_768\n        /* \"#utility.yul\":30035:30039   */\n      dup2\n        /* \"#utility.yul\":29909:30040   */\n      tag_470\n      jump\t// in\n    tag_768:\n        /* \"#utility.yul\":29901:30040   */\n      swap1\n      pop\n        /* \"#utility.yul\":29518:30047   */\n      swap3\n      swap2\n      pop\n      pop\n      jump\t// out\n        /* \"#utility.yul\":30053:30227   */\n    tag_471:\n        /* \"#utility.yul\":30193:30219   */\n      0x43616e6e6f742072657175657374206e6f6e6520726f6c650000000000000000\n        /* \"#utility.yul\":30189:30190   */\n      0x00\n        /* \"#utility.yul\":30181:30187   */\n      dup3\n        /* \"#utility.yul\":30177:30191   */\n      add\n        /* \"#utility.yul\":30170:30220   */\n      mstore\n        /* \"#utility.yul\":30053:30227   */\n      pop\n      jump\t// out\n        /* \"#utility.yul\":30233:30599   */\n    tag_472:\n        /* \"#utility.yul\":30375:30378   */\n      0x00\n        /* \"#utility.yul\":30396:30463   */\n      tag_771\n        /* \"#utility.yul\":30460:30462   */\n      0x18\n        /* \"#utility.yul\":30455:30458   */\n      dup4\n        /* \"#utility.yul\":30396:30463   */\n      tag_402\n      jump\t// in\n    tag_771:\n        /* \"#utility.yul\":30389:30463   */\n      swap2\n      pop\n        /* \"#utility.yul\":30472:30565   */\n      tag_772\n        /* \"#utility.yul\":30561:30564   */\n      dup3\n        /* \"#utility.yul\":30472:30565   */\n      tag_471\n      jump\t// in\n    tag_772:\n        /* \"#utility.yul\":30590:30592   */\n      0x20\n        /* \"#utility.yul\":30585:30588   */\n      dup3\n        /* \"#utility.yul\":30581:30593   */\n      add\n        /* \"#utility.yul\":30574:30593   */\n      swap1\n      pop\n        /* \"#utility.yul\":30233:30599   */\n      swap2\n      swap1\n      pop\n      jump\t// out\n        /* \"#utility.yul\":30605:31134   */\n    tag_192:\n        /* \"#utility.yul\":30799:30803   */\n      0x00\n        /* \"#utility.yul\":30837:30839   */\n      0x40\n        /* \"#utility.yul\":30826:30835   */\n      dup3\n        /* \"#utility.yul\":30822:30840   */\n      add\n        /* \"#utility.yul\":30814:30840   */\n      swap1\n      pop\n        /* \"#utility.yul\":30850:30921   */\n      tag_774\n        /* \"#utility.yul\":30918:30919   */\n      0x00\n        /* \"#utility.yul\":30907:30916   */\n      dup4\n        /* \"#utility.yul\":30903:30920   */\n      add\n        /* \"#utility.yul\":30894:30900   */\n      dup5\n        /* \"#utility.yul\":30850:30921   */\n      tag_414\n      jump\t// in\n    tag_774:\n        /* \"#utility.yul\":30968:30977   */\n      dup2\n        /* \"#utility.yul\":30962:30966   */\n      dup2\n        /* \"#utility.yul\":30958:30978   */\n      sub\n        /* \"#utility.yul\":30953:30955   */\n      0x20\n        /* \"#utility.yul\":30942:30951   */\n      dup4\n        /* \"#utility.yul\":30938:30956   */\n      add\n        /* \"#utility.yul\":30931:30979   */\n      mstore\n        /* \"#utility.yul\":30996:31127   */\n      tag_775\n        /* \"#utility.yul\":31122:31126   */\n      dup2\n        /* \"#utility.yul\":30996:31127   */\n      tag_472\n      jump\t// in\n    tag_775:\n        /* \"#utility.yul\":30988:31127   */\n      swap1\n      pop\n        /* \"#utility.yul\":30605:31134   */\n      swap3\n      swap2\n      pop\n      pop\n      jump\t// out\n        /* \"#utility.yul\":31140:31283   */\n    tag_473:\n        /* \"#utility.yul\":31233:31276   */\n      tag_777\n        /* \"#utility.yul\":31270:31275   */\n      dup2\n        /* \"#utility.yul\":31233:31276   */\n      tag_420\n      jump\t// in\n    tag_777:\n        /* \"#utility.yul\":31228:31231   */\n      dup3\n        /* \"#utility.yul\":31221:31277   */\n      mstore\n        /* \"#utility.yul\":31140:31283   */\n      pop\n      pop\n      jump\t// out\n        /* \"#utility.yul\":31289:31834   */\n    tag_206:\n        /* \"#utility.yul\":31464:31468   */\n      0x00\n        /* \"#utility.yul\":31502:31504   */\n      0x60\n        /* \"#utility.yul\":31491:31500   */\n      dup3\n        /* \"#utility.yul\":31487:31505   */\n      add\n        /* \"#utility.yul\":31479:31505   */\n      swap1\n      pop\n        /* \"#utility.yul\":31551:31560   */\n      dup2\n        /* \"#utility.yul\":31545:31549   */\n      dup2\n        /* \"#utility.yul\":31541:31561   */\n      sub\n        /* \"#utility.yul\":31537:31538   */\n      0x00\n        /* \"#utility.yul\":31526:31535   */\n      dup4\n        /* \"#utility.yul\":31522:31539   */\n      add\n        /* \"#utility.yul\":31515:31562   */\n      mstore\n        /* \"#utility.yul\":31579:31657   */\n      tag_779\n        /* \"#utility.yul\":31652:31656   */\n      dup2\n        /* \"#utility.yul\":31643:31649   */\n      dup7\n        /* \"#utility.yul\":31579:31657   */\n      tag_405\n      jump\t// in\n    tag_779:\n        /* \"#utility.yul\":31571:31657   */\n      swap1\n      pop\n        /* \"#utility.yul\":31667:31739   */\n      tag_780\n        /* \"#utility.yul\":31735:31737   */\n      0x20\n        /* \"#utility.yul\":31724:31733   */\n      dup4\n        /* \"#utility.yul\":31720:31738   */\n      add\n        /* \"#utility.yul\":31711:31717   */\n      dup6\n        /* \"#utility.yul\":31667:31739   */\n      tag_414\n      jump\t// in\n    tag_780:\n        /* \"#utility.yul\":31749:31827   */\n      tag_781\n        /* \"#utility.yul\":31823:31825   */\n      0x40\n        /* \"#utility.yul\":31812:31821   */\n      dup4\n        /* \"#utility.yul\":31808:31826   */\n      add\n        /* \"#utility.yul\":31799:31805   */\n      dup5\n        /* \"#utility.yul\":31749:31827   */\n      tag_473\n      jump\t// in\n    tag_781:\n        /* \"#utility.yul\":31289:31834   */\n      swap5\n      swap4\n      pop\n      pop\n      pop\n      pop\n      jump\t// out\n        /* \"#utility.yul\":31840:32019   */\n    tag_474:\n        /* \"#utility.yul\":31980:32011   */\n      0x526f6c65207265717565737420616c726561647920617070726f766564000000\n        /* \"#utility.yul\":31976:31977   */\n      0x00\n        /* \"#utility.yul\":31968:31974   */\n      dup3\n        /* \"#utility.yul\":31964:31978   */\n      add\n        /* \"#utility.yul\":31957:32012   */\n      mstore\n        /* \"#utility.yul\":31840:32019   */\n      pop\n      jump\t// out\n        /* \"#utility.yul\":32025:32391   */\n    tag_475:\n        /* \"#utility.yul\":32167:32170   */\n      0x00\n        /* \"#utility.yul\":32188:32255   */\n      tag_784\n        /* \"#utility.yul\":32252:32254   */\n      0x1d\n        /* \"#utility.yul\":32247:32250   */\n      dup4\n        /* \"#utility.yul\":32188:32255   */\n      tag_402\n      jump\t// in\n    tag_784:\n        /* \"#utility.yul\":32181:32255   */\n      swap2\n      pop\n        /* \"#utility.yul\":32264:32357   */\n      tag_785\n        /* \"#utility.yul\":32353:32356   */\n      dup3\n        /* \"#utility.yul\":32264:32357   */\n      tag_474\n      jump\t// in\n    tag_785:\n        /* \"#utility.yul\":32382:32384   */\n      0x20\n        /* \"#utility.yul\":32377:32380   */\n      dup3\n        /* \"#utility.yul\":32373:32385   */\n      add\n        /* \"#utility.yul\":32366:32385   */\n      swap1\n      pop\n        /* \"#utility.yul\":32025:32391   */\n      swap2\n      swap1\n      pop\n      jump\t// out\n        /* \"#utility.yul\":32397:33127   */\n    tag_327:\n        /* \"#utility.yul\":32639:32643   */\n      0x00\n        /* \"#utility.yul\":32677:32679   */\n      0x60\n        /* \"#utility.yul\":32666:32675   */\n      dup3\n        /* \"#utility.yul\":32662:32680   */\n      add\n        /* \"#utility.yul\":32654:32680   */\n      swap1\n      pop\n        /* \"#utility.yul\":32690:32761   */\n      tag_787\n        /* \"#utility.yul\":32758:32759   */\n      0x00\n        /* \"#utility.yul\":32747:32756   */\n      dup4\n        /* \"#utility.yul\":32743:32760   */\n      add\n        /* \"#utility.yul\":32734:32740   */\n      dup6\n        /* \"#utility.yul\":32690:32761   */\n      tag_414\n      jump\t// in\n    tag_787:\n        /* \"#utility.yul\":32808:32817   */\n      dup2\n        /* \"#utility.yul\":32802:32806   */\n      dup2\n        /* \"#utility.yul\":32798:32818   */\n      sub\n        /* \"#utility.yul\":32793:32795   */\n      0x20\n        /* \"#utility.yul\":32782:32791   */\n      dup4\n        /* \"#utility.yul\":32778:32796   */\n      add\n        /* \"#utility.yul\":32771:32819   */\n      mstore\n        /* \"#utility.yul\":32836:32967   */\n      tag_788\n        /* \"#utility.yul\":32962:32966   */\n      dup2\n        /* \"#utility.yul\":32836:32967   */\n      tag_475\n      jump\t// in\n    tag_788:\n        /* \"#utility.yul\":32828:32967   */\n      swap1\n      pop\n        /* \"#utility.yul\":33014:33023   */\n      dup2\n        /* \"#utility.yul\":33008:33012   */\n      dup2\n        /* \"#utility.yul\":33004:33024   */\n      sub\n        /* \"#utility.yul\":32999:33001   */\n      0x40\n        /* \"#utility.yul\":32988:32997   */\n      dup4\n        /* \"#utility.yul\":32984:33002   */\n      add\n        /* \"#utility.yul\":32977:33025   */\n      mstore\n        /* \"#utility.yul\":33042:33120   */\n      tag_789\n        /* \"#utility.yul\":33115:33119   */\n      dup2\n        /* \"#utility.yul\":33106:33112   */\n      dup5\n        /* \"#utility.yul\":33042:33120   */\n      tag_405\n      jump\t// in\n    tag_789:\n        /* \"#utility.yul\":33034:33120   */\n      swap1\n      pop\n        /* \"#utility.yul\":32397:33127   */\n      swap4\n      swap3\n      pop\n      pop\n      pop\n      jump\t// out\n        /* \"#utility.yul\":33133:33312   */\n    tag_476:\n        /* \"#utility.yul\":33273:33304   */\n      0x526f6c65207265717565737420616c72656164792072656a6563746564000000\n        /* \"#utility.yul\":33269:33270   */\n      0x00\n        /* \"#utility.yul\":33261:33267   */\n      dup3\n        /* \"#utility.yul\":33257:33271   */\n      add\n        /* \"#utility.yul\":33250:33305   */\n      mstore\n        /* \"#utility.yul\":33133:33312   */\n      pop\n      jump\t// out\n        /* \"#utility.yul\":33318:33684   */\n    tag_477:\n        /* \"#utility.yul\":33460:33463   */\n      0x00\n        /* \"#utility.yul\":33481:33548   */\n      tag_792\n        /* \"#utility.yul\":33545:33547   */\n      0x1d\n        /* \"#utility.yul\":33540:33543   */\n      dup4\n        /* \"#utility.yul\":33481:33548   */\n      tag_402\n      jump\t// in\n    tag_792:\n        /* \"#utility.yul\":33474:33548   */\n      swap2\n      pop\n        /* \"#utility.yul\":33557:33650   */\n      tag_793\n        /* \"#utility.yul\":33646:33649   */\n      dup3\n        /* \"#utility.yul\":33557:33650   */\n      tag_476\n      jump\t// in\n    tag_793:\n        /* \"#utility.yul\":33675:33677   */\n      0x20\n        /* \"#utility.yul\":33670:33673   */\n      dup3\n        /* \"#utility.yul\":33666:33678   */\n      add\n        /* \"#utility.yul\":33659:33678   */\n      swap1\n      pop\n        /* \"#utility.yul\":33318:33684   */\n      swap2\n      swap1\n      pop\n      jump\t// out\n        /* \"#utility.yul\":33690:34420   */\n    tag_334:\n        /* \"#utility.yul\":33932:33936   */\n      0x00\n        /* \"#utility.yul\":33970:33972   */\n      0x60\n        /* \"#utility.yul\":33959:33968   */\n      dup3\n        /* \"#utility.yul\":33955:33973   */\n      add\n        /* \"#utility.yul\":33947:33973   */\n      swap1\n      pop\n        /* \"#utility.yul\":33983:34054   */\n      tag_795\n        /* \"#utility.yul\":34051:34052   */\n      0x00\n        /* \"#utility.yul\":34040:34049   */\n      dup4\n        /* \"#utility.yul\":34036:34053   */\n      add\n        /* \"#utility.yul\":34027:34033   */\n      dup6\n        /* \"#utility.yul\":33983:34054   */\n      tag_414\n      jump\t// in\n    tag_795:\n        /* \"#utility.yul\":34101:34110   */\n      dup2\n        /* \"#utility.yul\":34095:34099   */\n      dup2\n        /* \"#utility.yul\":34091:34111   */\n      sub\n        /* \"#utility.yul\":34086:34088   */\n      0x20\n        /* \"#utility.yul\":34075:34084   */\n      dup4\n        /* \"#utility.yul\":34071:34089   */\n      add\n        /* \"#utility.yul\":34064:34112   */\n      mstore\n        /* \"#utility.yul\":34129:34260   */\n      tag_796\n        /* \"#utility.yul\":34255:34259   */\n      dup2\n        /* \"#utility.yul\":34129:34260   */\n      tag_477\n      jump\t// in\n    tag_796:\n        /* \"#utility.yul\":34121:34260   */\n      swap1\n      pop\n        /* \"#utility.yul\":34307:34316   */\n      dup2\n        /* \"#utility.yul\":34301:34305   */\n      dup2\n        /* \"#utility.yul\":34297:34317   */\n      sub\n        /* \"#utility.yul\":34292:34294   */\n      0x40\n        /* \"#utility.yul\":34281:34290   */\n      dup4\n        /* \"#utility.yul\":34277:34295   */\n      add\n        /* \"#utility.yul\":34270:34318   */\n      mstore\n        /* \"#utility.yul\":34335:34413   */\n      tag_797\n        /* \"#utility.yul\":34408:34412   */\n      dup2\n        /* \"#utility.yul\":34399:34405   */\n      dup5\n        /* \"#utility.yul\":34335:34413   */\n      tag_405\n      jump\t// in\n    tag_797:\n        /* \"#utility.yul\":34327:34413   */\n      swap1\n      pop\n        /* \"#utility.yul\":33690:34420   */\n      swap4\n      swap3\n      pop\n      pop\n      pop\n      jump\t// out\n        /* \"#utility.yul\":34426:34606   */\n    tag_478:\n        /* \"#utility.yul\":34474:34551   */\n      0x4e487b7100000000000000000000000000000000000000000000000000000000\n        /* \"#utility.yul\":34471:34472   */\n      0x00\n        /* \"#utility.yul\":34464:34552   */\n      mstore\n        /* \"#utility.yul\":34571:34575   */\n      0x11\n        /* \"#utility.yul\":34568:34569   */\n      0x04\n        /* \"#utility.yul\":34561:34576   */\n      mstore\n        /* \"#utility.yul\":34595:34599   */\n      0x24\n        /* \"#utility.yul\":34592:34593   */\n      0x00\n        /* \"#utility.yul\":34585:34600   */\n      revert\n        /* \"#utility.yul\":34612:34803   */\n    tag_351:\n        /* \"#utility.yul\":34652:34655   */\n      0x00\n        /* \"#utility.yul\":34671:34691   */\n      tag_800\n        /* \"#utility.yul\":34689:34690   */\n      dup3\n        /* \"#utility.yul\":34671:34691   */\n      tag_398\n      jump\t// in\n    tag_800:\n        /* \"#utility.yul\":34666:34691   */\n      swap2\n      pop\n        /* \"#utility.yul\":34705:34725   */\n      tag_801\n        /* \"#utility.yul\":34723:34724   */\n      dup4\n        /* \"#utility.yul\":34705:34725   */\n      tag_398\n      jump\t// in\n    tag_801:\n        /* \"#utility.yul\":34700:34725   */\n      swap3\n      pop\n        /* \"#utility.yul\":34748:34749   */\n      dup3\n        /* \"#utility.yul\":34745:34746   */\n      dup3\n        /* \"#utility.yul\":34741:34750   */\n      add\n        /* \"#utility.yul\":34734:34750   */\n      swap1\n      pop\n        /* \"#utility.yul\":34769:34772   */\n      dup1\n        /* \"#utility.yul\":34766:34767   */\n      dup3\n        /* \"#utility.yul\":34763:34773   */\n      gt\n        /* \"#utility.yul\":34760:34796   */\n      iszero\n      tag_802\n      jumpi\n        /* \"#utility.yul\":34776:34794   */\n      tag_803\n      tag_478\n      jump\t// in\n    tag_803:\n        /* \"#utility.yul\":34760:34796   */\n    tag_802:\n        /* \"#utility.yul\":34612:34803   */\n      swap3\n      swap2\n      pop\n      pop\n      jump\t// out\n    stop\n    data_b3209d81bebca962d527d5fbdb88c86ebaefb2fe1ae90a9e3a4315c0ab348daa 6162636465666768696a6b6c6d6e6f707172737475767778797a4142434445464748494a4b4c4d4e4f505152535455565758595a30313233343536373839\n\n    auxdata: 0xa2646970667358221220361a5e957a3ac30f849a1a01d694c5a41c7b2410cd669c8151a01e3b354ae8d164736f6c63430008190033\n}\n",
				"bytecode": {
					"linkReferences": {},
					"object": "608060405234801561000f575f80fd5b506040516136af3803806136af83398181016040528101906100319190610484565b805f73ffffffffffffffffffffffffffffffffffffffff168173ffffffffffffffffffffffffffffffffffffffff16036100a2575f6040517f1e4fbdf700000000000000000000000000000000000000000000000000000000815260040161009991906104be565b60405180910390fd5b6100b18161029960201b60201c565b505f600167ffffffffffffffff8111156100ce576100cd6104d7565b5b6040519080825280602002602001820160405280156100fc5781602001602082028036833780820191505090505b5090506001815f8151811061011457610113610504565b5b6020026020010190600481111561012e5761012d610531565b5b9081600481111561014257610141610531565b5b815250505f60405180608001604052806040518060400160405280600581526020017f41646d696e00000000000000000000000000000000000000000000000000000081525081526020018473ffffffffffffffffffffffffffffffffffffffff16815260200160405180602001604052805f81525081526020018381525090508060025f8573ffffffffffffffffffffffffffffffffffffffff1673ffffffffffffffffffffffffffffffffffffffff1681526020019081526020015f205f820151815f019081610214919061076b565b506020820151816001015f6101000a81548173ffffffffffffffffffffffffffffffffffffffff021916908373ffffffffffffffffffffffffffffffffffffffff1602179055506040820151816002019081610270919061076b565b50606082015181600301908051906020019061028d92919061035a565b5090505050505061083a565b5f805f9054906101000a900473ffffffffffffffffffffffffffffffffffffffff169050815f806101000a81548173ffffffffffffffffffffffffffffffffffffffff021916908373ffffffffffffffffffffffffffffffffffffffff1602179055508173ffffffffffffffffffffffffffffffffffffffff168173ffffffffffffffffffffffffffffffffffffffff167f8be0079c531659141344cd1fd0a4f28419497f9722a3daafe3b4186f6b6457e060405160405180910390a35050565b828054828255905f5260205f2090601f016020900481019282156103fa579160200282015f5b838211156103cc57835183826101000a81548160ff021916908360048111156103ac576103ab610531565b5b021790555092602001926001016020815f01049283019260010302610380565b80156103f85782816101000a81549060ff02191690556001016020815f010492830192600103026103cc565b505b509050610407919061040b565b5090565b5b80821115610422575f815f90555060010161040c565b5090565b5f80fd5b5f73ffffffffffffffffffffffffffffffffffffffff82169050919050565b5f6104538261042a565b9050919050565b61046381610449565b811461046d575f80fd5b50565b5f8151905061047e8161045a565b92915050565b5f6020828403121561049957610498610426565b5b5f6104a684828501610470565b91505092915050565b6104b881610449565b82525050565b5f6020820190506104d15f8301846104af565b92915050565b7f4e487b71000000000000000000000000000000000000000000000000000000005f52604160045260245ffd5b7f4e487b71000000000000000000000000000000000000000000000000000000005f52603260045260245ffd5b7f4e487b71000000000000000000000000000000000000000000000000000000005f52602160045260245ffd5b5f81519050919050565b7f4e487b71000000000000000000000000000000000000000000000000000000005f52602260045260245ffd5b5f60028204905060018216806105ac57607f821691505b6020821081036105bf576105be610568565b5b50919050565b5f819050815f5260205f209050919050565b5f6020601f8301049050919050565b5f82821b905092915050565b5f600883026106217fffffffffffffffffffffffffffffffffffffffffffffffffffffffffffffffff826105e6565b61062b86836105e6565b95508019841693508086168417925050509392505050565b5f819050919050565b5f819050919050565b5f61066f61066a61066584610643565b61064c565b610643565b9050919050565b5f819050919050565b61068883610655565b61069c61069482610676565b8484546105f2565b825550505050565b5f90565b6106b06106a4565b6106bb81848461067f565b505050565b5b818110156106de576106d35f826106a8565b6001810190506106c1565b5050565b601f821115610723576106f4816105c5565b6106fd846105d7565b8101602085101561070c578190505b610720610718856105d7565b8301826106c0565b50505b505050565b5f82821c905092915050565b5f6107435f1984600802610728565b1980831691505092915050565b5f61075b8383610734565b9150826002028217905092915050565b6107748261055e565b67ffffffffffffffff81111561078d5761078c6104d7565b5b6107978254610595565b6107a28282856106e2565b5f60209050601f8311600181146107d3575f84156107c1578287015190505b6107cb8582610750565b865550610832565b601f1984166107e1866105c5565b5f5b82811015610808578489015182556001820191506020850194506020810190506107e3565b868310156108255784890151610821601f891682610734565b8355505b6001600288020188555050505b505050505050565b612e68806108475f395ff3fe608060405234801561000f575f80fd5b506004361061009c575f3560e01c8063a8fff05711610064578063a8fff05714610144578063ca9545d314610174578063e6d7a28914610190578063f2fde38b146101ac578063f454e5ca146101c85761009c565b8063163f7522146100a05780634f7d22e7146100d0578063715018a61461010057806387b162b51461010a5780638da5cb5b14610126575b5f80fd5b6100ba60048036038101906100b59190611d9a565b6101e6565b6040516100c79190611ddf565b60405180910390f35b6100ea60048036038101906100e59190611e2b565b61024c565b6040516100f79190611ec6565b60405180910390f35b61010861037d565b005b610124600480360381019061011f9190612012565b610390565b005b61012e6105fa565b60405161013b9190612097565b60405180910390f35b61015e600480360381019061015991906120b0565b610621565b60405161016b91906122c3565b60405180910390f35b61018e6004803603810190610189919061230d565b6108c4565b005b6101aa60048036038101906101a5919061238a565b610cf9565b005b6101c660048036038101906101c19190611d9a565b611024565b005b6101d06110a8565b6040516101dd9190612470565b60405180910390f35b5f8060025f8473ffffffffffffffffffffffffffffffffffffffff1673ffffffffffffffffffffffffffffffffffffffff1681526020019081526020015f205f018054610232906124bd565b905011156102435760019050610247565b5f90505b919050565b60605f6040518060600160405280603e8152602001612df5603e913990505f8367ffffffffffffffff81111561028557610284611eee565b5b6040519080825280601f01601f1916602001820160405280156102b75781602001600182028036833780820191505090505b5090505f825190505f5b85811015610371575f824244846040516020016102e09392919061250d565b604051602081830303815290604052805190602001205f1c6103029190612576565b9050848181518110610317576103166125a6565b5b602001015160f81c60f81b848381518110610335576103346125a6565b5b60200101907effffffffffffffffffffffffffffffffffffffffffffffffffffffffffffff191690815f1a9053505080806001019150506102c1565b50819350505050919050565b6103856112b3565b61038e5f61133a565b565b81815f8251116103d757336040517f5012f8860000000000000000000000000000000000000000000000000000000081526004016103ce919061261d565b60405180910390fd5b5f82511161041c57336040517f5012f8860000000000000000000000000000000000000000000000000000000081526004016104139190612693565b60405180910390fd5b5f600167ffffffffffffffff81111561043857610437611eee565b5b6040519080825280602002602001820160405280156104665781602001602082028036833780820191505090505b5090505f815f8151811061047d5761047c6125a6565b5b602002602001019060048111156104975761049661214e565b5b908160048111156104ab576104aa61214e565b5b815250505f60405180608001604052808781526020013373ffffffffffffffffffffffffffffffffffffffff1681526020018681526020018381525090508060025f3373ffffffffffffffffffffffffffffffffffffffff1673ffffffffffffffffffffffffffffffffffffffff1681526020019081526020015f205f820151815f01908161053a919061285c565b506020820151816001015f6101000a81548173ffffffffffffffffffffffffffffffffffffffff021916908373ffffffffffffffffffffffffffffffffffffffff1602179055506040820151816002019081610596919061285c565b5060608201518160030190805190602001906105b3929190611bc9565b509050507fbb193fe0a34fdd537c950d0cae2072791bd1768ebe79a45754cc99f7aa93d8418633876040516105ea9392919061292b565b60405180910390a1505050505050565b5f805f9054906101000a900473ffffffffffffffffffffffffffffffffffffffff16905090565b610629611c7a565b5f5b60018054905081101561087f57828051906020012060018281548110610654576106536125a6565b5b905f5260205f2090600302015f0160405161066f9190612a0a565b6040518091039020036108725760405180604001604052806001838154811061069b5761069a6125a6565b5b905f5260205f2090600302016040518060a00160405290815f820180546106c1906124bd565b80601f01602080910402602001604051908101604052809291908181526020018280546106ed906124bd565b80156107385780601f1061070f57610100808354040283529160200191610738565b820191905f5260205f20905b81548152906001019060200180831161071b57829003601f168201915b50505050508152602001600182015f9054906101000a900473ffffffffffffffffffffffffffffffffffffffff1673ffffffffffffffffffffffffffffffffffffffff1673ffffffffffffffffffffffffffffffffffffffff1681526020016001820160149054906101000a900460ff1660048111156107bb576107ba61214e565b5b60048111156107cd576107cc61214e565b5b81526020016001820160159054906101000a900460ff1660028111156107f6576107f561214e565b5b60028111156108085761080761214e565b5b8152602001600282015f9054906101000a900473ffffffffffffffffffffffffffffffffffffffff1673ffffffffffffffffffffffffffffffffffffffff1673ffffffffffffffffffffffffffffffffffffffff16815250508152602001828152509150506108bf565b808060010191505061062b565b5033826040517f1af004190000000000000000000000000000000000000000000000000000000081526004016108b6929190612a6a565b60405180910390fd5b919050565b5f60025f3373ffffffffffffffffffffffffffffffffffffffff1673ffffffffffffffffffffffffffffffffffffffff1681526020019081526020015f2060030180548060200260200160405190810160405280929190818152602001828054801561098057602002820191905f5260205f20905f905b82829054906101000a900460ff16600481111561095b5761095a61214e565b5b815260200190600101906020825f0104928301926001038202915080841161093b5790505b505050505090505f61099184610621565b90505f815f015190506109a88382604001516113fb565b6109e957336040517f50df61b30000000000000000000000000000000000000000000000000000000081526004016109e09190612b1b565b60405180910390fd5b6109f281611755565b8315610b9357600181606001906002811115610a1157610a1061214e565b5b90816002811115610a2557610a2461214e565b5b8152505033816080019073ffffffffffffffffffffffffffffffffffffffff16908173ffffffffffffffffffffffffffffffffffffffff1681525050806001836020015181548110610a7a57610a796125a6565b5b905f5260205f2090600302015f820151815f019081610a99919061285c565b506020820151816001015f6101000a81548173ffffffffffffffffffffffffffffffffffffffff021916908373ffffffffffffffffffffffffffffffffffffffff16021790555060408201518160010160146101000a81548160ff02191690836004811115610b0b57610b0a61214e565b5b021790555060608201518160010160156101000a81548160ff02191690836002811115610b3b57610b3a61214e565b5b02179055506080820151816002015f6101000a81548173ffffffffffffffffffffffffffffffffffffffff021916908373ffffffffffffffffffffffffffffffffffffffff160217905550905050610b928161183b565b5b83610cf257600281606001906002811115610bb157610bb061214e565b5b90816002811115610bc557610bc461214e565b5b81525050806001836020015181548110610be257610be16125a6565b5b905f5260205f2090600302015f820151815f019081610c01919061285c565b506020820151816001015f6101000a81548173ffffffffffffffffffffffffffffffffffffffff021916908373ffffffffffffffffffffffffffffffffffffffff16021790555060408201518160010160146101000a81548160ff02191690836004811115610c7357610c7261214e565b5b021790555060608201518160010160156101000a81548160ff02191690836002811115610ca357610ca261214e565b5b02179055506080820151816002015f6101000a81548173ffffffffffffffffffffffffffffffffffffffff021916908373ffffffffffffffffffffffffffffffffffffffff1602179055509050505b5050505050565b5f73ffffffffffffffffffffffffffffffffffffffff1660025f3373ffffffffffffffffffffffffffffffffffffffff1673ffffffffffffffffffffffffffffffffffffffff1681526020019081526020015f206001015f9054906101000a900473ffffffffffffffffffffffffffffffffffffffff1673ffffffffffffffffffffffffffffffffffffffff1603610dc857336040517f0c3ebdcc000000000000000000000000000000000000000000000000000000008152600401610dbf9190612b91565b60405180910390fd5b805f6004811115610ddc57610ddb61214e565b5b816004811115610def57610dee61214e565b5b03610e3157336040517f5012f886000000000000000000000000000000000000000000000000000000008152600401610e289190612c07565b60405180910390fd5b5f610e3c600461024c565b90505f6040518060a001604052808381526020013373ffffffffffffffffffffffffffffffffffffffff168152602001856004811115610e7f57610e7e61214e565b5b81526020015f6002811115610e9757610e9661214e565b5b81526020015f73ffffffffffffffffffffffffffffffffffffffff168152509050600181908060018154018082558091505060019003905f5260205f2090600302015f909190919091505f820151815f019081610ef4919061285c565b506020820151816001015f6101000a81548173ffffffffffffffffffffffffffffffffffffffff021916908373ffffffffffffffffffffffffffffffffffffffff16021790555060408201518160010160146101000a81548160ff02191690836004811115610f6657610f6561214e565b5b021790555060608201518160010160156101000a81548160ff02191690836002811115610f9657610f9561214e565b5b02179055506080820151816002015f6101000a81548173ffffffffffffffffffffffffffffffffffffffff021916908373ffffffffffffffffffffffffffffffffffffffff16021790555050507fee5da8b7295e0a9fc7e3423a3b6db4c18dbcb289917e609001558e093e31150782338660405161101693929190612c42565b60405180910390a150505050565b61102c6112b3565b5f73ffffffffffffffffffffffffffffffffffffffff168173ffffffffffffffffffffffffffffffffffffffff160361109c575f6040517f1e4fbdf70000000000000000000000000000000000000000000000000000000081526004016110939190612097565b60405180910390fd5b6110a58161133a565b50565b60606001805480602002602001604051908101604052809291908181526020015f905b828210156112aa578382905f5260205f2090600302016040518060a00160405290815f820180546110fb906124bd565b80601f0160208091040260200160405190810160405280929190818152602001828054611127906124bd565b80156111725780601f1061114957610100808354040283529160200191611172565b820191905f5260205f20905b81548152906001019060200180831161115557829003601f168201915b50505050508152602001600182015f9054906101000a900473ffffffffffffffffffffffffffffffffffffffff1673ffffffffffffffffffffffffffffffffffffffff1673ffffffffffffffffffffffffffffffffffffffff1681526020016001820160149054906101000a900460ff1660048111156111f5576111f461214e565b5b60048111156112075761120661214e565b5b81526020016001820160159054906101000a900460ff1660028111156112305761122f61214e565b5b60028111156112425761124161214e565b5b8152602001600282015f9054906101000a900473ffffffffffffffffffffffffffffffffffffffff1673ffffffffffffffffffffffffffffffffffffffff1673ffffffffffffffffffffffffffffffffffffffff1681525050815260200190600101906110cb565b50505050905090565b6112bb611bc2565b73ffffffffffffffffffffffffffffffffffffffff166112d96105fa565b73ffffffffffffffffffffffffffffffffffffffff1614611338576112fc611bc2565b6040517f118cdaa700000000000000000000000000000000000000000000000000000000815260040161132f9190612097565b60405180910390fd5b565b5f805f9054906101000a900473ffffffffffffffffffffffffffffffffffffffff169050815f806101000a81548173ffffffffffffffffffffffffffffffffffffffff021916908373ffffffffffffffffffffffffffffffffffffffff1602179055508173ffffffffffffffffffffffffffffffffffffffff168173ffffffffffffffffffffffffffffffffffffffff167f8be0079c531659141344cd1fd0a4f28419497f9722a3daafe3b4186f6b6457e060405160405180910390a35050565b5f600160048111156114105761140f61214e565b5b8260048111156114235761142261214e565b5b03611499575f5b835181101561149057600160048111156114475761144661214e565b5b84828151811061145a576114596125a6565b5b602002602001015160048111156114745761147361214e565b5b0361148357600191505061174f565b808060010191505061142a565b505f905061174f565b600260048111156114ad576114ac61214e565b5b8260048111156114c0576114bf61214e565b5b03611580575f5b835181101561157757600160048111156114e4576114e361214e565b5b8482815181106114f7576114f66125a6565b5b602002602001015160048111156115115761151061214e565b5b148061155b57506002600481111561152c5761152b61214e565b5b84828151811061153f5761153e6125a6565b5b602002602001015160048111156115595761155861214e565b5b145b1561156a57600191505061174f565b80806001019150506114c7565b505f905061174f565b600360048111156115945761159361214e565b5b8260048111156115a7576115a661214e565b5b036116b0575f5b83518110156116a757600160048111156115cb576115ca61214e565b5b8482815181106115de576115dd6125a6565b5b602002602001015160048111156115f8576115f761214e565b5b14806116425750600260048111156116135761161261214e565b5b848281518110611626576116256125a6565b5b602002602001015160048111156116405761163f61214e565b5b145b8061168b57506003600481111561165c5761165b61214e565b5b84828151811061166f5761166e6125a6565b5b602002602001015160048111156116895761168861214e565b5b145b1561169a57600191505061174f565b80806001019150506115ae565b505f905061174f565b6004808111156116c3576116c261214e565b5b8260048111156116d6576116d561214e565b5b0361174b575f5b8351811015611741575f60048111156116f9576116f861214e565b5b84828151811061170c5761170b6125a6565b5b602002602001015160048111156117265761172561214e565b5b03611734575f91505061174f565b80806001019150506116dd565b506001905061174f565b5f90505b92915050565b600160028111156117695761176861214e565b5b816060015160028111156117805761177f61214e565b5b036117c75733815f01516040517fc4c67e010000000000000000000000000000000000000000000000000000000081526004016117be929190612cc8565b60405180910390fd5b6002808111156117da576117d961214e565b5b816060015160028111156117f1576117f061214e565b5b036118385733815f01516040517fc4c67e0100000000000000000000000000000000000000000000000000000000815260040161182f929190612d53565b60405180910390fd5b50565b5f60025f836020015173ffffffffffffffffffffffffffffffffffffffff1673ffffffffffffffffffffffffffffffffffffffff1681526020019081526020015f206040518060800160405290815f82018054611897906124bd565b80601f01602080910402602001604051908101604052809291908181526020018280546118c3906124bd565b801561190e5780601f106118e55761010080835404028352916020019161190e565b820191905f5260205f20905b8154815290600101906020018083116118f157829003601f168201915b50505050508152602001600182015f9054906101000a900473ffffffffffffffffffffffffffffffffffffffff1673ffffffffffffffffffffffffffffffffffffffff1673ffffffffffffffffffffffffffffffffffffffff16815260200160028201805461197c906124bd565b80601f01602080910402602001604051908101604052809291908181526020018280546119a8906124bd565b80156119f35780601f106119ca576101008083540402835291602001916119f3565b820191905f5260205f20905b8154815290600101906020018083116119d657829003601f168201915b5050505050815260200160038201805480602002602001604051908101604052809291908181526020018280548015611a7c57602002820191905f5260205f20905f905b82829054906101000a900460ff166004811115611a5757611a5661214e565b5b815260200190600101906020825f01049283019260010382029150808411611a375790505b50505050508152505090505f6001826060015151611a9a9190612dc1565b67ffffffffffffffff811115611ab357611ab2611eee565b5b604051908082528060200260200182016040528015611ae15781602001602082028036833780820191505090505b5090505f5b826060015151811015611b645782606001518181518110611b0a57611b096125a6565b5b6020026020010151828281518110611b2557611b246125a6565b5b60200260200101906004811115611b3f57611b3e61214e565b5b90816004811115611b5357611b5261214e565b5b815250508080600101915050611ae6565b5082604001518183606001515181518110611b8257611b816125a6565b5b60200260200101906004811115611b9c57611b9b61214e565b5b90816004811115611bb057611baf61214e565b5b81525050808260600181905250505050565b5f33905090565b828054828255905f5260205f2090601f01602090048101928215611c69579160200282015f5b83821115611c3b57835183826101000a81548160ff02191690836004811115611c1b57611c1a61214e565b5b021790555092602001926001016020815f01049283019260010302611bef565b8015611c675782816101000a81549060ff02191690556001016020815f01049283019260010302611c3b565b505b509050611c769190611c99565b5090565b6040518060400160405280611c8d611cb4565b81526020015f81525090565b5b80821115611cb0575f815f905550600101611c9a565b5090565b6040518060a00160405280606081526020015f73ffffffffffffffffffffffffffffffffffffffff1681526020015f6004811115611cf557611cf461214e565b5b81526020015f6002811115611d0d57611d0c61214e565b5b81526020015f73ffffffffffffffffffffffffffffffffffffffff1681525090565b5f604051905090565b5f80fd5b5f80fd5b5f73ffffffffffffffffffffffffffffffffffffffff82169050919050565b5f611d6982611d40565b9050919050565b611d7981611d5f565b8114611d83575f80fd5b50565b5f81359050611d9481611d70565b92915050565b5f60208284031215611daf57611dae611d38565b5b5f611dbc84828501611d86565b91505092915050565b5f8115159050919050565b611dd981611dc5565b82525050565b5f602082019050611df25f830184611dd0565b92915050565b5f819050919050565b611e0a81611df8565b8114611e14575f80fd5b50565b5f81359050611e2581611e01565b92915050565b5f60208284031215611e4057611e3f611d38565b5b5f611e4d84828501611e17565b91505092915050565b5f81519050919050565b5f82825260208201905092915050565b8281835e5f83830152505050565b5f601f19601f8301169050919050565b5f611e9882611e56565b611ea28185611e60565b9350611eb2818560208601611e70565b611ebb81611e7e565b840191505092915050565b5f6020820190508181035f830152611ede8184611e8e565b905092915050565b5f80fd5b5f80fd5b7f4e487b71000000000000000000000000000000000000000000000000000000005f52604160045260245ffd5b611f2482611e7e565b810181811067ffffffffffffffff82111715611f4357611f42611eee565b5b80604052505050565b5f611f55611d2f565b9050611f618282611f1b565b919050565b5f67ffffffffffffffff821115611f8057611f7f611eee565b5b611f8982611e7e565b9050602081019050919050565b828183375f83830152505050565b5f611fb6611fb184611f66565b611f4c565b905082815260208101848484011115611fd257611fd1611eea565b5b611fdd848285611f96565b509392505050565b5f82601f830112611ff957611ff8611ee6565b5b8135612009848260208601611fa4565b91505092915050565b5f806040838503121561202857612027611d38565b5b5f83013567ffffffffffffffff81111561204557612044611d3c565b5b61205185828601611fe5565b925050602083013567ffffffffffffffff81111561207257612071611d3c565b5b61207e85828601611fe5565b9150509250929050565b61209181611d5f565b82525050565b5f6020820190506120aa5f830184612088565b92915050565b5f602082840312156120c5576120c4611d38565b5b5f82013567ffffffffffffffff8111156120e2576120e1611d3c565b5b6120ee84828501611fe5565b91505092915050565b5f82825260208201905092915050565b5f61211182611e56565b61211b81856120f7565b935061212b818560208601611e70565b61213481611e7e565b840191505092915050565b61214881611d5f565b82525050565b7f4e487b71000000000000000000000000000000000000000000000000000000005f52602160045260245ffd5b6005811061218c5761218b61214e565b5b50565b5f81905061219c8261217b565b919050565b5f6121ab8261218f565b9050919050565b6121bb816121a1565b82525050565b600381106121d2576121d161214e565b5b50565b5f8190506121e2826121c1565b919050565b5f6121f1826121d5565b9050919050565b612201816121e7565b82525050565b5f60a083015f8301518482035f8601526122218282612107565b9150506020830151612236602086018261213f565b50604083015161224960408601826121b2565b50606083015161225c60608601826121f8565b50608083015161226f608086018261213f565b508091505092915050565b61228381611df8565b82525050565b5f604083015f8301518482035f8601526122a38282612207565b91505060208301516122b8602086018261227a565b508091505092915050565b5f6020820190508181035f8301526122db8184612289565b905092915050565b6122ec81611dc5565b81146122f6575f80fd5b50565b5f81359050612307816122e3565b92915050565b5f806040838503121561232357612322611d38565b5b5f83013567ffffffffffffffff8111156123405761233f611d3c565b5b61234c85828601611fe5565b925050602061235d858286016122f9565b9150509250929050565b60058110612373575f80fd5b50565b5f8135905061238481612367565b92915050565b5f6020828403121561239f5761239e611d38565b5b5f6123ac84828501612376565b91505092915050565b5f81519050919050565b5f82825260208201905092915050565b5f819050602082019050919050565b5f6123e98383612207565b905092915050565b5f602082019050919050565b5f612407826123b5565b61241181856123bf565b935083602082028501612423856123cf565b805f5b8581101561245e578484038952815161243f85826123de565b945061244a836123f1565b925060208a01995050600181019050612426565b50829750879550505050505092915050565b5f6020820190508181035f83015261248881846123fd565b905092915050565b7f4e487b71000000000000000000000000000000000000000000000000000000005f52602260045260245ffd5b5f60028204905060018216806124d457607f821691505b6020821081036124e7576124e6612490565b5b50919050565b5f819050919050565b61250761250282611df8565b6124ed565b82525050565b5f61251882866124f6565b60208201915061252882856124f6565b60208201915061253882846124f6565b602082019150819050949350505050565b7f4e487b71000000000000000000000000000000000000000000000000000000005f52601260045260245ffd5b5f61258082611df8565b915061258b83611df8565b92508261259b5761259a612549565b5b828206905092915050565b7f4e487b71000000000000000000000000000000000000000000000000000000005f52603260045260245ffd5b7f557365726e616d652072657175697265640000000000000000000000000000005f82015250565b5f612607601183611e60565b9150612612826125d3565b602082019050919050565b5f6040820190506126305f830184612088565b8181036020830152612641816125fb565b905092915050565b7f47656f48617368207265717569726564000000000000000000000000000000005f82015250565b5f61267d601083611e60565b915061268882612649565b602082019050919050565b5f6040820190506126a65f830184612088565b81810360208301526126b781612671565b905092915050565b5f819050815f5260205f209050919050565b5f6020601f8301049050919050565b5f82821b905092915050565b5f6008830261271b7fffffffffffffffffffffffffffffffffffffffffffffffffffffffffffffffff826126e0565b61272586836126e0565b95508019841693508086168417925050509392505050565b5f819050919050565b5f61276061275b61275684611df8565b61273d565b611df8565b9050919050565b5f819050919050565b61277983612746565b61278d61278582612767565b8484546126ec565b825550505050565b5f90565b6127a1612795565b6127ac818484612770565b505050565b5b818110156127cf576127c45f82612799565b6001810190506127b2565b5050565b601f821115612814576127e5816126bf565b6127ee846126d1565b810160208510156127fd578190505b612811612809856126d1565b8301826127b1565b50505b505050565b5f82821c905092915050565b5f6128345f1984600802612819565b1980831691505092915050565b5f61284c8383612825565b9150826002028217905092915050565b61286582611e56565b67ffffffffffffffff81111561287e5761287d611eee565b5b61288882546124bd565b6128938282856127d3565b5f60209050601f8311600181146128c4575f84156128b2578287015190505b6128bc8582612841565b865550612923565b601f1984166128d2866126bf565b5f5b828110156128f9578489015182556001820191506020850194506020810190506128d4565b868310156129165784890151612912601f891682612825565b8355505b6001600288020188555050505b505050505050565b5f6060820190508181035f8301526129438186611e8e565b90506129526020830185612088565b81810360408301526129648184611e8e565b9050949350505050565b5f81905092915050565b5f819050815f5260205f209050919050565b5f8154612996816124bd565b6129a0818661296e565b9450600182165f81146129ba57600181146129cf57612a01565b60ff1983168652811515820286019350612a01565b6129d885612978565b5f5b838110156129f9578154818901526001820191506020810190506129da565b838801955050505b50505092915050565b5f612a15828461298a565b915081905092915050565b7f526f6c652052657175657374206e6f7420666f756e64000000000000000000005f82015250565b5f612a54601683611e60565b9150612a5f82612a20565b602082019050919050565b5f606082019050612a7d5f830185612088565b8181036020830152612a8e81612a48565b90508181036040830152612aa28184611e8e565b90509392505050565b7f596f7520646f6e27742068617665207065726d697373696f6e20746f206170705f8201527f726f766520746869732072657175657374000000000000000000000000000000602082015250565b5f612b05603183611e60565b9150612b1082612aab565b604082019050919050565b5f604082019050612b2e5f830184612088565b8181036020830152612b3f81612af9565b905092915050565b7f55736572206973206e6f742072656769737465726564000000000000000000005f82015250565b5f612b7b601683611e60565b9150612b8682612b47565b602082019050919050565b5f604082019050612ba45f830184612088565b8181036020830152612bb581612b6f565b905092915050565b7f43616e6e6f742072657175657374206e6f6e6520726f6c6500000000000000005f82015250565b5f612bf1601883611e60565b9150612bfc82612bbd565b602082019050919050565b5f604082019050612c1a5f830184612088565b8181036020830152612c2b81612be5565b905092915050565b612c3c816121a1565b82525050565b5f6060820190508181035f830152612c5a8186611e8e565b9050612c696020830185612088565b612c766040830184612c33565b949350505050565b7f526f6c65207265717565737420616c726561647920617070726f7665640000005f82015250565b5f612cb2601d83611e60565b9150612cbd82612c7e565b602082019050919050565b5f606082019050612cdb5f830185612088565b8181036020830152612cec81612ca6565b90508181036040830152612d008184611e8e565b90509392505050565b7f526f6c65207265717565737420616c72656164792072656a65637465640000005f82015250565b5f612d3d601d83611e60565b9150612d4882612d09565b602082019050919050565b5f606082019050612d665f830185612088565b8181036020830152612d7781612d31565b90508181036040830152612d8b8184611e8e565b90509392505050565b7f4e487b71000000000000000000000000000000000000000000000000000000005f52601160045260245ffd5b5f612dcb82611df8565b9150612dd683611df8565b9250828201905080821115612dee57612ded612d94565b5b9291505056fe6162636465666768696a6b6c6d6e6f707172737475767778797a4142434445464748494a4b4c4d4e4f505152535455565758595a30313233343536373839a2646970667358221220361a5e957a3ac30f849a1a01d694c5a41c7b2410cd669c8151a01e3b354ae8d164736f6c63430008190033",
					"opcodes": "PUSH1 0x80 PUSH1 0x40 MSTORE CALLVALUE DUP1 ISZERO PUSH2 0xF JUMPI PUSH0 DUP1 REVERT JUMPDEST POP PUSH1 0x40 MLOAD PUSH2 0x36AF CODESIZE SUB DUP1 PUSH2 0x36AF DUP4 CODECOPY DUP2 DUP2 ADD PUSH1 0x40 MSTORE DUP2 ADD SWAP1 PUSH2 0x31 SWAP2 SWAP1 PUSH2 0x484 JUMP JUMPDEST DUP1 PUSH0 PUSH20 0xFFFFFFFFFFFFFFFFFFFFFFFFFFFFFFFFFFFFFFFF AND DUP2 PUSH20 0xFFFFFFFFFFFFFFFFFFFFFFFFFFFFFFFFFFFFFFFF AND SUB PUSH2 0xA2 JUMPI PUSH0 PUSH1 0x40 MLOAD PUSH32 0x1E4FBDF700000000000000000000000000000000000000000000000000000000 DUP2 MSTORE PUSH1 0x4 ADD PUSH2 0x99 SWAP2 SWAP1 PUSH2 0x4BE JUMP JUMPDEST PUSH1 0x40 MLOAD DUP1 SWAP2 SUB SWAP1 REVERT JUMPDEST PUSH2 0xB1 DUP2 PUSH2 0x299 PUSH1 0x20 SHL PUSH1 0x20 SHR JUMP JUMPDEST POP PUSH0 PUSH1 0x1 PUSH8 0xFFFFFFFFFFFFFFFF DUP2 GT ISZERO PUSH2 0xCE JUMPI PUSH2 0xCD PUSH2 0x4D7 JUMP JUMPDEST JUMPDEST PUSH1 0x40 MLOAD SWAP1 DUP1 DUP3 MSTORE DUP1 PUSH1 0x20 MUL PUSH1 0x20 ADD DUP3 ADD PUSH1 0x40 MSTORE DUP1 ISZERO PUSH2 0xFC JUMPI DUP2 PUSH1 0x20 ADD PUSH1 0x20 DUP3 MUL DUP1 CALLDATASIZE DUP4 CALLDATACOPY DUP1 DUP3 ADD SWAP2 POP POP SWAP1 POP JUMPDEST POP SWAP1 POP PUSH1 0x1 DUP2 PUSH0 DUP2 MLOAD DUP2 LT PUSH2 0x114 JUMPI PUSH2 0x113 PUSH2 0x504 JUMP JUMPDEST JUMPDEST PUSH1 0x20 MUL PUSH1 0x20 ADD ADD SWAP1 PUSH1 0x4 DUP2 GT ISZERO PUSH2 0x12E JUMPI PUSH2 0x12D PUSH2 0x531 JUMP JUMPDEST JUMPDEST SWAP1 DUP2 PUSH1 0x4 DUP2 GT ISZERO PUSH2 0x142 JUMPI PUSH2 0x141 PUSH2 0x531 JUMP JUMPDEST JUMPDEST DUP2 MSTORE POP POP PUSH0 PUSH1 0x40 MLOAD DUP1 PUSH1 0x80 ADD PUSH1 0x40 MSTORE DUP1 PUSH1 0x40 MLOAD DUP1 PUSH1 0x40 ADD PUSH1 0x40 MSTORE DUP1 PUSH1 0x5 DUP2 MSTORE PUSH1 0x20 ADD PUSH32 0x41646D696E000000000000000000000000000000000000000000000000000000 DUP2 MSTORE POP DUP2 MSTORE PUSH1 0x20 ADD DUP5 PUSH20 0xFFFFFFFFFFFFFFFFFFFFFFFFFFFFFFFFFFFFFFFF AND DUP2 MSTORE PUSH1 0x20 ADD PUSH1 0x40 MLOAD DUP1 PUSH1 0x20 ADD PUSH1 0x40 MSTORE DUP1 PUSH0 DUP2 MSTORE POP DUP2 MSTORE PUSH1 0x20 ADD DUP4 DUP2 MSTORE POP SWAP1 POP DUP1 PUSH1 0x2 PUSH0 DUP6 PUSH20 0xFFFFFFFFFFFFFFFFFFFFFFFFFFFFFFFFFFFFFFFF AND PUSH20 0xFFFFFFFFFFFFFFFFFFFFFFFFFFFFFFFFFFFFFFFF AND DUP2 MSTORE PUSH1 0x20 ADD SWAP1 DUP2 MSTORE PUSH1 0x20 ADD PUSH0 KECCAK256 PUSH0 DUP3 ADD MLOAD DUP2 PUSH0 ADD SWAP1 DUP2 PUSH2 0x214 SWAP2 SWAP1 PUSH2 0x76B JUMP JUMPDEST POP PUSH1 0x20 DUP3 ADD MLOAD DUP2 PUSH1 0x1 ADD PUSH0 PUSH2 0x100 EXP DUP2 SLOAD DUP2 PUSH20 0xFFFFFFFFFFFFFFFFFFFFFFFFFFFFFFFFFFFFFFFF MUL NOT AND SWAP1 DUP4 PUSH20 0xFFFFFFFFFFFFFFFFFFFFFFFFFFFFFFFFFFFFFFFF AND MUL OR SWAP1 SSTORE POP PUSH1 0x40 DUP3 ADD MLOAD DUP2 PUSH1 0x2 ADD SWAP1 DUP2 PUSH2 0x270 SWAP2 SWAP1 PUSH2 0x76B JUMP JUMPDEST POP PUSH1 0x60 DUP3 ADD MLOAD DUP2 PUSH1 0x3 ADD SWAP1 DUP1 MLOAD SWAP1 PUSH1 0x20 ADD SWAP1 PUSH2 0x28D SWAP3 SWAP2 SWAP1 PUSH2 0x35A JUMP JUMPDEST POP SWAP1 POP POP POP POP POP PUSH2 0x83A JUMP JUMPDEST PUSH0 DUP1 PUSH0 SWAP1 SLOAD SWAP1 PUSH2 0x100 EXP SWAP1 DIV PUSH20 0xFFFFFFFFFFFFFFFFFFFFFFFFFFFFFFFFFFFFFFFF AND SWAP1 POP DUP2 PUSH0 DUP1 PUSH2 0x100 EXP DUP2 SLOAD DUP2 PUSH20 0xFFFFFFFFFFFFFFFFFFFFFFFFFFFFFFFFFFFFFFFF MUL NOT AND SWAP1 DUP4 PUSH20 0xFFFFFFFFFFFFFFFFFFFFFFFFFFFFFFFFFFFFFFFF AND MUL OR SWAP1 SSTORE POP DUP2 PUSH20 0xFFFFFFFFFFFFFFFFFFFFFFFFFFFFFFFFFFFFFFFF AND DUP2 PUSH20 0xFFFFFFFFFFFFFFFFFFFFFFFFFFFFFFFFFFFFFFFF AND PUSH32 0x8BE0079C531659141344CD1FD0A4F28419497F9722A3DAAFE3B4186F6B6457E0 PUSH1 0x40 MLOAD PUSH1 0x40 MLOAD DUP1 SWAP2 SUB SWAP1 LOG3 POP POP JUMP JUMPDEST DUP3 DUP1 SLOAD DUP3 DUP3 SSTORE SWAP1 PUSH0 MSTORE PUSH1 0x20 PUSH0 KECCAK256 SWAP1 PUSH1 0x1F ADD PUSH1 0x20 SWAP1 DIV DUP2 ADD SWAP3 DUP3 ISZERO PUSH2 0x3FA JUMPI SWAP2 PUSH1 0x20 MUL DUP3 ADD PUSH0 JUMPDEST DUP4 DUP3 GT ISZERO PUSH2 0x3CC JUMPI DUP4 MLOAD DUP4 DUP3 PUSH2 0x100 EXP DUP2 SLOAD DUP2 PUSH1 0xFF MUL NOT AND SWAP1 DUP4 PUSH1 0x4 DUP2 GT ISZERO PUSH2 0x3AC JUMPI PUSH2 0x3AB PUSH2 0x531 JUMP JUMPDEST JUMPDEST MUL OR SWAP1 SSTORE POP SWAP3 PUSH1 0x20 ADD SWAP3 PUSH1 0x1 ADD PUSH1 0x20 DUP2 PUSH0 ADD DIV SWAP3 DUP4 ADD SWAP3 PUSH1 0x1 SUB MUL PUSH2 0x380 JUMP JUMPDEST DUP1 ISZERO PUSH2 0x3F8 JUMPI DUP3 DUP2 PUSH2 0x100 EXP DUP2 SLOAD SWAP1 PUSH1 0xFF MUL NOT AND SWAP1 SSTORE PUSH1 0x1 ADD PUSH1 0x20 DUP2 PUSH0 ADD DIV SWAP3 DUP4 ADD SWAP3 PUSH1 0x1 SUB MUL PUSH2 0x3CC JUMP JUMPDEST POP JUMPDEST POP SWAP1 POP PUSH2 0x407 SWAP2 SWAP1 PUSH2 0x40B JUMP JUMPDEST POP SWAP1 JUMP JUMPDEST JUMPDEST DUP1 DUP3 GT ISZERO PUSH2 0x422 JUMPI PUSH0 DUP2 PUSH0 SWAP1 SSTORE POP PUSH1 0x1 ADD PUSH2 0x40C JUMP JUMPDEST POP SWAP1 JUMP JUMPDEST PUSH0 DUP1 REVERT JUMPDEST PUSH0 PUSH20 0xFFFFFFFFFFFFFFFFFFFFFFFFFFFFFFFFFFFFFFFF DUP3 AND SWAP1 POP SWAP2 SWAP1 POP JUMP JUMPDEST PUSH0 PUSH2 0x453 DUP3 PUSH2 0x42A JUMP JUMPDEST SWAP1 POP SWAP2 SWAP1 POP JUMP JUMPDEST PUSH2 0x463 DUP2 PUSH2 0x449 JUMP JUMPDEST DUP2 EQ PUSH2 0x46D JUMPI PUSH0 DUP1 REVERT JUMPDEST POP JUMP JUMPDEST PUSH0 DUP2 MLOAD SWAP1 POP PUSH2 0x47E DUP2 PUSH2 0x45A JUMP JUMPDEST SWAP3 SWAP2 POP POP JUMP JUMPDEST PUSH0 PUSH1 0x20 DUP3 DUP5 SUB SLT ISZERO PUSH2 0x499 JUMPI PUSH2 0x498 PUSH2 0x426 JUMP JUMPDEST JUMPDEST PUSH0 PUSH2 0x4A6 DUP5 DUP3 DUP6 ADD PUSH2 0x470 JUMP JUMPDEST SWAP2 POP POP SWAP3 SWAP2 POP POP JUMP JUMPDEST PUSH2 0x4B8 DUP2 PUSH2 0x449 JUMP JUMPDEST DUP3 MSTORE POP POP JUMP JUMPDEST PUSH0 PUSH1 0x20 DUP3 ADD SWAP1 POP PUSH2 0x4D1 PUSH0 DUP4 ADD DUP5 PUSH2 0x4AF JUMP JUMPDEST SWAP3 SWAP2 POP POP JUMP JUMPDEST PUSH32 0x4E487B7100000000000000000000000000000000000000000000000000000000 PUSH0 MSTORE PUSH1 0x41 PUSH1 0x4 MSTORE PUSH1 0x24 PUSH0 REVERT JUMPDEST PUSH32 0x4E487B7100000000000000000000000000000000000000000000000000000000 PUSH0 MSTORE PUSH1 0x32 PUSH1 0x4 MSTORE PUSH1 0x24 PUSH0 REVERT JUMPDEST PUSH32 0x4E487B7100000000000000000000000000000000000000000000000000000000 PUSH0 MSTORE PUSH1 0x21 PUSH1 0x4 MSTORE PUSH1 0x24 PUSH0 REVERT JUMPDEST PUSH0 DUP2 MLOAD SWAP1 POP SWAP2 SWAP1 POP JUMP JUMPDEST PUSH32 0x4E487B7100000000000000000000000000000000000000000000000000000000 PUSH0 MSTORE PUSH1 0x22 PUSH1 0x4 MSTORE PUSH1 0x24 PUSH0 REVERT JUMPDEST PUSH0 PUSH1 0x2 DUP3 DIV SWAP1 POP PUSH1 0x1 DUP3 AND DUP1 PUSH2 0x5AC JUMPI PUSH1 0x7F DUP3 AND SWAP2 POP JUMPDEST PUSH1 0x20 DUP3 LT DUP2 SUB PUSH2 0x5BF JUMPI PUSH2 0x5BE PUSH2 0x568 JUMP JUMPDEST JUMPDEST POP SWAP2 SWAP1 POP JUMP JUMPDEST PUSH0 DUP2 SWAP1 POP DUP2 PUSH0 MSTORE PUSH1 0x20 PUSH0 KECCAK256 SWAP1 POP SWAP2 SWAP1 POP JUMP JUMPDEST PUSH0 PUSH1 0x20 PUSH1 0x1F DUP4 ADD DIV SWAP1 POP SWAP2 SWAP1 POP JUMP JUMPDEST PUSH0 DUP3 DUP3 SHL SWAP1 POP SWAP3 SWAP2 POP POP JUMP JUMPDEST PUSH0 PUSH1 0x8 DUP4 MUL PUSH2 0x621 PUSH32 0xFFFFFFFFFFFFFFFFFFFFFFFFFFFFFFFFFFFFFFFFFFFFFFFFFFFFFFFFFFFFFFFF DUP3 PUSH2 0x5E6 JUMP JUMPDEST PUSH2 0x62B DUP7 DUP4 PUSH2 0x5E6 JUMP JUMPDEST SWAP6 POP DUP1 NOT DUP5 AND SWAP4 POP DUP1 DUP7 AND DUP5 OR SWAP3 POP POP POP SWAP4 SWAP3 POP POP POP JUMP JUMPDEST PUSH0 DUP2 SWAP1 POP SWAP2 SWAP1 POP JUMP JUMPDEST PUSH0 DUP2 SWAP1 POP SWAP2 SWAP1 POP JUMP JUMPDEST PUSH0 PUSH2 0x66F PUSH2 0x66A PUSH2 0x665 DUP5 PUSH2 0x643 JUMP JUMPDEST PUSH2 0x64C JUMP JUMPDEST PUSH2 0x643 JUMP JUMPDEST SWAP1 POP SWAP2 SWAP1 POP JUMP JUMPDEST PUSH0 DUP2 SWAP1 POP SWAP2 SWAP1 POP JUMP JUMPDEST PUSH2 0x688 DUP4 PUSH2 0x655 JUMP JUMPDEST PUSH2 0x69C PUSH2 0x694 DUP3 PUSH2 0x676 JUMP JUMPDEST DUP5 DUP5 SLOAD PUSH2 0x5F2 JUMP JUMPDEST DUP3 SSTORE POP POP POP POP JUMP JUMPDEST PUSH0 SWAP1 JUMP JUMPDEST PUSH2 0x6B0 PUSH2 0x6A4 JUMP JUMPDEST PUSH2 0x6BB DUP2 DUP5 DUP5 PUSH2 0x67F JUMP JUMPDEST POP POP POP JUMP JUMPDEST JUMPDEST DUP2 DUP2 LT ISZERO PUSH2 0x6DE JUMPI PUSH2 0x6D3 PUSH0 DUP3 PUSH2 0x6A8 JUMP JUMPDEST PUSH1 0x1 DUP2 ADD SWAP1 POP PUSH2 0x6C1 JUMP JUMPDEST POP POP JUMP JUMPDEST PUSH1 0x1F DUP3 GT ISZERO PUSH2 0x723 JUMPI PUSH2 0x6F4 DUP2 PUSH2 0x5C5 JUMP JUMPDEST PUSH2 0x6FD DUP5 PUSH2 0x5D7 JUMP JUMPDEST DUP2 ADD PUSH1 0x20 DUP6 LT ISZERO PUSH2 0x70C JUMPI DUP2 SWAP1 POP JUMPDEST PUSH2 0x720 PUSH2 0x718 DUP6 PUSH2 0x5D7 JUMP JUMPDEST DUP4 ADD DUP3 PUSH2 0x6C0 JUMP JUMPDEST POP POP JUMPDEST POP POP POP JUMP JUMPDEST PUSH0 DUP3 DUP3 SHR SWAP1 POP SWAP3 SWAP2 POP POP JUMP JUMPDEST PUSH0 PUSH2 0x743 PUSH0 NOT DUP5 PUSH1 0x8 MUL PUSH2 0x728 JUMP JUMPDEST NOT DUP1 DUP4 AND SWAP2 POP POP SWAP3 SWAP2 POP POP JUMP JUMPDEST PUSH0 PUSH2 0x75B DUP4 DUP4 PUSH2 0x734 JUMP JUMPDEST SWAP2 POP DUP3 PUSH1 0x2 MUL DUP3 OR SWAP1 POP SWAP3 SWAP2 POP POP JUMP JUMPDEST PUSH2 0x774 DUP3 PUSH2 0x55E JUMP JUMPDEST PUSH8 0xFFFFFFFFFFFFFFFF DUP2 GT ISZERO PUSH2 0x78D JUMPI PUSH2 0x78C PUSH2 0x4D7 JUMP JUMPDEST JUMPDEST PUSH2 0x797 DUP3 SLOAD PUSH2 0x595 JUMP JUMPDEST PUSH2 0x7A2 DUP3 DUP3 DUP6 PUSH2 0x6E2 JUMP JUMPDEST PUSH0 PUSH1 0x20 SWAP1 POP PUSH1 0x1F DUP4 GT PUSH1 0x1 DUP2 EQ PUSH2 0x7D3 JUMPI PUSH0 DUP5 ISZERO PUSH2 0x7C1 JUMPI DUP3 DUP8 ADD MLOAD SWAP1 POP JUMPDEST PUSH2 0x7CB DUP6 DUP3 PUSH2 0x750 JUMP JUMPDEST DUP7 SSTORE POP PUSH2 0x832 JUMP JUMPDEST PUSH1 0x1F NOT DUP5 AND PUSH2 0x7E1 DUP7 PUSH2 0x5C5 JUMP JUMPDEST PUSH0 JUMPDEST DUP3 DUP2 LT ISZERO PUSH2 0x808 JUMPI DUP5 DUP10 ADD MLOAD DUP3 SSTORE PUSH1 0x1 DUP3 ADD SWAP2 POP PUSH1 0x20 DUP6 ADD SWAP5 POP PUSH1 0x20 DUP2 ADD SWAP1 POP PUSH2 0x7E3 JUMP JUMPDEST DUP7 DUP4 LT ISZERO PUSH2 0x825 JUMPI DUP5 DUP10 ADD MLOAD PUSH2 0x821 PUSH1 0x1F DUP10 AND DUP3 PUSH2 0x734 JUMP JUMPDEST DUP4 SSTORE POP JUMPDEST PUSH1 0x1 PUSH1 0x2 DUP9 MUL ADD DUP9 SSTORE POP POP POP JUMPDEST POP POP POP POP POP POP JUMP JUMPDEST PUSH2 0x2E68 DUP1 PUSH2 0x847 PUSH0 CODECOPY PUSH0 RETURN INVALID PUSH1 0x80 PUSH1 0x40 MSTORE CALLVALUE DUP1 ISZERO PUSH2 0xF JUMPI PUSH0 DUP1 REVERT JUMPDEST POP PUSH1 0x4 CALLDATASIZE LT PUSH2 0x9C JUMPI PUSH0 CALLDATALOAD PUSH1 0xE0 SHR DUP1 PUSH4 0xA8FFF057 GT PUSH2 0x64 JUMPI DUP1 PUSH4 0xA8FFF057 EQ PUSH2 0x144 JUMPI DUP1 PUSH4 0xCA9545D3 EQ PUSH2 0x174 JUMPI DUP1 PUSH4 0xE6D7A289 EQ PUSH2 0x190 JUMPI DUP1 PUSH4 0xF2FDE38B EQ PUSH2 0x1AC JUMPI DUP1 PUSH4 0xF454E5CA EQ PUSH2 0x1C8 JUMPI PUSH2 0x9C JUMP JUMPDEST DUP1 PUSH4 0x163F7522 EQ PUSH2 0xA0 JUMPI DUP1 PUSH4 0x4F7D22E7 EQ PUSH2 0xD0 JUMPI DUP1 PUSH4 0x715018A6 EQ PUSH2 0x100 JUMPI DUP1 PUSH4 0x87B162B5 EQ PUSH2 0x10A JUMPI DUP1 PUSH4 0x8DA5CB5B EQ PUSH2 0x126 JUMPI JUMPDEST PUSH0 DUP1 REVERT JUMPDEST PUSH2 0xBA PUSH1 0x4 DUP1 CALLDATASIZE SUB DUP2 ADD SWAP1 PUSH2 0xB5 SWAP2 SWAP1 PUSH2 0x1D9A JUMP JUMPDEST PUSH2 0x1E6 JUMP JUMPDEST PUSH1 0x40 MLOAD PUSH2 0xC7 SWAP2 SWAP1 PUSH2 0x1DDF JUMP JUMPDEST PUSH1 0x40 MLOAD DUP1 SWAP2 SUB SWAP1 RETURN JUMPDEST PUSH2 0xEA PUSH1 0x4 DUP1 CALLDATASIZE SUB DUP2 ADD SWAP1 PUSH2 0xE5 SWAP2 SWAP1 PUSH2 0x1E2B JUMP JUMPDEST PUSH2 0x24C JUMP JUMPDEST PUSH1 0x40 MLOAD PUSH2 0xF7 SWAP2 SWAP1 PUSH2 0x1EC6 JUMP JUMPDEST PUSH1 0x40 MLOAD DUP1 SWAP2 SUB SWAP1 RETURN JUMPDEST PUSH2 0x108 PUSH2 0x37D JUMP JUMPDEST STOP JUMPDEST PUSH2 0x124 PUSH1 0x4 DUP1 CALLDATASIZE SUB DUP2 ADD SWAP1 PUSH2 0x11F SWAP2 SWAP1 PUSH2 0x2012 JUMP JUMPDEST PUSH2 0x390 JUMP JUMPDEST STOP JUMPDEST PUSH2 0x12E PUSH2 0x5FA JUMP JUMPDEST PUSH1 0x40 MLOAD PUSH2 0x13B SWAP2 SWAP1 PUSH2 0x2097 JUMP JUMPDEST PUSH1 0x40 MLOAD DUP1 SWAP2 SUB SWAP1 RETURN JUMPDEST PUSH2 0x15E PUSH1 0x4 DUP1 CALLDATASIZE SUB DUP2 ADD SWAP1 PUSH2 0x159 SWAP2 SWAP1 PUSH2 0x20B0 JUMP JUMPDEST PUSH2 0x621 JUMP JUMPDEST PUSH1 0x40 MLOAD PUSH2 0x16B SWAP2 SWAP1 PUSH2 0x22C3 JUMP JUMPDEST PUSH1 0x40 MLOAD DUP1 SWAP2 SUB SWAP1 RETURN JUMPDEST PUSH2 0x18E PUSH1 0x4 DUP1 CALLDATASIZE SUB DUP2 ADD SWAP1 PUSH2 0x189 SWAP2 SWAP1 PUSH2 0x230D JUMP JUMPDEST PUSH2 0x8C4 JUMP JUMPDEST STOP JUMPDEST PUSH2 0x1AA PUSH1 0x4 DUP1 CALLDATASIZE SUB DUP2 ADD SWAP1 PUSH2 0x1A5 SWAP2 SWAP1 PUSH2 0x238A JUMP JUMPDEST PUSH2 0xCF9 JUMP JUMPDEST STOP JUMPDEST PUSH2 0x1C6 PUSH1 0x4 DUP1 CALLDATASIZE SUB DUP2 ADD SWAP1 PUSH2 0x1C1 SWAP2 SWAP1 PUSH2 0x1D9A JUMP JUMPDEST PUSH2 0x1024 JUMP JUMPDEST STOP JUMPDEST PUSH2 0x1D0 PUSH2 0x10A8 JUMP JUMPDEST PUSH1 0x40 MLOAD PUSH2 0x1DD SWAP2 SWAP1 PUSH2 0x2470 JUMP JUMPDEST PUSH1 0x40 MLOAD DUP1 SWAP2 SUB SWAP1 RETURN JUMPDEST PUSH0 DUP1 PUSH1 0x2 PUSH0 DUP5 PUSH20 0xFFFFFFFFFFFFFFFFFFFFFFFFFFFFFFFFFFFFFFFF AND PUSH20 0xFFFFFFFFFFFFFFFFFFFFFFFFFFFFFFFFFFFFFFFF AND DUP2 MSTORE PUSH1 0x20 ADD SWAP1 DUP2 MSTORE PUSH1 0x20 ADD PUSH0 KECCAK256 PUSH0 ADD DUP1 SLOAD PUSH2 0x232 SWAP1 PUSH2 0x24BD JUMP JUMPDEST SWAP1 POP GT ISZERO PUSH2 0x243 JUMPI PUSH1 0x1 SWAP1 POP PUSH2 0x247 JUMP JUMPDEST PUSH0 SWAP1 POP JUMPDEST SWAP2 SWAP1 POP JUMP JUMPDEST PUSH1 0x60 PUSH0 PUSH1 0x40 MLOAD DUP1 PUSH1 0x60 ADD PUSH1 0x40 MSTORE DUP1 PUSH1 0x3E DUP2 MSTORE PUSH1 0x20 ADD PUSH2 0x2DF5 PUSH1 0x3E SWAP2 CODECOPY SWAP1 POP PUSH0 DUP4 PUSH8 0xFFFFFFFFFFFFFFFF DUP2 GT ISZERO PUSH2 0x285 JUMPI PUSH2 0x284 PUSH2 0x1EEE JUMP JUMPDEST JUMPDEST PUSH1 0x40 MLOAD SWAP1 DUP1 DUP3 MSTORE DUP1 PUSH1 0x1F ADD PUSH1 0x1F NOT AND PUSH1 0x20 ADD DUP3 ADD PUSH1 0x40 MSTORE DUP1 ISZERO PUSH2 0x2B7 JUMPI DUP2 PUSH1 0x20 ADD PUSH1 0x1 DUP3 MUL DUP1 CALLDATASIZE DUP4 CALLDATACOPY DUP1 DUP3 ADD SWAP2 POP POP SWAP1 POP JUMPDEST POP SWAP1 POP PUSH0 DUP3 MLOAD SWAP1 POP PUSH0 JUMPDEST DUP6 DUP2 LT ISZERO PUSH2 0x371 JUMPI PUSH0 DUP3 TIMESTAMP PREVRANDAO DUP5 PUSH1 0x40 MLOAD PUSH1 0x20 ADD PUSH2 0x2E0 SWAP4 SWAP3 SWAP2 SWAP1 PUSH2 0x250D JUMP JUMPDEST PUSH1 0x40 MLOAD PUSH1 0x20 DUP2 DUP4 SUB SUB DUP2 MSTORE SWAP1 PUSH1 0x40 MSTORE DUP1 MLOAD SWAP1 PUSH1 0x20 ADD KECCAK256 PUSH0 SHR PUSH2 0x302 SWAP2 SWAP1 PUSH2 0x2576 JUMP JUMPDEST SWAP1 POP DUP5 DUP2 DUP2 MLOAD DUP2 LT PUSH2 0x317 JUMPI PUSH2 0x316 PUSH2 0x25A6 JUMP JUMPDEST JUMPDEST PUSH1 0x20 ADD ADD MLOAD PUSH1 0xF8 SHR PUSH1 0xF8 SHL DUP5 DUP4 DUP2 MLOAD DUP2 LT PUSH2 0x335 JUMPI PUSH2 0x334 PUSH2 0x25A6 JUMP JUMPDEST JUMPDEST PUSH1 0x20 ADD ADD SWAP1 PUSH31 0xFFFFFFFFFFFFFFFFFFFFFFFFFFFFFFFFFFFFFFFFFFFFFFFFFFFFFFFFFFFFFF NOT AND SWAP1 DUP2 PUSH0 BYTE SWAP1 MSTORE8 POP POP DUP1 DUP1 PUSH1 0x1 ADD SWAP2 POP POP PUSH2 0x2C1 JUMP JUMPDEST POP DUP2 SWAP4 POP POP POP POP SWAP2 SWAP1 POP JUMP JUMPDEST PUSH2 0x385 PUSH2 0x12B3 JUMP JUMPDEST PUSH2 0x38E PUSH0 PUSH2 0x133A JUMP JUMPDEST JUMP JUMPDEST DUP2 DUP2 PUSH0 DUP3 MLOAD GT PUSH2 0x3D7 JUMPI CALLER PUSH1 0x40 MLOAD PUSH32 0x5012F88600000000000000000000000000000000000000000000000000000000 DUP2 MSTORE PUSH1 0x4 ADD PUSH2 0x3CE SWAP2 SWAP1 PUSH2 0x261D JUMP JUMPDEST PUSH1 0x40 MLOAD DUP1 SWAP2 SUB SWAP1 REVERT JUMPDEST PUSH0 DUP3 MLOAD GT PUSH2 0x41C JUMPI CALLER PUSH1 0x40 MLOAD PUSH32 0x5012F88600000000000000000000000000000000000000000000000000000000 DUP2 MSTORE PUSH1 0x4 ADD PUSH2 0x413 SWAP2 SWAP1 PUSH2 0x2693 JUMP JUMPDEST PUSH1 0x40 MLOAD DUP1 SWAP2 SUB SWAP1 REVERT JUMPDEST PUSH0 PUSH1 0x1 PUSH8 0xFFFFFFFFFFFFFFFF DUP2 GT ISZERO PUSH2 0x438 JUMPI PUSH2 0x437 PUSH2 0x1EEE JUMP JUMPDEST JUMPDEST PUSH1 0x40 MLOAD SWAP1 DUP1 DUP3 MSTORE DUP1 PUSH1 0x20 MUL PUSH1 0x20 ADD DUP3 ADD PUSH1 0x40 MSTORE DUP1 ISZERO PUSH2 0x466 JUMPI DUP2 PUSH1 0x20 ADD PUSH1 0x20 DUP3 MUL DUP1 CALLDATASIZE DUP4 CALLDATACOPY DUP1 DUP3 ADD SWAP2 POP POP SWAP1 POP JUMPDEST POP SWAP1 POP PUSH0 DUP2 PUSH0 DUP2 MLOAD DUP2 LT PUSH2 0x47D JUMPI PUSH2 0x47C PUSH2 0x25A6 JUMP JUMPDEST JUMPDEST PUSH1 0x20 MUL PUSH1 0x20 ADD ADD SWAP1 PUSH1 0x4 DUP2 GT ISZERO PUSH2 0x497 JUMPI PUSH2 0x496 PUSH2 0x214E JUMP JUMPDEST JUMPDEST SWAP1 DUP2 PUSH1 0x4 DUP2 GT ISZERO PUSH2 0x4AB JUMPI PUSH2 0x4AA PUSH2 0x214E JUMP JUMPDEST JUMPDEST DUP2 MSTORE POP POP PUSH0 PUSH1 0x40 MLOAD DUP1 PUSH1 0x80 ADD PUSH1 0x40 MSTORE DUP1 DUP8 DUP2 MSTORE PUSH1 0x20 ADD CALLER PUSH20 0xFFFFFFFFFFFFFFFFFFFFFFFFFFFFFFFFFFFFFFFF AND DUP2 MSTORE PUSH1 0x20 ADD DUP7 DUP2 MSTORE PUSH1 0x20 ADD DUP4 DUP2 MSTORE POP SWAP1 POP DUP1 PUSH1 0x2 PUSH0 CALLER PUSH20 0xFFFFFFFFFFFFFFFFFFFFFFFFFFFFFFFFFFFFFFFF AND PUSH20 0xFFFFFFFFFFFFFFFFFFFFFFFFFFFFFFFFFFFFFFFF AND DUP2 MSTORE PUSH1 0x20 ADD SWAP1 DUP2 MSTORE PUSH1 0x20 ADD PUSH0 KECCAK256 PUSH0 DUP3 ADD MLOAD DUP2 PUSH0 ADD SWAP1 DUP2 PUSH2 0x53A SWAP2 SWAP1 PUSH2 0x285C JUMP JUMPDEST POP PUSH1 0x20 DUP3 ADD MLOAD DUP2 PUSH1 0x1 ADD PUSH0 PUSH2 0x100 EXP DUP2 SLOAD DUP2 PUSH20 0xFFFFFFFFFFFFFFFFFFFFFFFFFFFFFFFFFFFFFFFF MUL NOT AND SWAP1 DUP4 PUSH20 0xFFFFFFFFFFFFFFFFFFFFFFFFFFFFFFFFFFFFFFFF AND MUL OR SWAP1 SSTORE POP PUSH1 0x40 DUP3 ADD MLOAD DUP2 PUSH1 0x2 ADD SWAP1 DUP2 PUSH2 0x596 SWAP2 SWAP1 PUSH2 0x285C JUMP JUMPDEST POP PUSH1 0x60 DUP3 ADD MLOAD DUP2 PUSH1 0x3 ADD SWAP1 DUP1 MLOAD SWAP1 PUSH1 0x20 ADD SWAP1 PUSH2 0x5B3 SWAP3 SWAP2 SWAP1 PUSH2 0x1BC9 JUMP JUMPDEST POP SWAP1 POP POP PUSH32 0xBB193FE0A34FDD537C950D0CAE2072791BD1768EBE79A45754CC99F7AA93D841 DUP7 CALLER DUP8 PUSH1 0x40 MLOAD PUSH2 0x5EA SWAP4 SWAP3 SWAP2 SWAP1 PUSH2 0x292B JUMP JUMPDEST PUSH1 0x40 MLOAD DUP1 SWAP2 SUB SWAP1 LOG1 POP POP POP POP POP POP JUMP JUMPDEST PUSH0 DUP1 PUSH0 SWAP1 SLOAD SWAP1 PUSH2 0x100 EXP SWAP1 DIV PUSH20 0xFFFFFFFFFFFFFFFFFFFFFFFFFFFFFFFFFFFFFFFF AND SWAP1 POP SWAP1 JUMP JUMPDEST PUSH2 0x629 PUSH2 0x1C7A JUMP JUMPDEST PUSH0 JUMPDEST PUSH1 0x1 DUP1 SLOAD SWAP1 POP DUP2 LT ISZERO PUSH2 0x87F JUMPI DUP3 DUP1 MLOAD SWAP1 PUSH1 0x20 ADD KECCAK256 PUSH1 0x1 DUP3 DUP2 SLOAD DUP2 LT PUSH2 0x654 JUMPI PUSH2 0x653 PUSH2 0x25A6 JUMP JUMPDEST JUMPDEST SWAP1 PUSH0 MSTORE PUSH1 0x20 PUSH0 KECCAK256 SWAP1 PUSH1 0x3 MUL ADD PUSH0 ADD PUSH1 0x40 MLOAD PUSH2 0x66F SWAP2 SWAP1 PUSH2 0x2A0A JUMP JUMPDEST PUSH1 0x40 MLOAD DUP1 SWAP2 SUB SWAP1 KECCAK256 SUB PUSH2 0x872 JUMPI PUSH1 0x40 MLOAD DUP1 PUSH1 0x40 ADD PUSH1 0x40 MSTORE DUP1 PUSH1 0x1 DUP4 DUP2 SLOAD DUP2 LT PUSH2 0x69B JUMPI PUSH2 0x69A PUSH2 0x25A6 JUMP JUMPDEST JUMPDEST SWAP1 PUSH0 MSTORE PUSH1 0x20 PUSH0 KECCAK256 SWAP1 PUSH1 0x3 MUL ADD PUSH1 0x40 MLOAD DUP1 PUSH1 0xA0 ADD PUSH1 0x40 MSTORE SWAP1 DUP2 PUSH0 DUP3 ADD DUP1 SLOAD PUSH2 0x6C1 SWAP1 PUSH2 0x24BD JUMP JUMPDEST DUP1 PUSH1 0x1F ADD PUSH1 0x20 DUP1 SWAP2 DIV MUL PUSH1 0x20 ADD PUSH1 0x40 MLOAD SWAP1 DUP2 ADD PUSH1 0x40 MSTORE DUP1 SWAP3 SWAP2 SWAP1 DUP2 DUP2 MSTORE PUSH1 0x20 ADD DUP3 DUP1 SLOAD PUSH2 0x6ED SWAP1 PUSH2 0x24BD JUMP JUMPDEST DUP1 ISZERO PUSH2 0x738 JUMPI DUP1 PUSH1 0x1F LT PUSH2 0x70F JUMPI PUSH2 0x100 DUP1 DUP4 SLOAD DIV MUL DUP4 MSTORE SWAP2 PUSH1 0x20 ADD SWAP2 PUSH2 0x738 JUMP JUMPDEST DUP3 ADD SWAP2 SWAP1 PUSH0 MSTORE PUSH1 0x20 PUSH0 KECCAK256 SWAP1 JUMPDEST DUP2 SLOAD DUP2 MSTORE SWAP1 PUSH1 0x1 ADD SWAP1 PUSH1 0x20 ADD DUP1 DUP4 GT PUSH2 0x71B JUMPI DUP3 SWAP1 SUB PUSH1 0x1F AND DUP3 ADD SWAP2 JUMPDEST POP POP POP POP POP DUP2 MSTORE PUSH1 0x20 ADD PUSH1 0x1 DUP3 ADD PUSH0 SWAP1 SLOAD SWAP1 PUSH2 0x100 EXP SWAP1 DIV PUSH20 0xFFFFFFFFFFFFFFFFFFFFFFFFFFFFFFFFFFFFFFFF AND PUSH20 0xFFFFFFFFFFFFFFFFFFFFFFFFFFFFFFFFFFFFFFFF AND PUSH20 0xFFFFFFFFFFFFFFFFFFFFFFFFFFFFFFFFFFFFFFFF AND DUP2 MSTORE PUSH1 0x20 ADD PUSH1 0x1 DUP3 ADD PUSH1 0x14 SWAP1 SLOAD SWAP1 PUSH2 0x100 EXP SWAP1 DIV PUSH1 0xFF AND PUSH1 0x4 DUP2 GT ISZERO PUSH2 0x7BB JUMPI PUSH2 0x7BA PUSH2 0x214E JUMP JUMPDEST JUMPDEST PUSH1 0x4 DUP2 GT ISZERO PUSH2 0x7CD JUMPI PUSH2 0x7CC PUSH2 0x214E JUMP JUMPDEST JUMPDEST DUP2 MSTORE PUSH1 0x20 ADD PUSH1 0x1 DUP3 ADD PUSH1 0x15 SWAP1 SLOAD SWAP1 PUSH2 0x100 EXP SWAP1 DIV PUSH1 0xFF AND PUSH1 0x2 DUP2 GT ISZERO PUSH2 0x7F6 JUMPI PUSH2 0x7F5 PUSH2 0x214E JUMP JUMPDEST JUMPDEST PUSH1 0x2 DUP2 GT ISZERO PUSH2 0x808 JUMPI PUSH2 0x807 PUSH2 0x214E JUMP JUMPDEST JUMPDEST DUP2 MSTORE PUSH1 0x20 ADD PUSH1 0x2 DUP3 ADD PUSH0 SWAP1 SLOAD SWAP1 PUSH2 0x100 EXP SWAP1 DIV PUSH20 0xFFFFFFFFFFFFFFFFFFFFFFFFFFFFFFFFFFFFFFFF AND PUSH20 0xFFFFFFFFFFFFFFFFFFFFFFFFFFFFFFFFFFFFFFFF AND PUSH20 0xFFFFFFFFFFFFFFFFFFFFFFFFFFFFFFFFFFFFFFFF AND DUP2 MSTORE POP POP DUP2 MSTORE PUSH1 0x20 ADD DUP3 DUP2 MSTORE POP SWAP2 POP POP PUSH2 0x8BF JUMP JUMPDEST DUP1 DUP1 PUSH1 0x1 ADD SWAP2 POP POP PUSH2 0x62B JUMP JUMPDEST POP CALLER DUP3 PUSH1 0x40 MLOAD PUSH32 0x1AF0041900000000000000000000000000000000000000000000000000000000 DUP2 MSTORE PUSH1 0x4 ADD PUSH2 0x8B6 SWAP3 SWAP2 SWAP1 PUSH2 0x2A6A JUMP JUMPDEST PUSH1 0x40 MLOAD DUP1 SWAP2 SUB SWAP1 REVERT JUMPDEST SWAP2 SWAP1 POP JUMP JUMPDEST PUSH0 PUSH1 0x2 PUSH0 CALLER PUSH20 0xFFFFFFFFFFFFFFFFFFFFFFFFFFFFFFFFFFFFFFFF AND PUSH20 0xFFFFFFFFFFFFFFFFFFFFFFFFFFFFFFFFFFFFFFFF AND DUP2 MSTORE PUSH1 0x20 ADD SWAP1 DUP2 MSTORE PUSH1 0x20 ADD PUSH0 KECCAK256 PUSH1 0x3 ADD DUP1 SLOAD DUP1 PUSH1 0x20 MUL PUSH1 0x20 ADD PUSH1 0x40 MLOAD SWAP1 DUP2 ADD PUSH1 0x40 MSTORE DUP1 SWAP3 SWAP2 SWAP1 DUP2 DUP2 MSTORE PUSH1 0x20 ADD DUP3 DUP1 SLOAD DUP1 ISZERO PUSH2 0x980 JUMPI PUSH1 0x20 MUL DUP3 ADD SWAP2 SWAP1 PUSH0 MSTORE PUSH1 0x20 PUSH0 KECCAK256 SWAP1 PUSH0 SWAP1 JUMPDEST DUP3 DUP3 SWAP1 SLOAD SWAP1 PUSH2 0x100 EXP SWAP1 DIV PUSH1 0xFF AND PUSH1 0x4 DUP2 GT ISZERO PUSH2 0x95B JUMPI PUSH2 0x95A PUSH2 0x214E JUMP JUMPDEST JUMPDEST DUP2 MSTORE PUSH1 0x20 ADD SWAP1 PUSH1 0x1 ADD SWAP1 PUSH1 0x20 DUP3 PUSH0 ADD DIV SWAP3 DUP4 ADD SWAP3 PUSH1 0x1 SUB DUP3 MUL SWAP2 POP DUP1 DUP5 GT PUSH2 0x93B JUMPI SWAP1 POP JUMPDEST POP POP POP POP POP SWAP1 POP PUSH0 PUSH2 0x991 DUP5 PUSH2 0x621 JUMP JUMPDEST SWAP1 POP PUSH0 DUP2 PUSH0 ADD MLOAD SWAP1 POP PUSH2 0x9A8 DUP4 DUP3 PUSH1 0x40 ADD MLOAD PUSH2 0x13FB JUMP JUMPDEST PUSH2 0x9E9 JUMPI CALLER PUSH1 0x40 MLOAD PUSH32 0x50DF61B300000000000000000000000000000000000000000000000000000000 DUP2 MSTORE PUSH1 0x4 ADD PUSH2 0x9E0 SWAP2 SWAP1 PUSH2 0x2B1B JUMP JUMPDEST PUSH1 0x40 MLOAD DUP1 SWAP2 SUB SWAP1 REVERT JUMPDEST PUSH2 0x9F2 DUP2 PUSH2 0x1755 JUMP JUMPDEST DUP4 ISZERO PUSH2 0xB93 JUMPI PUSH1 0x1 DUP2 PUSH1 0x60 ADD SWAP1 PUSH1 0x2 DUP2 GT ISZERO PUSH2 0xA11 JUMPI PUSH2 0xA10 PUSH2 0x214E JUMP JUMPDEST JUMPDEST SWAP1 DUP2 PUSH1 0x2 DUP2 GT ISZERO PUSH2 0xA25 JUMPI PUSH2 0xA24 PUSH2 0x214E JUMP JUMPDEST JUMPDEST DUP2 MSTORE POP POP CALLER DUP2 PUSH1 0x80 ADD SWAP1 PUSH20 0xFFFFFFFFFFFFFFFFFFFFFFFFFFFFFFFFFFFFFFFF AND SWAP1 DUP2 PUSH20 0xFFFFFFFFFFFFFFFFFFFFFFFFFFFFFFFFFFFFFFFF AND DUP2 MSTORE POP POP DUP1 PUSH1 0x1 DUP4 PUSH1 0x20 ADD MLOAD DUP2 SLOAD DUP2 LT PUSH2 0xA7A JUMPI PUSH2 0xA79 PUSH2 0x25A6 JUMP JUMPDEST JUMPDEST SWAP1 PUSH0 MSTORE PUSH1 0x20 PUSH0 KECCAK256 SWAP1 PUSH1 0x3 MUL ADD PUSH0 DUP3 ADD MLOAD DUP2 PUSH0 ADD SWAP1 DUP2 PUSH2 0xA99 SWAP2 SWAP1 PUSH2 0x285C JUMP JUMPDEST POP PUSH1 0x20 DUP3 ADD MLOAD DUP2 PUSH1 0x1 ADD PUSH0 PUSH2 0x100 EXP DUP2 SLOAD DUP2 PUSH20 0xFFFFFFFFFFFFFFFFFFFFFFFFFFFFFFFFFFFFFFFF MUL NOT AND SWAP1 DUP4 PUSH20 0xFFFFFFFFFFFFFFFFFFFFFFFFFFFFFFFFFFFFFFFF AND MUL OR SWAP1 SSTORE POP PUSH1 0x40 DUP3 ADD MLOAD DUP2 PUSH1 0x1 ADD PUSH1 0x14 PUSH2 0x100 EXP DUP2 SLOAD DUP2 PUSH1 0xFF MUL NOT AND SWAP1 DUP4 PUSH1 0x4 DUP2 GT ISZERO PUSH2 0xB0B JUMPI PUSH2 0xB0A PUSH2 0x214E JUMP JUMPDEST JUMPDEST MUL OR SWAP1 SSTORE POP PUSH1 0x60 DUP3 ADD MLOAD DUP2 PUSH1 0x1 ADD PUSH1 0x15 PUSH2 0x100 EXP DUP2 SLOAD DUP2 PUSH1 0xFF MUL NOT AND SWAP1 DUP4 PUSH1 0x2 DUP2 GT ISZERO PUSH2 0xB3B JUMPI PUSH2 0xB3A PUSH2 0x214E JUMP JUMPDEST JUMPDEST MUL OR SWAP1 SSTORE POP PUSH1 0x80 DUP3 ADD MLOAD DUP2 PUSH1 0x2 ADD PUSH0 PUSH2 0x100 EXP DUP2 SLOAD DUP2 PUSH20 0xFFFFFFFFFFFFFFFFFFFFFFFFFFFFFFFFFFFFFFFF MUL NOT AND SWAP1 DUP4 PUSH20 0xFFFFFFFFFFFFFFFFFFFFFFFFFFFFFFFFFFFFFFFF AND MUL OR SWAP1 SSTORE POP SWAP1 POP POP PUSH2 0xB92 DUP2 PUSH2 0x183B JUMP JUMPDEST JUMPDEST DUP4 PUSH2 0xCF2 JUMPI PUSH1 0x2 DUP2 PUSH1 0x60 ADD SWAP1 PUSH1 0x2 DUP2 GT ISZERO PUSH2 0xBB1 JUMPI PUSH2 0xBB0 PUSH2 0x214E JUMP JUMPDEST JUMPDEST SWAP1 DUP2 PUSH1 0x2 DUP2 GT ISZERO PUSH2 0xBC5 JUMPI PUSH2 0xBC4 PUSH2 0x214E JUMP JUMPDEST JUMPDEST DUP2 MSTORE POP POP DUP1 PUSH1 0x1 DUP4 PUSH1 0x20 ADD MLOAD DUP2 SLOAD DUP2 LT PUSH2 0xBE2 JUMPI PUSH2 0xBE1 PUSH2 0x25A6 JUMP JUMPDEST JUMPDEST SWAP1 PUSH0 MSTORE PUSH1 0x20 PUSH0 KECCAK256 SWAP1 PUSH1 0x3 MUL ADD PUSH0 DUP3 ADD MLOAD DUP2 PUSH0 ADD SWAP1 DUP2 PUSH2 0xC01 SWAP2 SWAP1 PUSH2 0x285C JUMP JUMPDEST POP PUSH1 0x20 DUP3 ADD MLOAD DUP2 PUSH1 0x1 ADD PUSH0 PUSH2 0x100 EXP DUP2 SLOAD DUP2 PUSH20 0xFFFFFFFFFFFFFFFFFFFFFFFFFFFFFFFFFFFFFFFF MUL NOT AND SWAP1 DUP4 PUSH20 0xFFFFFFFFFFFFFFFFFFFFFFFFFFFFFFFFFFFFFFFF AND MUL OR SWAP1 SSTORE POP PUSH1 0x40 DUP3 ADD MLOAD DUP2 PUSH1 0x1 ADD PUSH1 0x14 PUSH2 0x100 EXP DUP2 SLOAD DUP2 PUSH1 0xFF MUL NOT AND SWAP1 DUP4 PUSH1 0x4 DUP2 GT ISZERO PUSH2 0xC73 JUMPI PUSH2 0xC72 PUSH2 0x214E JUMP JUMPDEST JUMPDEST MUL OR SWAP1 SSTORE POP PUSH1 0x60 DUP3 ADD MLOAD DUP2 PUSH1 0x1 ADD PUSH1 0x15 PUSH2 0x100 EXP DUP2 SLOAD DUP2 PUSH1 0xFF MUL NOT AND SWAP1 DUP4 PUSH1 0x2 DUP2 GT ISZERO PUSH2 0xCA3 JUMPI PUSH2 0xCA2 PUSH2 0x214E JUMP JUMPDEST JUMPDEST MUL OR SWAP1 SSTORE POP PUSH1 0x80 DUP3 ADD MLOAD DUP2 PUSH1 0x2 ADD PUSH0 PUSH2 0x100 EXP DUP2 SLOAD DUP2 PUSH20 0xFFFFFFFFFFFFFFFFFFFFFFFFFFFFFFFFFFFFFFFF MUL NOT AND SWAP1 DUP4 PUSH20 0xFFFFFFFFFFFFFFFFFFFFFFFFFFFFFFFFFFFFFFFF AND MUL OR SWAP1 SSTORE POP SWAP1 POP POP JUMPDEST POP POP POP POP POP JUMP JUMPDEST PUSH0 PUSH20 0xFFFFFFFFFFFFFFFFFFFFFFFFFFFFFFFFFFFFFFFF AND PUSH1 0x2 PUSH0 CALLER PUSH20 0xFFFFFFFFFFFFFFFFFFFFFFFFFFFFFFFFFFFFFFFF AND PUSH20 0xFFFFFFFFFFFFFFFFFFFFFFFFFFFFFFFFFFFFFFFF AND DUP2 MSTORE PUSH1 0x20 ADD SWAP1 DUP2 MSTORE PUSH1 0x20 ADD PUSH0 KECCAK256 PUSH1 0x1 ADD PUSH0 SWAP1 SLOAD SWAP1 PUSH2 0x100 EXP SWAP1 DIV PUSH20 0xFFFFFFFFFFFFFFFFFFFFFFFFFFFFFFFFFFFFFFFF AND PUSH20 0xFFFFFFFFFFFFFFFFFFFFFFFFFFFFFFFFFFFFFFFF AND SUB PUSH2 0xDC8 JUMPI CALLER PUSH1 0x40 MLOAD PUSH32 0xC3EBDCC00000000000000000000000000000000000000000000000000000000 DUP2 MSTORE PUSH1 0x4 ADD PUSH2 0xDBF SWAP2 SWAP1 PUSH2 0x2B91 JUMP JUMPDEST PUSH1 0x40 MLOAD DUP1 SWAP2 SUB SWAP1 REVERT JUMPDEST DUP1 PUSH0 PUSH1 0x4 DUP2 GT ISZERO PUSH2 0xDDC JUMPI PUSH2 0xDDB PUSH2 0x214E JUMP JUMPDEST JUMPDEST DUP2 PUSH1 0x4 DUP2 GT ISZERO PUSH2 0xDEF JUMPI PUSH2 0xDEE PUSH2 0x214E JUMP JUMPDEST JUMPDEST SUB PUSH2 0xE31 JUMPI CALLER PUSH1 0x40 MLOAD PUSH32 0x5012F88600000000000000000000000000000000000000000000000000000000 DUP2 MSTORE PUSH1 0x4 ADD PUSH2 0xE28 SWAP2 SWAP1 PUSH2 0x2C07 JUMP JUMPDEST PUSH1 0x40 MLOAD DUP1 SWAP2 SUB SWAP1 REVERT JUMPDEST PUSH0 PUSH2 0xE3C PUSH1 0x4 PUSH2 0x24C JUMP JUMPDEST SWAP1 POP PUSH0 PUSH1 0x40 MLOAD DUP1 PUSH1 0xA0 ADD PUSH1 0x40 MSTORE DUP1 DUP4 DUP2 MSTORE PUSH1 0x20 ADD CALLER PUSH20 0xFFFFFFFFFFFFFFFFFFFFFFFFFFFFFFFFFFFFFFFF AND DUP2 MSTORE PUSH1 0x20 ADD DUP6 PUSH1 0x4 DUP2 GT ISZERO PUSH2 0xE7F JUMPI PUSH2 0xE7E PUSH2 0x214E JUMP JUMPDEST JUMPDEST DUP2 MSTORE PUSH1 0x20 ADD PUSH0 PUSH1 0x2 DUP2 GT ISZERO PUSH2 0xE97 JUMPI PUSH2 0xE96 PUSH2 0x214E JUMP JUMPDEST JUMPDEST DUP2 MSTORE PUSH1 0x20 ADD PUSH0 PUSH20 0xFFFFFFFFFFFFFFFFFFFFFFFFFFFFFFFFFFFFFFFF AND DUP2 MSTORE POP SWAP1 POP PUSH1 0x1 DUP2 SWAP1 DUP1 PUSH1 0x1 DUP2 SLOAD ADD DUP1 DUP3 SSTORE DUP1 SWAP2 POP POP PUSH1 0x1 SWAP1 SUB SWAP1 PUSH0 MSTORE PUSH1 0x20 PUSH0 KECCAK256 SWAP1 PUSH1 0x3 MUL ADD PUSH0 SWAP1 SWAP2 SWAP1 SWAP2 SWAP1 SWAP2 POP PUSH0 DUP3 ADD MLOAD DUP2 PUSH0 ADD SWAP1 DUP2 PUSH2 0xEF4 SWAP2 SWAP1 PUSH2 0x285C JUMP JUMPDEST POP PUSH1 0x20 DUP3 ADD MLOAD DUP2 PUSH1 0x1 ADD PUSH0 PUSH2 0x100 EXP DUP2 SLOAD DUP2 PUSH20 0xFFFFFFFFFFFFFFFFFFFFFFFFFFFFFFFFFFFFFFFF MUL NOT AND SWAP1 DUP4 PUSH20 0xFFFFFFFFFFFFFFFFFFFFFFFFFFFFFFFFFFFFFFFF AND MUL OR SWAP1 SSTORE POP PUSH1 0x40 DUP3 ADD MLOAD DUP2 PUSH1 0x1 ADD PUSH1 0x14 PUSH2 0x100 EXP DUP2 SLOAD DUP2 PUSH1 0xFF MUL NOT AND SWAP1 DUP4 PUSH1 0x4 DUP2 GT ISZERO PUSH2 0xF66 JUMPI PUSH2 0xF65 PUSH2 0x214E JUMP JUMPDEST JUMPDEST MUL OR SWAP1 SSTORE POP PUSH1 0x60 DUP3 ADD MLOAD DUP2 PUSH1 0x1 ADD PUSH1 0x15 PUSH2 0x100 EXP DUP2 SLOAD DUP2 PUSH1 0xFF MUL NOT AND SWAP1 DUP4 PUSH1 0x2 DUP2 GT ISZERO PUSH2 0xF96 JUMPI PUSH2 0xF95 PUSH2 0x214E JUMP JUMPDEST JUMPDEST MUL OR SWAP1 SSTORE POP PUSH1 0x80 DUP3 ADD MLOAD DUP2 PUSH1 0x2 ADD PUSH0 PUSH2 0x100 EXP DUP2 SLOAD DUP2 PUSH20 0xFFFFFFFFFFFFFFFFFFFFFFFFFFFFFFFFFFFFFFFF MUL NOT AND SWAP1 DUP4 PUSH20 0xFFFFFFFFFFFFFFFFFFFFFFFFFFFFFFFFFFFFFFFF AND MUL OR SWAP1 SSTORE POP POP POP PUSH32 0xEE5DA8B7295E0A9FC7E3423A3B6DB4C18DBCB289917E609001558E093E311507 DUP3 CALLER DUP7 PUSH1 0x40 MLOAD PUSH2 0x1016 SWAP4 SWAP3 SWAP2 SWAP1 PUSH2 0x2C42 JUMP JUMPDEST PUSH1 0x40 MLOAD DUP1 SWAP2 SUB SWAP1 LOG1 POP POP POP POP JUMP JUMPDEST PUSH2 0x102C PUSH2 0x12B3 JUMP JUMPDEST PUSH0 PUSH20 0xFFFFFFFFFFFFFFFFFFFFFFFFFFFFFFFFFFFFFFFF AND DUP2 PUSH20 0xFFFFFFFFFFFFFFFFFFFFFFFFFFFFFFFFFFFFFFFF AND SUB PUSH2 0x109C JUMPI PUSH0 PUSH1 0x40 MLOAD PUSH32 0x1E4FBDF700000000000000000000000000000000000000000000000000000000 DUP2 MSTORE PUSH1 0x4 ADD PUSH2 0x1093 SWAP2 SWAP1 PUSH2 0x2097 JUMP JUMPDEST PUSH1 0x40 MLOAD DUP1 SWAP2 SUB SWAP1 REVERT JUMPDEST PUSH2 0x10A5 DUP2 PUSH2 0x133A JUMP JUMPDEST POP JUMP JUMPDEST PUSH1 0x60 PUSH1 0x1 DUP1 SLOAD DUP1 PUSH1 0x20 MUL PUSH1 0x20 ADD PUSH1 0x40 MLOAD SWAP1 DUP2 ADD PUSH1 0x40 MSTORE DUP1 SWAP3 SWAP2 SWAP1 DUP2 DUP2 MSTORE PUSH1 0x20 ADD PUSH0 SWAP1 JUMPDEST DUP3 DUP3 LT ISZERO PUSH2 0x12AA JUMPI DUP4 DUP3 SWAP1 PUSH0 MSTORE PUSH1 0x20 PUSH0 KECCAK256 SWAP1 PUSH1 0x3 MUL ADD PUSH1 0x40 MLOAD DUP1 PUSH1 0xA0 ADD PUSH1 0x40 MSTORE SWAP1 DUP2 PUSH0 DUP3 ADD DUP1 SLOAD PUSH2 0x10FB SWAP1 PUSH2 0x24BD JUMP JUMPDEST DUP1 PUSH1 0x1F ADD PUSH1 0x20 DUP1 SWAP2 DIV MUL PUSH1 0x20 ADD PUSH1 0x40 MLOAD SWAP1 DUP2 ADD PUSH1 0x40 MSTORE DUP1 SWAP3 SWAP2 SWAP1 DUP2 DUP2 MSTORE PUSH1 0x20 ADD DUP3 DUP1 SLOAD PUSH2 0x1127 SWAP1 PUSH2 0x24BD JUMP JUMPDEST DUP1 ISZERO PUSH2 0x1172 JUMPI DUP1 PUSH1 0x1F LT PUSH2 0x1149 JUMPI PUSH2 0x100 DUP1 DUP4 SLOAD DIV MUL DUP4 MSTORE SWAP2 PUSH1 0x20 ADD SWAP2 PUSH2 0x1172 JUMP JUMPDEST DUP3 ADD SWAP2 SWAP1 PUSH0 MSTORE PUSH1 0x20 PUSH0 KECCAK256 SWAP1 JUMPDEST DUP2 SLOAD DUP2 MSTORE SWAP1 PUSH1 0x1 ADD SWAP1 PUSH1 0x20 ADD DUP1 DUP4 GT PUSH2 0x1155 JUMPI DUP3 SWAP1 SUB PUSH1 0x1F AND DUP3 ADD SWAP2 JUMPDEST POP POP POP POP POP DUP2 MSTORE PUSH1 0x20 ADD PUSH1 0x1 DUP3 ADD PUSH0 SWAP1 SLOAD SWAP1 PUSH2 0x100 EXP SWAP1 DIV PUSH20 0xFFFFFFFFFFFFFFFFFFFFFFFFFFFFFFFFFFFFFFFF AND PUSH20 0xFFFFFFFFFFFFFFFFFFFFFFFFFFFFFFFFFFFFFFFF AND PUSH20 0xFFFFFFFFFFFFFFFFFFFFFFFFFFFFFFFFFFFFFFFF AND DUP2 MSTORE PUSH1 0x20 ADD PUSH1 0x1 DUP3 ADD PUSH1 0x14 SWAP1 SLOAD SWAP1 PUSH2 0x100 EXP SWAP1 DIV PUSH1 0xFF AND PUSH1 0x4 DUP2 GT ISZERO PUSH2 0x11F5 JUMPI PUSH2 0x11F4 PUSH2 0x214E JUMP JUMPDEST JUMPDEST PUSH1 0x4 DUP2 GT ISZERO PUSH2 0x1207 JUMPI PUSH2 0x1206 PUSH2 0x214E JUMP JUMPDEST JUMPDEST DUP2 MSTORE PUSH1 0x20 ADD PUSH1 0x1 DUP3 ADD PUSH1 0x15 SWAP1 SLOAD SWAP1 PUSH2 0x100 EXP SWAP1 DIV PUSH1 0xFF AND PUSH1 0x2 DUP2 GT ISZERO PUSH2 0x1230 JUMPI PUSH2 0x122F PUSH2 0x214E JUMP JUMPDEST JUMPDEST PUSH1 0x2 DUP2 GT ISZERO PUSH2 0x1242 JUMPI PUSH2 0x1241 PUSH2 0x214E JUMP JUMPDEST JUMPDEST DUP2 MSTORE PUSH1 0x20 ADD PUSH1 0x2 DUP3 ADD PUSH0 SWAP1 SLOAD SWAP1 PUSH2 0x100 EXP SWAP1 DIV PUSH20 0xFFFFFFFFFFFFFFFFFFFFFFFFFFFFFFFFFFFFFFFF AND PUSH20 0xFFFFFFFFFFFFFFFFFFFFFFFFFFFFFFFFFFFFFFFF AND PUSH20 0xFFFFFFFFFFFFFFFFFFFFFFFFFFFFFFFFFFFFFFFF AND DUP2 MSTORE POP POP DUP2 MSTORE PUSH1 0x20 ADD SWAP1 PUSH1 0x1 ADD SWAP1 PUSH2 0x10CB JUMP JUMPDEST POP POP POP POP SWAP1 POP SWAP1 JUMP JUMPDEST PUSH2 0x12BB PUSH2 0x1BC2 JUMP JUMPDEST PUSH20 0xFFFFFFFFFFFFFFFFFFFFFFFFFFFFFFFFFFFFFFFF AND PUSH2 0x12D9 PUSH2 0x5FA JUMP JUMPDEST PUSH20 0xFFFFFFFFFFFFFFFFFFFFFFFFFFFFFFFFFFFFFFFF AND EQ PUSH2 0x1338 JUMPI PUSH2 0x12FC PUSH2 0x1BC2 JUMP JUMPDEST PUSH1 0x40 MLOAD PUSH32 0x118CDAA700000000000000000000000000000000000000000000000000000000 DUP2 MSTORE PUSH1 0x4 ADD PUSH2 0x132F SWAP2 SWAP1 PUSH2 0x2097 JUMP JUMPDEST PUSH1 0x40 MLOAD DUP1 SWAP2 SUB SWAP1 REVERT JUMPDEST JUMP JUMPDEST PUSH0 DUP1 PUSH0 SWAP1 SLOAD SWAP1 PUSH2 0x100 EXP SWAP1 DIV PUSH20 0xFFFFFFFFFFFFFFFFFFFFFFFFFFFFFFFFFFFFFFFF AND SWAP1 POP DUP2 PUSH0 DUP1 PUSH2 0x100 EXP DUP2 SLOAD DUP2 PUSH20 0xFFFFFFFFFFFFFFFFFFFFFFFFFFFFFFFFFFFFFFFF MUL NOT AND SWAP1 DUP4 PUSH20 0xFFFFFFFFFFFFFFFFFFFFFFFFFFFFFFFFFFFFFFFF AND MUL OR SWAP1 SSTORE POP DUP2 PUSH20 0xFFFFFFFFFFFFFFFFFFFFFFFFFFFFFFFFFFFFFFFF AND DUP2 PUSH20 0xFFFFFFFFFFFFFFFFFFFFFFFFFFFFFFFFFFFFFFFF AND PUSH32 0x8BE0079C531659141344CD1FD0A4F28419497F9722A3DAAFE3B4186F6B6457E0 PUSH1 0x40 MLOAD PUSH1 0x40 MLOAD DUP1 SWAP2 SUB SWAP1 LOG3 POP POP JUMP JUMPDEST PUSH0 PUSH1 0x1 PUSH1 0x4 DUP2 GT ISZERO PUSH2 0x1410 JUMPI PUSH2 0x140F PUSH2 0x214E JUMP JUMPDEST JUMPDEST DUP3 PUSH1 0x4 DUP2 GT ISZERO PUSH2 0x1423 JUMPI PUSH2 0x1422 PUSH2 0x214E JUMP JUMPDEST JUMPDEST SUB PUSH2 0x1499 JUMPI PUSH0 JUMPDEST DUP4 MLOAD DUP2 LT ISZERO PUSH2 0x1490 JUMPI PUSH1 0x1 PUSH1 0x4 DUP2 GT ISZERO PUSH2 0x1447 JUMPI PUSH2 0x1446 PUSH2 0x214E JUMP JUMPDEST JUMPDEST DUP5 DUP3 DUP2 MLOAD DUP2 LT PUSH2 0x145A JUMPI PUSH2 0x1459 PUSH2 0x25A6 JUMP JUMPDEST JUMPDEST PUSH1 0x20 MUL PUSH1 0x20 ADD ADD MLOAD PUSH1 0x4 DUP2 GT ISZERO PUSH2 0x1474 JUMPI PUSH2 0x1473 PUSH2 0x214E JUMP JUMPDEST JUMPDEST SUB PUSH2 0x1483 JUMPI PUSH1 0x1 SWAP2 POP POP PUSH2 0x174F JUMP JUMPDEST DUP1 DUP1 PUSH1 0x1 ADD SWAP2 POP POP PUSH2 0x142A JUMP JUMPDEST POP PUSH0 SWAP1 POP PUSH2 0x174F JUMP JUMPDEST PUSH1 0x2 PUSH1 0x4 DUP2 GT ISZERO PUSH2 0x14AD JUMPI PUSH2 0x14AC PUSH2 0x214E JUMP JUMPDEST JUMPDEST DUP3 PUSH1 0x4 DUP2 GT ISZERO PUSH2 0x14C0 JUMPI PUSH2 0x14BF PUSH2 0x214E JUMP JUMPDEST JUMPDEST SUB PUSH2 0x1580 JUMPI PUSH0 JUMPDEST DUP4 MLOAD DUP2 LT ISZERO PUSH2 0x1577 JUMPI PUSH1 0x1 PUSH1 0x4 DUP2 GT ISZERO PUSH2 0x14E4 JUMPI PUSH2 0x14E3 PUSH2 0x214E JUMP JUMPDEST JUMPDEST DUP5 DUP3 DUP2 MLOAD DUP2 LT PUSH2 0x14F7 JUMPI PUSH2 0x14F6 PUSH2 0x25A6 JUMP JUMPDEST JUMPDEST PUSH1 0x20 MUL PUSH1 0x20 ADD ADD MLOAD PUSH1 0x4 DUP2 GT ISZERO PUSH2 0x1511 JUMPI PUSH2 0x1510 PUSH2 0x214E JUMP JUMPDEST JUMPDEST EQ DUP1 PUSH2 0x155B JUMPI POP PUSH1 0x2 PUSH1 0x4 DUP2 GT ISZERO PUSH2 0x152C JUMPI PUSH2 0x152B PUSH2 0x214E JUMP JUMPDEST JUMPDEST DUP5 DUP3 DUP2 MLOAD DUP2 LT PUSH2 0x153F JUMPI PUSH2 0x153E PUSH2 0x25A6 JUMP JUMPDEST JUMPDEST PUSH1 0x20 MUL PUSH1 0x20 ADD ADD MLOAD PUSH1 0x4 DUP2 GT ISZERO PUSH2 0x1559 JUMPI PUSH2 0x1558 PUSH2 0x214E JUMP JUMPDEST JUMPDEST EQ JUMPDEST ISZERO PUSH2 0x156A JUMPI PUSH1 0x1 SWAP2 POP POP PUSH2 0x174F JUMP JUMPDEST DUP1 DUP1 PUSH1 0x1 ADD SWAP2 POP POP PUSH2 0x14C7 JUMP JUMPDEST POP PUSH0 SWAP1 POP PUSH2 0x174F JUMP JUMPDEST PUSH1 0x3 PUSH1 0x4 DUP2 GT ISZERO PUSH2 0x1594 JUMPI PUSH2 0x1593 PUSH2 0x214E JUMP JUMPDEST JUMPDEST DUP3 PUSH1 0x4 DUP2 GT ISZERO PUSH2 0x15A7 JUMPI PUSH2 0x15A6 PUSH2 0x214E JUMP JUMPDEST JUMPDEST SUB PUSH2 0x16B0 JUMPI PUSH0 JUMPDEST DUP4 MLOAD DUP2 LT ISZERO PUSH2 0x16A7 JUMPI PUSH1 0x1 PUSH1 0x4 DUP2 GT ISZERO PUSH2 0x15CB JUMPI PUSH2 0x15CA PUSH2 0x214E JUMP JUMPDEST JUMPDEST DUP5 DUP3 DUP2 MLOAD DUP2 LT PUSH2 0x15DE JUMPI PUSH2 0x15DD PUSH2 0x25A6 JUMP JUMPDEST JUMPDEST PUSH1 0x20 MUL PUSH1 0x20 ADD ADD MLOAD PUSH1 0x4 DUP2 GT ISZERO PUSH2 0x15F8 JUMPI PUSH2 0x15F7 PUSH2 0x214E JUMP JUMPDEST JUMPDEST EQ DUP1 PUSH2 0x1642 JUMPI POP PUSH1 0x2 PUSH1 0x4 DUP2 GT ISZERO PUSH2 0x1613 JUMPI PUSH2 0x1612 PUSH2 0x214E JUMP JUMPDEST JUMPDEST DUP5 DUP3 DUP2 MLOAD DUP2 LT PUSH2 0x1626 JUMPI PUSH2 0x1625 PUSH2 0x25A6 JUMP JUMPDEST JUMPDEST PUSH1 0x20 MUL PUSH1 0x20 ADD ADD MLOAD PUSH1 0x4 DUP2 GT ISZERO PUSH2 0x1640 JUMPI PUSH2 0x163F PUSH2 0x214E JUMP JUMPDEST JUMPDEST EQ JUMPDEST DUP1 PUSH2 0x168B JUMPI POP PUSH1 0x3 PUSH1 0x4 DUP2 GT ISZERO PUSH2 0x165C JUMPI PUSH2 0x165B PUSH2 0x214E JUMP JUMPDEST JUMPDEST DUP5 DUP3 DUP2 MLOAD DUP2 LT PUSH2 0x166F JUMPI PUSH2 0x166E PUSH2 0x25A6 JUMP JUMPDEST JUMPDEST PUSH1 0x20 MUL PUSH1 0x20 ADD ADD MLOAD PUSH1 0x4 DUP2 GT ISZERO PUSH2 0x1689 JUMPI PUSH2 0x1688 PUSH2 0x214E JUMP JUMPDEST JUMPDEST EQ JUMPDEST ISZERO PUSH2 0x169A JUMPI PUSH1 0x1 SWAP2 POP POP PUSH2 0x174F JUMP JUMPDEST DUP1 DUP1 PUSH1 0x1 ADD SWAP2 POP POP PUSH2 0x15AE JUMP JUMPDEST POP PUSH0 SWAP1 POP PUSH2 0x174F JUMP JUMPDEST PUSH1 0x4 DUP1 DUP2 GT ISZERO PUSH2 0x16C3 JUMPI PUSH2 0x16C2 PUSH2 0x214E JUMP JUMPDEST JUMPDEST DUP3 PUSH1 0x4 DUP2 GT ISZERO PUSH2 0x16D6 JUMPI PUSH2 0x16D5 PUSH2 0x214E JUMP JUMPDEST JUMPDEST SUB PUSH2 0x174B JUMPI PUSH0 JUMPDEST DUP4 MLOAD DUP2 LT ISZERO PUSH2 0x1741 JUMPI PUSH0 PUSH1 0x4 DUP2 GT ISZERO PUSH2 0x16F9 JUMPI PUSH2 0x16F8 PUSH2 0x214E JUMP JUMPDEST JUMPDEST DUP5 DUP3 DUP2 MLOAD DUP2 LT PUSH2 0x170C JUMPI PUSH2 0x170B PUSH2 0x25A6 JUMP JUMPDEST JUMPDEST PUSH1 0x20 MUL PUSH1 0x20 ADD ADD MLOAD PUSH1 0x4 DUP2 GT ISZERO PUSH2 0x1726 JUMPI PUSH2 0x1725 PUSH2 0x214E JUMP JUMPDEST JUMPDEST SUB PUSH2 0x1734 JUMPI PUSH0 SWAP2 POP POP PUSH2 0x174F JUMP JUMPDEST DUP1 DUP1 PUSH1 0x1 ADD SWAP2 POP POP PUSH2 0x16DD JUMP JUMPDEST POP PUSH1 0x1 SWAP1 POP PUSH2 0x174F JUMP JUMPDEST PUSH0 SWAP1 POP JUMPDEST SWAP3 SWAP2 POP POP JUMP JUMPDEST PUSH1 0x1 PUSH1 0x2 DUP2 GT ISZERO PUSH2 0x1769 JUMPI PUSH2 0x1768 PUSH2 0x214E JUMP JUMPDEST JUMPDEST DUP2 PUSH1 0x60 ADD MLOAD PUSH1 0x2 DUP2 GT ISZERO PUSH2 0x1780 JUMPI PUSH2 0x177F PUSH2 0x214E JUMP JUMPDEST JUMPDEST SUB PUSH2 0x17C7 JUMPI CALLER DUP2 PUSH0 ADD MLOAD PUSH1 0x40 MLOAD PUSH32 0xC4C67E0100000000000000000000000000000000000000000000000000000000 DUP2 MSTORE PUSH1 0x4 ADD PUSH2 0x17BE SWAP3 SWAP2 SWAP1 PUSH2 0x2CC8 JUMP JUMPDEST PUSH1 0x40 MLOAD DUP1 SWAP2 SUB SWAP1 REVERT JUMPDEST PUSH1 0x2 DUP1 DUP2 GT ISZERO PUSH2 0x17DA JUMPI PUSH2 0x17D9 PUSH2 0x214E JUMP JUMPDEST JUMPDEST DUP2 PUSH1 0x60 ADD MLOAD PUSH1 0x2 DUP2 GT ISZERO PUSH2 0x17F1 JUMPI PUSH2 0x17F0 PUSH2 0x214E JUMP JUMPDEST JUMPDEST SUB PUSH2 0x1838 JUMPI CALLER DUP2 PUSH0 ADD MLOAD PUSH1 0x40 MLOAD PUSH32 0xC4C67E0100000000000000000000000000000000000000000000000000000000 DUP2 MSTORE PUSH1 0x4 ADD PUSH2 0x182F SWAP3 SWAP2 SWAP1 PUSH2 0x2D53 JUMP JUMPDEST PUSH1 0x40 MLOAD DUP1 SWAP2 SUB SWAP1 REVERT JUMPDEST POP JUMP JUMPDEST PUSH0 PUSH1 0x2 PUSH0 DUP4 PUSH1 0x20 ADD MLOAD PUSH20 0xFFFFFFFFFFFFFFFFFFFFFFFFFFFFFFFFFFFFFFFF AND PUSH20 0xFFFFFFFFFFFFFFFFFFFFFFFFFFFFFFFFFFFFFFFF AND DUP2 MSTORE PUSH1 0x20 ADD SWAP1 DUP2 MSTORE PUSH1 0x20 ADD PUSH0 KECCAK256 PUSH1 0x40 MLOAD DUP1 PUSH1 0x80 ADD PUSH1 0x40 MSTORE SWAP1 DUP2 PUSH0 DUP3 ADD DUP1 SLOAD PUSH2 0x1897 SWAP1 PUSH2 0x24BD JUMP JUMPDEST DUP1 PUSH1 0x1F ADD PUSH1 0x20 DUP1 SWAP2 DIV MUL PUSH1 0x20 ADD PUSH1 0x40 MLOAD SWAP1 DUP2 ADD PUSH1 0x40 MSTORE DUP1 SWAP3 SWAP2 SWAP1 DUP2 DUP2 MSTORE PUSH1 0x20 ADD DUP3 DUP1 SLOAD PUSH2 0x18C3 SWAP1 PUSH2 0x24BD JUMP JUMPDEST DUP1 ISZERO PUSH2 0x190E JUMPI DUP1 PUSH1 0x1F LT PUSH2 0x18E5 JUMPI PUSH2 0x100 DUP1 DUP4 SLOAD DIV MUL DUP4 MSTORE SWAP2 PUSH1 0x20 ADD SWAP2 PUSH2 0x190E JUMP JUMPDEST DUP3 ADD SWAP2 SWAP1 PUSH0 MSTORE PUSH1 0x20 PUSH0 KECCAK256 SWAP1 JUMPDEST DUP2 SLOAD DUP2 MSTORE SWAP1 PUSH1 0x1 ADD SWAP1 PUSH1 0x20 ADD DUP1 DUP4 GT PUSH2 0x18F1 JUMPI DUP3 SWAP1 SUB PUSH1 0x1F AND DUP3 ADD SWAP2 JUMPDEST POP POP POP POP POP DUP2 MSTORE PUSH1 0x20 ADD PUSH1 0x1 DUP3 ADD PUSH0 SWAP1 SLOAD SWAP1 PUSH2 0x100 EXP SWAP1 DIV PUSH20 0xFFFFFFFFFFFFFFFFFFFFFFFFFFFFFFFFFFFFFFFF AND PUSH20 0xFFFFFFFFFFFFFFFFFFFFFFFFFFFFFFFFFFFFFFFF AND PUSH20 0xFFFFFFFFFFFFFFFFFFFFFFFFFFFFFFFFFFFFFFFF AND DUP2 MSTORE PUSH1 0x20 ADD PUSH1 0x2 DUP3 ADD DUP1 SLOAD PUSH2 0x197C SWAP1 PUSH2 0x24BD JUMP JUMPDEST DUP1 PUSH1 0x1F ADD PUSH1 0x20 DUP1 SWAP2 DIV MUL PUSH1 0x20 ADD PUSH1 0x40 MLOAD SWAP1 DUP2 ADD PUSH1 0x40 MSTORE DUP1 SWAP3 SWAP2 SWAP1 DUP2 DUP2 MSTORE PUSH1 0x20 ADD DUP3 DUP1 SLOAD PUSH2 0x19A8 SWAP1 PUSH2 0x24BD JUMP JUMPDEST DUP1 ISZERO PUSH2 0x19F3 JUMPI DUP1 PUSH1 0x1F LT PUSH2 0x19CA JUMPI PUSH2 0x100 DUP1 DUP4 SLOAD DIV MUL DUP4 MSTORE SWAP2 PUSH1 0x20 ADD SWAP2 PUSH2 0x19F3 JUMP JUMPDEST DUP3 ADD SWAP2 SWAP1 PUSH0 MSTORE PUSH1 0x20 PUSH0 KECCAK256 SWAP1 JUMPDEST DUP2 SLOAD DUP2 MSTORE SWAP1 PUSH1 0x1 ADD SWAP1 PUSH1 0x20 ADD DUP1 DUP4 GT PUSH2 0x19D6 JUMPI DUP3 SWAP1 SUB PUSH1 0x1F AND DUP3 ADD SWAP2 JUMPDEST POP POP POP POP POP DUP2 MSTORE PUSH1 0x20 ADD PUSH1 0x3 DUP3 ADD DUP1 SLOAD DUP1 PUSH1 0x20 MUL PUSH1 0x20 ADD PUSH1 0x40 MLOAD SWAP1 DUP2 ADD PUSH1 0x40 MSTORE DUP1 SWAP3 SWAP2 SWAP1 DUP2 DUP2 MSTORE PUSH1 0x20 ADD DUP3 DUP1 SLOAD DUP1 ISZERO PUSH2 0x1A7C JUMPI PUSH1 0x20 MUL DUP3 ADD SWAP2 SWAP1 PUSH0 MSTORE PUSH1 0x20 PUSH0 KECCAK256 SWAP1 PUSH0 SWAP1 JUMPDEST DUP3 DUP3 SWAP1 SLOAD SWAP1 PUSH2 0x100 EXP SWAP1 DIV PUSH1 0xFF AND PUSH1 0x4 DUP2 GT ISZERO PUSH2 0x1A57 JUMPI PUSH2 0x1A56 PUSH2 0x214E JUMP JUMPDEST JUMPDEST DUP2 MSTORE PUSH1 0x20 ADD SWAP1 PUSH1 0x1 ADD SWAP1 PUSH1 0x20 DUP3 PUSH0 ADD DIV SWAP3 DUP4 ADD SWAP3 PUSH1 0x1 SUB DUP3 MUL SWAP2 POP DUP1 DUP5 GT PUSH2 0x1A37 JUMPI SWAP1 POP JUMPDEST POP POP POP POP POP DUP2 MSTORE POP POP SWAP1 POP PUSH0 PUSH1 0x1 DUP3 PUSH1 0x60 ADD MLOAD MLOAD PUSH2 0x1A9A SWAP2 SWAP1 PUSH2 0x2DC1 JUMP JUMPDEST PUSH8 0xFFFFFFFFFFFFFFFF DUP2 GT ISZERO PUSH2 0x1AB3 JUMPI PUSH2 0x1AB2 PUSH2 0x1EEE JUMP JUMPDEST JUMPDEST PUSH1 0x40 MLOAD SWAP1 DUP1 DUP3 MSTORE DUP1 PUSH1 0x20 MUL PUSH1 0x20 ADD DUP3 ADD PUSH1 0x40 MSTORE DUP1 ISZERO PUSH2 0x1AE1 JUMPI DUP2 PUSH1 0x20 ADD PUSH1 0x20 DUP3 MUL DUP1 CALLDATASIZE DUP4 CALLDATACOPY DUP1 DUP3 ADD SWAP2 POP POP SWAP1 POP JUMPDEST POP SWAP1 POP PUSH0 JUMPDEST DUP3 PUSH1 0x60 ADD MLOAD MLOAD DUP2 LT ISZERO PUSH2 0x1B64 JUMPI DUP3 PUSH1 0x60 ADD MLOAD DUP2 DUP2 MLOAD DUP2 LT PUSH2 0x1B0A JUMPI PUSH2 0x1B09 PUSH2 0x25A6 JUMP JUMPDEST JUMPDEST PUSH1 0x20 MUL PUSH1 0x20 ADD ADD MLOAD DUP3 DUP3 DUP2 MLOAD DUP2 LT PUSH2 0x1B25 JUMPI PUSH2 0x1B24 PUSH2 0x25A6 JUMP JUMPDEST JUMPDEST PUSH1 0x20 MUL PUSH1 0x20 ADD ADD SWAP1 PUSH1 0x4 DUP2 GT ISZERO PUSH2 0x1B3F JUMPI PUSH2 0x1B3E PUSH2 0x214E JUMP JUMPDEST JUMPDEST SWAP1 DUP2 PUSH1 0x4 DUP2 GT ISZERO PUSH2 0x1B53 JUMPI PUSH2 0x1B52 PUSH2 0x214E JUMP JUMPDEST JUMPDEST DUP2 MSTORE POP POP DUP1 DUP1 PUSH1 0x1 ADD SWAP2 POP POP PUSH2 0x1AE6 JUMP JUMPDEST POP DUP3 PUSH1 0x40 ADD MLOAD DUP2 DUP4 PUSH1 0x60 ADD MLOAD MLOAD DUP2 MLOAD DUP2 LT PUSH2 0x1B82 JUMPI PUSH2 0x1B81 PUSH2 0x25A6 JUMP JUMPDEST JUMPDEST PUSH1 0x20 MUL PUSH1 0x20 ADD ADD SWAP1 PUSH1 0x4 DUP2 GT ISZERO PUSH2 0x1B9C JUMPI PUSH2 0x1B9B PUSH2 0x214E JUMP JUMPDEST JUMPDEST SWAP1 DUP2 PUSH1 0x4 DUP2 GT ISZERO PUSH2 0x1BB0 JUMPI PUSH2 0x1BAF PUSH2 0x214E JUMP JUMPDEST JUMPDEST DUP2 MSTORE POP POP DUP1 DUP3 PUSH1 0x60 ADD DUP2 SWAP1 MSTORE POP POP POP POP JUMP JUMPDEST PUSH0 CALLER SWAP1 POP SWAP1 JUMP JUMPDEST DUP3 DUP1 SLOAD DUP3 DUP3 SSTORE SWAP1 PUSH0 MSTORE PUSH1 0x20 PUSH0 KECCAK256 SWAP1 PUSH1 0x1F ADD PUSH1 0x20 SWAP1 DIV DUP2 ADD SWAP3 DUP3 ISZERO PUSH2 0x1C69 JUMPI SWAP2 PUSH1 0x20 MUL DUP3 ADD PUSH0 JUMPDEST DUP4 DUP3 GT ISZERO PUSH2 0x1C3B JUMPI DUP4 MLOAD DUP4 DUP3 PUSH2 0x100 EXP DUP2 SLOAD DUP2 PUSH1 0xFF MUL NOT AND SWAP1 DUP4 PUSH1 0x4 DUP2 GT ISZERO PUSH2 0x1C1B JUMPI PUSH2 0x1C1A PUSH2 0x214E JUMP JUMPDEST JUMPDEST MUL OR SWAP1 SSTORE POP SWAP3 PUSH1 0x20 ADD SWAP3 PUSH1 0x1 ADD PUSH1 0x20 DUP2 PUSH0 ADD DIV SWAP3 DUP4 ADD SWAP3 PUSH1 0x1 SUB MUL PUSH2 0x1BEF JUMP JUMPDEST DUP1 ISZERO PUSH2 0x1C67 JUMPI DUP3 DUP2 PUSH2 0x100 EXP DUP2 SLOAD SWAP1 PUSH1 0xFF MUL NOT AND SWAP1 SSTORE PUSH1 0x1 ADD PUSH1 0x20 DUP2 PUSH0 ADD DIV SWAP3 DUP4 ADD SWAP3 PUSH1 0x1 SUB MUL PUSH2 0x1C3B JUMP JUMPDEST POP JUMPDEST POP SWAP1 POP PUSH2 0x1C76 SWAP2 SWAP1 PUSH2 0x1C99 JUMP JUMPDEST POP SWAP1 JUMP JUMPDEST PUSH1 0x40 MLOAD DUP1 PUSH1 0x40 ADD PUSH1 0x40 MSTORE DUP1 PUSH2 0x1C8D PUSH2 0x1CB4 JUMP JUMPDEST DUP2 MSTORE PUSH1 0x20 ADD PUSH0 DUP2 MSTORE POP SWAP1 JUMP JUMPDEST JUMPDEST DUP1 DUP3 GT ISZERO PUSH2 0x1CB0 JUMPI PUSH0 DUP2 PUSH0 SWAP1 SSTORE POP PUSH1 0x1 ADD PUSH2 0x1C9A JUMP JUMPDEST POP SWAP1 JUMP JUMPDEST PUSH1 0x40 MLOAD DUP1 PUSH1 0xA0 ADD PUSH1 0x40 MSTORE DUP1 PUSH1 0x60 DUP2 MSTORE PUSH1 0x20 ADD PUSH0 PUSH20 0xFFFFFFFFFFFFFFFFFFFFFFFFFFFFFFFFFFFFFFFF AND DUP2 MSTORE PUSH1 0x20 ADD PUSH0 PUSH1 0x4 DUP2 GT ISZERO PUSH2 0x1CF5 JUMPI PUSH2 0x1CF4 PUSH2 0x214E JUMP JUMPDEST JUMPDEST DUP2 MSTORE PUSH1 0x20 ADD PUSH0 PUSH1 0x2 DUP2 GT ISZERO PUSH2 0x1D0D JUMPI PUSH2 0x1D0C PUSH2 0x214E JUMP JUMPDEST JUMPDEST DUP2 MSTORE PUSH1 0x20 ADD PUSH0 PUSH20 0xFFFFFFFFFFFFFFFFFFFFFFFFFFFFFFFFFFFFFFFF AND DUP2 MSTORE POP SWAP1 JUMP JUMPDEST PUSH0 PUSH1 0x40 MLOAD SWAP1 POP SWAP1 JUMP JUMPDEST PUSH0 DUP1 REVERT JUMPDEST PUSH0 DUP1 REVERT JUMPDEST PUSH0 PUSH20 0xFFFFFFFFFFFFFFFFFFFFFFFFFFFFFFFFFFFFFFFF DUP3 AND SWAP1 POP SWAP2 SWAP1 POP JUMP JUMPDEST PUSH0 PUSH2 0x1D69 DUP3 PUSH2 0x1D40 JUMP JUMPDEST SWAP1 POP SWAP2 SWAP1 POP JUMP JUMPDEST PUSH2 0x1D79 DUP2 PUSH2 0x1D5F JUMP JUMPDEST DUP2 EQ PUSH2 0x1D83 JUMPI PUSH0 DUP1 REVERT JUMPDEST POP JUMP JUMPDEST PUSH0 DUP2 CALLDATALOAD SWAP1 POP PUSH2 0x1D94 DUP2 PUSH2 0x1D70 JUMP JUMPDEST SWAP3 SWAP2 POP POP JUMP JUMPDEST PUSH0 PUSH1 0x20 DUP3 DUP5 SUB SLT ISZERO PUSH2 0x1DAF JUMPI PUSH2 0x1DAE PUSH2 0x1D38 JUMP JUMPDEST JUMPDEST PUSH0 PUSH2 0x1DBC DUP5 DUP3 DUP6 ADD PUSH2 0x1D86 JUMP JUMPDEST SWAP2 POP POP SWAP3 SWAP2 POP POP JUMP JUMPDEST PUSH0 DUP2 ISZERO ISZERO SWAP1 POP SWAP2 SWAP1 POP JUMP JUMPDEST PUSH2 0x1DD9 DUP2 PUSH2 0x1DC5 JUMP JUMPDEST DUP3 MSTORE POP POP JUMP JUMPDEST PUSH0 PUSH1 0x20 DUP3 ADD SWAP1 POP PUSH2 0x1DF2 PUSH0 DUP4 ADD DUP5 PUSH2 0x1DD0 JUMP JUMPDEST SWAP3 SWAP2 POP POP JUMP JUMPDEST PUSH0 DUP2 SWAP1 POP SWAP2 SWAP1 POP JUMP JUMPDEST PUSH2 0x1E0A DUP2 PUSH2 0x1DF8 JUMP JUMPDEST DUP2 EQ PUSH2 0x1E14 JUMPI PUSH0 DUP1 REVERT JUMPDEST POP JUMP JUMPDEST PUSH0 DUP2 CALLDATALOAD SWAP1 POP PUSH2 0x1E25 DUP2 PUSH2 0x1E01 JUMP JUMPDEST SWAP3 SWAP2 POP POP JUMP JUMPDEST PUSH0 PUSH1 0x20 DUP3 DUP5 SUB SLT ISZERO PUSH2 0x1E40 JUMPI PUSH2 0x1E3F PUSH2 0x1D38 JUMP JUMPDEST JUMPDEST PUSH0 PUSH2 0x1E4D DUP5 DUP3 DUP6 ADD PUSH2 0x1E17 JUMP JUMPDEST SWAP2 POP POP SWAP3 SWAP2 POP POP JUMP JUMPDEST PUSH0 DUP2 MLOAD SWAP1 POP SWAP2 SWAP1 POP JUMP JUMPDEST PUSH0 DUP3 DUP3 MSTORE PUSH1 0x20 DUP3 ADD SWAP1 POP SWAP3 SWAP2 POP POP JUMP JUMPDEST DUP3 DUP2 DUP4 MCOPY PUSH0 DUP4 DUP4 ADD MSTORE POP POP POP JUMP JUMPDEST PUSH0 PUSH1 0x1F NOT PUSH1 0x1F DUP4 ADD AND SWAP1 POP SWAP2 SWAP1 POP JUMP JUMPDEST PUSH0 PUSH2 0x1E98 DUP3 PUSH2 0x1E56 JUMP JUMPDEST PUSH2 0x1EA2 DUP2 DUP6 PUSH2 0x1E60 JUMP JUMPDEST SWAP4 POP PUSH2 0x1EB2 DUP2 DUP6 PUSH1 0x20 DUP7 ADD PUSH2 0x1E70 JUMP JUMPDEST PUSH2 0x1EBB DUP2 PUSH2 0x1E7E JUMP JUMPDEST DUP5 ADD SWAP2 POP POP SWAP3 SWAP2 POP POP JUMP JUMPDEST PUSH0 PUSH1 0x20 DUP3 ADD SWAP1 POP DUP2 DUP2 SUB PUSH0 DUP4 ADD MSTORE PUSH2 0x1EDE DUP2 DUP5 PUSH2 0x1E8E JUMP JUMPDEST SWAP1 POP SWAP3 SWAP2 POP POP JUMP JUMPDEST PUSH0 DUP1 REVERT JUMPDEST PUSH0 DUP1 REVERT JUMPDEST PUSH32 0x4E487B7100000000000000000000000000000000000000000000000000000000 PUSH0 MSTORE PUSH1 0x41 PUSH1 0x4 MSTORE PUSH1 0x24 PUSH0 REVERT JUMPDEST PUSH2 0x1F24 DUP3 PUSH2 0x1E7E JUMP JUMPDEST DUP2 ADD DUP2 DUP2 LT PUSH8 0xFFFFFFFFFFFFFFFF DUP3 GT OR ISZERO PUSH2 0x1F43 JUMPI PUSH2 0x1F42 PUSH2 0x1EEE JUMP JUMPDEST JUMPDEST DUP1 PUSH1 0x40 MSTORE POP POP POP JUMP JUMPDEST PUSH0 PUSH2 0x1F55 PUSH2 0x1D2F JUMP JUMPDEST SWAP1 POP PUSH2 0x1F61 DUP3 DUP3 PUSH2 0x1F1B JUMP JUMPDEST SWAP2 SWAP1 POP JUMP JUMPDEST PUSH0 PUSH8 0xFFFFFFFFFFFFFFFF DUP3 GT ISZERO PUSH2 0x1F80 JUMPI PUSH2 0x1F7F PUSH2 0x1EEE JUMP JUMPDEST JUMPDEST PUSH2 0x1F89 DUP3 PUSH2 0x1E7E JUMP JUMPDEST SWAP1 POP PUSH1 0x20 DUP2 ADD SWAP1 POP SWAP2 SWAP1 POP JUMP JUMPDEST DUP3 DUP2 DUP4 CALLDATACOPY PUSH0 DUP4 DUP4 ADD MSTORE POP POP POP JUMP JUMPDEST PUSH0 PUSH2 0x1FB6 PUSH2 0x1FB1 DUP5 PUSH2 0x1F66 JUMP JUMPDEST PUSH2 0x1F4C JUMP JUMPDEST SWAP1 POP DUP3 DUP2 MSTORE PUSH1 0x20 DUP2 ADD DUP5 DUP5 DUP5 ADD GT ISZERO PUSH2 0x1FD2 JUMPI PUSH2 0x1FD1 PUSH2 0x1EEA JUMP JUMPDEST JUMPDEST PUSH2 0x1FDD DUP5 DUP3 DUP6 PUSH2 0x1F96 JUMP JUMPDEST POP SWAP4 SWAP3 POP POP POP JUMP JUMPDEST PUSH0 DUP3 PUSH1 0x1F DUP4 ADD SLT PUSH2 0x1FF9 JUMPI PUSH2 0x1FF8 PUSH2 0x1EE6 JUMP JUMPDEST JUMPDEST DUP2 CALLDATALOAD PUSH2 0x2009 DUP5 DUP3 PUSH1 0x20 DUP7 ADD PUSH2 0x1FA4 JUMP JUMPDEST SWAP2 POP POP SWAP3 SWAP2 POP POP JUMP JUMPDEST PUSH0 DUP1 PUSH1 0x40 DUP4 DUP6 SUB SLT ISZERO PUSH2 0x2028 JUMPI PUSH2 0x2027 PUSH2 0x1D38 JUMP JUMPDEST JUMPDEST PUSH0 DUP4 ADD CALLDATALOAD PUSH8 0xFFFFFFFFFFFFFFFF DUP2 GT ISZERO PUSH2 0x2045 JUMPI PUSH2 0x2044 PUSH2 0x1D3C JUMP JUMPDEST JUMPDEST PUSH2 0x2051 DUP6 DUP3 DUP7 ADD PUSH2 0x1FE5 JUMP JUMPDEST SWAP3 POP POP PUSH1 0x20 DUP4 ADD CALLDATALOAD PUSH8 0xFFFFFFFFFFFFFFFF DUP2 GT ISZERO PUSH2 0x2072 JUMPI PUSH2 0x2071 PUSH2 0x1D3C JUMP JUMPDEST JUMPDEST PUSH2 0x207E DUP6 DUP3 DUP7 ADD PUSH2 0x1FE5 JUMP JUMPDEST SWAP2 POP POP SWAP3 POP SWAP3 SWAP1 POP JUMP JUMPDEST PUSH2 0x2091 DUP2 PUSH2 0x1D5F JUMP JUMPDEST DUP3 MSTORE POP POP JUMP JUMPDEST PUSH0 PUSH1 0x20 DUP3 ADD SWAP1 POP PUSH2 0x20AA PUSH0 DUP4 ADD DUP5 PUSH2 0x2088 JUMP JUMPDEST SWAP3 SWAP2 POP POP JUMP JUMPDEST PUSH0 PUSH1 0x20 DUP3 DUP5 SUB SLT ISZERO PUSH2 0x20C5 JUMPI PUSH2 0x20C4 PUSH2 0x1D38 JUMP JUMPDEST JUMPDEST PUSH0 DUP3 ADD CALLDATALOAD PUSH8 0xFFFFFFFFFFFFFFFF DUP2 GT ISZERO PUSH2 0x20E2 JUMPI PUSH2 0x20E1 PUSH2 0x1D3C JUMP JUMPDEST JUMPDEST PUSH2 0x20EE DUP5 DUP3 DUP6 ADD PUSH2 0x1FE5 JUMP JUMPDEST SWAP2 POP POP SWAP3 SWAP2 POP POP JUMP JUMPDEST PUSH0 DUP3 DUP3 MSTORE PUSH1 0x20 DUP3 ADD SWAP1 POP SWAP3 SWAP2 POP POP JUMP JUMPDEST PUSH0 PUSH2 0x2111 DUP3 PUSH2 0x1E56 JUMP JUMPDEST PUSH2 0x211B DUP2 DUP6 PUSH2 0x20F7 JUMP JUMPDEST SWAP4 POP PUSH2 0x212B DUP2 DUP6 PUSH1 0x20 DUP7 ADD PUSH2 0x1E70 JUMP JUMPDEST PUSH2 0x2134 DUP2 PUSH2 0x1E7E JUMP JUMPDEST DUP5 ADD SWAP2 POP POP SWAP3 SWAP2 POP POP JUMP JUMPDEST PUSH2 0x2148 DUP2 PUSH2 0x1D5F JUMP JUMPDEST DUP3 MSTORE POP POP JUMP JUMPDEST PUSH32 0x4E487B7100000000000000000000000000000000000000000000000000000000 PUSH0 MSTORE PUSH1 0x21 PUSH1 0x4 MSTORE PUSH1 0x24 PUSH0 REVERT JUMPDEST PUSH1 0x5 DUP2 LT PUSH2 0x218C JUMPI PUSH2 0x218B PUSH2 0x214E JUMP JUMPDEST JUMPDEST POP JUMP JUMPDEST PUSH0 DUP2 SWAP1 POP PUSH2 0x219C DUP3 PUSH2 0x217B JUMP JUMPDEST SWAP2 SWAP1 POP JUMP JUMPDEST PUSH0 PUSH2 0x21AB DUP3 PUSH2 0x218F JUMP JUMPDEST SWAP1 POP SWAP2 SWAP1 POP JUMP JUMPDEST PUSH2 0x21BB DUP2 PUSH2 0x21A1 JUMP JUMPDEST DUP3 MSTORE POP POP JUMP JUMPDEST PUSH1 0x3 DUP2 LT PUSH2 0x21D2 JUMPI PUSH2 0x21D1 PUSH2 0x214E JUMP JUMPDEST JUMPDEST POP JUMP JUMPDEST PUSH0 DUP2 SWAP1 POP PUSH2 0x21E2 DUP3 PUSH2 0x21C1 JUMP JUMPDEST SWAP2 SWAP1 POP JUMP JUMPDEST PUSH0 PUSH2 0x21F1 DUP3 PUSH2 0x21D5 JUMP JUMPDEST SWAP1 POP SWAP2 SWAP1 POP JUMP JUMPDEST PUSH2 0x2201 DUP2 PUSH2 0x21E7 JUMP JUMPDEST DUP3 MSTORE POP POP JUMP JUMPDEST PUSH0 PUSH1 0xA0 DUP4 ADD PUSH0 DUP4 ADD MLOAD DUP5 DUP3 SUB PUSH0 DUP7 ADD MSTORE PUSH2 0x2221 DUP3 DUP3 PUSH2 0x2107 JUMP JUMPDEST SWAP2 POP POP PUSH1 0x20 DUP4 ADD MLOAD PUSH2 0x2236 PUSH1 0x20 DUP7 ADD DUP3 PUSH2 0x213F JUMP JUMPDEST POP PUSH1 0x40 DUP4 ADD MLOAD PUSH2 0x2249 PUSH1 0x40 DUP7 ADD DUP3 PUSH2 0x21B2 JUMP JUMPDEST POP PUSH1 0x60 DUP4 ADD MLOAD PUSH2 0x225C PUSH1 0x60 DUP7 ADD DUP3 PUSH2 0x21F8 JUMP JUMPDEST POP PUSH1 0x80 DUP4 ADD MLOAD PUSH2 0x226F PUSH1 0x80 DUP7 ADD DUP3 PUSH2 0x213F JUMP JUMPDEST POP DUP1 SWAP2 POP POP SWAP3 SWAP2 POP POP JUMP JUMPDEST PUSH2 0x2283 DUP2 PUSH2 0x1DF8 JUMP JUMPDEST DUP3 MSTORE POP POP JUMP JUMPDEST PUSH0 PUSH1 0x40 DUP4 ADD PUSH0 DUP4 ADD MLOAD DUP5 DUP3 SUB PUSH0 DUP7 ADD MSTORE PUSH2 0x22A3 DUP3 DUP3 PUSH2 0x2207 JUMP JUMPDEST SWAP2 POP POP PUSH1 0x20 DUP4 ADD MLOAD PUSH2 0x22B8 PUSH1 0x20 DUP7 ADD DUP3 PUSH2 0x227A JUMP JUMPDEST POP DUP1 SWAP2 POP POP SWAP3 SWAP2 POP POP JUMP JUMPDEST PUSH0 PUSH1 0x20 DUP3 ADD SWAP1 POP DUP2 DUP2 SUB PUSH0 DUP4 ADD MSTORE PUSH2 0x22DB DUP2 DUP5 PUSH2 0x2289 JUMP JUMPDEST SWAP1 POP SWAP3 SWAP2 POP POP JUMP JUMPDEST PUSH2 0x22EC DUP2 PUSH2 0x1DC5 JUMP JUMPDEST DUP2 EQ PUSH2 0x22F6 JUMPI PUSH0 DUP1 REVERT JUMPDEST POP JUMP JUMPDEST PUSH0 DUP2 CALLDATALOAD SWAP1 POP PUSH2 0x2307 DUP2 PUSH2 0x22E3 JUMP JUMPDEST SWAP3 SWAP2 POP POP JUMP JUMPDEST PUSH0 DUP1 PUSH1 0x40 DUP4 DUP6 SUB SLT ISZERO PUSH2 0x2323 JUMPI PUSH2 0x2322 PUSH2 0x1D38 JUMP JUMPDEST JUMPDEST PUSH0 DUP4 ADD CALLDATALOAD PUSH8 0xFFFFFFFFFFFFFFFF DUP2 GT ISZERO PUSH2 0x2340 JUMPI PUSH2 0x233F PUSH2 0x1D3C JUMP JUMPDEST JUMPDEST PUSH2 0x234C DUP6 DUP3 DUP7 ADD PUSH2 0x1FE5 JUMP JUMPDEST SWAP3 POP POP PUSH1 0x20 PUSH2 0x235D DUP6 DUP3 DUP7 ADD PUSH2 0x22F9 JUMP JUMPDEST SWAP2 POP POP SWAP3 POP SWAP3 SWAP1 POP JUMP JUMPDEST PUSH1 0x5 DUP2 LT PUSH2 0x2373 JUMPI PUSH0 DUP1 REVERT JUMPDEST POP JUMP JUMPDEST PUSH0 DUP2 CALLDATALOAD SWAP1 POP PUSH2 0x2384 DUP2 PUSH2 0x2367 JUMP JUMPDEST SWAP3 SWAP2 POP POP JUMP JUMPDEST PUSH0 PUSH1 0x20 DUP3 DUP5 SUB SLT ISZERO PUSH2 0x239F JUMPI PUSH2 0x239E PUSH2 0x1D38 JUMP JUMPDEST JUMPDEST PUSH0 PUSH2 0x23AC DUP5 DUP3 DUP6 ADD PUSH2 0x2376 JUMP JUMPDEST SWAP2 POP POP SWAP3 SWAP2 POP POP JUMP JUMPDEST PUSH0 DUP2 MLOAD SWAP1 POP SWAP2 SWAP1 POP JUMP JUMPDEST PUSH0 DUP3 DUP3 MSTORE PUSH1 0x20 DUP3 ADD SWAP1 POP SWAP3 SWAP2 POP POP JUMP JUMPDEST PUSH0 DUP2 SWAP1 POP PUSH1 0x20 DUP3 ADD SWAP1 POP SWAP2 SWAP1 POP JUMP JUMPDEST PUSH0 PUSH2 0x23E9 DUP4 DUP4 PUSH2 0x2207 JUMP JUMPDEST SWAP1 POP SWAP3 SWAP2 POP POP JUMP JUMPDEST PUSH0 PUSH1 0x20 DUP3 ADD SWAP1 POP SWAP2 SWAP1 POP JUMP JUMPDEST PUSH0 PUSH2 0x2407 DUP3 PUSH2 0x23B5 JUMP JUMPDEST PUSH2 0x2411 DUP2 DUP6 PUSH2 0x23BF JUMP JUMPDEST SWAP4 POP DUP4 PUSH1 0x20 DUP3 MUL DUP6 ADD PUSH2 0x2423 DUP6 PUSH2 0x23CF JUMP JUMPDEST DUP1 PUSH0 JUMPDEST DUP6 DUP2 LT ISZERO PUSH2 0x245E JUMPI DUP5 DUP5 SUB DUP10 MSTORE DUP2 MLOAD PUSH2 0x243F DUP6 DUP3 PUSH2 0x23DE JUMP JUMPDEST SWAP5 POP PUSH2 0x244A DUP4 PUSH2 0x23F1 JUMP JUMPDEST SWAP3 POP PUSH1 0x20 DUP11 ADD SWAP10 POP POP PUSH1 0x1 DUP2 ADD SWAP1 POP PUSH2 0x2426 JUMP JUMPDEST POP DUP3 SWAP8 POP DUP8 SWAP6 POP POP POP POP POP POP SWAP3 SWAP2 POP POP JUMP JUMPDEST PUSH0 PUSH1 0x20 DUP3 ADD SWAP1 POP DUP2 DUP2 SUB PUSH0 DUP4 ADD MSTORE PUSH2 0x2488 DUP2 DUP5 PUSH2 0x23FD JUMP JUMPDEST SWAP1 POP SWAP3 SWAP2 POP POP JUMP JUMPDEST PUSH32 0x4E487B7100000000000000000000000000000000000000000000000000000000 PUSH0 MSTORE PUSH1 0x22 PUSH1 0x4 MSTORE PUSH1 0x24 PUSH0 REVERT JUMPDEST PUSH0 PUSH1 0x2 DUP3 DIV SWAP1 POP PUSH1 0x1 DUP3 AND DUP1 PUSH2 0x24D4 JUMPI PUSH1 0x7F DUP3 AND SWAP2 POP JUMPDEST PUSH1 0x20 DUP3 LT DUP2 SUB PUSH2 0x24E7 JUMPI PUSH2 0x24E6 PUSH2 0x2490 JUMP JUMPDEST JUMPDEST POP SWAP2 SWAP1 POP JUMP JUMPDEST PUSH0 DUP2 SWAP1 POP SWAP2 SWAP1 POP JUMP JUMPDEST PUSH2 0x2507 PUSH2 0x2502 DUP3 PUSH2 0x1DF8 JUMP JUMPDEST PUSH2 0x24ED JUMP JUMPDEST DUP3 MSTORE POP POP JUMP JUMPDEST PUSH0 PUSH2 0x2518 DUP3 DUP7 PUSH2 0x24F6 JUMP JUMPDEST PUSH1 0x20 DUP3 ADD SWAP2 POP PUSH2 0x2528 DUP3 DUP6 PUSH2 0x24F6 JUMP JUMPDEST PUSH1 0x20 DUP3 ADD SWAP2 POP PUSH2 0x2538 DUP3 DUP5 PUSH2 0x24F6 JUMP JUMPDEST PUSH1 0x20 DUP3 ADD SWAP2 POP DUP2 SWAP1 POP SWAP5 SWAP4 POP POP POP POP JUMP JUMPDEST PUSH32 0x4E487B7100000000000000000000000000000000000000000000000000000000 PUSH0 MSTORE PUSH1 0x12 PUSH1 0x4 MSTORE PUSH1 0x24 PUSH0 REVERT JUMPDEST PUSH0 PUSH2 0x2580 DUP3 PUSH2 0x1DF8 JUMP JUMPDEST SWAP2 POP PUSH2 0x258B DUP4 PUSH2 0x1DF8 JUMP JUMPDEST SWAP3 POP DUP3 PUSH2 0x259B JUMPI PUSH2 0x259A PUSH2 0x2549 JUMP JUMPDEST JUMPDEST DUP3 DUP3 MOD SWAP1 POP SWAP3 SWAP2 POP POP JUMP JUMPDEST PUSH32 0x4E487B7100000000000000000000000000000000000000000000000000000000 PUSH0 MSTORE PUSH1 0x32 PUSH1 0x4 MSTORE PUSH1 0x24 PUSH0 REVERT JUMPDEST PUSH32 0x557365726E616D65207265717569726564000000000000000000000000000000 PUSH0 DUP3 ADD MSTORE POP JUMP JUMPDEST PUSH0 PUSH2 0x2607 PUSH1 0x11 DUP4 PUSH2 0x1E60 JUMP JUMPDEST SWAP2 POP PUSH2 0x2612 DUP3 PUSH2 0x25D3 JUMP JUMPDEST PUSH1 0x20 DUP3 ADD SWAP1 POP SWAP2 SWAP1 POP JUMP JUMPDEST PUSH0 PUSH1 0x40 DUP3 ADD SWAP1 POP PUSH2 0x2630 PUSH0 DUP4 ADD DUP5 PUSH2 0x2088 JUMP JUMPDEST DUP2 DUP2 SUB PUSH1 0x20 DUP4 ADD MSTORE PUSH2 0x2641 DUP2 PUSH2 0x25FB JUMP JUMPDEST SWAP1 POP SWAP3 SWAP2 POP POP JUMP JUMPDEST PUSH32 0x47656F4861736820726571756972656400000000000000000000000000000000 PUSH0 DUP3 ADD MSTORE POP JUMP JUMPDEST PUSH0 PUSH2 0x267D PUSH1 0x10 DUP4 PUSH2 0x1E60 JUMP JUMPDEST SWAP2 POP PUSH2 0x2688 DUP3 PUSH2 0x2649 JUMP JUMPDEST PUSH1 0x20 DUP3 ADD SWAP1 POP SWAP2 SWAP1 POP JUMP JUMPDEST PUSH0 PUSH1 0x40 DUP3 ADD SWAP1 POP PUSH2 0x26A6 PUSH0 DUP4 ADD DUP5 PUSH2 0x2088 JUMP JUMPDEST DUP2 DUP2 SUB PUSH1 0x20 DUP4 ADD MSTORE PUSH2 0x26B7 DUP2 PUSH2 0x2671 JUMP JUMPDEST SWAP1 POP SWAP3 SWAP2 POP POP JUMP JUMPDEST PUSH0 DUP2 SWAP1 POP DUP2 PUSH0 MSTORE PUSH1 0x20 PUSH0 KECCAK256 SWAP1 POP SWAP2 SWAP1 POP JUMP JUMPDEST PUSH0 PUSH1 0x20 PUSH1 0x1F DUP4 ADD DIV SWAP1 POP SWAP2 SWAP1 POP JUMP JUMPDEST PUSH0 DUP3 DUP3 SHL SWAP1 POP SWAP3 SWAP2 POP POP JUMP JUMPDEST PUSH0 PUSH1 0x8 DUP4 MUL PUSH2 0x271B PUSH32 0xFFFFFFFFFFFFFFFFFFFFFFFFFFFFFFFFFFFFFFFFFFFFFFFFFFFFFFFFFFFFFFFF DUP3 PUSH2 0x26E0 JUMP JUMPDEST PUSH2 0x2725 DUP7 DUP4 PUSH2 0x26E0 JUMP JUMPDEST SWAP6 POP DUP1 NOT DUP5 AND SWAP4 POP DUP1 DUP7 AND DUP5 OR SWAP3 POP POP POP SWAP4 SWAP3 POP POP POP JUMP JUMPDEST PUSH0 DUP2 SWAP1 POP SWAP2 SWAP1 POP JUMP JUMPDEST PUSH0 PUSH2 0x2760 PUSH2 0x275B PUSH2 0x2756 DUP5 PUSH2 0x1DF8 JUMP JUMPDEST PUSH2 0x273D JUMP JUMPDEST PUSH2 0x1DF8 JUMP JUMPDEST SWAP1 POP SWAP2 SWAP1 POP JUMP JUMPDEST PUSH0 DUP2 SWAP1 POP SWAP2 SWAP1 POP JUMP JUMPDEST PUSH2 0x2779 DUP4 PUSH2 0x2746 JUMP JUMPDEST PUSH2 0x278D PUSH2 0x2785 DUP3 PUSH2 0x2767 JUMP JUMPDEST DUP5 DUP5 SLOAD PUSH2 0x26EC JUMP JUMPDEST DUP3 SSTORE POP POP POP POP JUMP JUMPDEST PUSH0 SWAP1 JUMP JUMPDEST PUSH2 0x27A1 PUSH2 0x2795 JUMP JUMPDEST PUSH2 0x27AC DUP2 DUP5 DUP5 PUSH2 0x2770 JUMP JUMPDEST POP POP POP JUMP JUMPDEST JUMPDEST DUP2 DUP2 LT ISZERO PUSH2 0x27CF JUMPI PUSH2 0x27C4 PUSH0 DUP3 PUSH2 0x2799 JUMP JUMPDEST PUSH1 0x1 DUP2 ADD SWAP1 POP PUSH2 0x27B2 JUMP JUMPDEST POP POP JUMP JUMPDEST PUSH1 0x1F DUP3 GT ISZERO PUSH2 0x2814 JUMPI PUSH2 0x27E5 DUP2 PUSH2 0x26BF JUMP JUMPDEST PUSH2 0x27EE DUP5 PUSH2 0x26D1 JUMP JUMPDEST DUP2 ADD PUSH1 0x20 DUP6 LT ISZERO PUSH2 0x27FD JUMPI DUP2 SWAP1 POP JUMPDEST PUSH2 0x2811 PUSH2 0x2809 DUP6 PUSH2 0x26D1 JUMP JUMPDEST DUP4 ADD DUP3 PUSH2 0x27B1 JUMP JUMPDEST POP POP JUMPDEST POP POP POP JUMP JUMPDEST PUSH0 DUP3 DUP3 SHR SWAP1 POP SWAP3 SWAP2 POP POP JUMP JUMPDEST PUSH0 PUSH2 0x2834 PUSH0 NOT DUP5 PUSH1 0x8 MUL PUSH2 0x2819 JUMP JUMPDEST NOT DUP1 DUP4 AND SWAP2 POP POP SWAP3 SWAP2 POP POP JUMP JUMPDEST PUSH0 PUSH2 0x284C DUP4 DUP4 PUSH2 0x2825 JUMP JUMPDEST SWAP2 POP DUP3 PUSH1 0x2 MUL DUP3 OR SWAP1 POP SWAP3 SWAP2 POP POP JUMP JUMPDEST PUSH2 0x2865 DUP3 PUSH2 0x1E56 JUMP JUMPDEST PUSH8 0xFFFFFFFFFFFFFFFF DUP2 GT ISZERO PUSH2 0x287E JUMPI PUSH2 0x287D PUSH2 0x1EEE JUMP JUMPDEST JUMPDEST PUSH2 0x2888 DUP3 SLOAD PUSH2 0x24BD JUMP JUMPDEST PUSH2 0x2893 DUP3 DUP3 DUP6 PUSH2 0x27D3 JUMP JUMPDEST PUSH0 PUSH1 0x20 SWAP1 POP PUSH1 0x1F DUP4 GT PUSH1 0x1 DUP2 EQ PUSH2 0x28C4 JUMPI PUSH0 DUP5 ISZERO PUSH2 0x28B2 JUMPI DUP3 DUP8 ADD MLOAD SWAP1 POP JUMPDEST PUSH2 0x28BC DUP6 DUP3 PUSH2 0x2841 JUMP JUMPDEST DUP7 SSTORE POP PUSH2 0x2923 JUMP JUMPDEST PUSH1 0x1F NOT DUP5 AND PUSH2 0x28D2 DUP7 PUSH2 0x26BF JUMP JUMPDEST PUSH0 JUMPDEST DUP3 DUP2 LT ISZERO PUSH2 0x28F9 JUMPI DUP5 DUP10 ADD MLOAD DUP3 SSTORE PUSH1 0x1 DUP3 ADD SWAP2 POP PUSH1 0x20 DUP6 ADD SWAP5 POP PUSH1 0x20 DUP2 ADD SWAP1 POP PUSH2 0x28D4 JUMP JUMPDEST DUP7 DUP4 LT ISZERO PUSH2 0x2916 JUMPI DUP5 DUP10 ADD MLOAD PUSH2 0x2912 PUSH1 0x1F DUP10 AND DUP3 PUSH2 0x2825 JUMP JUMPDEST DUP4 SSTORE POP JUMPDEST PUSH1 0x1 PUSH1 0x2 DUP9 MUL ADD DUP9 SSTORE POP POP POP JUMPDEST POP POP POP POP POP POP JUMP JUMPDEST PUSH0 PUSH1 0x60 DUP3 ADD SWAP1 POP DUP2 DUP2 SUB PUSH0 DUP4 ADD MSTORE PUSH2 0x2943 DUP2 DUP7 PUSH2 0x1E8E JUMP JUMPDEST SWAP1 POP PUSH2 0x2952 PUSH1 0x20 DUP4 ADD DUP6 PUSH2 0x2088 JUMP JUMPDEST DUP2 DUP2 SUB PUSH1 0x40 DUP4 ADD MSTORE PUSH2 0x2964 DUP2 DUP5 PUSH2 0x1E8E JUMP JUMPDEST SWAP1 POP SWAP5 SWAP4 POP POP POP POP JUMP JUMPDEST PUSH0 DUP2 SWAP1 POP SWAP3 SWAP2 POP POP JUMP JUMPDEST PUSH0 DUP2 SWAP1 POP DUP2 PUSH0 MSTORE PUSH1 0x20 PUSH0 KECCAK256 SWAP1 POP SWAP2 SWAP1 POP JUMP JUMPDEST PUSH0 DUP2 SLOAD PUSH2 0x2996 DUP2 PUSH2 0x24BD JUMP JUMPDEST PUSH2 0x29A0 DUP2 DUP7 PUSH2 0x296E JUMP JUMPDEST SWAP5 POP PUSH1 0x1 DUP3 AND PUSH0 DUP2 EQ PUSH2 0x29BA JUMPI PUSH1 0x1 DUP2 EQ PUSH2 0x29CF JUMPI PUSH2 0x2A01 JUMP JUMPDEST PUSH1 0xFF NOT DUP4 AND DUP7 MSTORE DUP2 ISZERO ISZERO DUP3 MUL DUP7 ADD SWAP4 POP PUSH2 0x2A01 JUMP JUMPDEST PUSH2 0x29D8 DUP6 PUSH2 0x2978 JUMP JUMPDEST PUSH0 JUMPDEST DUP4 DUP2 LT ISZERO PUSH2 0x29F9 JUMPI DUP2 SLOAD DUP2 DUP10 ADD MSTORE PUSH1 0x1 DUP3 ADD SWAP2 POP PUSH1 0x20 DUP2 ADD SWAP1 POP PUSH2 0x29DA JUMP JUMPDEST DUP4 DUP9 ADD SWAP6 POP POP POP JUMPDEST POP POP POP SWAP3 SWAP2 POP POP JUMP JUMPDEST PUSH0 PUSH2 0x2A15 DUP3 DUP5 PUSH2 0x298A JUMP JUMPDEST SWAP2 POP DUP2 SWAP1 POP SWAP3 SWAP2 POP POP JUMP JUMPDEST PUSH32 0x526F6C652052657175657374206E6F7420666F756E6400000000000000000000 PUSH0 DUP3 ADD MSTORE POP JUMP JUMPDEST PUSH0 PUSH2 0x2A54 PUSH1 0x16 DUP4 PUSH2 0x1E60 JUMP JUMPDEST SWAP2 POP PUSH2 0x2A5F DUP3 PUSH2 0x2A20 JUMP JUMPDEST PUSH1 0x20 DUP3 ADD SWAP1 POP SWAP2 SWAP1 POP JUMP JUMPDEST PUSH0 PUSH1 0x60 DUP3 ADD SWAP1 POP PUSH2 0x2A7D PUSH0 DUP4 ADD DUP6 PUSH2 0x2088 JUMP JUMPDEST DUP2 DUP2 SUB PUSH1 0x20 DUP4 ADD MSTORE PUSH2 0x2A8E DUP2 PUSH2 0x2A48 JUMP JUMPDEST SWAP1 POP DUP2 DUP2 SUB PUSH1 0x40 DUP4 ADD MSTORE PUSH2 0x2AA2 DUP2 DUP5 PUSH2 0x1E8E JUMP JUMPDEST SWAP1 POP SWAP4 SWAP3 POP POP POP JUMP JUMPDEST PUSH32 0x596F7520646F6E27742068617665207065726D697373696F6E20746F20617070 PUSH0 DUP3 ADD MSTORE PUSH32 0x726F766520746869732072657175657374000000000000000000000000000000 PUSH1 0x20 DUP3 ADD MSTORE POP JUMP JUMPDEST PUSH0 PUSH2 0x2B05 PUSH1 0x31 DUP4 PUSH2 0x1E60 JUMP JUMPDEST SWAP2 POP PUSH2 0x2B10 DUP3 PUSH2 0x2AAB JUMP JUMPDEST PUSH1 0x40 DUP3 ADD SWAP1 POP SWAP2 SWAP1 POP JUMP JUMPDEST PUSH0 PUSH1 0x40 DUP3 ADD SWAP1 POP PUSH2 0x2B2E PUSH0 DUP4 ADD DUP5 PUSH2 0x2088 JUMP JUMPDEST DUP2 DUP2 SUB PUSH1 0x20 DUP4 ADD MSTORE PUSH2 0x2B3F DUP2 PUSH2 0x2AF9 JUMP JUMPDEST SWAP1 POP SWAP3 SWAP2 POP POP JUMP JUMPDEST PUSH32 0x55736572206973206E6F74207265676973746572656400000000000000000000 PUSH0 DUP3 ADD MSTORE POP JUMP JUMPDEST PUSH0 PUSH2 0x2B7B PUSH1 0x16 DUP4 PUSH2 0x1E60 JUMP JUMPDEST SWAP2 POP PUSH2 0x2B86 DUP3 PUSH2 0x2B47 JUMP JUMPDEST PUSH1 0x20 DUP3 ADD SWAP1 POP SWAP2 SWAP1 POP JUMP JUMPDEST PUSH0 PUSH1 0x40 DUP3 ADD SWAP1 POP PUSH2 0x2BA4 PUSH0 DUP4 ADD DUP5 PUSH2 0x2088 JUMP JUMPDEST DUP2 DUP2 SUB PUSH1 0x20 DUP4 ADD MSTORE PUSH2 0x2BB5 DUP2 PUSH2 0x2B6F JUMP JUMPDEST SWAP1 POP SWAP3 SWAP2 POP POP JUMP JUMPDEST PUSH32 0x43616E6E6F742072657175657374206E6F6E6520726F6C650000000000000000 PUSH0 DUP3 ADD MSTORE POP JUMP JUMPDEST PUSH0 PUSH2 0x2BF1 PUSH1 0x18 DUP4 PUSH2 0x1E60 JUMP JUMPDEST SWAP2 POP PUSH2 0x2BFC DUP3 PUSH2 0x2BBD JUMP JUMPDEST PUSH1 0x20 DUP3 ADD SWAP1 POP SWAP2 SWAP1 POP JUMP JUMPDEST PUSH0 PUSH1 0x40 DUP3 ADD SWAP1 POP PUSH2 0x2C1A PUSH0 DUP4 ADD DUP5 PUSH2 0x2088 JUMP JUMPDEST DUP2 DUP2 SUB PUSH1 0x20 DUP4 ADD MSTORE PUSH2 0x2C2B DUP2 PUSH2 0x2BE5 JUMP JUMPDEST SWAP1 POP SWAP3 SWAP2 POP POP JUMP JUMPDEST PUSH2 0x2C3C DUP2 PUSH2 0x21A1 JUMP JUMPDEST DUP3 MSTORE POP POP JUMP JUMPDEST PUSH0 PUSH1 0x60 DUP3 ADD SWAP1 POP DUP2 DUP2 SUB PUSH0 DUP4 ADD MSTORE PUSH2 0x2C5A DUP2 DUP7 PUSH2 0x1E8E JUMP JUMPDEST SWAP1 POP PUSH2 0x2C69 PUSH1 0x20 DUP4 ADD DUP6 PUSH2 0x2088 JUMP JUMPDEST PUSH2 0x2C76 PUSH1 0x40 DUP4 ADD DUP5 PUSH2 0x2C33 JUMP JUMPDEST SWAP5 SWAP4 POP POP POP POP JUMP JUMPDEST PUSH32 0x526F6C65207265717565737420616C726561647920617070726F766564000000 PUSH0 DUP3 ADD MSTORE POP JUMP JUMPDEST PUSH0 PUSH2 0x2CB2 PUSH1 0x1D DUP4 PUSH2 0x1E60 JUMP JUMPDEST SWAP2 POP PUSH2 0x2CBD DUP3 PUSH2 0x2C7E JUMP JUMPDEST PUSH1 0x20 DUP3 ADD SWAP1 POP SWAP2 SWAP1 POP JUMP JUMPDEST PUSH0 PUSH1 0x60 DUP3 ADD SWAP1 POP PUSH2 0x2CDB PUSH0 DUP4 ADD DUP6 PUSH2 0x2088 JUMP JUMPDEST DUP2 DUP2 SUB PUSH1 0x20 DUP4 ADD MSTORE PUSH2 0x2CEC DUP2 PUSH2 0x2CA6 JUMP JUMPDEST SWAP1 POP DUP2 DUP2 SUB PUSH1 0x40 DUP4 ADD MSTORE PUSH2 0x2D00 DUP2 DUP5 PUSH2 0x1E8E JUMP JUMPDEST SWAP1 POP SWAP4 SWAP3 POP POP POP JUMP JUMPDEST PUSH32 0x526F6C65207265717565737420616C72656164792072656A6563746564000000 PUSH0 DUP3 ADD MSTORE POP JUMP JUMPDEST PUSH0 PUSH2 0x2D3D PUSH1 0x1D DUP4 PUSH2 0x1E60 JUMP JUMPDEST SWAP2 POP PUSH2 0x2D48 DUP3 PUSH2 0x2D09 JUMP JUMPDEST PUSH1 0x20 DUP3 ADD SWAP1 POP SWAP2 SWAP1 POP JUMP JUMPDEST PUSH0 PUSH1 0x60 DUP3 ADD SWAP1 POP PUSH2 0x2D66 PUSH0 DUP4 ADD DUP6 PUSH2 0x2088 JUMP JUMPDEST DUP2 DUP2 SUB PUSH1 0x20 DUP4 ADD MSTORE PUSH2 0x2D77 DUP2 PUSH2 0x2D31 JUMP JUMPDEST SWAP1 POP DUP2 DUP2 SUB PUSH1 0x40 DUP4 ADD MSTORE PUSH2 0x2D8B DUP2 DUP5 PUSH2 0x1E8E JUMP JUMPDEST SWAP1 POP SWAP4 SWAP3 POP POP POP JUMP JUMPDEST PUSH32 0x4E487B7100000000000000000000000000000000000000000000000000000000 PUSH0 MSTORE PUSH1 0x11 PUSH1 0x4 MSTORE PUSH1 0x24 PUSH0 REVERT JUMPDEST PUSH0 PUSH2 0x2DCB DUP3 PUSH2 0x1DF8 JUMP JUMPDEST SWAP2 POP PUSH2 0x2DD6 DUP4 PUSH2 0x1DF8 JUMP JUMPDEST SWAP3 POP DUP3 DUP3 ADD SWAP1 POP DUP1 DUP3 GT ISZERO PUSH2 0x2DEE JUMPI PUSH2 0x2DED PUSH2 0x2D94 JUMP JUMPDEST JUMPDEST SWAP3 SWAP2 POP POP JUMP INVALID PUSH2 0x6263 PUSH5 0x6566676869 PUSH11 0x6B6C6D6E6F707172737475 PUSH23 0x7778797A4142434445464748494A4B4C4D4E4F50515253 SLOAD SSTORE JUMP JUMPI PC MSIZE GAS ADDRESS BALANCE ORIGIN CALLER CALLVALUE CALLDATALOAD CALLDATASIZE CALLDATACOPY CODESIZE CODECOPY LOG2 PUSH5 0x6970667358 0x22 SLT KECCAK256 CALLDATASIZE BYTE MCOPY SWAP6 PUSH27 0x3AC30F849A1A01D694C5A41C7B2410CD669C8151A01E3B354AE8D1 PUSH5 0x736F6C6343 STOP ADDMOD NOT STOP CALLER "
				},
				"gasEstimates": {
					"creation": {
						"codeDepositCost": "2376000",
						"executionCost": "infinite",
						"totalCost": "infinite"
					},
					"external": {
						"approveOrRejectRoleRequest(string,bool)": "infinite",
						"createRoleRequest(uint8)": "infinite",
						"createUser(string,string)": "infinite",
						"generateRandomString(uint256)": "infinite",
						"getRoleRequestByIdWithIndex(string)": "infinite",
						"getRoleRequests()": "infinite",
						"isUserRegistered(address)": "3010",
						"owner()": "2604",
						"renounceOwnership()": "infinite",
						"transferOwnership(address)": "infinite"
					},
					"internal": {
						"addRoleToUser(struct Types.RoleRequest memory)": "infinite",
						"checkRoleRequestStatus(struct Types.RoleRequest memory)": "infinite",
						"isApproverHavingPermission(enum Types.Role[] memory,enum Types.Role)": "infinite"
					}
				},
				"methodIdentifiers": {
					"approveOrRejectRoleRequest(string,bool)": "ca9545d3",
					"createRoleRequest(uint8)": "e6d7a289",
					"createUser(string,string)": "87b162b5",
					"generateRandomString(uint256)": "4f7d22e7",
					"getRoleRequestByIdWithIndex(string)": "a8fff057",
					"getRoleRequests()": "f454e5ca",
					"isUserRegistered(address)": "163f7522",
					"owner()": "8da5cb5b",
					"renounceOwnership()": "715018a6",
					"transferOwnership(address)": "f2fde38b"
				}
			},
			"storageLayout": {
				"storage": [
					{
						"astId": 8,
						"contract": "contracts/User/UserRoleRequest.sol:UserRoleRequest",
						"label": "_owner",
						"offset": 0,
						"slot": "0",
						"type": "t_address"
					},
					{
						"astId": 290,
						"contract": "contracts/User/UserRoleRequest.sol:UserRoleRequest",
						"label": "roleRequests",
						"offset": 0,
						"slot": "1",
						"type": "t_array(t_struct(RoleRequest)250_storage)dyn_storage"
					},
					{
						"astId": 295,
						"contract": "contracts/User/UserRoleRequest.sol:UserRoleRequest",
						"label": "users",
						"offset": 0,
						"slot": "2",
						"type": "t_mapping(t_address,t_struct(User)271_storage)"
					}
				],
				"types": {
					"t_address": {
						"encoding": "inplace",
						"label": "address",
						"numberOfBytes": "20"
					},
					"t_array(t_enum(Role)256)dyn_storage": {
						"base": "t_enum(Role)256",
						"encoding": "dynamic_array",
						"label": "enum Types.Role[]",
						"numberOfBytes": "32"
					},
					"t_array(t_struct(RoleRequest)250_storage)dyn_storage": {
						"base": "t_struct(RoleRequest)250_storage",
						"encoding": "dynamic_array",
						"label": "struct Types.RoleRequest[]",
						"numberOfBytes": "32"
					},
					"t_enum(RequestStatus)260": {
						"encoding": "inplace",
						"label": "enum Types.RequestStatus",
						"numberOfBytes": "1"
					},
					"t_enum(Role)256": {
						"encoding": "inplace",
						"label": "enum Types.Role",
						"numberOfBytes": "1"
					},
					"t_mapping(t_address,t_struct(User)271_storage)": {
						"encoding": "mapping",
						"key": "t_address",
						"label": "mapping(address => struct Types.User)",
						"numberOfBytes": "32",
						"value": "t_struct(User)271_storage"
					},
					"t_string_storage": {
						"encoding": "bytes",
						"label": "string",
						"numberOfBytes": "32"
					},
					"t_struct(RoleRequest)250_storage": {
						"encoding": "inplace",
						"label": "struct Types.RoleRequest",
						"members": [
							{
								"astId": 239,
								"contract": "contracts/User/UserRoleRequest.sol:UserRoleRequest",
								"label": "requestId",
								"offset": 0,
								"slot": "0",
								"type": "t_string_storage"
							},
							{
								"astId": 241,
								"contract": "contracts/User/UserRoleRequest.sol:UserRoleRequest",
								"label": "applicantAddress",
								"offset": 0,
								"slot": "1",
								"type": "t_address"
							},
							{
								"astId": 244,
								"contract": "contracts/User/UserRoleRequest.sol:UserRoleRequest",
								"label": "requestedRole",
								"offset": 20,
								"slot": "1",
								"type": "t_enum(Role)256"
							},
							{
								"astId": 247,
								"contract": "contracts/User/UserRoleRequest.sol:UserRoleRequest",
								"label": "requestStatus",
								"offset": 21,
								"slot": "1",
								"type": "t_enum(RequestStatus)260"
							},
							{
								"astId": 249,
								"contract": "contracts/User/UserRoleRequest.sol:UserRoleRequest",
								"label": "approverAddress",
								"offset": 0,
								"slot": "2",
								"type": "t_address"
							}
						],
						"numberOfBytes": "96"
					},
					"t_struct(User)271_storage": {
						"encoding": "inplace",
						"label": "struct Types.User",
						"members": [
							{
								"astId": 262,
								"contract": "contracts/User/UserRoleRequest.sol:UserRoleRequest",
								"label": "userName",
								"offset": 0,
								"slot": "0",
								"type": "t_string_storage"
							},
							{
								"astId": 264,
								"contract": "contracts/User/UserRoleRequest.sol:UserRoleRequest",
								"label": "userAddress",
								"offset": 0,
								"slot": "1",
								"type": "t_address"
							},
							{
								"astId": 266,
								"contract": "contracts/User/UserRoleRequest.sol:UserRoleRequest",
								"label": "geoHash",
								"offset": 0,
								"slot": "2",
								"type": "t_string_storage"
							},
							{
								"astId": 270,
								"contract": "contracts/User/UserRoleRequest.sol:UserRoleRequest",
								"label": "role",
								"offset": 0,
								"slot": "3",
								"type": "t_array(t_enum(Role)256)dyn_storage"
							}
						],
						"numberOfBytes": "128"
					}
				}
			},
			"userdoc": {
				"kind": "user",
				"methods": {},
				"version": 1
			}
		}
	}
}