{
	"data": {
		"bytecode": {
			"linkReferences": {
				"contracts/ServiceRequest/Helpers.sol": {
					"Helpers": [
						{
							"length": 20,
							"start": 11378
						}
					]
				}
			},
			"object": "60c060405234801561000f575f80fd5b5060405161698d38038061698d833981810160405281019061003191906100fe565b8173ffffffffffffffffffffffffffffffffffffffff1660808173ffffffffffffffffffffffffffffffffffffffff16815250508073ffffffffffffffffffffffffffffffffffffffff1660a08173ffffffffffffffffffffffffffffffffffffffff1681525050505061013c565b5f80fd5b5f73ffffffffffffffffffffffffffffffffffffffff82169050919050565b5f6100cd826100a4565b9050919050565b6100dd816100c3565b81146100e7575f80fd5b50565b5f815190506100f8816100d4565b92915050565b5f8060408385031215610114576101136100a0565b5b5f610121858286016100ea565b9250506020610132858286016100ea565b9150509250929050565b60805160a0516168296101645f395f61270501525f8181612621015261278d01526168295ff3fe60806040526004361061009b575f3560e01c80637a335cef116100635780637a335cef14610183578063816c2cb7146101ab5780638879a530146101d3578063c2da97ba146101fd578063c928fd1d14610219578063ef693b98146102415761009b565b806312b28b3c1461009f5780631821fb39146100bb5780635b664fcb146100e3578063750e0abd1461011f5780637a1cf72f14610147575b5f80fd5b6100b960048036038101906100b49190613c27565b610269565b005b3480156100c6575f80fd5b506100e160048036038101906100dc9190613ca4565b610763565b005b3480156100ee575f80fd5b5061010960048036038101906101049190613cfe565b61098b565b6040516101169190614012565b60405180910390f35b34801561012a575f80fd5b5061014560048036038101906101409190613cfe565b610aa4565b005b348015610152575f80fd5b5061016d60048036038101906101689190613cfe565b610be4565b60405161017a9190614281565b60405180910390f35b34801561018e575f80fd5b506101a960048036038101906101a49190613ca4565b6111aa565b005b3480156101b6575f80fd5b506101d160048036038101906101cc9190613cfe565b611782565b005b3480156101de575f80fd5b506101e7611a0f565b6040516101f49190614281565b60405180910390f35b610217600480360381019061021291906144bf565b612026565b005b348015610224575f80fd5b5061023f600480360381019061023a9190614529565b612405565b005b34801561024c575f80fd5b5061026760048036038101906102629190613cfe565b6128a2565b005b335f61027484612aee565b90505f815f015190505f82602001519050670de0b6b3a76400008561029991906145c2565b94505f600a8111156102ae576102ad613e0b565b5b826102200151600a8111156102c6576102c5613e0b565b5b1461030857856040517f67695d970000000000000000000000000000000000000000000000000000000081526004016102ff91906146bb565b60405180910390fd5b816101e00151421061035157856040517faea2ead80000000000000000000000000000000000000000000000000000000081526004016103489190614738565b60405180910390fd5b5f61035b3361301c565b905061036c81846101000151613034565b1580610384575061038281846101200151613034565b155b156103c657866040517f09d8f3d30000000000000000000000000000000000000000000000000000000081526004016103bd91906147db565b60405180910390fd5b670de0b6b3a76400008361014001516103df91906145c2565b341461042257346040517f6189d104000000000000000000000000000000000000000000000000000000008152600401610419919061488d565b60405180910390fd5b5f861115806104645750670de0b6b3a764000083610140015161044591906145c2565b83610160015161045591906148b9565b348761046191906148b9565b10155b156104a657856040517fe71c06bd00000000000000000000000000000000000000000000000000000000815260040161049d9190614936565b60405180910390fd5b5f6001886040516104b7919061499c565b9081526020016040518091039020805480602002602001604051908101604052809291908181526020015f905b8282101561058d578382905f5260205f2090600202016040518060600160405290815f8201548152602001600182015f9054906101000a900473ffffffffffffffffffffffffffffffffffffffff1673ffffffffffffffffffffffffffffffffffffffff1673ffffffffffffffffffffffffffffffffffffffff1681526020016001820160149054906101000a900460ff161515151581525050815260200190600101906104e4565b50505050905061059d3382613107565b5f60405180606001604052808981526020013373ffffffffffffffffffffffffffffffffffffffff1681526020015f151581525090506001896040516105e3919061499c565b908152602001604051809103902081908060018154018082558091505060019003905f5260205f2090600202015f909190919091505f820151815f01556020820151816001015f6101000a81548173ffffffffffffffffffffffffffffffffffffffff021916908373ffffffffffffffffffffffffffffffffffffffff16021790555060408201518160010160146101000a81548160ff021916908315150217905550505084610160015188101561071d57875f85815481106106a9576106a86149b2565b5b905f5260205f209060110201600c0181905550335f85815481106106d0576106cf6149b2565b5b905f5260205f2090601102016010015f6101000a81548173ffffffffffffffffffffffffffffffffffffffff021916908373ffffffffffffffffffffffffffffffffffffffff1602179055505b7fdd9fd5bb4eb2d26bccea7b9f6658c73cb8ff9a8f5c7158eb72845b523213b5de898933604051610750939291906149ee565b60405180910390a1505050505050505050565b5f61076d83612aee565b90505f815f015190505f82602001519050600a8081111561079157610790613e0b565b5b826102200151600a8111156107a9576107a8613e0b565b5b036107eb57846040517f48b3ccec0000000000000000000000000000000000000000000000000000000081526004016107e29190614a9a565b60405180910390fd5b816040015173ffffffffffffffffffffffffffffffffffffffff163373ffffffffffffffffffffffffffffffffffffffff161461085f57846040517f48b3ccec0000000000000000000000000000000000000000000000000000000081526004016108569190614b3d565b60405180910390fd5b6003600a81111561087357610872613e0b565b5b84600a81111561088657610885613e0b565b5b1480156108bc57506002600a8111156108a2576108a1613e0b565b5b826102200151600a8111156108ba576108b9613e0b565b5b145b1561094757835f82815481106108d5576108d46149b2565b5b905f5260205f20906011020160100160146101000a81548160ff0219169083600a81111561090657610905613e0b565b5b02179055507f2d9d560c99c3bc1724fc52a39a33a239e75ef98285e83dfb9aa7c87f6b5b289c8560405161093a9190614be0565b60405180910390a1610984565b846040517f48b3ccec00000000000000000000000000000000000000000000000000000000815260040161097b9190614c83565b60405180910390fd5b5050505050565b6109936139b7565b5f61099d83612aee565b90505f815f015190505f339050816040015173ffffffffffffffffffffffffffffffffffffffff168173ffffffffffffffffffffffffffffffffffffffff161480610a175750816060015173ffffffffffffffffffffffffffffffffffffffff168173ffffffffffffffffffffffffffffffffffffffff16145b80610a52575081610200015173ffffffffffffffffffffffffffffffffffffffff168173ffffffffffffffffffffffffffffffffffffffff16145b15610a6257819350505050610a9f565b846040517f48b3ccec000000000000000000000000000000000000000000000000000000008152600401610a969190614d26565b60405180910390fd5b919050565b335f610aaf83612aee565b90505f815f015190505f826020015190506001600a811115610ad457610ad3613e0b565b5b826102200151600a811115610aec57610aeb613e0b565b5b03610ba057603c5f8281548110610b0657610b056149b2565b5b905f5260205f209060110201600f0154610b2091906145c2565b42610b2b91906148b9565b5f8281548110610b3e57610b3d6149b2565b5b905f5260205f209060110201600f01819055505f808281548110610b6557610b646149b2565b5b905f5260205f20906011020160100160146101000a81548160ff0219169083600a811115610b9657610b95613e0b565b5b0217905550610bdd565b846040517f21a3de0a000000000000000000000000000000000000000000000000000000008152600401610bd49190614dc9565b60405180910390fd5b5050505050565b60605f808054905067ffffffffffffffff811115610c0557610c04613ad0565b5b604051908082528060200260200182016040528015610c3e57816020015b610c2b6139b7565b815260200190600190039081610c235790505b5090505f805b5f805490508110156110f6575f808281548110610c6457610c636149b2565b5b905f5260205f209060110201604051806102400160405290815f82018054610c8b90614e29565b80601f0160208091040260200160405190810160405280929190818152602001828054610cb790614e29565b8015610d025780601f10610cd957610100808354040283529160200191610d02565b820191905f5260205f20905b815481529060010190602001808311610ce557829003601f168201915b50505050508152602001600182018054610d1b90614e29565b80601f0160208091040260200160405190810160405280929190818152602001828054610d4790614e29565b8015610d925780601f10610d6957610100808354040283529160200191610d92565b820191905f5260205f20905b815481529060010190602001808311610d7557829003601f168201915b50505050508152602001600282015f9054906101000a900473ffffffffffffffffffffffffffffffffffffffff1673ffffffffffffffffffffffffffffffffffffffff1673ffffffffffffffffffffffffffffffffffffffff168152602001600382015f9054906101000a900473ffffffffffffffffffffffffffffffffffffffff1673ffffffffffffffffffffffffffffffffffffffff1673ffffffffffffffffffffffffffffffffffffffff16815260200160048201548152602001600582015481526020016006820154815260200160078201548152602001600882018054610e7d90614e29565b80601f0160208091040260200160405190810160405280929190818152602001828054610ea990614e29565b8015610ef45780601f10610ecb57610100808354040283529160200191610ef4565b820191905f5260205f20905b815481529060010190602001808311610ed757829003601f168201915b50505050508152602001600982018054610f0d90614e29565b80601f0160208091040260200160405190810160405280929190818152602001828054610f3990614e29565b8015610f845780601f10610f5b57610100808354040283529160200191610f84565b820191905f5260205f20905b815481529060010190602001808311610f6757829003601f168201915b50505050508152602001600a8201548152602001600b8201548152602001600c8201548152602001600d8201548152602001600e8201548152602001600f8201548152602001601082015f9054906101000a900473ffffffffffffffffffffffffffffffffffffffff1673ffffffffffffffffffffffffffffffffffffffff1673ffffffffffffffffffffffffffffffffffffffff1681526020016010820160149054906101000a900460ff16600a81111561104357611042613e0b565b5b600a81111561105557611054613e0b565b5b8152505090505f600a81111561106e5761106d613e0b565b5b816102200151600a81111561108657611085613e0b565b5b14801561109e575061109d86826101000151613034565b5b80156110b557506110b486826101200151613034565b5b156110e857808484815181106110ce576110cd6149b2565b5b602002602001018190525082806110e490614e59565b9350505b508080600101915050610c44565b505f8167ffffffffffffffff81111561111257611111613ad0565b5b60405190808252806020026020018201604052801561114b57816020015b6111386139b7565b8152602001906001900390816111305790505b5090505f5b8281101561119e5783818151811061116b5761116a6149b2565b5b6020026020010151828281518110611186576111856149b2565b5b60200260200101819052508080600101915050611150565b50809350505050919050565b5f6111b483612aee565b90505f815f015190505f82602001519050600a808111156111d8576111d7613e0b565b5b826102200151600a8111156111f0576111ef613e0b565b5b0361123257846040517f48b3ccec0000000000000000000000000000000000000000000000000000000081526004016112299190614a9a565b60405180910390fd5b81610200015173ffffffffffffffffffffffffffffffffffffffff163373ffffffffffffffffffffffffffffffffffffffff16146112a757846040517f48b3ccec00000000000000000000000000000000000000000000000000000000815260040161129e9190614f10565b60405180910390fd5b6003600a8111156112bb576112ba613e0b565b5b826102200151600a8111156112d3576112d2613e0b565b5b036113cc576004600a8111156112ec576112eb613e0b565b5b84600a8111156112ff576112fe613e0b565b5b0361138a57835f8281548110611318576113176149b2565b5b905f5260205f20906011020160100160146101000a81548160ff0219169083600a81111561134957611348613e0b565b5b02179055507f2d9d560c99c3bc1724fc52a39a33a239e75ef98285e83dfb9aa7c87f6b5b289c8560405161137d9190614be0565b60405180910390a16113c7565b846040517f48b3ccec0000000000000000000000000000000000000000000000000000000081526004016113be9190614fd9565b60405180910390fd5b61177b565b6004600a8111156113e0576113df613e0b565b5b826102200151600a8111156113f8576113f7613e0b565b5b036114f1576005600a81111561141157611410613e0b565b5b84600a81111561142457611423613e0b565b5b036114af57835f828154811061143d5761143c6149b2565b5b905f5260205f20906011020160100160146101000a81548160ff0219169083600a81111561146e5761146d613e0b565b5b02179055507f2d9d560c99c3bc1724fc52a39a33a239e75ef98285e83dfb9aa7c87f6b5b289c856040516114a29190614be0565b60405180910390a16114ec565b846040517f48b3ccec0000000000000000000000000000000000000000000000000000000081526004016114e391906150a2565b60405180910390fd5b61177a565b6005600a81111561150557611504613e0b565b5b826102200151600a81111561151d5761151c613e0b565b5b03611616576006600a81111561153657611535613e0b565b5b84600a81111561154957611548613e0b565b5b036115d457835f8281548110611562576115616149b2565b5b905f5260205f20906011020160100160146101000a81548160ff0219169083600a81111561159357611592613e0b565b5b02179055507f2d9d560c99c3bc1724fc52a39a33a239e75ef98285e83dfb9aa7c87f6b5b289c856040516115c79190614be0565b60405180910390a1611611565b846040517f48b3ccec000000000000000000000000000000000000000000000000000000008152600401611608919061516b565b60405180910390fd5b611779565b6006600a81111561162a57611629613e0b565b5b826102200151600a81111561164257611641613e0b565b5b0361173b576007600a81111561165b5761165a613e0b565b5b84600a81111561166e5761166d613e0b565b5b036116f957835f8281548110611687576116866149b2565b5b905f5260205f20906011020160100160146101000a81548160ff0219169083600a8111156116b8576116b7613e0b565b5b02179055507f2d9d560c99c3bc1724fc52a39a33a239e75ef98285e83dfb9aa7c87f6b5b289c856040516116ec9190614be0565b60405180910390a1611736565b846040517f48b3ccec00000000000000000000000000000000000000000000000000000000815260040161172d9190615234565b60405180910390fd5b611778565b846040517f48b3ccec00000000000000000000000000000000000000000000000000000000815260040161176f9190615323565b60405180910390fd5b5b5b5b5050505050565b5f61178c82612aee565b90505f815f015190505f826020015190506001600a8111156117b1576117b0613e0b565b5b826102200151600a8111156117c9576117c8613e0b565b5b14806117fd57505f600a8111156117e3576117e2613e0b565b5b826102200151600a8111156117fb576117fa613e0b565b5b145b156119cc57816040015173ffffffffffffffffffffffffffffffffffffffff163373ffffffffffffffffffffffffffffffffffffffff161461187657836040517f48b3ccec00000000000000000000000000000000000000000000000000000000815260040161186d91906153c6565b60405180910390fd5b5f73ffffffffffffffffffffffffffffffffffffffff1682610200015173ffffffffffffffffffffffffffffffffffffffff161461194357816101e0015142106119065760025f82815481106118cf576118ce6149b2565b5b905f5260205f20906011020160100160146101000a81548160ff0219169083600a811115611900576118ff613e0b565b5b02179055505b836040517faecff84000000000000000000000000000000000000000000000000000000000815260040161193a9190615469565b60405180910390fd5b600a5f8281548110611958576119576149b2565b5b905f5260205f20906011020160100160146101000a81548160ff0219169083600a81111561198957611988613e0b565b5b02179055507fdfa422881f63493e54ccce54f113252111e0fb2338b99c336496f54c6b5ff7f684336040516119bf92919061549c565b60405180910390a1611a09565b836040517faecff840000000000000000000000000000000000000000000000000000000008152600401611a00919061553a565b60405180910390fd5b50505050565b60605f3390505f808054905067ffffffffffffffff811115611a3457611a33613ad0565b5b604051908082528060200260200182016040528015611a6d57816020015b611a5a6139b7565b815260200190600190039081611a525790505b5090505f805b5f80549050811015611f73575f808281548110611a9357611a926149b2565b5b905f5260205f209060110201604051806102400160405290815f82018054611aba90614e29565b80601f0160208091040260200160405190810160405280929190818152602001828054611ae690614e29565b8015611b315780601f10611b0857610100808354040283529160200191611b31565b820191905f5260205f20905b815481529060010190602001808311611b1457829003601f168201915b50505050508152602001600182018054611b4a90614e29565b80601f0160208091040260200160405190810160405280929190818152602001828054611b7690614e29565b8015611bc15780601f10611b9857610100808354040283529160200191611bc1565b820191905f5260205f20905b815481529060010190602001808311611ba457829003601f168201915b50505050508152602001600282015f9054906101000a900473ffffffffffffffffffffffffffffffffffffffff1673ffffffffffffffffffffffffffffffffffffffff1673ffffffffffffffffffffffffffffffffffffffff168152602001600382015f9054906101000a900473ffffffffffffffffffffffffffffffffffffffff1673ffffffffffffffffffffffffffffffffffffffff1673ffffffffffffffffffffffffffffffffffffffff16815260200160048201548152602001600582015481526020016006820154815260200160078201548152602001600882018054611cac90614e29565b80601f0160208091040260200160405190810160405280929190818152602001828054611cd890614e29565b8015611d235780601f10611cfa57610100808354040283529160200191611d23565b820191905f5260205f20905b815481529060010190602001808311611d0657829003601f168201915b50505050508152602001600982018054611d3c90614e29565b80601f0160208091040260200160405190810160405280929190818152602001828054611d6890614e29565b8015611db35780601f10611d8a57610100808354040283529160200191611db3565b820191905f5260205f20905b815481529060010190602001808311611d9657829003601f168201915b50505050508152602001600a8201548152602001600b8201548152602001600c8201548152602001600d8201548152602001600e8201548152602001600f8201548152602001601082015f9054906101000a900473ffffffffffffffffffffffffffffffffffffffff1673ffffffffffffffffffffffffffffffffffffffff1673ffffffffffffffffffffffffffffffffffffffff1681526020016010820160149054906101000a900460ff16600a811115611e7257611e71613e0b565b5b600a811115611e8457611e83613e0b565b5b8152505090508473ffffffffffffffffffffffffffffffffffffffff16816040015173ffffffffffffffffffffffffffffffffffffffff161480611ef757508473ffffffffffffffffffffffffffffffffffffffff16816060015173ffffffffffffffffffffffffffffffffffffffff16145b80611f3257508473ffffffffffffffffffffffffffffffffffffffff1681610200015173ffffffffffffffffffffffffffffffffffffffff16145b15611f655780848481518110611f4b57611f4a6149b2565b5b60200260200101819052508280611f6190614e59565b9350505b508080600101915050611a73565b505f8167ffffffffffffffff811115611f8f57611f8e613ad0565b5b604051908082528060200260200182016040528015611fc857816020015b611fb56139b7565b815260200190600190039081611fad5790505b5090505f5b8281101561201b57838181518110611fe857611fe76149b2565b5b6020026020010151828281518110612003576120026149b2565b5b60200260200101819052508080600101915050611fcd565b508094505050505090565b8060200151816040015161203a83346131b2565b5f61204560206132ec565b90505f604051806102400160405280838152602001865f01518152602001866020015173ffffffffffffffffffffffffffffffffffffffff168152602001866040015173ffffffffffffffffffffffffffffffffffffffff16815260200186606001518152602001866080015181526020018660a0015181526020018660c0015181526020018660e001518152602001866101000151815260200186610120015181526020013481526020015f8152602001866101400151815260200186610160015181526020015f60018111156121205761211f613e0b565b5b876101a00151600181111561213857612137613e0b565b5b1461214857866101800151612166565b866101800151603c61215a91906145c2565b4261216591906148b9565b5b81526020015f73ffffffffffffffffffffffffffffffffffffffff1681526020015f600181111561219a57612199613e0b565b5b876101a0015160018111156121b2576121b1613e0b565b5b146121be5760016121c0565b5f5b600a8111156121d2576121d1613e0b565b5b81525090505f81908060018154018082558091505060019003905f5260205f2090601102015f909190919091505f820151815f019081612212919061570a565b506020820151816001019081612228919061570a565b506040820151816002015f6101000a81548173ffffffffffffffffffffffffffffffffffffffff021916908373ffffffffffffffffffffffffffffffffffffffff1602179055506060820151816003015f6101000a81548173ffffffffffffffffffffffffffffffffffffffff021916908373ffffffffffffffffffffffffffffffffffffffff1602179055506080820151816004015560a0820151816005015560c0820151816006015560e082015181600701556101008201518160080190816122f3919061570a565b5061012082015181600901908161230a919061570a565b5061014082015181600a015561016082015181600b015561018082015181600c01556101a082015181600d01556101c082015181600e01556101e082015181600f0155610200820151816010015f6101000a81548173ffffffffffffffffffffffffffffffffffffffff021916908373ffffffffffffffffffffffffffffffffffffffff1602179055506102208201518160100160146101000a81548160ff0219169083600a8111156123c0576123bf613e0b565b5b021790555050507f34a186fe574eaf2c1bb47b901fc1f8227ebc865ef86fabe03fde6b4ab5dfe550816040516123f69190615849565b60405180910390a15050505050565b5f61240f84612aee565b90505f815f015190505f82602001519050816060015173ffffffffffffffffffffffffffffffffffffffff163373ffffffffffffffffffffffffffffffffffffffff161461249457856040517f48b3ccec00000000000000000000000000000000000000000000000000000000815260040161248b91906158ec565b60405180910390fd5b600a808111156124a7576124a6613e0b565b5b826102200151600a8111156124bf576124be613e0b565b5b0361250157856040517f48b3ccec0000000000000000000000000000000000000000000000000000000081526004016124f89190614a9a565b60405180910390fd5b6008600a81111561251557612514613e0b565b5b85600a81111561252857612527613e0b565b5b0361285d576007600a81111561254157612540613e0b565b5b826102200151600a81111561255957612558613e0b565b5b1461259b57856040517f48b3ccec00000000000000000000000000000000000000000000000000000000815260040161259291906159b5565b60405180910390fd5b5f60018111156125ae576125ad613e0b565b5b8460018111156125c1576125c0613e0b565b5b036126b857845f82815481106125da576125d96149b2565b5b905f5260205f20906011020160100160146101000a81548160ff0219169083600a81111561260b5761260a613e0b565b5b021790555061261f8683610200015161341e565b7f000000000000000000000000000000000000000000000000000000000000000073ffffffffffffffffffffffffffffffffffffffff1663486590978361020001518461014001515f6040518463ffffffff1660e01b815260040161268693929190615a2e565b5f604051808303815f87803b15801561269d575f80fd5b505af11580156126af573d5f803e3d5ffd5b50505050612821565b60095f82815481106126cd576126cc6149b2565b5b905f5260205f20906011020160100160146101000a81548160ff0219169083600a8111156126fe576126fd613e0b565b5b02179055507f000000000000000000000000000000000000000000000000000000000000000073ffffffffffffffffffffffffffffffffffffffff166377e6b3d830846040518363ffffffff1660e01b815260040161275e929190615a63565b5f604051808303815f87803b158015612775575f80fd5b505af1158015612787573d5f803e3d5ffd5b505050507f000000000000000000000000000000000000000000000000000000000000000073ffffffffffffffffffffffffffffffffffffffff16634865909783610200015184610140015160016040518463ffffffff1660e01b81526004016127f393929190615a2e565b5f604051808303815f87803b15801561280a575f80fd5b505af115801561281c573d5f803e3d5ffd5b505050505b7f2d9d560c99c3bc1724fc52a39a33a239e75ef98285e83dfb9aa7c87f6b5b289c866040516128509190614be0565b60405180910390a161289a565b856040517f48b3ccec0000000000000000000000000000000000000000000000000000000081526004016128919190615b01565b60405180910390fd5b505050505050565b335f6128ad83612aee565b90505f815f015190505f82602001519050600a808111156128d1576128d0613e0b565b5b826102200151600a8111156128e9576128e8613e0b565b5b0361292b57846040517f48b3ccec0000000000000000000000000000000000000000000000000000000081526004016129229190614a9a565b60405180910390fd5b816101e00151421161297457846040517f94ee0a3b00000000000000000000000000000000000000000000000000000000815260040161296b9190615b7e565b60405180910390fd5b5f73ffffffffffffffffffffffffffffffffffffffff1682610200015173ffffffffffffffffffffffffffffffffffffffff1603612a1c5761012c426129ba91906148b9565b5f82815481106129cd576129cc6149b2565b5b905f5260205f209060110201600f01819055507f6ffa02c8bc6683d2c360fe816f622f01283f39ff12e8c01bedfc43b76147c02985604051612a0f9190615c21565b60405180910390a1612ae7565b3373ffffffffffffffffffffffffffffffffffffffff1682610200015173ffffffffffffffffffffffffffffffffffffffff1603612adb5760025f8281548110612a6957612a686149b2565b5b905f5260205f20906011020160100160146101000a81548160ff0219169083600a811115612a9a57612a99613e0b565b5b02179055507fa7bbb94eb5775b8d566c1a849897a78fc3d480884f8e1339e4b72349b9058ebe85604051612ace9190615c9e565b60405180910390a1612ae6565b612ae5853361341e565b5b5b5050505050565b612af6613a88565b612afe613a88565b5f5b5f80549050811015612fd95773__$05822db802f7386a4644ce29eb4d184cd5$__63bed34bba5f8381548110612b3957612b386149b2565b5b905f5260205f2090601102015f01866040518363ffffffff1660e01b8152600401612b65929190615d9a565b602060405180830381865af4158015612b80573d5f803e3d5ffd5b505050506040513d601f19601f82011682018060405250810190612ba49190615e04565b15612fcc575f8181548110612bbc57612bbb6149b2565b5b905f5260205f209060110201604051806102400160405290815f82018054612be390614e29565b80601f0160208091040260200160405190810160405280929190818152602001828054612c0f90614e29565b8015612c5a5780601f10612c3157610100808354040283529160200191612c5a565b820191905f5260205f20905b815481529060010190602001808311612c3d57829003601f168201915b50505050508152602001600182018054612c7390614e29565b80601f0160208091040260200160405190810160405280929190818152602001828054612c9f90614e29565b8015612cea5780601f10612cc157610100808354040283529160200191612cea565b820191905f5260205f20905b815481529060010190602001808311612ccd57829003601f168201915b50505050508152602001600282015f9054906101000a900473ffffffffffffffffffffffffffffffffffffffff1673ffffffffffffffffffffffffffffffffffffffff1673ffffffffffffffffffffffffffffffffffffffff168152602001600382015f9054906101000a900473ffffffffffffffffffffffffffffffffffffffff1673ffffffffffffffffffffffffffffffffffffffff1673ffffffffffffffffffffffffffffffffffffffff16815260200160048201548152602001600582015481526020016006820154815260200160078201548152602001600882018054612dd590614e29565b80601f0160208091040260200160405190810160405280929190818152602001828054612e0190614e29565b8015612e4c5780601f10612e2357610100808354040283529160200191612e4c565b820191905f5260205f20905b815481529060010190602001808311612e2f57829003601f168201915b50505050508152602001600982018054612e6590614e29565b80601f0160208091040260200160405190810160405280929190818152602001828054612e9190614e29565b8015612edc5780601f10612eb357610100808354040283529160200191612edc565b820191905f5260205f20905b815481529060010190602001808311612ebf57829003601f168201915b50505050508152602001600a8201548152602001600b8201548152602001600c8201548152602001600d8201548152602001600e8201548152602001600f8201548152602001601082015f9054906101000a900473ffffffffffffffffffffffffffffffffffffffff1673ffffffffffffffffffffffffffffffffffffffff1673ffffffffffffffffffffffffffffffffffffffff1681526020016010820160149054906101000a900460ff16600a811115612f9b57612f9a613e0b565b5b600a811115612fad57612fac613e0b565b5b81525050825f0181905250808260200181815250508192505050613017565b8080600101915050612b00565b50826040517f0972acef00000000000000000000000000000000000000000000000000000000815260040161300e9190615e79565b60405180910390fd5b919050565b606060405180602001604052805f8152509050919050565b5f808390505f839050805182511115613051575f92505050613101565b5f5b82518110156130f95781818151811061306f5761306e6149b2565b5b602001015160f81c60f81b7effffffffffffffffffffffffffffffffffffffffffffffffffffffffffffff19168382815181106130af576130ae6149b2565b5b602001015160f81c60f81b7effffffffffffffffffffffffffffffffffffffffffffffffffffffffffffff1916146130ec575f9350505050613101565b8080600101915050613053565b506001925050505b92915050565b5f5b81518110156131ad578273ffffffffffffffffffffffffffffffffffffffff1682828151811061313c5761313b6149b2565b5b60200260200101516020015173ffffffffffffffffffffffffffffffffffffffff16036131a057826040517f0c5f8cad0000000000000000000000000000000000000000000000000000000081526004016131979190615f1c565b60405180910390fd5b8080600101915050613109565b505050565b5f825f015151036131fd57815f01516040517ff65392f50000000000000000000000000000000000000000000000000000000081526004016131f49190615f92565b60405180910390fd5b61320f82606001518360800151613764565b6132218260a001518360c00151613764565b61322e8260e0015161385a565b61323c82610100015161385a565b5f8261012001510361328a578161012001516040517f80f71e12000000000000000000000000000000000000000000000000000000008152600401613281919061600f565b60405180910390fd5b5f81036132ce57806040517f80f71e120000000000000000000000000000000000000000000000000000000081526004016132c59190616085565b60405180910390fd5b6132e88261014001518361016001518461018001516138a2565b5050565b60605f6040518060600160405280603e81526020016167b6603e913990505f8367ffffffffffffffff81111561332557613324613ad0565b5b6040519080825280601f01601f1916602001820160405280156133575781602001600182028036833780820191505090505b5090505f825190505f5b85811015613412575f8242434084604051602001613381939291906160fa565b604051602081830303815290604052805190602001205f1c6133a39190616163565b90508481815181106133b8576133b76149b2565b5b602001015160f81c60f81b8483815181106133d6576133d56149b2565b5b60200101907effffffffffffffffffffffffffffffffffffffffffffffffffffffffffffff191690815f1a905350508080600101915050613361565b50819350505050919050565b5f60018360405161342f919061499c565b9081526020016040518091039020805480602002602001604051908101604052809291908181526020015f905b82821015613505578382905f5260205f2090600202016040518060600160405290815f8201548152602001600182015f9054906101000a900473ffffffffffffffffffffffffffffffffffffffff1673ffffffffffffffffffffffffffffffffffffffff1673ffffffffffffffffffffffffffffffffffffffff1681526020016001820160149054906101000a900460ff1615151515815250508152602001906001019061345c565b5050505090505f5b8151811015613722578273ffffffffffffffffffffffffffffffffffffffff168282815181106135405761353f6149b2565b5b60200260200101516020015173ffffffffffffffffffffffffffffffffffffffff16036137155781818151811061357a576135796149b2565b5b6020026020010151604001516136d6577fa7bbb94eb5775b8d566c1a849897a78fc3d480884f8e1339e4b72349b9058ebe846040516135b991906161dd565b60405180910390a1600180856040516135d2919061499c565b908152602001604051809103902082815481106135f2576135f16149b2565b5b905f5260205f20906002020160010160146101000a81548160ff0219169083151502179055508273ffffffffffffffffffffffffffffffffffffffff166108fc838381518110613645576136446149b2565b5b60200260200101515f015190811502906040515f60405180830381858888f19350505050158015613678573d5f803e3d5ffd5b507f678d68581a81feb175eaa0f9b062dfeb248ff5b449035eb26079ca96c696458f30848484815181106136af576136ae6149b2565b5b60200260200101515f01516040516136c993929190616210565b60405180910390a161370e565b7fa7bbb94eb5775b8d566c1a849897a78fc3d480884f8e1339e4b72349b9058ebe8460405161370591906162b5565b60405180910390a15b5050613760565b808060010191505061350d565b50826040517f48b3ccec0000000000000000000000000000000000000000000000000000000081526004016137579190616358565b60405180910390fd5b5050565b7ffffffffffffffffffffffffffffffffffffffffffffffffff3828ec4b62600008212806137995750670c7d713b49da000082135b156137dd5781816040517fde0e81dd0000000000000000000000000000000000000000000000000000000081526004016137d49291906163e4565b60405180910390fd5b7fffffffffffffffffffffffffffffffffffffffffffffffffe7051d896c4c000081128061381257506718fae27693b4000081135b156138565781816040517fde0e81dd00000000000000000000000000000000000000000000000000000000815260040161384d92919061648e565b60405180910390fd5b5050565b5f81510361389f57806040517f8b677a5c0000000000000000000000000000000000000000000000000000000081526004016138969190616512565b60405180910390fd5b50565b5f81116138e657806040517f11a242af0000000000000000000000000000000000000000000000000000000081526004016138dd91906165b5565b60405180910390fd5b42831161392a57826040517f11a242af0000000000000000000000000000000000000000000000000000000081526004016139219190616651565b60405180910390fd5b42821161396e57816040517f11a242af00000000000000000000000000000000000000000000000000000000815260040161396591906166ed565b60405180910390fd5b8282116139b257816040517f11a242af0000000000000000000000000000000000000000000000000000000081526004016139a99190616789565b60405180910390fd5b505050565b60405180610240016040528060608152602001606081526020015f73ffffffffffffffffffffffffffffffffffffffff1681526020015f73ffffffffffffffffffffffffffffffffffffffff1681526020015f81526020015f81526020015f81526020015f815260200160608152602001606081526020015f81526020015f81526020015f81526020015f81526020015f81526020015f81526020015f73ffffffffffffffffffffffffffffffffffffffff1681526020015f600a811115613a8257613a81613e0b565b5b81525090565b6040518060400160405280613a9b6139b7565b81526020015f81525090565b5f604051905090565b5f80fd5b5f80fd5b5f80fd5b5f80fd5b5f601f19601f8301169050919050565b7f4e487b71000000000000000000000000000000000000000000000000000000005f52604160045260245ffd5b613b0682613ac0565b810181811067ffffffffffffffff82111715613b2557613b24613ad0565b5b80604052505050565b5f613b37613aa7565b9050613b438282613afd565b919050565b5f67ffffffffffffffff821115613b6257613b61613ad0565b5b613b6b82613ac0565b9050602081019050919050565b828183375f83830152505050565b5f613b98613b9384613b48565b613b2e565b905082815260208101848484011115613bb457613bb3613abc565b5b613bbf848285613b78565b509392505050565b5f82601f830112613bdb57613bda613ab8565b5b8135613beb848260208601613b86565b91505092915050565b5f819050919050565b613c0681613bf4565b8114613c10575f80fd5b50565b5f81359050613c2181613bfd565b92915050565b5f8060408385031215613c3d57613c3c613ab0565b5b5f83013567ffffffffffffffff811115613c5a57613c59613ab4565b5b613c6685828601613bc7565b9250506020613c7785828601613c13565b9150509250929050565b600b8110613c8d575f80fd5b50565b5f81359050613c9e81613c81565b92915050565b5f8060408385031215613cba57613cb9613ab0565b5b5f83013567ffffffffffffffff811115613cd757613cd6613ab4565b5b613ce385828601613bc7565b9250506020613cf485828601613c90565b9150509250929050565b5f60208284031215613d1357613d12613ab0565b5b5f82013567ffffffffffffffff811115613d3057613d2f613ab4565b5b613d3c84828501613bc7565b91505092915050565b5f81519050919050565b5f82825260208201905092915050565b8281835e5f83830152505050565b5f613d7782613d45565b613d818185613d4f565b9350613d91818560208601613d5f565b613d9a81613ac0565b840191505092915050565b5f73ffffffffffffffffffffffffffffffffffffffff82169050919050565b5f613dce82613da5565b9050919050565b613dde81613dc4565b82525050565b5f819050919050565b613df681613de4565b82525050565b613e0581613bf4565b82525050565b7f4e487b71000000000000000000000000000000000000000000000000000000005f52602160045260245ffd5b600b8110613e4957613e48613e0b565b5b50565b5f819050613e5982613e38565b919050565b5f613e6882613e4c565b9050919050565b613e7881613e5e565b82525050565b5f61024083015f8301518482035f860152613e998282613d6d565b91505060208301518482036020860152613eb38282613d6d565b9150506040830151613ec86040860182613dd5565b506060830151613edb6060860182613dd5565b506080830151613eee6080860182613ded565b5060a0830151613f0160a0860182613ded565b5060c0830151613f1460c0860182613ded565b5060e0830151613f2760e0860182613ded565b50610100830151848203610100860152613f418282613d6d565b915050610120830151848203610120860152613f5d8282613d6d565b915050610140830151613f74610140860182613dfc565b50610160830151613f89610160860182613dfc565b50610180830151613f9e610180860182613dfc565b506101a0830151613fb36101a0860182613dfc565b506101c0830151613fc86101c0860182613dfc565b506101e0830151613fdd6101e0860182613dfc565b50610200830151613ff2610200860182613dd5565b50610220830151614007610220860182613e6f565b508091505092915050565b5f6020820190508181035f83015261402a8184613e7e565b905092915050565b5f81519050919050565b5f82825260208201905092915050565b5f819050602082019050919050565b5f61024083015f8301518482035f8601526140768282613d6d565b915050602083015184820360208601526140908282613d6d565b91505060408301516140a56040860182613dd5565b5060608301516140b86060860182613dd5565b5060808301516140cb6080860182613ded565b5060a08301516140de60a0860182613ded565b5060c08301516140f160c0860182613ded565b5060e083015161410460e0860182613ded565b5061010083015184820361010086015261411e8282613d6d565b91505061012083015184820361012086015261413a8282613d6d565b915050610140830151614151610140860182613dfc565b50610160830151614166610160860182613dfc565b5061018083015161417b610180860182613dfc565b506101a08301516141906101a0860182613dfc565b506101c08301516141a56101c0860182613dfc565b506101e08301516141ba6101e0860182613dfc565b506102008301516141cf610200860182613dd5565b506102208301516141e4610220860182613e6f565b508091505092915050565b5f6141fa838361405b565b905092915050565b5f602082019050919050565b5f61421882614032565b614222818561403c565b9350836020820285016142348561404c565b805f5b8581101561426f578484038952815161425085826141ef565b945061425b83614202565b925060208a01995050600181019050614237565b50829750879550505050505092915050565b5f6020820190508181035f830152614299818461420e565b905092915050565b5f80fd5b5f80fd5b6142b281613dc4565b81146142bc575f80fd5b50565b5f813590506142cd816142a9565b92915050565b6142dc81613de4565b81146142e6575f80fd5b50565b5f813590506142f7816142d3565b92915050565b60028110614309575f80fd5b50565b5f8135905061431a816142fd565b92915050565b5f6101c08284031215614336576143356142a1565b5b6143416101c0613b2e565b90505f82013567ffffffffffffffff8111156143605761435f6142a5565b5b61436c84828501613bc7565b5f83015250602061437f848285016142bf565b6020830152506040614393848285016142bf565b60408301525060606143a7848285016142e9565b60608301525060806143bb848285016142e9565b60808301525060a06143cf848285016142e9565b60a08301525060c06143e3848285016142e9565b60c08301525060e082013567ffffffffffffffff811115614407576144066142a5565b5b61441384828501613bc7565b60e08301525061010082013567ffffffffffffffff811115614438576144376142a5565b5b61444484828501613bc7565b6101008301525061012061445a84828501613c13565b6101208301525061014061447084828501613c13565b6101408301525061016061448684828501613c13565b6101608301525061018061449c84828501613c13565b610180830152506101a06144b28482850161430c565b6101a08301525092915050565b5f602082840312156144d4576144d3613ab0565b5b5f82013567ffffffffffffffff8111156144f1576144f0613ab4565b5b6144fd84828501614320565b91505092915050565b60028110614512575f80fd5b50565b5f8135905061452381614506565b92915050565b5f805f606084860312156145405761453f613ab0565b5b5f84013567ffffffffffffffff81111561455d5761455c613ab4565b5b61456986828701613bc7565b935050602061457a86828701613c90565b925050604061458b86828701614515565b9150509250925092565b7f4e487b71000000000000000000000000000000000000000000000000000000005f52601160045260245ffd5b5f6145cc82613bf4565b91506145d783613bf4565b92508282026145e581613bf4565b915082820484148315176145fc576145fb614595565b5b5092915050565b5f82825260208201905092915050565b5f61461d82613d45565b6146278185614603565b9350614637818560208601613d5f565b61464081613ac0565b840191505092915050565b7f536572766963652072657175657374206973206e6f7420696e2061756374696f5f8201527f6e207269676874206e6f77000000000000000000000000000000000000000000602082015250565b5f6146a5602b83614603565b91506146b08261464b565b604082019050919050565b5f6040820190508181035f8301526146d38184614613565b905081810360208301526146e681614699565b905092915050565b7f41756374696f6e20656e64656420616c726561647900000000000000000000005f82015250565b5f614722601583614603565b915061472d826146ee565b602082019050919050565b5f6040820190508181035f8301526147508184614613565b9050818103602083015261476381614716565b905092915050565b7f536572766963652072657175657374206e6f7420696e20796f757220726567695f8201527f6f6e000000000000000000000000000000000000000000000000000000000000602082015250565b5f6147c5602283614603565b91506147d08261476b565b604082019050919050565b5f6040820190508181035f8301526147f38184614613565b90508181036020830152614806816147b9565b905092915050565b61481781613bf4565b82525050565b7f506c656173652073656e642076616c696420636172676f20696e73757261626c5f8201527f652076616c756500000000000000000000000000000000000000000000000000602082015250565b5f614877602783614603565b91506148828261481d565b604082019050919050565b5f6040820190506148a05f83018461480e565b81810360208301526148b18161486b565b905092915050565b5f6148c382613bf4565b91506148ce83613bf4565b92508282019050808211156148e6576148e5614595565b5b92915050565b7f506c656173652073656e642076616c69642073657276696365206665650000005f82015250565b5f614920601d83614603565b915061492b826148ec565b602082019050919050565b5f6040820190506149495f83018461480e565b818103602083015261495a81614914565b905092915050565b5f81905092915050565b5f61497682613d45565b6149808185614962565b9350614990818560208601613d5f565b80840191505092915050565b5f6149a7828461496c565b915081905092915050565b7f4e487b71000000000000000000000000000000000000000000000000000000005f52603260045260245ffd5b6149e881613dc4565b82525050565b5f6060820190508181035f830152614a068186614613565b9050614a15602083018561480e565b614a2260408301846149df565b949350505050565b7f53657276696365207265717565737420697320616c72656164792063616e63655f8201527f6c6c656400000000000000000000000000000000000000000000000000000000602082015250565b5f614a84602483614603565b9150614a8f82614a2a565b604082019050919050565b5f6040820190508181035f830152614ab28184614613565b90508181036020830152614ac581614a78565b905092915050565b7f4f6e6c7920736869707065722063616e207570646174652074686520737461745f8201527f7573000000000000000000000000000000000000000000000000000000000000602082015250565b5f614b27602283614603565b9150614b3282614acd565b604082019050919050565b5f6040820190508181035f830152614b558184614613565b90508181036020830152614b6881614b1b565b905092915050565b7f55706461746564207365727669636520726571756573742073756363657373665f8201527f756c6c7900000000000000000000000000000000000000000000000000000000602082015250565b5f614bca602483614603565b9150614bd582614b70565b604082019050919050565b5f6040820190508181035f830152614bf88184614613565b90508181036020830152614c0b81614bbe565b905092915050565b7f52454144595f464f525f5049434b55502043616e206f6e6c79206265207570645f8201527f61746564206f6e6365206472697665722069732061737369676e656400000000602082015250565b5f614c6d603c83614603565b9150614c7882614c13565b604082019050919050565b5f6040820190508181035f830152614c9b8184614613565b90508181036020830152614cae81614c61565b905092915050565b7f596f7520646f6e277420686176652061636365737320746f20766965772073655f8201527f7276696365207265717565737420696e666f0000000000000000000000000000602082015250565b5f614d10603283614603565b9150614d1b82614cb6565b604082019050919050565b5f6040820190508181035f830152614d3e8184614613565b90508181036020830152614d5181614d04565b905092915050565b7f536572766963652052657175657374206973206e6f7420696e204452414654205f8201527f7374617475730000000000000000000000000000000000000000000000000000602082015250565b5f614db3602683614603565b9150614dbe82614d59565b604082019050919050565b5f6040820190508181035f830152614de18184614613565b90508181036020830152614df481614da7565b905092915050565b7f4e487b71000000000000000000000000000000000000000000000000000000005f52602260045260245ffd5b5f6002820490506001821680614e4057607f821691505b602082108103614e5357614e52614dfc565b5b50919050565b5f614e6382613bf4565b91507fffffffffffffffffffffffffffffffffffffffffffffffffffffffffffffffff8203614e9557614e94614595565b5b600182019050919050565b7f4f6e6c792061737369676e6564206472697665722063616e20757064617465205f8201527f7468652073746174757300000000000000000000000000000000000000000000602082015250565b5f614efa602a83614603565b9150614f0582614ea0565b604082019050919050565b5f6040820190508181035f830152614f288184614613565b90508181036020830152614f3b81614eee565b905092915050565b7f4452495645525f415252495645445f41545f4f524947494e20737461747573205f8201527f63616e206f6e6c792062652075706461746564207768656e2052454144595f4660208201527f4f525f5049434b55502073746174757300000000000000000000000000000000604082015250565b5f614fc3605083614603565b9150614fce82614f43565b606082019050919050565b5f6040820190508181035f830152614ff18184614613565b9050818103602083015261500481614fb7565b905092915050565b7f50415243454c5f5049434b45445f5550207374617475732063616e206f6e6c795f8201527f2062652075706461746564207768656e204452495645525f415252495645445f60208201527f41545f4f524947494e2073746174757300000000000000000000000000000000604082015250565b5f61508c605083614603565b91506150978261500c565b606082019050919050565b5f6040820190508181035f8301526150ba8184614613565b905081810360208301526150cd81615080565b905092915050565b7f4f55545f464f525f44454c4956455259207374617475732063616e206f6e6c795f8201527f2062652075706461746564207768656e2050415243454c5f5049434b45445f5560208201527f5020737461747573000000000000000000000000000000000000000000000000604082015250565b5f615155604883614603565b9150615160826150d5565b606082019050919050565b5f6040820190508181035f8301526151838184614613565b9050818103602083015261519681615149565b905092915050565b7f4452495645525f415252495645445f41545f44455354494e4154494f4e2073745f8201527f617475732063616e206f6e6c792062652075706461746564207768656e204f5560208201527f545f464f525f44454c4956455259207374617475730000000000000000000000604082015250565b5f61521e605583614603565b91506152298261519e565b606082019050919050565b5f6040820190508181035f83015261524c8184614613565b9050818103602083015261525f81615212565b905092915050565b7f4472697665722063616e206f6e6c792075706461746520737461747573203a205f8201527f4452495645525f415252495645445f41545f4f524947494e2c2050415243454c60208201527f5f5049434b45445f55502c204f55545f464f525f44454c49564552592c20445260408201527f495645525f415252495645445f41545f44455354494e4154494f4e0000000000606082015250565b5f61530d607b83614603565b915061531882615267565b608082019050919050565b5f6040820190508181035f83015261533b8184614613565b9050818103602083015261534e81615301565b905092915050565b7f4f6e6c7920736869707065722063616e2063616e63656c6c65642074686520735f8201527f6572766963652072657175657374000000000000000000000000000000000000602082015250565b5f6153b0602e83614603565b91506153bb82615356565b604082019050919050565b5f6040820190508181035f8301526153de8184614613565b905081810360208301526153f1816153a4565b905092915050565b7f5365727669636520726571756573742063616e6e6f742062652063616e63656c5f8201527f6c65642c206173206472697665722069732061737369676e6564000000000000602082015250565b5f615453603a83614603565b915061545e826153f9565b604082019050919050565b5f6040820190508181035f8301526154818184614613565b9050818103602083015261549481615447565b905092915050565b5f6040820190508181035f8301526154b48185614613565b90506154c360208301846149df565b9392505050565b7f5365727669636520726571756573742063616e6e6f742062652063616e63656c5f8201527f6c65640000000000000000000000000000000000000000000000000000000000602082015250565b5f615524602383614603565b915061552f826154ca565b604082019050919050565b5f6040820190508181035f8301526155528184614613565b9050818103602083015261556581615518565b905092915050565b5f819050815f5260205f209050919050565b5f6020601f8301049050919050565b5f82821b905092915050565b5f600883026155c97fffffffffffffffffffffffffffffffffffffffffffffffffffffffffffffffff8261558e565b6155d3868361558e565b95508019841693508086168417925050509392505050565b5f819050919050565b5f61560e61560961560484613bf4565b6155eb565b613bf4565b9050919050565b5f819050919050565b615627836155f4565b61563b61563382615615565b84845461559a565b825550505050565b5f90565b61564f615643565b61565a81848461561e565b505050565b5b8181101561567d576156725f82615647565b600181019050615660565b5050565b601f8211156156c2576156938161556d565b61569c8461557f565b810160208510156156ab578190505b6156bf6156b78561557f565b83018261565f565b50505b505050565b5f82821c905092915050565b5f6156e25f19846008026156c7565b1980831691505092915050565b5f6156fa83836156d3565b9150826002028217905092915050565b61571382613d45565b67ffffffffffffffff81111561572c5761572b613ad0565b5b6157368254614e29565b615741828285615681565b5f60209050601f831160018114615772575f8415615760578287015190505b61576a85826156ef565b8655506157d1565b601f1984166157808661556d565b5f5b828110156157a757848901518255600182019150602085019450602081019050615782565b868310156157c457848901516157c0601f8916826156d3565b8355505b6001600288020188555050505b505050505050565b7f53657276696365205265717565737420637265617465642073756363657373665f8201527f756c6c7900000000000000000000000000000000000000000000000000000000602082015250565b5f615833602483614603565b915061583e826157d9565b604082019050919050565b5f6040820190508181035f8301526158618184613e7e565b9050818103602083015261587481615827565b905092915050565b7f4f6e6c792072656365697665722063616e2075706461746520746865207374615f8201527f7475730000000000000000000000000000000000000000000000000000000000602082015250565b5f6158d6602383614603565b91506158e18261587c565b604082019050919050565b5f6040820190508181035f8301526159048184614613565b90508181036020830152615917816158ca565b905092915050565b7f44726976657220686173206e6f7420726561636865642061742064657374696e5f8201527f6174696f6e207965742c2063616e6e6f7420757064617465207374617475732060208201527f746f2044454c4956455245440000000000000000000000000000000000000000604082015250565b5f61599f604c83614603565b91506159aa8261591f565b606082019050919050565b5f6040820190508181035f8301526159cd8184614613565b905081810360208301526159e081615993565b905092915050565b600281106159f9576159f8613e0b565b5b50565b5f819050615a09826159e8565b919050565b5f615a18826159fc565b9050919050565b615a2881615a0e565b82525050565b5f606082019050615a415f8301866149df565b615a4e602083018561480e565b615a5b6040830184615a1f565b949350505050565b5f604082019050615a765f8301856149df565b8181036020830152615a888184613e7e565b90509392505050565b7f52656365697665722063616e206f6e6c792075706461746520737461747573205f8201527f3a2044454c495645524544000000000000000000000000000000000000000000602082015250565b5f615aeb602b83614603565b9150615af682615a91565b604082019050919050565b5f6040820190508181035f830152615b198184614613565b90508181036020830152615b2c81615adf565b905092915050565b7f41756374696f6e207374696c6c20696e70726f677265737300000000000000005f82015250565b5f615b68601883614603565b9150615b7382615b34565b602082019050919050565b5f6040820190508181035f830152615b968184614613565b90508181036020830152615ba981615b5c565b905092915050565b7f496e637265617365642061756374696f6e2074696d6520666f722073657276695f8201527f636520726571756573742062792035206d696e75746573000000000000000000602082015250565b5f615c0b603783614603565b9150615c1682615bb1565b604082019050919050565b5f6040820190508181035f830152615c398184614613565b90508181036020830152615c4c81615bff565b905092915050565b7f596f75206861766520776f6e207468652061756374696f6e00000000000000005f82015250565b5f615c88601883614603565b9150615c9382615c54565b602082019050919050565b5f6040820190508181035f830152615cb68184614613565b90508181036020830152615cc981615c7c565b905092915050565b5f82825260208201905092915050565b5f8154615ced81614e29565b615cf78186615cd1565b9450600182165f8114615d115760018114615d2757615d59565b60ff198316865281151560200286019350615d59565b615d308561556d565b5f5b83811015615d5157815481890152600182019150602081019050615d32565b808801955050505b50505092915050565b5f615d6c82613d45565b615d768185615cd1565b9350615d86818560208601613d5f565b615d8f81613ac0565b840191505092915050565b5f6040820190508181035f830152615db28185615ce1565b90508181036020830152615dc68184615d62565b90509392505050565b5f8115159050919050565b615de381615dcf565b8114615ded575f80fd5b50565b5f81519050615dfe81615dda565b92915050565b5f60208284031215615e1957615e18613ab0565b5b5f615e2684828501615df0565b91505092915050565b7f53657276696365207265717565737420646f6573206e6f7420657869737473005f82015250565b5f615e63601f83614603565b9150615e6e82615e2f565b602082019050919050565b5f6040820190508181035f830152615e918184614613565b90508181036020830152615ea481615e57565b905092915050565b7f596f75206861766520616c72656164792062696464656420666f7220746869735f8201527f2073657276696365207265717565737400000000000000000000000000000000602082015250565b5f615f06603083614603565b9150615f1182615eac565b604082019050919050565b5f604082019050615f2f5f8301846149df565b8181036020830152615f4081615efa565b905092915050565b7f456d707479206465736372697074696f6e2076616c75650000000000000000005f82015250565b5f615f7c601783614603565b9150615f8782615f48565b602082019050919050565b5f6040820190508181035f830152615faa8184614613565b90508181036020830152615fbd81615f70565b905092915050565b7f436172676f20696e737572616e63652076616c7565206e6f742076616c6964005f82015250565b5f615ff9601f83614603565b915061600482615fc5565b602082019050919050565b5f6040820190506160225f83018461480e565b818103602083015261603381615fed565b905092915050565b7f536572766963652076616c7565206e6f742076616c69640000000000000000005f82015250565b5f61606f601783614603565b915061607a8261603b565b602082019050919050565b5f6040820190506160985f83018461480e565b81810360208301526160a981616063565b905092915050565b5f819050919050565b6160cb6160c682613bf4565b6160b1565b82525050565b5f819050919050565b5f819050919050565b6160f46160ef826160d1565b6160da565b82525050565b5f61610582866160ba565b60208201915061611582856160e3565b60208201915061612582846160ba565b602082019150819050949350505050565b7f4e487b71000000000000000000000000000000000000000000000000000000005f52601260045260245ffd5b5f61616d82613bf4565b915061617883613bf4565b92508261618857616187616136565b5b828206905092915050565b7f596f75206c6f7374207468652061756374696f6e2121000000000000000000005f82015250565b5f6161c7601683614603565b91506161d282616193565b602082019050919050565b5f6040820190508181035f8301526161f58184614613565b90508181036020830152616208816161bb565b905092915050565b5f6060820190506162235f8301866149df565b61623060208301856149df565b61623d604083018461480e565b949350505050565b7f596f752061726520616c726561647920726566756e64656420666f72207468695f8201527f7320736572766963652072657175657374000000000000000000000000000000602082015250565b5f61629f603183614603565b91506162aa82616245565b604082019050919050565b5f6040820190508181035f8301526162cd8184614613565b905081810360208301526162e081616293565b905092915050565b7f596f752068617665206e6f742062696464656420666f722074686973207365725f8201527f7669636520726571756573740000000000000000000000000000000000000000602082015250565b5f616342602c83614603565b915061634d826162e8565b604082019050919050565b5f6040820190508181035f8301526163708184614613565b9050818103602083015261638381616336565b905092915050565b61639481613de4565b82525050565b7f456e7465722076616c6964206c6174697475646520636f6f7264696e617465735f82015250565b5f6163ce602083614603565b91506163d98261639a565b602082019050919050565b5f6060820190506163f75f83018561638b565b616404602083018461638b565b8181036040830152616415816163c2565b90509392505050565b7f456e7465722076616c6964206c6f6e67697475646520636f6f7264696e6174655f8201527f7300000000000000000000000000000000000000000000000000000000000000602082015250565b5f616478602183614603565b91506164838261641e565b604082019050919050565b5f6060820190506164a15f83018561638b565b6164ae602083018461638b565b81810360408301526164bf8161646c565b90509392505050565b7f47656f486173682063616e6e6f7420626520656d7074790000000000000000005f82015250565b5f6164fc601783614603565b9150616507826164c8565b602082019050919050565b5f6040820190508181035f83015261652a8184614613565b9050818103602083015261653d816164f0565b905092915050565b7f506c656173652070726f766964652076616c69642061756374696f6e2074696d5f8201527f6500000000000000000000000000000000000000000000000000000000000000602082015250565b5f61659f602183614603565b91506165aa82616545565b604082019050919050565b5f6040820190506165c85f83018461480e565b81810360208301526165d981616593565b905092915050565b7f52657175657374207069636b75702074696d65206d75737420626520696e20745f8201527f6865206675747572650000000000000000000000000000000000000000000000602082015250565b5f61663b602983614603565b9150616646826165e1565b604082019050919050565b5f6040820190506166645f83018461480e565b81810360208301526166758161662f565b905092915050565b7f526571756573742064656c69766572792074696d65206d75737420626520696e5f8201527f2074686520667574757265000000000000000000000000000000000000000000602082015250565b5f6166d7602b83614603565b91506166e28261667d565b604082019050919050565b5f6040820190506167005f83018461480e565b8181036020830152616711816166cb565b905092915050565b7f5265717565737465642064656c69766572792074696d65206d757374206265205f8201527f616674657220726571756573746564207069636b75702074696d650000000000602082015250565b5f616773603b83614603565b915061677e82616719565b604082019050919050565b5f60408201905061679c5f83018461480e565b81810360208301526167ad81616767565b90509291505056fe6162636465666768696a6b6c6d6e6f707172737475767778797a4142434445464748494a4b4c4d4e4f505152535455565758595a30313233343536373839a2646970667358221220b00b8db196146d7f2d071f046861c2be0b32cb996520d15a9dd5bcdf9d715bb264736f6c63430008190033",
			"opcodes": "PUSH1 0xC0 PUSH1 0x40 MSTORE CALLVALUE DUP1 ISZERO PUSH2 0xF JUMPI PUSH0 DUP1 REVERT JUMPDEST POP PUSH1 0x40 MLOAD PUSH2 0x698D CODESIZE SUB DUP1 PUSH2 0x698D DUP4 CODECOPY DUP2 DUP2 ADD PUSH1 0x40 MSTORE DUP2 ADD SWAP1 PUSH2 0x31 SWAP2 SWAP1 PUSH2 0xFE JUMP JUMPDEST DUP2 PUSH20 0xFFFFFFFFFFFFFFFFFFFFFFFFFFFFFFFFFFFFFFFF AND PUSH1 0x80 DUP2 PUSH20 0xFFFFFFFFFFFFFFFFFFFFFFFFFFFFFFFFFFFFFFFF AND DUP2 MSTORE POP POP DUP1 PUSH20 0xFFFFFFFFFFFFFFFFFFFFFFFFFFFFFFFFFFFFFFFF AND PUSH1 0xA0 DUP2 PUSH20 0xFFFFFFFFFFFFFFFFFFFFFFFFFFFFFFFFFFFFFFFF AND DUP2 MSTORE POP POP POP POP PUSH2 0x13C JUMP JUMPDEST PUSH0 DUP1 REVERT JUMPDEST PUSH0 PUSH20 0xFFFFFFFFFFFFFFFFFFFFFFFFFFFFFFFFFFFFFFFF DUP3 AND SWAP1 POP SWAP2 SWAP1 POP JUMP JUMPDEST PUSH0 PUSH2 0xCD DUP3 PUSH2 0xA4 JUMP JUMPDEST SWAP1 POP SWAP2 SWAP1 POP JUMP JUMPDEST PUSH2 0xDD DUP2 PUSH2 0xC3 JUMP JUMPDEST DUP2 EQ PUSH2 0xE7 JUMPI PUSH0 DUP1 REVERT JUMPDEST POP JUMP JUMPDEST PUSH0 DUP2 MLOAD SWAP1 POP PUSH2 0xF8 DUP2 PUSH2 0xD4 JUMP JUMPDEST SWAP3 SWAP2 POP POP JUMP JUMPDEST PUSH0 DUP1 PUSH1 0x40 DUP4 DUP6 SUB SLT ISZERO PUSH2 0x114 JUMPI PUSH2 0x113 PUSH2 0xA0 JUMP JUMPDEST JUMPDEST PUSH0 PUSH2 0x121 DUP6 DUP3 DUP7 ADD PUSH2 0xEA JUMP JUMPDEST SWAP3 POP POP PUSH1 0x20 PUSH2 0x132 DUP6 DUP3 DUP7 ADD PUSH2 0xEA JUMP JUMPDEST SWAP2 POP POP SWAP3 POP SWAP3 SWAP1 POP JUMP JUMPDEST PUSH1 0x80 MLOAD PUSH1 0xA0 MLOAD PUSH2 0x6829 PUSH2 0x164 PUSH0 CODECOPY PUSH0 PUSH2 0x2705 ADD MSTORE PUSH0 DUP2 DUP2 PUSH2 0x2621 ADD MSTORE PUSH2 0x278D ADD MSTORE PUSH2 0x6829 PUSH0 RETURN INVALID PUSH1 0x80 PUSH1 0x40 MSTORE PUSH1 0x4 CALLDATASIZE LT PUSH2 0x9B JUMPI PUSH0 CALLDATALOAD PUSH1 0xE0 SHR DUP1 PUSH4 0x7A335CEF GT PUSH2 0x63 JUMPI DUP1 PUSH4 0x7A335CEF EQ PUSH2 0x183 JUMPI DUP1 PUSH4 0x816C2CB7 EQ PUSH2 0x1AB JUMPI DUP1 PUSH4 0x8879A530 EQ PUSH2 0x1D3 JUMPI DUP1 PUSH4 0xC2DA97BA EQ PUSH2 0x1FD JUMPI DUP1 PUSH4 0xC928FD1D EQ PUSH2 0x219 JUMPI DUP1 PUSH4 0xEF693B98 EQ PUSH2 0x241 JUMPI PUSH2 0x9B JUMP JUMPDEST DUP1 PUSH4 0x12B28B3C EQ PUSH2 0x9F JUMPI DUP1 PUSH4 0x1821FB39 EQ PUSH2 0xBB JUMPI DUP1 PUSH4 0x5B664FCB EQ PUSH2 0xE3 JUMPI DUP1 PUSH4 0x750E0ABD EQ PUSH2 0x11F JUMPI DUP1 PUSH4 0x7A1CF72F EQ PUSH2 0x147 JUMPI JUMPDEST PUSH0 DUP1 REVERT JUMPDEST PUSH2 0xB9 PUSH1 0x4 DUP1 CALLDATASIZE SUB DUP2 ADD SWAP1 PUSH2 0xB4 SWAP2 SWAP1 PUSH2 0x3C27 JUMP JUMPDEST PUSH2 0x269 JUMP JUMPDEST STOP JUMPDEST CALLVALUE DUP1 ISZERO PUSH2 0xC6 JUMPI PUSH0 DUP1 REVERT JUMPDEST POP PUSH2 0xE1 PUSH1 0x4 DUP1 CALLDATASIZE SUB DUP2 ADD SWAP1 PUSH2 0xDC SWAP2 SWAP1 PUSH2 0x3CA4 JUMP JUMPDEST PUSH2 0x763 JUMP JUMPDEST STOP JUMPDEST CALLVALUE DUP1 ISZERO PUSH2 0xEE JUMPI PUSH0 DUP1 REVERT JUMPDEST POP PUSH2 0x109 PUSH1 0x4 DUP1 CALLDATASIZE SUB DUP2 ADD SWAP1 PUSH2 0x104 SWAP2 SWAP1 PUSH2 0x3CFE JUMP JUMPDEST PUSH2 0x98B JUMP JUMPDEST PUSH1 0x40 MLOAD PUSH2 0x116 SWAP2 SWAP1 PUSH2 0x4012 JUMP JUMPDEST PUSH1 0x40 MLOAD DUP1 SWAP2 SUB SWAP1 RETURN JUMPDEST CALLVALUE DUP1 ISZERO PUSH2 0x12A JUMPI PUSH0 DUP1 REVERT JUMPDEST POP PUSH2 0x145 PUSH1 0x4 DUP1 CALLDATASIZE SUB DUP2 ADD SWAP1 PUSH2 0x140 SWAP2 SWAP1 PUSH2 0x3CFE JUMP JUMPDEST PUSH2 0xAA4 JUMP JUMPDEST STOP JUMPDEST CALLVALUE DUP1 ISZERO PUSH2 0x152 JUMPI PUSH0 DUP1 REVERT JUMPDEST POP PUSH2 0x16D PUSH1 0x4 DUP1 CALLDATASIZE SUB DUP2 ADD SWAP1 PUSH2 0x168 SWAP2 SWAP1 PUSH2 0x3CFE JUMP JUMPDEST PUSH2 0xBE4 JUMP JUMPDEST PUSH1 0x40 MLOAD PUSH2 0x17A SWAP2 SWAP1 PUSH2 0x4281 JUMP JUMPDEST PUSH1 0x40 MLOAD DUP1 SWAP2 SUB SWAP1 RETURN JUMPDEST CALLVALUE DUP1 ISZERO PUSH2 0x18E JUMPI PUSH0 DUP1 REVERT JUMPDEST POP PUSH2 0x1A9 PUSH1 0x4 DUP1 CALLDATASIZE SUB DUP2 ADD SWAP1 PUSH2 0x1A4 SWAP2 SWAP1 PUSH2 0x3CA4 JUMP JUMPDEST PUSH2 0x11AA JUMP JUMPDEST STOP JUMPDEST CALLVALUE DUP1 ISZERO PUSH2 0x1B6 JUMPI PUSH0 DUP1 REVERT JUMPDEST POP PUSH2 0x1D1 PUSH1 0x4 DUP1 CALLDATASIZE SUB DUP2 ADD SWAP1 PUSH2 0x1CC SWAP2 SWAP1 PUSH2 0x3CFE JUMP JUMPDEST PUSH2 0x1782 JUMP JUMPDEST STOP JUMPDEST CALLVALUE DUP1 ISZERO PUSH2 0x1DE JUMPI PUSH0 DUP1 REVERT JUMPDEST POP PUSH2 0x1E7 PUSH2 0x1A0F JUMP JUMPDEST PUSH1 0x40 MLOAD PUSH2 0x1F4 SWAP2 SWAP1 PUSH2 0x4281 JUMP JUMPDEST PUSH1 0x40 MLOAD DUP1 SWAP2 SUB SWAP1 RETURN JUMPDEST PUSH2 0x217 PUSH1 0x4 DUP1 CALLDATASIZE SUB DUP2 ADD SWAP1 PUSH2 0x212 SWAP2 SWAP1 PUSH2 0x44BF JUMP JUMPDEST PUSH2 0x2026 JUMP JUMPDEST STOP JUMPDEST CALLVALUE DUP1 ISZERO PUSH2 0x224 JUMPI PUSH0 DUP1 REVERT JUMPDEST POP PUSH2 0x23F PUSH1 0x4 DUP1 CALLDATASIZE SUB DUP2 ADD SWAP1 PUSH2 0x23A SWAP2 SWAP1 PUSH2 0x4529 JUMP JUMPDEST PUSH2 0x2405 JUMP JUMPDEST STOP JUMPDEST CALLVALUE DUP1 ISZERO PUSH2 0x24C JUMPI PUSH0 DUP1 REVERT JUMPDEST POP PUSH2 0x267 PUSH1 0x4 DUP1 CALLDATASIZE SUB DUP2 ADD SWAP1 PUSH2 0x262 SWAP2 SWAP1 PUSH2 0x3CFE JUMP JUMPDEST PUSH2 0x28A2 JUMP JUMPDEST STOP JUMPDEST CALLER PUSH0 PUSH2 0x274 DUP5 PUSH2 0x2AEE JUMP JUMPDEST SWAP1 POP PUSH0 DUP2 PUSH0 ADD MLOAD SWAP1 POP PUSH0 DUP3 PUSH1 0x20 ADD MLOAD SWAP1 POP PUSH8 0xDE0B6B3A7640000 DUP6 PUSH2 0x299 SWAP2 SWAP1 PUSH2 0x45C2 JUMP JUMPDEST SWAP5 POP PUSH0 PUSH1 0xA DUP2 GT ISZERO PUSH2 0x2AE JUMPI PUSH2 0x2AD PUSH2 0x3E0B JUMP JUMPDEST JUMPDEST DUP3 PUSH2 0x220 ADD MLOAD PUSH1 0xA DUP2 GT ISZERO PUSH2 0x2C6 JUMPI PUSH2 0x2C5 PUSH2 0x3E0B JUMP JUMPDEST JUMPDEST EQ PUSH2 0x308 JUMPI DUP6 PUSH1 0x40 MLOAD PUSH32 0x67695D9700000000000000000000000000000000000000000000000000000000 DUP2 MSTORE PUSH1 0x4 ADD PUSH2 0x2FF SWAP2 SWAP1 PUSH2 0x46BB JUMP JUMPDEST PUSH1 0x40 MLOAD DUP1 SWAP2 SUB SWAP1 REVERT JUMPDEST DUP2 PUSH2 0x1E0 ADD MLOAD TIMESTAMP LT PUSH2 0x351 JUMPI DUP6 PUSH1 0x40 MLOAD PUSH32 0xAEA2EAD800000000000000000000000000000000000000000000000000000000 DUP2 MSTORE PUSH1 0x4 ADD PUSH2 0x348 SWAP2 SWAP1 PUSH2 0x4738 JUMP JUMPDEST PUSH1 0x40 MLOAD DUP1 SWAP2 SUB SWAP1 REVERT JUMPDEST PUSH0 PUSH2 0x35B CALLER PUSH2 0x301C JUMP JUMPDEST SWAP1 POP PUSH2 0x36C DUP2 DUP5 PUSH2 0x100 ADD MLOAD PUSH2 0x3034 JUMP JUMPDEST ISZERO DUP1 PUSH2 0x384 JUMPI POP PUSH2 0x382 DUP2 DUP5 PUSH2 0x120 ADD MLOAD PUSH2 0x3034 JUMP JUMPDEST ISZERO JUMPDEST ISZERO PUSH2 0x3C6 JUMPI DUP7 PUSH1 0x40 MLOAD PUSH32 0x9D8F3D300000000000000000000000000000000000000000000000000000000 DUP2 MSTORE PUSH1 0x4 ADD PUSH2 0x3BD SWAP2 SWAP1 PUSH2 0x47DB JUMP JUMPDEST PUSH1 0x40 MLOAD DUP1 SWAP2 SUB SWAP1 REVERT JUMPDEST PUSH8 0xDE0B6B3A7640000 DUP4 PUSH2 0x140 ADD MLOAD PUSH2 0x3DF SWAP2 SWAP1 PUSH2 0x45C2 JUMP JUMPDEST CALLVALUE EQ PUSH2 0x422 JUMPI CALLVALUE PUSH1 0x40 MLOAD PUSH32 0x6189D10400000000000000000000000000000000000000000000000000000000 DUP2 MSTORE PUSH1 0x4 ADD PUSH2 0x419 SWAP2 SWAP1 PUSH2 0x488D JUMP JUMPDEST PUSH1 0x40 MLOAD DUP1 SWAP2 SUB SWAP1 REVERT JUMPDEST PUSH0 DUP7 GT ISZERO DUP1 PUSH2 0x464 JUMPI POP PUSH8 0xDE0B6B3A7640000 DUP4 PUSH2 0x140 ADD MLOAD PUSH2 0x445 SWAP2 SWAP1 PUSH2 0x45C2 JUMP JUMPDEST DUP4 PUSH2 0x160 ADD MLOAD PUSH2 0x455 SWAP2 SWAP1 PUSH2 0x48B9 JUMP JUMPDEST CALLVALUE DUP8 PUSH2 0x461 SWAP2 SWAP1 PUSH2 0x48B9 JUMP JUMPDEST LT ISZERO JUMPDEST ISZERO PUSH2 0x4A6 JUMPI DUP6 PUSH1 0x40 MLOAD PUSH32 0xE71C06BD00000000000000000000000000000000000000000000000000000000 DUP2 MSTORE PUSH1 0x4 ADD PUSH2 0x49D SWAP2 SWAP1 PUSH2 0x4936 JUMP JUMPDEST PUSH1 0x40 MLOAD DUP1 SWAP2 SUB SWAP1 REVERT JUMPDEST PUSH0 PUSH1 0x1 DUP9 PUSH1 0x40 MLOAD PUSH2 0x4B7 SWAP2 SWAP1 PUSH2 0x499C JUMP JUMPDEST SWAP1 DUP2 MSTORE PUSH1 0x20 ADD PUSH1 0x40 MLOAD DUP1 SWAP2 SUB SWAP1 KECCAK256 DUP1 SLOAD DUP1 PUSH1 0x20 MUL PUSH1 0x20 ADD PUSH1 0x40 MLOAD SWAP1 DUP2 ADD PUSH1 0x40 MSTORE DUP1 SWAP3 SWAP2 SWAP1 DUP2 DUP2 MSTORE PUSH1 0x20 ADD PUSH0 SWAP1 JUMPDEST DUP3 DUP3 LT ISZERO PUSH2 0x58D JUMPI DUP4 DUP3 SWAP1 PUSH0 MSTORE PUSH1 0x20 PUSH0 KECCAK256 SWAP1 PUSH1 0x2 MUL ADD PUSH1 0x40 MLOAD DUP1 PUSH1 0x60 ADD PUSH1 0x40 MSTORE SWAP1 DUP2 PUSH0 DUP3 ADD SLOAD DUP2 MSTORE PUSH1 0x20 ADD PUSH1 0x1 DUP3 ADD PUSH0 SWAP1 SLOAD SWAP1 PUSH2 0x100 EXP SWAP1 DIV PUSH20 0xFFFFFFFFFFFFFFFFFFFFFFFFFFFFFFFFFFFFFFFF AND PUSH20 0xFFFFFFFFFFFFFFFFFFFFFFFFFFFFFFFFFFFFFFFF AND PUSH20 0xFFFFFFFFFFFFFFFFFFFFFFFFFFFFFFFFFFFFFFFF AND DUP2 MSTORE PUSH1 0x20 ADD PUSH1 0x1 DUP3 ADD PUSH1 0x14 SWAP1 SLOAD SWAP1 PUSH2 0x100 EXP SWAP1 DIV PUSH1 0xFF AND ISZERO ISZERO ISZERO ISZERO DUP2 MSTORE POP POP DUP2 MSTORE PUSH1 0x20 ADD SWAP1 PUSH1 0x1 ADD SWAP1 PUSH2 0x4E4 JUMP JUMPDEST POP POP POP POP SWAP1 POP PUSH2 0x59D CALLER DUP3 PUSH2 0x3107 JUMP JUMPDEST PUSH0 PUSH1 0x40 MLOAD DUP1 PUSH1 0x60 ADD PUSH1 0x40 MSTORE DUP1 DUP10 DUP2 MSTORE PUSH1 0x20 ADD CALLER PUSH20 0xFFFFFFFFFFFFFFFFFFFFFFFFFFFFFFFFFFFFFFFF AND DUP2 MSTORE PUSH1 0x20 ADD PUSH0 ISZERO ISZERO DUP2 MSTORE POP SWAP1 POP PUSH1 0x1 DUP10 PUSH1 0x40 MLOAD PUSH2 0x5E3 SWAP2 SWAP1 PUSH2 0x499C JUMP JUMPDEST SWAP1 DUP2 MSTORE PUSH1 0x20 ADD PUSH1 0x40 MLOAD DUP1 SWAP2 SUB SWAP1 KECCAK256 DUP2 SWAP1 DUP1 PUSH1 0x1 DUP2 SLOAD ADD DUP1 DUP3 SSTORE DUP1 SWAP2 POP POP PUSH1 0x1 SWAP1 SUB SWAP1 PUSH0 MSTORE PUSH1 0x20 PUSH0 KECCAK256 SWAP1 PUSH1 0x2 MUL ADD PUSH0 SWAP1 SWAP2 SWAP1 SWAP2 SWAP1 SWAP2 POP PUSH0 DUP3 ADD MLOAD DUP2 PUSH0 ADD SSTORE PUSH1 0x20 DUP3 ADD MLOAD DUP2 PUSH1 0x1 ADD PUSH0 PUSH2 0x100 EXP DUP2 SLOAD DUP2 PUSH20 0xFFFFFFFFFFFFFFFFFFFFFFFFFFFFFFFFFFFFFFFF MUL NOT AND SWAP1 DUP4 PUSH20 0xFFFFFFFFFFFFFFFFFFFFFFFFFFFFFFFFFFFFFFFF AND MUL OR SWAP1 SSTORE POP PUSH1 0x40 DUP3 ADD MLOAD DUP2 PUSH1 0x1 ADD PUSH1 0x14 PUSH2 0x100 EXP DUP2 SLOAD DUP2 PUSH1 0xFF MUL NOT AND SWAP1 DUP4 ISZERO ISZERO MUL OR SWAP1 SSTORE POP POP POP DUP5 PUSH2 0x160 ADD MLOAD DUP9 LT ISZERO PUSH2 0x71D JUMPI DUP8 PUSH0 DUP6 DUP2 SLOAD DUP2 LT PUSH2 0x6A9 JUMPI PUSH2 0x6A8 PUSH2 0x49B2 JUMP JUMPDEST JUMPDEST SWAP1 PUSH0 MSTORE PUSH1 0x20 PUSH0 KECCAK256 SWAP1 PUSH1 0x11 MUL ADD PUSH1 0xC ADD DUP2 SWAP1 SSTORE POP CALLER PUSH0 DUP6 DUP2 SLOAD DUP2 LT PUSH2 0x6D0 JUMPI PUSH2 0x6CF PUSH2 0x49B2 JUMP JUMPDEST JUMPDEST SWAP1 PUSH0 MSTORE PUSH1 0x20 PUSH0 KECCAK256 SWAP1 PUSH1 0x11 MUL ADD PUSH1 0x10 ADD PUSH0 PUSH2 0x100 EXP DUP2 SLOAD DUP2 PUSH20 0xFFFFFFFFFFFFFFFFFFFFFFFFFFFFFFFFFFFFFFFF MUL NOT AND SWAP1 DUP4 PUSH20 0xFFFFFFFFFFFFFFFFFFFFFFFFFFFFFFFFFFFFFFFF AND MUL OR SWAP1 SSTORE POP JUMPDEST PUSH32 0xDD9FD5BB4EB2D26BCCEA7B9F6658C73CB8FF9A8F5C7158EB72845B523213B5DE DUP10 DUP10 CALLER PUSH1 0x40 MLOAD PUSH2 0x750 SWAP4 SWAP3 SWAP2 SWAP1 PUSH2 0x49EE JUMP JUMPDEST PUSH1 0x40 MLOAD DUP1 SWAP2 SUB SWAP1 LOG1 POP POP POP POP POP POP POP POP POP JUMP JUMPDEST PUSH0 PUSH2 0x76D DUP4 PUSH2 0x2AEE JUMP JUMPDEST SWAP1 POP PUSH0 DUP2 PUSH0 ADD MLOAD SWAP1 POP PUSH0 DUP3 PUSH1 0x20 ADD MLOAD SWAP1 POP PUSH1 0xA DUP1 DUP2 GT ISZERO PUSH2 0x791 JUMPI PUSH2 0x790 PUSH2 0x3E0B JUMP JUMPDEST JUMPDEST DUP3 PUSH2 0x220 ADD MLOAD PUSH1 0xA DUP2 GT ISZERO PUSH2 0x7A9 JUMPI PUSH2 0x7A8 PUSH2 0x3E0B JUMP JUMPDEST JUMPDEST SUB PUSH2 0x7EB JUMPI DUP5 PUSH1 0x40 MLOAD PUSH32 0x48B3CCEC00000000000000000000000000000000000000000000000000000000 DUP2 MSTORE PUSH1 0x4 ADD PUSH2 0x7E2 SWAP2 SWAP1 PUSH2 0x4A9A JUMP JUMPDEST PUSH1 0x40 MLOAD DUP1 SWAP2 SUB SWAP1 REVERT JUMPDEST DUP2 PUSH1 0x40 ADD MLOAD PUSH20 0xFFFFFFFFFFFFFFFFFFFFFFFFFFFFFFFFFFFFFFFF AND CALLER PUSH20 0xFFFFFFFFFFFFFFFFFFFFFFFFFFFFFFFFFFFFFFFF AND EQ PUSH2 0x85F JUMPI DUP5 PUSH1 0x40 MLOAD PUSH32 0x48B3CCEC00000000000000000000000000000000000000000000000000000000 DUP2 MSTORE PUSH1 0x4 ADD PUSH2 0x856 SWAP2 SWAP1 PUSH2 0x4B3D JUMP JUMPDEST PUSH1 0x40 MLOAD DUP1 SWAP2 SUB SWAP1 REVERT JUMPDEST PUSH1 0x3 PUSH1 0xA DUP2 GT ISZERO PUSH2 0x873 JUMPI PUSH2 0x872 PUSH2 0x3E0B JUMP JUMPDEST JUMPDEST DUP5 PUSH1 0xA DUP2 GT ISZERO PUSH2 0x886 JUMPI PUSH2 0x885 PUSH2 0x3E0B JUMP JUMPDEST JUMPDEST EQ DUP1 ISZERO PUSH2 0x8BC JUMPI POP PUSH1 0x2 PUSH1 0xA DUP2 GT ISZERO PUSH2 0x8A2 JUMPI PUSH2 0x8A1 PUSH2 0x3E0B JUMP JUMPDEST JUMPDEST DUP3 PUSH2 0x220 ADD MLOAD PUSH1 0xA DUP2 GT ISZERO PUSH2 0x8BA JUMPI PUSH2 0x8B9 PUSH2 0x3E0B JUMP JUMPDEST JUMPDEST EQ JUMPDEST ISZERO PUSH2 0x947 JUMPI DUP4 PUSH0 DUP3 DUP2 SLOAD DUP2 LT PUSH2 0x8D5 JUMPI PUSH2 0x8D4 PUSH2 0x49B2 JUMP JUMPDEST JUMPDEST SWAP1 PUSH0 MSTORE PUSH1 0x20 PUSH0 KECCAK256 SWAP1 PUSH1 0x11 MUL ADD PUSH1 0x10 ADD PUSH1 0x14 PUSH2 0x100 EXP DUP2 SLOAD DUP2 PUSH1 0xFF MUL NOT AND SWAP1 DUP4 PUSH1 0xA DUP2 GT ISZERO PUSH2 0x906 JUMPI PUSH2 0x905 PUSH2 0x3E0B JUMP JUMPDEST JUMPDEST MUL OR SWAP1 SSTORE POP PUSH32 0x2D9D560C99C3BC1724FC52A39A33A239E75EF98285E83DFB9AA7C87F6B5B289C DUP6 PUSH1 0x40 MLOAD PUSH2 0x93A SWAP2 SWAP1 PUSH2 0x4BE0 JUMP JUMPDEST PUSH1 0x40 MLOAD DUP1 SWAP2 SUB SWAP1 LOG1 PUSH2 0x984 JUMP JUMPDEST DUP5 PUSH1 0x40 MLOAD PUSH32 0x48B3CCEC00000000000000000000000000000000000000000000000000000000 DUP2 MSTORE PUSH1 0x4 ADD PUSH2 0x97B SWAP2 SWAP1 PUSH2 0x4C83 JUMP JUMPDEST PUSH1 0x40 MLOAD DUP1 SWAP2 SUB SWAP1 REVERT JUMPDEST POP POP POP POP POP JUMP JUMPDEST PUSH2 0x993 PUSH2 0x39B7 JUMP JUMPDEST PUSH0 PUSH2 0x99D DUP4 PUSH2 0x2AEE JUMP JUMPDEST SWAP1 POP PUSH0 DUP2 PUSH0 ADD MLOAD SWAP1 POP PUSH0 CALLER SWAP1 POP DUP2 PUSH1 0x40 ADD MLOAD PUSH20 0xFFFFFFFFFFFFFFFFFFFFFFFFFFFFFFFFFFFFFFFF AND DUP2 PUSH20 0xFFFFFFFFFFFFFFFFFFFFFFFFFFFFFFFFFFFFFFFF AND EQ DUP1 PUSH2 0xA17 JUMPI POP DUP2 PUSH1 0x60 ADD MLOAD PUSH20 0xFFFFFFFFFFFFFFFFFFFFFFFFFFFFFFFFFFFFFFFF AND DUP2 PUSH20 0xFFFFFFFFFFFFFFFFFFFFFFFFFFFFFFFFFFFFFFFF AND EQ JUMPDEST DUP1 PUSH2 0xA52 JUMPI POP DUP2 PUSH2 0x200 ADD MLOAD PUSH20 0xFFFFFFFFFFFFFFFFFFFFFFFFFFFFFFFFFFFFFFFF AND DUP2 PUSH20 0xFFFFFFFFFFFFFFFFFFFFFFFFFFFFFFFFFFFFFFFF AND EQ JUMPDEST ISZERO PUSH2 0xA62 JUMPI DUP2 SWAP4 POP POP POP POP PUSH2 0xA9F JUMP JUMPDEST DUP5 PUSH1 0x40 MLOAD PUSH32 0x48B3CCEC00000000000000000000000000000000000000000000000000000000 DUP2 MSTORE PUSH1 0x4 ADD PUSH2 0xA96 SWAP2 SWAP1 PUSH2 0x4D26 JUMP JUMPDEST PUSH1 0x40 MLOAD DUP1 SWAP2 SUB SWAP1 REVERT JUMPDEST SWAP2 SWAP1 POP JUMP JUMPDEST CALLER PUSH0 PUSH2 0xAAF DUP4 PUSH2 0x2AEE JUMP JUMPDEST SWAP1 POP PUSH0 DUP2 PUSH0 ADD MLOAD SWAP1 POP PUSH0 DUP3 PUSH1 0x20 ADD MLOAD SWAP1 POP PUSH1 0x1 PUSH1 0xA DUP2 GT ISZERO PUSH2 0xAD4 JUMPI PUSH2 0xAD3 PUSH2 0x3E0B JUMP JUMPDEST JUMPDEST DUP3 PUSH2 0x220 ADD MLOAD PUSH1 0xA DUP2 GT ISZERO PUSH2 0xAEC JUMPI PUSH2 0xAEB PUSH2 0x3E0B JUMP JUMPDEST JUMPDEST SUB PUSH2 0xBA0 JUMPI PUSH1 0x3C PUSH0 DUP3 DUP2 SLOAD DUP2 LT PUSH2 0xB06 JUMPI PUSH2 0xB05 PUSH2 0x49B2 JUMP JUMPDEST JUMPDEST SWAP1 PUSH0 MSTORE PUSH1 0x20 PUSH0 KECCAK256 SWAP1 PUSH1 0x11 MUL ADD PUSH1 0xF ADD SLOAD PUSH2 0xB20 SWAP2 SWAP1 PUSH2 0x45C2 JUMP JUMPDEST TIMESTAMP PUSH2 0xB2B SWAP2 SWAP1 PUSH2 0x48B9 JUMP JUMPDEST PUSH0 DUP3 DUP2 SLOAD DUP2 LT PUSH2 0xB3E JUMPI PUSH2 0xB3D PUSH2 0x49B2 JUMP JUMPDEST JUMPDEST SWAP1 PUSH0 MSTORE PUSH1 0x20 PUSH0 KECCAK256 SWAP1 PUSH1 0x11 MUL ADD PUSH1 0xF ADD DUP2 SWAP1 SSTORE POP PUSH0 DUP1 DUP3 DUP2 SLOAD DUP2 LT PUSH2 0xB65 JUMPI PUSH2 0xB64 PUSH2 0x49B2 JUMP JUMPDEST JUMPDEST SWAP1 PUSH0 MSTORE PUSH1 0x20 PUSH0 KECCAK256 SWAP1 PUSH1 0x11 MUL ADD PUSH1 0x10 ADD PUSH1 0x14 PUSH2 0x100 EXP DUP2 SLOAD DUP2 PUSH1 0xFF MUL NOT AND SWAP1 DUP4 PUSH1 0xA DUP2 GT ISZERO PUSH2 0xB96 JUMPI PUSH2 0xB95 PUSH2 0x3E0B JUMP JUMPDEST JUMPDEST MUL OR SWAP1 SSTORE POP PUSH2 0xBDD JUMP JUMPDEST DUP5 PUSH1 0x40 MLOAD PUSH32 0x21A3DE0A00000000000000000000000000000000000000000000000000000000 DUP2 MSTORE PUSH1 0x4 ADD PUSH2 0xBD4 SWAP2 SWAP1 PUSH2 0x4DC9 JUMP JUMPDEST PUSH1 0x40 MLOAD DUP1 SWAP2 SUB SWAP1 REVERT JUMPDEST POP POP POP POP POP JUMP JUMPDEST PUSH1 0x60 PUSH0 DUP1 DUP1 SLOAD SWAP1 POP PUSH8 0xFFFFFFFFFFFFFFFF DUP2 GT ISZERO PUSH2 0xC05 JUMPI PUSH2 0xC04 PUSH2 0x3AD0 JUMP JUMPDEST JUMPDEST PUSH1 0x40 MLOAD SWAP1 DUP1 DUP3 MSTORE DUP1 PUSH1 0x20 MUL PUSH1 0x20 ADD DUP3 ADD PUSH1 0x40 MSTORE DUP1 ISZERO PUSH2 0xC3E JUMPI DUP2 PUSH1 0x20 ADD JUMPDEST PUSH2 0xC2B PUSH2 0x39B7 JUMP JUMPDEST DUP2 MSTORE PUSH1 0x20 ADD SWAP1 PUSH1 0x1 SWAP1 SUB SWAP1 DUP2 PUSH2 0xC23 JUMPI SWAP1 POP JUMPDEST POP SWAP1 POP PUSH0 DUP1 JUMPDEST PUSH0 DUP1 SLOAD SWAP1 POP DUP2 LT ISZERO PUSH2 0x10F6 JUMPI PUSH0 DUP1 DUP3 DUP2 SLOAD DUP2 LT PUSH2 0xC64 JUMPI PUSH2 0xC63 PUSH2 0x49B2 JUMP JUMPDEST JUMPDEST SWAP1 PUSH0 MSTORE PUSH1 0x20 PUSH0 KECCAK256 SWAP1 PUSH1 0x11 MUL ADD PUSH1 0x40 MLOAD DUP1 PUSH2 0x240 ADD PUSH1 0x40 MSTORE SWAP1 DUP2 PUSH0 DUP3 ADD DUP1 SLOAD PUSH2 0xC8B SWAP1 PUSH2 0x4E29 JUMP JUMPDEST DUP1 PUSH1 0x1F ADD PUSH1 0x20 DUP1 SWAP2 DIV MUL PUSH1 0x20 ADD PUSH1 0x40 MLOAD SWAP1 DUP2 ADD PUSH1 0x40 MSTORE DUP1 SWAP3 SWAP2 SWAP1 DUP2 DUP2 MSTORE PUSH1 0x20 ADD DUP3 DUP1 SLOAD PUSH2 0xCB7 SWAP1 PUSH2 0x4E29 JUMP JUMPDEST DUP1 ISZERO PUSH2 0xD02 JUMPI DUP1 PUSH1 0x1F LT PUSH2 0xCD9 JUMPI PUSH2 0x100 DUP1 DUP4 SLOAD DIV MUL DUP4 MSTORE SWAP2 PUSH1 0x20 ADD SWAP2 PUSH2 0xD02 JUMP JUMPDEST DUP3 ADD SWAP2 SWAP1 PUSH0 MSTORE PUSH1 0x20 PUSH0 KECCAK256 SWAP1 JUMPDEST DUP2 SLOAD DUP2 MSTORE SWAP1 PUSH1 0x1 ADD SWAP1 PUSH1 0x20 ADD DUP1 DUP4 GT PUSH2 0xCE5 JUMPI DUP3 SWAP1 SUB PUSH1 0x1F AND DUP3 ADD SWAP2 JUMPDEST POP POP POP POP POP DUP2 MSTORE PUSH1 0x20 ADD PUSH1 0x1 DUP3 ADD DUP1 SLOAD PUSH2 0xD1B SWAP1 PUSH2 0x4E29 JUMP JUMPDEST DUP1 PUSH1 0x1F ADD PUSH1 0x20 DUP1 SWAP2 DIV MUL PUSH1 0x20 ADD PUSH1 0x40 MLOAD SWAP1 DUP2 ADD PUSH1 0x40 MSTORE DUP1 SWAP3 SWAP2 SWAP1 DUP2 DUP2 MSTORE PUSH1 0x20 ADD DUP3 DUP1 SLOAD PUSH2 0xD47 SWAP1 PUSH2 0x4E29 JUMP JUMPDEST DUP1 ISZERO PUSH2 0xD92 JUMPI DUP1 PUSH1 0x1F LT PUSH2 0xD69 JUMPI PUSH2 0x100 DUP1 DUP4 SLOAD DIV MUL DUP4 MSTORE SWAP2 PUSH1 0x20 ADD SWAP2 PUSH2 0xD92 JUMP JUMPDEST DUP3 ADD SWAP2 SWAP1 PUSH0 MSTORE PUSH1 0x20 PUSH0 KECCAK256 SWAP1 JUMPDEST DUP2 SLOAD DUP2 MSTORE SWAP1 PUSH1 0x1 ADD SWAP1 PUSH1 0x20 ADD DUP1 DUP4 GT PUSH2 0xD75 JUMPI DUP3 SWAP1 SUB PUSH1 0x1F AND DUP3 ADD SWAP2 JUMPDEST POP POP POP POP POP DUP2 MSTORE PUSH1 0x20 ADD PUSH1 0x2 DUP3 ADD PUSH0 SWAP1 SLOAD SWAP1 PUSH2 0x100 EXP SWAP1 DIV PUSH20 0xFFFFFFFFFFFFFFFFFFFFFFFFFFFFFFFFFFFFFFFF AND PUSH20 0xFFFFFFFFFFFFFFFFFFFFFFFFFFFFFFFFFFFFFFFF AND PUSH20 0xFFFFFFFFFFFFFFFFFFFFFFFFFFFFFFFFFFFFFFFF AND DUP2 MSTORE PUSH1 0x20 ADD PUSH1 0x3 DUP3 ADD PUSH0 SWAP1 SLOAD SWAP1 PUSH2 0x100 EXP SWAP1 DIV PUSH20 0xFFFFFFFFFFFFFFFFFFFFFFFFFFFFFFFFFFFFFFFF AND PUSH20 0xFFFFFFFFFFFFFFFFFFFFFFFFFFFFFFFFFFFFFFFF AND PUSH20 0xFFFFFFFFFFFFFFFFFFFFFFFFFFFFFFFFFFFFFFFF AND DUP2 MSTORE PUSH1 0x20 ADD PUSH1 0x4 DUP3 ADD SLOAD DUP2 MSTORE PUSH1 0x20 ADD PUSH1 0x5 DUP3 ADD SLOAD DUP2 MSTORE PUSH1 0x20 ADD PUSH1 0x6 DUP3 ADD SLOAD DUP2 MSTORE PUSH1 0x20 ADD PUSH1 0x7 DUP3 ADD SLOAD DUP2 MSTORE PUSH1 0x20 ADD PUSH1 0x8 DUP3 ADD DUP1 SLOAD PUSH2 0xE7D SWAP1 PUSH2 0x4E29 JUMP JUMPDEST DUP1 PUSH1 0x1F ADD PUSH1 0x20 DUP1 SWAP2 DIV MUL PUSH1 0x20 ADD PUSH1 0x40 MLOAD SWAP1 DUP2 ADD PUSH1 0x40 MSTORE DUP1 SWAP3 SWAP2 SWAP1 DUP2 DUP2 MSTORE PUSH1 0x20 ADD DUP3 DUP1 SLOAD PUSH2 0xEA9 SWAP1 PUSH2 0x4E29 JUMP JUMPDEST DUP1 ISZERO PUSH2 0xEF4 JUMPI DUP1 PUSH1 0x1F LT PUSH2 0xECB JUMPI PUSH2 0x100 DUP1 DUP4 SLOAD DIV MUL DUP4 MSTORE SWAP2 PUSH1 0x20 ADD SWAP2 PUSH2 0xEF4 JUMP JUMPDEST DUP3 ADD SWAP2 SWAP1 PUSH0 MSTORE PUSH1 0x20 PUSH0 KECCAK256 SWAP1 JUMPDEST DUP2 SLOAD DUP2 MSTORE SWAP1 PUSH1 0x1 ADD SWAP1 PUSH1 0x20 ADD DUP1 DUP4 GT PUSH2 0xED7 JUMPI DUP3 SWAP1 SUB PUSH1 0x1F AND DUP3 ADD SWAP2 JUMPDEST POP POP POP POP POP DUP2 MSTORE PUSH1 0x20 ADD PUSH1 0x9 DUP3 ADD DUP1 SLOAD PUSH2 0xF0D SWAP1 PUSH2 0x4E29 JUMP JUMPDEST DUP1 PUSH1 0x1F ADD PUSH1 0x20 DUP1 SWAP2 DIV MUL PUSH1 0x20 ADD PUSH1 0x40 MLOAD SWAP1 DUP2 ADD PUSH1 0x40 MSTORE DUP1 SWAP3 SWAP2 SWAP1 DUP2 DUP2 MSTORE PUSH1 0x20 ADD DUP3 DUP1 SLOAD PUSH2 0xF39 SWAP1 PUSH2 0x4E29 JUMP JUMPDEST DUP1 ISZERO PUSH2 0xF84 JUMPI DUP1 PUSH1 0x1F LT PUSH2 0xF5B JUMPI PUSH2 0x100 DUP1 DUP4 SLOAD DIV MUL DUP4 MSTORE SWAP2 PUSH1 0x20 ADD SWAP2 PUSH2 0xF84 JUMP JUMPDEST DUP3 ADD SWAP2 SWAP1 PUSH0 MSTORE PUSH1 0x20 PUSH0 KECCAK256 SWAP1 JUMPDEST DUP2 SLOAD DUP2 MSTORE SWAP1 PUSH1 0x1 ADD SWAP1 PUSH1 0x20 ADD DUP1 DUP4 GT PUSH2 0xF67 JUMPI DUP3 SWAP1 SUB PUSH1 0x1F AND DUP3 ADD SWAP2 JUMPDEST POP POP POP POP POP DUP2 MSTORE PUSH1 0x20 ADD PUSH1 0xA DUP3 ADD SLOAD DUP2 MSTORE PUSH1 0x20 ADD PUSH1 0xB DUP3 ADD SLOAD DUP2 MSTORE PUSH1 0x20 ADD PUSH1 0xC DUP3 ADD SLOAD DUP2 MSTORE PUSH1 0x20 ADD PUSH1 0xD DUP3 ADD SLOAD DUP2 MSTORE PUSH1 0x20 ADD PUSH1 0xE DUP3 ADD SLOAD DUP2 MSTORE PUSH1 0x20 ADD PUSH1 0xF DUP3 ADD SLOAD DUP2 MSTORE PUSH1 0x20 ADD PUSH1 0x10 DUP3 ADD PUSH0 SWAP1 SLOAD SWAP1 PUSH2 0x100 EXP SWAP1 DIV PUSH20 0xFFFFFFFFFFFFFFFFFFFFFFFFFFFFFFFFFFFFFFFF AND PUSH20 0xFFFFFFFFFFFFFFFFFFFFFFFFFFFFFFFFFFFFFFFF AND PUSH20 0xFFFFFFFFFFFFFFFFFFFFFFFFFFFFFFFFFFFFFFFF AND DUP2 MSTORE PUSH1 0x20 ADD PUSH1 0x10 DUP3 ADD PUSH1 0x14 SWAP1 SLOAD SWAP1 PUSH2 0x100 EXP SWAP1 DIV PUSH1 0xFF AND PUSH1 0xA DUP2 GT ISZERO PUSH2 0x1043 JUMPI PUSH2 0x1042 PUSH2 0x3E0B JUMP JUMPDEST JUMPDEST PUSH1 0xA DUP2 GT ISZERO PUSH2 0x1055 JUMPI PUSH2 0x1054 PUSH2 0x3E0B JUMP JUMPDEST JUMPDEST DUP2 MSTORE POP POP SWAP1 POP PUSH0 PUSH1 0xA DUP2 GT ISZERO PUSH2 0x106E JUMPI PUSH2 0x106D PUSH2 0x3E0B JUMP JUMPDEST JUMPDEST DUP2 PUSH2 0x220 ADD MLOAD PUSH1 0xA DUP2 GT ISZERO PUSH2 0x1086 JUMPI PUSH2 0x1085 PUSH2 0x3E0B JUMP JUMPDEST JUMPDEST EQ DUP1 ISZERO PUSH2 0x109E JUMPI POP PUSH2 0x109D DUP7 DUP3 PUSH2 0x100 ADD MLOAD PUSH2 0x3034 JUMP JUMPDEST JUMPDEST DUP1 ISZERO PUSH2 0x10B5 JUMPI POP PUSH2 0x10B4 DUP7 DUP3 PUSH2 0x120 ADD MLOAD PUSH2 0x3034 JUMP JUMPDEST JUMPDEST ISZERO PUSH2 0x10E8 JUMPI DUP1 DUP5 DUP5 DUP2 MLOAD DUP2 LT PUSH2 0x10CE JUMPI PUSH2 0x10CD PUSH2 0x49B2 JUMP JUMPDEST JUMPDEST PUSH1 0x20 MUL PUSH1 0x20 ADD ADD DUP2 SWAP1 MSTORE POP DUP3 DUP1 PUSH2 0x10E4 SWAP1 PUSH2 0x4E59 JUMP JUMPDEST SWAP4 POP POP JUMPDEST POP DUP1 DUP1 PUSH1 0x1 ADD SWAP2 POP POP PUSH2 0xC44 JUMP JUMPDEST POP PUSH0 DUP2 PUSH8 0xFFFFFFFFFFFFFFFF DUP2 GT ISZERO PUSH2 0x1112 JUMPI PUSH2 0x1111 PUSH2 0x3AD0 JUMP JUMPDEST JUMPDEST PUSH1 0x40 MLOAD SWAP1 DUP1 DUP3 MSTORE DUP1 PUSH1 0x20 MUL PUSH1 0x20 ADD DUP3 ADD PUSH1 0x40 MSTORE DUP1 ISZERO PUSH2 0x114B JUMPI DUP2 PUSH1 0x20 ADD JUMPDEST PUSH2 0x1138 PUSH2 0x39B7 JUMP JUMPDEST DUP2 MSTORE PUSH1 0x20 ADD SWAP1 PUSH1 0x1 SWAP1 SUB SWAP1 DUP2 PUSH2 0x1130 JUMPI SWAP1 POP JUMPDEST POP SWAP1 POP PUSH0 JUMPDEST DUP3 DUP2 LT ISZERO PUSH2 0x119E JUMPI DUP4 DUP2 DUP2 MLOAD DUP2 LT PUSH2 0x116B JUMPI PUSH2 0x116A PUSH2 0x49B2 JUMP JUMPDEST JUMPDEST PUSH1 0x20 MUL PUSH1 0x20 ADD ADD MLOAD DUP3 DUP3 DUP2 MLOAD DUP2 LT PUSH2 0x1186 JUMPI PUSH2 0x1185 PUSH2 0x49B2 JUMP JUMPDEST JUMPDEST PUSH1 0x20 MUL PUSH1 0x20 ADD ADD DUP2 SWAP1 MSTORE POP DUP1 DUP1 PUSH1 0x1 ADD SWAP2 POP POP PUSH2 0x1150 JUMP JUMPDEST POP DUP1 SWAP4 POP POP POP POP SWAP2 SWAP1 POP JUMP JUMPDEST PUSH0 PUSH2 0x11B4 DUP4 PUSH2 0x2AEE JUMP JUMPDEST SWAP1 POP PUSH0 DUP2 PUSH0 ADD MLOAD SWAP1 POP PUSH0 DUP3 PUSH1 0x20 ADD MLOAD SWAP1 POP PUSH1 0xA DUP1 DUP2 GT ISZERO PUSH2 0x11D8 JUMPI PUSH2 0x11D7 PUSH2 0x3E0B JUMP JUMPDEST JUMPDEST DUP3 PUSH2 0x220 ADD MLOAD PUSH1 0xA DUP2 GT ISZERO PUSH2 0x11F0 JUMPI PUSH2 0x11EF PUSH2 0x3E0B JUMP JUMPDEST JUMPDEST SUB PUSH2 0x1232 JUMPI DUP5 PUSH1 0x40 MLOAD PUSH32 0x48B3CCEC00000000000000000000000000000000000000000000000000000000 DUP2 MSTORE PUSH1 0x4 ADD PUSH2 0x1229 SWAP2 SWAP1 PUSH2 0x4A9A JUMP JUMPDEST PUSH1 0x40 MLOAD DUP1 SWAP2 SUB SWAP1 REVERT JUMPDEST DUP2 PUSH2 0x200 ADD MLOAD PUSH20 0xFFFFFFFFFFFFFFFFFFFFFFFFFFFFFFFFFFFFFFFF AND CALLER PUSH20 0xFFFFFFFFFFFFFFFFFFFFFFFFFFFFFFFFFFFFFFFF AND EQ PUSH2 0x12A7 JUMPI DUP5 PUSH1 0x40 MLOAD PUSH32 0x48B3CCEC00000000000000000000000000000000000000000000000000000000 DUP2 MSTORE PUSH1 0x4 ADD PUSH2 0x129E SWAP2 SWAP1 PUSH2 0x4F10 JUMP JUMPDEST PUSH1 0x40 MLOAD DUP1 SWAP2 SUB SWAP1 REVERT JUMPDEST PUSH1 0x3 PUSH1 0xA DUP2 GT ISZERO PUSH2 0x12BB JUMPI PUSH2 0x12BA PUSH2 0x3E0B JUMP JUMPDEST JUMPDEST DUP3 PUSH2 0x220 ADD MLOAD PUSH1 0xA DUP2 GT ISZERO PUSH2 0x12D3 JUMPI PUSH2 0x12D2 PUSH2 0x3E0B JUMP JUMPDEST JUMPDEST SUB PUSH2 0x13CC JUMPI PUSH1 0x4 PUSH1 0xA DUP2 GT ISZERO PUSH2 0x12EC JUMPI PUSH2 0x12EB PUSH2 0x3E0B JUMP JUMPDEST JUMPDEST DUP5 PUSH1 0xA DUP2 GT ISZERO PUSH2 0x12FF JUMPI PUSH2 0x12FE PUSH2 0x3E0B JUMP JUMPDEST JUMPDEST SUB PUSH2 0x138A JUMPI DUP4 PUSH0 DUP3 DUP2 SLOAD DUP2 LT PUSH2 0x1318 JUMPI PUSH2 0x1317 PUSH2 0x49B2 JUMP JUMPDEST JUMPDEST SWAP1 PUSH0 MSTORE PUSH1 0x20 PUSH0 KECCAK256 SWAP1 PUSH1 0x11 MUL ADD PUSH1 0x10 ADD PUSH1 0x14 PUSH2 0x100 EXP DUP2 SLOAD DUP2 PUSH1 0xFF MUL NOT AND SWAP1 DUP4 PUSH1 0xA DUP2 GT ISZERO PUSH2 0x1349 JUMPI PUSH2 0x1348 PUSH2 0x3E0B JUMP JUMPDEST JUMPDEST MUL OR SWAP1 SSTORE POP PUSH32 0x2D9D560C99C3BC1724FC52A39A33A239E75EF98285E83DFB9AA7C87F6B5B289C DUP6 PUSH1 0x40 MLOAD PUSH2 0x137D SWAP2 SWAP1 PUSH2 0x4BE0 JUMP JUMPDEST PUSH1 0x40 MLOAD DUP1 SWAP2 SUB SWAP1 LOG1 PUSH2 0x13C7 JUMP JUMPDEST DUP5 PUSH1 0x40 MLOAD PUSH32 0x48B3CCEC00000000000000000000000000000000000000000000000000000000 DUP2 MSTORE PUSH1 0x4 ADD PUSH2 0x13BE SWAP2 SWAP1 PUSH2 0x4FD9 JUMP JUMPDEST PUSH1 0x40 MLOAD DUP1 SWAP2 SUB SWAP1 REVERT JUMPDEST PUSH2 0x177B JUMP JUMPDEST PUSH1 0x4 PUSH1 0xA DUP2 GT ISZERO PUSH2 0x13E0 JUMPI PUSH2 0x13DF PUSH2 0x3E0B JUMP JUMPDEST JUMPDEST DUP3 PUSH2 0x220 ADD MLOAD PUSH1 0xA DUP2 GT ISZERO PUSH2 0x13F8 JUMPI PUSH2 0x13F7 PUSH2 0x3E0B JUMP JUMPDEST JUMPDEST SUB PUSH2 0x14F1 JUMPI PUSH1 0x5 PUSH1 0xA DUP2 GT ISZERO PUSH2 0x1411 JUMPI PUSH2 0x1410 PUSH2 0x3E0B JUMP JUMPDEST JUMPDEST DUP5 PUSH1 0xA DUP2 GT ISZERO PUSH2 0x1424 JUMPI PUSH2 0x1423 PUSH2 0x3E0B JUMP JUMPDEST JUMPDEST SUB PUSH2 0x14AF JUMPI DUP4 PUSH0 DUP3 DUP2 SLOAD DUP2 LT PUSH2 0x143D JUMPI PUSH2 0x143C PUSH2 0x49B2 JUMP JUMPDEST JUMPDEST SWAP1 PUSH0 MSTORE PUSH1 0x20 PUSH0 KECCAK256 SWAP1 PUSH1 0x11 MUL ADD PUSH1 0x10 ADD PUSH1 0x14 PUSH2 0x100 EXP DUP2 SLOAD DUP2 PUSH1 0xFF MUL NOT AND SWAP1 DUP4 PUSH1 0xA DUP2 GT ISZERO PUSH2 0x146E JUMPI PUSH2 0x146D PUSH2 0x3E0B JUMP JUMPDEST JUMPDEST MUL OR SWAP1 SSTORE POP PUSH32 0x2D9D560C99C3BC1724FC52A39A33A239E75EF98285E83DFB9AA7C87F6B5B289C DUP6 PUSH1 0x40 MLOAD PUSH2 0x14A2 SWAP2 SWAP1 PUSH2 0x4BE0 JUMP JUMPDEST PUSH1 0x40 MLOAD DUP1 SWAP2 SUB SWAP1 LOG1 PUSH2 0x14EC JUMP JUMPDEST DUP5 PUSH1 0x40 MLOAD PUSH32 0x48B3CCEC00000000000000000000000000000000000000000000000000000000 DUP2 MSTORE PUSH1 0x4 ADD PUSH2 0x14E3 SWAP2 SWAP1 PUSH2 0x50A2 JUMP JUMPDEST PUSH1 0x40 MLOAD DUP1 SWAP2 SUB SWAP1 REVERT JUMPDEST PUSH2 0x177A JUMP JUMPDEST PUSH1 0x5 PUSH1 0xA DUP2 GT ISZERO PUSH2 0x1505 JUMPI PUSH2 0x1504 PUSH2 0x3E0B JUMP JUMPDEST JUMPDEST DUP3 PUSH2 0x220 ADD MLOAD PUSH1 0xA DUP2 GT ISZERO PUSH2 0x151D JUMPI PUSH2 0x151C PUSH2 0x3E0B JUMP JUMPDEST JUMPDEST SUB PUSH2 0x1616 JUMPI PUSH1 0x6 PUSH1 0xA DUP2 GT ISZERO PUSH2 0x1536 JUMPI PUSH2 0x1535 PUSH2 0x3E0B JUMP JUMPDEST JUMPDEST DUP5 PUSH1 0xA DUP2 GT ISZERO PUSH2 0x1549 JUMPI PUSH2 0x1548 PUSH2 0x3E0B JUMP JUMPDEST JUMPDEST SUB PUSH2 0x15D4 JUMPI DUP4 PUSH0 DUP3 DUP2 SLOAD DUP2 LT PUSH2 0x1562 JUMPI PUSH2 0x1561 PUSH2 0x49B2 JUMP JUMPDEST JUMPDEST SWAP1 PUSH0 MSTORE PUSH1 0x20 PUSH0 KECCAK256 SWAP1 PUSH1 0x11 MUL ADD PUSH1 0x10 ADD PUSH1 0x14 PUSH2 0x100 EXP DUP2 SLOAD DUP2 PUSH1 0xFF MUL NOT AND SWAP1 DUP4 PUSH1 0xA DUP2 GT ISZERO PUSH2 0x1593 JUMPI PUSH2 0x1592 PUSH2 0x3E0B JUMP JUMPDEST JUMPDEST MUL OR SWAP1 SSTORE POP PUSH32 0x2D9D560C99C3BC1724FC52A39A33A239E75EF98285E83DFB9AA7C87F6B5B289C DUP6 PUSH1 0x40 MLOAD PUSH2 0x15C7 SWAP2 SWAP1 PUSH2 0x4BE0 JUMP JUMPDEST PUSH1 0x40 MLOAD DUP1 SWAP2 SUB SWAP1 LOG1 PUSH2 0x1611 JUMP JUMPDEST DUP5 PUSH1 0x40 MLOAD PUSH32 0x48B3CCEC00000000000000000000000000000000000000000000000000000000 DUP2 MSTORE PUSH1 0x4 ADD PUSH2 0x1608 SWAP2 SWAP1 PUSH2 0x516B JUMP JUMPDEST PUSH1 0x40 MLOAD DUP1 SWAP2 SUB SWAP1 REVERT JUMPDEST PUSH2 0x1779 JUMP JUMPDEST PUSH1 0x6 PUSH1 0xA DUP2 GT ISZERO PUSH2 0x162A JUMPI PUSH2 0x1629 PUSH2 0x3E0B JUMP JUMPDEST JUMPDEST DUP3 PUSH2 0x220 ADD MLOAD PUSH1 0xA DUP2 GT ISZERO PUSH2 0x1642 JUMPI PUSH2 0x1641 PUSH2 0x3E0B JUMP JUMPDEST JUMPDEST SUB PUSH2 0x173B JUMPI PUSH1 0x7 PUSH1 0xA DUP2 GT ISZERO PUSH2 0x165B JUMPI PUSH2 0x165A PUSH2 0x3E0B JUMP JUMPDEST JUMPDEST DUP5 PUSH1 0xA DUP2 GT ISZERO PUSH2 0x166E JUMPI PUSH2 0x166D PUSH2 0x3E0B JUMP JUMPDEST JUMPDEST SUB PUSH2 0x16F9 JUMPI DUP4 PUSH0 DUP3 DUP2 SLOAD DUP2 LT PUSH2 0x1687 JUMPI PUSH2 0x1686 PUSH2 0x49B2 JUMP JUMPDEST JUMPDEST SWAP1 PUSH0 MSTORE PUSH1 0x20 PUSH0 KECCAK256 SWAP1 PUSH1 0x11 MUL ADD PUSH1 0x10 ADD PUSH1 0x14 PUSH2 0x100 EXP DUP2 SLOAD DUP2 PUSH1 0xFF MUL NOT AND SWAP1 DUP4 PUSH1 0xA DUP2 GT ISZERO PUSH2 0x16B8 JUMPI PUSH2 0x16B7 PUSH2 0x3E0B JUMP JUMPDEST JUMPDEST MUL OR SWAP1 SSTORE POP PUSH32 0x2D9D560C99C3BC1724FC52A39A33A239E75EF98285E83DFB9AA7C87F6B5B289C DUP6 PUSH1 0x40 MLOAD PUSH2 0x16EC SWAP2 SWAP1 PUSH2 0x4BE0 JUMP JUMPDEST PUSH1 0x40 MLOAD DUP1 SWAP2 SUB SWAP1 LOG1 PUSH2 0x1736 JUMP JUMPDEST DUP5 PUSH1 0x40 MLOAD PUSH32 0x48B3CCEC00000000000000000000000000000000000000000000000000000000 DUP2 MSTORE PUSH1 0x4 ADD PUSH2 0x172D SWAP2 SWAP1 PUSH2 0x5234 JUMP JUMPDEST PUSH1 0x40 MLOAD DUP1 SWAP2 SUB SWAP1 REVERT JUMPDEST PUSH2 0x1778 JUMP JUMPDEST DUP5 PUSH1 0x40 MLOAD PUSH32 0x48B3CCEC00000000000000000000000000000000000000000000000000000000 DUP2 MSTORE PUSH1 0x4 ADD PUSH2 0x176F SWAP2 SWAP1 PUSH2 0x5323 JUMP JUMPDEST PUSH1 0x40 MLOAD DUP1 SWAP2 SUB SWAP1 REVERT JUMPDEST JUMPDEST JUMPDEST JUMPDEST POP POP POP POP POP JUMP JUMPDEST PUSH0 PUSH2 0x178C DUP3 PUSH2 0x2AEE JUMP JUMPDEST SWAP1 POP PUSH0 DUP2 PUSH0 ADD MLOAD SWAP1 POP PUSH0 DUP3 PUSH1 0x20 ADD MLOAD SWAP1 POP PUSH1 0x1 PUSH1 0xA DUP2 GT ISZERO PUSH2 0x17B1 JUMPI PUSH2 0x17B0 PUSH2 0x3E0B JUMP JUMPDEST JUMPDEST DUP3 PUSH2 0x220 ADD MLOAD PUSH1 0xA DUP2 GT ISZERO PUSH2 0x17C9 JUMPI PUSH2 0x17C8 PUSH2 0x3E0B JUMP JUMPDEST JUMPDEST EQ DUP1 PUSH2 0x17FD JUMPI POP PUSH0 PUSH1 0xA DUP2 GT ISZERO PUSH2 0x17E3 JUMPI PUSH2 0x17E2 PUSH2 0x3E0B JUMP JUMPDEST JUMPDEST DUP3 PUSH2 0x220 ADD MLOAD PUSH1 0xA DUP2 GT ISZERO PUSH2 0x17FB JUMPI PUSH2 0x17FA PUSH2 0x3E0B JUMP JUMPDEST JUMPDEST EQ JUMPDEST ISZERO PUSH2 0x19CC JUMPI DUP2 PUSH1 0x40 ADD MLOAD PUSH20 0xFFFFFFFFFFFFFFFFFFFFFFFFFFFFFFFFFFFFFFFF AND CALLER PUSH20 0xFFFFFFFFFFFFFFFFFFFFFFFFFFFFFFFFFFFFFFFF AND EQ PUSH2 0x1876 JUMPI DUP4 PUSH1 0x40 MLOAD PUSH32 0x48B3CCEC00000000000000000000000000000000000000000000000000000000 DUP2 MSTORE PUSH1 0x4 ADD PUSH2 0x186D SWAP2 SWAP1 PUSH2 0x53C6 JUMP JUMPDEST PUSH1 0x40 MLOAD DUP1 SWAP2 SUB SWAP1 REVERT JUMPDEST PUSH0 PUSH20 0xFFFFFFFFFFFFFFFFFFFFFFFFFFFFFFFFFFFFFFFF AND DUP3 PUSH2 0x200 ADD MLOAD PUSH20 0xFFFFFFFFFFFFFFFFFFFFFFFFFFFFFFFFFFFFFFFF AND EQ PUSH2 0x1943 JUMPI DUP2 PUSH2 0x1E0 ADD MLOAD TIMESTAMP LT PUSH2 0x1906 JUMPI PUSH1 0x2 PUSH0 DUP3 DUP2 SLOAD DUP2 LT PUSH2 0x18CF JUMPI PUSH2 0x18CE PUSH2 0x49B2 JUMP JUMPDEST JUMPDEST SWAP1 PUSH0 MSTORE PUSH1 0x20 PUSH0 KECCAK256 SWAP1 PUSH1 0x11 MUL ADD PUSH1 0x10 ADD PUSH1 0x14 PUSH2 0x100 EXP DUP2 SLOAD DUP2 PUSH1 0xFF MUL NOT AND SWAP1 DUP4 PUSH1 0xA DUP2 GT ISZERO PUSH2 0x1900 JUMPI PUSH2 0x18FF PUSH2 0x3E0B JUMP JUMPDEST JUMPDEST MUL OR SWAP1 SSTORE POP JUMPDEST DUP4 PUSH1 0x40 MLOAD PUSH32 0xAECFF84000000000000000000000000000000000000000000000000000000000 DUP2 MSTORE PUSH1 0x4 ADD PUSH2 0x193A SWAP2 SWAP1 PUSH2 0x5469 JUMP JUMPDEST PUSH1 0x40 MLOAD DUP1 SWAP2 SUB SWAP1 REVERT JUMPDEST PUSH1 0xA PUSH0 DUP3 DUP2 SLOAD DUP2 LT PUSH2 0x1958 JUMPI PUSH2 0x1957 PUSH2 0x49B2 JUMP JUMPDEST JUMPDEST SWAP1 PUSH0 MSTORE PUSH1 0x20 PUSH0 KECCAK256 SWAP1 PUSH1 0x11 MUL ADD PUSH1 0x10 ADD PUSH1 0x14 PUSH2 0x100 EXP DUP2 SLOAD DUP2 PUSH1 0xFF MUL NOT AND SWAP1 DUP4 PUSH1 0xA DUP2 GT ISZERO PUSH2 0x1989 JUMPI PUSH2 0x1988 PUSH2 0x3E0B JUMP JUMPDEST JUMPDEST MUL OR SWAP1 SSTORE POP PUSH32 0xDFA422881F63493E54CCCE54F113252111E0FB2338B99C336496F54C6B5FF7F6 DUP5 CALLER PUSH1 0x40 MLOAD PUSH2 0x19BF SWAP3 SWAP2 SWAP1 PUSH2 0x549C JUMP JUMPDEST PUSH1 0x40 MLOAD DUP1 SWAP2 SUB SWAP1 LOG1 PUSH2 0x1A09 JUMP JUMPDEST DUP4 PUSH1 0x40 MLOAD PUSH32 0xAECFF84000000000000000000000000000000000000000000000000000000000 DUP2 MSTORE PUSH1 0x4 ADD PUSH2 0x1A00 SWAP2 SWAP1 PUSH2 0x553A JUMP JUMPDEST PUSH1 0x40 MLOAD DUP1 SWAP2 SUB SWAP1 REVERT JUMPDEST POP POP POP POP JUMP JUMPDEST PUSH1 0x60 PUSH0 CALLER SWAP1 POP PUSH0 DUP1 DUP1 SLOAD SWAP1 POP PUSH8 0xFFFFFFFFFFFFFFFF DUP2 GT ISZERO PUSH2 0x1A34 JUMPI PUSH2 0x1A33 PUSH2 0x3AD0 JUMP JUMPDEST JUMPDEST PUSH1 0x40 MLOAD SWAP1 DUP1 DUP3 MSTORE DUP1 PUSH1 0x20 MUL PUSH1 0x20 ADD DUP3 ADD PUSH1 0x40 MSTORE DUP1 ISZERO PUSH2 0x1A6D JUMPI DUP2 PUSH1 0x20 ADD JUMPDEST PUSH2 0x1A5A PUSH2 0x39B7 JUMP JUMPDEST DUP2 MSTORE PUSH1 0x20 ADD SWAP1 PUSH1 0x1 SWAP1 SUB SWAP1 DUP2 PUSH2 0x1A52 JUMPI SWAP1 POP JUMPDEST POP SWAP1 POP PUSH0 DUP1 JUMPDEST PUSH0 DUP1 SLOAD SWAP1 POP DUP2 LT ISZERO PUSH2 0x1F73 JUMPI PUSH0 DUP1 DUP3 DUP2 SLOAD DUP2 LT PUSH2 0x1A93 JUMPI PUSH2 0x1A92 PUSH2 0x49B2 JUMP JUMPDEST JUMPDEST SWAP1 PUSH0 MSTORE PUSH1 0x20 PUSH0 KECCAK256 SWAP1 PUSH1 0x11 MUL ADD PUSH1 0x40 MLOAD DUP1 PUSH2 0x240 ADD PUSH1 0x40 MSTORE SWAP1 DUP2 PUSH0 DUP3 ADD DUP1 SLOAD PUSH2 0x1ABA SWAP1 PUSH2 0x4E29 JUMP JUMPDEST DUP1 PUSH1 0x1F ADD PUSH1 0x20 DUP1 SWAP2 DIV MUL PUSH1 0x20 ADD PUSH1 0x40 MLOAD SWAP1 DUP2 ADD PUSH1 0x40 MSTORE DUP1 SWAP3 SWAP2 SWAP1 DUP2 DUP2 MSTORE PUSH1 0x20 ADD DUP3 DUP1 SLOAD PUSH2 0x1AE6 SWAP1 PUSH2 0x4E29 JUMP JUMPDEST DUP1 ISZERO PUSH2 0x1B31 JUMPI DUP1 PUSH1 0x1F LT PUSH2 0x1B08 JUMPI PUSH2 0x100 DUP1 DUP4 SLOAD DIV MUL DUP4 MSTORE SWAP2 PUSH1 0x20 ADD SWAP2 PUSH2 0x1B31 JUMP JUMPDEST DUP3 ADD SWAP2 SWAP1 PUSH0 MSTORE PUSH1 0x20 PUSH0 KECCAK256 SWAP1 JUMPDEST DUP2 SLOAD DUP2 MSTORE SWAP1 PUSH1 0x1 ADD SWAP1 PUSH1 0x20 ADD DUP1 DUP4 GT PUSH2 0x1B14 JUMPI DUP3 SWAP1 SUB PUSH1 0x1F AND DUP3 ADD SWAP2 JUMPDEST POP POP POP POP POP DUP2 MSTORE PUSH1 0x20 ADD PUSH1 0x1 DUP3 ADD DUP1 SLOAD PUSH2 0x1B4A SWAP1 PUSH2 0x4E29 JUMP JUMPDEST DUP1 PUSH1 0x1F ADD PUSH1 0x20 DUP1 SWAP2 DIV MUL PUSH1 0x20 ADD PUSH1 0x40 MLOAD SWAP1 DUP2 ADD PUSH1 0x40 MSTORE DUP1 SWAP3 SWAP2 SWAP1 DUP2 DUP2 MSTORE PUSH1 0x20 ADD DUP3 DUP1 SLOAD PUSH2 0x1B76 SWAP1 PUSH2 0x4E29 JUMP JUMPDEST DUP1 ISZERO PUSH2 0x1BC1 JUMPI DUP1 PUSH1 0x1F LT PUSH2 0x1B98 JUMPI PUSH2 0x100 DUP1 DUP4 SLOAD DIV MUL DUP4 MSTORE SWAP2 PUSH1 0x20 ADD SWAP2 PUSH2 0x1BC1 JUMP JUMPDEST DUP3 ADD SWAP2 SWAP1 PUSH0 MSTORE PUSH1 0x20 PUSH0 KECCAK256 SWAP1 JUMPDEST DUP2 SLOAD DUP2 MSTORE SWAP1 PUSH1 0x1 ADD SWAP1 PUSH1 0x20 ADD DUP1 DUP4 GT PUSH2 0x1BA4 JUMPI DUP3 SWAP1 SUB PUSH1 0x1F AND DUP3 ADD SWAP2 JUMPDEST POP POP POP POP POP DUP2 MSTORE PUSH1 0x20 ADD PUSH1 0x2 DUP3 ADD PUSH0 SWAP1 SLOAD SWAP1 PUSH2 0x100 EXP SWAP1 DIV PUSH20 0xFFFFFFFFFFFFFFFFFFFFFFFFFFFFFFFFFFFFFFFF AND PUSH20 0xFFFFFFFFFFFFFFFFFFFFFFFFFFFFFFFFFFFFFFFF AND PUSH20 0xFFFFFFFFFFFFFFFFFFFFFFFFFFFFFFFFFFFFFFFF AND DUP2 MSTORE PUSH1 0x20 ADD PUSH1 0x3 DUP3 ADD PUSH0 SWAP1 SLOAD SWAP1 PUSH2 0x100 EXP SWAP1 DIV PUSH20 0xFFFFFFFFFFFFFFFFFFFFFFFFFFFFFFFFFFFFFFFF AND PUSH20 0xFFFFFFFFFFFFFFFFFFFFFFFFFFFFFFFFFFFFFFFF AND PUSH20 0xFFFFFFFFFFFFFFFFFFFFFFFFFFFFFFFFFFFFFFFF AND DUP2 MSTORE PUSH1 0x20 ADD PUSH1 0x4 DUP3 ADD SLOAD DUP2 MSTORE PUSH1 0x20 ADD PUSH1 0x5 DUP3 ADD SLOAD DUP2 MSTORE PUSH1 0x20 ADD PUSH1 0x6 DUP3 ADD SLOAD DUP2 MSTORE PUSH1 0x20 ADD PUSH1 0x7 DUP3 ADD SLOAD DUP2 MSTORE PUSH1 0x20 ADD PUSH1 0x8 DUP3 ADD DUP1 SLOAD PUSH2 0x1CAC SWAP1 PUSH2 0x4E29 JUMP JUMPDEST DUP1 PUSH1 0x1F ADD PUSH1 0x20 DUP1 SWAP2 DIV MUL PUSH1 0x20 ADD PUSH1 0x40 MLOAD SWAP1 DUP2 ADD PUSH1 0x40 MSTORE DUP1 SWAP3 SWAP2 SWAP1 DUP2 DUP2 MSTORE PUSH1 0x20 ADD DUP3 DUP1 SLOAD PUSH2 0x1CD8 SWAP1 PUSH2 0x4E29 JUMP JUMPDEST DUP1 ISZERO PUSH2 0x1D23 JUMPI DUP1 PUSH1 0x1F LT PUSH2 0x1CFA JUMPI PUSH2 0x100 DUP1 DUP4 SLOAD DIV MUL DUP4 MSTORE SWAP2 PUSH1 0x20 ADD SWAP2 PUSH2 0x1D23 JUMP JUMPDEST DUP3 ADD SWAP2 SWAP1 PUSH0 MSTORE PUSH1 0x20 PUSH0 KECCAK256 SWAP1 JUMPDEST DUP2 SLOAD DUP2 MSTORE SWAP1 PUSH1 0x1 ADD SWAP1 PUSH1 0x20 ADD DUP1 DUP4 GT PUSH2 0x1D06 JUMPI DUP3 SWAP1 SUB PUSH1 0x1F AND DUP3 ADD SWAP2 JUMPDEST POP POP POP POP POP DUP2 MSTORE PUSH1 0x20 ADD PUSH1 0x9 DUP3 ADD DUP1 SLOAD PUSH2 0x1D3C SWAP1 PUSH2 0x4E29 JUMP JUMPDEST DUP1 PUSH1 0x1F ADD PUSH1 0x20 DUP1 SWAP2 DIV MUL PUSH1 0x20 ADD PUSH1 0x40 MLOAD SWAP1 DUP2 ADD PUSH1 0x40 MSTORE DUP1 SWAP3 SWAP2 SWAP1 DUP2 DUP2 MSTORE PUSH1 0x20 ADD DUP3 DUP1 SLOAD PUSH2 0x1D68 SWAP1 PUSH2 0x4E29 JUMP JUMPDEST DUP1 ISZERO PUSH2 0x1DB3 JUMPI DUP1 PUSH1 0x1F LT PUSH2 0x1D8A JUMPI PUSH2 0x100 DUP1 DUP4 SLOAD DIV MUL DUP4 MSTORE SWAP2 PUSH1 0x20 ADD SWAP2 PUSH2 0x1DB3 JUMP JUMPDEST DUP3 ADD SWAP2 SWAP1 PUSH0 MSTORE PUSH1 0x20 PUSH0 KECCAK256 SWAP1 JUMPDEST DUP2 SLOAD DUP2 MSTORE SWAP1 PUSH1 0x1 ADD SWAP1 PUSH1 0x20 ADD DUP1 DUP4 GT PUSH2 0x1D96 JUMPI DUP3 SWAP1 SUB PUSH1 0x1F AND DUP3 ADD SWAP2 JUMPDEST POP POP POP POP POP DUP2 MSTORE PUSH1 0x20 ADD PUSH1 0xA DUP3 ADD SLOAD DUP2 MSTORE PUSH1 0x20 ADD PUSH1 0xB DUP3 ADD SLOAD DUP2 MSTORE PUSH1 0x20 ADD PUSH1 0xC DUP3 ADD SLOAD DUP2 MSTORE PUSH1 0x20 ADD PUSH1 0xD DUP3 ADD SLOAD DUP2 MSTORE PUSH1 0x20 ADD PUSH1 0xE DUP3 ADD SLOAD DUP2 MSTORE PUSH1 0x20 ADD PUSH1 0xF DUP3 ADD SLOAD DUP2 MSTORE PUSH1 0x20 ADD PUSH1 0x10 DUP3 ADD PUSH0 SWAP1 SLOAD SWAP1 PUSH2 0x100 EXP SWAP1 DIV PUSH20 0xFFFFFFFFFFFFFFFFFFFFFFFFFFFFFFFFFFFFFFFF AND PUSH20 0xFFFFFFFFFFFFFFFFFFFFFFFFFFFFFFFFFFFFFFFF AND PUSH20 0xFFFFFFFFFFFFFFFFFFFFFFFFFFFFFFFFFFFFFFFF AND DUP2 MSTORE PUSH1 0x20 ADD PUSH1 0x10 DUP3 ADD PUSH1 0x14 SWAP1 SLOAD SWAP1 PUSH2 0x100 EXP SWAP1 DIV PUSH1 0xFF AND PUSH1 0xA DUP2 GT ISZERO PUSH2 0x1E72 JUMPI PUSH2 0x1E71 PUSH2 0x3E0B JUMP JUMPDEST JUMPDEST PUSH1 0xA DUP2 GT ISZERO PUSH2 0x1E84 JUMPI PUSH2 0x1E83 PUSH2 0x3E0B JUMP JUMPDEST JUMPDEST DUP2 MSTORE POP POP SWAP1 POP DUP5 PUSH20 0xFFFFFFFFFFFFFFFFFFFFFFFFFFFFFFFFFFFFFFFF AND DUP2 PUSH1 0x40 ADD MLOAD PUSH20 0xFFFFFFFFFFFFFFFFFFFFFFFFFFFFFFFFFFFFFFFF AND EQ DUP1 PUSH2 0x1EF7 JUMPI POP DUP5 PUSH20 0xFFFFFFFFFFFFFFFFFFFFFFFFFFFFFFFFFFFFFFFF AND DUP2 PUSH1 0x60 ADD MLOAD PUSH20 0xFFFFFFFFFFFFFFFFFFFFFFFFFFFFFFFFFFFFFFFF AND EQ JUMPDEST DUP1 PUSH2 0x1F32 JUMPI POP DUP5 PUSH20 0xFFFFFFFFFFFFFFFFFFFFFFFFFFFFFFFFFFFFFFFF AND DUP2 PUSH2 0x200 ADD MLOAD PUSH20 0xFFFFFFFFFFFFFFFFFFFFFFFFFFFFFFFFFFFFFFFF AND EQ JUMPDEST ISZERO PUSH2 0x1F65 JUMPI DUP1 DUP5 DUP5 DUP2 MLOAD DUP2 LT PUSH2 0x1F4B JUMPI PUSH2 0x1F4A PUSH2 0x49B2 JUMP JUMPDEST JUMPDEST PUSH1 0x20 MUL PUSH1 0x20 ADD ADD DUP2 SWAP1 MSTORE POP DUP3 DUP1 PUSH2 0x1F61 SWAP1 PUSH2 0x4E59 JUMP JUMPDEST SWAP4 POP POP JUMPDEST POP DUP1 DUP1 PUSH1 0x1 ADD SWAP2 POP POP PUSH2 0x1A73 JUMP JUMPDEST POP PUSH0 DUP2 PUSH8 0xFFFFFFFFFFFFFFFF DUP2 GT ISZERO PUSH2 0x1F8F JUMPI PUSH2 0x1F8E PUSH2 0x3AD0 JUMP JUMPDEST JUMPDEST PUSH1 0x40 MLOAD SWAP1 DUP1 DUP3 MSTORE DUP1 PUSH1 0x20 MUL PUSH1 0x20 ADD DUP3 ADD PUSH1 0x40 MSTORE DUP1 ISZERO PUSH2 0x1FC8 JUMPI DUP2 PUSH1 0x20 ADD JUMPDEST PUSH2 0x1FB5 PUSH2 0x39B7 JUMP JUMPDEST DUP2 MSTORE PUSH1 0x20 ADD SWAP1 PUSH1 0x1 SWAP1 SUB SWAP1 DUP2 PUSH2 0x1FAD JUMPI SWAP1 POP JUMPDEST POP SWAP1 POP PUSH0 JUMPDEST DUP3 DUP2 LT ISZERO PUSH2 0x201B JUMPI DUP4 DUP2 DUP2 MLOAD DUP2 LT PUSH2 0x1FE8 JUMPI PUSH2 0x1FE7 PUSH2 0x49B2 JUMP JUMPDEST JUMPDEST PUSH1 0x20 MUL PUSH1 0x20 ADD ADD MLOAD DUP3 DUP3 DUP2 MLOAD DUP2 LT PUSH2 0x2003 JUMPI PUSH2 0x2002 PUSH2 0x49B2 JUMP JUMPDEST JUMPDEST PUSH1 0x20 MUL PUSH1 0x20 ADD ADD DUP2 SWAP1 MSTORE POP DUP1 DUP1 PUSH1 0x1 ADD SWAP2 POP POP PUSH2 0x1FCD JUMP JUMPDEST POP DUP1 SWAP5 POP POP POP POP POP SWAP1 JUMP JUMPDEST DUP1 PUSH1 0x20 ADD MLOAD DUP2 PUSH1 0x40 ADD MLOAD PUSH2 0x203A DUP4 CALLVALUE PUSH2 0x31B2 JUMP JUMPDEST PUSH0 PUSH2 0x2045 PUSH1 0x20 PUSH2 0x32EC JUMP JUMPDEST SWAP1 POP PUSH0 PUSH1 0x40 MLOAD DUP1 PUSH2 0x240 ADD PUSH1 0x40 MSTORE DUP1 DUP4 DUP2 MSTORE PUSH1 0x20 ADD DUP7 PUSH0 ADD MLOAD DUP2 MSTORE PUSH1 0x20 ADD DUP7 PUSH1 0x20 ADD MLOAD PUSH20 0xFFFFFFFFFFFFFFFFFFFFFFFFFFFFFFFFFFFFFFFF AND DUP2 MSTORE PUSH1 0x20 ADD DUP7 PUSH1 0x40 ADD MLOAD PUSH20 0xFFFFFFFFFFFFFFFFFFFFFFFFFFFFFFFFFFFFFFFF AND DUP2 MSTORE PUSH1 0x20 ADD DUP7 PUSH1 0x60 ADD MLOAD DUP2 MSTORE PUSH1 0x20 ADD DUP7 PUSH1 0x80 ADD MLOAD DUP2 MSTORE PUSH1 0x20 ADD DUP7 PUSH1 0xA0 ADD MLOAD DUP2 MSTORE PUSH1 0x20 ADD DUP7 PUSH1 0xC0 ADD MLOAD DUP2 MSTORE PUSH1 0x20 ADD DUP7 PUSH1 0xE0 ADD MLOAD DUP2 MSTORE PUSH1 0x20 ADD DUP7 PUSH2 0x100 ADD MLOAD DUP2 MSTORE PUSH1 0x20 ADD DUP7 PUSH2 0x120 ADD MLOAD DUP2 MSTORE PUSH1 0x20 ADD CALLVALUE DUP2 MSTORE PUSH1 0x20 ADD PUSH0 DUP2 MSTORE PUSH1 0x20 ADD DUP7 PUSH2 0x140 ADD MLOAD DUP2 MSTORE PUSH1 0x20 ADD DUP7 PUSH2 0x160 ADD MLOAD DUP2 MSTORE PUSH1 0x20 ADD PUSH0 PUSH1 0x1 DUP2 GT ISZERO PUSH2 0x2120 JUMPI PUSH2 0x211F PUSH2 0x3E0B JUMP JUMPDEST JUMPDEST DUP8 PUSH2 0x1A0 ADD MLOAD PUSH1 0x1 DUP2 GT ISZERO PUSH2 0x2138 JUMPI PUSH2 0x2137 PUSH2 0x3E0B JUMP JUMPDEST JUMPDEST EQ PUSH2 0x2148 JUMPI DUP7 PUSH2 0x180 ADD MLOAD PUSH2 0x2166 JUMP JUMPDEST DUP7 PUSH2 0x180 ADD MLOAD PUSH1 0x3C PUSH2 0x215A SWAP2 SWAP1 PUSH2 0x45C2 JUMP JUMPDEST TIMESTAMP PUSH2 0x2165 SWAP2 SWAP1 PUSH2 0x48B9 JUMP JUMPDEST JUMPDEST DUP2 MSTORE PUSH1 0x20 ADD PUSH0 PUSH20 0xFFFFFFFFFFFFFFFFFFFFFFFFFFFFFFFFFFFFFFFF AND DUP2 MSTORE PUSH1 0x20 ADD PUSH0 PUSH1 0x1 DUP2 GT ISZERO PUSH2 0x219A JUMPI PUSH2 0x2199 PUSH2 0x3E0B JUMP JUMPDEST JUMPDEST DUP8 PUSH2 0x1A0 ADD MLOAD PUSH1 0x1 DUP2 GT ISZERO PUSH2 0x21B2 JUMPI PUSH2 0x21B1 PUSH2 0x3E0B JUMP JUMPDEST JUMPDEST EQ PUSH2 0x21BE JUMPI PUSH1 0x1 PUSH2 0x21C0 JUMP JUMPDEST PUSH0 JUMPDEST PUSH1 0xA DUP2 GT ISZERO PUSH2 0x21D2 JUMPI PUSH2 0x21D1 PUSH2 0x3E0B JUMP JUMPDEST JUMPDEST DUP2 MSTORE POP SWAP1 POP PUSH0 DUP2 SWAP1 DUP1 PUSH1 0x1 DUP2 SLOAD ADD DUP1 DUP3 SSTORE DUP1 SWAP2 POP POP PUSH1 0x1 SWAP1 SUB SWAP1 PUSH0 MSTORE PUSH1 0x20 PUSH0 KECCAK256 SWAP1 PUSH1 0x11 MUL ADD PUSH0 SWAP1 SWAP2 SWAP1 SWAP2 SWAP1 SWAP2 POP PUSH0 DUP3 ADD MLOAD DUP2 PUSH0 ADD SWAP1 DUP2 PUSH2 0x2212 SWAP2 SWAP1 PUSH2 0x570A JUMP JUMPDEST POP PUSH1 0x20 DUP3 ADD MLOAD DUP2 PUSH1 0x1 ADD SWAP1 DUP2 PUSH2 0x2228 SWAP2 SWAP1 PUSH2 0x570A JUMP JUMPDEST POP PUSH1 0x40 DUP3 ADD MLOAD DUP2 PUSH1 0x2 ADD PUSH0 PUSH2 0x100 EXP DUP2 SLOAD DUP2 PUSH20 0xFFFFFFFFFFFFFFFFFFFFFFFFFFFFFFFFFFFFFFFF MUL NOT AND SWAP1 DUP4 PUSH20 0xFFFFFFFFFFFFFFFFFFFFFFFFFFFFFFFFFFFFFFFF AND MUL OR SWAP1 SSTORE POP PUSH1 0x60 DUP3 ADD MLOAD DUP2 PUSH1 0x3 ADD PUSH0 PUSH2 0x100 EXP DUP2 SLOAD DUP2 PUSH20 0xFFFFFFFFFFFFFFFFFFFFFFFFFFFFFFFFFFFFFFFF MUL NOT AND SWAP1 DUP4 PUSH20 0xFFFFFFFFFFFFFFFFFFFFFFFFFFFFFFFFFFFFFFFF AND MUL OR SWAP1 SSTORE POP PUSH1 0x80 DUP3 ADD MLOAD DUP2 PUSH1 0x4 ADD SSTORE PUSH1 0xA0 DUP3 ADD MLOAD DUP2 PUSH1 0x5 ADD SSTORE PUSH1 0xC0 DUP3 ADD MLOAD DUP2 PUSH1 0x6 ADD SSTORE PUSH1 0xE0 DUP3 ADD MLOAD DUP2 PUSH1 0x7 ADD SSTORE PUSH2 0x100 DUP3 ADD MLOAD DUP2 PUSH1 0x8 ADD SWAP1 DUP2 PUSH2 0x22F3 SWAP2 SWAP1 PUSH2 0x570A JUMP JUMPDEST POP PUSH2 0x120 DUP3 ADD MLOAD DUP2 PUSH1 0x9 ADD SWAP1 DUP2 PUSH2 0x230A SWAP2 SWAP1 PUSH2 0x570A JUMP JUMPDEST POP PUSH2 0x140 DUP3 ADD MLOAD DUP2 PUSH1 0xA ADD SSTORE PUSH2 0x160 DUP3 ADD MLOAD DUP2 PUSH1 0xB ADD SSTORE PUSH2 0x180 DUP3 ADD MLOAD DUP2 PUSH1 0xC ADD SSTORE PUSH2 0x1A0 DUP3 ADD MLOAD DUP2 PUSH1 0xD ADD SSTORE PUSH2 0x1C0 DUP3 ADD MLOAD DUP2 PUSH1 0xE ADD SSTORE PUSH2 0x1E0 DUP3 ADD MLOAD DUP2 PUSH1 0xF ADD SSTORE PUSH2 0x200 DUP3 ADD MLOAD DUP2 PUSH1 0x10 ADD PUSH0 PUSH2 0x100 EXP DUP2 SLOAD DUP2 PUSH20 0xFFFFFFFFFFFFFFFFFFFFFFFFFFFFFFFFFFFFFFFF MUL NOT AND SWAP1 DUP4 PUSH20 0xFFFFFFFFFFFFFFFFFFFFFFFFFFFFFFFFFFFFFFFF AND MUL OR SWAP1 SSTORE POP PUSH2 0x220 DUP3 ADD MLOAD DUP2 PUSH1 0x10 ADD PUSH1 0x14 PUSH2 0x100 EXP DUP2 SLOAD DUP2 PUSH1 0xFF MUL NOT AND SWAP1 DUP4 PUSH1 0xA DUP2 GT ISZERO PUSH2 0x23C0 JUMPI PUSH2 0x23BF PUSH2 0x3E0B JUMP JUMPDEST JUMPDEST MUL OR SWAP1 SSTORE POP POP POP PUSH32 0x34A186FE574EAF2C1BB47B901FC1F8227EBC865EF86FABE03FDE6B4AB5DFE550 DUP2 PUSH1 0x40 MLOAD PUSH2 0x23F6 SWAP2 SWAP1 PUSH2 0x5849 JUMP JUMPDEST PUSH1 0x40 MLOAD DUP1 SWAP2 SUB SWAP1 LOG1 POP POP POP POP POP JUMP JUMPDEST PUSH0 PUSH2 0x240F DUP5 PUSH2 0x2AEE JUMP JUMPDEST SWAP1 POP PUSH0 DUP2 PUSH0 ADD MLOAD SWAP1 POP PUSH0 DUP3 PUSH1 0x20 ADD MLOAD SWAP1 POP DUP2 PUSH1 0x60 ADD MLOAD PUSH20 0xFFFFFFFFFFFFFFFFFFFFFFFFFFFFFFFFFFFFFFFF AND CALLER PUSH20 0xFFFFFFFFFFFFFFFFFFFFFFFFFFFFFFFFFFFFFFFF AND EQ PUSH2 0x2494 JUMPI DUP6 PUSH1 0x40 MLOAD PUSH32 0x48B3CCEC00000000000000000000000000000000000000000000000000000000 DUP2 MSTORE PUSH1 0x4 ADD PUSH2 0x248B SWAP2 SWAP1 PUSH2 0x58EC JUMP JUMPDEST PUSH1 0x40 MLOAD DUP1 SWAP2 SUB SWAP1 REVERT JUMPDEST PUSH1 0xA DUP1 DUP2 GT ISZERO PUSH2 0x24A7 JUMPI PUSH2 0x24A6 PUSH2 0x3E0B JUMP JUMPDEST JUMPDEST DUP3 PUSH2 0x220 ADD MLOAD PUSH1 0xA DUP2 GT ISZERO PUSH2 0x24BF JUMPI PUSH2 0x24BE PUSH2 0x3E0B JUMP JUMPDEST JUMPDEST SUB PUSH2 0x2501 JUMPI DUP6 PUSH1 0x40 MLOAD PUSH32 0x48B3CCEC00000000000000000000000000000000000000000000000000000000 DUP2 MSTORE PUSH1 0x4 ADD PUSH2 0x24F8 SWAP2 SWAP1 PUSH2 0x4A9A JUMP JUMPDEST PUSH1 0x40 MLOAD DUP1 SWAP2 SUB SWAP1 REVERT JUMPDEST PUSH1 0x8 PUSH1 0xA DUP2 GT ISZERO PUSH2 0x2515 JUMPI PUSH2 0x2514 PUSH2 0x3E0B JUMP JUMPDEST JUMPDEST DUP6 PUSH1 0xA DUP2 GT ISZERO PUSH2 0x2528 JUMPI PUSH2 0x2527 PUSH2 0x3E0B JUMP JUMPDEST JUMPDEST SUB PUSH2 0x285D JUMPI PUSH1 0x7 PUSH1 0xA DUP2 GT ISZERO PUSH2 0x2541 JUMPI PUSH2 0x2540 PUSH2 0x3E0B JUMP JUMPDEST JUMPDEST DUP3 PUSH2 0x220 ADD MLOAD PUSH1 0xA DUP2 GT ISZERO PUSH2 0x2559 JUMPI PUSH2 0x2558 PUSH2 0x3E0B JUMP JUMPDEST JUMPDEST EQ PUSH2 0x259B JUMPI DUP6 PUSH1 0x40 MLOAD PUSH32 0x48B3CCEC00000000000000000000000000000000000000000000000000000000 DUP2 MSTORE PUSH1 0x4 ADD PUSH2 0x2592 SWAP2 SWAP1 PUSH2 0x59B5 JUMP JUMPDEST PUSH1 0x40 MLOAD DUP1 SWAP2 SUB SWAP1 REVERT JUMPDEST PUSH0 PUSH1 0x1 DUP2 GT ISZERO PUSH2 0x25AE JUMPI PUSH2 0x25AD PUSH2 0x3E0B JUMP JUMPDEST JUMPDEST DUP5 PUSH1 0x1 DUP2 GT ISZERO PUSH2 0x25C1 JUMPI PUSH2 0x25C0 PUSH2 0x3E0B JUMP JUMPDEST JUMPDEST SUB PUSH2 0x26B8 JUMPI DUP5 PUSH0 DUP3 DUP2 SLOAD DUP2 LT PUSH2 0x25DA JUMPI PUSH2 0x25D9 PUSH2 0x49B2 JUMP JUMPDEST JUMPDEST SWAP1 PUSH0 MSTORE PUSH1 0x20 PUSH0 KECCAK256 SWAP1 PUSH1 0x11 MUL ADD PUSH1 0x10 ADD PUSH1 0x14 PUSH2 0x100 EXP DUP2 SLOAD DUP2 PUSH1 0xFF MUL NOT AND SWAP1 DUP4 PUSH1 0xA DUP2 GT ISZERO PUSH2 0x260B JUMPI PUSH2 0x260A PUSH2 0x3E0B JUMP JUMPDEST JUMPDEST MUL OR SWAP1 SSTORE POP PUSH2 0x261F DUP7 DUP4 PUSH2 0x200 ADD MLOAD PUSH2 0x341E JUMP JUMPDEST PUSH32 0x0 PUSH20 0xFFFFFFFFFFFFFFFFFFFFFFFFFFFFFFFFFFFFFFFF AND PUSH4 0x48659097 DUP4 PUSH2 0x200 ADD MLOAD DUP5 PUSH2 0x140 ADD MLOAD PUSH0 PUSH1 0x40 MLOAD DUP5 PUSH4 0xFFFFFFFF AND PUSH1 0xE0 SHL DUP2 MSTORE PUSH1 0x4 ADD PUSH2 0x2686 SWAP4 SWAP3 SWAP2 SWAP1 PUSH2 0x5A2E JUMP JUMPDEST PUSH0 PUSH1 0x40 MLOAD DUP1 DUP4 SUB DUP2 PUSH0 DUP8 DUP1 EXTCODESIZE ISZERO DUP1 ISZERO PUSH2 0x269D JUMPI PUSH0 DUP1 REVERT JUMPDEST POP GAS CALL ISZERO DUP1 ISZERO PUSH2 0x26AF JUMPI RETURNDATASIZE PUSH0 DUP1 RETURNDATACOPY RETURNDATASIZE PUSH0 REVERT JUMPDEST POP POP POP POP PUSH2 0x2821 JUMP JUMPDEST PUSH1 0x9 PUSH0 DUP3 DUP2 SLOAD DUP2 LT PUSH2 0x26CD JUMPI PUSH2 0x26CC PUSH2 0x49B2 JUMP JUMPDEST JUMPDEST SWAP1 PUSH0 MSTORE PUSH1 0x20 PUSH0 KECCAK256 SWAP1 PUSH1 0x11 MUL ADD PUSH1 0x10 ADD PUSH1 0x14 PUSH2 0x100 EXP DUP2 SLOAD DUP2 PUSH1 0xFF MUL NOT AND SWAP1 DUP4 PUSH1 0xA DUP2 GT ISZERO PUSH2 0x26FE JUMPI PUSH2 0x26FD PUSH2 0x3E0B JUMP JUMPDEST JUMPDEST MUL OR SWAP1 SSTORE POP PUSH32 0x0 PUSH20 0xFFFFFFFFFFFFFFFFFFFFFFFFFFFFFFFFFFFFFFFF AND PUSH4 0x77E6B3D8 ADDRESS DUP5 PUSH1 0x40 MLOAD DUP4 PUSH4 0xFFFFFFFF AND PUSH1 0xE0 SHL DUP2 MSTORE PUSH1 0x4 ADD PUSH2 0x275E SWAP3 SWAP2 SWAP1 PUSH2 0x5A63 JUMP JUMPDEST PUSH0 PUSH1 0x40 MLOAD DUP1 DUP4 SUB DUP2 PUSH0 DUP8 DUP1 EXTCODESIZE ISZERO DUP1 ISZERO PUSH2 0x2775 JUMPI PUSH0 DUP1 REVERT JUMPDEST POP GAS CALL ISZERO DUP1 ISZERO PUSH2 0x2787 JUMPI RETURNDATASIZE PUSH0 DUP1 RETURNDATACOPY RETURNDATASIZE PUSH0 REVERT JUMPDEST POP POP POP POP PUSH32 0x0 PUSH20 0xFFFFFFFFFFFFFFFFFFFFFFFFFFFFFFFFFFFFFFFF AND PUSH4 0x48659097 DUP4 PUSH2 0x200 ADD MLOAD DUP5 PUSH2 0x140 ADD MLOAD PUSH1 0x1 PUSH1 0x40 MLOAD DUP5 PUSH4 0xFFFFFFFF AND PUSH1 0xE0 SHL DUP2 MSTORE PUSH1 0x4 ADD PUSH2 0x27F3 SWAP4 SWAP3 SWAP2 SWAP1 PUSH2 0x5A2E JUMP JUMPDEST PUSH0 PUSH1 0x40 MLOAD DUP1 DUP4 SUB DUP2 PUSH0 DUP8 DUP1 EXTCODESIZE ISZERO DUP1 ISZERO PUSH2 0x280A JUMPI PUSH0 DUP1 REVERT JUMPDEST POP GAS CALL ISZERO DUP1 ISZERO PUSH2 0x281C JUMPI RETURNDATASIZE PUSH0 DUP1 RETURNDATACOPY RETURNDATASIZE PUSH0 REVERT JUMPDEST POP POP POP POP JUMPDEST PUSH32 0x2D9D560C99C3BC1724FC52A39A33A239E75EF98285E83DFB9AA7C87F6B5B289C DUP7 PUSH1 0x40 MLOAD PUSH2 0x2850 SWAP2 SWAP1 PUSH2 0x4BE0 JUMP JUMPDEST PUSH1 0x40 MLOAD DUP1 SWAP2 SUB SWAP1 LOG1 PUSH2 0x289A JUMP JUMPDEST DUP6 PUSH1 0x40 MLOAD PUSH32 0x48B3CCEC00000000000000000000000000000000000000000000000000000000 DUP2 MSTORE PUSH1 0x4 ADD PUSH2 0x2891 SWAP2 SWAP1 PUSH2 0x5B01 JUMP JUMPDEST PUSH1 0x40 MLOAD DUP1 SWAP2 SUB SWAP1 REVERT JUMPDEST POP POP POP POP POP POP JUMP JUMPDEST CALLER PUSH0 PUSH2 0x28AD DUP4 PUSH2 0x2AEE JUMP JUMPDEST SWAP1 POP PUSH0 DUP2 PUSH0 ADD MLOAD SWAP1 POP PUSH0 DUP3 PUSH1 0x20 ADD MLOAD SWAP1 POP PUSH1 0xA DUP1 DUP2 GT ISZERO PUSH2 0x28D1 JUMPI PUSH2 0x28D0 PUSH2 0x3E0B JUMP JUMPDEST JUMPDEST DUP3 PUSH2 0x220 ADD MLOAD PUSH1 0xA DUP2 GT ISZERO PUSH2 0x28E9 JUMPI PUSH2 0x28E8 PUSH2 0x3E0B JUMP JUMPDEST JUMPDEST SUB PUSH2 0x292B JUMPI DUP5 PUSH1 0x40 MLOAD PUSH32 0x48B3CCEC00000000000000000000000000000000000000000000000000000000 DUP2 MSTORE PUSH1 0x4 ADD PUSH2 0x2922 SWAP2 SWAP1 PUSH2 0x4A9A JUMP JUMPDEST PUSH1 0x40 MLOAD DUP1 SWAP2 SUB SWAP1 REVERT JUMPDEST DUP2 PUSH2 0x1E0 ADD MLOAD TIMESTAMP GT PUSH2 0x2974 JUMPI DUP5 PUSH1 0x40 MLOAD PUSH32 0x94EE0A3B00000000000000000000000000000000000000000000000000000000 DUP2 MSTORE PUSH1 0x4 ADD PUSH2 0x296B SWAP2 SWAP1 PUSH2 0x5B7E JUMP JUMPDEST PUSH1 0x40 MLOAD DUP1 SWAP2 SUB SWAP1 REVERT JUMPDEST PUSH0 PUSH20 0xFFFFFFFFFFFFFFFFFFFFFFFFFFFFFFFFFFFFFFFF AND DUP3 PUSH2 0x200 ADD MLOAD PUSH20 0xFFFFFFFFFFFFFFFFFFFFFFFFFFFFFFFFFFFFFFFF AND SUB PUSH2 0x2A1C JUMPI PUSH2 0x12C TIMESTAMP PUSH2 0x29BA SWAP2 SWAP1 PUSH2 0x48B9 JUMP JUMPDEST PUSH0 DUP3 DUP2 SLOAD DUP2 LT PUSH2 0x29CD JUMPI PUSH2 0x29CC PUSH2 0x49B2 JUMP JUMPDEST JUMPDEST SWAP1 PUSH0 MSTORE PUSH1 0x20 PUSH0 KECCAK256 SWAP1 PUSH1 0x11 MUL ADD PUSH1 0xF ADD DUP2 SWAP1 SSTORE POP PUSH32 0x6FFA02C8BC6683D2C360FE816F622F01283F39FF12E8C01BEDFC43B76147C029 DUP6 PUSH1 0x40 MLOAD PUSH2 0x2A0F SWAP2 SWAP1 PUSH2 0x5C21 JUMP JUMPDEST PUSH1 0x40 MLOAD DUP1 SWAP2 SUB SWAP1 LOG1 PUSH2 0x2AE7 JUMP JUMPDEST CALLER PUSH20 0xFFFFFFFFFFFFFFFFFFFFFFFFFFFFFFFFFFFFFFFF AND DUP3 PUSH2 0x200 ADD MLOAD PUSH20 0xFFFFFFFFFFFFFFFFFFFFFFFFFFFFFFFFFFFFFFFF AND SUB PUSH2 0x2ADB JUMPI PUSH1 0x2 PUSH0 DUP3 DUP2 SLOAD DUP2 LT PUSH2 0x2A69 JUMPI PUSH2 0x2A68 PUSH2 0x49B2 JUMP JUMPDEST JUMPDEST SWAP1 PUSH0 MSTORE PUSH1 0x20 PUSH0 KECCAK256 SWAP1 PUSH1 0x11 MUL ADD PUSH1 0x10 ADD PUSH1 0x14 PUSH2 0x100 EXP DUP2 SLOAD DUP2 PUSH1 0xFF MUL NOT AND SWAP1 DUP4 PUSH1 0xA DUP2 GT ISZERO PUSH2 0x2A9A JUMPI PUSH2 0x2A99 PUSH2 0x3E0B JUMP JUMPDEST JUMPDEST MUL OR SWAP1 SSTORE POP PUSH32 0xA7BBB94EB5775B8D566C1A849897A78FC3D480884F8E1339E4B72349B9058EBE DUP6 PUSH1 0x40 MLOAD PUSH2 0x2ACE SWAP2 SWAP1 PUSH2 0x5C9E JUMP JUMPDEST PUSH1 0x40 MLOAD DUP1 SWAP2 SUB SWAP1 LOG1 PUSH2 0x2AE6 JUMP JUMPDEST PUSH2 0x2AE5 DUP6 CALLER PUSH2 0x341E JUMP JUMPDEST JUMPDEST JUMPDEST POP POP POP POP POP JUMP JUMPDEST PUSH2 0x2AF6 PUSH2 0x3A88 JUMP JUMPDEST PUSH2 0x2AFE PUSH2 0x3A88 JUMP JUMPDEST PUSH0 JUMPDEST PUSH0 DUP1 SLOAD SWAP1 POP DUP2 LT ISZERO PUSH2 0x2FD9 JUMPI PUSH20 0x0 PUSH4 0xBED34BBA PUSH0 DUP4 DUP2 SLOAD DUP2 LT PUSH2 0x2B39 JUMPI PUSH2 0x2B38 PUSH2 0x49B2 JUMP JUMPDEST JUMPDEST SWAP1 PUSH0 MSTORE PUSH1 0x20 PUSH0 KECCAK256 SWAP1 PUSH1 0x11 MUL ADD PUSH0 ADD DUP7 PUSH1 0x40 MLOAD DUP4 PUSH4 0xFFFFFFFF AND PUSH1 0xE0 SHL DUP2 MSTORE PUSH1 0x4 ADD PUSH2 0x2B65 SWAP3 SWAP2 SWAP1 PUSH2 0x5D9A JUMP JUMPDEST PUSH1 0x20 PUSH1 0x40 MLOAD DUP1 DUP4 SUB DUP2 DUP7 GAS DELEGATECALL ISZERO DUP1 ISZERO PUSH2 0x2B80 JUMPI RETURNDATASIZE PUSH0 DUP1 RETURNDATACOPY RETURNDATASIZE PUSH0 REVERT JUMPDEST POP POP POP POP PUSH1 0x40 MLOAD RETURNDATASIZE PUSH1 0x1F NOT PUSH1 0x1F DUP3 ADD AND DUP3 ADD DUP1 PUSH1 0x40 MSTORE POP DUP2 ADD SWAP1 PUSH2 0x2BA4 SWAP2 SWAP1 PUSH2 0x5E04 JUMP JUMPDEST ISZERO PUSH2 0x2FCC JUMPI PUSH0 DUP2 DUP2 SLOAD DUP2 LT PUSH2 0x2BBC JUMPI PUSH2 0x2BBB PUSH2 0x49B2 JUMP JUMPDEST JUMPDEST SWAP1 PUSH0 MSTORE PUSH1 0x20 PUSH0 KECCAK256 SWAP1 PUSH1 0x11 MUL ADD PUSH1 0x40 MLOAD DUP1 PUSH2 0x240 ADD PUSH1 0x40 MSTORE SWAP1 DUP2 PUSH0 DUP3 ADD DUP1 SLOAD PUSH2 0x2BE3 SWAP1 PUSH2 0x4E29 JUMP JUMPDEST DUP1 PUSH1 0x1F ADD PUSH1 0x20 DUP1 SWAP2 DIV MUL PUSH1 0x20 ADD PUSH1 0x40 MLOAD SWAP1 DUP2 ADD PUSH1 0x40 MSTORE DUP1 SWAP3 SWAP2 SWAP1 DUP2 DUP2 MSTORE PUSH1 0x20 ADD DUP3 DUP1 SLOAD PUSH2 0x2C0F SWAP1 PUSH2 0x4E29 JUMP JUMPDEST DUP1 ISZERO PUSH2 0x2C5A JUMPI DUP1 PUSH1 0x1F LT PUSH2 0x2C31 JUMPI PUSH2 0x100 DUP1 DUP4 SLOAD DIV MUL DUP4 MSTORE SWAP2 PUSH1 0x20 ADD SWAP2 PUSH2 0x2C5A JUMP JUMPDEST DUP3 ADD SWAP2 SWAP1 PUSH0 MSTORE PUSH1 0x20 PUSH0 KECCAK256 SWAP1 JUMPDEST DUP2 SLOAD DUP2 MSTORE SWAP1 PUSH1 0x1 ADD SWAP1 PUSH1 0x20 ADD DUP1 DUP4 GT PUSH2 0x2C3D JUMPI DUP3 SWAP1 SUB PUSH1 0x1F AND DUP3 ADD SWAP2 JUMPDEST POP POP POP POP POP DUP2 MSTORE PUSH1 0x20 ADD PUSH1 0x1 DUP3 ADD DUP1 SLOAD PUSH2 0x2C73 SWAP1 PUSH2 0x4E29 JUMP JUMPDEST DUP1 PUSH1 0x1F ADD PUSH1 0x20 DUP1 SWAP2 DIV MUL PUSH1 0x20 ADD PUSH1 0x40 MLOAD SWAP1 DUP2 ADD PUSH1 0x40 MSTORE DUP1 SWAP3 SWAP2 SWAP1 DUP2 DUP2 MSTORE PUSH1 0x20 ADD DUP3 DUP1 SLOAD PUSH2 0x2C9F SWAP1 PUSH2 0x4E29 JUMP JUMPDEST DUP1 ISZERO PUSH2 0x2CEA JUMPI DUP1 PUSH1 0x1F LT PUSH2 0x2CC1 JUMPI PUSH2 0x100 DUP1 DUP4 SLOAD DIV MUL DUP4 MSTORE SWAP2 PUSH1 0x20 ADD SWAP2 PUSH2 0x2CEA JUMP JUMPDEST DUP3 ADD SWAP2 SWAP1 PUSH0 MSTORE PUSH1 0x20 PUSH0 KECCAK256 SWAP1 JUMPDEST DUP2 SLOAD DUP2 MSTORE SWAP1 PUSH1 0x1 ADD SWAP1 PUSH1 0x20 ADD DUP1 DUP4 GT PUSH2 0x2CCD JUMPI DUP3 SWAP1 SUB PUSH1 0x1F AND DUP3 ADD SWAP2 JUMPDEST POP POP POP POP POP DUP2 MSTORE PUSH1 0x20 ADD PUSH1 0x2 DUP3 ADD PUSH0 SWAP1 SLOAD SWAP1 PUSH2 0x100 EXP SWAP1 DIV PUSH20 0xFFFFFFFFFFFFFFFFFFFFFFFFFFFFFFFFFFFFFFFF AND PUSH20 0xFFFFFFFFFFFFFFFFFFFFFFFFFFFFFFFFFFFFFFFF AND PUSH20 0xFFFFFFFFFFFFFFFFFFFFFFFFFFFFFFFFFFFFFFFF AND DUP2 MSTORE PUSH1 0x20 ADD PUSH1 0x3 DUP3 ADD PUSH0 SWAP1 SLOAD SWAP1 PUSH2 0x100 EXP SWAP1 DIV PUSH20 0xFFFFFFFFFFFFFFFFFFFFFFFFFFFFFFFFFFFFFFFF AND PUSH20 0xFFFFFFFFFFFFFFFFFFFFFFFFFFFFFFFFFFFFFFFF AND PUSH20 0xFFFFFFFFFFFFFFFFFFFFFFFFFFFFFFFFFFFFFFFF AND DUP2 MSTORE PUSH1 0x20 ADD PUSH1 0x4 DUP3 ADD SLOAD DUP2 MSTORE PUSH1 0x20 ADD PUSH1 0x5 DUP3 ADD SLOAD DUP2 MSTORE PUSH1 0x20 ADD PUSH1 0x6 DUP3 ADD SLOAD DUP2 MSTORE PUSH1 0x20 ADD PUSH1 0x7 DUP3 ADD SLOAD DUP2 MSTORE PUSH1 0x20 ADD PUSH1 0x8 DUP3 ADD DUP1 SLOAD PUSH2 0x2DD5 SWAP1 PUSH2 0x4E29 JUMP JUMPDEST DUP1 PUSH1 0x1F ADD PUSH1 0x20 DUP1 SWAP2 DIV MUL PUSH1 0x20 ADD PUSH1 0x40 MLOAD SWAP1 DUP2 ADD PUSH1 0x40 MSTORE DUP1 SWAP3 SWAP2 SWAP1 DUP2 DUP2 MSTORE PUSH1 0x20 ADD DUP3 DUP1 SLOAD PUSH2 0x2E01 SWAP1 PUSH2 0x4E29 JUMP JUMPDEST DUP1 ISZERO PUSH2 0x2E4C JUMPI DUP1 PUSH1 0x1F LT PUSH2 0x2E23 JUMPI PUSH2 0x100 DUP1 DUP4 SLOAD DIV MUL DUP4 MSTORE SWAP2 PUSH1 0x20 ADD SWAP2 PUSH2 0x2E4C JUMP JUMPDEST DUP3 ADD SWAP2 SWAP1 PUSH0 MSTORE PUSH1 0x20 PUSH0 KECCAK256 SWAP1 JUMPDEST DUP2 SLOAD DUP2 MSTORE SWAP1 PUSH1 0x1 ADD SWAP1 PUSH1 0x20 ADD DUP1 DUP4 GT PUSH2 0x2E2F JUMPI DUP3 SWAP1 SUB PUSH1 0x1F AND DUP3 ADD SWAP2 JUMPDEST POP POP POP POP POP DUP2 MSTORE PUSH1 0x20 ADD PUSH1 0x9 DUP3 ADD DUP1 SLOAD PUSH2 0x2E65 SWAP1 PUSH2 0x4E29 JUMP JUMPDEST DUP1 PUSH1 0x1F ADD PUSH1 0x20 DUP1 SWAP2 DIV MUL PUSH1 0x20 ADD PUSH1 0x40 MLOAD SWAP1 DUP2 ADD PUSH1 0x40 MSTORE DUP1 SWAP3 SWAP2 SWAP1 DUP2 DUP2 MSTORE PUSH1 0x20 ADD DUP3 DUP1 SLOAD PUSH2 0x2E91 SWAP1 PUSH2 0x4E29 JUMP JUMPDEST DUP1 ISZERO PUSH2 0x2EDC JUMPI DUP1 PUSH1 0x1F LT PUSH2 0x2EB3 JUMPI PUSH2 0x100 DUP1 DUP4 SLOAD DIV MUL DUP4 MSTORE SWAP2 PUSH1 0x20 ADD SWAP2 PUSH2 0x2EDC JUMP JUMPDEST DUP3 ADD SWAP2 SWAP1 PUSH0 MSTORE PUSH1 0x20 PUSH0 KECCAK256 SWAP1 JUMPDEST DUP2 SLOAD DUP2 MSTORE SWAP1 PUSH1 0x1 ADD SWAP1 PUSH1 0x20 ADD DUP1 DUP4 GT PUSH2 0x2EBF JUMPI DUP3 SWAP1 SUB PUSH1 0x1F AND DUP3 ADD SWAP2 JUMPDEST POP POP POP POP POP DUP2 MSTORE PUSH1 0x20 ADD PUSH1 0xA DUP3 ADD SLOAD DUP2 MSTORE PUSH1 0x20 ADD PUSH1 0xB DUP3 ADD SLOAD DUP2 MSTORE PUSH1 0x20 ADD PUSH1 0xC DUP3 ADD SLOAD DUP2 MSTORE PUSH1 0x20 ADD PUSH1 0xD DUP3 ADD SLOAD DUP2 MSTORE PUSH1 0x20 ADD PUSH1 0xE DUP3 ADD SLOAD DUP2 MSTORE PUSH1 0x20 ADD PUSH1 0xF DUP3 ADD SLOAD DUP2 MSTORE PUSH1 0x20 ADD PUSH1 0x10 DUP3 ADD PUSH0 SWAP1 SLOAD SWAP1 PUSH2 0x100 EXP SWAP1 DIV PUSH20 0xFFFFFFFFFFFFFFFFFFFFFFFFFFFFFFFFFFFFFFFF AND PUSH20 0xFFFFFFFFFFFFFFFFFFFFFFFFFFFFFFFFFFFFFFFF AND PUSH20 0xFFFFFFFFFFFFFFFFFFFFFFFFFFFFFFFFFFFFFFFF AND DUP2 MSTORE PUSH1 0x20 ADD PUSH1 0x10 DUP3 ADD PUSH1 0x14 SWAP1 SLOAD SWAP1 PUSH2 0x100 EXP SWAP1 DIV PUSH1 0xFF AND PUSH1 0xA DUP2 GT ISZERO PUSH2 0x2F9B JUMPI PUSH2 0x2F9A PUSH2 0x3E0B JUMP JUMPDEST JUMPDEST PUSH1 0xA DUP2 GT ISZERO PUSH2 0x2FAD JUMPI PUSH2 0x2FAC PUSH2 0x3E0B JUMP JUMPDEST JUMPDEST DUP2 MSTORE POP POP DUP3 PUSH0 ADD DUP2 SWAP1 MSTORE POP DUP1 DUP3 PUSH1 0x20 ADD DUP2 DUP2 MSTORE POP POP DUP2 SWAP3 POP POP POP PUSH2 0x3017 JUMP JUMPDEST DUP1 DUP1 PUSH1 0x1 ADD SWAP2 POP POP PUSH2 0x2B00 JUMP JUMPDEST POP DUP3 PUSH1 0x40 MLOAD PUSH32 0x972ACEF00000000000000000000000000000000000000000000000000000000 DUP2 MSTORE PUSH1 0x4 ADD PUSH2 0x300E SWAP2 SWAP1 PUSH2 0x5E79 JUMP JUMPDEST PUSH1 0x40 MLOAD DUP1 SWAP2 SUB SWAP1 REVERT JUMPDEST SWAP2 SWAP1 POP JUMP JUMPDEST PUSH1 0x60 PUSH1 0x40 MLOAD DUP1 PUSH1 0x20 ADD PUSH1 0x40 MSTORE DUP1 PUSH0 DUP2 MSTORE POP SWAP1 POP SWAP2 SWAP1 POP JUMP JUMPDEST PUSH0 DUP1 DUP4 SWAP1 POP PUSH0 DUP4 SWAP1 POP DUP1 MLOAD DUP3 MLOAD GT ISZERO PUSH2 0x3051 JUMPI PUSH0 SWAP3 POP POP POP PUSH2 0x3101 JUMP JUMPDEST PUSH0 JUMPDEST DUP3 MLOAD DUP2 LT ISZERO PUSH2 0x30F9 JUMPI DUP2 DUP2 DUP2 MLOAD DUP2 LT PUSH2 0x306F JUMPI PUSH2 0x306E PUSH2 0x49B2 JUMP JUMPDEST JUMPDEST PUSH1 0x20 ADD ADD MLOAD PUSH1 0xF8 SHR PUSH1 0xF8 SHL PUSH31 0xFFFFFFFFFFFFFFFFFFFFFFFFFFFFFFFFFFFFFFFFFFFFFFFFFFFFFFFFFFFFFF NOT AND DUP4 DUP3 DUP2 MLOAD DUP2 LT PUSH2 0x30AF JUMPI PUSH2 0x30AE PUSH2 0x49B2 JUMP JUMPDEST JUMPDEST PUSH1 0x20 ADD ADD MLOAD PUSH1 0xF8 SHR PUSH1 0xF8 SHL PUSH31 0xFFFFFFFFFFFFFFFFFFFFFFFFFFFFFFFFFFFFFFFFFFFFFFFFFFFFFFFFFFFFFF NOT AND EQ PUSH2 0x30EC JUMPI PUSH0 SWAP4 POP POP POP POP PUSH2 0x3101 JUMP JUMPDEST DUP1 DUP1 PUSH1 0x1 ADD SWAP2 POP POP PUSH2 0x3053 JUMP JUMPDEST POP PUSH1 0x1 SWAP3 POP POP POP JUMPDEST SWAP3 SWAP2 POP POP JUMP JUMPDEST PUSH0 JUMPDEST DUP2 MLOAD DUP2 LT ISZERO PUSH2 0x31AD JUMPI DUP3 PUSH20 0xFFFFFFFFFFFFFFFFFFFFFFFFFFFFFFFFFFFFFFFF AND DUP3 DUP3 DUP2 MLOAD DUP2 LT PUSH2 0x313C JUMPI PUSH2 0x313B PUSH2 0x49B2 JUMP JUMPDEST JUMPDEST PUSH1 0x20 MUL PUSH1 0x20 ADD ADD MLOAD PUSH1 0x20 ADD MLOAD PUSH20 0xFFFFFFFFFFFFFFFFFFFFFFFFFFFFFFFFFFFFFFFF AND SUB PUSH2 0x31A0 JUMPI DUP3 PUSH1 0x40 MLOAD PUSH32 0xC5F8CAD00000000000000000000000000000000000000000000000000000000 DUP2 MSTORE PUSH1 0x4 ADD PUSH2 0x3197 SWAP2 SWAP1 PUSH2 0x5F1C JUMP JUMPDEST PUSH1 0x40 MLOAD DUP1 SWAP2 SUB SWAP1 REVERT JUMPDEST DUP1 DUP1 PUSH1 0x1 ADD SWAP2 POP POP PUSH2 0x3109 JUMP JUMPDEST POP POP POP JUMP JUMPDEST PUSH0 DUP3 PUSH0 ADD MLOAD MLOAD SUB PUSH2 0x31FD JUMPI DUP2 PUSH0 ADD MLOAD PUSH1 0x40 MLOAD PUSH32 0xF65392F500000000000000000000000000000000000000000000000000000000 DUP2 MSTORE PUSH1 0x4 ADD PUSH2 0x31F4 SWAP2 SWAP1 PUSH2 0x5F92 JUMP JUMPDEST PUSH1 0x40 MLOAD DUP1 SWAP2 SUB SWAP1 REVERT JUMPDEST PUSH2 0x320F DUP3 PUSH1 0x60 ADD MLOAD DUP4 PUSH1 0x80 ADD MLOAD PUSH2 0x3764 JUMP JUMPDEST PUSH2 0x3221 DUP3 PUSH1 0xA0 ADD MLOAD DUP4 PUSH1 0xC0 ADD MLOAD PUSH2 0x3764 JUMP JUMPDEST PUSH2 0x322E DUP3 PUSH1 0xE0 ADD MLOAD PUSH2 0x385A JUMP JUMPDEST PUSH2 0x323C DUP3 PUSH2 0x100 ADD MLOAD PUSH2 0x385A JUMP JUMPDEST PUSH0 DUP3 PUSH2 0x120 ADD MLOAD SUB PUSH2 0x328A JUMPI DUP2 PUSH2 0x120 ADD MLOAD PUSH1 0x40 MLOAD PUSH32 0x80F71E1200000000000000000000000000000000000000000000000000000000 DUP2 MSTORE PUSH1 0x4 ADD PUSH2 0x3281 SWAP2 SWAP1 PUSH2 0x600F JUMP JUMPDEST PUSH1 0x40 MLOAD DUP1 SWAP2 SUB SWAP1 REVERT JUMPDEST PUSH0 DUP2 SUB PUSH2 0x32CE JUMPI DUP1 PUSH1 0x40 MLOAD PUSH32 0x80F71E1200000000000000000000000000000000000000000000000000000000 DUP2 MSTORE PUSH1 0x4 ADD PUSH2 0x32C5 SWAP2 SWAP1 PUSH2 0x6085 JUMP JUMPDEST PUSH1 0x40 MLOAD DUP1 SWAP2 SUB SWAP1 REVERT JUMPDEST PUSH2 0x32E8 DUP3 PUSH2 0x140 ADD MLOAD DUP4 PUSH2 0x160 ADD MLOAD DUP5 PUSH2 0x180 ADD MLOAD PUSH2 0x38A2 JUMP JUMPDEST POP POP JUMP JUMPDEST PUSH1 0x60 PUSH0 PUSH1 0x40 MLOAD DUP1 PUSH1 0x60 ADD PUSH1 0x40 MSTORE DUP1 PUSH1 0x3E DUP2 MSTORE PUSH1 0x20 ADD PUSH2 0x67B6 PUSH1 0x3E SWAP2 CODECOPY SWAP1 POP PUSH0 DUP4 PUSH8 0xFFFFFFFFFFFFFFFF DUP2 GT ISZERO PUSH2 0x3325 JUMPI PUSH2 0x3324 PUSH2 0x3AD0 JUMP JUMPDEST JUMPDEST PUSH1 0x40 MLOAD SWAP1 DUP1 DUP3 MSTORE DUP1 PUSH1 0x1F ADD PUSH1 0x1F NOT AND PUSH1 0x20 ADD DUP3 ADD PUSH1 0x40 MSTORE DUP1 ISZERO PUSH2 0x3357 JUMPI DUP2 PUSH1 0x20 ADD PUSH1 0x1 DUP3 MUL DUP1 CALLDATASIZE DUP4 CALLDATACOPY DUP1 DUP3 ADD SWAP2 POP POP SWAP1 POP JUMPDEST POP SWAP1 POP PUSH0 DUP3 MLOAD SWAP1 POP PUSH0 JUMPDEST DUP6 DUP2 LT ISZERO PUSH2 0x3412 JUMPI PUSH0 DUP3 TIMESTAMP NUMBER BLOCKHASH DUP5 PUSH1 0x40 MLOAD PUSH1 0x20 ADD PUSH2 0x3381 SWAP4 SWAP3 SWAP2 SWAP1 PUSH2 0x60FA JUMP JUMPDEST PUSH1 0x40 MLOAD PUSH1 0x20 DUP2 DUP4 SUB SUB DUP2 MSTORE SWAP1 PUSH1 0x40 MSTORE DUP1 MLOAD SWAP1 PUSH1 0x20 ADD KECCAK256 PUSH0 SHR PUSH2 0x33A3 SWAP2 SWAP1 PUSH2 0x6163 JUMP JUMPDEST SWAP1 POP DUP5 DUP2 DUP2 MLOAD DUP2 LT PUSH2 0x33B8 JUMPI PUSH2 0x33B7 PUSH2 0x49B2 JUMP JUMPDEST JUMPDEST PUSH1 0x20 ADD ADD MLOAD PUSH1 0xF8 SHR PUSH1 0xF8 SHL DUP5 DUP4 DUP2 MLOAD DUP2 LT PUSH2 0x33D6 JUMPI PUSH2 0x33D5 PUSH2 0x49B2 JUMP JUMPDEST JUMPDEST PUSH1 0x20 ADD ADD SWAP1 PUSH31 0xFFFFFFFFFFFFFFFFFFFFFFFFFFFFFFFFFFFFFFFFFFFFFFFFFFFFFFFFFFFFFF NOT AND SWAP1 DUP2 PUSH0 BYTE SWAP1 MSTORE8 POP POP DUP1 DUP1 PUSH1 0x1 ADD SWAP2 POP POP PUSH2 0x3361 JUMP JUMPDEST POP DUP2 SWAP4 POP POP POP POP SWAP2 SWAP1 POP JUMP JUMPDEST PUSH0 PUSH1 0x1 DUP4 PUSH1 0x40 MLOAD PUSH2 0x342F SWAP2 SWAP1 PUSH2 0x499C JUMP JUMPDEST SWAP1 DUP2 MSTORE PUSH1 0x20 ADD PUSH1 0x40 MLOAD DUP1 SWAP2 SUB SWAP1 KECCAK256 DUP1 SLOAD DUP1 PUSH1 0x20 MUL PUSH1 0x20 ADD PUSH1 0x40 MLOAD SWAP1 DUP2 ADD PUSH1 0x40 MSTORE DUP1 SWAP3 SWAP2 SWAP1 DUP2 DUP2 MSTORE PUSH1 0x20 ADD PUSH0 SWAP1 JUMPDEST DUP3 DUP3 LT ISZERO PUSH2 0x3505 JUMPI DUP4 DUP3 SWAP1 PUSH0 MSTORE PUSH1 0x20 PUSH0 KECCAK256 SWAP1 PUSH1 0x2 MUL ADD PUSH1 0x40 MLOAD DUP1 PUSH1 0x60 ADD PUSH1 0x40 MSTORE SWAP1 DUP2 PUSH0 DUP3 ADD SLOAD DUP2 MSTORE PUSH1 0x20 ADD PUSH1 0x1 DUP3 ADD PUSH0 SWAP1 SLOAD SWAP1 PUSH2 0x100 EXP SWAP1 DIV PUSH20 0xFFFFFFFFFFFFFFFFFFFFFFFFFFFFFFFFFFFFFFFF AND PUSH20 0xFFFFFFFFFFFFFFFFFFFFFFFFFFFFFFFFFFFFFFFF AND PUSH20 0xFFFFFFFFFFFFFFFFFFFFFFFFFFFFFFFFFFFFFFFF AND DUP2 MSTORE PUSH1 0x20 ADD PUSH1 0x1 DUP3 ADD PUSH1 0x14 SWAP1 SLOAD SWAP1 PUSH2 0x100 EXP SWAP1 DIV PUSH1 0xFF AND ISZERO ISZERO ISZERO ISZERO DUP2 MSTORE POP POP DUP2 MSTORE PUSH1 0x20 ADD SWAP1 PUSH1 0x1 ADD SWAP1 PUSH2 0x345C JUMP JUMPDEST POP POP POP POP SWAP1 POP PUSH0 JUMPDEST DUP2 MLOAD DUP2 LT ISZERO PUSH2 0x3722 JUMPI DUP3 PUSH20 0xFFFFFFFFFFFFFFFFFFFFFFFFFFFFFFFFFFFFFFFF AND DUP3 DUP3 DUP2 MLOAD DUP2 LT PUSH2 0x3540 JUMPI PUSH2 0x353F PUSH2 0x49B2 JUMP JUMPDEST JUMPDEST PUSH1 0x20 MUL PUSH1 0x20 ADD ADD MLOAD PUSH1 0x20 ADD MLOAD PUSH20 0xFFFFFFFFFFFFFFFFFFFFFFFFFFFFFFFFFFFFFFFF AND SUB PUSH2 0x3715 JUMPI DUP2 DUP2 DUP2 MLOAD DUP2 LT PUSH2 0x357A JUMPI PUSH2 0x3579 PUSH2 0x49B2 JUMP JUMPDEST JUMPDEST PUSH1 0x20 MUL PUSH1 0x20 ADD ADD MLOAD PUSH1 0x40 ADD MLOAD PUSH2 0x36D6 JUMPI PUSH32 0xA7BBB94EB5775B8D566C1A849897A78FC3D480884F8E1339E4B72349B9058EBE DUP5 PUSH1 0x40 MLOAD PUSH2 0x35B9 SWAP2 SWAP1 PUSH2 0x61DD JUMP JUMPDEST PUSH1 0x40 MLOAD DUP1 SWAP2 SUB SWAP1 LOG1 PUSH1 0x1 DUP1 DUP6 PUSH1 0x40 MLOAD PUSH2 0x35D2 SWAP2 SWAP1 PUSH2 0x499C JUMP JUMPDEST SWAP1 DUP2 MSTORE PUSH1 0x20 ADD PUSH1 0x40 MLOAD DUP1 SWAP2 SUB SWAP1 KECCAK256 DUP3 DUP2 SLOAD DUP2 LT PUSH2 0x35F2 JUMPI PUSH2 0x35F1 PUSH2 0x49B2 JUMP JUMPDEST JUMPDEST SWAP1 PUSH0 MSTORE PUSH1 0x20 PUSH0 KECCAK256 SWAP1 PUSH1 0x2 MUL ADD PUSH1 0x1 ADD PUSH1 0x14 PUSH2 0x100 EXP DUP2 SLOAD DUP2 PUSH1 0xFF MUL NOT AND SWAP1 DUP4 ISZERO ISZERO MUL OR SWAP1 SSTORE POP DUP3 PUSH20 0xFFFFFFFFFFFFFFFFFFFFFFFFFFFFFFFFFFFFFFFF AND PUSH2 0x8FC DUP4 DUP4 DUP2 MLOAD DUP2 LT PUSH2 0x3645 JUMPI PUSH2 0x3644 PUSH2 0x49B2 JUMP JUMPDEST JUMPDEST PUSH1 0x20 MUL PUSH1 0x20 ADD ADD MLOAD PUSH0 ADD MLOAD SWAP1 DUP2 ISZERO MUL SWAP1 PUSH1 0x40 MLOAD PUSH0 PUSH1 0x40 MLOAD DUP1 DUP4 SUB DUP2 DUP6 DUP9 DUP9 CALL SWAP4 POP POP POP POP ISZERO DUP1 ISZERO PUSH2 0x3678 JUMPI RETURNDATASIZE PUSH0 DUP1 RETURNDATACOPY RETURNDATASIZE PUSH0 REVERT JUMPDEST POP PUSH32 0x678D68581A81FEB175EAA0F9B062DFEB248FF5B449035EB26079CA96C696458F ADDRESS DUP5 DUP5 DUP5 DUP2 MLOAD DUP2 LT PUSH2 0x36AF JUMPI PUSH2 0x36AE PUSH2 0x49B2 JUMP JUMPDEST JUMPDEST PUSH1 0x20 MUL PUSH1 0x20 ADD ADD MLOAD PUSH0 ADD MLOAD PUSH1 0x40 MLOAD PUSH2 0x36C9 SWAP4 SWAP3 SWAP2 SWAP1 PUSH2 0x6210 JUMP JUMPDEST PUSH1 0x40 MLOAD DUP1 SWAP2 SUB SWAP1 LOG1 PUSH2 0x370E JUMP JUMPDEST PUSH32 0xA7BBB94EB5775B8D566C1A849897A78FC3D480884F8E1339E4B72349B9058EBE DUP5 PUSH1 0x40 MLOAD PUSH2 0x3705 SWAP2 SWAP1 PUSH2 0x62B5 JUMP JUMPDEST PUSH1 0x40 MLOAD DUP1 SWAP2 SUB SWAP1 LOG1 JUMPDEST POP POP PUSH2 0x3760 JUMP JUMPDEST DUP1 DUP1 PUSH1 0x1 ADD SWAP2 POP POP PUSH2 0x350D JUMP JUMPDEST POP DUP3 PUSH1 0x40 MLOAD PUSH32 0x48B3CCEC00000000000000000000000000000000000000000000000000000000 DUP2 MSTORE PUSH1 0x4 ADD PUSH2 0x3757 SWAP2 SWAP1 PUSH2 0x6358 JUMP JUMPDEST PUSH1 0x40 MLOAD DUP1 SWAP2 SUB SWAP1 REVERT JUMPDEST POP POP JUMP JUMPDEST PUSH32 0xFFFFFFFFFFFFFFFFFFFFFFFFFFFFFFFFFFFFFFFFFFFFFFFFF3828EC4B6260000 DUP3 SLT DUP1 PUSH2 0x3799 JUMPI POP PUSH8 0xC7D713B49DA0000 DUP3 SGT JUMPDEST ISZERO PUSH2 0x37DD JUMPI DUP2 DUP2 PUSH1 0x40 MLOAD PUSH32 0xDE0E81DD00000000000000000000000000000000000000000000000000000000 DUP2 MSTORE PUSH1 0x4 ADD PUSH2 0x37D4 SWAP3 SWAP2 SWAP1 PUSH2 0x63E4 JUMP JUMPDEST PUSH1 0x40 MLOAD DUP1 SWAP2 SUB SWAP1 REVERT JUMPDEST PUSH32 0xFFFFFFFFFFFFFFFFFFFFFFFFFFFFFFFFFFFFFFFFFFFFFFFFE7051D896C4C0000 DUP2 SLT DUP1 PUSH2 0x3812 JUMPI POP PUSH8 0x18FAE27693B40000 DUP2 SGT JUMPDEST ISZERO PUSH2 0x3856 JUMPI DUP2 DUP2 PUSH1 0x40 MLOAD PUSH32 0xDE0E81DD00000000000000000000000000000000000000000000000000000000 DUP2 MSTORE PUSH1 0x4 ADD PUSH2 0x384D SWAP3 SWAP2 SWAP1 PUSH2 0x648E JUMP JUMPDEST PUSH1 0x40 MLOAD DUP1 SWAP2 SUB SWAP1 REVERT JUMPDEST POP POP JUMP JUMPDEST PUSH0 DUP2 MLOAD SUB PUSH2 0x389F JUMPI DUP1 PUSH1 0x40 MLOAD PUSH32 0x8B677A5C00000000000000000000000000000000000000000000000000000000 DUP2 MSTORE PUSH1 0x4 ADD PUSH2 0x3896 SWAP2 SWAP1 PUSH2 0x6512 JUMP JUMPDEST PUSH1 0x40 MLOAD DUP1 SWAP2 SUB SWAP1 REVERT JUMPDEST POP JUMP JUMPDEST PUSH0 DUP2 GT PUSH2 0x38E6 JUMPI DUP1 PUSH1 0x40 MLOAD PUSH32 0x11A242AF00000000000000000000000000000000000000000000000000000000 DUP2 MSTORE PUSH1 0x4 ADD PUSH2 0x38DD SWAP2 SWAP1 PUSH2 0x65B5 JUMP JUMPDEST PUSH1 0x40 MLOAD DUP1 SWAP2 SUB SWAP1 REVERT JUMPDEST TIMESTAMP DUP4 GT PUSH2 0x392A JUMPI DUP3 PUSH1 0x40 MLOAD PUSH32 0x11A242AF00000000000000000000000000000000000000000000000000000000 DUP2 MSTORE PUSH1 0x4 ADD PUSH2 0x3921 SWAP2 SWAP1 PUSH2 0x6651 JUMP JUMPDEST PUSH1 0x40 MLOAD DUP1 SWAP2 SUB SWAP1 REVERT JUMPDEST TIMESTAMP DUP3 GT PUSH2 0x396E JUMPI DUP2 PUSH1 0x40 MLOAD PUSH32 0x11A242AF00000000000000000000000000000000000000000000000000000000 DUP2 MSTORE PUSH1 0x4 ADD PUSH2 0x3965 SWAP2 SWAP1 PUSH2 0x66ED JUMP JUMPDEST PUSH1 0x40 MLOAD DUP1 SWAP2 SUB SWAP1 REVERT JUMPDEST DUP3 DUP3 GT PUSH2 0x39B2 JUMPI DUP2 PUSH1 0x40 MLOAD PUSH32 0x11A242AF00000000000000000000000000000000000000000000000000000000 DUP2 MSTORE PUSH1 0x4 ADD PUSH2 0x39A9 SWAP2 SWAP1 PUSH2 0x6789 JUMP JUMPDEST PUSH1 0x40 MLOAD DUP1 SWAP2 SUB SWAP1 REVERT JUMPDEST POP POP POP JUMP JUMPDEST PUSH1 0x40 MLOAD DUP1 PUSH2 0x240 ADD PUSH1 0x40 MSTORE DUP1 PUSH1 0x60 DUP2 MSTORE PUSH1 0x20 ADD PUSH1 0x60 DUP2 MSTORE PUSH1 0x20 ADD PUSH0 PUSH20 0xFFFFFFFFFFFFFFFFFFFFFFFFFFFFFFFFFFFFFFFF AND DUP2 MSTORE PUSH1 0x20 ADD PUSH0 PUSH20 0xFFFFFFFFFFFFFFFFFFFFFFFFFFFFFFFFFFFFFFFF AND DUP2 MSTORE PUSH1 0x20 ADD PUSH0 DUP2 MSTORE PUSH1 0x20 ADD PUSH0 DUP2 MSTORE PUSH1 0x20 ADD PUSH0 DUP2 MSTORE PUSH1 0x20 ADD PUSH0 DUP2 MSTORE PUSH1 0x20 ADD PUSH1 0x60 DUP2 MSTORE PUSH1 0x20 ADD PUSH1 0x60 DUP2 MSTORE PUSH1 0x20 ADD PUSH0 DUP2 MSTORE PUSH1 0x20 ADD PUSH0 DUP2 MSTORE PUSH1 0x20 ADD PUSH0 DUP2 MSTORE PUSH1 0x20 ADD PUSH0 DUP2 MSTORE PUSH1 0x20 ADD PUSH0 DUP2 MSTORE PUSH1 0x20 ADD PUSH0 DUP2 MSTORE PUSH1 0x20 ADD PUSH0 PUSH20 0xFFFFFFFFFFFFFFFFFFFFFFFFFFFFFFFFFFFFFFFF AND DUP2 MSTORE PUSH1 0x20 ADD PUSH0 PUSH1 0xA DUP2 GT ISZERO PUSH2 0x3A82 JUMPI PUSH2 0x3A81 PUSH2 0x3E0B JUMP JUMPDEST JUMPDEST DUP2 MSTORE POP SWAP1 JUMP JUMPDEST PUSH1 0x40 MLOAD DUP1 PUSH1 0x40 ADD PUSH1 0x40 MSTORE DUP1 PUSH2 0x3A9B PUSH2 0x39B7 JUMP JUMPDEST DUP2 MSTORE PUSH1 0x20 ADD PUSH0 DUP2 MSTORE POP SWAP1 JUMP JUMPDEST PUSH0 PUSH1 0x40 MLOAD SWAP1 POP SWAP1 JUMP JUMPDEST PUSH0 DUP1 REVERT JUMPDEST PUSH0 DUP1 REVERT JUMPDEST PUSH0 DUP1 REVERT JUMPDEST PUSH0 DUP1 REVERT JUMPDEST PUSH0 PUSH1 0x1F NOT PUSH1 0x1F DUP4 ADD AND SWAP1 POP SWAP2 SWAP1 POP JUMP JUMPDEST PUSH32 0x4E487B7100000000000000000000000000000000000000000000000000000000 PUSH0 MSTORE PUSH1 0x41 PUSH1 0x4 MSTORE PUSH1 0x24 PUSH0 REVERT JUMPDEST PUSH2 0x3B06 DUP3 PUSH2 0x3AC0 JUMP JUMPDEST DUP2 ADD DUP2 DUP2 LT PUSH8 0xFFFFFFFFFFFFFFFF DUP3 GT OR ISZERO PUSH2 0x3B25 JUMPI PUSH2 0x3B24 PUSH2 0x3AD0 JUMP JUMPDEST JUMPDEST DUP1 PUSH1 0x40 MSTORE POP POP POP JUMP JUMPDEST PUSH0 PUSH2 0x3B37 PUSH2 0x3AA7 JUMP JUMPDEST SWAP1 POP PUSH2 0x3B43 DUP3 DUP3 PUSH2 0x3AFD JUMP JUMPDEST SWAP2 SWAP1 POP JUMP JUMPDEST PUSH0 PUSH8 0xFFFFFFFFFFFFFFFF DUP3 GT ISZERO PUSH2 0x3B62 JUMPI PUSH2 0x3B61 PUSH2 0x3AD0 JUMP JUMPDEST JUMPDEST PUSH2 0x3B6B DUP3 PUSH2 0x3AC0 JUMP JUMPDEST SWAP1 POP PUSH1 0x20 DUP2 ADD SWAP1 POP SWAP2 SWAP1 POP JUMP JUMPDEST DUP3 DUP2 DUP4 CALLDATACOPY PUSH0 DUP4 DUP4 ADD MSTORE POP POP POP JUMP JUMPDEST PUSH0 PUSH2 0x3B98 PUSH2 0x3B93 DUP5 PUSH2 0x3B48 JUMP JUMPDEST PUSH2 0x3B2E JUMP JUMPDEST SWAP1 POP DUP3 DUP2 MSTORE PUSH1 0x20 DUP2 ADD DUP5 DUP5 DUP5 ADD GT ISZERO PUSH2 0x3BB4 JUMPI PUSH2 0x3BB3 PUSH2 0x3ABC JUMP JUMPDEST JUMPDEST PUSH2 0x3BBF DUP5 DUP3 DUP6 PUSH2 0x3B78 JUMP JUMPDEST POP SWAP4 SWAP3 POP POP POP JUMP JUMPDEST PUSH0 DUP3 PUSH1 0x1F DUP4 ADD SLT PUSH2 0x3BDB JUMPI PUSH2 0x3BDA PUSH2 0x3AB8 JUMP JUMPDEST JUMPDEST DUP2 CALLDATALOAD PUSH2 0x3BEB DUP5 DUP3 PUSH1 0x20 DUP7 ADD PUSH2 0x3B86 JUMP JUMPDEST SWAP2 POP POP SWAP3 SWAP2 POP POP JUMP JUMPDEST PUSH0 DUP2 SWAP1 POP SWAP2 SWAP1 POP JUMP JUMPDEST PUSH2 0x3C06 DUP2 PUSH2 0x3BF4 JUMP JUMPDEST DUP2 EQ PUSH2 0x3C10 JUMPI PUSH0 DUP1 REVERT JUMPDEST POP JUMP JUMPDEST PUSH0 DUP2 CALLDATALOAD SWAP1 POP PUSH2 0x3C21 DUP2 PUSH2 0x3BFD JUMP JUMPDEST SWAP3 SWAP2 POP POP JUMP JUMPDEST PUSH0 DUP1 PUSH1 0x40 DUP4 DUP6 SUB SLT ISZERO PUSH2 0x3C3D JUMPI PUSH2 0x3C3C PUSH2 0x3AB0 JUMP JUMPDEST JUMPDEST PUSH0 DUP4 ADD CALLDATALOAD PUSH8 0xFFFFFFFFFFFFFFFF DUP2 GT ISZERO PUSH2 0x3C5A JUMPI PUSH2 0x3C59 PUSH2 0x3AB4 JUMP JUMPDEST JUMPDEST PUSH2 0x3C66 DUP6 DUP3 DUP7 ADD PUSH2 0x3BC7 JUMP JUMPDEST SWAP3 POP POP PUSH1 0x20 PUSH2 0x3C77 DUP6 DUP3 DUP7 ADD PUSH2 0x3C13 JUMP JUMPDEST SWAP2 POP POP SWAP3 POP SWAP3 SWAP1 POP JUMP JUMPDEST PUSH1 0xB DUP2 LT PUSH2 0x3C8D JUMPI PUSH0 DUP1 REVERT JUMPDEST POP JUMP JUMPDEST PUSH0 DUP2 CALLDATALOAD SWAP1 POP PUSH2 0x3C9E DUP2 PUSH2 0x3C81 JUMP JUMPDEST SWAP3 SWAP2 POP POP JUMP JUMPDEST PUSH0 DUP1 PUSH1 0x40 DUP4 DUP6 SUB SLT ISZERO PUSH2 0x3CBA JUMPI PUSH2 0x3CB9 PUSH2 0x3AB0 JUMP JUMPDEST JUMPDEST PUSH0 DUP4 ADD CALLDATALOAD PUSH8 0xFFFFFFFFFFFFFFFF DUP2 GT ISZERO PUSH2 0x3CD7 JUMPI PUSH2 0x3CD6 PUSH2 0x3AB4 JUMP JUMPDEST JUMPDEST PUSH2 0x3CE3 DUP6 DUP3 DUP7 ADD PUSH2 0x3BC7 JUMP JUMPDEST SWAP3 POP POP PUSH1 0x20 PUSH2 0x3CF4 DUP6 DUP3 DUP7 ADD PUSH2 0x3C90 JUMP JUMPDEST SWAP2 POP POP SWAP3 POP SWAP3 SWAP1 POP JUMP JUMPDEST PUSH0 PUSH1 0x20 DUP3 DUP5 SUB SLT ISZERO PUSH2 0x3D13 JUMPI PUSH2 0x3D12 PUSH2 0x3AB0 JUMP JUMPDEST JUMPDEST PUSH0 DUP3 ADD CALLDATALOAD PUSH8 0xFFFFFFFFFFFFFFFF DUP2 GT ISZERO PUSH2 0x3D30 JUMPI PUSH2 0x3D2F PUSH2 0x3AB4 JUMP JUMPDEST JUMPDEST PUSH2 0x3D3C DUP5 DUP3 DUP6 ADD PUSH2 0x3BC7 JUMP JUMPDEST SWAP2 POP POP SWAP3 SWAP2 POP POP JUMP JUMPDEST PUSH0 DUP2 MLOAD SWAP1 POP SWAP2 SWAP1 POP JUMP JUMPDEST PUSH0 DUP3 DUP3 MSTORE PUSH1 0x20 DUP3 ADD SWAP1 POP SWAP3 SWAP2 POP POP JUMP JUMPDEST DUP3 DUP2 DUP4 MCOPY PUSH0 DUP4 DUP4 ADD MSTORE POP POP POP JUMP JUMPDEST PUSH0 PUSH2 0x3D77 DUP3 PUSH2 0x3D45 JUMP JUMPDEST PUSH2 0x3D81 DUP2 DUP6 PUSH2 0x3D4F JUMP JUMPDEST SWAP4 POP PUSH2 0x3D91 DUP2 DUP6 PUSH1 0x20 DUP7 ADD PUSH2 0x3D5F JUMP JUMPDEST PUSH2 0x3D9A DUP2 PUSH2 0x3AC0 JUMP JUMPDEST DUP5 ADD SWAP2 POP POP SWAP3 SWAP2 POP POP JUMP JUMPDEST PUSH0 PUSH20 0xFFFFFFFFFFFFFFFFFFFFFFFFFFFFFFFFFFFFFFFF DUP3 AND SWAP1 POP SWAP2 SWAP1 POP JUMP JUMPDEST PUSH0 PUSH2 0x3DCE DUP3 PUSH2 0x3DA5 JUMP JUMPDEST SWAP1 POP SWAP2 SWAP1 POP JUMP JUMPDEST PUSH2 0x3DDE DUP2 PUSH2 0x3DC4 JUMP JUMPDEST DUP3 MSTORE POP POP JUMP JUMPDEST PUSH0 DUP2 SWAP1 POP SWAP2 SWAP1 POP JUMP JUMPDEST PUSH2 0x3DF6 DUP2 PUSH2 0x3DE4 JUMP JUMPDEST DUP3 MSTORE POP POP JUMP JUMPDEST PUSH2 0x3E05 DUP2 PUSH2 0x3BF4 JUMP JUMPDEST DUP3 MSTORE POP POP JUMP JUMPDEST PUSH32 0x4E487B7100000000000000000000000000000000000000000000000000000000 PUSH0 MSTORE PUSH1 0x21 PUSH1 0x4 MSTORE PUSH1 0x24 PUSH0 REVERT JUMPDEST PUSH1 0xB DUP2 LT PUSH2 0x3E49 JUMPI PUSH2 0x3E48 PUSH2 0x3E0B JUMP JUMPDEST JUMPDEST POP JUMP JUMPDEST PUSH0 DUP2 SWAP1 POP PUSH2 0x3E59 DUP3 PUSH2 0x3E38 JUMP JUMPDEST SWAP2 SWAP1 POP JUMP JUMPDEST PUSH0 PUSH2 0x3E68 DUP3 PUSH2 0x3E4C JUMP JUMPDEST SWAP1 POP SWAP2 SWAP1 POP JUMP JUMPDEST PUSH2 0x3E78 DUP2 PUSH2 0x3E5E JUMP JUMPDEST DUP3 MSTORE POP POP JUMP JUMPDEST PUSH0 PUSH2 0x240 DUP4 ADD PUSH0 DUP4 ADD MLOAD DUP5 DUP3 SUB PUSH0 DUP7 ADD MSTORE PUSH2 0x3E99 DUP3 DUP3 PUSH2 0x3D6D JUMP JUMPDEST SWAP2 POP POP PUSH1 0x20 DUP4 ADD MLOAD DUP5 DUP3 SUB PUSH1 0x20 DUP7 ADD MSTORE PUSH2 0x3EB3 DUP3 DUP3 PUSH2 0x3D6D JUMP JUMPDEST SWAP2 POP POP PUSH1 0x40 DUP4 ADD MLOAD PUSH2 0x3EC8 PUSH1 0x40 DUP7 ADD DUP3 PUSH2 0x3DD5 JUMP JUMPDEST POP PUSH1 0x60 DUP4 ADD MLOAD PUSH2 0x3EDB PUSH1 0x60 DUP7 ADD DUP3 PUSH2 0x3DD5 JUMP JUMPDEST POP PUSH1 0x80 DUP4 ADD MLOAD PUSH2 0x3EEE PUSH1 0x80 DUP7 ADD DUP3 PUSH2 0x3DED JUMP JUMPDEST POP PUSH1 0xA0 DUP4 ADD MLOAD PUSH2 0x3F01 PUSH1 0xA0 DUP7 ADD DUP3 PUSH2 0x3DED JUMP JUMPDEST POP PUSH1 0xC0 DUP4 ADD MLOAD PUSH2 0x3F14 PUSH1 0xC0 DUP7 ADD DUP3 PUSH2 0x3DED JUMP JUMPDEST POP PUSH1 0xE0 DUP4 ADD MLOAD PUSH2 0x3F27 PUSH1 0xE0 DUP7 ADD DUP3 PUSH2 0x3DED JUMP JUMPDEST POP PUSH2 0x100 DUP4 ADD MLOAD DUP5 DUP3 SUB PUSH2 0x100 DUP7 ADD MSTORE PUSH2 0x3F41 DUP3 DUP3 PUSH2 0x3D6D JUMP JUMPDEST SWAP2 POP POP PUSH2 0x120 DUP4 ADD MLOAD DUP5 DUP3 SUB PUSH2 0x120 DUP7 ADD MSTORE PUSH2 0x3F5D DUP3 DUP3 PUSH2 0x3D6D JUMP JUMPDEST SWAP2 POP POP PUSH2 0x140 DUP4 ADD MLOAD PUSH2 0x3F74 PUSH2 0x140 DUP7 ADD DUP3 PUSH2 0x3DFC JUMP JUMPDEST POP PUSH2 0x160 DUP4 ADD MLOAD PUSH2 0x3F89 PUSH2 0x160 DUP7 ADD DUP3 PUSH2 0x3DFC JUMP JUMPDEST POP PUSH2 0x180 DUP4 ADD MLOAD PUSH2 0x3F9E PUSH2 0x180 DUP7 ADD DUP3 PUSH2 0x3DFC JUMP JUMPDEST POP PUSH2 0x1A0 DUP4 ADD MLOAD PUSH2 0x3FB3 PUSH2 0x1A0 DUP7 ADD DUP3 PUSH2 0x3DFC JUMP JUMPDEST POP PUSH2 0x1C0 DUP4 ADD MLOAD PUSH2 0x3FC8 PUSH2 0x1C0 DUP7 ADD DUP3 PUSH2 0x3DFC JUMP JUMPDEST POP PUSH2 0x1E0 DUP4 ADD MLOAD PUSH2 0x3FDD PUSH2 0x1E0 DUP7 ADD DUP3 PUSH2 0x3DFC JUMP JUMPDEST POP PUSH2 0x200 DUP4 ADD MLOAD PUSH2 0x3FF2 PUSH2 0x200 DUP7 ADD DUP3 PUSH2 0x3DD5 JUMP JUMPDEST POP PUSH2 0x220 DUP4 ADD MLOAD PUSH2 0x4007 PUSH2 0x220 DUP7 ADD DUP3 PUSH2 0x3E6F JUMP JUMPDEST POP DUP1 SWAP2 POP POP SWAP3 SWAP2 POP POP JUMP JUMPDEST PUSH0 PUSH1 0x20 DUP3 ADD SWAP1 POP DUP2 DUP2 SUB PUSH0 DUP4 ADD MSTORE PUSH2 0x402A DUP2 DUP5 PUSH2 0x3E7E JUMP JUMPDEST SWAP1 POP SWAP3 SWAP2 POP POP JUMP JUMPDEST PUSH0 DUP2 MLOAD SWAP1 POP SWAP2 SWAP1 POP JUMP JUMPDEST PUSH0 DUP3 DUP3 MSTORE PUSH1 0x20 DUP3 ADD SWAP1 POP SWAP3 SWAP2 POP POP JUMP JUMPDEST PUSH0 DUP2 SWAP1 POP PUSH1 0x20 DUP3 ADD SWAP1 POP SWAP2 SWAP1 POP JUMP JUMPDEST PUSH0 PUSH2 0x240 DUP4 ADD PUSH0 DUP4 ADD MLOAD DUP5 DUP3 SUB PUSH0 DUP7 ADD MSTORE PUSH2 0x4076 DUP3 DUP3 PUSH2 0x3D6D JUMP JUMPDEST SWAP2 POP POP PUSH1 0x20 DUP4 ADD MLOAD DUP5 DUP3 SUB PUSH1 0x20 DUP7 ADD MSTORE PUSH2 0x4090 DUP3 DUP3 PUSH2 0x3D6D JUMP JUMPDEST SWAP2 POP POP PUSH1 0x40 DUP4 ADD MLOAD PUSH2 0x40A5 PUSH1 0x40 DUP7 ADD DUP3 PUSH2 0x3DD5 JUMP JUMPDEST POP PUSH1 0x60 DUP4 ADD MLOAD PUSH2 0x40B8 PUSH1 0x60 DUP7 ADD DUP3 PUSH2 0x3DD5 JUMP JUMPDEST POP PUSH1 0x80 DUP4 ADD MLOAD PUSH2 0x40CB PUSH1 0x80 DUP7 ADD DUP3 PUSH2 0x3DED JUMP JUMPDEST POP PUSH1 0xA0 DUP4 ADD MLOAD PUSH2 0x40DE PUSH1 0xA0 DUP7 ADD DUP3 PUSH2 0x3DED JUMP JUMPDEST POP PUSH1 0xC0 DUP4 ADD MLOAD PUSH2 0x40F1 PUSH1 0xC0 DUP7 ADD DUP3 PUSH2 0x3DED JUMP JUMPDEST POP PUSH1 0xE0 DUP4 ADD MLOAD PUSH2 0x4104 PUSH1 0xE0 DUP7 ADD DUP3 PUSH2 0x3DED JUMP JUMPDEST POP PUSH2 0x100 DUP4 ADD MLOAD DUP5 DUP3 SUB PUSH2 0x100 DUP7 ADD MSTORE PUSH2 0x411E DUP3 DUP3 PUSH2 0x3D6D JUMP JUMPDEST SWAP2 POP POP PUSH2 0x120 DUP4 ADD MLOAD DUP5 DUP3 SUB PUSH2 0x120 DUP7 ADD MSTORE PUSH2 0x413A DUP3 DUP3 PUSH2 0x3D6D JUMP JUMPDEST SWAP2 POP POP PUSH2 0x140 DUP4 ADD MLOAD PUSH2 0x4151 PUSH2 0x140 DUP7 ADD DUP3 PUSH2 0x3DFC JUMP JUMPDEST POP PUSH2 0x160 DUP4 ADD MLOAD PUSH2 0x4166 PUSH2 0x160 DUP7 ADD DUP3 PUSH2 0x3DFC JUMP JUMPDEST POP PUSH2 0x180 DUP4 ADD MLOAD PUSH2 0x417B PUSH2 0x180 DUP7 ADD DUP3 PUSH2 0x3DFC JUMP JUMPDEST POP PUSH2 0x1A0 DUP4 ADD MLOAD PUSH2 0x4190 PUSH2 0x1A0 DUP7 ADD DUP3 PUSH2 0x3DFC JUMP JUMPDEST POP PUSH2 0x1C0 DUP4 ADD MLOAD PUSH2 0x41A5 PUSH2 0x1C0 DUP7 ADD DUP3 PUSH2 0x3DFC JUMP JUMPDEST POP PUSH2 0x1E0 DUP4 ADD MLOAD PUSH2 0x41BA PUSH2 0x1E0 DUP7 ADD DUP3 PUSH2 0x3DFC JUMP JUMPDEST POP PUSH2 0x200 DUP4 ADD MLOAD PUSH2 0x41CF PUSH2 0x200 DUP7 ADD DUP3 PUSH2 0x3DD5 JUMP JUMPDEST POP PUSH2 0x220 DUP4 ADD MLOAD PUSH2 0x41E4 PUSH2 0x220 DUP7 ADD DUP3 PUSH2 0x3E6F JUMP JUMPDEST POP DUP1 SWAP2 POP POP SWAP3 SWAP2 POP POP JUMP JUMPDEST PUSH0 PUSH2 0x41FA DUP4 DUP4 PUSH2 0x405B JUMP JUMPDEST SWAP1 POP SWAP3 SWAP2 POP POP JUMP JUMPDEST PUSH0 PUSH1 0x20 DUP3 ADD SWAP1 POP SWAP2 SWAP1 POP JUMP JUMPDEST PUSH0 PUSH2 0x4218 DUP3 PUSH2 0x4032 JUMP JUMPDEST PUSH2 0x4222 DUP2 DUP6 PUSH2 0x403C JUMP JUMPDEST SWAP4 POP DUP4 PUSH1 0x20 DUP3 MUL DUP6 ADD PUSH2 0x4234 DUP6 PUSH2 0x404C JUMP JUMPDEST DUP1 PUSH0 JUMPDEST DUP6 DUP2 LT ISZERO PUSH2 0x426F JUMPI DUP5 DUP5 SUB DUP10 MSTORE DUP2 MLOAD PUSH2 0x4250 DUP6 DUP3 PUSH2 0x41EF JUMP JUMPDEST SWAP5 POP PUSH2 0x425B DUP4 PUSH2 0x4202 JUMP JUMPDEST SWAP3 POP PUSH1 0x20 DUP11 ADD SWAP10 POP POP PUSH1 0x1 DUP2 ADD SWAP1 POP PUSH2 0x4237 JUMP JUMPDEST POP DUP3 SWAP8 POP DUP8 SWAP6 POP POP POP POP POP POP SWAP3 SWAP2 POP POP JUMP JUMPDEST PUSH0 PUSH1 0x20 DUP3 ADD SWAP1 POP DUP2 DUP2 SUB PUSH0 DUP4 ADD MSTORE PUSH2 0x4299 DUP2 DUP5 PUSH2 0x420E JUMP JUMPDEST SWAP1 POP SWAP3 SWAP2 POP POP JUMP JUMPDEST PUSH0 DUP1 REVERT JUMPDEST PUSH0 DUP1 REVERT JUMPDEST PUSH2 0x42B2 DUP2 PUSH2 0x3DC4 JUMP JUMPDEST DUP2 EQ PUSH2 0x42BC JUMPI PUSH0 DUP1 REVERT JUMPDEST POP JUMP JUMPDEST PUSH0 DUP2 CALLDATALOAD SWAP1 POP PUSH2 0x42CD DUP2 PUSH2 0x42A9 JUMP JUMPDEST SWAP3 SWAP2 POP POP JUMP JUMPDEST PUSH2 0x42DC DUP2 PUSH2 0x3DE4 JUMP JUMPDEST DUP2 EQ PUSH2 0x42E6 JUMPI PUSH0 DUP1 REVERT JUMPDEST POP JUMP JUMPDEST PUSH0 DUP2 CALLDATALOAD SWAP1 POP PUSH2 0x42F7 DUP2 PUSH2 0x42D3 JUMP JUMPDEST SWAP3 SWAP2 POP POP JUMP JUMPDEST PUSH1 0x2 DUP2 LT PUSH2 0x4309 JUMPI PUSH0 DUP1 REVERT JUMPDEST POP JUMP JUMPDEST PUSH0 DUP2 CALLDATALOAD SWAP1 POP PUSH2 0x431A DUP2 PUSH2 0x42FD JUMP JUMPDEST SWAP3 SWAP2 POP POP JUMP JUMPDEST PUSH0 PUSH2 0x1C0 DUP3 DUP5 SUB SLT ISZERO PUSH2 0x4336 JUMPI PUSH2 0x4335 PUSH2 0x42A1 JUMP JUMPDEST JUMPDEST PUSH2 0x4341 PUSH2 0x1C0 PUSH2 0x3B2E JUMP JUMPDEST SWAP1 POP PUSH0 DUP3 ADD CALLDATALOAD PUSH8 0xFFFFFFFFFFFFFFFF DUP2 GT ISZERO PUSH2 0x4360 JUMPI PUSH2 0x435F PUSH2 0x42A5 JUMP JUMPDEST JUMPDEST PUSH2 0x436C DUP5 DUP3 DUP6 ADD PUSH2 0x3BC7 JUMP JUMPDEST PUSH0 DUP4 ADD MSTORE POP PUSH1 0x20 PUSH2 0x437F DUP5 DUP3 DUP6 ADD PUSH2 0x42BF JUMP JUMPDEST PUSH1 0x20 DUP4 ADD MSTORE POP PUSH1 0x40 PUSH2 0x4393 DUP5 DUP3 DUP6 ADD PUSH2 0x42BF JUMP JUMPDEST PUSH1 0x40 DUP4 ADD MSTORE POP PUSH1 0x60 PUSH2 0x43A7 DUP5 DUP3 DUP6 ADD PUSH2 0x42E9 JUMP JUMPDEST PUSH1 0x60 DUP4 ADD MSTORE POP PUSH1 0x80 PUSH2 0x43BB DUP5 DUP3 DUP6 ADD PUSH2 0x42E9 JUMP JUMPDEST PUSH1 0x80 DUP4 ADD MSTORE POP PUSH1 0xA0 PUSH2 0x43CF DUP5 DUP3 DUP6 ADD PUSH2 0x42E9 JUMP JUMPDEST PUSH1 0xA0 DUP4 ADD MSTORE POP PUSH1 0xC0 PUSH2 0x43E3 DUP5 DUP3 DUP6 ADD PUSH2 0x42E9 JUMP JUMPDEST PUSH1 0xC0 DUP4 ADD MSTORE POP PUSH1 0xE0 DUP3 ADD CALLDATALOAD PUSH8 0xFFFFFFFFFFFFFFFF DUP2 GT ISZERO PUSH2 0x4407 JUMPI PUSH2 0x4406 PUSH2 0x42A5 JUMP JUMPDEST JUMPDEST PUSH2 0x4413 DUP5 DUP3 DUP6 ADD PUSH2 0x3BC7 JUMP JUMPDEST PUSH1 0xE0 DUP4 ADD MSTORE POP PUSH2 0x100 DUP3 ADD CALLDATALOAD PUSH8 0xFFFFFFFFFFFFFFFF DUP2 GT ISZERO PUSH2 0x4438 JUMPI PUSH2 0x4437 PUSH2 0x42A5 JUMP JUMPDEST JUMPDEST PUSH2 0x4444 DUP5 DUP3 DUP6 ADD PUSH2 0x3BC7 JUMP JUMPDEST PUSH2 0x100 DUP4 ADD MSTORE POP PUSH2 0x120 PUSH2 0x445A DUP5 DUP3 DUP6 ADD PUSH2 0x3C13 JUMP JUMPDEST PUSH2 0x120 DUP4 ADD MSTORE POP PUSH2 0x140 PUSH2 0x4470 DUP5 DUP3 DUP6 ADD PUSH2 0x3C13 JUMP JUMPDEST PUSH2 0x140 DUP4 ADD MSTORE POP PUSH2 0x160 PUSH2 0x4486 DUP5 DUP3 DUP6 ADD PUSH2 0x3C13 JUMP JUMPDEST PUSH2 0x160 DUP4 ADD MSTORE POP PUSH2 0x180 PUSH2 0x449C DUP5 DUP3 DUP6 ADD PUSH2 0x3C13 JUMP JUMPDEST PUSH2 0x180 DUP4 ADD MSTORE POP PUSH2 0x1A0 PUSH2 0x44B2 DUP5 DUP3 DUP6 ADD PUSH2 0x430C JUMP JUMPDEST PUSH2 0x1A0 DUP4 ADD MSTORE POP SWAP3 SWAP2 POP POP JUMP JUMPDEST PUSH0 PUSH1 0x20 DUP3 DUP5 SUB SLT ISZERO PUSH2 0x44D4 JUMPI PUSH2 0x44D3 PUSH2 0x3AB0 JUMP JUMPDEST JUMPDEST PUSH0 DUP3 ADD CALLDATALOAD PUSH8 0xFFFFFFFFFFFFFFFF DUP2 GT ISZERO PUSH2 0x44F1 JUMPI PUSH2 0x44F0 PUSH2 0x3AB4 JUMP JUMPDEST JUMPDEST PUSH2 0x44FD DUP5 DUP3 DUP6 ADD PUSH2 0x4320 JUMP JUMPDEST SWAP2 POP POP SWAP3 SWAP2 POP POP JUMP JUMPDEST PUSH1 0x2 DUP2 LT PUSH2 0x4512 JUMPI PUSH0 DUP1 REVERT JUMPDEST POP JUMP JUMPDEST PUSH0 DUP2 CALLDATALOAD SWAP1 POP PUSH2 0x4523 DUP2 PUSH2 0x4506 JUMP JUMPDEST SWAP3 SWAP2 POP POP JUMP JUMPDEST PUSH0 DUP1 PUSH0 PUSH1 0x60 DUP5 DUP7 SUB SLT ISZERO PUSH2 0x4540 JUMPI PUSH2 0x453F PUSH2 0x3AB0 JUMP JUMPDEST JUMPDEST PUSH0 DUP5 ADD CALLDATALOAD PUSH8 0xFFFFFFFFFFFFFFFF DUP2 GT ISZERO PUSH2 0x455D JUMPI PUSH2 0x455C PUSH2 0x3AB4 JUMP JUMPDEST JUMPDEST PUSH2 0x4569 DUP7 DUP3 DUP8 ADD PUSH2 0x3BC7 JUMP JUMPDEST SWAP4 POP POP PUSH1 0x20 PUSH2 0x457A DUP7 DUP3 DUP8 ADD PUSH2 0x3C90 JUMP JUMPDEST SWAP3 POP POP PUSH1 0x40 PUSH2 0x458B DUP7 DUP3 DUP8 ADD PUSH2 0x4515 JUMP JUMPDEST SWAP2 POP POP SWAP3 POP SWAP3 POP SWAP3 JUMP JUMPDEST PUSH32 0x4E487B7100000000000000000000000000000000000000000000000000000000 PUSH0 MSTORE PUSH1 0x11 PUSH1 0x4 MSTORE PUSH1 0x24 PUSH0 REVERT JUMPDEST PUSH0 PUSH2 0x45CC DUP3 PUSH2 0x3BF4 JUMP JUMPDEST SWAP2 POP PUSH2 0x45D7 DUP4 PUSH2 0x3BF4 JUMP JUMPDEST SWAP3 POP DUP3 DUP3 MUL PUSH2 0x45E5 DUP2 PUSH2 0x3BF4 JUMP JUMPDEST SWAP2 POP DUP3 DUP3 DIV DUP5 EQ DUP4 ISZERO OR PUSH2 0x45FC JUMPI PUSH2 0x45FB PUSH2 0x4595 JUMP JUMPDEST JUMPDEST POP SWAP3 SWAP2 POP POP JUMP JUMPDEST PUSH0 DUP3 DUP3 MSTORE PUSH1 0x20 DUP3 ADD SWAP1 POP SWAP3 SWAP2 POP POP JUMP JUMPDEST PUSH0 PUSH2 0x461D DUP3 PUSH2 0x3D45 JUMP JUMPDEST PUSH2 0x4627 DUP2 DUP6 PUSH2 0x4603 JUMP JUMPDEST SWAP4 POP PUSH2 0x4637 DUP2 DUP6 PUSH1 0x20 DUP7 ADD PUSH2 0x3D5F JUMP JUMPDEST PUSH2 0x4640 DUP2 PUSH2 0x3AC0 JUMP JUMPDEST DUP5 ADD SWAP2 POP POP SWAP3 SWAP2 POP POP JUMP JUMPDEST PUSH32 0x536572766963652072657175657374206973206E6F7420696E2061756374696F PUSH0 DUP3 ADD MSTORE PUSH32 0x6E207269676874206E6F77000000000000000000000000000000000000000000 PUSH1 0x20 DUP3 ADD MSTORE POP JUMP JUMPDEST PUSH0 PUSH2 0x46A5 PUSH1 0x2B DUP4 PUSH2 0x4603 JUMP JUMPDEST SWAP2 POP PUSH2 0x46B0 DUP3 PUSH2 0x464B JUMP JUMPDEST PUSH1 0x40 DUP3 ADD SWAP1 POP SWAP2 SWAP1 POP JUMP JUMPDEST PUSH0 PUSH1 0x40 DUP3 ADD SWAP1 POP DUP2 DUP2 SUB PUSH0 DUP4 ADD MSTORE PUSH2 0x46D3 DUP2 DUP5 PUSH2 0x4613 JUMP JUMPDEST SWAP1 POP DUP2 DUP2 SUB PUSH1 0x20 DUP4 ADD MSTORE PUSH2 0x46E6 DUP2 PUSH2 0x4699 JUMP JUMPDEST SWAP1 POP SWAP3 SWAP2 POP POP JUMP JUMPDEST PUSH32 0x41756374696F6E20656E64656420616C72656164790000000000000000000000 PUSH0 DUP3 ADD MSTORE POP JUMP JUMPDEST PUSH0 PUSH2 0x4722 PUSH1 0x15 DUP4 PUSH2 0x4603 JUMP JUMPDEST SWAP2 POP PUSH2 0x472D DUP3 PUSH2 0x46EE JUMP JUMPDEST PUSH1 0x20 DUP3 ADD SWAP1 POP SWAP2 SWAP1 POP JUMP JUMPDEST PUSH0 PUSH1 0x40 DUP3 ADD SWAP1 POP DUP2 DUP2 SUB PUSH0 DUP4 ADD MSTORE PUSH2 0x4750 DUP2 DUP5 PUSH2 0x4613 JUMP JUMPDEST SWAP1 POP DUP2 DUP2 SUB PUSH1 0x20 DUP4 ADD MSTORE PUSH2 0x4763 DUP2 PUSH2 0x4716 JUMP JUMPDEST SWAP1 POP SWAP3 SWAP2 POP POP JUMP JUMPDEST PUSH32 0x536572766963652072657175657374206E6F7420696E20796F75722072656769 PUSH0 DUP3 ADD MSTORE PUSH32 0x6F6E000000000000000000000000000000000000000000000000000000000000 PUSH1 0x20 DUP3 ADD MSTORE POP JUMP JUMPDEST PUSH0 PUSH2 0x47C5 PUSH1 0x22 DUP4 PUSH2 0x4603 JUMP JUMPDEST SWAP2 POP PUSH2 0x47D0 DUP3 PUSH2 0x476B JUMP JUMPDEST PUSH1 0x40 DUP3 ADD SWAP1 POP SWAP2 SWAP1 POP JUMP JUMPDEST PUSH0 PUSH1 0x40 DUP3 ADD SWAP1 POP DUP2 DUP2 SUB PUSH0 DUP4 ADD MSTORE PUSH2 0x47F3 DUP2 DUP5 PUSH2 0x4613 JUMP JUMPDEST SWAP1 POP DUP2 DUP2 SUB PUSH1 0x20 DUP4 ADD MSTORE PUSH2 0x4806 DUP2 PUSH2 0x47B9 JUMP JUMPDEST SWAP1 POP SWAP3 SWAP2 POP POP JUMP JUMPDEST PUSH2 0x4817 DUP2 PUSH2 0x3BF4 JUMP JUMPDEST DUP3 MSTORE POP POP JUMP JUMPDEST PUSH32 0x506C656173652073656E642076616C696420636172676F20696E73757261626C PUSH0 DUP3 ADD MSTORE PUSH32 0x652076616C756500000000000000000000000000000000000000000000000000 PUSH1 0x20 DUP3 ADD MSTORE POP JUMP JUMPDEST PUSH0 PUSH2 0x4877 PUSH1 0x27 DUP4 PUSH2 0x4603 JUMP JUMPDEST SWAP2 POP PUSH2 0x4882 DUP3 PUSH2 0x481D JUMP JUMPDEST PUSH1 0x40 DUP3 ADD SWAP1 POP SWAP2 SWAP1 POP JUMP JUMPDEST PUSH0 PUSH1 0x40 DUP3 ADD SWAP1 POP PUSH2 0x48A0 PUSH0 DUP4 ADD DUP5 PUSH2 0x480E JUMP JUMPDEST DUP2 DUP2 SUB PUSH1 0x20 DUP4 ADD MSTORE PUSH2 0x48B1 DUP2 PUSH2 0x486B JUMP JUMPDEST SWAP1 POP SWAP3 SWAP2 POP POP JUMP JUMPDEST PUSH0 PUSH2 0x48C3 DUP3 PUSH2 0x3BF4 JUMP JUMPDEST SWAP2 POP PUSH2 0x48CE DUP4 PUSH2 0x3BF4 JUMP JUMPDEST SWAP3 POP DUP3 DUP3 ADD SWAP1 POP DUP1 DUP3 GT ISZERO PUSH2 0x48E6 JUMPI PUSH2 0x48E5 PUSH2 0x4595 JUMP JUMPDEST JUMPDEST SWAP3 SWAP2 POP POP JUMP JUMPDEST PUSH32 0x506C656173652073656E642076616C6964207365727669636520666565000000 PUSH0 DUP3 ADD MSTORE POP JUMP JUMPDEST PUSH0 PUSH2 0x4920 PUSH1 0x1D DUP4 PUSH2 0x4603 JUMP JUMPDEST SWAP2 POP PUSH2 0x492B DUP3 PUSH2 0x48EC JUMP JUMPDEST PUSH1 0x20 DUP3 ADD SWAP1 POP SWAP2 SWAP1 POP JUMP JUMPDEST PUSH0 PUSH1 0x40 DUP3 ADD SWAP1 POP PUSH2 0x4949 PUSH0 DUP4 ADD DUP5 PUSH2 0x480E JUMP JUMPDEST DUP2 DUP2 SUB PUSH1 0x20 DUP4 ADD MSTORE PUSH2 0x495A DUP2 PUSH2 0x4914 JUMP JUMPDEST SWAP1 POP SWAP3 SWAP2 POP POP JUMP JUMPDEST PUSH0 DUP2 SWAP1 POP SWAP3 SWAP2 POP POP JUMP JUMPDEST PUSH0 PUSH2 0x4976 DUP3 PUSH2 0x3D45 JUMP JUMPDEST PUSH2 0x4980 DUP2 DUP6 PUSH2 0x4962 JUMP JUMPDEST SWAP4 POP PUSH2 0x4990 DUP2 DUP6 PUSH1 0x20 DUP7 ADD PUSH2 0x3D5F JUMP JUMPDEST DUP1 DUP5 ADD SWAP2 POP POP SWAP3 SWAP2 POP POP JUMP JUMPDEST PUSH0 PUSH2 0x49A7 DUP3 DUP5 PUSH2 0x496C JUMP JUMPDEST SWAP2 POP DUP2 SWAP1 POP SWAP3 SWAP2 POP POP JUMP JUMPDEST PUSH32 0x4E487B7100000000000000000000000000000000000000000000000000000000 PUSH0 MSTORE PUSH1 0x32 PUSH1 0x4 MSTORE PUSH1 0x24 PUSH0 REVERT JUMPDEST PUSH2 0x49E8 DUP2 PUSH2 0x3DC4 JUMP JUMPDEST DUP3 MSTORE POP POP JUMP JUMPDEST PUSH0 PUSH1 0x60 DUP3 ADD SWAP1 POP DUP2 DUP2 SUB PUSH0 DUP4 ADD MSTORE PUSH2 0x4A06 DUP2 DUP7 PUSH2 0x4613 JUMP JUMPDEST SWAP1 POP PUSH2 0x4A15 PUSH1 0x20 DUP4 ADD DUP6 PUSH2 0x480E JUMP JUMPDEST PUSH2 0x4A22 PUSH1 0x40 DUP4 ADD DUP5 PUSH2 0x49DF JUMP JUMPDEST SWAP5 SWAP4 POP POP POP POP JUMP JUMPDEST PUSH32 0x53657276696365207265717565737420697320616C72656164792063616E6365 PUSH0 DUP3 ADD MSTORE PUSH32 0x6C6C656400000000000000000000000000000000000000000000000000000000 PUSH1 0x20 DUP3 ADD MSTORE POP JUMP JUMPDEST PUSH0 PUSH2 0x4A84 PUSH1 0x24 DUP4 PUSH2 0x4603 JUMP JUMPDEST SWAP2 POP PUSH2 0x4A8F DUP3 PUSH2 0x4A2A JUMP JUMPDEST PUSH1 0x40 DUP3 ADD SWAP1 POP SWAP2 SWAP1 POP JUMP JUMPDEST PUSH0 PUSH1 0x40 DUP3 ADD SWAP1 POP DUP2 DUP2 SUB PUSH0 DUP4 ADD MSTORE PUSH2 0x4AB2 DUP2 DUP5 PUSH2 0x4613 JUMP JUMPDEST SWAP1 POP DUP2 DUP2 SUB PUSH1 0x20 DUP4 ADD MSTORE PUSH2 0x4AC5 DUP2 PUSH2 0x4A78 JUMP JUMPDEST SWAP1 POP SWAP3 SWAP2 POP POP JUMP JUMPDEST PUSH32 0x4F6E6C7920736869707065722063616E20757064617465207468652073746174 PUSH0 DUP3 ADD MSTORE PUSH32 0x7573000000000000000000000000000000000000000000000000000000000000 PUSH1 0x20 DUP3 ADD MSTORE POP JUMP JUMPDEST PUSH0 PUSH2 0x4B27 PUSH1 0x22 DUP4 PUSH2 0x4603 JUMP JUMPDEST SWAP2 POP PUSH2 0x4B32 DUP3 PUSH2 0x4ACD JUMP JUMPDEST PUSH1 0x40 DUP3 ADD SWAP1 POP SWAP2 SWAP1 POP JUMP JUMPDEST PUSH0 PUSH1 0x40 DUP3 ADD SWAP1 POP DUP2 DUP2 SUB PUSH0 DUP4 ADD MSTORE PUSH2 0x4B55 DUP2 DUP5 PUSH2 0x4613 JUMP JUMPDEST SWAP1 POP DUP2 DUP2 SUB PUSH1 0x20 DUP4 ADD MSTORE PUSH2 0x4B68 DUP2 PUSH2 0x4B1B JUMP JUMPDEST SWAP1 POP SWAP3 SWAP2 POP POP JUMP JUMPDEST PUSH32 0x5570646174656420736572766963652072657175657374207375636365737366 PUSH0 DUP3 ADD MSTORE PUSH32 0x756C6C7900000000000000000000000000000000000000000000000000000000 PUSH1 0x20 DUP3 ADD MSTORE POP JUMP JUMPDEST PUSH0 PUSH2 0x4BCA PUSH1 0x24 DUP4 PUSH2 0x4603 JUMP JUMPDEST SWAP2 POP PUSH2 0x4BD5 DUP3 PUSH2 0x4B70 JUMP JUMPDEST PUSH1 0x40 DUP3 ADD SWAP1 POP SWAP2 SWAP1 POP JUMP JUMPDEST PUSH0 PUSH1 0x40 DUP3 ADD SWAP1 POP DUP2 DUP2 SUB PUSH0 DUP4 ADD MSTORE PUSH2 0x4BF8 DUP2 DUP5 PUSH2 0x4613 JUMP JUMPDEST SWAP1 POP DUP2 DUP2 SUB PUSH1 0x20 DUP4 ADD MSTORE PUSH2 0x4C0B DUP2 PUSH2 0x4BBE JUMP JUMPDEST SWAP1 POP SWAP3 SWAP2 POP POP JUMP JUMPDEST PUSH32 0x52454144595F464F525F5049434B55502043616E206F6E6C7920626520757064 PUSH0 DUP3 ADD MSTORE PUSH32 0x61746564206F6E6365206472697665722069732061737369676E656400000000 PUSH1 0x20 DUP3 ADD MSTORE POP JUMP JUMPDEST PUSH0 PUSH2 0x4C6D PUSH1 0x3C DUP4 PUSH2 0x4603 JUMP JUMPDEST SWAP2 POP PUSH2 0x4C78 DUP3 PUSH2 0x4C13 JUMP JUMPDEST PUSH1 0x40 DUP3 ADD SWAP1 POP SWAP2 SWAP1 POP JUMP JUMPDEST PUSH0 PUSH1 0x40 DUP3 ADD SWAP1 POP DUP2 DUP2 SUB PUSH0 DUP4 ADD MSTORE PUSH2 0x4C9B DUP2 DUP5 PUSH2 0x4613 JUMP JUMPDEST SWAP1 POP DUP2 DUP2 SUB PUSH1 0x20 DUP4 ADD MSTORE PUSH2 0x4CAE DUP2 PUSH2 0x4C61 JUMP JUMPDEST SWAP1 POP SWAP3 SWAP2 POP POP JUMP JUMPDEST PUSH32 0x596F7520646F6E277420686176652061636365737320746F2076696577207365 PUSH0 DUP3 ADD MSTORE PUSH32 0x7276696365207265717565737420696E666F0000000000000000000000000000 PUSH1 0x20 DUP3 ADD MSTORE POP JUMP JUMPDEST PUSH0 PUSH2 0x4D10 PUSH1 0x32 DUP4 PUSH2 0x4603 JUMP JUMPDEST SWAP2 POP PUSH2 0x4D1B DUP3 PUSH2 0x4CB6 JUMP JUMPDEST PUSH1 0x40 DUP3 ADD SWAP1 POP SWAP2 SWAP1 POP JUMP JUMPDEST PUSH0 PUSH1 0x40 DUP3 ADD SWAP1 POP DUP2 DUP2 SUB PUSH0 DUP4 ADD MSTORE PUSH2 0x4D3E DUP2 DUP5 PUSH2 0x4613 JUMP JUMPDEST SWAP1 POP DUP2 DUP2 SUB PUSH1 0x20 DUP4 ADD MSTORE PUSH2 0x4D51 DUP2 PUSH2 0x4D04 JUMP JUMPDEST SWAP1 POP SWAP3 SWAP2 POP POP JUMP JUMPDEST PUSH32 0x536572766963652052657175657374206973206E6F7420696E20445241465420 PUSH0 DUP3 ADD MSTORE PUSH32 0x7374617475730000000000000000000000000000000000000000000000000000 PUSH1 0x20 DUP3 ADD MSTORE POP JUMP JUMPDEST PUSH0 PUSH2 0x4DB3 PUSH1 0x26 DUP4 PUSH2 0x4603 JUMP JUMPDEST SWAP2 POP PUSH2 0x4DBE DUP3 PUSH2 0x4D59 JUMP JUMPDEST PUSH1 0x40 DUP3 ADD SWAP1 POP SWAP2 SWAP1 POP JUMP JUMPDEST PUSH0 PUSH1 0x40 DUP3 ADD SWAP1 POP DUP2 DUP2 SUB PUSH0 DUP4 ADD MSTORE PUSH2 0x4DE1 DUP2 DUP5 PUSH2 0x4613 JUMP JUMPDEST SWAP1 POP DUP2 DUP2 SUB PUSH1 0x20 DUP4 ADD MSTORE PUSH2 0x4DF4 DUP2 PUSH2 0x4DA7 JUMP JUMPDEST SWAP1 POP SWAP3 SWAP2 POP POP JUMP JUMPDEST PUSH32 0x4E487B7100000000000000000000000000000000000000000000000000000000 PUSH0 MSTORE PUSH1 0x22 PUSH1 0x4 MSTORE PUSH1 0x24 PUSH0 REVERT JUMPDEST PUSH0 PUSH1 0x2 DUP3 DIV SWAP1 POP PUSH1 0x1 DUP3 AND DUP1 PUSH2 0x4E40 JUMPI PUSH1 0x7F DUP3 AND SWAP2 POP JUMPDEST PUSH1 0x20 DUP3 LT DUP2 SUB PUSH2 0x4E53 JUMPI PUSH2 0x4E52 PUSH2 0x4DFC JUMP JUMPDEST JUMPDEST POP SWAP2 SWAP1 POP JUMP JUMPDEST PUSH0 PUSH2 0x4E63 DUP3 PUSH2 0x3BF4 JUMP JUMPDEST SWAP2 POP PUSH32 0xFFFFFFFFFFFFFFFFFFFFFFFFFFFFFFFFFFFFFFFFFFFFFFFFFFFFFFFFFFFFFFFF DUP3 SUB PUSH2 0x4E95 JUMPI PUSH2 0x4E94 PUSH2 0x4595 JUMP JUMPDEST JUMPDEST PUSH1 0x1 DUP3 ADD SWAP1 POP SWAP2 SWAP1 POP JUMP JUMPDEST PUSH32 0x4F6E6C792061737369676E6564206472697665722063616E2075706461746520 PUSH0 DUP3 ADD MSTORE PUSH32 0x7468652073746174757300000000000000000000000000000000000000000000 PUSH1 0x20 DUP3 ADD MSTORE POP JUMP JUMPDEST PUSH0 PUSH2 0x4EFA PUSH1 0x2A DUP4 PUSH2 0x4603 JUMP JUMPDEST SWAP2 POP PUSH2 0x4F05 DUP3 PUSH2 0x4EA0 JUMP JUMPDEST PUSH1 0x40 DUP3 ADD SWAP1 POP SWAP2 SWAP1 POP JUMP JUMPDEST PUSH0 PUSH1 0x40 DUP3 ADD SWAP1 POP DUP2 DUP2 SUB PUSH0 DUP4 ADD MSTORE PUSH2 0x4F28 DUP2 DUP5 PUSH2 0x4613 JUMP JUMPDEST SWAP1 POP DUP2 DUP2 SUB PUSH1 0x20 DUP4 ADD MSTORE PUSH2 0x4F3B DUP2 PUSH2 0x4EEE JUMP JUMPDEST SWAP1 POP SWAP3 SWAP2 POP POP JUMP JUMPDEST PUSH32 0x4452495645525F415252495645445F41545F4F524947494E2073746174757320 PUSH0 DUP3 ADD MSTORE PUSH32 0x63616E206F6E6C792062652075706461746564207768656E2052454144595F46 PUSH1 0x20 DUP3 ADD MSTORE PUSH32 0x4F525F5049434B55502073746174757300000000000000000000000000000000 PUSH1 0x40 DUP3 ADD MSTORE POP JUMP JUMPDEST PUSH0 PUSH2 0x4FC3 PUSH1 0x50 DUP4 PUSH2 0x4603 JUMP JUMPDEST SWAP2 POP PUSH2 0x4FCE DUP3 PUSH2 0x4F43 JUMP JUMPDEST PUSH1 0x60 DUP3 ADD SWAP1 POP SWAP2 SWAP1 POP JUMP JUMPDEST PUSH0 PUSH1 0x40 DUP3 ADD SWAP1 POP DUP2 DUP2 SUB PUSH0 DUP4 ADD MSTORE PUSH2 0x4FF1 DUP2 DUP5 PUSH2 0x4613 JUMP JUMPDEST SWAP1 POP DUP2 DUP2 SUB PUSH1 0x20 DUP4 ADD MSTORE PUSH2 0x5004 DUP2 PUSH2 0x4FB7 JUMP JUMPDEST SWAP1 POP SWAP3 SWAP2 POP POP JUMP JUMPDEST PUSH32 0x50415243454C5F5049434B45445F5550207374617475732063616E206F6E6C79 PUSH0 DUP3 ADD MSTORE PUSH32 0x2062652075706461746564207768656E204452495645525F415252495645445F PUSH1 0x20 DUP3 ADD MSTORE PUSH32 0x41545F4F524947494E2073746174757300000000000000000000000000000000 PUSH1 0x40 DUP3 ADD MSTORE POP JUMP JUMPDEST PUSH0 PUSH2 0x508C PUSH1 0x50 DUP4 PUSH2 0x4603 JUMP JUMPDEST SWAP2 POP PUSH2 0x5097 DUP3 PUSH2 0x500C JUMP JUMPDEST PUSH1 0x60 DUP3 ADD SWAP1 POP SWAP2 SWAP1 POP JUMP JUMPDEST PUSH0 PUSH1 0x40 DUP3 ADD SWAP1 POP DUP2 DUP2 SUB PUSH0 DUP4 ADD MSTORE PUSH2 0x50BA DUP2 DUP5 PUSH2 0x4613 JUMP JUMPDEST SWAP1 POP DUP2 DUP2 SUB PUSH1 0x20 DUP4 ADD MSTORE PUSH2 0x50CD DUP2 PUSH2 0x5080 JUMP JUMPDEST SWAP1 POP SWAP3 SWAP2 POP POP JUMP JUMPDEST PUSH32 0x4F55545F464F525F44454C4956455259207374617475732063616E206F6E6C79 PUSH0 DUP3 ADD MSTORE PUSH32 0x2062652075706461746564207768656E2050415243454C5F5049434B45445F55 PUSH1 0x20 DUP3 ADD MSTORE PUSH32 0x5020737461747573000000000000000000000000000000000000000000000000 PUSH1 0x40 DUP3 ADD MSTORE POP JUMP JUMPDEST PUSH0 PUSH2 0x5155 PUSH1 0x48 DUP4 PUSH2 0x4603 JUMP JUMPDEST SWAP2 POP PUSH2 0x5160 DUP3 PUSH2 0x50D5 JUMP JUMPDEST PUSH1 0x60 DUP3 ADD SWAP1 POP SWAP2 SWAP1 POP JUMP JUMPDEST PUSH0 PUSH1 0x40 DUP3 ADD SWAP1 POP DUP2 DUP2 SUB PUSH0 DUP4 ADD MSTORE PUSH2 0x5183 DUP2 DUP5 PUSH2 0x4613 JUMP JUMPDEST SWAP1 POP DUP2 DUP2 SUB PUSH1 0x20 DUP4 ADD MSTORE PUSH2 0x5196 DUP2 PUSH2 0x5149 JUMP JUMPDEST SWAP1 POP SWAP3 SWAP2 POP POP JUMP JUMPDEST PUSH32 0x4452495645525F415252495645445F41545F44455354494E4154494F4E207374 PUSH0 DUP3 ADD MSTORE PUSH32 0x617475732063616E206F6E6C792062652075706461746564207768656E204F55 PUSH1 0x20 DUP3 ADD MSTORE PUSH32 0x545F464F525F44454C4956455259207374617475730000000000000000000000 PUSH1 0x40 DUP3 ADD MSTORE POP JUMP JUMPDEST PUSH0 PUSH2 0x521E PUSH1 0x55 DUP4 PUSH2 0x4603 JUMP JUMPDEST SWAP2 POP PUSH2 0x5229 DUP3 PUSH2 0x519E JUMP JUMPDEST PUSH1 0x60 DUP3 ADD SWAP1 POP SWAP2 SWAP1 POP JUMP JUMPDEST PUSH0 PUSH1 0x40 DUP3 ADD SWAP1 POP DUP2 DUP2 SUB PUSH0 DUP4 ADD MSTORE PUSH2 0x524C DUP2 DUP5 PUSH2 0x4613 JUMP JUMPDEST SWAP1 POP DUP2 DUP2 SUB PUSH1 0x20 DUP4 ADD MSTORE PUSH2 0x525F DUP2 PUSH2 0x5212 JUMP JUMPDEST SWAP1 POP SWAP3 SWAP2 POP POP JUMP JUMPDEST PUSH32 0x4472697665722063616E206F6E6C792075706461746520737461747573203A20 PUSH0 DUP3 ADD MSTORE PUSH32 0x4452495645525F415252495645445F41545F4F524947494E2C2050415243454C PUSH1 0x20 DUP3 ADD MSTORE PUSH32 0x5F5049434B45445F55502C204F55545F464F525F44454C49564552592C204452 PUSH1 0x40 DUP3 ADD MSTORE PUSH32 0x495645525F415252495645445F41545F44455354494E4154494F4E0000000000 PUSH1 0x60 DUP3 ADD MSTORE POP JUMP JUMPDEST PUSH0 PUSH2 0x530D PUSH1 0x7B DUP4 PUSH2 0x4603 JUMP JUMPDEST SWAP2 POP PUSH2 0x5318 DUP3 PUSH2 0x5267 JUMP JUMPDEST PUSH1 0x80 DUP3 ADD SWAP1 POP SWAP2 SWAP1 POP JUMP JUMPDEST PUSH0 PUSH1 0x40 DUP3 ADD SWAP1 POP DUP2 DUP2 SUB PUSH0 DUP4 ADD MSTORE PUSH2 0x533B DUP2 DUP5 PUSH2 0x4613 JUMP JUMPDEST SWAP1 POP DUP2 DUP2 SUB PUSH1 0x20 DUP4 ADD MSTORE PUSH2 0x534E DUP2 PUSH2 0x5301 JUMP JUMPDEST SWAP1 POP SWAP3 SWAP2 POP POP JUMP JUMPDEST PUSH32 0x4F6E6C7920736869707065722063616E2063616E63656C6C6564207468652073 PUSH0 DUP3 ADD MSTORE PUSH32 0x6572766963652072657175657374000000000000000000000000000000000000 PUSH1 0x20 DUP3 ADD MSTORE POP JUMP JUMPDEST PUSH0 PUSH2 0x53B0 PUSH1 0x2E DUP4 PUSH2 0x4603 JUMP JUMPDEST SWAP2 POP PUSH2 0x53BB DUP3 PUSH2 0x5356 JUMP JUMPDEST PUSH1 0x40 DUP3 ADD SWAP1 POP SWAP2 SWAP1 POP JUMP JUMPDEST PUSH0 PUSH1 0x40 DUP3 ADD SWAP1 POP DUP2 DUP2 SUB PUSH0 DUP4 ADD MSTORE PUSH2 0x53DE DUP2 DUP5 PUSH2 0x4613 JUMP JUMPDEST SWAP1 POP DUP2 DUP2 SUB PUSH1 0x20 DUP4 ADD MSTORE PUSH2 0x53F1 DUP2 PUSH2 0x53A4 JUMP JUMPDEST SWAP1 POP SWAP3 SWAP2 POP POP JUMP JUMPDEST PUSH32 0x5365727669636520726571756573742063616E6E6F742062652063616E63656C PUSH0 DUP3 ADD MSTORE PUSH32 0x6C65642C206173206472697665722069732061737369676E6564000000000000 PUSH1 0x20 DUP3 ADD MSTORE POP JUMP JUMPDEST PUSH0 PUSH2 0x5453 PUSH1 0x3A DUP4 PUSH2 0x4603 JUMP JUMPDEST SWAP2 POP PUSH2 0x545E DUP3 PUSH2 0x53F9 JUMP JUMPDEST PUSH1 0x40 DUP3 ADD SWAP1 POP SWAP2 SWAP1 POP JUMP JUMPDEST PUSH0 PUSH1 0x40 DUP3 ADD SWAP1 POP DUP2 DUP2 SUB PUSH0 DUP4 ADD MSTORE PUSH2 0x5481 DUP2 DUP5 PUSH2 0x4613 JUMP JUMPDEST SWAP1 POP DUP2 DUP2 SUB PUSH1 0x20 DUP4 ADD MSTORE PUSH2 0x5494 DUP2 PUSH2 0x5447 JUMP JUMPDEST SWAP1 POP SWAP3 SWAP2 POP POP JUMP JUMPDEST PUSH0 PUSH1 0x40 DUP3 ADD SWAP1 POP DUP2 DUP2 SUB PUSH0 DUP4 ADD MSTORE PUSH2 0x54B4 DUP2 DUP6 PUSH2 0x4613 JUMP JUMPDEST SWAP1 POP PUSH2 0x54C3 PUSH1 0x20 DUP4 ADD DUP5 PUSH2 0x49DF JUMP JUMPDEST SWAP4 SWAP3 POP POP POP JUMP JUMPDEST PUSH32 0x5365727669636520726571756573742063616E6E6F742062652063616E63656C PUSH0 DUP3 ADD MSTORE PUSH32 0x6C65640000000000000000000000000000000000000000000000000000000000 PUSH1 0x20 DUP3 ADD MSTORE POP JUMP JUMPDEST PUSH0 PUSH2 0x5524 PUSH1 0x23 DUP4 PUSH2 0x4603 JUMP JUMPDEST SWAP2 POP PUSH2 0x552F DUP3 PUSH2 0x54CA JUMP JUMPDEST PUSH1 0x40 DUP3 ADD SWAP1 POP SWAP2 SWAP1 POP JUMP JUMPDEST PUSH0 PUSH1 0x40 DUP3 ADD SWAP1 POP DUP2 DUP2 SUB PUSH0 DUP4 ADD MSTORE PUSH2 0x5552 DUP2 DUP5 PUSH2 0x4613 JUMP JUMPDEST SWAP1 POP DUP2 DUP2 SUB PUSH1 0x20 DUP4 ADD MSTORE PUSH2 0x5565 DUP2 PUSH2 0x5518 JUMP JUMPDEST SWAP1 POP SWAP3 SWAP2 POP POP JUMP JUMPDEST PUSH0 DUP2 SWAP1 POP DUP2 PUSH0 MSTORE PUSH1 0x20 PUSH0 KECCAK256 SWAP1 POP SWAP2 SWAP1 POP JUMP JUMPDEST PUSH0 PUSH1 0x20 PUSH1 0x1F DUP4 ADD DIV SWAP1 POP SWAP2 SWAP1 POP JUMP JUMPDEST PUSH0 DUP3 DUP3 SHL SWAP1 POP SWAP3 SWAP2 POP POP JUMP JUMPDEST PUSH0 PUSH1 0x8 DUP4 MUL PUSH2 0x55C9 PUSH32 0xFFFFFFFFFFFFFFFFFFFFFFFFFFFFFFFFFFFFFFFFFFFFFFFFFFFFFFFFFFFFFFFF DUP3 PUSH2 0x558E JUMP JUMPDEST PUSH2 0x55D3 DUP7 DUP4 PUSH2 0x558E JUMP JUMPDEST SWAP6 POP DUP1 NOT DUP5 AND SWAP4 POP DUP1 DUP7 AND DUP5 OR SWAP3 POP POP POP SWAP4 SWAP3 POP POP POP JUMP JUMPDEST PUSH0 DUP2 SWAP1 POP SWAP2 SWAP1 POP JUMP JUMPDEST PUSH0 PUSH2 0x560E PUSH2 0x5609 PUSH2 0x5604 DUP5 PUSH2 0x3BF4 JUMP JUMPDEST PUSH2 0x55EB JUMP JUMPDEST PUSH2 0x3BF4 JUMP JUMPDEST SWAP1 POP SWAP2 SWAP1 POP JUMP JUMPDEST PUSH0 DUP2 SWAP1 POP SWAP2 SWAP1 POP JUMP JUMPDEST PUSH2 0x5627 DUP4 PUSH2 0x55F4 JUMP JUMPDEST PUSH2 0x563B PUSH2 0x5633 DUP3 PUSH2 0x5615 JUMP JUMPDEST DUP5 DUP5 SLOAD PUSH2 0x559A JUMP JUMPDEST DUP3 SSTORE POP POP POP POP JUMP JUMPDEST PUSH0 SWAP1 JUMP JUMPDEST PUSH2 0x564F PUSH2 0x5643 JUMP JUMPDEST PUSH2 0x565A DUP2 DUP5 DUP5 PUSH2 0x561E JUMP JUMPDEST POP POP POP JUMP JUMPDEST JUMPDEST DUP2 DUP2 LT ISZERO PUSH2 0x567D JUMPI PUSH2 0x5672 PUSH0 DUP3 PUSH2 0x5647 JUMP JUMPDEST PUSH1 0x1 DUP2 ADD SWAP1 POP PUSH2 0x5660 JUMP JUMPDEST POP POP JUMP JUMPDEST PUSH1 0x1F DUP3 GT ISZERO PUSH2 0x56C2 JUMPI PUSH2 0x5693 DUP2 PUSH2 0x556D JUMP JUMPDEST PUSH2 0x569C DUP5 PUSH2 0x557F JUMP JUMPDEST DUP2 ADD PUSH1 0x20 DUP6 LT ISZERO PUSH2 0x56AB JUMPI DUP2 SWAP1 POP JUMPDEST PUSH2 0x56BF PUSH2 0x56B7 DUP6 PUSH2 0x557F JUMP JUMPDEST DUP4 ADD DUP3 PUSH2 0x565F JUMP JUMPDEST POP POP JUMPDEST POP POP POP JUMP JUMPDEST PUSH0 DUP3 DUP3 SHR SWAP1 POP SWAP3 SWAP2 POP POP JUMP JUMPDEST PUSH0 PUSH2 0x56E2 PUSH0 NOT DUP5 PUSH1 0x8 MUL PUSH2 0x56C7 JUMP JUMPDEST NOT DUP1 DUP4 AND SWAP2 POP POP SWAP3 SWAP2 POP POP JUMP JUMPDEST PUSH0 PUSH2 0x56FA DUP4 DUP4 PUSH2 0x56D3 JUMP JUMPDEST SWAP2 POP DUP3 PUSH1 0x2 MUL DUP3 OR SWAP1 POP SWAP3 SWAP2 POP POP JUMP JUMPDEST PUSH2 0x5713 DUP3 PUSH2 0x3D45 JUMP JUMPDEST PUSH8 0xFFFFFFFFFFFFFFFF DUP2 GT ISZERO PUSH2 0x572C JUMPI PUSH2 0x572B PUSH2 0x3AD0 JUMP JUMPDEST JUMPDEST PUSH2 0x5736 DUP3 SLOAD PUSH2 0x4E29 JUMP JUMPDEST PUSH2 0x5741 DUP3 DUP3 DUP6 PUSH2 0x5681 JUMP JUMPDEST PUSH0 PUSH1 0x20 SWAP1 POP PUSH1 0x1F DUP4 GT PUSH1 0x1 DUP2 EQ PUSH2 0x5772 JUMPI PUSH0 DUP5 ISZERO PUSH2 0x5760 JUMPI DUP3 DUP8 ADD MLOAD SWAP1 POP JUMPDEST PUSH2 0x576A DUP6 DUP3 PUSH2 0x56EF JUMP JUMPDEST DUP7 SSTORE POP PUSH2 0x57D1 JUMP JUMPDEST PUSH1 0x1F NOT DUP5 AND PUSH2 0x5780 DUP7 PUSH2 0x556D JUMP JUMPDEST PUSH0 JUMPDEST DUP3 DUP2 LT ISZERO PUSH2 0x57A7 JUMPI DUP5 DUP10 ADD MLOAD DUP3 SSTORE PUSH1 0x1 DUP3 ADD SWAP2 POP PUSH1 0x20 DUP6 ADD SWAP5 POP PUSH1 0x20 DUP2 ADD SWAP1 POP PUSH2 0x5782 JUMP JUMPDEST DUP7 DUP4 LT ISZERO PUSH2 0x57C4 JUMPI DUP5 DUP10 ADD MLOAD PUSH2 0x57C0 PUSH1 0x1F DUP10 AND DUP3 PUSH2 0x56D3 JUMP JUMPDEST DUP4 SSTORE POP JUMPDEST PUSH1 0x1 PUSH1 0x2 DUP9 MUL ADD DUP9 SSTORE POP POP POP JUMPDEST POP POP POP POP POP POP JUMP JUMPDEST PUSH32 0x5365727669636520526571756573742063726561746564207375636365737366 PUSH0 DUP3 ADD MSTORE PUSH32 0x756C6C7900000000000000000000000000000000000000000000000000000000 PUSH1 0x20 DUP3 ADD MSTORE POP JUMP JUMPDEST PUSH0 PUSH2 0x5833 PUSH1 0x24 DUP4 PUSH2 0x4603 JUMP JUMPDEST SWAP2 POP PUSH2 0x583E DUP3 PUSH2 0x57D9 JUMP JUMPDEST PUSH1 0x40 DUP3 ADD SWAP1 POP SWAP2 SWAP1 POP JUMP JUMPDEST PUSH0 PUSH1 0x40 DUP3 ADD SWAP1 POP DUP2 DUP2 SUB PUSH0 DUP4 ADD MSTORE PUSH2 0x5861 DUP2 DUP5 PUSH2 0x3E7E JUMP JUMPDEST SWAP1 POP DUP2 DUP2 SUB PUSH1 0x20 DUP4 ADD MSTORE PUSH2 0x5874 DUP2 PUSH2 0x5827 JUMP JUMPDEST SWAP1 POP SWAP3 SWAP2 POP POP JUMP JUMPDEST PUSH32 0x4F6E6C792072656365697665722063616E207570646174652074686520737461 PUSH0 DUP3 ADD MSTORE PUSH32 0x7475730000000000000000000000000000000000000000000000000000000000 PUSH1 0x20 DUP3 ADD MSTORE POP JUMP JUMPDEST PUSH0 PUSH2 0x58D6 PUSH1 0x23 DUP4 PUSH2 0x4603 JUMP JUMPDEST SWAP2 POP PUSH2 0x58E1 DUP3 PUSH2 0x587C JUMP JUMPDEST PUSH1 0x40 DUP3 ADD SWAP1 POP SWAP2 SWAP1 POP JUMP JUMPDEST PUSH0 PUSH1 0x40 DUP3 ADD SWAP1 POP DUP2 DUP2 SUB PUSH0 DUP4 ADD MSTORE PUSH2 0x5904 DUP2 DUP5 PUSH2 0x4613 JUMP JUMPDEST SWAP1 POP DUP2 DUP2 SUB PUSH1 0x20 DUP4 ADD MSTORE PUSH2 0x5917 DUP2 PUSH2 0x58CA JUMP JUMPDEST SWAP1 POP SWAP3 SWAP2 POP POP JUMP JUMPDEST PUSH32 0x44726976657220686173206E6F7420726561636865642061742064657374696E PUSH0 DUP3 ADD MSTORE PUSH32 0x6174696F6E207965742C2063616E6E6F74207570646174652073746174757320 PUSH1 0x20 DUP3 ADD MSTORE PUSH32 0x746F2044454C4956455245440000000000000000000000000000000000000000 PUSH1 0x40 DUP3 ADD MSTORE POP JUMP JUMPDEST PUSH0 PUSH2 0x599F PUSH1 0x4C DUP4 PUSH2 0x4603 JUMP JUMPDEST SWAP2 POP PUSH2 0x59AA DUP3 PUSH2 0x591F JUMP JUMPDEST PUSH1 0x60 DUP3 ADD SWAP1 POP SWAP2 SWAP1 POP JUMP JUMPDEST PUSH0 PUSH1 0x40 DUP3 ADD SWAP1 POP DUP2 DUP2 SUB PUSH0 DUP4 ADD MSTORE PUSH2 0x59CD DUP2 DUP5 PUSH2 0x4613 JUMP JUMPDEST SWAP1 POP DUP2 DUP2 SUB PUSH1 0x20 DUP4 ADD MSTORE PUSH2 0x59E0 DUP2 PUSH2 0x5993 JUMP JUMPDEST SWAP1 POP SWAP3 SWAP2 POP POP JUMP JUMPDEST PUSH1 0x2 DUP2 LT PUSH2 0x59F9 JUMPI PUSH2 0x59F8 PUSH2 0x3E0B JUMP JUMPDEST JUMPDEST POP JUMP JUMPDEST PUSH0 DUP2 SWAP1 POP PUSH2 0x5A09 DUP3 PUSH2 0x59E8 JUMP JUMPDEST SWAP2 SWAP1 POP JUMP JUMPDEST PUSH0 PUSH2 0x5A18 DUP3 PUSH2 0x59FC JUMP JUMPDEST SWAP1 POP SWAP2 SWAP1 POP JUMP JUMPDEST PUSH2 0x5A28 DUP2 PUSH2 0x5A0E JUMP JUMPDEST DUP3 MSTORE POP POP JUMP JUMPDEST PUSH0 PUSH1 0x60 DUP3 ADD SWAP1 POP PUSH2 0x5A41 PUSH0 DUP4 ADD DUP7 PUSH2 0x49DF JUMP JUMPDEST PUSH2 0x5A4E PUSH1 0x20 DUP4 ADD DUP6 PUSH2 0x480E JUMP JUMPDEST PUSH2 0x5A5B PUSH1 0x40 DUP4 ADD DUP5 PUSH2 0x5A1F JUMP JUMPDEST SWAP5 SWAP4 POP POP POP POP JUMP JUMPDEST PUSH0 PUSH1 0x40 DUP3 ADD SWAP1 POP PUSH2 0x5A76 PUSH0 DUP4 ADD DUP6 PUSH2 0x49DF JUMP JUMPDEST DUP2 DUP2 SUB PUSH1 0x20 DUP4 ADD MSTORE PUSH2 0x5A88 DUP2 DUP5 PUSH2 0x3E7E JUMP JUMPDEST SWAP1 POP SWAP4 SWAP3 POP POP POP JUMP JUMPDEST PUSH32 0x52656365697665722063616E206F6E6C79207570646174652073746174757320 PUSH0 DUP3 ADD MSTORE PUSH32 0x3A2044454C495645524544000000000000000000000000000000000000000000 PUSH1 0x20 DUP3 ADD MSTORE POP JUMP JUMPDEST PUSH0 PUSH2 0x5AEB PUSH1 0x2B DUP4 PUSH2 0x4603 JUMP JUMPDEST SWAP2 POP PUSH2 0x5AF6 DUP3 PUSH2 0x5A91 JUMP JUMPDEST PUSH1 0x40 DUP3 ADD SWAP1 POP SWAP2 SWAP1 POP JUMP JUMPDEST PUSH0 PUSH1 0x40 DUP3 ADD SWAP1 POP DUP2 DUP2 SUB PUSH0 DUP4 ADD MSTORE PUSH2 0x5B19 DUP2 DUP5 PUSH2 0x4613 JUMP JUMPDEST SWAP1 POP DUP2 DUP2 SUB PUSH1 0x20 DUP4 ADD MSTORE PUSH2 0x5B2C DUP2 PUSH2 0x5ADF JUMP JUMPDEST SWAP1 POP SWAP3 SWAP2 POP POP JUMP JUMPDEST PUSH32 0x41756374696F6E207374696C6C20696E70726F67726573730000000000000000 PUSH0 DUP3 ADD MSTORE POP JUMP JUMPDEST PUSH0 PUSH2 0x5B68 PUSH1 0x18 DUP4 PUSH2 0x4603 JUMP JUMPDEST SWAP2 POP PUSH2 0x5B73 DUP3 PUSH2 0x5B34 JUMP JUMPDEST PUSH1 0x20 DUP3 ADD SWAP1 POP SWAP2 SWAP1 POP JUMP JUMPDEST PUSH0 PUSH1 0x40 DUP3 ADD SWAP1 POP DUP2 DUP2 SUB PUSH0 DUP4 ADD MSTORE PUSH2 0x5B96 DUP2 DUP5 PUSH2 0x4613 JUMP JUMPDEST SWAP1 POP DUP2 DUP2 SUB PUSH1 0x20 DUP4 ADD MSTORE PUSH2 0x5BA9 DUP2 PUSH2 0x5B5C JUMP JUMPDEST SWAP1 POP SWAP3 SWAP2 POP POP JUMP JUMPDEST PUSH32 0x496E637265617365642061756374696F6E2074696D6520666F72207365727669 PUSH0 DUP3 ADD MSTORE PUSH32 0x636520726571756573742062792035206D696E75746573000000000000000000 PUSH1 0x20 DUP3 ADD MSTORE POP JUMP JUMPDEST PUSH0 PUSH2 0x5C0B PUSH1 0x37 DUP4 PUSH2 0x4603 JUMP JUMPDEST SWAP2 POP PUSH2 0x5C16 DUP3 PUSH2 0x5BB1 JUMP JUMPDEST PUSH1 0x40 DUP3 ADD SWAP1 POP SWAP2 SWAP1 POP JUMP JUMPDEST PUSH0 PUSH1 0x40 DUP3 ADD SWAP1 POP DUP2 DUP2 SUB PUSH0 DUP4 ADD MSTORE PUSH2 0x5C39 DUP2 DUP5 PUSH2 0x4613 JUMP JUMPDEST SWAP1 POP DUP2 DUP2 SUB PUSH1 0x20 DUP4 ADD MSTORE PUSH2 0x5C4C DUP2 PUSH2 0x5BFF JUMP JUMPDEST SWAP1 POP SWAP3 SWAP2 POP POP JUMP JUMPDEST PUSH32 0x596F75206861766520776F6E207468652061756374696F6E0000000000000000 PUSH0 DUP3 ADD MSTORE POP JUMP JUMPDEST PUSH0 PUSH2 0x5C88 PUSH1 0x18 DUP4 PUSH2 0x4603 JUMP JUMPDEST SWAP2 POP PUSH2 0x5C93 DUP3 PUSH2 0x5C54 JUMP JUMPDEST PUSH1 0x20 DUP3 ADD SWAP1 POP SWAP2 SWAP1 POP JUMP JUMPDEST PUSH0 PUSH1 0x40 DUP3 ADD SWAP1 POP DUP2 DUP2 SUB PUSH0 DUP4 ADD MSTORE PUSH2 0x5CB6 DUP2 DUP5 PUSH2 0x4613 JUMP JUMPDEST SWAP1 POP DUP2 DUP2 SUB PUSH1 0x20 DUP4 ADD MSTORE PUSH2 0x5CC9 DUP2 PUSH2 0x5C7C JUMP JUMPDEST SWAP1 POP SWAP3 SWAP2 POP POP JUMP JUMPDEST PUSH0 DUP3 DUP3 MSTORE PUSH1 0x20 DUP3 ADD SWAP1 POP SWAP3 SWAP2 POP POP JUMP JUMPDEST PUSH0 DUP2 SLOAD PUSH2 0x5CED DUP2 PUSH2 0x4E29 JUMP JUMPDEST PUSH2 0x5CF7 DUP2 DUP7 PUSH2 0x5CD1 JUMP JUMPDEST SWAP5 POP PUSH1 0x1 DUP3 AND PUSH0 DUP2 EQ PUSH2 0x5D11 JUMPI PUSH1 0x1 DUP2 EQ PUSH2 0x5D27 JUMPI PUSH2 0x5D59 JUMP JUMPDEST PUSH1 0xFF NOT DUP4 AND DUP7 MSTORE DUP2 ISZERO ISZERO PUSH1 0x20 MUL DUP7 ADD SWAP4 POP PUSH2 0x5D59 JUMP JUMPDEST PUSH2 0x5D30 DUP6 PUSH2 0x556D JUMP JUMPDEST PUSH0 JUMPDEST DUP4 DUP2 LT ISZERO PUSH2 0x5D51 JUMPI DUP2 SLOAD DUP2 DUP10 ADD MSTORE PUSH1 0x1 DUP3 ADD SWAP2 POP PUSH1 0x20 DUP2 ADD SWAP1 POP PUSH2 0x5D32 JUMP JUMPDEST DUP1 DUP9 ADD SWAP6 POP POP POP JUMPDEST POP POP POP SWAP3 SWAP2 POP POP JUMP JUMPDEST PUSH0 PUSH2 0x5D6C DUP3 PUSH2 0x3D45 JUMP JUMPDEST PUSH2 0x5D76 DUP2 DUP6 PUSH2 0x5CD1 JUMP JUMPDEST SWAP4 POP PUSH2 0x5D86 DUP2 DUP6 PUSH1 0x20 DUP7 ADD PUSH2 0x3D5F JUMP JUMPDEST PUSH2 0x5D8F DUP2 PUSH2 0x3AC0 JUMP JUMPDEST DUP5 ADD SWAP2 POP POP SWAP3 SWAP2 POP POP JUMP JUMPDEST PUSH0 PUSH1 0x40 DUP3 ADD SWAP1 POP DUP2 DUP2 SUB PUSH0 DUP4 ADD MSTORE PUSH2 0x5DB2 DUP2 DUP6 PUSH2 0x5CE1 JUMP JUMPDEST SWAP1 POP DUP2 DUP2 SUB PUSH1 0x20 DUP4 ADD MSTORE PUSH2 0x5DC6 DUP2 DUP5 PUSH2 0x5D62 JUMP JUMPDEST SWAP1 POP SWAP4 SWAP3 POP POP POP JUMP JUMPDEST PUSH0 DUP2 ISZERO ISZERO SWAP1 POP SWAP2 SWAP1 POP JUMP JUMPDEST PUSH2 0x5DE3 DUP2 PUSH2 0x5DCF JUMP JUMPDEST DUP2 EQ PUSH2 0x5DED JUMPI PUSH0 DUP1 REVERT JUMPDEST POP JUMP JUMPDEST PUSH0 DUP2 MLOAD SWAP1 POP PUSH2 0x5DFE DUP2 PUSH2 0x5DDA JUMP JUMPDEST SWAP3 SWAP2 POP POP JUMP JUMPDEST PUSH0 PUSH1 0x20 DUP3 DUP5 SUB SLT ISZERO PUSH2 0x5E19 JUMPI PUSH2 0x5E18 PUSH2 0x3AB0 JUMP JUMPDEST JUMPDEST PUSH0 PUSH2 0x5E26 DUP5 DUP3 DUP6 ADD PUSH2 0x5DF0 JUMP JUMPDEST SWAP2 POP POP SWAP3 SWAP2 POP POP JUMP JUMPDEST PUSH32 0x53657276696365207265717565737420646F6573206E6F742065786973747300 PUSH0 DUP3 ADD MSTORE POP JUMP JUMPDEST PUSH0 PUSH2 0x5E63 PUSH1 0x1F DUP4 PUSH2 0x4603 JUMP JUMPDEST SWAP2 POP PUSH2 0x5E6E DUP3 PUSH2 0x5E2F JUMP JUMPDEST PUSH1 0x20 DUP3 ADD SWAP1 POP SWAP2 SWAP1 POP JUMP JUMPDEST PUSH0 PUSH1 0x40 DUP3 ADD SWAP1 POP DUP2 DUP2 SUB PUSH0 DUP4 ADD MSTORE PUSH2 0x5E91 DUP2 DUP5 PUSH2 0x4613 JUMP JUMPDEST SWAP1 POP DUP2 DUP2 SUB PUSH1 0x20 DUP4 ADD MSTORE PUSH2 0x5EA4 DUP2 PUSH2 0x5E57 JUMP JUMPDEST SWAP1 POP SWAP3 SWAP2 POP POP JUMP JUMPDEST PUSH32 0x596F75206861766520616C72656164792062696464656420666F722074686973 PUSH0 DUP3 ADD MSTORE PUSH32 0x2073657276696365207265717565737400000000000000000000000000000000 PUSH1 0x20 DUP3 ADD MSTORE POP JUMP JUMPDEST PUSH0 PUSH2 0x5F06 PUSH1 0x30 DUP4 PUSH2 0x4603 JUMP JUMPDEST SWAP2 POP PUSH2 0x5F11 DUP3 PUSH2 0x5EAC JUMP JUMPDEST PUSH1 0x40 DUP3 ADD SWAP1 POP SWAP2 SWAP1 POP JUMP JUMPDEST PUSH0 PUSH1 0x40 DUP3 ADD SWAP1 POP PUSH2 0x5F2F PUSH0 DUP4 ADD DUP5 PUSH2 0x49DF JUMP JUMPDEST DUP2 DUP2 SUB PUSH1 0x20 DUP4 ADD MSTORE PUSH2 0x5F40 DUP2 PUSH2 0x5EFA JUMP JUMPDEST SWAP1 POP SWAP3 SWAP2 POP POP JUMP JUMPDEST PUSH32 0x456D707479206465736372697074696F6E2076616C7565000000000000000000 PUSH0 DUP3 ADD MSTORE POP JUMP JUMPDEST PUSH0 PUSH2 0x5F7C PUSH1 0x17 DUP4 PUSH2 0x4603 JUMP JUMPDEST SWAP2 POP PUSH2 0x5F87 DUP3 PUSH2 0x5F48 JUMP JUMPDEST PUSH1 0x20 DUP3 ADD SWAP1 POP SWAP2 SWAP1 POP JUMP JUMPDEST PUSH0 PUSH1 0x40 DUP3 ADD SWAP1 POP DUP2 DUP2 SUB PUSH0 DUP4 ADD MSTORE PUSH2 0x5FAA DUP2 DUP5 PUSH2 0x4613 JUMP JUMPDEST SWAP1 POP DUP2 DUP2 SUB PUSH1 0x20 DUP4 ADD MSTORE PUSH2 0x5FBD DUP2 PUSH2 0x5F70 JUMP JUMPDEST SWAP1 POP SWAP3 SWAP2 POP POP JUMP JUMPDEST PUSH32 0x436172676F20696E737572616E63652076616C7565206E6F742076616C696400 PUSH0 DUP3 ADD MSTORE POP JUMP JUMPDEST PUSH0 PUSH2 0x5FF9 PUSH1 0x1F DUP4 PUSH2 0x4603 JUMP JUMPDEST SWAP2 POP PUSH2 0x6004 DUP3 PUSH2 0x5FC5 JUMP JUMPDEST PUSH1 0x20 DUP3 ADD SWAP1 POP SWAP2 SWAP1 POP JUMP JUMPDEST PUSH0 PUSH1 0x40 DUP3 ADD SWAP1 POP PUSH2 0x6022 PUSH0 DUP4 ADD DUP5 PUSH2 0x480E JUMP JUMPDEST DUP2 DUP2 SUB PUSH1 0x20 DUP4 ADD MSTORE PUSH2 0x6033 DUP2 PUSH2 0x5FED JUMP JUMPDEST SWAP1 POP SWAP3 SWAP2 POP POP JUMP JUMPDEST PUSH32 0x536572766963652076616C7565206E6F742076616C6964000000000000000000 PUSH0 DUP3 ADD MSTORE POP JUMP JUMPDEST PUSH0 PUSH2 0x606F PUSH1 0x17 DUP4 PUSH2 0x4603 JUMP JUMPDEST SWAP2 POP PUSH2 0x607A DUP3 PUSH2 0x603B JUMP JUMPDEST PUSH1 0x20 DUP3 ADD SWAP1 POP SWAP2 SWAP1 POP JUMP JUMPDEST PUSH0 PUSH1 0x40 DUP3 ADD SWAP1 POP PUSH2 0x6098 PUSH0 DUP4 ADD DUP5 PUSH2 0x480E JUMP JUMPDEST DUP2 DUP2 SUB PUSH1 0x20 DUP4 ADD MSTORE PUSH2 0x60A9 DUP2 PUSH2 0x6063 JUMP JUMPDEST SWAP1 POP SWAP3 SWAP2 POP POP JUMP JUMPDEST PUSH0 DUP2 SWAP1 POP SWAP2 SWAP1 POP JUMP JUMPDEST PUSH2 0x60CB PUSH2 0x60C6 DUP3 PUSH2 0x3BF4 JUMP JUMPDEST PUSH2 0x60B1 JUMP JUMPDEST DUP3 MSTORE POP POP JUMP JUMPDEST PUSH0 DUP2 SWAP1 POP SWAP2 SWAP1 POP JUMP JUMPDEST PUSH0 DUP2 SWAP1 POP SWAP2 SWAP1 POP JUMP JUMPDEST PUSH2 0x60F4 PUSH2 0x60EF DUP3 PUSH2 0x60D1 JUMP JUMPDEST PUSH2 0x60DA JUMP JUMPDEST DUP3 MSTORE POP POP JUMP JUMPDEST PUSH0 PUSH2 0x6105 DUP3 DUP7 PUSH2 0x60BA JUMP JUMPDEST PUSH1 0x20 DUP3 ADD SWAP2 POP PUSH2 0x6115 DUP3 DUP6 PUSH2 0x60E3 JUMP JUMPDEST PUSH1 0x20 DUP3 ADD SWAP2 POP PUSH2 0x6125 DUP3 DUP5 PUSH2 0x60BA JUMP JUMPDEST PUSH1 0x20 DUP3 ADD SWAP2 POP DUP2 SWAP1 POP SWAP5 SWAP4 POP POP POP POP JUMP JUMPDEST PUSH32 0x4E487B7100000000000000000000000000000000000000000000000000000000 PUSH0 MSTORE PUSH1 0x12 PUSH1 0x4 MSTORE PUSH1 0x24 PUSH0 REVERT JUMPDEST PUSH0 PUSH2 0x616D DUP3 PUSH2 0x3BF4 JUMP JUMPDEST SWAP2 POP PUSH2 0x6178 DUP4 PUSH2 0x3BF4 JUMP JUMPDEST SWAP3 POP DUP3 PUSH2 0x6188 JUMPI PUSH2 0x6187 PUSH2 0x6136 JUMP JUMPDEST JUMPDEST DUP3 DUP3 MOD SWAP1 POP SWAP3 SWAP2 POP POP JUMP JUMPDEST PUSH32 0x596F75206C6F7374207468652061756374696F6E212100000000000000000000 PUSH0 DUP3 ADD MSTORE POP JUMP JUMPDEST PUSH0 PUSH2 0x61C7 PUSH1 0x16 DUP4 PUSH2 0x4603 JUMP JUMPDEST SWAP2 POP PUSH2 0x61D2 DUP3 PUSH2 0x6193 JUMP JUMPDEST PUSH1 0x20 DUP3 ADD SWAP1 POP SWAP2 SWAP1 POP JUMP JUMPDEST PUSH0 PUSH1 0x40 DUP3 ADD SWAP1 POP DUP2 DUP2 SUB PUSH0 DUP4 ADD MSTORE PUSH2 0x61F5 DUP2 DUP5 PUSH2 0x4613 JUMP JUMPDEST SWAP1 POP DUP2 DUP2 SUB PUSH1 0x20 DUP4 ADD MSTORE PUSH2 0x6208 DUP2 PUSH2 0x61BB JUMP JUMPDEST SWAP1 POP SWAP3 SWAP2 POP POP JUMP JUMPDEST PUSH0 PUSH1 0x60 DUP3 ADD SWAP1 POP PUSH2 0x6223 PUSH0 DUP4 ADD DUP7 PUSH2 0x49DF JUMP JUMPDEST PUSH2 0x6230 PUSH1 0x20 DUP4 ADD DUP6 PUSH2 0x49DF JUMP JUMPDEST PUSH2 0x623D PUSH1 0x40 DUP4 ADD DUP5 PUSH2 0x480E JUMP JUMPDEST SWAP5 SWAP4 POP POP POP POP JUMP JUMPDEST PUSH32 0x596F752061726520616C726561647920726566756E64656420666F7220746869 PUSH0 DUP3 ADD MSTORE PUSH32 0x7320736572766963652072657175657374000000000000000000000000000000 PUSH1 0x20 DUP3 ADD MSTORE POP JUMP JUMPDEST PUSH0 PUSH2 0x629F PUSH1 0x31 DUP4 PUSH2 0x4603 JUMP JUMPDEST SWAP2 POP PUSH2 0x62AA DUP3 PUSH2 0x6245 JUMP JUMPDEST PUSH1 0x40 DUP3 ADD SWAP1 POP SWAP2 SWAP1 POP JUMP JUMPDEST PUSH0 PUSH1 0x40 DUP3 ADD SWAP1 POP DUP2 DUP2 SUB PUSH0 DUP4 ADD MSTORE PUSH2 0x62CD DUP2 DUP5 PUSH2 0x4613 JUMP JUMPDEST SWAP1 POP DUP2 DUP2 SUB PUSH1 0x20 DUP4 ADD MSTORE PUSH2 0x62E0 DUP2 PUSH2 0x6293 JUMP JUMPDEST SWAP1 POP SWAP3 SWAP2 POP POP JUMP JUMPDEST PUSH32 0x596F752068617665206E6F742062696464656420666F72207468697320736572 PUSH0 DUP3 ADD MSTORE PUSH32 0x7669636520726571756573740000000000000000000000000000000000000000 PUSH1 0x20 DUP3 ADD MSTORE POP JUMP JUMPDEST PUSH0 PUSH2 0x6342 PUSH1 0x2C DUP4 PUSH2 0x4603 JUMP JUMPDEST SWAP2 POP PUSH2 0x634D DUP3 PUSH2 0x62E8 JUMP JUMPDEST PUSH1 0x40 DUP3 ADD SWAP1 POP SWAP2 SWAP1 POP JUMP JUMPDEST PUSH0 PUSH1 0x40 DUP3 ADD SWAP1 POP DUP2 DUP2 SUB PUSH0 DUP4 ADD MSTORE PUSH2 0x6370 DUP2 DUP5 PUSH2 0x4613 JUMP JUMPDEST SWAP1 POP DUP2 DUP2 SUB PUSH1 0x20 DUP4 ADD MSTORE PUSH2 0x6383 DUP2 PUSH2 0x6336 JUMP JUMPDEST SWAP1 POP SWAP3 SWAP2 POP POP JUMP JUMPDEST PUSH2 0x6394 DUP2 PUSH2 0x3DE4 JUMP JUMPDEST DUP3 MSTORE POP POP JUMP JUMPDEST PUSH32 0x456E7465722076616C6964206C6174697475646520636F6F7264696E61746573 PUSH0 DUP3 ADD MSTORE POP JUMP JUMPDEST PUSH0 PUSH2 0x63CE PUSH1 0x20 DUP4 PUSH2 0x4603 JUMP JUMPDEST SWAP2 POP PUSH2 0x63D9 DUP3 PUSH2 0x639A JUMP JUMPDEST PUSH1 0x20 DUP3 ADD SWAP1 POP SWAP2 SWAP1 POP JUMP JUMPDEST PUSH0 PUSH1 0x60 DUP3 ADD SWAP1 POP PUSH2 0x63F7 PUSH0 DUP4 ADD DUP6 PUSH2 0x638B JUMP JUMPDEST PUSH2 0x6404 PUSH1 0x20 DUP4 ADD DUP5 PUSH2 0x638B JUMP JUMPDEST DUP2 DUP2 SUB PUSH1 0x40 DUP4 ADD MSTORE PUSH2 0x6415 DUP2 PUSH2 0x63C2 JUMP JUMPDEST SWAP1 POP SWAP4 SWAP3 POP POP POP JUMP JUMPDEST PUSH32 0x456E7465722076616C6964206C6F6E67697475646520636F6F7264696E617465 PUSH0 DUP3 ADD MSTORE PUSH32 0x7300000000000000000000000000000000000000000000000000000000000000 PUSH1 0x20 DUP3 ADD MSTORE POP JUMP JUMPDEST PUSH0 PUSH2 0x6478 PUSH1 0x21 DUP4 PUSH2 0x4603 JUMP JUMPDEST SWAP2 POP PUSH2 0x6483 DUP3 PUSH2 0x641E JUMP JUMPDEST PUSH1 0x40 DUP3 ADD SWAP1 POP SWAP2 SWAP1 POP JUMP JUMPDEST PUSH0 PUSH1 0x60 DUP3 ADD SWAP1 POP PUSH2 0x64A1 PUSH0 DUP4 ADD DUP6 PUSH2 0x638B JUMP JUMPDEST PUSH2 0x64AE PUSH1 0x20 DUP4 ADD DUP5 PUSH2 0x638B JUMP JUMPDEST DUP2 DUP2 SUB PUSH1 0x40 DUP4 ADD MSTORE PUSH2 0x64BF DUP2 PUSH2 0x646C JUMP JUMPDEST SWAP1 POP SWAP4 SWAP3 POP POP POP JUMP JUMPDEST PUSH32 0x47656F486173682063616E6E6F7420626520656D707479000000000000000000 PUSH0 DUP3 ADD MSTORE POP JUMP JUMPDEST PUSH0 PUSH2 0x64FC PUSH1 0x17 DUP4 PUSH2 0x4603 JUMP JUMPDEST SWAP2 POP PUSH2 0x6507 DUP3 PUSH2 0x64C8 JUMP JUMPDEST PUSH1 0x20 DUP3 ADD SWAP1 POP SWAP2 SWAP1 POP JUMP JUMPDEST PUSH0 PUSH1 0x40 DUP3 ADD SWAP1 POP DUP2 DUP2 SUB PUSH0 DUP4 ADD MSTORE PUSH2 0x652A DUP2 DUP5 PUSH2 0x4613 JUMP JUMPDEST SWAP1 POP DUP2 DUP2 SUB PUSH1 0x20 DUP4 ADD MSTORE PUSH2 0x653D DUP2 PUSH2 0x64F0 JUMP JUMPDEST SWAP1 POP SWAP3 SWAP2 POP POP JUMP JUMPDEST PUSH32 0x506C656173652070726F766964652076616C69642061756374696F6E2074696D PUSH0 DUP3 ADD MSTORE PUSH32 0x6500000000000000000000000000000000000000000000000000000000000000 PUSH1 0x20 DUP3 ADD MSTORE POP JUMP JUMPDEST PUSH0 PUSH2 0x659F PUSH1 0x21 DUP4 PUSH2 0x4603 JUMP JUMPDEST SWAP2 POP PUSH2 0x65AA DUP3 PUSH2 0x6545 JUMP JUMPDEST PUSH1 0x40 DUP3 ADD SWAP1 POP SWAP2 SWAP1 POP JUMP JUMPDEST PUSH0 PUSH1 0x40 DUP3 ADD SWAP1 POP PUSH2 0x65C8 PUSH0 DUP4 ADD DUP5 PUSH2 0x480E JUMP JUMPDEST DUP2 DUP2 SUB PUSH1 0x20 DUP4 ADD MSTORE PUSH2 0x65D9 DUP2 PUSH2 0x6593 JUMP JUMPDEST SWAP1 POP SWAP3 SWAP2 POP POP JUMP JUMPDEST PUSH32 0x52657175657374207069636B75702074696D65206D75737420626520696E2074 PUSH0 DUP3 ADD MSTORE PUSH32 0x6865206675747572650000000000000000000000000000000000000000000000 PUSH1 0x20 DUP3 ADD MSTORE POP JUMP JUMPDEST PUSH0 PUSH2 0x663B PUSH1 0x29 DUP4 PUSH2 0x4603 JUMP JUMPDEST SWAP2 POP PUSH2 0x6646 DUP3 PUSH2 0x65E1 JUMP JUMPDEST PUSH1 0x40 DUP3 ADD SWAP1 POP SWAP2 SWAP1 POP JUMP JUMPDEST PUSH0 PUSH1 0x40 DUP3 ADD SWAP1 POP PUSH2 0x6664 PUSH0 DUP4 ADD DUP5 PUSH2 0x480E JUMP JUMPDEST DUP2 DUP2 SUB PUSH1 0x20 DUP4 ADD MSTORE PUSH2 0x6675 DUP2 PUSH2 0x662F JUMP JUMPDEST SWAP1 POP SWAP3 SWAP2 POP POP JUMP JUMPDEST PUSH32 0x526571756573742064656C69766572792074696D65206D75737420626520696E PUSH0 DUP3 ADD MSTORE PUSH32 0x2074686520667574757265000000000000000000000000000000000000000000 PUSH1 0x20 DUP3 ADD MSTORE POP JUMP JUMPDEST PUSH0 PUSH2 0x66D7 PUSH1 0x2B DUP4 PUSH2 0x4603 JUMP JUMPDEST SWAP2 POP PUSH2 0x66E2 DUP3 PUSH2 0x667D JUMP JUMPDEST PUSH1 0x40 DUP3 ADD SWAP1 POP SWAP2 SWAP1 POP JUMP JUMPDEST PUSH0 PUSH1 0x40 DUP3 ADD SWAP1 POP PUSH2 0x6700 PUSH0 DUP4 ADD DUP5 PUSH2 0x480E JUMP JUMPDEST DUP2 DUP2 SUB PUSH1 0x20 DUP4 ADD MSTORE PUSH2 0x6711 DUP2 PUSH2 0x66CB JUMP JUMPDEST SWAP1 POP SWAP3 SWAP2 POP POP JUMP JUMPDEST PUSH32 0x5265717565737465642064656C69766572792074696D65206D75737420626520 PUSH0 DUP3 ADD MSTORE PUSH32 0x616674657220726571756573746564207069636B75702074696D650000000000 PUSH1 0x20 DUP3 ADD MSTORE POP JUMP JUMPDEST PUSH0 PUSH2 0x6773 PUSH1 0x3B DUP4 PUSH2 0x4603 JUMP JUMPDEST SWAP2 POP PUSH2 0x677E DUP3 PUSH2 0x6719 JUMP JUMPDEST PUSH1 0x40 DUP3 ADD SWAP1 POP SWAP2 SWAP1 POP JUMP JUMPDEST PUSH0 PUSH1 0x40 DUP3 ADD SWAP1 POP PUSH2 0x679C PUSH0 DUP4 ADD DUP5 PUSH2 0x480E JUMP JUMPDEST DUP2 DUP2 SUB PUSH1 0x20 DUP4 ADD MSTORE PUSH2 0x67AD DUP2 PUSH2 0x6767 JUMP JUMPDEST SWAP1 POP SWAP3 SWAP2 POP POP JUMP INVALID PUSH2 0x6263 PUSH5 0x6566676869 PUSH11 0x6B6C6D6E6F707172737475 PUSH23 0x7778797A4142434445464748494A4B4C4D4E4F50515253 SLOAD SSTORE JUMP JUMPI PC MSIZE GAS ADDRESS BALANCE ORIGIN CALLER CALLVALUE CALLDATALOAD CALLDATASIZE CALLDATACOPY CODESIZE CODECOPY LOG2 PUSH5 0x6970667358 0x22 SLT KECCAK256 0xB0 SIGNEXTEND DUP14 0xB1 SWAP7 EQ PUSH14 0x7F2D071F046861C2BE0B32CB9965 KECCAK256 0xD1 GAS SWAP14 0xD5 0xBC 0xDF SWAP14 PUSH18 0x5BB264736F6C634300081900330000000000 "
		},
		"gasEstimates": {
			"creation": {
				"codeDepositCost": "5333000",
				"executionCost": "infinite",
				"totalCost": "infinite"
			},
			"external": {
				"cancelServiceRequest(string)": "infinite",
				"createServiceRequest((string,address,address,int256,int256,int256,int256,string,string,uint256,uint256,uint256,uint256,uint8))": "infinite",
				"decideWinner(string)": "infinite",
				"dutchBid(string,uint256)": "infinite",
				"getAllServiceRequestInfosInGeoHash(string)": "infinite",
				"getAllServiceRequestOfUser()": "infinite",
				"getServiceRequestInfoById(string)": "infinite",
				"updateDraftedServiceRequest(string)": "infinite",
				"updateServiceRequestStatusByDriver(string,uint8)": "infinite",
				"updateServiceRequestStatusByReceiver(string,uint8,uint8)": "infinite",
				"updateServiceRequestStatusByShipper(string,uint8)": "infinite"
			},
			"internal": {
				"checkAlreadyBidded(address,struct Types.DriverInfoDto memory[] memory)": "infinite",
				"checkValidGeoHash(string memory)": "infinite",
				"checkValidGpsCoordinates(int256,int256)": "infinite",
				"checkValidTimmings(uint256,uint256,uint256)": "infinite",
				"checkValidationsForServiceRequestCreation(struct Types.ServiceRequestInfoDto memory,uint256)": "infinite",
				"getDriverGeoHash(address)": "infinite",
				"getServiceRequestById(string memory)": "infinite",
				"refundCargoValue(string memory,address)": "infinite"
			}
		},
		"methodIdentifiers": {
			"cancelServiceRequest(string)": "816c2cb7",
			"createServiceRequest((string,address,address,int256,int256,int256,int256,string,string,uint256,uint256,uint256,uint256,uint8))": "c2da97ba",
			"decideWinner(string)": "ef693b98",
			"dutchBid(string,uint256)": "12b28b3c",
			"getAllServiceRequestInfosInGeoHash(string)": "7a1cf72f",
			"getAllServiceRequestOfUser()": "8879a530",
			"getServiceRequestInfoById(string)": "5b664fcb",
			"updateDraftedServiceRequest(string)": "750e0abd",
			"updateServiceRequestStatusByDriver(string,uint8)": "7a335cef",
			"updateServiceRequestStatusByReceiver(string,uint8,uint8)": "c928fd1d",
			"updateServiceRequestStatusByShipper(string,uint8)": "1821fb39"
		}
	},
	"abi": [
		{
			"inputs": [
				{
					"internalType": "address",
					"name": "_geekToken",
					"type": "address"
				},
				{
					"internalType": "address",
					"name": "_disputedServiceRequest",
					"type": "address"
				}
			],
			"stateMutability": "nonpayable",
			"type": "constructor"
		},
		{
			"inputs": [
				{
					"internalType": "string",
					"name": "serviceRequestId",
					"type": "string"
				},
				{
					"internalType": "string",
					"name": "message",
					"type": "string"
				}
			],
			"name": "AccessDenied",
			"type": "error"
		},
		{
			"inputs": [
				{
					"internalType": "address",
					"name": "bidder",
					"type": "address"
				},
				{
					"internalType": "string",
					"name": "message",
					"type": "string"
				}
			],
			"name": "AlreadyBidded",
			"type": "error"
		},
		{
			"inputs": [
				{
					"internalType": "string",
					"name": "serviceRequestId",
					"type": "string"
				},
				{
					"internalType": "string",
					"name": "message",
					"type": "string"
				}
			],
			"name": "AuctionEnded",
			"type": "error"
		},
		{
			"inputs": [
				{
					"internalType": "string",
					"name": "serviceRequestId",
					"type": "string"
				},
				{
					"internalType": "string",
					"name": "message",
					"type": "string"
				}
			],
			"name": "AuctionInProgress",
			"type": "error"
		},
		{
			"inputs": [
				{
					"internalType": "string",
					"name": "serviceRequestId",
					"type": "string"
				},
				{
					"internalType": "string",
					"name": "message",
					"type": "string"
				}
			],
			"name": "AuctionNotStarted",
			"type": "error"
		},
		{
			"inputs": [
				{
					"internalType": "uint256",
					"name": "cargoInsuranceValue",
					"type": "uint256"
				},
				{
					"internalType": "string",
					"name": "message",
					"type": "string"
				}
			],
			"name": "InvalidCargoInsuranceValue",
			"type": "error"
		},
		{
			"inputs": [
				{
					"internalType": "int256",
					"name": "latitude",
					"type": "int256"
				},
				{
					"internalType": "int256",
					"name": "longitude",
					"type": "int256"
				},
				{
					"internalType": "string",
					"name": "message",
					"type": "string"
				}
			],
			"name": "InvalidCoordinates",
			"type": "error"
		},
		{
			"inputs": [
				{
					"internalType": "string",
					"name": "description",
					"type": "string"
				},
				{
					"internalType": "string",
					"name": "message",
					"type": "string"
				}
			],
			"name": "InvalidDescription",
			"type": "error"
		},
		{
			"inputs": [
				{
					"internalType": "string",
					"name": "geoHash",
					"type": "string"
				},
				{
					"internalType": "string",
					"name": "message",
					"type": "string"
				}
			],
			"name": "InvalidGeoHash",
			"type": "error"
		},
		{
			"inputs": [
				{
					"internalType": "uint256",
					"name": "value",
					"type": "uint256"
				},
				{
					"internalType": "string",
					"name": "message",
					"type": "string"
				}
			],
			"name": "InvalidProductValue",
			"type": "error"
		},
		{
			"inputs": [
				{
					"internalType": "uint256",
					"name": "serviceFee",
					"type": "uint256"
				},
				{
					"internalType": "string",
					"name": "message",
					"type": "string"
				}
			],
			"name": "InvalidServiceFee",
			"type": "error"
		},
		{
			"inputs": [
				{
					"internalType": "uint256",
					"name": "timestamp",
					"type": "uint256"
				},
				{
					"internalType": "string",
					"name": "message",
					"type": "string"
				}
			],
			"name": "InvalidTimmings",
			"type": "error"
		},
		{
			"inputs": [
				{
					"internalType": "string",
					"name": "serviceRequestId",
					"type": "string"
				},
				{
					"internalType": "string",
					"name": "message",
					"type": "string"
				}
			],
			"name": "SRCannotBeUpdated",
			"type": "error"
		},
		{
			"inputs": [
				{
					"internalType": "string",
					"name": "serviceRequestId",
					"type": "string"
				},
				{
					"internalType": "string",
					"name": "message",
					"type": "string"
				}
			],
			"name": "ServiceRequestCannotBeCancelled",
			"type": "error"
		},
		{
			"inputs": [
				{
					"internalType": "string",
					"name": "serviceRequestId",
					"type": "string"
				},
				{
					"internalType": "string",
					"name": "message",
					"type": "string"
				}
			],
			"name": "ServiceRequestDoesNotExists",
			"type": "error"
		},
		{
			"inputs": [
				{
					"internalType": "string",
					"name": "serviceRequestId",
					"type": "string"
				},
				{
					"internalType": "string",
					"name": "message",
					"type": "string"
				}
			],
			"name": "ServiceRequestOutOfRegion",
			"type": "error"
		},
		{
			"anonymous": false,
			"inputs": [
				{
					"indexed": false,
					"internalType": "string",
					"name": "serviceRequestId",
					"type": "string"
				},
				{
					"indexed": false,
					"internalType": "string",
					"name": "message",
					"type": "string"
				}
			],
			"name": "AuctionResult",
			"type": "event"
		},
		{
			"anonymous": false,
			"inputs": [
				{
					"indexed": false,
					"internalType": "string",
					"name": "serviceRequestId",
					"type": "string"
				},
				{
					"indexed": false,
					"internalType": "uint256",
					"name": "serviceFee",
					"type": "uint256"
				},
				{
					"indexed": false,
					"internalType": "address",
					"name": "bidder",
					"type": "address"
				}
			],
			"name": "BiddedSuccessfully",
			"type": "event"
		},
		{
			"anonymous": false,
			"inputs": [
				{
					"indexed": false,
					"internalType": "address",
					"name": "from",
					"type": "address"
				},
				{
					"indexed": false,
					"internalType": "address",
					"name": "to",
					"type": "address"
				},
				{
					"indexed": false,
					"internalType": "uint256",
					"name": "cargoAmountValue",
					"type": "uint256"
				}
			],
			"name": "CargoValueRefunded",
			"type": "event"
		},
		{
			"anonymous": false,
			"inputs": [
				{
					"indexed": false,
					"internalType": "string",
					"name": "serviceRequestId",
					"type": "string"
				},
				{
					"indexed": false,
					"internalType": "string",
					"name": "message",
					"type": "string"
				}
			],
			"name": "IncreasedAuctionTimeForSR",
			"type": "event"
		},
		{
			"anonymous": false,
			"inputs": [
				{
					"indexed": false,
					"internalType": "string",
					"name": "serviceRequestId",
					"type": "string"
				},
				{
					"indexed": false,
					"internalType": "address",
					"name": "shipperAddr",
					"type": "address"
				}
			],
			"name": "ServiceRequestCancelled",
			"type": "event"
		},
		{
			"anonymous": false,
			"inputs": [
				{
					"components": [
						{
							"internalType": "string",
							"name": "serviceRequestId",
							"type": "string"
						},
						{
							"internalType": "string",
							"name": "description",
							"type": "string"
						},
						{
							"internalType": "address",
							"name": "shipperAddr",
							"type": "address"
						},
						{
							"internalType": "address",
							"name": "receiverAddr",
							"type": "address"
						},
						{
							"internalType": "int256",
							"name": "originLatitude",
							"type": "int256"
						},
						{
							"internalType": "int256",
							"name": "originLongitude",
							"type": "int256"
						},
						{
							"internalType": "int256",
							"name": "destinationLatitude",
							"type": "int256"
						},
						{
							"internalType": "int256",
							"name": "destinationLongitude",
							"type": "int256"
						},
						{
							"internalType": "string",
							"name": "originLink",
							"type": "string"
						},
						{
							"internalType": "string",
							"name": "destinationLink",
							"type": "string"
						},
						{
							"internalType": "uint256",
							"name": "cargoInsurableValue",
							"type": "uint256"
						},
						{
							"internalType": "uint256",
							"name": "serviceFee",
							"type": "uint256"
						},
						{
							"internalType": "uint256",
							"name": "serviceFeeByBidder",
							"type": "uint256"
						},
						{
							"internalType": "uint256",
							"name": "requestedPickupTime",
							"type": "uint256"
						},
						{
							"internalType": "uint256",
							"name": "requestedDeliveryTime",
							"type": "uint256"
						},
						{
							"internalType": "uint256",
							"name": "auctionTime",
							"type": "uint256"
						},
						{
							"internalType": "address",
							"name": "driverAssigned",
							"type": "address"
						},
						{
							"internalType": "enum Types.Status",
							"name": "status",
							"type": "uint8"
						}
					],
					"indexed": false,
					"internalType": "struct Types.ServiceRequestInfo",
					"name": "serviceRequestInfo",
					"type": "tuple"
				},
				{
					"indexed": false,
					"internalType": "string",
					"name": "message",
					"type": "string"
				}
			],
			"name": "ServiceRequestCreated",
			"type": "event"
		},
		{
			"anonymous": false,
			"inputs": [
				{
					"indexed": false,
					"internalType": "string",
					"name": "serviceRequestId",
					"type": "string"
				},
				{
					"indexed": false,
					"internalType": "string",
					"name": "message",
					"type": "string"
				}
			],
			"name": "UpdatedSRStatus",
			"type": "event"
		},
		{
			"inputs": [
				{
					"internalType": "string",
					"name": "_serviceRequestId",
					"type": "string"
				}
			],
			"name": "cancelServiceRequest",
			"outputs": [],
			"stateMutability": "nonpayable",
			"type": "function"
		},
		{
			"inputs": [
				{
					"components": [
						{
							"internalType": "string",
							"name": "description",
							"type": "string"
						},
						{
							"internalType": "address",
							"name": "shipperAddr",
							"type": "address"
						},
						{
							"internalType": "address",
							"name": "receiverAddr",
							"type": "address"
						},
						{
							"internalType": "int256",
							"name": "originLatitude",
							"type": "int256"
						},
						{
							"internalType": "int256",
							"name": "originLongitude",
							"type": "int256"
						},
						{
							"internalType": "int256",
							"name": "destinationLatitude",
							"type": "int256"
						},
						{
							"internalType": "int256",
							"name": "destinationLongitude",
							"type": "int256"
						},
						{
							"internalType": "string",
							"name": "originLink",
							"type": "string"
						},
						{
							"internalType": "string",
							"name": "destinationLink",
							"type": "string"
						},
						{
							"internalType": "uint256",
							"name": "cargoInsurableValue",
							"type": "uint256"
						},
						{
							"internalType": "uint256",
							"name": "requestedPickupTime",
							"type": "uint256"
						},
						{
							"internalType": "uint256",
							"name": "requestedDeliveryTime",
							"type": "uint256"
						},
						{
							"internalType": "uint256",
							"name": "auctionTime",
							"type": "uint256"
						},
						{
							"internalType": "enum Types.ServiceRequestInitialStatus",
							"name": "status",
							"type": "uint8"
						}
					],
					"internalType": "struct Types.ServiceRequestInfoDto",
					"name": "_serviceRequestInfoDto",
					"type": "tuple"
				}
			],
			"name": "createServiceRequest",
			"outputs": [],
			"stateMutability": "payable",
			"type": "function"
		},
		{
			"inputs": [
				{
					"internalType": "string",
					"name": "_serviceRequestId",
					"type": "string"
				}
			],
			"name": "decideWinner",
			"outputs": [],
			"stateMutability": "nonpayable",
			"type": "function"
		},
		{
			"inputs": [
				{
					"internalType": "string",
					"name": "_serviceRequestId",
					"type": "string"
				},
				{
					"internalType": "uint256",
					"name": "_serviceFee",
					"type": "uint256"
				}
			],
			"name": "dutchBid",
			"outputs": [],
			"stateMutability": "payable",
			"type": "function"
		},
		{
			"inputs": [
				{
					"internalType": "string",
					"name": "_geoHash",
					"type": "string"
				}
			],
			"name": "getAllServiceRequestInfosInGeoHash",
			"outputs": [
				{
					"components": [
						{
							"internalType": "string",
							"name": "serviceRequestId",
							"type": "string"
						},
						{
							"internalType": "string",
							"name": "description",
							"type": "string"
						},
						{
							"internalType": "address",
							"name": "shipperAddr",
							"type": "address"
						},
						{
							"internalType": "address",
							"name": "receiverAddr",
							"type": "address"
						},
						{
							"internalType": "int256",
							"name": "originLatitude",
							"type": "int256"
						},
						{
							"internalType": "int256",
							"name": "originLongitude",
							"type": "int256"
						},
						{
							"internalType": "int256",
							"name": "destinationLatitude",
							"type": "int256"
						},
						{
							"internalType": "int256",
							"name": "destinationLongitude",
							"type": "int256"
						},
						{
							"internalType": "string",
							"name": "originLink",
							"type": "string"
						},
						{
							"internalType": "string",
							"name": "destinationLink",
							"type": "string"
						},
						{
							"internalType": "uint256",
							"name": "cargoInsurableValue",
							"type": "uint256"
						},
						{
							"internalType": "uint256",
							"name": "serviceFee",
							"type": "uint256"
						},
						{
							"internalType": "uint256",
							"name": "serviceFeeByBidder",
							"type": "uint256"
						},
						{
							"internalType": "uint256",
							"name": "requestedPickupTime",
							"type": "uint256"
						},
						{
							"internalType": "uint256",
							"name": "requestedDeliveryTime",
							"type": "uint256"
						},
						{
							"internalType": "uint256",
							"name": "auctionTime",
							"type": "uint256"
						},
						{
							"internalType": "address",
							"name": "driverAssigned",
							"type": "address"
						},
						{
							"internalType": "enum Types.Status",
							"name": "status",
							"type": "uint8"
						}
					],
					"internalType": "struct Types.ServiceRequestInfo[]",
					"name": "",
					"type": "tuple[]"
				}
			],
			"stateMutability": "view",
			"type": "function"
		},
		{
			"inputs": [],
			"name": "getAllServiceRequestOfUser",
			"outputs": [
				{
					"components": [
						{
							"internalType": "string",
							"name": "serviceRequestId",
							"type": "string"
						},
						{
							"internalType": "string",
							"name": "description",
							"type": "string"
						},
						{
							"internalType": "address",
							"name": "shipperAddr",
							"type": "address"
						},
						{
							"internalType": "address",
							"name": "receiverAddr",
							"type": "address"
						},
						{
							"internalType": "int256",
							"name": "originLatitude",
							"type": "int256"
						},
						{
							"internalType": "int256",
							"name": "originLongitude",
							"type": "int256"
						},
						{
							"internalType": "int256",
							"name": "destinationLatitude",
							"type": "int256"
						},
						{
							"internalType": "int256",
							"name": "destinationLongitude",
							"type": "int256"
						},
						{
							"internalType": "string",
							"name": "originLink",
							"type": "string"
						},
						{
							"internalType": "string",
							"name": "destinationLink",
							"type": "string"
						},
						{
							"internalType": "uint256",
							"name": "cargoInsurableValue",
							"type": "uint256"
						},
						{
							"internalType": "uint256",
							"name": "serviceFee",
							"type": "uint256"
						},
						{
							"internalType": "uint256",
							"name": "serviceFeeByBidder",
							"type": "uint256"
						},
						{
							"internalType": "uint256",
							"name": "requestedPickupTime",
							"type": "uint256"
						},
						{
							"internalType": "uint256",
							"name": "requestedDeliveryTime",
							"type": "uint256"
						},
						{
							"internalType": "uint256",
							"name": "auctionTime",
							"type": "uint256"
						},
						{
							"internalType": "address",
							"name": "driverAssigned",
							"type": "address"
						},
						{
							"internalType": "enum Types.Status",
							"name": "status",
							"type": "uint8"
						}
					],
					"internalType": "struct Types.ServiceRequestInfo[]",
					"name": "",
					"type": "tuple[]"
				}
			],
			"stateMutability": "view",
			"type": "function"
		},
		{
			"inputs": [
				{
					"internalType": "string",
					"name": "_serviceRequestId",
					"type": "string"
				}
			],
			"name": "getServiceRequestInfoById",
			"outputs": [
				{
					"components": [
						{
							"internalType": "string",
							"name": "serviceRequestId",
							"type": "string"
						},
						{
							"internalType": "string",
							"name": "description",
							"type": "string"
						},
						{
							"internalType": "address",
							"name": "shipperAddr",
							"type": "address"
						},
						{
							"internalType": "address",
							"name": "receiverAddr",
							"type": "address"
						},
						{
							"internalType": "int256",
							"name": "originLatitude",
							"type": "int256"
						},
						{
							"internalType": "int256",
							"name": "originLongitude",
							"type": "int256"
						},
						{
							"internalType": "int256",
							"name": "destinationLatitude",
							"type": "int256"
						},
						{
							"internalType": "int256",
							"name": "destinationLongitude",
							"type": "int256"
						},
						{
							"internalType": "string",
							"name": "originLink",
							"type": "string"
						},
						{
							"internalType": "string",
							"name": "destinationLink",
							"type": "string"
						},
						{
							"internalType": "uint256",
							"name": "cargoInsurableValue",
							"type": "uint256"
						},
						{
							"internalType": "uint256",
							"name": "serviceFee",
							"type": "uint256"
						},
						{
							"internalType": "uint256",
							"name": "serviceFeeByBidder",
							"type": "uint256"
						},
						{
							"internalType": "uint256",
							"name": "requestedPickupTime",
							"type": "uint256"
						},
						{
							"internalType": "uint256",
							"name": "requestedDeliveryTime",
							"type": "uint256"
						},
						{
							"internalType": "uint256",
							"name": "auctionTime",
							"type": "uint256"
						},
						{
							"internalType": "address",
							"name": "driverAssigned",
							"type": "address"
						},
						{
							"internalType": "enum Types.Status",
							"name": "status",
							"type": "uint8"
						}
					],
					"internalType": "struct Types.ServiceRequestInfo",
					"name": "",
					"type": "tuple"
				}
			],
			"stateMutability": "view",
			"type": "function"
		},
		{
			"inputs": [
				{
					"internalType": "string",
					"name": "_serviceRequestId",
					"type": "string"
				}
			],
			"name": "updateDraftedServiceRequest",
			"outputs": [],
			"stateMutability": "nonpayable",
			"type": "function"
		},
		{
			"inputs": [
				{
					"internalType": "string",
					"name": "_serviceRequestId",
					"type": "string"
				},
				{
					"internalType": "enum Types.Status",
					"name": "_status",
					"type": "uint8"
				}
			],
			"name": "updateServiceRequestStatusByDriver",
			"outputs": [],
			"stateMutability": "nonpayable",
			"type": "function"
		},
		{
			"inputs": [
				{
					"internalType": "string",
					"name": "_serviceRequestId",
					"type": "string"
				},
				{
					"internalType": "enum Types.Status",
					"name": "_status",
					"type": "uint8"
				},
				{
					"internalType": "enum Types.Acceptance",
					"name": "acceptance",
					"type": "uint8"
				}
			],
			"name": "updateServiceRequestStatusByReceiver",
			"outputs": [],
			"stateMutability": "nonpayable",
			"type": "function"
		},
		{
			"inputs": [
				{
					"internalType": "string",
					"name": "_serviceRequestId",
					"type": "string"
				},
				{
					"internalType": "enum Types.Status",
					"name": "_status",
					"type": "uint8"
				}
			],
			"name": "updateServiceRequestStatusByShipper",
			"outputs": [],
			"stateMutability": "nonpayable",
			"type": "function"
		}
	]
}