{
	"data": {
		"bytecode": {
			"linkReferences": {
				"contracts/ServiceRequest/Helpers.sol": {
					"Helpers": [
						{
							"length": 20,
							"start": 11161
						}
					]
				}
			},
			"object": "60a060405234801561000f575f80fd5b50604051616886380380616886833981810160405281019061003191906100c9565b8073ffffffffffffffffffffffffffffffffffffffff1660808173ffffffffffffffffffffffffffffffffffffffff1681525050506100f4565b5f80fd5b5f73ffffffffffffffffffffffffffffffffffffffff82169050919050565b5f6100988261006f565b9050919050565b6100a88161008e565b81146100b2575f80fd5b50565b5f815190506100c38161009f565b92915050565b5f602082840312156100de576100dd61006b565b5b5f6100eb848285016100b5565b91505092915050565b6080516167736101135f395f8181612621015261270501526167735ff3fe60806040526004361061009b575f3560e01c80637a335cef116100635780637a335cef14610183578063816c2cb7146101ab5780638879a530146101d3578063c2da97ba146101fd578063c928fd1d14610219578063ef693b98146102415761009b565b806312b28b3c1461009f5780631821fb39146100bb5780635b664fcb146100e3578063750e0abd1461011f5780637a1cf72f14610147575b5f80fd5b6100b960048036038101906100b49190613b9f565b610269565b005b3480156100c6575f80fd5b506100e160048036038101906100dc9190613c1c565b610763565b005b3480156100ee575f80fd5b5061010960048036038101906101049190613c76565b61098b565b6040516101169190613f8a565b60405180910390f35b34801561012a575f80fd5b5061014560048036038101906101409190613c76565b610aa4565b005b348015610152575f80fd5b5061016d60048036038101906101689190613c76565b610be4565b60405161017a91906141f9565b60405180910390f35b34801561018e575f80fd5b506101a960048036038101906101a49190613c1c565b6111aa565b005b3480156101b6575f80fd5b506101d160048036038101906101cc9190613c76565b611782565b005b3480156101de575f80fd5b506101e7611a0f565b6040516101f491906141f9565b60405180910390f35b61021760048036038101906102129190614437565b612026565b005b348015610224575f80fd5b5061023f600480360381019061023a91906144a1565b612405565b005b34801561024c575f80fd5b5061026760048036038101906102629190613c76565b61281a565b005b335f61027484612a66565b90505f815f015190505f82602001519050670de0b6b3a764000085610299919061453a565b94505f600a8111156102ae576102ad613d83565b5b826102200151600a8111156102c6576102c5613d83565b5b1461030857856040517f67695d970000000000000000000000000000000000000000000000000000000081526004016102ff9190614633565b60405180910390fd5b816101e00151421061035157856040517faea2ead800000000000000000000000000000000000000000000000000000000815260040161034891906146b0565b60405180910390fd5b5f61035b33612f94565b905061036c81846101000151612fac565b1580610384575061038281846101200151612fac565b155b156103c657866040517f09d8f3d30000000000000000000000000000000000000000000000000000000081526004016103bd9190614753565b60405180910390fd5b670de0b6b3a76400008361014001516103df919061453a565b341461042257346040517f6189d1040000000000000000000000000000000000000000000000000000000081526004016104199190614805565b60405180910390fd5b5f861115806104645750670de0b6b3a7640000836101400151610445919061453a565b8361016001516104559190614831565b34876104619190614831565b10155b156104a657856040517fe71c06bd00000000000000000000000000000000000000000000000000000000815260040161049d91906148ae565b60405180910390fd5b5f6001886040516104b79190614914565b9081526020016040518091039020805480602002602001604051908101604052809291908181526020015f905b8282101561058d578382905f5260205f2090600202016040518060600160405290815f8201548152602001600182015f9054906101000a900473ffffffffffffffffffffffffffffffffffffffff1673ffffffffffffffffffffffffffffffffffffffff1673ffffffffffffffffffffffffffffffffffffffff1681526020016001820160149054906101000a900460ff161515151581525050815260200190600101906104e4565b50505050905061059d338261307f565b5f60405180606001604052808981526020013373ffffffffffffffffffffffffffffffffffffffff1681526020015f151581525090506001896040516105e39190614914565b908152602001604051809103902081908060018154018082558091505060019003905f5260205f2090600202015f909190919091505f820151815f01556020820151816001015f6101000a81548173ffffffffffffffffffffffffffffffffffffffff021916908373ffffffffffffffffffffffffffffffffffffffff16021790555060408201518160010160146101000a81548160ff021916908315150217905550505084610160015188101561071d57875f85815481106106a9576106a861492a565b5b905f5260205f209060110201600c0181905550335f85815481106106d0576106cf61492a565b5b905f5260205f2090601102016010015f6101000a81548173ffffffffffffffffffffffffffffffffffffffff021916908373ffffffffffffffffffffffffffffffffffffffff1602179055505b7fdd9fd5bb4eb2d26bccea7b9f6658c73cb8ff9a8f5c7158eb72845b523213b5de89893360405161075093929190614966565b60405180910390a1505050505050505050565b5f61076d83612a66565b90505f815f015190505f82602001519050600a8081111561079157610790613d83565b5b826102200151600a8111156107a9576107a8613d83565b5b036107eb57846040517f48b3ccec0000000000000000000000000000000000000000000000000000000081526004016107e29190614a12565b60405180910390fd5b816040015173ffffffffffffffffffffffffffffffffffffffff163373ffffffffffffffffffffffffffffffffffffffff161461085f57846040517f48b3ccec0000000000000000000000000000000000000000000000000000000081526004016108569190614ab5565b60405180910390fd5b6003600a81111561087357610872613d83565b5b84600a81111561088657610885613d83565b5b1480156108bc57506002600a8111156108a2576108a1613d83565b5b826102200151600a8111156108ba576108b9613d83565b5b145b1561094757835f82815481106108d5576108d461492a565b5b905f5260205f20906011020160100160146101000a81548160ff0219169083600a81111561090657610905613d83565b5b02179055507f2d9d560c99c3bc1724fc52a39a33a239e75ef98285e83dfb9aa7c87f6b5b289c8560405161093a9190614b58565b60405180910390a1610984565b846040517f48b3ccec00000000000000000000000000000000000000000000000000000000815260040161097b9190614bfb565b60405180910390fd5b5050505050565b61099361392f565b5f61099d83612a66565b90505f815f015190505f339050816040015173ffffffffffffffffffffffffffffffffffffffff168173ffffffffffffffffffffffffffffffffffffffff161480610a175750816060015173ffffffffffffffffffffffffffffffffffffffff168173ffffffffffffffffffffffffffffffffffffffff16145b80610a52575081610200015173ffffffffffffffffffffffffffffffffffffffff168173ffffffffffffffffffffffffffffffffffffffff16145b15610a6257819350505050610a9f565b846040517f48b3ccec000000000000000000000000000000000000000000000000000000008152600401610a969190614c9e565b60405180910390fd5b919050565b335f610aaf83612a66565b90505f815f015190505f826020015190506001600a811115610ad457610ad3613d83565b5b826102200151600a811115610aec57610aeb613d83565b5b03610ba057603c5f8281548110610b0657610b0561492a565b5b905f5260205f209060110201600f0154610b20919061453a565b42610b2b9190614831565b5f8281548110610b3e57610b3d61492a565b5b905f5260205f209060110201600f01819055505f808281548110610b6557610b6461492a565b5b905f5260205f20906011020160100160146101000a81548160ff0219169083600a811115610b9657610b95613d83565b5b0217905550610bdd565b846040517f21a3de0a000000000000000000000000000000000000000000000000000000008152600401610bd49190614d41565b60405180910390fd5b5050505050565b60605f808054905067ffffffffffffffff811115610c0557610c04613a48565b5b604051908082528060200260200182016040528015610c3e57816020015b610c2b61392f565b815260200190600190039081610c235790505b5090505f805b5f805490508110156110f6575f808281548110610c6457610c6361492a565b5b905f5260205f209060110201604051806102400160405290815f82018054610c8b90614da1565b80601f0160208091040260200160405190810160405280929190818152602001828054610cb790614da1565b8015610d025780601f10610cd957610100808354040283529160200191610d02565b820191905f5260205f20905b815481529060010190602001808311610ce557829003601f168201915b50505050508152602001600182018054610d1b90614da1565b80601f0160208091040260200160405190810160405280929190818152602001828054610d4790614da1565b8015610d925780601f10610d6957610100808354040283529160200191610d92565b820191905f5260205f20905b815481529060010190602001808311610d7557829003601f168201915b50505050508152602001600282015f9054906101000a900473ffffffffffffffffffffffffffffffffffffffff1673ffffffffffffffffffffffffffffffffffffffff1673ffffffffffffffffffffffffffffffffffffffff168152602001600382015f9054906101000a900473ffffffffffffffffffffffffffffffffffffffff1673ffffffffffffffffffffffffffffffffffffffff1673ffffffffffffffffffffffffffffffffffffffff16815260200160048201548152602001600582015481526020016006820154815260200160078201548152602001600882018054610e7d90614da1565b80601f0160208091040260200160405190810160405280929190818152602001828054610ea990614da1565b8015610ef45780601f10610ecb57610100808354040283529160200191610ef4565b820191905f5260205f20905b815481529060010190602001808311610ed757829003601f168201915b50505050508152602001600982018054610f0d90614da1565b80601f0160208091040260200160405190810160405280929190818152602001828054610f3990614da1565b8015610f845780601f10610f5b57610100808354040283529160200191610f84565b820191905f5260205f20905b815481529060010190602001808311610f6757829003601f168201915b50505050508152602001600a8201548152602001600b8201548152602001600c8201548152602001600d8201548152602001600e8201548152602001600f8201548152602001601082015f9054906101000a900473ffffffffffffffffffffffffffffffffffffffff1673ffffffffffffffffffffffffffffffffffffffff1673ffffffffffffffffffffffffffffffffffffffff1681526020016010820160149054906101000a900460ff16600a81111561104357611042613d83565b5b600a81111561105557611054613d83565b5b8152505090505f600a81111561106e5761106d613d83565b5b816102200151600a81111561108657611085613d83565b5b14801561109e575061109d86826101000151612fac565b5b80156110b557506110b486826101200151612fac565b5b156110e857808484815181106110ce576110cd61492a565b5b602002602001018190525082806110e490614dd1565b9350505b508080600101915050610c44565b505f8167ffffffffffffffff81111561111257611111613a48565b5b60405190808252806020026020018201604052801561114b57816020015b61113861392f565b8152602001906001900390816111305790505b5090505f5b8281101561119e5783818151811061116b5761116a61492a565b5b60200260200101518282815181106111865761118561492a565b5b60200260200101819052508080600101915050611150565b50809350505050919050565b5f6111b483612a66565b90505f815f015190505f82602001519050600a808111156111d8576111d7613d83565b5b826102200151600a8111156111f0576111ef613d83565b5b0361123257846040517f48b3ccec0000000000000000000000000000000000000000000000000000000081526004016112299190614a12565b60405180910390fd5b81610200015173ffffffffffffffffffffffffffffffffffffffff163373ffffffffffffffffffffffffffffffffffffffff16146112a757846040517f48b3ccec00000000000000000000000000000000000000000000000000000000815260040161129e9190614e88565b60405180910390fd5b6003600a8111156112bb576112ba613d83565b5b826102200151600a8111156112d3576112d2613d83565b5b036113cc576004600a8111156112ec576112eb613d83565b5b84600a8111156112ff576112fe613d83565b5b0361138a57835f82815481106113185761131761492a565b5b905f5260205f20906011020160100160146101000a81548160ff0219169083600a81111561134957611348613d83565b5b02179055507f2d9d560c99c3bc1724fc52a39a33a239e75ef98285e83dfb9aa7c87f6b5b289c8560405161137d9190614b58565b60405180910390a16113c7565b846040517f48b3ccec0000000000000000000000000000000000000000000000000000000081526004016113be9190614f51565b60405180910390fd5b61177b565b6004600a8111156113e0576113df613d83565b5b826102200151600a8111156113f8576113f7613d83565b5b036114f1576005600a81111561141157611410613d83565b5b84600a81111561142457611423613d83565b5b036114af57835f828154811061143d5761143c61492a565b5b905f5260205f20906011020160100160146101000a81548160ff0219169083600a81111561146e5761146d613d83565b5b02179055507f2d9d560c99c3bc1724fc52a39a33a239e75ef98285e83dfb9aa7c87f6b5b289c856040516114a29190614b58565b60405180910390a16114ec565b846040517f48b3ccec0000000000000000000000000000000000000000000000000000000081526004016114e3919061501a565b60405180910390fd5b61177a565b6005600a81111561150557611504613d83565b5b826102200151600a81111561151d5761151c613d83565b5b03611616576006600a81111561153657611535613d83565b5b84600a81111561154957611548613d83565b5b036115d457835f82815481106115625761156161492a565b5b905f5260205f20906011020160100160146101000a81548160ff0219169083600a81111561159357611592613d83565b5b02179055507f2d9d560c99c3bc1724fc52a39a33a239e75ef98285e83dfb9aa7c87f6b5b289c856040516115c79190614b58565b60405180910390a1611611565b846040517f48b3ccec00000000000000000000000000000000000000000000000000000000815260040161160891906150e3565b60405180910390fd5b611779565b6006600a81111561162a57611629613d83565b5b826102200151600a81111561164257611641613d83565b5b0361173b576007600a81111561165b5761165a613d83565b5b84600a81111561166e5761166d613d83565b5b036116f957835f82815481106116875761168661492a565b5b905f5260205f20906011020160100160146101000a81548160ff0219169083600a8111156116b8576116b7613d83565b5b02179055507f2d9d560c99c3bc1724fc52a39a33a239e75ef98285e83dfb9aa7c87f6b5b289c856040516116ec9190614b58565b60405180910390a1611736565b846040517f48b3ccec00000000000000000000000000000000000000000000000000000000815260040161172d91906151ac565b60405180910390fd5b611778565b846040517f48b3ccec00000000000000000000000000000000000000000000000000000000815260040161176f919061529b565b60405180910390fd5b5b5b5b5050505050565b5f61178c82612a66565b90505f815f015190505f826020015190506001600a8111156117b1576117b0613d83565b5b826102200151600a8111156117c9576117c8613d83565b5b14806117fd57505f600a8111156117e3576117e2613d83565b5b826102200151600a8111156117fb576117fa613d83565b5b145b156119cc57816040015173ffffffffffffffffffffffffffffffffffffffff163373ffffffffffffffffffffffffffffffffffffffff161461187657836040517f48b3ccec00000000000000000000000000000000000000000000000000000000815260040161186d919061533e565b60405180910390fd5b5f73ffffffffffffffffffffffffffffffffffffffff1682610200015173ffffffffffffffffffffffffffffffffffffffff161461194357816101e0015142106119065760025f82815481106118cf576118ce61492a565b5b905f5260205f20906011020160100160146101000a81548160ff0219169083600a811115611900576118ff613d83565b5b02179055505b836040517faecff84000000000000000000000000000000000000000000000000000000000815260040161193a91906153e1565b60405180910390fd5b600a5f82815481106119585761195761492a565b5b905f5260205f20906011020160100160146101000a81548160ff0219169083600a81111561198957611988613d83565b5b02179055507fdfa422881f63493e54ccce54f113252111e0fb2338b99c336496f54c6b5ff7f684336040516119bf929190615414565b60405180910390a1611a09565b836040517faecff840000000000000000000000000000000000000000000000000000000008152600401611a0091906154b2565b60405180910390fd5b50505050565b60605f3390505f808054905067ffffffffffffffff811115611a3457611a33613a48565b5b604051908082528060200260200182016040528015611a6d57816020015b611a5a61392f565b815260200190600190039081611a525790505b5090505f805b5f80549050811015611f73575f808281548110611a9357611a9261492a565b5b905f5260205f209060110201604051806102400160405290815f82018054611aba90614da1565b80601f0160208091040260200160405190810160405280929190818152602001828054611ae690614da1565b8015611b315780601f10611b0857610100808354040283529160200191611b31565b820191905f5260205f20905b815481529060010190602001808311611b1457829003601f168201915b50505050508152602001600182018054611b4a90614da1565b80601f0160208091040260200160405190810160405280929190818152602001828054611b7690614da1565b8015611bc15780601f10611b9857610100808354040283529160200191611bc1565b820191905f5260205f20905b815481529060010190602001808311611ba457829003601f168201915b50505050508152602001600282015f9054906101000a900473ffffffffffffffffffffffffffffffffffffffff1673ffffffffffffffffffffffffffffffffffffffff1673ffffffffffffffffffffffffffffffffffffffff168152602001600382015f9054906101000a900473ffffffffffffffffffffffffffffffffffffffff1673ffffffffffffffffffffffffffffffffffffffff1673ffffffffffffffffffffffffffffffffffffffff16815260200160048201548152602001600582015481526020016006820154815260200160078201548152602001600882018054611cac90614da1565b80601f0160208091040260200160405190810160405280929190818152602001828054611cd890614da1565b8015611d235780601f10611cfa57610100808354040283529160200191611d23565b820191905f5260205f20905b815481529060010190602001808311611d0657829003601f168201915b50505050508152602001600982018054611d3c90614da1565b80601f0160208091040260200160405190810160405280929190818152602001828054611d6890614da1565b8015611db35780601f10611d8a57610100808354040283529160200191611db3565b820191905f5260205f20905b815481529060010190602001808311611d9657829003601f168201915b50505050508152602001600a8201548152602001600b8201548152602001600c8201548152602001600d8201548152602001600e8201548152602001600f8201548152602001601082015f9054906101000a900473ffffffffffffffffffffffffffffffffffffffff1673ffffffffffffffffffffffffffffffffffffffff1673ffffffffffffffffffffffffffffffffffffffff1681526020016010820160149054906101000a900460ff16600a811115611e7257611e71613d83565b5b600a811115611e8457611e83613d83565b5b8152505090508473ffffffffffffffffffffffffffffffffffffffff16816040015173ffffffffffffffffffffffffffffffffffffffff161480611ef757508473ffffffffffffffffffffffffffffffffffffffff16816060015173ffffffffffffffffffffffffffffffffffffffff16145b80611f3257508473ffffffffffffffffffffffffffffffffffffffff1681610200015173ffffffffffffffffffffffffffffffffffffffff16145b15611f655780848481518110611f4b57611f4a61492a565b5b60200260200101819052508280611f6190614dd1565b9350505b508080600101915050611a73565b505f8167ffffffffffffffff811115611f8f57611f8e613a48565b5b604051908082528060200260200182016040528015611fc857816020015b611fb561392f565b815260200190600190039081611fad5790505b5090505f5b8281101561201b57838181518110611fe857611fe761492a565b5b60200260200101518282815181106120035761200261492a565b5b60200260200101819052508080600101915050611fcd565b508094505050505090565b8060200151816040015161203a833461312a565b5f6120456020613264565b90505f604051806102400160405280838152602001865f01518152602001866020015173ffffffffffffffffffffffffffffffffffffffff168152602001866040015173ffffffffffffffffffffffffffffffffffffffff16815260200186606001518152602001866080015181526020018660a0015181526020018660c0015181526020018660e001518152602001866101000151815260200186610120015181526020013481526020015f8152602001866101400151815260200186610160015181526020015f60018111156121205761211f613d83565b5b876101a00151600181111561213857612137613d83565b5b1461214857866101800151612166565b866101800151603c61215a919061453a565b426121659190614831565b5b81526020015f73ffffffffffffffffffffffffffffffffffffffff1681526020015f600181111561219a57612199613d83565b5b876101a0015160018111156121b2576121b1613d83565b5b146121be5760016121c0565b5f5b600a8111156121d2576121d1613d83565b5b81525090505f81908060018154018082558091505060019003905f5260205f2090601102015f909190919091505f820151815f0190816122129190615682565b5060208201518160010190816122289190615682565b506040820151816002015f6101000a81548173ffffffffffffffffffffffffffffffffffffffff021916908373ffffffffffffffffffffffffffffffffffffffff1602179055506060820151816003015f6101000a81548173ffffffffffffffffffffffffffffffffffffffff021916908373ffffffffffffffffffffffffffffffffffffffff1602179055506080820151816004015560a0820151816005015560c0820151816006015560e082015181600701556101008201518160080190816122f39190615682565b5061012082015181600901908161230a9190615682565b5061014082015181600a015561016082015181600b015561018082015181600c01556101a082015181600d01556101c082015181600e01556101e082015181600f0155610200820151816010015f6101000a81548173ffffffffffffffffffffffffffffffffffffffff021916908373ffffffffffffffffffffffffffffffffffffffff1602179055506102208201518160100160146101000a81548160ff0219169083600a8111156123c0576123bf613d83565b5b021790555050507f34a186fe574eaf2c1bb47b901fc1f8227ebc865ef86fabe03fde6b4ab5dfe550816040516123f691906157c1565b60405180910390a15050505050565b5f61240f84612a66565b90505f815f015190505f82602001519050816060015173ffffffffffffffffffffffffffffffffffffffff163373ffffffffffffffffffffffffffffffffffffffff161461249457856040517f48b3ccec00000000000000000000000000000000000000000000000000000000815260040161248b9190615864565b60405180910390fd5b600a808111156124a7576124a6613d83565b5b826102200151600a8111156124bf576124be613d83565b5b0361250157856040517f48b3ccec0000000000000000000000000000000000000000000000000000000081526004016124f89190614a12565b60405180910390fd5b6008600a81111561251557612514613d83565b5b85600a81111561252857612527613d83565b5b036127d5576007600a81111561254157612540613d83565b5b826102200151600a81111561255957612558613d83565b5b1461259b57856040517f48b3ccec000000000000000000000000000000000000000000000000000000008152600401612592919061592d565b60405180910390fd5b5f60018111156125ae576125ad613d83565b5b8460018111156125c1576125c0613d83565b5b036126b857845f82815481106125da576125d961492a565b5b905f5260205f20906011020160100160146101000a81548160ff0219169083600a81111561260b5761260a613d83565b5b021790555061261f86836102000151613396565b7f000000000000000000000000000000000000000000000000000000000000000073ffffffffffffffffffffffffffffffffffffffff1663486590978361020001518461014001515f6040518463ffffffff1660e01b8152600401612686939291906159a6565b5f604051808303815f87803b15801561269d575f80fd5b505af11580156126af573d5f803e3d5ffd5b50505050612799565b60095f82815481106126cd576126cc61492a565b5b905f5260205f20906011020160100160146101000a81548160ff0219169083600a8111156126fe576126fd613d83565b5b02179055507f000000000000000000000000000000000000000000000000000000000000000073ffffffffffffffffffffffffffffffffffffffff16634865909783610200015184610140015160016040518463ffffffff1660e01b815260040161276b939291906159a6565b5f604051808303815f87803b158015612782575f80fd5b505af1158015612794573d5f803e3d5ffd5b505050505b7f2d9d560c99c3bc1724fc52a39a33a239e75ef98285e83dfb9aa7c87f6b5b289c866040516127c89190614b58565b60405180910390a1612812565b856040517f48b3ccec0000000000000000000000000000000000000000000000000000000081526004016128099190615a4b565b60405180910390fd5b505050505050565b335f61282583612a66565b90505f815f015190505f82602001519050600a8081111561284957612848613d83565b5b826102200151600a81111561286157612860613d83565b5b036128a357846040517f48b3ccec00000000000000000000000000000000000000000000000000000000815260040161289a9190614a12565b60405180910390fd5b816101e0015142116128ec57846040517f94ee0a3b0000000000000000000000000000000000000000000000000000000081526004016128e39190615ac8565b60405180910390fd5b5f73ffffffffffffffffffffffffffffffffffffffff1682610200015173ffffffffffffffffffffffffffffffffffffffff16036129945761012c426129329190614831565b5f82815481106129455761294461492a565b5b905f5260205f209060110201600f01819055507f6ffa02c8bc6683d2c360fe816f622f01283f39ff12e8c01bedfc43b76147c029856040516129879190615b6b565b60405180910390a1612a5f565b3373ffffffffffffffffffffffffffffffffffffffff1682610200015173ffffffffffffffffffffffffffffffffffffffff1603612a535760025f82815481106129e1576129e061492a565b5b905f5260205f20906011020160100160146101000a81548160ff0219169083600a811115612a1257612a11613d83565b5b02179055507fa7bbb94eb5775b8d566c1a849897a78fc3d480884f8e1339e4b72349b9058ebe85604051612a469190615be8565b60405180910390a1612a5e565b612a5d8533613396565b5b5b5050505050565b612a6e613a00565b612a76613a00565b5f5b5f80549050811015612f515773__$05822db802f7386a4644ce29eb4d184cd5$__63bed34bba5f8381548110612ab157612ab061492a565b5b905f5260205f2090601102015f01866040518363ffffffff1660e01b8152600401612add929190615ce4565b602060405180830381865af4158015612af8573d5f803e3d5ffd5b505050506040513d601f19601f82011682018060405250810190612b1c9190615d4e565b15612f44575f8181548110612b3457612b3361492a565b5b905f5260205f209060110201604051806102400160405290815f82018054612b5b90614da1565b80601f0160208091040260200160405190810160405280929190818152602001828054612b8790614da1565b8015612bd25780601f10612ba957610100808354040283529160200191612bd2565b820191905f5260205f20905b815481529060010190602001808311612bb557829003601f168201915b50505050508152602001600182018054612beb90614da1565b80601f0160208091040260200160405190810160405280929190818152602001828054612c1790614da1565b8015612c625780601f10612c3957610100808354040283529160200191612c62565b820191905f5260205f20905b815481529060010190602001808311612c4557829003601f168201915b50505050508152602001600282015f9054906101000a900473ffffffffffffffffffffffffffffffffffffffff1673ffffffffffffffffffffffffffffffffffffffff1673ffffffffffffffffffffffffffffffffffffffff168152602001600382015f9054906101000a900473ffffffffffffffffffffffffffffffffffffffff1673ffffffffffffffffffffffffffffffffffffffff1673ffffffffffffffffffffffffffffffffffffffff16815260200160048201548152602001600582015481526020016006820154815260200160078201548152602001600882018054612d4d90614da1565b80601f0160208091040260200160405190810160405280929190818152602001828054612d7990614da1565b8015612dc45780601f10612d9b57610100808354040283529160200191612dc4565b820191905f5260205f20905b815481529060010190602001808311612da757829003601f168201915b50505050508152602001600982018054612ddd90614da1565b80601f0160208091040260200160405190810160405280929190818152602001828054612e0990614da1565b8015612e545780601f10612e2b57610100808354040283529160200191612e54565b820191905f5260205f20905b815481529060010190602001808311612e3757829003601f168201915b50505050508152602001600a8201548152602001600b8201548152602001600c8201548152602001600d8201548152602001600e8201548152602001600f8201548152602001601082015f9054906101000a900473ffffffffffffffffffffffffffffffffffffffff1673ffffffffffffffffffffffffffffffffffffffff1673ffffffffffffffffffffffffffffffffffffffff1681526020016010820160149054906101000a900460ff16600a811115612f1357612f12613d83565b5b600a811115612f2557612f24613d83565b5b81525050825f0181905250808260200181815250508192505050612f8f565b8080600101915050612a78565b50826040517f0972acef000000000000000000000000000000000000000000000000000000008152600401612f869190615dc3565b60405180910390fd5b919050565b606060405180602001604052805f8152509050919050565b5f808390505f839050805182511115612fc9575f92505050613079565b5f5b825181101561307157818181518110612fe757612fe661492a565b5b602001015160f81c60f81b7effffffffffffffffffffffffffffffffffffffffffffffffffffffffffffff19168382815181106130275761302661492a565b5b602001015160f81c60f81b7effffffffffffffffffffffffffffffffffffffffffffffffffffffffffffff191614613064575f9350505050613079565b8080600101915050612fcb565b506001925050505b92915050565b5f5b8151811015613125578273ffffffffffffffffffffffffffffffffffffffff168282815181106130b4576130b361492a565b5b60200260200101516020015173ffffffffffffffffffffffffffffffffffffffff160361311857826040517f0c5f8cad00000000000000000000000000000000000000000000000000000000815260040161310f9190615e66565b60405180910390fd5b8080600101915050613081565b505050565b5f825f0151510361317557815f01516040517ff65392f500000000000000000000000000000000000000000000000000000000815260040161316c9190615edc565b60405180910390fd5b613187826060015183608001516136dc565b6131998260a001518360c001516136dc565b6131a68260e001516137d2565b6131b48261010001516137d2565b5f82610120015103613202578161012001516040517f80f71e120000000000000000000000000000000000000000000000000000000081526004016131f99190615f59565b60405180910390fd5b5f810361324657806040517f80f71e1200000000000000000000000000000000000000000000000000000000815260040161323d9190615fcf565b60405180910390fd5b61326082610140015183610160015184610180015161381a565b5050565b60605f6040518060600160405280603e8152602001616700603e913990505f8367ffffffffffffffff81111561329d5761329c613a48565b5b6040519080825280601f01601f1916602001820160405280156132cf5781602001600182028036833780820191505090505b5090505f825190505f5b8581101561338a575f82424340846040516020016132f993929190616044565b604051602081830303815290604052805190602001205f1c61331b91906160ad565b90508481815181106133305761332f61492a565b5b602001015160f81c60f81b84838151811061334e5761334d61492a565b5b60200101907effffffffffffffffffffffffffffffffffffffffffffffffffffffffffffff191690815f1a9053505080806001019150506132d9565b50819350505050919050565b5f6001836040516133a79190614914565b9081526020016040518091039020805480602002602001604051908101604052809291908181526020015f905b8282101561347d578382905f5260205f2090600202016040518060600160405290815f8201548152602001600182015f9054906101000a900473ffffffffffffffffffffffffffffffffffffffff1673ffffffffffffffffffffffffffffffffffffffff1673ffffffffffffffffffffffffffffffffffffffff1681526020016001820160149054906101000a900460ff161515151581525050815260200190600101906133d4565b5050505090505f5b815181101561369a578273ffffffffffffffffffffffffffffffffffffffff168282815181106134b8576134b761492a565b5b60200260200101516020015173ffffffffffffffffffffffffffffffffffffffff160361368d578181815181106134f2576134f161492a565b5b60200260200101516040015161364e577fa7bbb94eb5775b8d566c1a849897a78fc3d480884f8e1339e4b72349b9058ebe846040516135319190616127565b60405180910390a16001808560405161354a9190614914565b9081526020016040518091039020828154811061356a5761356961492a565b5b905f5260205f20906002020160010160146101000a81548160ff0219169083151502179055508273ffffffffffffffffffffffffffffffffffffffff166108fc8383815181106135bd576135bc61492a565b5b60200260200101515f015190811502906040515f60405180830381858888f193505050501580156135f0573d5f803e3d5ffd5b507f678d68581a81feb175eaa0f9b062dfeb248ff5b449035eb26079ca96c696458f30848484815181106136275761362661492a565b5b60200260200101515f01516040516136419392919061615a565b60405180910390a1613686565b7fa7bbb94eb5775b8d566c1a849897a78fc3d480884f8e1339e4b72349b9058ebe8460405161367d91906161ff565b60405180910390a15b50506136d8565b8080600101915050613485565b50826040517f48b3ccec0000000000000000000000000000000000000000000000000000000081526004016136cf91906162a2565b60405180910390fd5b5050565b7ffffffffffffffffffffffffffffffffffffffffffffffffff3828ec4b62600008212806137115750670c7d713b49da000082135b156137555781816040517fde0e81dd00000000000000000000000000000000000000000000000000000000815260040161374c92919061632e565b60405180910390fd5b7fffffffffffffffffffffffffffffffffffffffffffffffffe7051d896c4c000081128061378a57506718fae27693b4000081135b156137ce5781816040517fde0e81dd0000000000000000000000000000000000000000000000000000000081526004016137c59291906163d8565b60405180910390fd5b5050565b5f81510361381757806040517f8b677a5c00000000000000000000000000000000000000000000000000000000815260040161380e919061645c565b60405180910390fd5b50565b5f811161385e57806040517f11a242af00000000000000000000000000000000000000000000000000000000815260040161385591906164ff565b60405180910390fd5b4283116138a257826040517f11a242af000000000000000000000000000000000000000000000000000000008152600401613899919061659b565b60405180910390fd5b4282116138e657816040517f11a242af0000000000000000000000000000000000000000000000000000000081526004016138dd9190616637565b60405180910390fd5b82821161392a57816040517f11a242af00000000000000000000000000000000000000000000000000000000815260040161392191906166d3565b60405180910390fd5b505050565b60405180610240016040528060608152602001606081526020015f73ffffffffffffffffffffffffffffffffffffffff1681526020015f73ffffffffffffffffffffffffffffffffffffffff1681526020015f81526020015f81526020015f81526020015f815260200160608152602001606081526020015f81526020015f81526020015f81526020015f81526020015f81526020015f81526020015f73ffffffffffffffffffffffffffffffffffffffff1681526020015f600a8111156139fa576139f9613d83565b5b81525090565b6040518060400160405280613a1361392f565b81526020015f81525090565b5f604051905090565b5f80fd5b5f80fd5b5f80fd5b5f80fd5b5f601f19601f8301169050919050565b7f4e487b71000000000000000000000000000000000000000000000000000000005f52604160045260245ffd5b613a7e82613a38565b810181811067ffffffffffffffff82111715613a9d57613a9c613a48565b5b80604052505050565b5f613aaf613a1f565b9050613abb8282613a75565b919050565b5f67ffffffffffffffff821115613ada57613ad9613a48565b5b613ae382613a38565b9050602081019050919050565b828183375f83830152505050565b5f613b10613b0b84613ac0565b613aa6565b905082815260208101848484011115613b2c57613b2b613a34565b5b613b37848285613af0565b509392505050565b5f82601f830112613b5357613b52613a30565b5b8135613b63848260208601613afe565b91505092915050565b5f819050919050565b613b7e81613b6c565b8114613b88575f80fd5b50565b5f81359050613b9981613b75565b92915050565b5f8060408385031215613bb557613bb4613a28565b5b5f83013567ffffffffffffffff811115613bd257613bd1613a2c565b5b613bde85828601613b3f565b9250506020613bef85828601613b8b565b9150509250929050565b600b8110613c05575f80fd5b50565b5f81359050613c1681613bf9565b92915050565b5f8060408385031215613c3257613c31613a28565b5b5f83013567ffffffffffffffff811115613c4f57613c4e613a2c565b5b613c5b85828601613b3f565b9250506020613c6c85828601613c08565b9150509250929050565b5f60208284031215613c8b57613c8a613a28565b5b5f82013567ffffffffffffffff811115613ca857613ca7613a2c565b5b613cb484828501613b3f565b91505092915050565b5f81519050919050565b5f82825260208201905092915050565b8281835e5f83830152505050565b5f613cef82613cbd565b613cf98185613cc7565b9350613d09818560208601613cd7565b613d1281613a38565b840191505092915050565b5f73ffffffffffffffffffffffffffffffffffffffff82169050919050565b5f613d4682613d1d565b9050919050565b613d5681613d3c565b82525050565b5f819050919050565b613d6e81613d5c565b82525050565b613d7d81613b6c565b82525050565b7f4e487b71000000000000000000000000000000000000000000000000000000005f52602160045260245ffd5b600b8110613dc157613dc0613d83565b5b50565b5f819050613dd182613db0565b919050565b5f613de082613dc4565b9050919050565b613df081613dd6565b82525050565b5f61024083015f8301518482035f860152613e118282613ce5565b91505060208301518482036020860152613e2b8282613ce5565b9150506040830151613e406040860182613d4d565b506060830151613e536060860182613d4d565b506080830151613e666080860182613d65565b5060a0830151613e7960a0860182613d65565b5060c0830151613e8c60c0860182613d65565b5060e0830151613e9f60e0860182613d65565b50610100830151848203610100860152613eb98282613ce5565b915050610120830151848203610120860152613ed58282613ce5565b915050610140830151613eec610140860182613d74565b50610160830151613f01610160860182613d74565b50610180830151613f16610180860182613d74565b506101a0830151613f2b6101a0860182613d74565b506101c0830151613f406101c0860182613d74565b506101e0830151613f556101e0860182613d74565b50610200830151613f6a610200860182613d4d565b50610220830151613f7f610220860182613de7565b508091505092915050565b5f6020820190508181035f830152613fa28184613df6565b905092915050565b5f81519050919050565b5f82825260208201905092915050565b5f819050602082019050919050565b5f61024083015f8301518482035f860152613fee8282613ce5565b915050602083015184820360208601526140088282613ce5565b915050604083015161401d6040860182613d4d565b5060608301516140306060860182613d4d565b5060808301516140436080860182613d65565b5060a083015161405660a0860182613d65565b5060c083015161406960c0860182613d65565b5060e083015161407c60e0860182613d65565b506101008301518482036101008601526140968282613ce5565b9150506101208301518482036101208601526140b28282613ce5565b9150506101408301516140c9610140860182613d74565b506101608301516140de610160860182613d74565b506101808301516140f3610180860182613d74565b506101a08301516141086101a0860182613d74565b506101c083015161411d6101c0860182613d74565b506101e08301516141326101e0860182613d74565b50610200830151614147610200860182613d4d565b5061022083015161415c610220860182613de7565b508091505092915050565b5f6141728383613fd3565b905092915050565b5f602082019050919050565b5f61419082613faa565b61419a8185613fb4565b9350836020820285016141ac85613fc4565b805f5b858110156141e757848403895281516141c88582614167565b94506141d38361417a565b925060208a019950506001810190506141af565b50829750879550505050505092915050565b5f6020820190508181035f8301526142118184614186565b905092915050565b5f80fd5b5f80fd5b61422a81613d3c565b8114614234575f80fd5b50565b5f8135905061424581614221565b92915050565b61425481613d5c565b811461425e575f80fd5b50565b5f8135905061426f8161424b565b92915050565b60028110614281575f80fd5b50565b5f8135905061429281614275565b92915050565b5f6101c082840312156142ae576142ad614219565b5b6142b96101c0613aa6565b90505f82013567ffffffffffffffff8111156142d8576142d761421d565b5b6142e484828501613b3f565b5f8301525060206142f784828501614237565b602083015250604061430b84828501614237565b604083015250606061431f84828501614261565b606083015250608061433384828501614261565b60808301525060a061434784828501614261565b60a08301525060c061435b84828501614261565b60c08301525060e082013567ffffffffffffffff81111561437f5761437e61421d565b5b61438b84828501613b3f565b60e08301525061010082013567ffffffffffffffff8111156143b0576143af61421d565b5b6143bc84828501613b3f565b610100830152506101206143d284828501613b8b565b610120830152506101406143e884828501613b8b565b610140830152506101606143fe84828501613b8b565b6101608301525061018061441484828501613b8b565b610180830152506101a061442a84828501614284565b6101a08301525092915050565b5f6020828403121561444c5761444b613a28565b5b5f82013567ffffffffffffffff81111561446957614468613a2c565b5b61447584828501614298565b91505092915050565b6002811061448a575f80fd5b50565b5f8135905061449b8161447e565b92915050565b5f805f606084860312156144b8576144b7613a28565b5b5f84013567ffffffffffffffff8111156144d5576144d4613a2c565b5b6144e186828701613b3f565b93505060206144f286828701613c08565b92505060406145038682870161448d565b9150509250925092565b7f4e487b71000000000000000000000000000000000000000000000000000000005f52601160045260245ffd5b5f61454482613b6c565b915061454f83613b6c565b925082820261455d81613b6c565b915082820484148315176145745761457361450d565b5b5092915050565b5f82825260208201905092915050565b5f61459582613cbd565b61459f818561457b565b93506145af818560208601613cd7565b6145b881613a38565b840191505092915050565b7f536572766963652072657175657374206973206e6f7420696e2061756374696f5f8201527f6e207269676874206e6f77000000000000000000000000000000000000000000602082015250565b5f61461d602b8361457b565b9150614628826145c3565b604082019050919050565b5f6040820190508181035f83015261464b818461458b565b9050818103602083015261465e81614611565b905092915050565b7f41756374696f6e20656e64656420616c726561647900000000000000000000005f82015250565b5f61469a60158361457b565b91506146a582614666565b602082019050919050565b5f6040820190508181035f8301526146c8818461458b565b905081810360208301526146db8161468e565b905092915050565b7f536572766963652072657175657374206e6f7420696e20796f757220726567695f8201527f6f6e000000000000000000000000000000000000000000000000000000000000602082015250565b5f61473d60228361457b565b9150614748826146e3565b604082019050919050565b5f6040820190508181035f83015261476b818461458b565b9050818103602083015261477e81614731565b905092915050565b61478f81613b6c565b82525050565b7f506c656173652073656e642076616c696420636172676f20696e73757261626c5f8201527f652076616c756500000000000000000000000000000000000000000000000000602082015250565b5f6147ef60278361457b565b91506147fa82614795565b604082019050919050565b5f6040820190506148185f830184614786565b8181036020830152614829816147e3565b905092915050565b5f61483b82613b6c565b915061484683613b6c565b925082820190508082111561485e5761485d61450d565b5b92915050565b7f506c656173652073656e642076616c69642073657276696365206665650000005f82015250565b5f614898601d8361457b565b91506148a382614864565b602082019050919050565b5f6040820190506148c15f830184614786565b81810360208301526148d28161488c565b905092915050565b5f81905092915050565b5f6148ee82613cbd565b6148f881856148da565b9350614908818560208601613cd7565b80840191505092915050565b5f61491f82846148e4565b915081905092915050565b7f4e487b71000000000000000000000000000000000000000000000000000000005f52603260045260245ffd5b61496081613d3c565b82525050565b5f6060820190508181035f83015261497e818661458b565b905061498d6020830185614786565b61499a6040830184614957565b949350505050565b7f53657276696365207265717565737420697320616c72656164792063616e63655f8201527f6c6c656400000000000000000000000000000000000000000000000000000000602082015250565b5f6149fc60248361457b565b9150614a07826149a2565b604082019050919050565b5f6040820190508181035f830152614a2a818461458b565b90508181036020830152614a3d816149f0565b905092915050565b7f4f6e6c7920736869707065722063616e207570646174652074686520737461745f8201527f7573000000000000000000000000000000000000000000000000000000000000602082015250565b5f614a9f60228361457b565b9150614aaa82614a45565b604082019050919050565b5f6040820190508181035f830152614acd818461458b565b90508181036020830152614ae081614a93565b905092915050565b7f55706461746564207365727669636520726571756573742073756363657373665f8201527f756c6c7900000000000000000000000000000000000000000000000000000000602082015250565b5f614b4260248361457b565b9150614b4d82614ae8565b604082019050919050565b5f6040820190508181035f830152614b70818461458b565b90508181036020830152614b8381614b36565b905092915050565b7f52454144595f464f525f5049434b55502043616e206f6e6c79206265207570645f8201527f61746564206f6e6365206472697665722069732061737369676e656400000000602082015250565b5f614be5603c8361457b565b9150614bf082614b8b565b604082019050919050565b5f6040820190508181035f830152614c13818461458b565b90508181036020830152614c2681614bd9565b905092915050565b7f596f7520646f6e277420686176652061636365737320746f20766965772073655f8201527f7276696365207265717565737420696e666f0000000000000000000000000000602082015250565b5f614c8860328361457b565b9150614c9382614c2e565b604082019050919050565b5f6040820190508181035f830152614cb6818461458b565b90508181036020830152614cc981614c7c565b905092915050565b7f536572766963652052657175657374206973206e6f7420696e204452414654205f8201527f7374617475730000000000000000000000000000000000000000000000000000602082015250565b5f614d2b60268361457b565b9150614d3682614cd1565b604082019050919050565b5f6040820190508181035f830152614d59818461458b565b90508181036020830152614d6c81614d1f565b905092915050565b7f4e487b71000000000000000000000000000000000000000000000000000000005f52602260045260245ffd5b5f6002820490506001821680614db857607f821691505b602082108103614dcb57614dca614d74565b5b50919050565b5f614ddb82613b6c565b91507fffffffffffffffffffffffffffffffffffffffffffffffffffffffffffffffff8203614e0d57614e0c61450d565b5b600182019050919050565b7f4f6e6c792061737369676e6564206472697665722063616e20757064617465205f8201527f7468652073746174757300000000000000000000000000000000000000000000602082015250565b5f614e72602a8361457b565b9150614e7d82614e18565b604082019050919050565b5f6040820190508181035f830152614ea0818461458b565b90508181036020830152614eb381614e66565b905092915050565b7f4452495645525f415252495645445f41545f4f524947494e20737461747573205f8201527f63616e206f6e6c792062652075706461746564207768656e2052454144595f4660208201527f4f525f5049434b55502073746174757300000000000000000000000000000000604082015250565b5f614f3b60508361457b565b9150614f4682614ebb565b606082019050919050565b5f6040820190508181035f830152614f69818461458b565b90508181036020830152614f7c81614f2f565b905092915050565b7f50415243454c5f5049434b45445f5550207374617475732063616e206f6e6c795f8201527f2062652075706461746564207768656e204452495645525f415252495645445f60208201527f41545f4f524947494e2073746174757300000000000000000000000000000000604082015250565b5f61500460508361457b565b915061500f82614f84565b606082019050919050565b5f6040820190508181035f830152615032818461458b565b9050818103602083015261504581614ff8565b905092915050565b7f4f55545f464f525f44454c4956455259207374617475732063616e206f6e6c795f8201527f2062652075706461746564207768656e2050415243454c5f5049434b45445f5560208201527f5020737461747573000000000000000000000000000000000000000000000000604082015250565b5f6150cd60488361457b565b91506150d88261504d565b606082019050919050565b5f6040820190508181035f8301526150fb818461458b565b9050818103602083015261510e816150c1565b905092915050565b7f4452495645525f415252495645445f41545f44455354494e4154494f4e2073745f8201527f617475732063616e206f6e6c792062652075706461746564207768656e204f5560208201527f545f464f525f44454c4956455259207374617475730000000000000000000000604082015250565b5f61519660558361457b565b91506151a182615116565b606082019050919050565b5f6040820190508181035f8301526151c4818461458b565b905081810360208301526151d78161518a565b905092915050565b7f4472697665722063616e206f6e6c792075706461746520737461747573203a205f8201527f4452495645525f415252495645445f41545f4f524947494e2c2050415243454c60208201527f5f5049434b45445f55502c204f55545f464f525f44454c49564552592c20445260408201527f495645525f415252495645445f41545f44455354494e4154494f4e0000000000606082015250565b5f615285607b8361457b565b9150615290826151df565b608082019050919050565b5f6040820190508181035f8301526152b3818461458b565b905081810360208301526152c681615279565b905092915050565b7f4f6e6c7920736869707065722063616e2063616e63656c6c65642074686520735f8201527f6572766963652072657175657374000000000000000000000000000000000000602082015250565b5f615328602e8361457b565b9150615333826152ce565b604082019050919050565b5f6040820190508181035f830152615356818461458b565b905081810360208301526153698161531c565b905092915050565b7f5365727669636520726571756573742063616e6e6f742062652063616e63656c5f8201527f6c65642c206173206472697665722069732061737369676e6564000000000000602082015250565b5f6153cb603a8361457b565b91506153d682615371565b604082019050919050565b5f6040820190508181035f8301526153f9818461458b565b9050818103602083015261540c816153bf565b905092915050565b5f6040820190508181035f83015261542c818561458b565b905061543b6020830184614957565b9392505050565b7f5365727669636520726571756573742063616e6e6f742062652063616e63656c5f8201527f6c65640000000000000000000000000000000000000000000000000000000000602082015250565b5f61549c60238361457b565b91506154a782615442565b604082019050919050565b5f6040820190508181035f8301526154ca818461458b565b905081810360208301526154dd81615490565b905092915050565b5f819050815f5260205f209050919050565b5f6020601f8301049050919050565b5f82821b905092915050565b5f600883026155417fffffffffffffffffffffffffffffffffffffffffffffffffffffffffffffffff82615506565b61554b8683615506565b95508019841693508086168417925050509392505050565b5f819050919050565b5f61558661558161557c84613b6c565b615563565b613b6c565b9050919050565b5f819050919050565b61559f8361556c565b6155b36155ab8261558d565b848454615512565b825550505050565b5f90565b6155c76155bb565b6155d2818484615596565b505050565b5b818110156155f5576155ea5f826155bf565b6001810190506155d8565b5050565b601f82111561563a5761560b816154e5565b615614846154f7565b81016020851015615623578190505b61563761562f856154f7565b8301826155d7565b50505b505050565b5f82821c905092915050565b5f61565a5f198460080261563f565b1980831691505092915050565b5f615672838361564b565b9150826002028217905092915050565b61568b82613cbd565b67ffffffffffffffff8111156156a4576156a3613a48565b5b6156ae8254614da1565b6156b98282856155f9565b5f60209050601f8311600181146156ea575f84156156d8578287015190505b6156e28582615667565b865550615749565b601f1984166156f8866154e5565b5f5b8281101561571f578489015182556001820191506020850194506020810190506156fa565b8683101561573c5784890151615738601f89168261564b565b8355505b6001600288020188555050505b505050505050565b7f53657276696365205265717565737420637265617465642073756363657373665f8201527f756c6c7900000000000000000000000000000000000000000000000000000000602082015250565b5f6157ab60248361457b565b91506157b682615751565b604082019050919050565b5f6040820190508181035f8301526157d98184613df6565b905081810360208301526157ec8161579f565b905092915050565b7f4f6e6c792072656365697665722063616e2075706461746520746865207374615f8201527f7475730000000000000000000000000000000000000000000000000000000000602082015250565b5f61584e60238361457b565b9150615859826157f4565b604082019050919050565b5f6040820190508181035f83015261587c818461458b565b9050818103602083015261588f81615842565b905092915050565b7f44726976657220686173206e6f7420726561636865642061742064657374696e5f8201527f6174696f6e207965742c2063616e6e6f7420757064617465207374617475732060208201527f746f2044454c4956455245440000000000000000000000000000000000000000604082015250565b5f615917604c8361457b565b915061592282615897565b606082019050919050565b5f6040820190508181035f830152615945818461458b565b905081810360208301526159588161590b565b905092915050565b6002811061597157615970613d83565b5b50565b5f81905061598182615960565b919050565b5f61599082615974565b9050919050565b6159a081615986565b82525050565b5f6060820190506159b95f830186614957565b6159c66020830185614786565b6159d36040830184615997565b949350505050565b7f52656365697665722063616e206f6e6c792075706461746520737461747573205f8201527f3a2044454c495645524544000000000000000000000000000000000000000000602082015250565b5f615a35602b8361457b565b9150615a40826159db565b604082019050919050565b5f6040820190508181035f830152615a63818461458b565b90508181036020830152615a7681615a29565b905092915050565b7f41756374696f6e207374696c6c20696e70726f677265737300000000000000005f82015250565b5f615ab260188361457b565b9150615abd82615a7e565b602082019050919050565b5f6040820190508181035f830152615ae0818461458b565b90508181036020830152615af381615aa6565b905092915050565b7f496e637265617365642061756374696f6e2074696d6520666f722073657276695f8201527f636520726571756573742062792035206d696e75746573000000000000000000602082015250565b5f615b5560378361457b565b9150615b6082615afb565b604082019050919050565b5f6040820190508181035f830152615b83818461458b565b90508181036020830152615b9681615b49565b905092915050565b7f596f75206861766520776f6e207468652061756374696f6e00000000000000005f82015250565b5f615bd260188361457b565b9150615bdd82615b9e565b602082019050919050565b5f6040820190508181035f830152615c00818461458b565b90508181036020830152615c1381615bc6565b905092915050565b5f82825260208201905092915050565b5f8154615c3781614da1565b615c418186615c1b565b9450600182165f8114615c5b5760018114615c7157615ca3565b60ff198316865281151560200286019350615ca3565b615c7a856154e5565b5f5b83811015615c9b57815481890152600182019150602081019050615c7c565b808801955050505b50505092915050565b5f615cb682613cbd565b615cc08185615c1b565b9350615cd0818560208601613cd7565b615cd981613a38565b840191505092915050565b5f6040820190508181035f830152615cfc8185615c2b565b90508181036020830152615d108184615cac565b90509392505050565b5f8115159050919050565b615d2d81615d19565b8114615d37575f80fd5b50565b5f81519050615d4881615d24565b92915050565b5f60208284031215615d6357615d62613a28565b5b5f615d7084828501615d3a565b91505092915050565b7f53657276696365207265717565737420646f6573206e6f7420657869737473005f82015250565b5f615dad601f8361457b565b9150615db882615d79565b602082019050919050565b5f6040820190508181035f830152615ddb818461458b565b90508181036020830152615dee81615da1565b905092915050565b7f596f75206861766520616c72656164792062696464656420666f7220746869735f8201527f2073657276696365207265717565737400000000000000000000000000000000602082015250565b5f615e5060308361457b565b9150615e5b82615df6565b604082019050919050565b5f604082019050615e795f830184614957565b8181036020830152615e8a81615e44565b905092915050565b7f456d707479206465736372697074696f6e2076616c75650000000000000000005f82015250565b5f615ec660178361457b565b9150615ed182615e92565b602082019050919050565b5f6040820190508181035f830152615ef4818461458b565b90508181036020830152615f0781615eba565b905092915050565b7f436172676f20696e737572616e63652076616c7565206e6f742076616c6964005f82015250565b5f615f43601f8361457b565b9150615f4e82615f0f565b602082019050919050565b5f604082019050615f6c5f830184614786565b8181036020830152615f7d81615f37565b905092915050565b7f536572766963652076616c7565206e6f742076616c69640000000000000000005f82015250565b5f615fb960178361457b565b9150615fc482615f85565b602082019050919050565b5f604082019050615fe25f830184614786565b8181036020830152615ff381615fad565b905092915050565b5f819050919050565b61601561601082613b6c565b615ffb565b82525050565b5f819050919050565b5f819050919050565b61603e6160398261601b565b616024565b82525050565b5f61604f8286616004565b60208201915061605f828561602d565b60208201915061606f8284616004565b602082019150819050949350505050565b7f4e487b71000000000000000000000000000000000000000000000000000000005f52601260045260245ffd5b5f6160b782613b6c565b91506160c283613b6c565b9250826160d2576160d1616080565b5b828206905092915050565b7f596f75206c6f7374207468652061756374696f6e2121000000000000000000005f82015250565b5f61611160168361457b565b915061611c826160dd565b602082019050919050565b5f6040820190508181035f83015261613f818461458b565b9050818103602083015261615281616105565b905092915050565b5f60608201905061616d5f830186614957565b61617a6020830185614957565b6161876040830184614786565b949350505050565b7f596f752061726520616c726561647920726566756e64656420666f72207468695f8201527f7320736572766963652072657175657374000000000000000000000000000000602082015250565b5f6161e960318361457b565b91506161f48261618f565b604082019050919050565b5f6040820190508181035f830152616217818461458b565b9050818103602083015261622a816161dd565b905092915050565b7f596f752068617665206e6f742062696464656420666f722074686973207365725f8201527f7669636520726571756573740000000000000000000000000000000000000000602082015250565b5f61628c602c8361457b565b915061629782616232565b604082019050919050565b5f6040820190508181035f8301526162ba818461458b565b905081810360208301526162cd81616280565b905092915050565b6162de81613d5c565b82525050565b7f456e7465722076616c6964206c6174697475646520636f6f7264696e617465735f82015250565b5f61631860208361457b565b9150616323826162e4565b602082019050919050565b5f6060820190506163415f8301856162d5565b61634e60208301846162d5565b818103604083015261635f8161630c565b90509392505050565b7f456e7465722076616c6964206c6f6e67697475646520636f6f7264696e6174655f8201527f7300000000000000000000000000000000000000000000000000000000000000602082015250565b5f6163c260218361457b565b91506163cd82616368565b604082019050919050565b5f6060820190506163eb5f8301856162d5565b6163f860208301846162d5565b8181036040830152616409816163b6565b90509392505050565b7f47656f486173682063616e6e6f7420626520656d7074790000000000000000005f82015250565b5f61644660178361457b565b915061645182616412565b602082019050919050565b5f6040820190508181035f830152616474818461458b565b905081810360208301526164878161643a565b905092915050565b7f506c656173652070726f766964652076616c69642061756374696f6e2074696d5f8201527f6500000000000000000000000000000000000000000000000000000000000000602082015250565b5f6164e960218361457b565b91506164f48261648f565b604082019050919050565b5f6040820190506165125f830184614786565b8181036020830152616523816164dd565b905092915050565b7f52657175657374207069636b75702074696d65206d75737420626520696e20745f8201527f6865206675747572650000000000000000000000000000000000000000000000602082015250565b5f61658560298361457b565b91506165908261652b565b604082019050919050565b5f6040820190506165ae5f830184614786565b81810360208301526165bf81616579565b905092915050565b7f526571756573742064656c69766572792074696d65206d75737420626520696e5f8201527f2074686520667574757265000000000000000000000000000000000000000000602082015250565b5f616621602b8361457b565b915061662c826165c7565b604082019050919050565b5f60408201905061664a5f830184614786565b818103602083015261665b81616615565b905092915050565b7f5265717565737465642064656c69766572792074696d65206d757374206265205f8201527f616674657220726571756573746564207069636b75702074696d650000000000602082015250565b5f6166bd603b8361457b565b91506166c882616663565b604082019050919050565b5f6040820190506166e65f830184614786565b81810360208301526166f7816166b1565b90509291505056fe6162636465666768696a6b6c6d6e6f707172737475767778797a4142434445464748494a4b4c4d4e4f505152535455565758595a30313233343536373839a26469706673582212200b3ec5ff0ba27db80c3f8dde77a585a3ba09e569813d2a759d9a0b1f57deb08964736f6c63430008190033",
			"opcodes": "PUSH1 0xA0 PUSH1 0x40 MSTORE CALLVALUE DUP1 ISZERO PUSH2 0xF JUMPI PUSH0 DUP1 REVERT JUMPDEST POP PUSH1 0x40 MLOAD PUSH2 0x6886 CODESIZE SUB DUP1 PUSH2 0x6886 DUP4 CODECOPY DUP2 DUP2 ADD PUSH1 0x40 MSTORE DUP2 ADD SWAP1 PUSH2 0x31 SWAP2 SWAP1 PUSH2 0xC9 JUMP JUMPDEST DUP1 PUSH20 0xFFFFFFFFFFFFFFFFFFFFFFFFFFFFFFFFFFFFFFFF AND PUSH1 0x80 DUP2 PUSH20 0xFFFFFFFFFFFFFFFFFFFFFFFFFFFFFFFFFFFFFFFF AND DUP2 MSTORE POP POP POP PUSH2 0xF4 JUMP JUMPDEST PUSH0 DUP1 REVERT JUMPDEST PUSH0 PUSH20 0xFFFFFFFFFFFFFFFFFFFFFFFFFFFFFFFFFFFFFFFF DUP3 AND SWAP1 POP SWAP2 SWAP1 POP JUMP JUMPDEST PUSH0 PUSH2 0x98 DUP3 PUSH2 0x6F JUMP JUMPDEST SWAP1 POP SWAP2 SWAP1 POP JUMP JUMPDEST PUSH2 0xA8 DUP2 PUSH2 0x8E JUMP JUMPDEST DUP2 EQ PUSH2 0xB2 JUMPI PUSH0 DUP1 REVERT JUMPDEST POP JUMP JUMPDEST PUSH0 DUP2 MLOAD SWAP1 POP PUSH2 0xC3 DUP2 PUSH2 0x9F JUMP JUMPDEST SWAP3 SWAP2 POP POP JUMP JUMPDEST PUSH0 PUSH1 0x20 DUP3 DUP5 SUB SLT ISZERO PUSH2 0xDE JUMPI PUSH2 0xDD PUSH2 0x6B JUMP JUMPDEST JUMPDEST PUSH0 PUSH2 0xEB DUP5 DUP3 DUP6 ADD PUSH2 0xB5 JUMP JUMPDEST SWAP2 POP POP SWAP3 SWAP2 POP POP JUMP JUMPDEST PUSH1 0x80 MLOAD PUSH2 0x6773 PUSH2 0x113 PUSH0 CODECOPY PUSH0 DUP2 DUP2 PUSH2 0x2621 ADD MSTORE PUSH2 0x2705 ADD MSTORE PUSH2 0x6773 PUSH0 RETURN INVALID PUSH1 0x80 PUSH1 0x40 MSTORE PUSH1 0x4 CALLDATASIZE LT PUSH2 0x9B JUMPI PUSH0 CALLDATALOAD PUSH1 0xE0 SHR DUP1 PUSH4 0x7A335CEF GT PUSH2 0x63 JUMPI DUP1 PUSH4 0x7A335CEF EQ PUSH2 0x183 JUMPI DUP1 PUSH4 0x816C2CB7 EQ PUSH2 0x1AB JUMPI DUP1 PUSH4 0x8879A530 EQ PUSH2 0x1D3 JUMPI DUP1 PUSH4 0xC2DA97BA EQ PUSH2 0x1FD JUMPI DUP1 PUSH4 0xC928FD1D EQ PUSH2 0x219 JUMPI DUP1 PUSH4 0xEF693B98 EQ PUSH2 0x241 JUMPI PUSH2 0x9B JUMP JUMPDEST DUP1 PUSH4 0x12B28B3C EQ PUSH2 0x9F JUMPI DUP1 PUSH4 0x1821FB39 EQ PUSH2 0xBB JUMPI DUP1 PUSH4 0x5B664FCB EQ PUSH2 0xE3 JUMPI DUP1 PUSH4 0x750E0ABD EQ PUSH2 0x11F JUMPI DUP1 PUSH4 0x7A1CF72F EQ PUSH2 0x147 JUMPI JUMPDEST PUSH0 DUP1 REVERT JUMPDEST PUSH2 0xB9 PUSH1 0x4 DUP1 CALLDATASIZE SUB DUP2 ADD SWAP1 PUSH2 0xB4 SWAP2 SWAP1 PUSH2 0x3B9F JUMP JUMPDEST PUSH2 0x269 JUMP JUMPDEST STOP JUMPDEST CALLVALUE DUP1 ISZERO PUSH2 0xC6 JUMPI PUSH0 DUP1 REVERT JUMPDEST POP PUSH2 0xE1 PUSH1 0x4 DUP1 CALLDATASIZE SUB DUP2 ADD SWAP1 PUSH2 0xDC SWAP2 SWAP1 PUSH2 0x3C1C JUMP JUMPDEST PUSH2 0x763 JUMP JUMPDEST STOP JUMPDEST CALLVALUE DUP1 ISZERO PUSH2 0xEE JUMPI PUSH0 DUP1 REVERT JUMPDEST POP PUSH2 0x109 PUSH1 0x4 DUP1 CALLDATASIZE SUB DUP2 ADD SWAP1 PUSH2 0x104 SWAP2 SWAP1 PUSH2 0x3C76 JUMP JUMPDEST PUSH2 0x98B JUMP JUMPDEST PUSH1 0x40 MLOAD PUSH2 0x116 SWAP2 SWAP1 PUSH2 0x3F8A JUMP JUMPDEST PUSH1 0x40 MLOAD DUP1 SWAP2 SUB SWAP1 RETURN JUMPDEST CALLVALUE DUP1 ISZERO PUSH2 0x12A JUMPI PUSH0 DUP1 REVERT JUMPDEST POP PUSH2 0x145 PUSH1 0x4 DUP1 CALLDATASIZE SUB DUP2 ADD SWAP1 PUSH2 0x140 SWAP2 SWAP1 PUSH2 0x3C76 JUMP JUMPDEST PUSH2 0xAA4 JUMP JUMPDEST STOP JUMPDEST CALLVALUE DUP1 ISZERO PUSH2 0x152 JUMPI PUSH0 DUP1 REVERT JUMPDEST POP PUSH2 0x16D PUSH1 0x4 DUP1 CALLDATASIZE SUB DUP2 ADD SWAP1 PUSH2 0x168 SWAP2 SWAP1 PUSH2 0x3C76 JUMP JUMPDEST PUSH2 0xBE4 JUMP JUMPDEST PUSH1 0x40 MLOAD PUSH2 0x17A SWAP2 SWAP1 PUSH2 0x41F9 JUMP JUMPDEST PUSH1 0x40 MLOAD DUP1 SWAP2 SUB SWAP1 RETURN JUMPDEST CALLVALUE DUP1 ISZERO PUSH2 0x18E JUMPI PUSH0 DUP1 REVERT JUMPDEST POP PUSH2 0x1A9 PUSH1 0x4 DUP1 CALLDATASIZE SUB DUP2 ADD SWAP1 PUSH2 0x1A4 SWAP2 SWAP1 PUSH2 0x3C1C JUMP JUMPDEST PUSH2 0x11AA JUMP JUMPDEST STOP JUMPDEST CALLVALUE DUP1 ISZERO PUSH2 0x1B6 JUMPI PUSH0 DUP1 REVERT JUMPDEST POP PUSH2 0x1D1 PUSH1 0x4 DUP1 CALLDATASIZE SUB DUP2 ADD SWAP1 PUSH2 0x1CC SWAP2 SWAP1 PUSH2 0x3C76 JUMP JUMPDEST PUSH2 0x1782 JUMP JUMPDEST STOP JUMPDEST CALLVALUE DUP1 ISZERO PUSH2 0x1DE JUMPI PUSH0 DUP1 REVERT JUMPDEST POP PUSH2 0x1E7 PUSH2 0x1A0F JUMP JUMPDEST PUSH1 0x40 MLOAD PUSH2 0x1F4 SWAP2 SWAP1 PUSH2 0x41F9 JUMP JUMPDEST PUSH1 0x40 MLOAD DUP1 SWAP2 SUB SWAP1 RETURN JUMPDEST PUSH2 0x217 PUSH1 0x4 DUP1 CALLDATASIZE SUB DUP2 ADD SWAP1 PUSH2 0x212 SWAP2 SWAP1 PUSH2 0x4437 JUMP JUMPDEST PUSH2 0x2026 JUMP JUMPDEST STOP JUMPDEST CALLVALUE DUP1 ISZERO PUSH2 0x224 JUMPI PUSH0 DUP1 REVERT JUMPDEST POP PUSH2 0x23F PUSH1 0x4 DUP1 CALLDATASIZE SUB DUP2 ADD SWAP1 PUSH2 0x23A SWAP2 SWAP1 PUSH2 0x44A1 JUMP JUMPDEST PUSH2 0x2405 JUMP JUMPDEST STOP JUMPDEST CALLVALUE DUP1 ISZERO PUSH2 0x24C JUMPI PUSH0 DUP1 REVERT JUMPDEST POP PUSH2 0x267 PUSH1 0x4 DUP1 CALLDATASIZE SUB DUP2 ADD SWAP1 PUSH2 0x262 SWAP2 SWAP1 PUSH2 0x3C76 JUMP JUMPDEST PUSH2 0x281A JUMP JUMPDEST STOP JUMPDEST CALLER PUSH0 PUSH2 0x274 DUP5 PUSH2 0x2A66 JUMP JUMPDEST SWAP1 POP PUSH0 DUP2 PUSH0 ADD MLOAD SWAP1 POP PUSH0 DUP3 PUSH1 0x20 ADD MLOAD SWAP1 POP PUSH8 0xDE0B6B3A7640000 DUP6 PUSH2 0x299 SWAP2 SWAP1 PUSH2 0x453A JUMP JUMPDEST SWAP5 POP PUSH0 PUSH1 0xA DUP2 GT ISZERO PUSH2 0x2AE JUMPI PUSH2 0x2AD PUSH2 0x3D83 JUMP JUMPDEST JUMPDEST DUP3 PUSH2 0x220 ADD MLOAD PUSH1 0xA DUP2 GT ISZERO PUSH2 0x2C6 JUMPI PUSH2 0x2C5 PUSH2 0x3D83 JUMP JUMPDEST JUMPDEST EQ PUSH2 0x308 JUMPI DUP6 PUSH1 0x40 MLOAD PUSH32 0x67695D9700000000000000000000000000000000000000000000000000000000 DUP2 MSTORE PUSH1 0x4 ADD PUSH2 0x2FF SWAP2 SWAP1 PUSH2 0x4633 JUMP JUMPDEST PUSH1 0x40 MLOAD DUP1 SWAP2 SUB SWAP1 REVERT JUMPDEST DUP2 PUSH2 0x1E0 ADD MLOAD TIMESTAMP LT PUSH2 0x351 JUMPI DUP6 PUSH1 0x40 MLOAD PUSH32 0xAEA2EAD800000000000000000000000000000000000000000000000000000000 DUP2 MSTORE PUSH1 0x4 ADD PUSH2 0x348 SWAP2 SWAP1 PUSH2 0x46B0 JUMP JUMPDEST PUSH1 0x40 MLOAD DUP1 SWAP2 SUB SWAP1 REVERT JUMPDEST PUSH0 PUSH2 0x35B CALLER PUSH2 0x2F94 JUMP JUMPDEST SWAP1 POP PUSH2 0x36C DUP2 DUP5 PUSH2 0x100 ADD MLOAD PUSH2 0x2FAC JUMP JUMPDEST ISZERO DUP1 PUSH2 0x384 JUMPI POP PUSH2 0x382 DUP2 DUP5 PUSH2 0x120 ADD MLOAD PUSH2 0x2FAC JUMP JUMPDEST ISZERO JUMPDEST ISZERO PUSH2 0x3C6 JUMPI DUP7 PUSH1 0x40 MLOAD PUSH32 0x9D8F3D300000000000000000000000000000000000000000000000000000000 DUP2 MSTORE PUSH1 0x4 ADD PUSH2 0x3BD SWAP2 SWAP1 PUSH2 0x4753 JUMP JUMPDEST PUSH1 0x40 MLOAD DUP1 SWAP2 SUB SWAP1 REVERT JUMPDEST PUSH8 0xDE0B6B3A7640000 DUP4 PUSH2 0x140 ADD MLOAD PUSH2 0x3DF SWAP2 SWAP1 PUSH2 0x453A JUMP JUMPDEST CALLVALUE EQ PUSH2 0x422 JUMPI CALLVALUE PUSH1 0x40 MLOAD PUSH32 0x6189D10400000000000000000000000000000000000000000000000000000000 DUP2 MSTORE PUSH1 0x4 ADD PUSH2 0x419 SWAP2 SWAP1 PUSH2 0x4805 JUMP JUMPDEST PUSH1 0x40 MLOAD DUP1 SWAP2 SUB SWAP1 REVERT JUMPDEST PUSH0 DUP7 GT ISZERO DUP1 PUSH2 0x464 JUMPI POP PUSH8 0xDE0B6B3A7640000 DUP4 PUSH2 0x140 ADD MLOAD PUSH2 0x445 SWAP2 SWAP1 PUSH2 0x453A JUMP JUMPDEST DUP4 PUSH2 0x160 ADD MLOAD PUSH2 0x455 SWAP2 SWAP1 PUSH2 0x4831 JUMP JUMPDEST CALLVALUE DUP8 PUSH2 0x461 SWAP2 SWAP1 PUSH2 0x4831 JUMP JUMPDEST LT ISZERO JUMPDEST ISZERO PUSH2 0x4A6 JUMPI DUP6 PUSH1 0x40 MLOAD PUSH32 0xE71C06BD00000000000000000000000000000000000000000000000000000000 DUP2 MSTORE PUSH1 0x4 ADD PUSH2 0x49D SWAP2 SWAP1 PUSH2 0x48AE JUMP JUMPDEST PUSH1 0x40 MLOAD DUP1 SWAP2 SUB SWAP1 REVERT JUMPDEST PUSH0 PUSH1 0x1 DUP9 PUSH1 0x40 MLOAD PUSH2 0x4B7 SWAP2 SWAP1 PUSH2 0x4914 JUMP JUMPDEST SWAP1 DUP2 MSTORE PUSH1 0x20 ADD PUSH1 0x40 MLOAD DUP1 SWAP2 SUB SWAP1 KECCAK256 DUP1 SLOAD DUP1 PUSH1 0x20 MUL PUSH1 0x20 ADD PUSH1 0x40 MLOAD SWAP1 DUP2 ADD PUSH1 0x40 MSTORE DUP1 SWAP3 SWAP2 SWAP1 DUP2 DUP2 MSTORE PUSH1 0x20 ADD PUSH0 SWAP1 JUMPDEST DUP3 DUP3 LT ISZERO PUSH2 0x58D JUMPI DUP4 DUP3 SWAP1 PUSH0 MSTORE PUSH1 0x20 PUSH0 KECCAK256 SWAP1 PUSH1 0x2 MUL ADD PUSH1 0x40 MLOAD DUP1 PUSH1 0x60 ADD PUSH1 0x40 MSTORE SWAP1 DUP2 PUSH0 DUP3 ADD SLOAD DUP2 MSTORE PUSH1 0x20 ADD PUSH1 0x1 DUP3 ADD PUSH0 SWAP1 SLOAD SWAP1 PUSH2 0x100 EXP SWAP1 DIV PUSH20 0xFFFFFFFFFFFFFFFFFFFFFFFFFFFFFFFFFFFFFFFF AND PUSH20 0xFFFFFFFFFFFFFFFFFFFFFFFFFFFFFFFFFFFFFFFF AND PUSH20 0xFFFFFFFFFFFFFFFFFFFFFFFFFFFFFFFFFFFFFFFF AND DUP2 MSTORE PUSH1 0x20 ADD PUSH1 0x1 DUP3 ADD PUSH1 0x14 SWAP1 SLOAD SWAP1 PUSH2 0x100 EXP SWAP1 DIV PUSH1 0xFF AND ISZERO ISZERO ISZERO ISZERO DUP2 MSTORE POP POP DUP2 MSTORE PUSH1 0x20 ADD SWAP1 PUSH1 0x1 ADD SWAP1 PUSH2 0x4E4 JUMP JUMPDEST POP POP POP POP SWAP1 POP PUSH2 0x59D CALLER DUP3 PUSH2 0x307F JUMP JUMPDEST PUSH0 PUSH1 0x40 MLOAD DUP1 PUSH1 0x60 ADD PUSH1 0x40 MSTORE DUP1 DUP10 DUP2 MSTORE PUSH1 0x20 ADD CALLER PUSH20 0xFFFFFFFFFFFFFFFFFFFFFFFFFFFFFFFFFFFFFFFF AND DUP2 MSTORE PUSH1 0x20 ADD PUSH0 ISZERO ISZERO DUP2 MSTORE POP SWAP1 POP PUSH1 0x1 DUP10 PUSH1 0x40 MLOAD PUSH2 0x5E3 SWAP2 SWAP1 PUSH2 0x4914 JUMP JUMPDEST SWAP1 DUP2 MSTORE PUSH1 0x20 ADD PUSH1 0x40 MLOAD DUP1 SWAP2 SUB SWAP1 KECCAK256 DUP2 SWAP1 DUP1 PUSH1 0x1 DUP2 SLOAD ADD DUP1 DUP3 SSTORE DUP1 SWAP2 POP POP PUSH1 0x1 SWAP1 SUB SWAP1 PUSH0 MSTORE PUSH1 0x20 PUSH0 KECCAK256 SWAP1 PUSH1 0x2 MUL ADD PUSH0 SWAP1 SWAP2 SWAP1 SWAP2 SWAP1 SWAP2 POP PUSH0 DUP3 ADD MLOAD DUP2 PUSH0 ADD SSTORE PUSH1 0x20 DUP3 ADD MLOAD DUP2 PUSH1 0x1 ADD PUSH0 PUSH2 0x100 EXP DUP2 SLOAD DUP2 PUSH20 0xFFFFFFFFFFFFFFFFFFFFFFFFFFFFFFFFFFFFFFFF MUL NOT AND SWAP1 DUP4 PUSH20 0xFFFFFFFFFFFFFFFFFFFFFFFFFFFFFFFFFFFFFFFF AND MUL OR SWAP1 SSTORE POP PUSH1 0x40 DUP3 ADD MLOAD DUP2 PUSH1 0x1 ADD PUSH1 0x14 PUSH2 0x100 EXP DUP2 SLOAD DUP2 PUSH1 0xFF MUL NOT AND SWAP1 DUP4 ISZERO ISZERO MUL OR SWAP1 SSTORE POP POP POP DUP5 PUSH2 0x160 ADD MLOAD DUP9 LT ISZERO PUSH2 0x71D JUMPI DUP8 PUSH0 DUP6 DUP2 SLOAD DUP2 LT PUSH2 0x6A9 JUMPI PUSH2 0x6A8 PUSH2 0x492A JUMP JUMPDEST JUMPDEST SWAP1 PUSH0 MSTORE PUSH1 0x20 PUSH0 KECCAK256 SWAP1 PUSH1 0x11 MUL ADD PUSH1 0xC ADD DUP2 SWAP1 SSTORE POP CALLER PUSH0 DUP6 DUP2 SLOAD DUP2 LT PUSH2 0x6D0 JUMPI PUSH2 0x6CF PUSH2 0x492A JUMP JUMPDEST JUMPDEST SWAP1 PUSH0 MSTORE PUSH1 0x20 PUSH0 KECCAK256 SWAP1 PUSH1 0x11 MUL ADD PUSH1 0x10 ADD PUSH0 PUSH2 0x100 EXP DUP2 SLOAD DUP2 PUSH20 0xFFFFFFFFFFFFFFFFFFFFFFFFFFFFFFFFFFFFFFFF MUL NOT AND SWAP1 DUP4 PUSH20 0xFFFFFFFFFFFFFFFFFFFFFFFFFFFFFFFFFFFFFFFF AND MUL OR SWAP1 SSTORE POP JUMPDEST PUSH32 0xDD9FD5BB4EB2D26BCCEA7B9F6658C73CB8FF9A8F5C7158EB72845B523213B5DE DUP10 DUP10 CALLER PUSH1 0x40 MLOAD PUSH2 0x750 SWAP4 SWAP3 SWAP2 SWAP1 PUSH2 0x4966 JUMP JUMPDEST PUSH1 0x40 MLOAD DUP1 SWAP2 SUB SWAP1 LOG1 POP POP POP POP POP POP POP POP POP JUMP JUMPDEST PUSH0 PUSH2 0x76D DUP4 PUSH2 0x2A66 JUMP JUMPDEST SWAP1 POP PUSH0 DUP2 PUSH0 ADD MLOAD SWAP1 POP PUSH0 DUP3 PUSH1 0x20 ADD MLOAD SWAP1 POP PUSH1 0xA DUP1 DUP2 GT ISZERO PUSH2 0x791 JUMPI PUSH2 0x790 PUSH2 0x3D83 JUMP JUMPDEST JUMPDEST DUP3 PUSH2 0x220 ADD MLOAD PUSH1 0xA DUP2 GT ISZERO PUSH2 0x7A9 JUMPI PUSH2 0x7A8 PUSH2 0x3D83 JUMP JUMPDEST JUMPDEST SUB PUSH2 0x7EB JUMPI DUP5 PUSH1 0x40 MLOAD PUSH32 0x48B3CCEC00000000000000000000000000000000000000000000000000000000 DUP2 MSTORE PUSH1 0x4 ADD PUSH2 0x7E2 SWAP2 SWAP1 PUSH2 0x4A12 JUMP JUMPDEST PUSH1 0x40 MLOAD DUP1 SWAP2 SUB SWAP1 REVERT JUMPDEST DUP2 PUSH1 0x40 ADD MLOAD PUSH20 0xFFFFFFFFFFFFFFFFFFFFFFFFFFFFFFFFFFFFFFFF AND CALLER PUSH20 0xFFFFFFFFFFFFFFFFFFFFFFFFFFFFFFFFFFFFFFFF AND EQ PUSH2 0x85F JUMPI DUP5 PUSH1 0x40 MLOAD PUSH32 0x48B3CCEC00000000000000000000000000000000000000000000000000000000 DUP2 MSTORE PUSH1 0x4 ADD PUSH2 0x856 SWAP2 SWAP1 PUSH2 0x4AB5 JUMP JUMPDEST PUSH1 0x40 MLOAD DUP1 SWAP2 SUB SWAP1 REVERT JUMPDEST PUSH1 0x3 PUSH1 0xA DUP2 GT ISZERO PUSH2 0x873 JUMPI PUSH2 0x872 PUSH2 0x3D83 JUMP JUMPDEST JUMPDEST DUP5 PUSH1 0xA DUP2 GT ISZERO PUSH2 0x886 JUMPI PUSH2 0x885 PUSH2 0x3D83 JUMP JUMPDEST JUMPDEST EQ DUP1 ISZERO PUSH2 0x8BC JUMPI POP PUSH1 0x2 PUSH1 0xA DUP2 GT ISZERO PUSH2 0x8A2 JUMPI PUSH2 0x8A1 PUSH2 0x3D83 JUMP JUMPDEST JUMPDEST DUP3 PUSH2 0x220 ADD MLOAD PUSH1 0xA DUP2 GT ISZERO PUSH2 0x8BA JUMPI PUSH2 0x8B9 PUSH2 0x3D83 JUMP JUMPDEST JUMPDEST EQ JUMPDEST ISZERO PUSH2 0x947 JUMPI DUP4 PUSH0 DUP3 DUP2 SLOAD DUP2 LT PUSH2 0x8D5 JUMPI PUSH2 0x8D4 PUSH2 0x492A JUMP JUMPDEST JUMPDEST SWAP1 PUSH0 MSTORE PUSH1 0x20 PUSH0 KECCAK256 SWAP1 PUSH1 0x11 MUL ADD PUSH1 0x10 ADD PUSH1 0x14 PUSH2 0x100 EXP DUP2 SLOAD DUP2 PUSH1 0xFF MUL NOT AND SWAP1 DUP4 PUSH1 0xA DUP2 GT ISZERO PUSH2 0x906 JUMPI PUSH2 0x905 PUSH2 0x3D83 JUMP JUMPDEST JUMPDEST MUL OR SWAP1 SSTORE POP PUSH32 0x2D9D560C99C3BC1724FC52A39A33A239E75EF98285E83DFB9AA7C87F6B5B289C DUP6 PUSH1 0x40 MLOAD PUSH2 0x93A SWAP2 SWAP1 PUSH2 0x4B58 JUMP JUMPDEST PUSH1 0x40 MLOAD DUP1 SWAP2 SUB SWAP1 LOG1 PUSH2 0x984 JUMP JUMPDEST DUP5 PUSH1 0x40 MLOAD PUSH32 0x48B3CCEC00000000000000000000000000000000000000000000000000000000 DUP2 MSTORE PUSH1 0x4 ADD PUSH2 0x97B SWAP2 SWAP1 PUSH2 0x4BFB JUMP JUMPDEST PUSH1 0x40 MLOAD DUP1 SWAP2 SUB SWAP1 REVERT JUMPDEST POP POP POP POP POP JUMP JUMPDEST PUSH2 0x993 PUSH2 0x392F JUMP JUMPDEST PUSH0 PUSH2 0x99D DUP4 PUSH2 0x2A66 JUMP JUMPDEST SWAP1 POP PUSH0 DUP2 PUSH0 ADD MLOAD SWAP1 POP PUSH0 CALLER SWAP1 POP DUP2 PUSH1 0x40 ADD MLOAD PUSH20 0xFFFFFFFFFFFFFFFFFFFFFFFFFFFFFFFFFFFFFFFF AND DUP2 PUSH20 0xFFFFFFFFFFFFFFFFFFFFFFFFFFFFFFFFFFFFFFFF AND EQ DUP1 PUSH2 0xA17 JUMPI POP DUP2 PUSH1 0x60 ADD MLOAD PUSH20 0xFFFFFFFFFFFFFFFFFFFFFFFFFFFFFFFFFFFFFFFF AND DUP2 PUSH20 0xFFFFFFFFFFFFFFFFFFFFFFFFFFFFFFFFFFFFFFFF AND EQ JUMPDEST DUP1 PUSH2 0xA52 JUMPI POP DUP2 PUSH2 0x200 ADD MLOAD PUSH20 0xFFFFFFFFFFFFFFFFFFFFFFFFFFFFFFFFFFFFFFFF AND DUP2 PUSH20 0xFFFFFFFFFFFFFFFFFFFFFFFFFFFFFFFFFFFFFFFF AND EQ JUMPDEST ISZERO PUSH2 0xA62 JUMPI DUP2 SWAP4 POP POP POP POP PUSH2 0xA9F JUMP JUMPDEST DUP5 PUSH1 0x40 MLOAD PUSH32 0x48B3CCEC00000000000000000000000000000000000000000000000000000000 DUP2 MSTORE PUSH1 0x4 ADD PUSH2 0xA96 SWAP2 SWAP1 PUSH2 0x4C9E JUMP JUMPDEST PUSH1 0x40 MLOAD DUP1 SWAP2 SUB SWAP1 REVERT JUMPDEST SWAP2 SWAP1 POP JUMP JUMPDEST CALLER PUSH0 PUSH2 0xAAF DUP4 PUSH2 0x2A66 JUMP JUMPDEST SWAP1 POP PUSH0 DUP2 PUSH0 ADD MLOAD SWAP1 POP PUSH0 DUP3 PUSH1 0x20 ADD MLOAD SWAP1 POP PUSH1 0x1 PUSH1 0xA DUP2 GT ISZERO PUSH2 0xAD4 JUMPI PUSH2 0xAD3 PUSH2 0x3D83 JUMP JUMPDEST JUMPDEST DUP3 PUSH2 0x220 ADD MLOAD PUSH1 0xA DUP2 GT ISZERO PUSH2 0xAEC JUMPI PUSH2 0xAEB PUSH2 0x3D83 JUMP JUMPDEST JUMPDEST SUB PUSH2 0xBA0 JUMPI PUSH1 0x3C PUSH0 DUP3 DUP2 SLOAD DUP2 LT PUSH2 0xB06 JUMPI PUSH2 0xB05 PUSH2 0x492A JUMP JUMPDEST JUMPDEST SWAP1 PUSH0 MSTORE PUSH1 0x20 PUSH0 KECCAK256 SWAP1 PUSH1 0x11 MUL ADD PUSH1 0xF ADD SLOAD PUSH2 0xB20 SWAP2 SWAP1 PUSH2 0x453A JUMP JUMPDEST TIMESTAMP PUSH2 0xB2B SWAP2 SWAP1 PUSH2 0x4831 JUMP JUMPDEST PUSH0 DUP3 DUP2 SLOAD DUP2 LT PUSH2 0xB3E JUMPI PUSH2 0xB3D PUSH2 0x492A JUMP JUMPDEST JUMPDEST SWAP1 PUSH0 MSTORE PUSH1 0x20 PUSH0 KECCAK256 SWAP1 PUSH1 0x11 MUL ADD PUSH1 0xF ADD DUP2 SWAP1 SSTORE POP PUSH0 DUP1 DUP3 DUP2 SLOAD DUP2 LT PUSH2 0xB65 JUMPI PUSH2 0xB64 PUSH2 0x492A JUMP JUMPDEST JUMPDEST SWAP1 PUSH0 MSTORE PUSH1 0x20 PUSH0 KECCAK256 SWAP1 PUSH1 0x11 MUL ADD PUSH1 0x10 ADD PUSH1 0x14 PUSH2 0x100 EXP DUP2 SLOAD DUP2 PUSH1 0xFF MUL NOT AND SWAP1 DUP4 PUSH1 0xA DUP2 GT ISZERO PUSH2 0xB96 JUMPI PUSH2 0xB95 PUSH2 0x3D83 JUMP JUMPDEST JUMPDEST MUL OR SWAP1 SSTORE POP PUSH2 0xBDD JUMP JUMPDEST DUP5 PUSH1 0x40 MLOAD PUSH32 0x21A3DE0A00000000000000000000000000000000000000000000000000000000 DUP2 MSTORE PUSH1 0x4 ADD PUSH2 0xBD4 SWAP2 SWAP1 PUSH2 0x4D41 JUMP JUMPDEST PUSH1 0x40 MLOAD DUP1 SWAP2 SUB SWAP1 REVERT JUMPDEST POP POP POP POP POP JUMP JUMPDEST PUSH1 0x60 PUSH0 DUP1 DUP1 SLOAD SWAP1 POP PUSH8 0xFFFFFFFFFFFFFFFF DUP2 GT ISZERO PUSH2 0xC05 JUMPI PUSH2 0xC04 PUSH2 0x3A48 JUMP JUMPDEST JUMPDEST PUSH1 0x40 MLOAD SWAP1 DUP1 DUP3 MSTORE DUP1 PUSH1 0x20 MUL PUSH1 0x20 ADD DUP3 ADD PUSH1 0x40 MSTORE DUP1 ISZERO PUSH2 0xC3E JUMPI DUP2 PUSH1 0x20 ADD JUMPDEST PUSH2 0xC2B PUSH2 0x392F JUMP JUMPDEST DUP2 MSTORE PUSH1 0x20 ADD SWAP1 PUSH1 0x1 SWAP1 SUB SWAP1 DUP2 PUSH2 0xC23 JUMPI SWAP1 POP JUMPDEST POP SWAP1 POP PUSH0 DUP1 JUMPDEST PUSH0 DUP1 SLOAD SWAP1 POP DUP2 LT ISZERO PUSH2 0x10F6 JUMPI PUSH0 DUP1 DUP3 DUP2 SLOAD DUP2 LT PUSH2 0xC64 JUMPI PUSH2 0xC63 PUSH2 0x492A JUMP JUMPDEST JUMPDEST SWAP1 PUSH0 MSTORE PUSH1 0x20 PUSH0 KECCAK256 SWAP1 PUSH1 0x11 MUL ADD PUSH1 0x40 MLOAD DUP1 PUSH2 0x240 ADD PUSH1 0x40 MSTORE SWAP1 DUP2 PUSH0 DUP3 ADD DUP1 SLOAD PUSH2 0xC8B SWAP1 PUSH2 0x4DA1 JUMP JUMPDEST DUP1 PUSH1 0x1F ADD PUSH1 0x20 DUP1 SWAP2 DIV MUL PUSH1 0x20 ADD PUSH1 0x40 MLOAD SWAP1 DUP2 ADD PUSH1 0x40 MSTORE DUP1 SWAP3 SWAP2 SWAP1 DUP2 DUP2 MSTORE PUSH1 0x20 ADD DUP3 DUP1 SLOAD PUSH2 0xCB7 SWAP1 PUSH2 0x4DA1 JUMP JUMPDEST DUP1 ISZERO PUSH2 0xD02 JUMPI DUP1 PUSH1 0x1F LT PUSH2 0xCD9 JUMPI PUSH2 0x100 DUP1 DUP4 SLOAD DIV MUL DUP4 MSTORE SWAP2 PUSH1 0x20 ADD SWAP2 PUSH2 0xD02 JUMP JUMPDEST DUP3 ADD SWAP2 SWAP1 PUSH0 MSTORE PUSH1 0x20 PUSH0 KECCAK256 SWAP1 JUMPDEST DUP2 SLOAD DUP2 MSTORE SWAP1 PUSH1 0x1 ADD SWAP1 PUSH1 0x20 ADD DUP1 DUP4 GT PUSH2 0xCE5 JUMPI DUP3 SWAP1 SUB PUSH1 0x1F AND DUP3 ADD SWAP2 JUMPDEST POP POP POP POP POP DUP2 MSTORE PUSH1 0x20 ADD PUSH1 0x1 DUP3 ADD DUP1 SLOAD PUSH2 0xD1B SWAP1 PUSH2 0x4DA1 JUMP JUMPDEST DUP1 PUSH1 0x1F ADD PUSH1 0x20 DUP1 SWAP2 DIV MUL PUSH1 0x20 ADD PUSH1 0x40 MLOAD SWAP1 DUP2 ADD PUSH1 0x40 MSTORE DUP1 SWAP3 SWAP2 SWAP1 DUP2 DUP2 MSTORE PUSH1 0x20 ADD DUP3 DUP1 SLOAD PUSH2 0xD47 SWAP1 PUSH2 0x4DA1 JUMP JUMPDEST DUP1 ISZERO PUSH2 0xD92 JUMPI DUP1 PUSH1 0x1F LT PUSH2 0xD69 JUMPI PUSH2 0x100 DUP1 DUP4 SLOAD DIV MUL DUP4 MSTORE SWAP2 PUSH1 0x20 ADD SWAP2 PUSH2 0xD92 JUMP JUMPDEST DUP3 ADD SWAP2 SWAP1 PUSH0 MSTORE PUSH1 0x20 PUSH0 KECCAK256 SWAP1 JUMPDEST DUP2 SLOAD DUP2 MSTORE SWAP1 PUSH1 0x1 ADD SWAP1 PUSH1 0x20 ADD DUP1 DUP4 GT PUSH2 0xD75 JUMPI DUP3 SWAP1 SUB PUSH1 0x1F AND DUP3 ADD SWAP2 JUMPDEST POP POP POP POP POP DUP2 MSTORE PUSH1 0x20 ADD PUSH1 0x2 DUP3 ADD PUSH0 SWAP1 SLOAD SWAP1 PUSH2 0x100 EXP SWAP1 DIV PUSH20 0xFFFFFFFFFFFFFFFFFFFFFFFFFFFFFFFFFFFFFFFF AND PUSH20 0xFFFFFFFFFFFFFFFFFFFFFFFFFFFFFFFFFFFFFFFF AND PUSH20 0xFFFFFFFFFFFFFFFFFFFFFFFFFFFFFFFFFFFFFFFF AND DUP2 MSTORE PUSH1 0x20 ADD PUSH1 0x3 DUP3 ADD PUSH0 SWAP1 SLOAD SWAP1 PUSH2 0x100 EXP SWAP1 DIV PUSH20 0xFFFFFFFFFFFFFFFFFFFFFFFFFFFFFFFFFFFFFFFF AND PUSH20 0xFFFFFFFFFFFFFFFFFFFFFFFFFFFFFFFFFFFFFFFF AND PUSH20 0xFFFFFFFFFFFFFFFFFFFFFFFFFFFFFFFFFFFFFFFF AND DUP2 MSTORE PUSH1 0x20 ADD PUSH1 0x4 DUP3 ADD SLOAD DUP2 MSTORE PUSH1 0x20 ADD PUSH1 0x5 DUP3 ADD SLOAD DUP2 MSTORE PUSH1 0x20 ADD PUSH1 0x6 DUP3 ADD SLOAD DUP2 MSTORE PUSH1 0x20 ADD PUSH1 0x7 DUP3 ADD SLOAD DUP2 MSTORE PUSH1 0x20 ADD PUSH1 0x8 DUP3 ADD DUP1 SLOAD PUSH2 0xE7D SWAP1 PUSH2 0x4DA1 JUMP JUMPDEST DUP1 PUSH1 0x1F ADD PUSH1 0x20 DUP1 SWAP2 DIV MUL PUSH1 0x20 ADD PUSH1 0x40 MLOAD SWAP1 DUP2 ADD PUSH1 0x40 MSTORE DUP1 SWAP3 SWAP2 SWAP1 DUP2 DUP2 MSTORE PUSH1 0x20 ADD DUP3 DUP1 SLOAD PUSH2 0xEA9 SWAP1 PUSH2 0x4DA1 JUMP JUMPDEST DUP1 ISZERO PUSH2 0xEF4 JUMPI DUP1 PUSH1 0x1F LT PUSH2 0xECB JUMPI PUSH2 0x100 DUP1 DUP4 SLOAD DIV MUL DUP4 MSTORE SWAP2 PUSH1 0x20 ADD SWAP2 PUSH2 0xEF4 JUMP JUMPDEST DUP3 ADD SWAP2 SWAP1 PUSH0 MSTORE PUSH1 0x20 PUSH0 KECCAK256 SWAP1 JUMPDEST DUP2 SLOAD DUP2 MSTORE SWAP1 PUSH1 0x1 ADD SWAP1 PUSH1 0x20 ADD DUP1 DUP4 GT PUSH2 0xED7 JUMPI DUP3 SWAP1 SUB PUSH1 0x1F AND DUP3 ADD SWAP2 JUMPDEST POP POP POP POP POP DUP2 MSTORE PUSH1 0x20 ADD PUSH1 0x9 DUP3 ADD DUP1 SLOAD PUSH2 0xF0D SWAP1 PUSH2 0x4DA1 JUMP JUMPDEST DUP1 PUSH1 0x1F ADD PUSH1 0x20 DUP1 SWAP2 DIV MUL PUSH1 0x20 ADD PUSH1 0x40 MLOAD SWAP1 DUP2 ADD PUSH1 0x40 MSTORE DUP1 SWAP3 SWAP2 SWAP1 DUP2 DUP2 MSTORE PUSH1 0x20 ADD DUP3 DUP1 SLOAD PUSH2 0xF39 SWAP1 PUSH2 0x4DA1 JUMP JUMPDEST DUP1 ISZERO PUSH2 0xF84 JUMPI DUP1 PUSH1 0x1F LT PUSH2 0xF5B JUMPI PUSH2 0x100 DUP1 DUP4 SLOAD DIV MUL DUP4 MSTORE SWAP2 PUSH1 0x20 ADD SWAP2 PUSH2 0xF84 JUMP JUMPDEST DUP3 ADD SWAP2 SWAP1 PUSH0 MSTORE PUSH1 0x20 PUSH0 KECCAK256 SWAP1 JUMPDEST DUP2 SLOAD DUP2 MSTORE SWAP1 PUSH1 0x1 ADD SWAP1 PUSH1 0x20 ADD DUP1 DUP4 GT PUSH2 0xF67 JUMPI DUP3 SWAP1 SUB PUSH1 0x1F AND DUP3 ADD SWAP2 JUMPDEST POP POP POP POP POP DUP2 MSTORE PUSH1 0x20 ADD PUSH1 0xA DUP3 ADD SLOAD DUP2 MSTORE PUSH1 0x20 ADD PUSH1 0xB DUP3 ADD SLOAD DUP2 MSTORE PUSH1 0x20 ADD PUSH1 0xC DUP3 ADD SLOAD DUP2 MSTORE PUSH1 0x20 ADD PUSH1 0xD DUP3 ADD SLOAD DUP2 MSTORE PUSH1 0x20 ADD PUSH1 0xE DUP3 ADD SLOAD DUP2 MSTORE PUSH1 0x20 ADD PUSH1 0xF DUP3 ADD SLOAD DUP2 MSTORE PUSH1 0x20 ADD PUSH1 0x10 DUP3 ADD PUSH0 SWAP1 SLOAD SWAP1 PUSH2 0x100 EXP SWAP1 DIV PUSH20 0xFFFFFFFFFFFFFFFFFFFFFFFFFFFFFFFFFFFFFFFF AND PUSH20 0xFFFFFFFFFFFFFFFFFFFFFFFFFFFFFFFFFFFFFFFF AND PUSH20 0xFFFFFFFFFFFFFFFFFFFFFFFFFFFFFFFFFFFFFFFF AND DUP2 MSTORE PUSH1 0x20 ADD PUSH1 0x10 DUP3 ADD PUSH1 0x14 SWAP1 SLOAD SWAP1 PUSH2 0x100 EXP SWAP1 DIV PUSH1 0xFF AND PUSH1 0xA DUP2 GT ISZERO PUSH2 0x1043 JUMPI PUSH2 0x1042 PUSH2 0x3D83 JUMP JUMPDEST JUMPDEST PUSH1 0xA DUP2 GT ISZERO PUSH2 0x1055 JUMPI PUSH2 0x1054 PUSH2 0x3D83 JUMP JUMPDEST JUMPDEST DUP2 MSTORE POP POP SWAP1 POP PUSH0 PUSH1 0xA DUP2 GT ISZERO PUSH2 0x106E JUMPI PUSH2 0x106D PUSH2 0x3D83 JUMP JUMPDEST JUMPDEST DUP2 PUSH2 0x220 ADD MLOAD PUSH1 0xA DUP2 GT ISZERO PUSH2 0x1086 JUMPI PUSH2 0x1085 PUSH2 0x3D83 JUMP JUMPDEST JUMPDEST EQ DUP1 ISZERO PUSH2 0x109E JUMPI POP PUSH2 0x109D DUP7 DUP3 PUSH2 0x100 ADD MLOAD PUSH2 0x2FAC JUMP JUMPDEST JUMPDEST DUP1 ISZERO PUSH2 0x10B5 JUMPI POP PUSH2 0x10B4 DUP7 DUP3 PUSH2 0x120 ADD MLOAD PUSH2 0x2FAC JUMP JUMPDEST JUMPDEST ISZERO PUSH2 0x10E8 JUMPI DUP1 DUP5 DUP5 DUP2 MLOAD DUP2 LT PUSH2 0x10CE JUMPI PUSH2 0x10CD PUSH2 0x492A JUMP JUMPDEST JUMPDEST PUSH1 0x20 MUL PUSH1 0x20 ADD ADD DUP2 SWAP1 MSTORE POP DUP3 DUP1 PUSH2 0x10E4 SWAP1 PUSH2 0x4DD1 JUMP JUMPDEST SWAP4 POP POP JUMPDEST POP DUP1 DUP1 PUSH1 0x1 ADD SWAP2 POP POP PUSH2 0xC44 JUMP JUMPDEST POP PUSH0 DUP2 PUSH8 0xFFFFFFFFFFFFFFFF DUP2 GT ISZERO PUSH2 0x1112 JUMPI PUSH2 0x1111 PUSH2 0x3A48 JUMP JUMPDEST JUMPDEST PUSH1 0x40 MLOAD SWAP1 DUP1 DUP3 MSTORE DUP1 PUSH1 0x20 MUL PUSH1 0x20 ADD DUP3 ADD PUSH1 0x40 MSTORE DUP1 ISZERO PUSH2 0x114B JUMPI DUP2 PUSH1 0x20 ADD JUMPDEST PUSH2 0x1138 PUSH2 0x392F JUMP JUMPDEST DUP2 MSTORE PUSH1 0x20 ADD SWAP1 PUSH1 0x1 SWAP1 SUB SWAP1 DUP2 PUSH2 0x1130 JUMPI SWAP1 POP JUMPDEST POP SWAP1 POP PUSH0 JUMPDEST DUP3 DUP2 LT ISZERO PUSH2 0x119E JUMPI DUP4 DUP2 DUP2 MLOAD DUP2 LT PUSH2 0x116B JUMPI PUSH2 0x116A PUSH2 0x492A JUMP JUMPDEST JUMPDEST PUSH1 0x20 MUL PUSH1 0x20 ADD ADD MLOAD DUP3 DUP3 DUP2 MLOAD DUP2 LT PUSH2 0x1186 JUMPI PUSH2 0x1185 PUSH2 0x492A JUMP JUMPDEST JUMPDEST PUSH1 0x20 MUL PUSH1 0x20 ADD ADD DUP2 SWAP1 MSTORE POP DUP1 DUP1 PUSH1 0x1 ADD SWAP2 POP POP PUSH2 0x1150 JUMP JUMPDEST POP DUP1 SWAP4 POP POP POP POP SWAP2 SWAP1 POP JUMP JUMPDEST PUSH0 PUSH2 0x11B4 DUP4 PUSH2 0x2A66 JUMP JUMPDEST SWAP1 POP PUSH0 DUP2 PUSH0 ADD MLOAD SWAP1 POP PUSH0 DUP3 PUSH1 0x20 ADD MLOAD SWAP1 POP PUSH1 0xA DUP1 DUP2 GT ISZERO PUSH2 0x11D8 JUMPI PUSH2 0x11D7 PUSH2 0x3D83 JUMP JUMPDEST JUMPDEST DUP3 PUSH2 0x220 ADD MLOAD PUSH1 0xA DUP2 GT ISZERO PUSH2 0x11F0 JUMPI PUSH2 0x11EF PUSH2 0x3D83 JUMP JUMPDEST JUMPDEST SUB PUSH2 0x1232 JUMPI DUP5 PUSH1 0x40 MLOAD PUSH32 0x48B3CCEC00000000000000000000000000000000000000000000000000000000 DUP2 MSTORE PUSH1 0x4 ADD PUSH2 0x1229 SWAP2 SWAP1 PUSH2 0x4A12 JUMP JUMPDEST PUSH1 0x40 MLOAD DUP1 SWAP2 SUB SWAP1 REVERT JUMPDEST DUP2 PUSH2 0x200 ADD MLOAD PUSH20 0xFFFFFFFFFFFFFFFFFFFFFFFFFFFFFFFFFFFFFFFF AND CALLER PUSH20 0xFFFFFFFFFFFFFFFFFFFFFFFFFFFFFFFFFFFFFFFF AND EQ PUSH2 0x12A7 JUMPI DUP5 PUSH1 0x40 MLOAD PUSH32 0x48B3CCEC00000000000000000000000000000000000000000000000000000000 DUP2 MSTORE PUSH1 0x4 ADD PUSH2 0x129E SWAP2 SWAP1 PUSH2 0x4E88 JUMP JUMPDEST PUSH1 0x40 MLOAD DUP1 SWAP2 SUB SWAP1 REVERT JUMPDEST PUSH1 0x3 PUSH1 0xA DUP2 GT ISZERO PUSH2 0x12BB JUMPI PUSH2 0x12BA PUSH2 0x3D83 JUMP JUMPDEST JUMPDEST DUP3 PUSH2 0x220 ADD MLOAD PUSH1 0xA DUP2 GT ISZERO PUSH2 0x12D3 JUMPI PUSH2 0x12D2 PUSH2 0x3D83 JUMP JUMPDEST JUMPDEST SUB PUSH2 0x13CC JUMPI PUSH1 0x4 PUSH1 0xA DUP2 GT ISZERO PUSH2 0x12EC JUMPI PUSH2 0x12EB PUSH2 0x3D83 JUMP JUMPDEST JUMPDEST DUP5 PUSH1 0xA DUP2 GT ISZERO PUSH2 0x12FF JUMPI PUSH2 0x12FE PUSH2 0x3D83 JUMP JUMPDEST JUMPDEST SUB PUSH2 0x138A JUMPI DUP4 PUSH0 DUP3 DUP2 SLOAD DUP2 LT PUSH2 0x1318 JUMPI PUSH2 0x1317 PUSH2 0x492A JUMP JUMPDEST JUMPDEST SWAP1 PUSH0 MSTORE PUSH1 0x20 PUSH0 KECCAK256 SWAP1 PUSH1 0x11 MUL ADD PUSH1 0x10 ADD PUSH1 0x14 PUSH2 0x100 EXP DUP2 SLOAD DUP2 PUSH1 0xFF MUL NOT AND SWAP1 DUP4 PUSH1 0xA DUP2 GT ISZERO PUSH2 0x1349 JUMPI PUSH2 0x1348 PUSH2 0x3D83 JUMP JUMPDEST JUMPDEST MUL OR SWAP1 SSTORE POP PUSH32 0x2D9D560C99C3BC1724FC52A39A33A239E75EF98285E83DFB9AA7C87F6B5B289C DUP6 PUSH1 0x40 MLOAD PUSH2 0x137D SWAP2 SWAP1 PUSH2 0x4B58 JUMP JUMPDEST PUSH1 0x40 MLOAD DUP1 SWAP2 SUB SWAP1 LOG1 PUSH2 0x13C7 JUMP JUMPDEST DUP5 PUSH1 0x40 MLOAD PUSH32 0x48B3CCEC00000000000000000000000000000000000000000000000000000000 DUP2 MSTORE PUSH1 0x4 ADD PUSH2 0x13BE SWAP2 SWAP1 PUSH2 0x4F51 JUMP JUMPDEST PUSH1 0x40 MLOAD DUP1 SWAP2 SUB SWAP1 REVERT JUMPDEST PUSH2 0x177B JUMP JUMPDEST PUSH1 0x4 PUSH1 0xA DUP2 GT ISZERO PUSH2 0x13E0 JUMPI PUSH2 0x13DF PUSH2 0x3D83 JUMP JUMPDEST JUMPDEST DUP3 PUSH2 0x220 ADD MLOAD PUSH1 0xA DUP2 GT ISZERO PUSH2 0x13F8 JUMPI PUSH2 0x13F7 PUSH2 0x3D83 JUMP JUMPDEST JUMPDEST SUB PUSH2 0x14F1 JUMPI PUSH1 0x5 PUSH1 0xA DUP2 GT ISZERO PUSH2 0x1411 JUMPI PUSH2 0x1410 PUSH2 0x3D83 JUMP JUMPDEST JUMPDEST DUP5 PUSH1 0xA DUP2 GT ISZERO PUSH2 0x1424 JUMPI PUSH2 0x1423 PUSH2 0x3D83 JUMP JUMPDEST JUMPDEST SUB PUSH2 0x14AF JUMPI DUP4 PUSH0 DUP3 DUP2 SLOAD DUP2 LT PUSH2 0x143D JUMPI PUSH2 0x143C PUSH2 0x492A JUMP JUMPDEST JUMPDEST SWAP1 PUSH0 MSTORE PUSH1 0x20 PUSH0 KECCAK256 SWAP1 PUSH1 0x11 MUL ADD PUSH1 0x10 ADD PUSH1 0x14 PUSH2 0x100 EXP DUP2 SLOAD DUP2 PUSH1 0xFF MUL NOT AND SWAP1 DUP4 PUSH1 0xA DUP2 GT ISZERO PUSH2 0x146E JUMPI PUSH2 0x146D PUSH2 0x3D83 JUMP JUMPDEST JUMPDEST MUL OR SWAP1 SSTORE POP PUSH32 0x2D9D560C99C3BC1724FC52A39A33A239E75EF98285E83DFB9AA7C87F6B5B289C DUP6 PUSH1 0x40 MLOAD PUSH2 0x14A2 SWAP2 SWAP1 PUSH2 0x4B58 JUMP JUMPDEST PUSH1 0x40 MLOAD DUP1 SWAP2 SUB SWAP1 LOG1 PUSH2 0x14EC JUMP JUMPDEST DUP5 PUSH1 0x40 MLOAD PUSH32 0x48B3CCEC00000000000000000000000000000000000000000000000000000000 DUP2 MSTORE PUSH1 0x4 ADD PUSH2 0x14E3 SWAP2 SWAP1 PUSH2 0x501A JUMP JUMPDEST PUSH1 0x40 MLOAD DUP1 SWAP2 SUB SWAP1 REVERT JUMPDEST PUSH2 0x177A JUMP JUMPDEST PUSH1 0x5 PUSH1 0xA DUP2 GT ISZERO PUSH2 0x1505 JUMPI PUSH2 0x1504 PUSH2 0x3D83 JUMP JUMPDEST JUMPDEST DUP3 PUSH2 0x220 ADD MLOAD PUSH1 0xA DUP2 GT ISZERO PUSH2 0x151D JUMPI PUSH2 0x151C PUSH2 0x3D83 JUMP JUMPDEST JUMPDEST SUB PUSH2 0x1616 JUMPI PUSH1 0x6 PUSH1 0xA DUP2 GT ISZERO PUSH2 0x1536 JUMPI PUSH2 0x1535 PUSH2 0x3D83 JUMP JUMPDEST JUMPDEST DUP5 PUSH1 0xA DUP2 GT ISZERO PUSH2 0x1549 JUMPI PUSH2 0x1548 PUSH2 0x3D83 JUMP JUMPDEST JUMPDEST SUB PUSH2 0x15D4 JUMPI DUP4 PUSH0 DUP3 DUP2 SLOAD DUP2 LT PUSH2 0x1562 JUMPI PUSH2 0x1561 PUSH2 0x492A JUMP JUMPDEST JUMPDEST SWAP1 PUSH0 MSTORE PUSH1 0x20 PUSH0 KECCAK256 SWAP1 PUSH1 0x11 MUL ADD PUSH1 0x10 ADD PUSH1 0x14 PUSH2 0x100 EXP DUP2 SLOAD DUP2 PUSH1 0xFF MUL NOT AND SWAP1 DUP4 PUSH1 0xA DUP2 GT ISZERO PUSH2 0x1593 JUMPI PUSH2 0x1592 PUSH2 0x3D83 JUMP JUMPDEST JUMPDEST MUL OR SWAP1 SSTORE POP PUSH32 0x2D9D560C99C3BC1724FC52A39A33A239E75EF98285E83DFB9AA7C87F6B5B289C DUP6 PUSH1 0x40 MLOAD PUSH2 0x15C7 SWAP2 SWAP1 PUSH2 0x4B58 JUMP JUMPDEST PUSH1 0x40 MLOAD DUP1 SWAP2 SUB SWAP1 LOG1 PUSH2 0x1611 JUMP JUMPDEST DUP5 PUSH1 0x40 MLOAD PUSH32 0x48B3CCEC00000000000000000000000000000000000000000000000000000000 DUP2 MSTORE PUSH1 0x4 ADD PUSH2 0x1608 SWAP2 SWAP1 PUSH2 0x50E3 JUMP JUMPDEST PUSH1 0x40 MLOAD DUP1 SWAP2 SUB SWAP1 REVERT JUMPDEST PUSH2 0x1779 JUMP JUMPDEST PUSH1 0x6 PUSH1 0xA DUP2 GT ISZERO PUSH2 0x162A JUMPI PUSH2 0x1629 PUSH2 0x3D83 JUMP JUMPDEST JUMPDEST DUP3 PUSH2 0x220 ADD MLOAD PUSH1 0xA DUP2 GT ISZERO PUSH2 0x1642 JUMPI PUSH2 0x1641 PUSH2 0x3D83 JUMP JUMPDEST JUMPDEST SUB PUSH2 0x173B JUMPI PUSH1 0x7 PUSH1 0xA DUP2 GT ISZERO PUSH2 0x165B JUMPI PUSH2 0x165A PUSH2 0x3D83 JUMP JUMPDEST JUMPDEST DUP5 PUSH1 0xA DUP2 GT ISZERO PUSH2 0x166E JUMPI PUSH2 0x166D PUSH2 0x3D83 JUMP JUMPDEST JUMPDEST SUB PUSH2 0x16F9 JUMPI DUP4 PUSH0 DUP3 DUP2 SLOAD DUP2 LT PUSH2 0x1687 JUMPI PUSH2 0x1686 PUSH2 0x492A JUMP JUMPDEST JUMPDEST SWAP1 PUSH0 MSTORE PUSH1 0x20 PUSH0 KECCAK256 SWAP1 PUSH1 0x11 MUL ADD PUSH1 0x10 ADD PUSH1 0x14 PUSH2 0x100 EXP DUP2 SLOAD DUP2 PUSH1 0xFF MUL NOT AND SWAP1 DUP4 PUSH1 0xA DUP2 GT ISZERO PUSH2 0x16B8 JUMPI PUSH2 0x16B7 PUSH2 0x3D83 JUMP JUMPDEST JUMPDEST MUL OR SWAP1 SSTORE POP PUSH32 0x2D9D560C99C3BC1724FC52A39A33A239E75EF98285E83DFB9AA7C87F6B5B289C DUP6 PUSH1 0x40 MLOAD PUSH2 0x16EC SWAP2 SWAP1 PUSH2 0x4B58 JUMP JUMPDEST PUSH1 0x40 MLOAD DUP1 SWAP2 SUB SWAP1 LOG1 PUSH2 0x1736 JUMP JUMPDEST DUP5 PUSH1 0x40 MLOAD PUSH32 0x48B3CCEC00000000000000000000000000000000000000000000000000000000 DUP2 MSTORE PUSH1 0x4 ADD PUSH2 0x172D SWAP2 SWAP1 PUSH2 0x51AC JUMP JUMPDEST PUSH1 0x40 MLOAD DUP1 SWAP2 SUB SWAP1 REVERT JUMPDEST PUSH2 0x1778 JUMP JUMPDEST DUP5 PUSH1 0x40 MLOAD PUSH32 0x48B3CCEC00000000000000000000000000000000000000000000000000000000 DUP2 MSTORE PUSH1 0x4 ADD PUSH2 0x176F SWAP2 SWAP1 PUSH2 0x529B JUMP JUMPDEST PUSH1 0x40 MLOAD DUP1 SWAP2 SUB SWAP1 REVERT JUMPDEST JUMPDEST JUMPDEST JUMPDEST POP POP POP POP POP JUMP JUMPDEST PUSH0 PUSH2 0x178C DUP3 PUSH2 0x2A66 JUMP JUMPDEST SWAP1 POP PUSH0 DUP2 PUSH0 ADD MLOAD SWAP1 POP PUSH0 DUP3 PUSH1 0x20 ADD MLOAD SWAP1 POP PUSH1 0x1 PUSH1 0xA DUP2 GT ISZERO PUSH2 0x17B1 JUMPI PUSH2 0x17B0 PUSH2 0x3D83 JUMP JUMPDEST JUMPDEST DUP3 PUSH2 0x220 ADD MLOAD PUSH1 0xA DUP2 GT ISZERO PUSH2 0x17C9 JUMPI PUSH2 0x17C8 PUSH2 0x3D83 JUMP JUMPDEST JUMPDEST EQ DUP1 PUSH2 0x17FD JUMPI POP PUSH0 PUSH1 0xA DUP2 GT ISZERO PUSH2 0x17E3 JUMPI PUSH2 0x17E2 PUSH2 0x3D83 JUMP JUMPDEST JUMPDEST DUP3 PUSH2 0x220 ADD MLOAD PUSH1 0xA DUP2 GT ISZERO PUSH2 0x17FB JUMPI PUSH2 0x17FA PUSH2 0x3D83 JUMP JUMPDEST JUMPDEST EQ JUMPDEST ISZERO PUSH2 0x19CC JUMPI DUP2 PUSH1 0x40 ADD MLOAD PUSH20 0xFFFFFFFFFFFFFFFFFFFFFFFFFFFFFFFFFFFFFFFF AND CALLER PUSH20 0xFFFFFFFFFFFFFFFFFFFFFFFFFFFFFFFFFFFFFFFF AND EQ PUSH2 0x1876 JUMPI DUP4 PUSH1 0x40 MLOAD PUSH32 0x48B3CCEC00000000000000000000000000000000000000000000000000000000 DUP2 MSTORE PUSH1 0x4 ADD PUSH2 0x186D SWAP2 SWAP1 PUSH2 0x533E JUMP JUMPDEST PUSH1 0x40 MLOAD DUP1 SWAP2 SUB SWAP1 REVERT JUMPDEST PUSH0 PUSH20 0xFFFFFFFFFFFFFFFFFFFFFFFFFFFFFFFFFFFFFFFF AND DUP3 PUSH2 0x200 ADD MLOAD PUSH20 0xFFFFFFFFFFFFFFFFFFFFFFFFFFFFFFFFFFFFFFFF AND EQ PUSH2 0x1943 JUMPI DUP2 PUSH2 0x1E0 ADD MLOAD TIMESTAMP LT PUSH2 0x1906 JUMPI PUSH1 0x2 PUSH0 DUP3 DUP2 SLOAD DUP2 LT PUSH2 0x18CF JUMPI PUSH2 0x18CE PUSH2 0x492A JUMP JUMPDEST JUMPDEST SWAP1 PUSH0 MSTORE PUSH1 0x20 PUSH0 KECCAK256 SWAP1 PUSH1 0x11 MUL ADD PUSH1 0x10 ADD PUSH1 0x14 PUSH2 0x100 EXP DUP2 SLOAD DUP2 PUSH1 0xFF MUL NOT AND SWAP1 DUP4 PUSH1 0xA DUP2 GT ISZERO PUSH2 0x1900 JUMPI PUSH2 0x18FF PUSH2 0x3D83 JUMP JUMPDEST JUMPDEST MUL OR SWAP1 SSTORE POP JUMPDEST DUP4 PUSH1 0x40 MLOAD PUSH32 0xAECFF84000000000000000000000000000000000000000000000000000000000 DUP2 MSTORE PUSH1 0x4 ADD PUSH2 0x193A SWAP2 SWAP1 PUSH2 0x53E1 JUMP JUMPDEST PUSH1 0x40 MLOAD DUP1 SWAP2 SUB SWAP1 REVERT JUMPDEST PUSH1 0xA PUSH0 DUP3 DUP2 SLOAD DUP2 LT PUSH2 0x1958 JUMPI PUSH2 0x1957 PUSH2 0x492A JUMP JUMPDEST JUMPDEST SWAP1 PUSH0 MSTORE PUSH1 0x20 PUSH0 KECCAK256 SWAP1 PUSH1 0x11 MUL ADD PUSH1 0x10 ADD PUSH1 0x14 PUSH2 0x100 EXP DUP2 SLOAD DUP2 PUSH1 0xFF MUL NOT AND SWAP1 DUP4 PUSH1 0xA DUP2 GT ISZERO PUSH2 0x1989 JUMPI PUSH2 0x1988 PUSH2 0x3D83 JUMP JUMPDEST JUMPDEST MUL OR SWAP1 SSTORE POP PUSH32 0xDFA422881F63493E54CCCE54F113252111E0FB2338B99C336496F54C6B5FF7F6 DUP5 CALLER PUSH1 0x40 MLOAD PUSH2 0x19BF SWAP3 SWAP2 SWAP1 PUSH2 0x5414 JUMP JUMPDEST PUSH1 0x40 MLOAD DUP1 SWAP2 SUB SWAP1 LOG1 PUSH2 0x1A09 JUMP JUMPDEST DUP4 PUSH1 0x40 MLOAD PUSH32 0xAECFF84000000000000000000000000000000000000000000000000000000000 DUP2 MSTORE PUSH1 0x4 ADD PUSH2 0x1A00 SWAP2 SWAP1 PUSH2 0x54B2 JUMP JUMPDEST PUSH1 0x40 MLOAD DUP1 SWAP2 SUB SWAP1 REVERT JUMPDEST POP POP POP POP JUMP JUMPDEST PUSH1 0x60 PUSH0 CALLER SWAP1 POP PUSH0 DUP1 DUP1 SLOAD SWAP1 POP PUSH8 0xFFFFFFFFFFFFFFFF DUP2 GT ISZERO PUSH2 0x1A34 JUMPI PUSH2 0x1A33 PUSH2 0x3A48 JUMP JUMPDEST JUMPDEST PUSH1 0x40 MLOAD SWAP1 DUP1 DUP3 MSTORE DUP1 PUSH1 0x20 MUL PUSH1 0x20 ADD DUP3 ADD PUSH1 0x40 MSTORE DUP1 ISZERO PUSH2 0x1A6D JUMPI DUP2 PUSH1 0x20 ADD JUMPDEST PUSH2 0x1A5A PUSH2 0x392F JUMP JUMPDEST DUP2 MSTORE PUSH1 0x20 ADD SWAP1 PUSH1 0x1 SWAP1 SUB SWAP1 DUP2 PUSH2 0x1A52 JUMPI SWAP1 POP JUMPDEST POP SWAP1 POP PUSH0 DUP1 JUMPDEST PUSH0 DUP1 SLOAD SWAP1 POP DUP2 LT ISZERO PUSH2 0x1F73 JUMPI PUSH0 DUP1 DUP3 DUP2 SLOAD DUP2 LT PUSH2 0x1A93 JUMPI PUSH2 0x1A92 PUSH2 0x492A JUMP JUMPDEST JUMPDEST SWAP1 PUSH0 MSTORE PUSH1 0x20 PUSH0 KECCAK256 SWAP1 PUSH1 0x11 MUL ADD PUSH1 0x40 MLOAD DUP1 PUSH2 0x240 ADD PUSH1 0x40 MSTORE SWAP1 DUP2 PUSH0 DUP3 ADD DUP1 SLOAD PUSH2 0x1ABA SWAP1 PUSH2 0x4DA1 JUMP JUMPDEST DUP1 PUSH1 0x1F ADD PUSH1 0x20 DUP1 SWAP2 DIV MUL PUSH1 0x20 ADD PUSH1 0x40 MLOAD SWAP1 DUP2 ADD PUSH1 0x40 MSTORE DUP1 SWAP3 SWAP2 SWAP1 DUP2 DUP2 MSTORE PUSH1 0x20 ADD DUP3 DUP1 SLOAD PUSH2 0x1AE6 SWAP1 PUSH2 0x4DA1 JUMP JUMPDEST DUP1 ISZERO PUSH2 0x1B31 JUMPI DUP1 PUSH1 0x1F LT PUSH2 0x1B08 JUMPI PUSH2 0x100 DUP1 DUP4 SLOAD DIV MUL DUP4 MSTORE SWAP2 PUSH1 0x20 ADD SWAP2 PUSH2 0x1B31 JUMP JUMPDEST DUP3 ADD SWAP2 SWAP1 PUSH0 MSTORE PUSH1 0x20 PUSH0 KECCAK256 SWAP1 JUMPDEST DUP2 SLOAD DUP2 MSTORE SWAP1 PUSH1 0x1 ADD SWAP1 PUSH1 0x20 ADD DUP1 DUP4 GT PUSH2 0x1B14 JUMPI DUP3 SWAP1 SUB PUSH1 0x1F AND DUP3 ADD SWAP2 JUMPDEST POP POP POP POP POP DUP2 MSTORE PUSH1 0x20 ADD PUSH1 0x1 DUP3 ADD DUP1 SLOAD PUSH2 0x1B4A SWAP1 PUSH2 0x4DA1 JUMP JUMPDEST DUP1 PUSH1 0x1F ADD PUSH1 0x20 DUP1 SWAP2 DIV MUL PUSH1 0x20 ADD PUSH1 0x40 MLOAD SWAP1 DUP2 ADD PUSH1 0x40 MSTORE DUP1 SWAP3 SWAP2 SWAP1 DUP2 DUP2 MSTORE PUSH1 0x20 ADD DUP3 DUP1 SLOAD PUSH2 0x1B76 SWAP1 PUSH2 0x4DA1 JUMP JUMPDEST DUP1 ISZERO PUSH2 0x1BC1 JUMPI DUP1 PUSH1 0x1F LT PUSH2 0x1B98 JUMPI PUSH2 0x100 DUP1 DUP4 SLOAD DIV MUL DUP4 MSTORE SWAP2 PUSH1 0x20 ADD SWAP2 PUSH2 0x1BC1 JUMP JUMPDEST DUP3 ADD SWAP2 SWAP1 PUSH0 MSTORE PUSH1 0x20 PUSH0 KECCAK256 SWAP1 JUMPDEST DUP2 SLOAD DUP2 MSTORE SWAP1 PUSH1 0x1 ADD SWAP1 PUSH1 0x20 ADD DUP1 DUP4 GT PUSH2 0x1BA4 JUMPI DUP3 SWAP1 SUB PUSH1 0x1F AND DUP3 ADD SWAP2 JUMPDEST POP POP POP POP POP DUP2 MSTORE PUSH1 0x20 ADD PUSH1 0x2 DUP3 ADD PUSH0 SWAP1 SLOAD SWAP1 PUSH2 0x100 EXP SWAP1 DIV PUSH20 0xFFFFFFFFFFFFFFFFFFFFFFFFFFFFFFFFFFFFFFFF AND PUSH20 0xFFFFFFFFFFFFFFFFFFFFFFFFFFFFFFFFFFFFFFFF AND PUSH20 0xFFFFFFFFFFFFFFFFFFFFFFFFFFFFFFFFFFFFFFFF AND DUP2 MSTORE PUSH1 0x20 ADD PUSH1 0x3 DUP3 ADD PUSH0 SWAP1 SLOAD SWAP1 PUSH2 0x100 EXP SWAP1 DIV PUSH20 0xFFFFFFFFFFFFFFFFFFFFFFFFFFFFFFFFFFFFFFFF AND PUSH20 0xFFFFFFFFFFFFFFFFFFFFFFFFFFFFFFFFFFFFFFFF AND PUSH20 0xFFFFFFFFFFFFFFFFFFFFFFFFFFFFFFFFFFFFFFFF AND DUP2 MSTORE PUSH1 0x20 ADD PUSH1 0x4 DUP3 ADD SLOAD DUP2 MSTORE PUSH1 0x20 ADD PUSH1 0x5 DUP3 ADD SLOAD DUP2 MSTORE PUSH1 0x20 ADD PUSH1 0x6 DUP3 ADD SLOAD DUP2 MSTORE PUSH1 0x20 ADD PUSH1 0x7 DUP3 ADD SLOAD DUP2 MSTORE PUSH1 0x20 ADD PUSH1 0x8 DUP3 ADD DUP1 SLOAD PUSH2 0x1CAC SWAP1 PUSH2 0x4DA1 JUMP JUMPDEST DUP1 PUSH1 0x1F ADD PUSH1 0x20 DUP1 SWAP2 DIV MUL PUSH1 0x20 ADD PUSH1 0x40 MLOAD SWAP1 DUP2 ADD PUSH1 0x40 MSTORE DUP1 SWAP3 SWAP2 SWAP1 DUP2 DUP2 MSTORE PUSH1 0x20 ADD DUP3 DUP1 SLOAD PUSH2 0x1CD8 SWAP1 PUSH2 0x4DA1 JUMP JUMPDEST DUP1 ISZERO PUSH2 0x1D23 JUMPI DUP1 PUSH1 0x1F LT PUSH2 0x1CFA JUMPI PUSH2 0x100 DUP1 DUP4 SLOAD DIV MUL DUP4 MSTORE SWAP2 PUSH1 0x20 ADD SWAP2 PUSH2 0x1D23 JUMP JUMPDEST DUP3 ADD SWAP2 SWAP1 PUSH0 MSTORE PUSH1 0x20 PUSH0 KECCAK256 SWAP1 JUMPDEST DUP2 SLOAD DUP2 MSTORE SWAP1 PUSH1 0x1 ADD SWAP1 PUSH1 0x20 ADD DUP1 DUP4 GT PUSH2 0x1D06 JUMPI DUP3 SWAP1 SUB PUSH1 0x1F AND DUP3 ADD SWAP2 JUMPDEST POP POP POP POP POP DUP2 MSTORE PUSH1 0x20 ADD PUSH1 0x9 DUP3 ADD DUP1 SLOAD PUSH2 0x1D3C SWAP1 PUSH2 0x4DA1 JUMP JUMPDEST DUP1 PUSH1 0x1F ADD PUSH1 0x20 DUP1 SWAP2 DIV MUL PUSH1 0x20 ADD PUSH1 0x40 MLOAD SWAP1 DUP2 ADD PUSH1 0x40 MSTORE DUP1 SWAP3 SWAP2 SWAP1 DUP2 DUP2 MSTORE PUSH1 0x20 ADD DUP3 DUP1 SLOAD PUSH2 0x1D68 SWAP1 PUSH2 0x4DA1 JUMP JUMPDEST DUP1 ISZERO PUSH2 0x1DB3 JUMPI DUP1 PUSH1 0x1F LT PUSH2 0x1D8A JUMPI PUSH2 0x100 DUP1 DUP4 SLOAD DIV MUL DUP4 MSTORE SWAP2 PUSH1 0x20 ADD SWAP2 PUSH2 0x1DB3 JUMP JUMPDEST DUP3 ADD SWAP2 SWAP1 PUSH0 MSTORE PUSH1 0x20 PUSH0 KECCAK256 SWAP1 JUMPDEST DUP2 SLOAD DUP2 MSTORE SWAP1 PUSH1 0x1 ADD SWAP1 PUSH1 0x20 ADD DUP1 DUP4 GT PUSH2 0x1D96 JUMPI DUP3 SWAP1 SUB PUSH1 0x1F AND DUP3 ADD SWAP2 JUMPDEST POP POP POP POP POP DUP2 MSTORE PUSH1 0x20 ADD PUSH1 0xA DUP3 ADD SLOAD DUP2 MSTORE PUSH1 0x20 ADD PUSH1 0xB DUP3 ADD SLOAD DUP2 MSTORE PUSH1 0x20 ADD PUSH1 0xC DUP3 ADD SLOAD DUP2 MSTORE PUSH1 0x20 ADD PUSH1 0xD DUP3 ADD SLOAD DUP2 MSTORE PUSH1 0x20 ADD PUSH1 0xE DUP3 ADD SLOAD DUP2 MSTORE PUSH1 0x20 ADD PUSH1 0xF DUP3 ADD SLOAD DUP2 MSTORE PUSH1 0x20 ADD PUSH1 0x10 DUP3 ADD PUSH0 SWAP1 SLOAD SWAP1 PUSH2 0x100 EXP SWAP1 DIV PUSH20 0xFFFFFFFFFFFFFFFFFFFFFFFFFFFFFFFFFFFFFFFF AND PUSH20 0xFFFFFFFFFFFFFFFFFFFFFFFFFFFFFFFFFFFFFFFF AND PUSH20 0xFFFFFFFFFFFFFFFFFFFFFFFFFFFFFFFFFFFFFFFF AND DUP2 MSTORE PUSH1 0x20 ADD PUSH1 0x10 DUP3 ADD PUSH1 0x14 SWAP1 SLOAD SWAP1 PUSH2 0x100 EXP SWAP1 DIV PUSH1 0xFF AND PUSH1 0xA DUP2 GT ISZERO PUSH2 0x1E72 JUMPI PUSH2 0x1E71 PUSH2 0x3D83 JUMP JUMPDEST JUMPDEST PUSH1 0xA DUP2 GT ISZERO PUSH2 0x1E84 JUMPI PUSH2 0x1E83 PUSH2 0x3D83 JUMP JUMPDEST JUMPDEST DUP2 MSTORE POP POP SWAP1 POP DUP5 PUSH20 0xFFFFFFFFFFFFFFFFFFFFFFFFFFFFFFFFFFFFFFFF AND DUP2 PUSH1 0x40 ADD MLOAD PUSH20 0xFFFFFFFFFFFFFFFFFFFFFFFFFFFFFFFFFFFFFFFF AND EQ DUP1 PUSH2 0x1EF7 JUMPI POP DUP5 PUSH20 0xFFFFFFFFFFFFFFFFFFFFFFFFFFFFFFFFFFFFFFFF AND DUP2 PUSH1 0x60 ADD MLOAD PUSH20 0xFFFFFFFFFFFFFFFFFFFFFFFFFFFFFFFFFFFFFFFF AND EQ JUMPDEST DUP1 PUSH2 0x1F32 JUMPI POP DUP5 PUSH20 0xFFFFFFFFFFFFFFFFFFFFFFFFFFFFFFFFFFFFFFFF AND DUP2 PUSH2 0x200 ADD MLOAD PUSH20 0xFFFFFFFFFFFFFFFFFFFFFFFFFFFFFFFFFFFFFFFF AND EQ JUMPDEST ISZERO PUSH2 0x1F65 JUMPI DUP1 DUP5 DUP5 DUP2 MLOAD DUP2 LT PUSH2 0x1F4B JUMPI PUSH2 0x1F4A PUSH2 0x492A JUMP JUMPDEST JUMPDEST PUSH1 0x20 MUL PUSH1 0x20 ADD ADD DUP2 SWAP1 MSTORE POP DUP3 DUP1 PUSH2 0x1F61 SWAP1 PUSH2 0x4DD1 JUMP JUMPDEST SWAP4 POP POP JUMPDEST POP DUP1 DUP1 PUSH1 0x1 ADD SWAP2 POP POP PUSH2 0x1A73 JUMP JUMPDEST POP PUSH0 DUP2 PUSH8 0xFFFFFFFFFFFFFFFF DUP2 GT ISZERO PUSH2 0x1F8F JUMPI PUSH2 0x1F8E PUSH2 0x3A48 JUMP JUMPDEST JUMPDEST PUSH1 0x40 MLOAD SWAP1 DUP1 DUP3 MSTORE DUP1 PUSH1 0x20 MUL PUSH1 0x20 ADD DUP3 ADD PUSH1 0x40 MSTORE DUP1 ISZERO PUSH2 0x1FC8 JUMPI DUP2 PUSH1 0x20 ADD JUMPDEST PUSH2 0x1FB5 PUSH2 0x392F JUMP JUMPDEST DUP2 MSTORE PUSH1 0x20 ADD SWAP1 PUSH1 0x1 SWAP1 SUB SWAP1 DUP2 PUSH2 0x1FAD JUMPI SWAP1 POP JUMPDEST POP SWAP1 POP PUSH0 JUMPDEST DUP3 DUP2 LT ISZERO PUSH2 0x201B JUMPI DUP4 DUP2 DUP2 MLOAD DUP2 LT PUSH2 0x1FE8 JUMPI PUSH2 0x1FE7 PUSH2 0x492A JUMP JUMPDEST JUMPDEST PUSH1 0x20 MUL PUSH1 0x20 ADD ADD MLOAD DUP3 DUP3 DUP2 MLOAD DUP2 LT PUSH2 0x2003 JUMPI PUSH2 0x2002 PUSH2 0x492A JUMP JUMPDEST JUMPDEST PUSH1 0x20 MUL PUSH1 0x20 ADD ADD DUP2 SWAP1 MSTORE POP DUP1 DUP1 PUSH1 0x1 ADD SWAP2 POP POP PUSH2 0x1FCD JUMP JUMPDEST POP DUP1 SWAP5 POP POP POP POP POP SWAP1 JUMP JUMPDEST DUP1 PUSH1 0x20 ADD MLOAD DUP2 PUSH1 0x40 ADD MLOAD PUSH2 0x203A DUP4 CALLVALUE PUSH2 0x312A JUMP JUMPDEST PUSH0 PUSH2 0x2045 PUSH1 0x20 PUSH2 0x3264 JUMP JUMPDEST SWAP1 POP PUSH0 PUSH1 0x40 MLOAD DUP1 PUSH2 0x240 ADD PUSH1 0x40 MSTORE DUP1 DUP4 DUP2 MSTORE PUSH1 0x20 ADD DUP7 PUSH0 ADD MLOAD DUP2 MSTORE PUSH1 0x20 ADD DUP7 PUSH1 0x20 ADD MLOAD PUSH20 0xFFFFFFFFFFFFFFFFFFFFFFFFFFFFFFFFFFFFFFFF AND DUP2 MSTORE PUSH1 0x20 ADD DUP7 PUSH1 0x40 ADD MLOAD PUSH20 0xFFFFFFFFFFFFFFFFFFFFFFFFFFFFFFFFFFFFFFFF AND DUP2 MSTORE PUSH1 0x20 ADD DUP7 PUSH1 0x60 ADD MLOAD DUP2 MSTORE PUSH1 0x20 ADD DUP7 PUSH1 0x80 ADD MLOAD DUP2 MSTORE PUSH1 0x20 ADD DUP7 PUSH1 0xA0 ADD MLOAD DUP2 MSTORE PUSH1 0x20 ADD DUP7 PUSH1 0xC0 ADD MLOAD DUP2 MSTORE PUSH1 0x20 ADD DUP7 PUSH1 0xE0 ADD MLOAD DUP2 MSTORE PUSH1 0x20 ADD DUP7 PUSH2 0x100 ADD MLOAD DUP2 MSTORE PUSH1 0x20 ADD DUP7 PUSH2 0x120 ADD MLOAD DUP2 MSTORE PUSH1 0x20 ADD CALLVALUE DUP2 MSTORE PUSH1 0x20 ADD PUSH0 DUP2 MSTORE PUSH1 0x20 ADD DUP7 PUSH2 0x140 ADD MLOAD DUP2 MSTORE PUSH1 0x20 ADD DUP7 PUSH2 0x160 ADD MLOAD DUP2 MSTORE PUSH1 0x20 ADD PUSH0 PUSH1 0x1 DUP2 GT ISZERO PUSH2 0x2120 JUMPI PUSH2 0x211F PUSH2 0x3D83 JUMP JUMPDEST JUMPDEST DUP8 PUSH2 0x1A0 ADD MLOAD PUSH1 0x1 DUP2 GT ISZERO PUSH2 0x2138 JUMPI PUSH2 0x2137 PUSH2 0x3D83 JUMP JUMPDEST JUMPDEST EQ PUSH2 0x2148 JUMPI DUP7 PUSH2 0x180 ADD MLOAD PUSH2 0x2166 JUMP JUMPDEST DUP7 PUSH2 0x180 ADD MLOAD PUSH1 0x3C PUSH2 0x215A SWAP2 SWAP1 PUSH2 0x453A JUMP JUMPDEST TIMESTAMP PUSH2 0x2165 SWAP2 SWAP1 PUSH2 0x4831 JUMP JUMPDEST JUMPDEST DUP2 MSTORE PUSH1 0x20 ADD PUSH0 PUSH20 0xFFFFFFFFFFFFFFFFFFFFFFFFFFFFFFFFFFFFFFFF AND DUP2 MSTORE PUSH1 0x20 ADD PUSH0 PUSH1 0x1 DUP2 GT ISZERO PUSH2 0x219A JUMPI PUSH2 0x2199 PUSH2 0x3D83 JUMP JUMPDEST JUMPDEST DUP8 PUSH2 0x1A0 ADD MLOAD PUSH1 0x1 DUP2 GT ISZERO PUSH2 0x21B2 JUMPI PUSH2 0x21B1 PUSH2 0x3D83 JUMP JUMPDEST JUMPDEST EQ PUSH2 0x21BE JUMPI PUSH1 0x1 PUSH2 0x21C0 JUMP JUMPDEST PUSH0 JUMPDEST PUSH1 0xA DUP2 GT ISZERO PUSH2 0x21D2 JUMPI PUSH2 0x21D1 PUSH2 0x3D83 JUMP JUMPDEST JUMPDEST DUP2 MSTORE POP SWAP1 POP PUSH0 DUP2 SWAP1 DUP1 PUSH1 0x1 DUP2 SLOAD ADD DUP1 DUP3 SSTORE DUP1 SWAP2 POP POP PUSH1 0x1 SWAP1 SUB SWAP1 PUSH0 MSTORE PUSH1 0x20 PUSH0 KECCAK256 SWAP1 PUSH1 0x11 MUL ADD PUSH0 SWAP1 SWAP2 SWAP1 SWAP2 SWAP1 SWAP2 POP PUSH0 DUP3 ADD MLOAD DUP2 PUSH0 ADD SWAP1 DUP2 PUSH2 0x2212 SWAP2 SWAP1 PUSH2 0x5682 JUMP JUMPDEST POP PUSH1 0x20 DUP3 ADD MLOAD DUP2 PUSH1 0x1 ADD SWAP1 DUP2 PUSH2 0x2228 SWAP2 SWAP1 PUSH2 0x5682 JUMP JUMPDEST POP PUSH1 0x40 DUP3 ADD MLOAD DUP2 PUSH1 0x2 ADD PUSH0 PUSH2 0x100 EXP DUP2 SLOAD DUP2 PUSH20 0xFFFFFFFFFFFFFFFFFFFFFFFFFFFFFFFFFFFFFFFF MUL NOT AND SWAP1 DUP4 PUSH20 0xFFFFFFFFFFFFFFFFFFFFFFFFFFFFFFFFFFFFFFFF AND MUL OR SWAP1 SSTORE POP PUSH1 0x60 DUP3 ADD MLOAD DUP2 PUSH1 0x3 ADD PUSH0 PUSH2 0x100 EXP DUP2 SLOAD DUP2 PUSH20 0xFFFFFFFFFFFFFFFFFFFFFFFFFFFFFFFFFFFFFFFF MUL NOT AND SWAP1 DUP4 PUSH20 0xFFFFFFFFFFFFFFFFFFFFFFFFFFFFFFFFFFFFFFFF AND MUL OR SWAP1 SSTORE POP PUSH1 0x80 DUP3 ADD MLOAD DUP2 PUSH1 0x4 ADD SSTORE PUSH1 0xA0 DUP3 ADD MLOAD DUP2 PUSH1 0x5 ADD SSTORE PUSH1 0xC0 DUP3 ADD MLOAD DUP2 PUSH1 0x6 ADD SSTORE PUSH1 0xE0 DUP3 ADD MLOAD DUP2 PUSH1 0x7 ADD SSTORE PUSH2 0x100 DUP3 ADD MLOAD DUP2 PUSH1 0x8 ADD SWAP1 DUP2 PUSH2 0x22F3 SWAP2 SWAP1 PUSH2 0x5682 JUMP JUMPDEST POP PUSH2 0x120 DUP3 ADD MLOAD DUP2 PUSH1 0x9 ADD SWAP1 DUP2 PUSH2 0x230A SWAP2 SWAP1 PUSH2 0x5682 JUMP JUMPDEST POP PUSH2 0x140 DUP3 ADD MLOAD DUP2 PUSH1 0xA ADD SSTORE PUSH2 0x160 DUP3 ADD MLOAD DUP2 PUSH1 0xB ADD SSTORE PUSH2 0x180 DUP3 ADD MLOAD DUP2 PUSH1 0xC ADD SSTORE PUSH2 0x1A0 DUP3 ADD MLOAD DUP2 PUSH1 0xD ADD SSTORE PUSH2 0x1C0 DUP3 ADD MLOAD DUP2 PUSH1 0xE ADD SSTORE PUSH2 0x1E0 DUP3 ADD MLOAD DUP2 PUSH1 0xF ADD SSTORE PUSH2 0x200 DUP3 ADD MLOAD DUP2 PUSH1 0x10 ADD PUSH0 PUSH2 0x100 EXP DUP2 SLOAD DUP2 PUSH20 0xFFFFFFFFFFFFFFFFFFFFFFFFFFFFFFFFFFFFFFFF MUL NOT AND SWAP1 DUP4 PUSH20 0xFFFFFFFFFFFFFFFFFFFFFFFFFFFFFFFFFFFFFFFF AND MUL OR SWAP1 SSTORE POP PUSH2 0x220 DUP3 ADD MLOAD DUP2 PUSH1 0x10 ADD PUSH1 0x14 PUSH2 0x100 EXP DUP2 SLOAD DUP2 PUSH1 0xFF MUL NOT AND SWAP1 DUP4 PUSH1 0xA DUP2 GT ISZERO PUSH2 0x23C0 JUMPI PUSH2 0x23BF PUSH2 0x3D83 JUMP JUMPDEST JUMPDEST MUL OR SWAP1 SSTORE POP POP POP PUSH32 0x34A186FE574EAF2C1BB47B901FC1F8227EBC865EF86FABE03FDE6B4AB5DFE550 DUP2 PUSH1 0x40 MLOAD PUSH2 0x23F6 SWAP2 SWAP1 PUSH2 0x57C1 JUMP JUMPDEST PUSH1 0x40 MLOAD DUP1 SWAP2 SUB SWAP1 LOG1 POP POP POP POP POP JUMP JUMPDEST PUSH0 PUSH2 0x240F DUP5 PUSH2 0x2A66 JUMP JUMPDEST SWAP1 POP PUSH0 DUP2 PUSH0 ADD MLOAD SWAP1 POP PUSH0 DUP3 PUSH1 0x20 ADD MLOAD SWAP1 POP DUP2 PUSH1 0x60 ADD MLOAD PUSH20 0xFFFFFFFFFFFFFFFFFFFFFFFFFFFFFFFFFFFFFFFF AND CALLER PUSH20 0xFFFFFFFFFFFFFFFFFFFFFFFFFFFFFFFFFFFFFFFF AND EQ PUSH2 0x2494 JUMPI DUP6 PUSH1 0x40 MLOAD PUSH32 0x48B3CCEC00000000000000000000000000000000000000000000000000000000 DUP2 MSTORE PUSH1 0x4 ADD PUSH2 0x248B SWAP2 SWAP1 PUSH2 0x5864 JUMP JUMPDEST PUSH1 0x40 MLOAD DUP1 SWAP2 SUB SWAP1 REVERT JUMPDEST PUSH1 0xA DUP1 DUP2 GT ISZERO PUSH2 0x24A7 JUMPI PUSH2 0x24A6 PUSH2 0x3D83 JUMP JUMPDEST JUMPDEST DUP3 PUSH2 0x220 ADD MLOAD PUSH1 0xA DUP2 GT ISZERO PUSH2 0x24BF JUMPI PUSH2 0x24BE PUSH2 0x3D83 JUMP JUMPDEST JUMPDEST SUB PUSH2 0x2501 JUMPI DUP6 PUSH1 0x40 MLOAD PUSH32 0x48B3CCEC00000000000000000000000000000000000000000000000000000000 DUP2 MSTORE PUSH1 0x4 ADD PUSH2 0x24F8 SWAP2 SWAP1 PUSH2 0x4A12 JUMP JUMPDEST PUSH1 0x40 MLOAD DUP1 SWAP2 SUB SWAP1 REVERT JUMPDEST PUSH1 0x8 PUSH1 0xA DUP2 GT ISZERO PUSH2 0x2515 JUMPI PUSH2 0x2514 PUSH2 0x3D83 JUMP JUMPDEST JUMPDEST DUP6 PUSH1 0xA DUP2 GT ISZERO PUSH2 0x2528 JUMPI PUSH2 0x2527 PUSH2 0x3D83 JUMP JUMPDEST JUMPDEST SUB PUSH2 0x27D5 JUMPI PUSH1 0x7 PUSH1 0xA DUP2 GT ISZERO PUSH2 0x2541 JUMPI PUSH2 0x2540 PUSH2 0x3D83 JUMP JUMPDEST JUMPDEST DUP3 PUSH2 0x220 ADD MLOAD PUSH1 0xA DUP2 GT ISZERO PUSH2 0x2559 JUMPI PUSH2 0x2558 PUSH2 0x3D83 JUMP JUMPDEST JUMPDEST EQ PUSH2 0x259B JUMPI DUP6 PUSH1 0x40 MLOAD PUSH32 0x48B3CCEC00000000000000000000000000000000000000000000000000000000 DUP2 MSTORE PUSH1 0x4 ADD PUSH2 0x2592 SWAP2 SWAP1 PUSH2 0x592D JUMP JUMPDEST PUSH1 0x40 MLOAD DUP1 SWAP2 SUB SWAP1 REVERT JUMPDEST PUSH0 PUSH1 0x1 DUP2 GT ISZERO PUSH2 0x25AE JUMPI PUSH2 0x25AD PUSH2 0x3D83 JUMP JUMPDEST JUMPDEST DUP5 PUSH1 0x1 DUP2 GT ISZERO PUSH2 0x25C1 JUMPI PUSH2 0x25C0 PUSH2 0x3D83 JUMP JUMPDEST JUMPDEST SUB PUSH2 0x26B8 JUMPI DUP5 PUSH0 DUP3 DUP2 SLOAD DUP2 LT PUSH2 0x25DA JUMPI PUSH2 0x25D9 PUSH2 0x492A JUMP JUMPDEST JUMPDEST SWAP1 PUSH0 MSTORE PUSH1 0x20 PUSH0 KECCAK256 SWAP1 PUSH1 0x11 MUL ADD PUSH1 0x10 ADD PUSH1 0x14 PUSH2 0x100 EXP DUP2 SLOAD DUP2 PUSH1 0xFF MUL NOT AND SWAP1 DUP4 PUSH1 0xA DUP2 GT ISZERO PUSH2 0x260B JUMPI PUSH2 0x260A PUSH2 0x3D83 JUMP JUMPDEST JUMPDEST MUL OR SWAP1 SSTORE POP PUSH2 0x261F DUP7 DUP4 PUSH2 0x200 ADD MLOAD PUSH2 0x3396 JUMP JUMPDEST PUSH32 0x0 PUSH20 0xFFFFFFFFFFFFFFFFFFFFFFFFFFFFFFFFFFFFFFFF AND PUSH4 0x48659097 DUP4 PUSH2 0x200 ADD MLOAD DUP5 PUSH2 0x140 ADD MLOAD PUSH0 PUSH1 0x40 MLOAD DUP5 PUSH4 0xFFFFFFFF AND PUSH1 0xE0 SHL DUP2 MSTORE PUSH1 0x4 ADD PUSH2 0x2686 SWAP4 SWAP3 SWAP2 SWAP1 PUSH2 0x59A6 JUMP JUMPDEST PUSH0 PUSH1 0x40 MLOAD DUP1 DUP4 SUB DUP2 PUSH0 DUP8 DUP1 EXTCODESIZE ISZERO DUP1 ISZERO PUSH2 0x269D JUMPI PUSH0 DUP1 REVERT JUMPDEST POP GAS CALL ISZERO DUP1 ISZERO PUSH2 0x26AF JUMPI RETURNDATASIZE PUSH0 DUP1 RETURNDATACOPY RETURNDATASIZE PUSH0 REVERT JUMPDEST POP POP POP POP PUSH2 0x2799 JUMP JUMPDEST PUSH1 0x9 PUSH0 DUP3 DUP2 SLOAD DUP2 LT PUSH2 0x26CD JUMPI PUSH2 0x26CC PUSH2 0x492A JUMP JUMPDEST JUMPDEST SWAP1 PUSH0 MSTORE PUSH1 0x20 PUSH0 KECCAK256 SWAP1 PUSH1 0x11 MUL ADD PUSH1 0x10 ADD PUSH1 0x14 PUSH2 0x100 EXP DUP2 SLOAD DUP2 PUSH1 0xFF MUL NOT AND SWAP1 DUP4 PUSH1 0xA DUP2 GT ISZERO PUSH2 0x26FE JUMPI PUSH2 0x26FD PUSH2 0x3D83 JUMP JUMPDEST JUMPDEST MUL OR SWAP1 SSTORE POP PUSH32 0x0 PUSH20 0xFFFFFFFFFFFFFFFFFFFFFFFFFFFFFFFFFFFFFFFF AND PUSH4 0x48659097 DUP4 PUSH2 0x200 ADD MLOAD DUP5 PUSH2 0x140 ADD MLOAD PUSH1 0x1 PUSH1 0x40 MLOAD DUP5 PUSH4 0xFFFFFFFF AND PUSH1 0xE0 SHL DUP2 MSTORE PUSH1 0x4 ADD PUSH2 0x276B SWAP4 SWAP3 SWAP2 SWAP1 PUSH2 0x59A6 JUMP JUMPDEST PUSH0 PUSH1 0x40 MLOAD DUP1 DUP4 SUB DUP2 PUSH0 DUP8 DUP1 EXTCODESIZE ISZERO DUP1 ISZERO PUSH2 0x2782 JUMPI PUSH0 DUP1 REVERT JUMPDEST POP GAS CALL ISZERO DUP1 ISZERO PUSH2 0x2794 JUMPI RETURNDATASIZE PUSH0 DUP1 RETURNDATACOPY RETURNDATASIZE PUSH0 REVERT JUMPDEST POP POP POP POP JUMPDEST PUSH32 0x2D9D560C99C3BC1724FC52A39A33A239E75EF98285E83DFB9AA7C87F6B5B289C DUP7 PUSH1 0x40 MLOAD PUSH2 0x27C8 SWAP2 SWAP1 PUSH2 0x4B58 JUMP JUMPDEST PUSH1 0x40 MLOAD DUP1 SWAP2 SUB SWAP1 LOG1 PUSH2 0x2812 JUMP JUMPDEST DUP6 PUSH1 0x40 MLOAD PUSH32 0x48B3CCEC00000000000000000000000000000000000000000000000000000000 DUP2 MSTORE PUSH1 0x4 ADD PUSH2 0x2809 SWAP2 SWAP1 PUSH2 0x5A4B JUMP JUMPDEST PUSH1 0x40 MLOAD DUP1 SWAP2 SUB SWAP1 REVERT JUMPDEST POP POP POP POP POP POP JUMP JUMPDEST CALLER PUSH0 PUSH2 0x2825 DUP4 PUSH2 0x2A66 JUMP JUMPDEST SWAP1 POP PUSH0 DUP2 PUSH0 ADD MLOAD SWAP1 POP PUSH0 DUP3 PUSH1 0x20 ADD MLOAD SWAP1 POP PUSH1 0xA DUP1 DUP2 GT ISZERO PUSH2 0x2849 JUMPI PUSH2 0x2848 PUSH2 0x3D83 JUMP JUMPDEST JUMPDEST DUP3 PUSH2 0x220 ADD MLOAD PUSH1 0xA DUP2 GT ISZERO PUSH2 0x2861 JUMPI PUSH2 0x2860 PUSH2 0x3D83 JUMP JUMPDEST JUMPDEST SUB PUSH2 0x28A3 JUMPI DUP5 PUSH1 0x40 MLOAD PUSH32 0x48B3CCEC00000000000000000000000000000000000000000000000000000000 DUP2 MSTORE PUSH1 0x4 ADD PUSH2 0x289A SWAP2 SWAP1 PUSH2 0x4A12 JUMP JUMPDEST PUSH1 0x40 MLOAD DUP1 SWAP2 SUB SWAP1 REVERT JUMPDEST DUP2 PUSH2 0x1E0 ADD MLOAD TIMESTAMP GT PUSH2 0x28EC JUMPI DUP5 PUSH1 0x40 MLOAD PUSH32 0x94EE0A3B00000000000000000000000000000000000000000000000000000000 DUP2 MSTORE PUSH1 0x4 ADD PUSH2 0x28E3 SWAP2 SWAP1 PUSH2 0x5AC8 JUMP JUMPDEST PUSH1 0x40 MLOAD DUP1 SWAP2 SUB SWAP1 REVERT JUMPDEST PUSH0 PUSH20 0xFFFFFFFFFFFFFFFFFFFFFFFFFFFFFFFFFFFFFFFF AND DUP3 PUSH2 0x200 ADD MLOAD PUSH20 0xFFFFFFFFFFFFFFFFFFFFFFFFFFFFFFFFFFFFFFFF AND SUB PUSH2 0x2994 JUMPI PUSH2 0x12C TIMESTAMP PUSH2 0x2932 SWAP2 SWAP1 PUSH2 0x4831 JUMP JUMPDEST PUSH0 DUP3 DUP2 SLOAD DUP2 LT PUSH2 0x2945 JUMPI PUSH2 0x2944 PUSH2 0x492A JUMP JUMPDEST JUMPDEST SWAP1 PUSH0 MSTORE PUSH1 0x20 PUSH0 KECCAK256 SWAP1 PUSH1 0x11 MUL ADD PUSH1 0xF ADD DUP2 SWAP1 SSTORE POP PUSH32 0x6FFA02C8BC6683D2C360FE816F622F01283F39FF12E8C01BEDFC43B76147C029 DUP6 PUSH1 0x40 MLOAD PUSH2 0x2987 SWAP2 SWAP1 PUSH2 0x5B6B JUMP JUMPDEST PUSH1 0x40 MLOAD DUP1 SWAP2 SUB SWAP1 LOG1 PUSH2 0x2A5F JUMP JUMPDEST CALLER PUSH20 0xFFFFFFFFFFFFFFFFFFFFFFFFFFFFFFFFFFFFFFFF AND DUP3 PUSH2 0x200 ADD MLOAD PUSH20 0xFFFFFFFFFFFFFFFFFFFFFFFFFFFFFFFFFFFFFFFF AND SUB PUSH2 0x2A53 JUMPI PUSH1 0x2 PUSH0 DUP3 DUP2 SLOAD DUP2 LT PUSH2 0x29E1 JUMPI PUSH2 0x29E0 PUSH2 0x492A JUMP JUMPDEST JUMPDEST SWAP1 PUSH0 MSTORE PUSH1 0x20 PUSH0 KECCAK256 SWAP1 PUSH1 0x11 MUL ADD PUSH1 0x10 ADD PUSH1 0x14 PUSH2 0x100 EXP DUP2 SLOAD DUP2 PUSH1 0xFF MUL NOT AND SWAP1 DUP4 PUSH1 0xA DUP2 GT ISZERO PUSH2 0x2A12 JUMPI PUSH2 0x2A11 PUSH2 0x3D83 JUMP JUMPDEST JUMPDEST MUL OR SWAP1 SSTORE POP PUSH32 0xA7BBB94EB5775B8D566C1A849897A78FC3D480884F8E1339E4B72349B9058EBE DUP6 PUSH1 0x40 MLOAD PUSH2 0x2A46 SWAP2 SWAP1 PUSH2 0x5BE8 JUMP JUMPDEST PUSH1 0x40 MLOAD DUP1 SWAP2 SUB SWAP1 LOG1 PUSH2 0x2A5E JUMP JUMPDEST PUSH2 0x2A5D DUP6 CALLER PUSH2 0x3396 JUMP JUMPDEST JUMPDEST JUMPDEST POP POP POP POP POP JUMP JUMPDEST PUSH2 0x2A6E PUSH2 0x3A00 JUMP JUMPDEST PUSH2 0x2A76 PUSH2 0x3A00 JUMP JUMPDEST PUSH0 JUMPDEST PUSH0 DUP1 SLOAD SWAP1 POP DUP2 LT ISZERO PUSH2 0x2F51 JUMPI PUSH20 0x0 PUSH4 0xBED34BBA PUSH0 DUP4 DUP2 SLOAD DUP2 LT PUSH2 0x2AB1 JUMPI PUSH2 0x2AB0 PUSH2 0x492A JUMP JUMPDEST JUMPDEST SWAP1 PUSH0 MSTORE PUSH1 0x20 PUSH0 KECCAK256 SWAP1 PUSH1 0x11 MUL ADD PUSH0 ADD DUP7 PUSH1 0x40 MLOAD DUP4 PUSH4 0xFFFFFFFF AND PUSH1 0xE0 SHL DUP2 MSTORE PUSH1 0x4 ADD PUSH2 0x2ADD SWAP3 SWAP2 SWAP1 PUSH2 0x5CE4 JUMP JUMPDEST PUSH1 0x20 PUSH1 0x40 MLOAD DUP1 DUP4 SUB DUP2 DUP7 GAS DELEGATECALL ISZERO DUP1 ISZERO PUSH2 0x2AF8 JUMPI RETURNDATASIZE PUSH0 DUP1 RETURNDATACOPY RETURNDATASIZE PUSH0 REVERT JUMPDEST POP POP POP POP PUSH1 0x40 MLOAD RETURNDATASIZE PUSH1 0x1F NOT PUSH1 0x1F DUP3 ADD AND DUP3 ADD DUP1 PUSH1 0x40 MSTORE POP DUP2 ADD SWAP1 PUSH2 0x2B1C SWAP2 SWAP1 PUSH2 0x5D4E JUMP JUMPDEST ISZERO PUSH2 0x2F44 JUMPI PUSH0 DUP2 DUP2 SLOAD DUP2 LT PUSH2 0x2B34 JUMPI PUSH2 0x2B33 PUSH2 0x492A JUMP JUMPDEST JUMPDEST SWAP1 PUSH0 MSTORE PUSH1 0x20 PUSH0 KECCAK256 SWAP1 PUSH1 0x11 MUL ADD PUSH1 0x40 MLOAD DUP1 PUSH2 0x240 ADD PUSH1 0x40 MSTORE SWAP1 DUP2 PUSH0 DUP3 ADD DUP1 SLOAD PUSH2 0x2B5B SWAP1 PUSH2 0x4DA1 JUMP JUMPDEST DUP1 PUSH1 0x1F ADD PUSH1 0x20 DUP1 SWAP2 DIV MUL PUSH1 0x20 ADD PUSH1 0x40 MLOAD SWAP1 DUP2 ADD PUSH1 0x40 MSTORE DUP1 SWAP3 SWAP2 SWAP1 DUP2 DUP2 MSTORE PUSH1 0x20 ADD DUP3 DUP1 SLOAD PUSH2 0x2B87 SWAP1 PUSH2 0x4DA1 JUMP JUMPDEST DUP1 ISZERO PUSH2 0x2BD2 JUMPI DUP1 PUSH1 0x1F LT PUSH2 0x2BA9 JUMPI PUSH2 0x100 DUP1 DUP4 SLOAD DIV MUL DUP4 MSTORE SWAP2 PUSH1 0x20 ADD SWAP2 PUSH2 0x2BD2 JUMP JUMPDEST DUP3 ADD SWAP2 SWAP1 PUSH0 MSTORE PUSH1 0x20 PUSH0 KECCAK256 SWAP1 JUMPDEST DUP2 SLOAD DUP2 MSTORE SWAP1 PUSH1 0x1 ADD SWAP1 PUSH1 0x20 ADD DUP1 DUP4 GT PUSH2 0x2BB5 JUMPI DUP3 SWAP1 SUB PUSH1 0x1F AND DUP3 ADD SWAP2 JUMPDEST POP POP POP POP POP DUP2 MSTORE PUSH1 0x20 ADD PUSH1 0x1 DUP3 ADD DUP1 SLOAD PUSH2 0x2BEB SWAP1 PUSH2 0x4DA1 JUMP JUMPDEST DUP1 PUSH1 0x1F ADD PUSH1 0x20 DUP1 SWAP2 DIV MUL PUSH1 0x20 ADD PUSH1 0x40 MLOAD SWAP1 DUP2 ADD PUSH1 0x40 MSTORE DUP1 SWAP3 SWAP2 SWAP1 DUP2 DUP2 MSTORE PUSH1 0x20 ADD DUP3 DUP1 SLOAD PUSH2 0x2C17 SWAP1 PUSH2 0x4DA1 JUMP JUMPDEST DUP1 ISZERO PUSH2 0x2C62 JUMPI DUP1 PUSH1 0x1F LT PUSH2 0x2C39 JUMPI PUSH2 0x100 DUP1 DUP4 SLOAD DIV MUL DUP4 MSTORE SWAP2 PUSH1 0x20 ADD SWAP2 PUSH2 0x2C62 JUMP JUMPDEST DUP3 ADD SWAP2 SWAP1 PUSH0 MSTORE PUSH1 0x20 PUSH0 KECCAK256 SWAP1 JUMPDEST DUP2 SLOAD DUP2 MSTORE SWAP1 PUSH1 0x1 ADD SWAP1 PUSH1 0x20 ADD DUP1 DUP4 GT PUSH2 0x2C45 JUMPI DUP3 SWAP1 SUB PUSH1 0x1F AND DUP3 ADD SWAP2 JUMPDEST POP POP POP POP POP DUP2 MSTORE PUSH1 0x20 ADD PUSH1 0x2 DUP3 ADD PUSH0 SWAP1 SLOAD SWAP1 PUSH2 0x100 EXP SWAP1 DIV PUSH20 0xFFFFFFFFFFFFFFFFFFFFFFFFFFFFFFFFFFFFFFFF AND PUSH20 0xFFFFFFFFFFFFFFFFFFFFFFFFFFFFFFFFFFFFFFFF AND PUSH20 0xFFFFFFFFFFFFFFFFFFFFFFFFFFFFFFFFFFFFFFFF AND DUP2 MSTORE PUSH1 0x20 ADD PUSH1 0x3 DUP3 ADD PUSH0 SWAP1 SLOAD SWAP1 PUSH2 0x100 EXP SWAP1 DIV PUSH20 0xFFFFFFFFFFFFFFFFFFFFFFFFFFFFFFFFFFFFFFFF AND PUSH20 0xFFFFFFFFFFFFFFFFFFFFFFFFFFFFFFFFFFFFFFFF AND PUSH20 0xFFFFFFFFFFFFFFFFFFFFFFFFFFFFFFFFFFFFFFFF AND DUP2 MSTORE PUSH1 0x20 ADD PUSH1 0x4 DUP3 ADD SLOAD DUP2 MSTORE PUSH1 0x20 ADD PUSH1 0x5 DUP3 ADD SLOAD DUP2 MSTORE PUSH1 0x20 ADD PUSH1 0x6 DUP3 ADD SLOAD DUP2 MSTORE PUSH1 0x20 ADD PUSH1 0x7 DUP3 ADD SLOAD DUP2 MSTORE PUSH1 0x20 ADD PUSH1 0x8 DUP3 ADD DUP1 SLOAD PUSH2 0x2D4D SWAP1 PUSH2 0x4DA1 JUMP JUMPDEST DUP1 PUSH1 0x1F ADD PUSH1 0x20 DUP1 SWAP2 DIV MUL PUSH1 0x20 ADD PUSH1 0x40 MLOAD SWAP1 DUP2 ADD PUSH1 0x40 MSTORE DUP1 SWAP3 SWAP2 SWAP1 DUP2 DUP2 MSTORE PUSH1 0x20 ADD DUP3 DUP1 SLOAD PUSH2 0x2D79 SWAP1 PUSH2 0x4DA1 JUMP JUMPDEST DUP1 ISZERO PUSH2 0x2DC4 JUMPI DUP1 PUSH1 0x1F LT PUSH2 0x2D9B JUMPI PUSH2 0x100 DUP1 DUP4 SLOAD DIV MUL DUP4 MSTORE SWAP2 PUSH1 0x20 ADD SWAP2 PUSH2 0x2DC4 JUMP JUMPDEST DUP3 ADD SWAP2 SWAP1 PUSH0 MSTORE PUSH1 0x20 PUSH0 KECCAK256 SWAP1 JUMPDEST DUP2 SLOAD DUP2 MSTORE SWAP1 PUSH1 0x1 ADD SWAP1 PUSH1 0x20 ADD DUP1 DUP4 GT PUSH2 0x2DA7 JUMPI DUP3 SWAP1 SUB PUSH1 0x1F AND DUP3 ADD SWAP2 JUMPDEST POP POP POP POP POP DUP2 MSTORE PUSH1 0x20 ADD PUSH1 0x9 DUP3 ADD DUP1 SLOAD PUSH2 0x2DDD SWAP1 PUSH2 0x4DA1 JUMP JUMPDEST DUP1 PUSH1 0x1F ADD PUSH1 0x20 DUP1 SWAP2 DIV MUL PUSH1 0x20 ADD PUSH1 0x40 MLOAD SWAP1 DUP2 ADD PUSH1 0x40 MSTORE DUP1 SWAP3 SWAP2 SWAP1 DUP2 DUP2 MSTORE PUSH1 0x20 ADD DUP3 DUP1 SLOAD PUSH2 0x2E09 SWAP1 PUSH2 0x4DA1 JUMP JUMPDEST DUP1 ISZERO PUSH2 0x2E54 JUMPI DUP1 PUSH1 0x1F LT PUSH2 0x2E2B JUMPI PUSH2 0x100 DUP1 DUP4 SLOAD DIV MUL DUP4 MSTORE SWAP2 PUSH1 0x20 ADD SWAP2 PUSH2 0x2E54 JUMP JUMPDEST DUP3 ADD SWAP2 SWAP1 PUSH0 MSTORE PUSH1 0x20 PUSH0 KECCAK256 SWAP1 JUMPDEST DUP2 SLOAD DUP2 MSTORE SWAP1 PUSH1 0x1 ADD SWAP1 PUSH1 0x20 ADD DUP1 DUP4 GT PUSH2 0x2E37 JUMPI DUP3 SWAP1 SUB PUSH1 0x1F AND DUP3 ADD SWAP2 JUMPDEST POP POP POP POP POP DUP2 MSTORE PUSH1 0x20 ADD PUSH1 0xA DUP3 ADD SLOAD DUP2 MSTORE PUSH1 0x20 ADD PUSH1 0xB DUP3 ADD SLOAD DUP2 MSTORE PUSH1 0x20 ADD PUSH1 0xC DUP3 ADD SLOAD DUP2 MSTORE PUSH1 0x20 ADD PUSH1 0xD DUP3 ADD SLOAD DUP2 MSTORE PUSH1 0x20 ADD PUSH1 0xE DUP3 ADD SLOAD DUP2 MSTORE PUSH1 0x20 ADD PUSH1 0xF DUP3 ADD SLOAD DUP2 MSTORE PUSH1 0x20 ADD PUSH1 0x10 DUP3 ADD PUSH0 SWAP1 SLOAD SWAP1 PUSH2 0x100 EXP SWAP1 DIV PUSH20 0xFFFFFFFFFFFFFFFFFFFFFFFFFFFFFFFFFFFFFFFF AND PUSH20 0xFFFFFFFFFFFFFFFFFFFFFFFFFFFFFFFFFFFFFFFF AND PUSH20 0xFFFFFFFFFFFFFFFFFFFFFFFFFFFFFFFFFFFFFFFF AND DUP2 MSTORE PUSH1 0x20 ADD PUSH1 0x10 DUP3 ADD PUSH1 0x14 SWAP1 SLOAD SWAP1 PUSH2 0x100 EXP SWAP1 DIV PUSH1 0xFF AND PUSH1 0xA DUP2 GT ISZERO PUSH2 0x2F13 JUMPI PUSH2 0x2F12 PUSH2 0x3D83 JUMP JUMPDEST JUMPDEST PUSH1 0xA DUP2 GT ISZERO PUSH2 0x2F25 JUMPI PUSH2 0x2F24 PUSH2 0x3D83 JUMP JUMPDEST JUMPDEST DUP2 MSTORE POP POP DUP3 PUSH0 ADD DUP2 SWAP1 MSTORE POP DUP1 DUP3 PUSH1 0x20 ADD DUP2 DUP2 MSTORE POP POP DUP2 SWAP3 POP POP POP PUSH2 0x2F8F JUMP JUMPDEST DUP1 DUP1 PUSH1 0x1 ADD SWAP2 POP POP PUSH2 0x2A78 JUMP JUMPDEST POP DUP3 PUSH1 0x40 MLOAD PUSH32 0x972ACEF00000000000000000000000000000000000000000000000000000000 DUP2 MSTORE PUSH1 0x4 ADD PUSH2 0x2F86 SWAP2 SWAP1 PUSH2 0x5DC3 JUMP JUMPDEST PUSH1 0x40 MLOAD DUP1 SWAP2 SUB SWAP1 REVERT JUMPDEST SWAP2 SWAP1 POP JUMP JUMPDEST PUSH1 0x60 PUSH1 0x40 MLOAD DUP1 PUSH1 0x20 ADD PUSH1 0x40 MSTORE DUP1 PUSH0 DUP2 MSTORE POP SWAP1 POP SWAP2 SWAP1 POP JUMP JUMPDEST PUSH0 DUP1 DUP4 SWAP1 POP PUSH0 DUP4 SWAP1 POP DUP1 MLOAD DUP3 MLOAD GT ISZERO PUSH2 0x2FC9 JUMPI PUSH0 SWAP3 POP POP POP PUSH2 0x3079 JUMP JUMPDEST PUSH0 JUMPDEST DUP3 MLOAD DUP2 LT ISZERO PUSH2 0x3071 JUMPI DUP2 DUP2 DUP2 MLOAD DUP2 LT PUSH2 0x2FE7 JUMPI PUSH2 0x2FE6 PUSH2 0x492A JUMP JUMPDEST JUMPDEST PUSH1 0x20 ADD ADD MLOAD PUSH1 0xF8 SHR PUSH1 0xF8 SHL PUSH31 0xFFFFFFFFFFFFFFFFFFFFFFFFFFFFFFFFFFFFFFFFFFFFFFFFFFFFFFFFFFFFFF NOT AND DUP4 DUP3 DUP2 MLOAD DUP2 LT PUSH2 0x3027 JUMPI PUSH2 0x3026 PUSH2 0x492A JUMP JUMPDEST JUMPDEST PUSH1 0x20 ADD ADD MLOAD PUSH1 0xF8 SHR PUSH1 0xF8 SHL PUSH31 0xFFFFFFFFFFFFFFFFFFFFFFFFFFFFFFFFFFFFFFFFFFFFFFFFFFFFFFFFFFFFFF NOT AND EQ PUSH2 0x3064 JUMPI PUSH0 SWAP4 POP POP POP POP PUSH2 0x3079 JUMP JUMPDEST DUP1 DUP1 PUSH1 0x1 ADD SWAP2 POP POP PUSH2 0x2FCB JUMP JUMPDEST POP PUSH1 0x1 SWAP3 POP POP POP JUMPDEST SWAP3 SWAP2 POP POP JUMP JUMPDEST PUSH0 JUMPDEST DUP2 MLOAD DUP2 LT ISZERO PUSH2 0x3125 JUMPI DUP3 PUSH20 0xFFFFFFFFFFFFFFFFFFFFFFFFFFFFFFFFFFFFFFFF AND DUP3 DUP3 DUP2 MLOAD DUP2 LT PUSH2 0x30B4 JUMPI PUSH2 0x30B3 PUSH2 0x492A JUMP JUMPDEST JUMPDEST PUSH1 0x20 MUL PUSH1 0x20 ADD ADD MLOAD PUSH1 0x20 ADD MLOAD PUSH20 0xFFFFFFFFFFFFFFFFFFFFFFFFFFFFFFFFFFFFFFFF AND SUB PUSH2 0x3118 JUMPI DUP3 PUSH1 0x40 MLOAD PUSH32 0xC5F8CAD00000000000000000000000000000000000000000000000000000000 DUP2 MSTORE PUSH1 0x4 ADD PUSH2 0x310F SWAP2 SWAP1 PUSH2 0x5E66 JUMP JUMPDEST PUSH1 0x40 MLOAD DUP1 SWAP2 SUB SWAP1 REVERT JUMPDEST DUP1 DUP1 PUSH1 0x1 ADD SWAP2 POP POP PUSH2 0x3081 JUMP JUMPDEST POP POP POP JUMP JUMPDEST PUSH0 DUP3 PUSH0 ADD MLOAD MLOAD SUB PUSH2 0x3175 JUMPI DUP2 PUSH0 ADD MLOAD PUSH1 0x40 MLOAD PUSH32 0xF65392F500000000000000000000000000000000000000000000000000000000 DUP2 MSTORE PUSH1 0x4 ADD PUSH2 0x316C SWAP2 SWAP1 PUSH2 0x5EDC JUMP JUMPDEST PUSH1 0x40 MLOAD DUP1 SWAP2 SUB SWAP1 REVERT JUMPDEST PUSH2 0x3187 DUP3 PUSH1 0x60 ADD MLOAD DUP4 PUSH1 0x80 ADD MLOAD PUSH2 0x36DC JUMP JUMPDEST PUSH2 0x3199 DUP3 PUSH1 0xA0 ADD MLOAD DUP4 PUSH1 0xC0 ADD MLOAD PUSH2 0x36DC JUMP JUMPDEST PUSH2 0x31A6 DUP3 PUSH1 0xE0 ADD MLOAD PUSH2 0x37D2 JUMP JUMPDEST PUSH2 0x31B4 DUP3 PUSH2 0x100 ADD MLOAD PUSH2 0x37D2 JUMP JUMPDEST PUSH0 DUP3 PUSH2 0x120 ADD MLOAD SUB PUSH2 0x3202 JUMPI DUP2 PUSH2 0x120 ADD MLOAD PUSH1 0x40 MLOAD PUSH32 0x80F71E1200000000000000000000000000000000000000000000000000000000 DUP2 MSTORE PUSH1 0x4 ADD PUSH2 0x31F9 SWAP2 SWAP1 PUSH2 0x5F59 JUMP JUMPDEST PUSH1 0x40 MLOAD DUP1 SWAP2 SUB SWAP1 REVERT JUMPDEST PUSH0 DUP2 SUB PUSH2 0x3246 JUMPI DUP1 PUSH1 0x40 MLOAD PUSH32 0x80F71E1200000000000000000000000000000000000000000000000000000000 DUP2 MSTORE PUSH1 0x4 ADD PUSH2 0x323D SWAP2 SWAP1 PUSH2 0x5FCF JUMP JUMPDEST PUSH1 0x40 MLOAD DUP1 SWAP2 SUB SWAP1 REVERT JUMPDEST PUSH2 0x3260 DUP3 PUSH2 0x140 ADD MLOAD DUP4 PUSH2 0x160 ADD MLOAD DUP5 PUSH2 0x180 ADD MLOAD PUSH2 0x381A JUMP JUMPDEST POP POP JUMP JUMPDEST PUSH1 0x60 PUSH0 PUSH1 0x40 MLOAD DUP1 PUSH1 0x60 ADD PUSH1 0x40 MSTORE DUP1 PUSH1 0x3E DUP2 MSTORE PUSH1 0x20 ADD PUSH2 0x6700 PUSH1 0x3E SWAP2 CODECOPY SWAP1 POP PUSH0 DUP4 PUSH8 0xFFFFFFFFFFFFFFFF DUP2 GT ISZERO PUSH2 0x329D JUMPI PUSH2 0x329C PUSH2 0x3A48 JUMP JUMPDEST JUMPDEST PUSH1 0x40 MLOAD SWAP1 DUP1 DUP3 MSTORE DUP1 PUSH1 0x1F ADD PUSH1 0x1F NOT AND PUSH1 0x20 ADD DUP3 ADD PUSH1 0x40 MSTORE DUP1 ISZERO PUSH2 0x32CF JUMPI DUP2 PUSH1 0x20 ADD PUSH1 0x1 DUP3 MUL DUP1 CALLDATASIZE DUP4 CALLDATACOPY DUP1 DUP3 ADD SWAP2 POP POP SWAP1 POP JUMPDEST POP SWAP1 POP PUSH0 DUP3 MLOAD SWAP1 POP PUSH0 JUMPDEST DUP6 DUP2 LT ISZERO PUSH2 0x338A JUMPI PUSH0 DUP3 TIMESTAMP NUMBER BLOCKHASH DUP5 PUSH1 0x40 MLOAD PUSH1 0x20 ADD PUSH2 0x32F9 SWAP4 SWAP3 SWAP2 SWAP1 PUSH2 0x6044 JUMP JUMPDEST PUSH1 0x40 MLOAD PUSH1 0x20 DUP2 DUP4 SUB SUB DUP2 MSTORE SWAP1 PUSH1 0x40 MSTORE DUP1 MLOAD SWAP1 PUSH1 0x20 ADD KECCAK256 PUSH0 SHR PUSH2 0x331B SWAP2 SWAP1 PUSH2 0x60AD JUMP JUMPDEST SWAP1 POP DUP5 DUP2 DUP2 MLOAD DUP2 LT PUSH2 0x3330 JUMPI PUSH2 0x332F PUSH2 0x492A JUMP JUMPDEST JUMPDEST PUSH1 0x20 ADD ADD MLOAD PUSH1 0xF8 SHR PUSH1 0xF8 SHL DUP5 DUP4 DUP2 MLOAD DUP2 LT PUSH2 0x334E JUMPI PUSH2 0x334D PUSH2 0x492A JUMP JUMPDEST JUMPDEST PUSH1 0x20 ADD ADD SWAP1 PUSH31 0xFFFFFFFFFFFFFFFFFFFFFFFFFFFFFFFFFFFFFFFFFFFFFFFFFFFFFFFFFFFFFF NOT AND SWAP1 DUP2 PUSH0 BYTE SWAP1 MSTORE8 POP POP DUP1 DUP1 PUSH1 0x1 ADD SWAP2 POP POP PUSH2 0x32D9 JUMP JUMPDEST POP DUP2 SWAP4 POP POP POP POP SWAP2 SWAP1 POP JUMP JUMPDEST PUSH0 PUSH1 0x1 DUP4 PUSH1 0x40 MLOAD PUSH2 0x33A7 SWAP2 SWAP1 PUSH2 0x4914 JUMP JUMPDEST SWAP1 DUP2 MSTORE PUSH1 0x20 ADD PUSH1 0x40 MLOAD DUP1 SWAP2 SUB SWAP1 KECCAK256 DUP1 SLOAD DUP1 PUSH1 0x20 MUL PUSH1 0x20 ADD PUSH1 0x40 MLOAD SWAP1 DUP2 ADD PUSH1 0x40 MSTORE DUP1 SWAP3 SWAP2 SWAP1 DUP2 DUP2 MSTORE PUSH1 0x20 ADD PUSH0 SWAP1 JUMPDEST DUP3 DUP3 LT ISZERO PUSH2 0x347D JUMPI DUP4 DUP3 SWAP1 PUSH0 MSTORE PUSH1 0x20 PUSH0 KECCAK256 SWAP1 PUSH1 0x2 MUL ADD PUSH1 0x40 MLOAD DUP1 PUSH1 0x60 ADD PUSH1 0x40 MSTORE SWAP1 DUP2 PUSH0 DUP3 ADD SLOAD DUP2 MSTORE PUSH1 0x20 ADD PUSH1 0x1 DUP3 ADD PUSH0 SWAP1 SLOAD SWAP1 PUSH2 0x100 EXP SWAP1 DIV PUSH20 0xFFFFFFFFFFFFFFFFFFFFFFFFFFFFFFFFFFFFFFFF AND PUSH20 0xFFFFFFFFFFFFFFFFFFFFFFFFFFFFFFFFFFFFFFFF AND PUSH20 0xFFFFFFFFFFFFFFFFFFFFFFFFFFFFFFFFFFFFFFFF AND DUP2 MSTORE PUSH1 0x20 ADD PUSH1 0x1 DUP3 ADD PUSH1 0x14 SWAP1 SLOAD SWAP1 PUSH2 0x100 EXP SWAP1 DIV PUSH1 0xFF AND ISZERO ISZERO ISZERO ISZERO DUP2 MSTORE POP POP DUP2 MSTORE PUSH1 0x20 ADD SWAP1 PUSH1 0x1 ADD SWAP1 PUSH2 0x33D4 JUMP JUMPDEST POP POP POP POP SWAP1 POP PUSH0 JUMPDEST DUP2 MLOAD DUP2 LT ISZERO PUSH2 0x369A JUMPI DUP3 PUSH20 0xFFFFFFFFFFFFFFFFFFFFFFFFFFFFFFFFFFFFFFFF AND DUP3 DUP3 DUP2 MLOAD DUP2 LT PUSH2 0x34B8 JUMPI PUSH2 0x34B7 PUSH2 0x492A JUMP JUMPDEST JUMPDEST PUSH1 0x20 MUL PUSH1 0x20 ADD ADD MLOAD PUSH1 0x20 ADD MLOAD PUSH20 0xFFFFFFFFFFFFFFFFFFFFFFFFFFFFFFFFFFFFFFFF AND SUB PUSH2 0x368D JUMPI DUP2 DUP2 DUP2 MLOAD DUP2 LT PUSH2 0x34F2 JUMPI PUSH2 0x34F1 PUSH2 0x492A JUMP JUMPDEST JUMPDEST PUSH1 0x20 MUL PUSH1 0x20 ADD ADD MLOAD PUSH1 0x40 ADD MLOAD PUSH2 0x364E JUMPI PUSH32 0xA7BBB94EB5775B8D566C1A849897A78FC3D480884F8E1339E4B72349B9058EBE DUP5 PUSH1 0x40 MLOAD PUSH2 0x3531 SWAP2 SWAP1 PUSH2 0x6127 JUMP JUMPDEST PUSH1 0x40 MLOAD DUP1 SWAP2 SUB SWAP1 LOG1 PUSH1 0x1 DUP1 DUP6 PUSH1 0x40 MLOAD PUSH2 0x354A SWAP2 SWAP1 PUSH2 0x4914 JUMP JUMPDEST SWAP1 DUP2 MSTORE PUSH1 0x20 ADD PUSH1 0x40 MLOAD DUP1 SWAP2 SUB SWAP1 KECCAK256 DUP3 DUP2 SLOAD DUP2 LT PUSH2 0x356A JUMPI PUSH2 0x3569 PUSH2 0x492A JUMP JUMPDEST JUMPDEST SWAP1 PUSH0 MSTORE PUSH1 0x20 PUSH0 KECCAK256 SWAP1 PUSH1 0x2 MUL ADD PUSH1 0x1 ADD PUSH1 0x14 PUSH2 0x100 EXP DUP2 SLOAD DUP2 PUSH1 0xFF MUL NOT AND SWAP1 DUP4 ISZERO ISZERO MUL OR SWAP1 SSTORE POP DUP3 PUSH20 0xFFFFFFFFFFFFFFFFFFFFFFFFFFFFFFFFFFFFFFFF AND PUSH2 0x8FC DUP4 DUP4 DUP2 MLOAD DUP2 LT PUSH2 0x35BD JUMPI PUSH2 0x35BC PUSH2 0x492A JUMP JUMPDEST JUMPDEST PUSH1 0x20 MUL PUSH1 0x20 ADD ADD MLOAD PUSH0 ADD MLOAD SWAP1 DUP2 ISZERO MUL SWAP1 PUSH1 0x40 MLOAD PUSH0 PUSH1 0x40 MLOAD DUP1 DUP4 SUB DUP2 DUP6 DUP9 DUP9 CALL SWAP4 POP POP POP POP ISZERO DUP1 ISZERO PUSH2 0x35F0 JUMPI RETURNDATASIZE PUSH0 DUP1 RETURNDATACOPY RETURNDATASIZE PUSH0 REVERT JUMPDEST POP PUSH32 0x678D68581A81FEB175EAA0F9B062DFEB248FF5B449035EB26079CA96C696458F ADDRESS DUP5 DUP5 DUP5 DUP2 MLOAD DUP2 LT PUSH2 0x3627 JUMPI PUSH2 0x3626 PUSH2 0x492A JUMP JUMPDEST JUMPDEST PUSH1 0x20 MUL PUSH1 0x20 ADD ADD MLOAD PUSH0 ADD MLOAD PUSH1 0x40 MLOAD PUSH2 0x3641 SWAP4 SWAP3 SWAP2 SWAP1 PUSH2 0x615A JUMP JUMPDEST PUSH1 0x40 MLOAD DUP1 SWAP2 SUB SWAP1 LOG1 PUSH2 0x3686 JUMP JUMPDEST PUSH32 0xA7BBB94EB5775B8D566C1A849897A78FC3D480884F8E1339E4B72349B9058EBE DUP5 PUSH1 0x40 MLOAD PUSH2 0x367D SWAP2 SWAP1 PUSH2 0x61FF JUMP JUMPDEST PUSH1 0x40 MLOAD DUP1 SWAP2 SUB SWAP1 LOG1 JUMPDEST POP POP PUSH2 0x36D8 JUMP JUMPDEST DUP1 DUP1 PUSH1 0x1 ADD SWAP2 POP POP PUSH2 0x3485 JUMP JUMPDEST POP DUP3 PUSH1 0x40 MLOAD PUSH32 0x48B3CCEC00000000000000000000000000000000000000000000000000000000 DUP2 MSTORE PUSH1 0x4 ADD PUSH2 0x36CF SWAP2 SWAP1 PUSH2 0x62A2 JUMP JUMPDEST PUSH1 0x40 MLOAD DUP1 SWAP2 SUB SWAP1 REVERT JUMPDEST POP POP JUMP JUMPDEST PUSH32 0xFFFFFFFFFFFFFFFFFFFFFFFFFFFFFFFFFFFFFFFFFFFFFFFFF3828EC4B6260000 DUP3 SLT DUP1 PUSH2 0x3711 JUMPI POP PUSH8 0xC7D713B49DA0000 DUP3 SGT JUMPDEST ISZERO PUSH2 0x3755 JUMPI DUP2 DUP2 PUSH1 0x40 MLOAD PUSH32 0xDE0E81DD00000000000000000000000000000000000000000000000000000000 DUP2 MSTORE PUSH1 0x4 ADD PUSH2 0x374C SWAP3 SWAP2 SWAP1 PUSH2 0x632E JUMP JUMPDEST PUSH1 0x40 MLOAD DUP1 SWAP2 SUB SWAP1 REVERT JUMPDEST PUSH32 0xFFFFFFFFFFFFFFFFFFFFFFFFFFFFFFFFFFFFFFFFFFFFFFFFE7051D896C4C0000 DUP2 SLT DUP1 PUSH2 0x378A JUMPI POP PUSH8 0x18FAE27693B40000 DUP2 SGT JUMPDEST ISZERO PUSH2 0x37CE JUMPI DUP2 DUP2 PUSH1 0x40 MLOAD PUSH32 0xDE0E81DD00000000000000000000000000000000000000000000000000000000 DUP2 MSTORE PUSH1 0x4 ADD PUSH2 0x37C5 SWAP3 SWAP2 SWAP1 PUSH2 0x63D8 JUMP JUMPDEST PUSH1 0x40 MLOAD DUP1 SWAP2 SUB SWAP1 REVERT JUMPDEST POP POP JUMP JUMPDEST PUSH0 DUP2 MLOAD SUB PUSH2 0x3817 JUMPI DUP1 PUSH1 0x40 MLOAD PUSH32 0x8B677A5C00000000000000000000000000000000000000000000000000000000 DUP2 MSTORE PUSH1 0x4 ADD PUSH2 0x380E SWAP2 SWAP1 PUSH2 0x645C JUMP JUMPDEST PUSH1 0x40 MLOAD DUP1 SWAP2 SUB SWAP1 REVERT JUMPDEST POP JUMP JUMPDEST PUSH0 DUP2 GT PUSH2 0x385E JUMPI DUP1 PUSH1 0x40 MLOAD PUSH32 0x11A242AF00000000000000000000000000000000000000000000000000000000 DUP2 MSTORE PUSH1 0x4 ADD PUSH2 0x3855 SWAP2 SWAP1 PUSH2 0x64FF JUMP JUMPDEST PUSH1 0x40 MLOAD DUP1 SWAP2 SUB SWAP1 REVERT JUMPDEST TIMESTAMP DUP4 GT PUSH2 0x38A2 JUMPI DUP3 PUSH1 0x40 MLOAD PUSH32 0x11A242AF00000000000000000000000000000000000000000000000000000000 DUP2 MSTORE PUSH1 0x4 ADD PUSH2 0x3899 SWAP2 SWAP1 PUSH2 0x659B JUMP JUMPDEST PUSH1 0x40 MLOAD DUP1 SWAP2 SUB SWAP1 REVERT JUMPDEST TIMESTAMP DUP3 GT PUSH2 0x38E6 JUMPI DUP2 PUSH1 0x40 MLOAD PUSH32 0x11A242AF00000000000000000000000000000000000000000000000000000000 DUP2 MSTORE PUSH1 0x4 ADD PUSH2 0x38DD SWAP2 SWAP1 PUSH2 0x6637 JUMP JUMPDEST PUSH1 0x40 MLOAD DUP1 SWAP2 SUB SWAP1 REVERT JUMPDEST DUP3 DUP3 GT PUSH2 0x392A JUMPI DUP2 PUSH1 0x40 MLOAD PUSH32 0x11A242AF00000000000000000000000000000000000000000000000000000000 DUP2 MSTORE PUSH1 0x4 ADD PUSH2 0x3921 SWAP2 SWAP1 PUSH2 0x66D3 JUMP JUMPDEST PUSH1 0x40 MLOAD DUP1 SWAP2 SUB SWAP1 REVERT JUMPDEST POP POP POP JUMP JUMPDEST PUSH1 0x40 MLOAD DUP1 PUSH2 0x240 ADD PUSH1 0x40 MSTORE DUP1 PUSH1 0x60 DUP2 MSTORE PUSH1 0x20 ADD PUSH1 0x60 DUP2 MSTORE PUSH1 0x20 ADD PUSH0 PUSH20 0xFFFFFFFFFFFFFFFFFFFFFFFFFFFFFFFFFFFFFFFF AND DUP2 MSTORE PUSH1 0x20 ADD PUSH0 PUSH20 0xFFFFFFFFFFFFFFFFFFFFFFFFFFFFFFFFFFFFFFFF AND DUP2 MSTORE PUSH1 0x20 ADD PUSH0 DUP2 MSTORE PUSH1 0x20 ADD PUSH0 DUP2 MSTORE PUSH1 0x20 ADD PUSH0 DUP2 MSTORE PUSH1 0x20 ADD PUSH0 DUP2 MSTORE PUSH1 0x20 ADD PUSH1 0x60 DUP2 MSTORE PUSH1 0x20 ADD PUSH1 0x60 DUP2 MSTORE PUSH1 0x20 ADD PUSH0 DUP2 MSTORE PUSH1 0x20 ADD PUSH0 DUP2 MSTORE PUSH1 0x20 ADD PUSH0 DUP2 MSTORE PUSH1 0x20 ADD PUSH0 DUP2 MSTORE PUSH1 0x20 ADD PUSH0 DUP2 MSTORE PUSH1 0x20 ADD PUSH0 DUP2 MSTORE PUSH1 0x20 ADD PUSH0 PUSH20 0xFFFFFFFFFFFFFFFFFFFFFFFFFFFFFFFFFFFFFFFF AND DUP2 MSTORE PUSH1 0x20 ADD PUSH0 PUSH1 0xA DUP2 GT ISZERO PUSH2 0x39FA JUMPI PUSH2 0x39F9 PUSH2 0x3D83 JUMP JUMPDEST JUMPDEST DUP2 MSTORE POP SWAP1 JUMP JUMPDEST PUSH1 0x40 MLOAD DUP1 PUSH1 0x40 ADD PUSH1 0x40 MSTORE DUP1 PUSH2 0x3A13 PUSH2 0x392F JUMP JUMPDEST DUP2 MSTORE PUSH1 0x20 ADD PUSH0 DUP2 MSTORE POP SWAP1 JUMP JUMPDEST PUSH0 PUSH1 0x40 MLOAD SWAP1 POP SWAP1 JUMP JUMPDEST PUSH0 DUP1 REVERT JUMPDEST PUSH0 DUP1 REVERT JUMPDEST PUSH0 DUP1 REVERT JUMPDEST PUSH0 DUP1 REVERT JUMPDEST PUSH0 PUSH1 0x1F NOT PUSH1 0x1F DUP4 ADD AND SWAP1 POP SWAP2 SWAP1 POP JUMP JUMPDEST PUSH32 0x4E487B7100000000000000000000000000000000000000000000000000000000 PUSH0 MSTORE PUSH1 0x41 PUSH1 0x4 MSTORE PUSH1 0x24 PUSH0 REVERT JUMPDEST PUSH2 0x3A7E DUP3 PUSH2 0x3A38 JUMP JUMPDEST DUP2 ADD DUP2 DUP2 LT PUSH8 0xFFFFFFFFFFFFFFFF DUP3 GT OR ISZERO PUSH2 0x3A9D JUMPI PUSH2 0x3A9C PUSH2 0x3A48 JUMP JUMPDEST JUMPDEST DUP1 PUSH1 0x40 MSTORE POP POP POP JUMP JUMPDEST PUSH0 PUSH2 0x3AAF PUSH2 0x3A1F JUMP JUMPDEST SWAP1 POP PUSH2 0x3ABB DUP3 DUP3 PUSH2 0x3A75 JUMP JUMPDEST SWAP2 SWAP1 POP JUMP JUMPDEST PUSH0 PUSH8 0xFFFFFFFFFFFFFFFF DUP3 GT ISZERO PUSH2 0x3ADA JUMPI PUSH2 0x3AD9 PUSH2 0x3A48 JUMP JUMPDEST JUMPDEST PUSH2 0x3AE3 DUP3 PUSH2 0x3A38 JUMP JUMPDEST SWAP1 POP PUSH1 0x20 DUP2 ADD SWAP1 POP SWAP2 SWAP1 POP JUMP JUMPDEST DUP3 DUP2 DUP4 CALLDATACOPY PUSH0 DUP4 DUP4 ADD MSTORE POP POP POP JUMP JUMPDEST PUSH0 PUSH2 0x3B10 PUSH2 0x3B0B DUP5 PUSH2 0x3AC0 JUMP JUMPDEST PUSH2 0x3AA6 JUMP JUMPDEST SWAP1 POP DUP3 DUP2 MSTORE PUSH1 0x20 DUP2 ADD DUP5 DUP5 DUP5 ADD GT ISZERO PUSH2 0x3B2C JUMPI PUSH2 0x3B2B PUSH2 0x3A34 JUMP JUMPDEST JUMPDEST PUSH2 0x3B37 DUP5 DUP3 DUP6 PUSH2 0x3AF0 JUMP JUMPDEST POP SWAP4 SWAP3 POP POP POP JUMP JUMPDEST PUSH0 DUP3 PUSH1 0x1F DUP4 ADD SLT PUSH2 0x3B53 JUMPI PUSH2 0x3B52 PUSH2 0x3A30 JUMP JUMPDEST JUMPDEST DUP2 CALLDATALOAD PUSH2 0x3B63 DUP5 DUP3 PUSH1 0x20 DUP7 ADD PUSH2 0x3AFE JUMP JUMPDEST SWAP2 POP POP SWAP3 SWAP2 POP POP JUMP JUMPDEST PUSH0 DUP2 SWAP1 POP SWAP2 SWAP1 POP JUMP JUMPDEST PUSH2 0x3B7E DUP2 PUSH2 0x3B6C JUMP JUMPDEST DUP2 EQ PUSH2 0x3B88 JUMPI PUSH0 DUP1 REVERT JUMPDEST POP JUMP JUMPDEST PUSH0 DUP2 CALLDATALOAD SWAP1 POP PUSH2 0x3B99 DUP2 PUSH2 0x3B75 JUMP JUMPDEST SWAP3 SWAP2 POP POP JUMP JUMPDEST PUSH0 DUP1 PUSH1 0x40 DUP4 DUP6 SUB SLT ISZERO PUSH2 0x3BB5 JUMPI PUSH2 0x3BB4 PUSH2 0x3A28 JUMP JUMPDEST JUMPDEST PUSH0 DUP4 ADD CALLDATALOAD PUSH8 0xFFFFFFFFFFFFFFFF DUP2 GT ISZERO PUSH2 0x3BD2 JUMPI PUSH2 0x3BD1 PUSH2 0x3A2C JUMP JUMPDEST JUMPDEST PUSH2 0x3BDE DUP6 DUP3 DUP7 ADD PUSH2 0x3B3F JUMP JUMPDEST SWAP3 POP POP PUSH1 0x20 PUSH2 0x3BEF DUP6 DUP3 DUP7 ADD PUSH2 0x3B8B JUMP JUMPDEST SWAP2 POP POP SWAP3 POP SWAP3 SWAP1 POP JUMP JUMPDEST PUSH1 0xB DUP2 LT PUSH2 0x3C05 JUMPI PUSH0 DUP1 REVERT JUMPDEST POP JUMP JUMPDEST PUSH0 DUP2 CALLDATALOAD SWAP1 POP PUSH2 0x3C16 DUP2 PUSH2 0x3BF9 JUMP JUMPDEST SWAP3 SWAP2 POP POP JUMP JUMPDEST PUSH0 DUP1 PUSH1 0x40 DUP4 DUP6 SUB SLT ISZERO PUSH2 0x3C32 JUMPI PUSH2 0x3C31 PUSH2 0x3A28 JUMP JUMPDEST JUMPDEST PUSH0 DUP4 ADD CALLDATALOAD PUSH8 0xFFFFFFFFFFFFFFFF DUP2 GT ISZERO PUSH2 0x3C4F JUMPI PUSH2 0x3C4E PUSH2 0x3A2C JUMP JUMPDEST JUMPDEST PUSH2 0x3C5B DUP6 DUP3 DUP7 ADD PUSH2 0x3B3F JUMP JUMPDEST SWAP3 POP POP PUSH1 0x20 PUSH2 0x3C6C DUP6 DUP3 DUP7 ADD PUSH2 0x3C08 JUMP JUMPDEST SWAP2 POP POP SWAP3 POP SWAP3 SWAP1 POP JUMP JUMPDEST PUSH0 PUSH1 0x20 DUP3 DUP5 SUB SLT ISZERO PUSH2 0x3C8B JUMPI PUSH2 0x3C8A PUSH2 0x3A28 JUMP JUMPDEST JUMPDEST PUSH0 DUP3 ADD CALLDATALOAD PUSH8 0xFFFFFFFFFFFFFFFF DUP2 GT ISZERO PUSH2 0x3CA8 JUMPI PUSH2 0x3CA7 PUSH2 0x3A2C JUMP JUMPDEST JUMPDEST PUSH2 0x3CB4 DUP5 DUP3 DUP6 ADD PUSH2 0x3B3F JUMP JUMPDEST SWAP2 POP POP SWAP3 SWAP2 POP POP JUMP JUMPDEST PUSH0 DUP2 MLOAD SWAP1 POP SWAP2 SWAP1 POP JUMP JUMPDEST PUSH0 DUP3 DUP3 MSTORE PUSH1 0x20 DUP3 ADD SWAP1 POP SWAP3 SWAP2 POP POP JUMP JUMPDEST DUP3 DUP2 DUP4 MCOPY PUSH0 DUP4 DUP4 ADD MSTORE POP POP POP JUMP JUMPDEST PUSH0 PUSH2 0x3CEF DUP3 PUSH2 0x3CBD JUMP JUMPDEST PUSH2 0x3CF9 DUP2 DUP6 PUSH2 0x3CC7 JUMP JUMPDEST SWAP4 POP PUSH2 0x3D09 DUP2 DUP6 PUSH1 0x20 DUP7 ADD PUSH2 0x3CD7 JUMP JUMPDEST PUSH2 0x3D12 DUP2 PUSH2 0x3A38 JUMP JUMPDEST DUP5 ADD SWAP2 POP POP SWAP3 SWAP2 POP POP JUMP JUMPDEST PUSH0 PUSH20 0xFFFFFFFFFFFFFFFFFFFFFFFFFFFFFFFFFFFFFFFF DUP3 AND SWAP1 POP SWAP2 SWAP1 POP JUMP JUMPDEST PUSH0 PUSH2 0x3D46 DUP3 PUSH2 0x3D1D JUMP JUMPDEST SWAP1 POP SWAP2 SWAP1 POP JUMP JUMPDEST PUSH2 0x3D56 DUP2 PUSH2 0x3D3C JUMP JUMPDEST DUP3 MSTORE POP POP JUMP JUMPDEST PUSH0 DUP2 SWAP1 POP SWAP2 SWAP1 POP JUMP JUMPDEST PUSH2 0x3D6E DUP2 PUSH2 0x3D5C JUMP JUMPDEST DUP3 MSTORE POP POP JUMP JUMPDEST PUSH2 0x3D7D DUP2 PUSH2 0x3B6C JUMP JUMPDEST DUP3 MSTORE POP POP JUMP JUMPDEST PUSH32 0x4E487B7100000000000000000000000000000000000000000000000000000000 PUSH0 MSTORE PUSH1 0x21 PUSH1 0x4 MSTORE PUSH1 0x24 PUSH0 REVERT JUMPDEST PUSH1 0xB DUP2 LT PUSH2 0x3DC1 JUMPI PUSH2 0x3DC0 PUSH2 0x3D83 JUMP JUMPDEST JUMPDEST POP JUMP JUMPDEST PUSH0 DUP2 SWAP1 POP PUSH2 0x3DD1 DUP3 PUSH2 0x3DB0 JUMP JUMPDEST SWAP2 SWAP1 POP JUMP JUMPDEST PUSH0 PUSH2 0x3DE0 DUP3 PUSH2 0x3DC4 JUMP JUMPDEST SWAP1 POP SWAP2 SWAP1 POP JUMP JUMPDEST PUSH2 0x3DF0 DUP2 PUSH2 0x3DD6 JUMP JUMPDEST DUP3 MSTORE POP POP JUMP JUMPDEST PUSH0 PUSH2 0x240 DUP4 ADD PUSH0 DUP4 ADD MLOAD DUP5 DUP3 SUB PUSH0 DUP7 ADD MSTORE PUSH2 0x3E11 DUP3 DUP3 PUSH2 0x3CE5 JUMP JUMPDEST SWAP2 POP POP PUSH1 0x20 DUP4 ADD MLOAD DUP5 DUP3 SUB PUSH1 0x20 DUP7 ADD MSTORE PUSH2 0x3E2B DUP3 DUP3 PUSH2 0x3CE5 JUMP JUMPDEST SWAP2 POP POP PUSH1 0x40 DUP4 ADD MLOAD PUSH2 0x3E40 PUSH1 0x40 DUP7 ADD DUP3 PUSH2 0x3D4D JUMP JUMPDEST POP PUSH1 0x60 DUP4 ADD MLOAD PUSH2 0x3E53 PUSH1 0x60 DUP7 ADD DUP3 PUSH2 0x3D4D JUMP JUMPDEST POP PUSH1 0x80 DUP4 ADD MLOAD PUSH2 0x3E66 PUSH1 0x80 DUP7 ADD DUP3 PUSH2 0x3D65 JUMP JUMPDEST POP PUSH1 0xA0 DUP4 ADD MLOAD PUSH2 0x3E79 PUSH1 0xA0 DUP7 ADD DUP3 PUSH2 0x3D65 JUMP JUMPDEST POP PUSH1 0xC0 DUP4 ADD MLOAD PUSH2 0x3E8C PUSH1 0xC0 DUP7 ADD DUP3 PUSH2 0x3D65 JUMP JUMPDEST POP PUSH1 0xE0 DUP4 ADD MLOAD PUSH2 0x3E9F PUSH1 0xE0 DUP7 ADD DUP3 PUSH2 0x3D65 JUMP JUMPDEST POP PUSH2 0x100 DUP4 ADD MLOAD DUP5 DUP3 SUB PUSH2 0x100 DUP7 ADD MSTORE PUSH2 0x3EB9 DUP3 DUP3 PUSH2 0x3CE5 JUMP JUMPDEST SWAP2 POP POP PUSH2 0x120 DUP4 ADD MLOAD DUP5 DUP3 SUB PUSH2 0x120 DUP7 ADD MSTORE PUSH2 0x3ED5 DUP3 DUP3 PUSH2 0x3CE5 JUMP JUMPDEST SWAP2 POP POP PUSH2 0x140 DUP4 ADD MLOAD PUSH2 0x3EEC PUSH2 0x140 DUP7 ADD DUP3 PUSH2 0x3D74 JUMP JUMPDEST POP PUSH2 0x160 DUP4 ADD MLOAD PUSH2 0x3F01 PUSH2 0x160 DUP7 ADD DUP3 PUSH2 0x3D74 JUMP JUMPDEST POP PUSH2 0x180 DUP4 ADD MLOAD PUSH2 0x3F16 PUSH2 0x180 DUP7 ADD DUP3 PUSH2 0x3D74 JUMP JUMPDEST POP PUSH2 0x1A0 DUP4 ADD MLOAD PUSH2 0x3F2B PUSH2 0x1A0 DUP7 ADD DUP3 PUSH2 0x3D74 JUMP JUMPDEST POP PUSH2 0x1C0 DUP4 ADD MLOAD PUSH2 0x3F40 PUSH2 0x1C0 DUP7 ADD DUP3 PUSH2 0x3D74 JUMP JUMPDEST POP PUSH2 0x1E0 DUP4 ADD MLOAD PUSH2 0x3F55 PUSH2 0x1E0 DUP7 ADD DUP3 PUSH2 0x3D74 JUMP JUMPDEST POP PUSH2 0x200 DUP4 ADD MLOAD PUSH2 0x3F6A PUSH2 0x200 DUP7 ADD DUP3 PUSH2 0x3D4D JUMP JUMPDEST POP PUSH2 0x220 DUP4 ADD MLOAD PUSH2 0x3F7F PUSH2 0x220 DUP7 ADD DUP3 PUSH2 0x3DE7 JUMP JUMPDEST POP DUP1 SWAP2 POP POP SWAP3 SWAP2 POP POP JUMP JUMPDEST PUSH0 PUSH1 0x20 DUP3 ADD SWAP1 POP DUP2 DUP2 SUB PUSH0 DUP4 ADD MSTORE PUSH2 0x3FA2 DUP2 DUP5 PUSH2 0x3DF6 JUMP JUMPDEST SWAP1 POP SWAP3 SWAP2 POP POP JUMP JUMPDEST PUSH0 DUP2 MLOAD SWAP1 POP SWAP2 SWAP1 POP JUMP JUMPDEST PUSH0 DUP3 DUP3 MSTORE PUSH1 0x20 DUP3 ADD SWAP1 POP SWAP3 SWAP2 POP POP JUMP JUMPDEST PUSH0 DUP2 SWAP1 POP PUSH1 0x20 DUP3 ADD SWAP1 POP SWAP2 SWAP1 POP JUMP JUMPDEST PUSH0 PUSH2 0x240 DUP4 ADD PUSH0 DUP4 ADD MLOAD DUP5 DUP3 SUB PUSH0 DUP7 ADD MSTORE PUSH2 0x3FEE DUP3 DUP3 PUSH2 0x3CE5 JUMP JUMPDEST SWAP2 POP POP PUSH1 0x20 DUP4 ADD MLOAD DUP5 DUP3 SUB PUSH1 0x20 DUP7 ADD MSTORE PUSH2 0x4008 DUP3 DUP3 PUSH2 0x3CE5 JUMP JUMPDEST SWAP2 POP POP PUSH1 0x40 DUP4 ADD MLOAD PUSH2 0x401D PUSH1 0x40 DUP7 ADD DUP3 PUSH2 0x3D4D JUMP JUMPDEST POP PUSH1 0x60 DUP4 ADD MLOAD PUSH2 0x4030 PUSH1 0x60 DUP7 ADD DUP3 PUSH2 0x3D4D JUMP JUMPDEST POP PUSH1 0x80 DUP4 ADD MLOAD PUSH2 0x4043 PUSH1 0x80 DUP7 ADD DUP3 PUSH2 0x3D65 JUMP JUMPDEST POP PUSH1 0xA0 DUP4 ADD MLOAD PUSH2 0x4056 PUSH1 0xA0 DUP7 ADD DUP3 PUSH2 0x3D65 JUMP JUMPDEST POP PUSH1 0xC0 DUP4 ADD MLOAD PUSH2 0x4069 PUSH1 0xC0 DUP7 ADD DUP3 PUSH2 0x3D65 JUMP JUMPDEST POP PUSH1 0xE0 DUP4 ADD MLOAD PUSH2 0x407C PUSH1 0xE0 DUP7 ADD DUP3 PUSH2 0x3D65 JUMP JUMPDEST POP PUSH2 0x100 DUP4 ADD MLOAD DUP5 DUP3 SUB PUSH2 0x100 DUP7 ADD MSTORE PUSH2 0x4096 DUP3 DUP3 PUSH2 0x3CE5 JUMP JUMPDEST SWAP2 POP POP PUSH2 0x120 DUP4 ADD MLOAD DUP5 DUP3 SUB PUSH2 0x120 DUP7 ADD MSTORE PUSH2 0x40B2 DUP3 DUP3 PUSH2 0x3CE5 JUMP JUMPDEST SWAP2 POP POP PUSH2 0x140 DUP4 ADD MLOAD PUSH2 0x40C9 PUSH2 0x140 DUP7 ADD DUP3 PUSH2 0x3D74 JUMP JUMPDEST POP PUSH2 0x160 DUP4 ADD MLOAD PUSH2 0x40DE PUSH2 0x160 DUP7 ADD DUP3 PUSH2 0x3D74 JUMP JUMPDEST POP PUSH2 0x180 DUP4 ADD MLOAD PUSH2 0x40F3 PUSH2 0x180 DUP7 ADD DUP3 PUSH2 0x3D74 JUMP JUMPDEST POP PUSH2 0x1A0 DUP4 ADD MLOAD PUSH2 0x4108 PUSH2 0x1A0 DUP7 ADD DUP3 PUSH2 0x3D74 JUMP JUMPDEST POP PUSH2 0x1C0 DUP4 ADD MLOAD PUSH2 0x411D PUSH2 0x1C0 DUP7 ADD DUP3 PUSH2 0x3D74 JUMP JUMPDEST POP PUSH2 0x1E0 DUP4 ADD MLOAD PUSH2 0x4132 PUSH2 0x1E0 DUP7 ADD DUP3 PUSH2 0x3D74 JUMP JUMPDEST POP PUSH2 0x200 DUP4 ADD MLOAD PUSH2 0x4147 PUSH2 0x200 DUP7 ADD DUP3 PUSH2 0x3D4D JUMP JUMPDEST POP PUSH2 0x220 DUP4 ADD MLOAD PUSH2 0x415C PUSH2 0x220 DUP7 ADD DUP3 PUSH2 0x3DE7 JUMP JUMPDEST POP DUP1 SWAP2 POP POP SWAP3 SWAP2 POP POP JUMP JUMPDEST PUSH0 PUSH2 0x4172 DUP4 DUP4 PUSH2 0x3FD3 JUMP JUMPDEST SWAP1 POP SWAP3 SWAP2 POP POP JUMP JUMPDEST PUSH0 PUSH1 0x20 DUP3 ADD SWAP1 POP SWAP2 SWAP1 POP JUMP JUMPDEST PUSH0 PUSH2 0x4190 DUP3 PUSH2 0x3FAA JUMP JUMPDEST PUSH2 0x419A DUP2 DUP6 PUSH2 0x3FB4 JUMP JUMPDEST SWAP4 POP DUP4 PUSH1 0x20 DUP3 MUL DUP6 ADD PUSH2 0x41AC DUP6 PUSH2 0x3FC4 JUMP JUMPDEST DUP1 PUSH0 JUMPDEST DUP6 DUP2 LT ISZERO PUSH2 0x41E7 JUMPI DUP5 DUP5 SUB DUP10 MSTORE DUP2 MLOAD PUSH2 0x41C8 DUP6 DUP3 PUSH2 0x4167 JUMP JUMPDEST SWAP5 POP PUSH2 0x41D3 DUP4 PUSH2 0x417A JUMP JUMPDEST SWAP3 POP PUSH1 0x20 DUP11 ADD SWAP10 POP POP PUSH1 0x1 DUP2 ADD SWAP1 POP PUSH2 0x41AF JUMP JUMPDEST POP DUP3 SWAP8 POP DUP8 SWAP6 POP POP POP POP POP POP SWAP3 SWAP2 POP POP JUMP JUMPDEST PUSH0 PUSH1 0x20 DUP3 ADD SWAP1 POP DUP2 DUP2 SUB PUSH0 DUP4 ADD MSTORE PUSH2 0x4211 DUP2 DUP5 PUSH2 0x4186 JUMP JUMPDEST SWAP1 POP SWAP3 SWAP2 POP POP JUMP JUMPDEST PUSH0 DUP1 REVERT JUMPDEST PUSH0 DUP1 REVERT JUMPDEST PUSH2 0x422A DUP2 PUSH2 0x3D3C JUMP JUMPDEST DUP2 EQ PUSH2 0x4234 JUMPI PUSH0 DUP1 REVERT JUMPDEST POP JUMP JUMPDEST PUSH0 DUP2 CALLDATALOAD SWAP1 POP PUSH2 0x4245 DUP2 PUSH2 0x4221 JUMP JUMPDEST SWAP3 SWAP2 POP POP JUMP JUMPDEST PUSH2 0x4254 DUP2 PUSH2 0x3D5C JUMP JUMPDEST DUP2 EQ PUSH2 0x425E JUMPI PUSH0 DUP1 REVERT JUMPDEST POP JUMP JUMPDEST PUSH0 DUP2 CALLDATALOAD SWAP1 POP PUSH2 0x426F DUP2 PUSH2 0x424B JUMP JUMPDEST SWAP3 SWAP2 POP POP JUMP JUMPDEST PUSH1 0x2 DUP2 LT PUSH2 0x4281 JUMPI PUSH0 DUP1 REVERT JUMPDEST POP JUMP JUMPDEST PUSH0 DUP2 CALLDATALOAD SWAP1 POP PUSH2 0x4292 DUP2 PUSH2 0x4275 JUMP JUMPDEST SWAP3 SWAP2 POP POP JUMP JUMPDEST PUSH0 PUSH2 0x1C0 DUP3 DUP5 SUB SLT ISZERO PUSH2 0x42AE JUMPI PUSH2 0x42AD PUSH2 0x4219 JUMP JUMPDEST JUMPDEST PUSH2 0x42B9 PUSH2 0x1C0 PUSH2 0x3AA6 JUMP JUMPDEST SWAP1 POP PUSH0 DUP3 ADD CALLDATALOAD PUSH8 0xFFFFFFFFFFFFFFFF DUP2 GT ISZERO PUSH2 0x42D8 JUMPI PUSH2 0x42D7 PUSH2 0x421D JUMP JUMPDEST JUMPDEST PUSH2 0x42E4 DUP5 DUP3 DUP6 ADD PUSH2 0x3B3F JUMP JUMPDEST PUSH0 DUP4 ADD MSTORE POP PUSH1 0x20 PUSH2 0x42F7 DUP5 DUP3 DUP6 ADD PUSH2 0x4237 JUMP JUMPDEST PUSH1 0x20 DUP4 ADD MSTORE POP PUSH1 0x40 PUSH2 0x430B DUP5 DUP3 DUP6 ADD PUSH2 0x4237 JUMP JUMPDEST PUSH1 0x40 DUP4 ADD MSTORE POP PUSH1 0x60 PUSH2 0x431F DUP5 DUP3 DUP6 ADD PUSH2 0x4261 JUMP JUMPDEST PUSH1 0x60 DUP4 ADD MSTORE POP PUSH1 0x80 PUSH2 0x4333 DUP5 DUP3 DUP6 ADD PUSH2 0x4261 JUMP JUMPDEST PUSH1 0x80 DUP4 ADD MSTORE POP PUSH1 0xA0 PUSH2 0x4347 DUP5 DUP3 DUP6 ADD PUSH2 0x4261 JUMP JUMPDEST PUSH1 0xA0 DUP4 ADD MSTORE POP PUSH1 0xC0 PUSH2 0x435B DUP5 DUP3 DUP6 ADD PUSH2 0x4261 JUMP JUMPDEST PUSH1 0xC0 DUP4 ADD MSTORE POP PUSH1 0xE0 DUP3 ADD CALLDATALOAD PUSH8 0xFFFFFFFFFFFFFFFF DUP2 GT ISZERO PUSH2 0x437F JUMPI PUSH2 0x437E PUSH2 0x421D JUMP JUMPDEST JUMPDEST PUSH2 0x438B DUP5 DUP3 DUP6 ADD PUSH2 0x3B3F JUMP JUMPDEST PUSH1 0xE0 DUP4 ADD MSTORE POP PUSH2 0x100 DUP3 ADD CALLDATALOAD PUSH8 0xFFFFFFFFFFFFFFFF DUP2 GT ISZERO PUSH2 0x43B0 JUMPI PUSH2 0x43AF PUSH2 0x421D JUMP JUMPDEST JUMPDEST PUSH2 0x43BC DUP5 DUP3 DUP6 ADD PUSH2 0x3B3F JUMP JUMPDEST PUSH2 0x100 DUP4 ADD MSTORE POP PUSH2 0x120 PUSH2 0x43D2 DUP5 DUP3 DUP6 ADD PUSH2 0x3B8B JUMP JUMPDEST PUSH2 0x120 DUP4 ADD MSTORE POP PUSH2 0x140 PUSH2 0x43E8 DUP5 DUP3 DUP6 ADD PUSH2 0x3B8B JUMP JUMPDEST PUSH2 0x140 DUP4 ADD MSTORE POP PUSH2 0x160 PUSH2 0x43FE DUP5 DUP3 DUP6 ADD PUSH2 0x3B8B JUMP JUMPDEST PUSH2 0x160 DUP4 ADD MSTORE POP PUSH2 0x180 PUSH2 0x4414 DUP5 DUP3 DUP6 ADD PUSH2 0x3B8B JUMP JUMPDEST PUSH2 0x180 DUP4 ADD MSTORE POP PUSH2 0x1A0 PUSH2 0x442A DUP5 DUP3 DUP6 ADD PUSH2 0x4284 JUMP JUMPDEST PUSH2 0x1A0 DUP4 ADD MSTORE POP SWAP3 SWAP2 POP POP JUMP JUMPDEST PUSH0 PUSH1 0x20 DUP3 DUP5 SUB SLT ISZERO PUSH2 0x444C JUMPI PUSH2 0x444B PUSH2 0x3A28 JUMP JUMPDEST JUMPDEST PUSH0 DUP3 ADD CALLDATALOAD PUSH8 0xFFFFFFFFFFFFFFFF DUP2 GT ISZERO PUSH2 0x4469 JUMPI PUSH2 0x4468 PUSH2 0x3A2C JUMP JUMPDEST JUMPDEST PUSH2 0x4475 DUP5 DUP3 DUP6 ADD PUSH2 0x4298 JUMP JUMPDEST SWAP2 POP POP SWAP3 SWAP2 POP POP JUMP JUMPDEST PUSH1 0x2 DUP2 LT PUSH2 0x448A JUMPI PUSH0 DUP1 REVERT JUMPDEST POP JUMP JUMPDEST PUSH0 DUP2 CALLDATALOAD SWAP1 POP PUSH2 0x449B DUP2 PUSH2 0x447E JUMP JUMPDEST SWAP3 SWAP2 POP POP JUMP JUMPDEST PUSH0 DUP1 PUSH0 PUSH1 0x60 DUP5 DUP7 SUB SLT ISZERO PUSH2 0x44B8 JUMPI PUSH2 0x44B7 PUSH2 0x3A28 JUMP JUMPDEST JUMPDEST PUSH0 DUP5 ADD CALLDATALOAD PUSH8 0xFFFFFFFFFFFFFFFF DUP2 GT ISZERO PUSH2 0x44D5 JUMPI PUSH2 0x44D4 PUSH2 0x3A2C JUMP JUMPDEST JUMPDEST PUSH2 0x44E1 DUP7 DUP3 DUP8 ADD PUSH2 0x3B3F JUMP JUMPDEST SWAP4 POP POP PUSH1 0x20 PUSH2 0x44F2 DUP7 DUP3 DUP8 ADD PUSH2 0x3C08 JUMP JUMPDEST SWAP3 POP POP PUSH1 0x40 PUSH2 0x4503 DUP7 DUP3 DUP8 ADD PUSH2 0x448D JUMP JUMPDEST SWAP2 POP POP SWAP3 POP SWAP3 POP SWAP3 JUMP JUMPDEST PUSH32 0x4E487B7100000000000000000000000000000000000000000000000000000000 PUSH0 MSTORE PUSH1 0x11 PUSH1 0x4 MSTORE PUSH1 0x24 PUSH0 REVERT JUMPDEST PUSH0 PUSH2 0x4544 DUP3 PUSH2 0x3B6C JUMP JUMPDEST SWAP2 POP PUSH2 0x454F DUP4 PUSH2 0x3B6C JUMP JUMPDEST SWAP3 POP DUP3 DUP3 MUL PUSH2 0x455D DUP2 PUSH2 0x3B6C JUMP JUMPDEST SWAP2 POP DUP3 DUP3 DIV DUP5 EQ DUP4 ISZERO OR PUSH2 0x4574 JUMPI PUSH2 0x4573 PUSH2 0x450D JUMP JUMPDEST JUMPDEST POP SWAP3 SWAP2 POP POP JUMP JUMPDEST PUSH0 DUP3 DUP3 MSTORE PUSH1 0x20 DUP3 ADD SWAP1 POP SWAP3 SWAP2 POP POP JUMP JUMPDEST PUSH0 PUSH2 0x4595 DUP3 PUSH2 0x3CBD JUMP JUMPDEST PUSH2 0x459F DUP2 DUP6 PUSH2 0x457B JUMP JUMPDEST SWAP4 POP PUSH2 0x45AF DUP2 DUP6 PUSH1 0x20 DUP7 ADD PUSH2 0x3CD7 JUMP JUMPDEST PUSH2 0x45B8 DUP2 PUSH2 0x3A38 JUMP JUMPDEST DUP5 ADD SWAP2 POP POP SWAP3 SWAP2 POP POP JUMP JUMPDEST PUSH32 0x536572766963652072657175657374206973206E6F7420696E2061756374696F PUSH0 DUP3 ADD MSTORE PUSH32 0x6E207269676874206E6F77000000000000000000000000000000000000000000 PUSH1 0x20 DUP3 ADD MSTORE POP JUMP JUMPDEST PUSH0 PUSH2 0x461D PUSH1 0x2B DUP4 PUSH2 0x457B JUMP JUMPDEST SWAP2 POP PUSH2 0x4628 DUP3 PUSH2 0x45C3 JUMP JUMPDEST PUSH1 0x40 DUP3 ADD SWAP1 POP SWAP2 SWAP1 POP JUMP JUMPDEST PUSH0 PUSH1 0x40 DUP3 ADD SWAP1 POP DUP2 DUP2 SUB PUSH0 DUP4 ADD MSTORE PUSH2 0x464B DUP2 DUP5 PUSH2 0x458B JUMP JUMPDEST SWAP1 POP DUP2 DUP2 SUB PUSH1 0x20 DUP4 ADD MSTORE PUSH2 0x465E DUP2 PUSH2 0x4611 JUMP JUMPDEST SWAP1 POP SWAP3 SWAP2 POP POP JUMP JUMPDEST PUSH32 0x41756374696F6E20656E64656420616C72656164790000000000000000000000 PUSH0 DUP3 ADD MSTORE POP JUMP JUMPDEST PUSH0 PUSH2 0x469A PUSH1 0x15 DUP4 PUSH2 0x457B JUMP JUMPDEST SWAP2 POP PUSH2 0x46A5 DUP3 PUSH2 0x4666 JUMP JUMPDEST PUSH1 0x20 DUP3 ADD SWAP1 POP SWAP2 SWAP1 POP JUMP JUMPDEST PUSH0 PUSH1 0x40 DUP3 ADD SWAP1 POP DUP2 DUP2 SUB PUSH0 DUP4 ADD MSTORE PUSH2 0x46C8 DUP2 DUP5 PUSH2 0x458B JUMP JUMPDEST SWAP1 POP DUP2 DUP2 SUB PUSH1 0x20 DUP4 ADD MSTORE PUSH2 0x46DB DUP2 PUSH2 0x468E JUMP JUMPDEST SWAP1 POP SWAP3 SWAP2 POP POP JUMP JUMPDEST PUSH32 0x536572766963652072657175657374206E6F7420696E20796F75722072656769 PUSH0 DUP3 ADD MSTORE PUSH32 0x6F6E000000000000000000000000000000000000000000000000000000000000 PUSH1 0x20 DUP3 ADD MSTORE POP JUMP JUMPDEST PUSH0 PUSH2 0x473D PUSH1 0x22 DUP4 PUSH2 0x457B JUMP JUMPDEST SWAP2 POP PUSH2 0x4748 DUP3 PUSH2 0x46E3 JUMP JUMPDEST PUSH1 0x40 DUP3 ADD SWAP1 POP SWAP2 SWAP1 POP JUMP JUMPDEST PUSH0 PUSH1 0x40 DUP3 ADD SWAP1 POP DUP2 DUP2 SUB PUSH0 DUP4 ADD MSTORE PUSH2 0x476B DUP2 DUP5 PUSH2 0x458B JUMP JUMPDEST SWAP1 POP DUP2 DUP2 SUB PUSH1 0x20 DUP4 ADD MSTORE PUSH2 0x477E DUP2 PUSH2 0x4731 JUMP JUMPDEST SWAP1 POP SWAP3 SWAP2 POP POP JUMP JUMPDEST PUSH2 0x478F DUP2 PUSH2 0x3B6C JUMP JUMPDEST DUP3 MSTORE POP POP JUMP JUMPDEST PUSH32 0x506C656173652073656E642076616C696420636172676F20696E73757261626C PUSH0 DUP3 ADD MSTORE PUSH32 0x652076616C756500000000000000000000000000000000000000000000000000 PUSH1 0x20 DUP3 ADD MSTORE POP JUMP JUMPDEST PUSH0 PUSH2 0x47EF PUSH1 0x27 DUP4 PUSH2 0x457B JUMP JUMPDEST SWAP2 POP PUSH2 0x47FA DUP3 PUSH2 0x4795 JUMP JUMPDEST PUSH1 0x40 DUP3 ADD SWAP1 POP SWAP2 SWAP1 POP JUMP JUMPDEST PUSH0 PUSH1 0x40 DUP3 ADD SWAP1 POP PUSH2 0x4818 PUSH0 DUP4 ADD DUP5 PUSH2 0x4786 JUMP JUMPDEST DUP2 DUP2 SUB PUSH1 0x20 DUP4 ADD MSTORE PUSH2 0x4829 DUP2 PUSH2 0x47E3 JUMP JUMPDEST SWAP1 POP SWAP3 SWAP2 POP POP JUMP JUMPDEST PUSH0 PUSH2 0x483B DUP3 PUSH2 0x3B6C JUMP JUMPDEST SWAP2 POP PUSH2 0x4846 DUP4 PUSH2 0x3B6C JUMP JUMPDEST SWAP3 POP DUP3 DUP3 ADD SWAP1 POP DUP1 DUP3 GT ISZERO PUSH2 0x485E JUMPI PUSH2 0x485D PUSH2 0x450D JUMP JUMPDEST JUMPDEST SWAP3 SWAP2 POP POP JUMP JUMPDEST PUSH32 0x506C656173652073656E642076616C6964207365727669636520666565000000 PUSH0 DUP3 ADD MSTORE POP JUMP JUMPDEST PUSH0 PUSH2 0x4898 PUSH1 0x1D DUP4 PUSH2 0x457B JUMP JUMPDEST SWAP2 POP PUSH2 0x48A3 DUP3 PUSH2 0x4864 JUMP JUMPDEST PUSH1 0x20 DUP3 ADD SWAP1 POP SWAP2 SWAP1 POP JUMP JUMPDEST PUSH0 PUSH1 0x40 DUP3 ADD SWAP1 POP PUSH2 0x48C1 PUSH0 DUP4 ADD DUP5 PUSH2 0x4786 JUMP JUMPDEST DUP2 DUP2 SUB PUSH1 0x20 DUP4 ADD MSTORE PUSH2 0x48D2 DUP2 PUSH2 0x488C JUMP JUMPDEST SWAP1 POP SWAP3 SWAP2 POP POP JUMP JUMPDEST PUSH0 DUP2 SWAP1 POP SWAP3 SWAP2 POP POP JUMP JUMPDEST PUSH0 PUSH2 0x48EE DUP3 PUSH2 0x3CBD JUMP JUMPDEST PUSH2 0x48F8 DUP2 DUP6 PUSH2 0x48DA JUMP JUMPDEST SWAP4 POP PUSH2 0x4908 DUP2 DUP6 PUSH1 0x20 DUP7 ADD PUSH2 0x3CD7 JUMP JUMPDEST DUP1 DUP5 ADD SWAP2 POP POP SWAP3 SWAP2 POP POP JUMP JUMPDEST PUSH0 PUSH2 0x491F DUP3 DUP5 PUSH2 0x48E4 JUMP JUMPDEST SWAP2 POP DUP2 SWAP1 POP SWAP3 SWAP2 POP POP JUMP JUMPDEST PUSH32 0x4E487B7100000000000000000000000000000000000000000000000000000000 PUSH0 MSTORE PUSH1 0x32 PUSH1 0x4 MSTORE PUSH1 0x24 PUSH0 REVERT JUMPDEST PUSH2 0x4960 DUP2 PUSH2 0x3D3C JUMP JUMPDEST DUP3 MSTORE POP POP JUMP JUMPDEST PUSH0 PUSH1 0x60 DUP3 ADD SWAP1 POP DUP2 DUP2 SUB PUSH0 DUP4 ADD MSTORE PUSH2 0x497E DUP2 DUP7 PUSH2 0x458B JUMP JUMPDEST SWAP1 POP PUSH2 0x498D PUSH1 0x20 DUP4 ADD DUP6 PUSH2 0x4786 JUMP JUMPDEST PUSH2 0x499A PUSH1 0x40 DUP4 ADD DUP5 PUSH2 0x4957 JUMP JUMPDEST SWAP5 SWAP4 POP POP POP POP JUMP JUMPDEST PUSH32 0x53657276696365207265717565737420697320616C72656164792063616E6365 PUSH0 DUP3 ADD MSTORE PUSH32 0x6C6C656400000000000000000000000000000000000000000000000000000000 PUSH1 0x20 DUP3 ADD MSTORE POP JUMP JUMPDEST PUSH0 PUSH2 0x49FC PUSH1 0x24 DUP4 PUSH2 0x457B JUMP JUMPDEST SWAP2 POP PUSH2 0x4A07 DUP3 PUSH2 0x49A2 JUMP JUMPDEST PUSH1 0x40 DUP3 ADD SWAP1 POP SWAP2 SWAP1 POP JUMP JUMPDEST PUSH0 PUSH1 0x40 DUP3 ADD SWAP1 POP DUP2 DUP2 SUB PUSH0 DUP4 ADD MSTORE PUSH2 0x4A2A DUP2 DUP5 PUSH2 0x458B JUMP JUMPDEST SWAP1 POP DUP2 DUP2 SUB PUSH1 0x20 DUP4 ADD MSTORE PUSH2 0x4A3D DUP2 PUSH2 0x49F0 JUMP JUMPDEST SWAP1 POP SWAP3 SWAP2 POP POP JUMP JUMPDEST PUSH32 0x4F6E6C7920736869707065722063616E20757064617465207468652073746174 PUSH0 DUP3 ADD MSTORE PUSH32 0x7573000000000000000000000000000000000000000000000000000000000000 PUSH1 0x20 DUP3 ADD MSTORE POP JUMP JUMPDEST PUSH0 PUSH2 0x4A9F PUSH1 0x22 DUP4 PUSH2 0x457B JUMP JUMPDEST SWAP2 POP PUSH2 0x4AAA DUP3 PUSH2 0x4A45 JUMP JUMPDEST PUSH1 0x40 DUP3 ADD SWAP1 POP SWAP2 SWAP1 POP JUMP JUMPDEST PUSH0 PUSH1 0x40 DUP3 ADD SWAP1 POP DUP2 DUP2 SUB PUSH0 DUP4 ADD MSTORE PUSH2 0x4ACD DUP2 DUP5 PUSH2 0x458B JUMP JUMPDEST SWAP1 POP DUP2 DUP2 SUB PUSH1 0x20 DUP4 ADD MSTORE PUSH2 0x4AE0 DUP2 PUSH2 0x4A93 JUMP JUMPDEST SWAP1 POP SWAP3 SWAP2 POP POP JUMP JUMPDEST PUSH32 0x5570646174656420736572766963652072657175657374207375636365737366 PUSH0 DUP3 ADD MSTORE PUSH32 0x756C6C7900000000000000000000000000000000000000000000000000000000 PUSH1 0x20 DUP3 ADD MSTORE POP JUMP JUMPDEST PUSH0 PUSH2 0x4B42 PUSH1 0x24 DUP4 PUSH2 0x457B JUMP JUMPDEST SWAP2 POP PUSH2 0x4B4D DUP3 PUSH2 0x4AE8 JUMP JUMPDEST PUSH1 0x40 DUP3 ADD SWAP1 POP SWAP2 SWAP1 POP JUMP JUMPDEST PUSH0 PUSH1 0x40 DUP3 ADD SWAP1 POP DUP2 DUP2 SUB PUSH0 DUP4 ADD MSTORE PUSH2 0x4B70 DUP2 DUP5 PUSH2 0x458B JUMP JUMPDEST SWAP1 POP DUP2 DUP2 SUB PUSH1 0x20 DUP4 ADD MSTORE PUSH2 0x4B83 DUP2 PUSH2 0x4B36 JUMP JUMPDEST SWAP1 POP SWAP3 SWAP2 POP POP JUMP JUMPDEST PUSH32 0x52454144595F464F525F5049434B55502043616E206F6E6C7920626520757064 PUSH0 DUP3 ADD MSTORE PUSH32 0x61746564206F6E6365206472697665722069732061737369676E656400000000 PUSH1 0x20 DUP3 ADD MSTORE POP JUMP JUMPDEST PUSH0 PUSH2 0x4BE5 PUSH1 0x3C DUP4 PUSH2 0x457B JUMP JUMPDEST SWAP2 POP PUSH2 0x4BF0 DUP3 PUSH2 0x4B8B JUMP JUMPDEST PUSH1 0x40 DUP3 ADD SWAP1 POP SWAP2 SWAP1 POP JUMP JUMPDEST PUSH0 PUSH1 0x40 DUP3 ADD SWAP1 POP DUP2 DUP2 SUB PUSH0 DUP4 ADD MSTORE PUSH2 0x4C13 DUP2 DUP5 PUSH2 0x458B JUMP JUMPDEST SWAP1 POP DUP2 DUP2 SUB PUSH1 0x20 DUP4 ADD MSTORE PUSH2 0x4C26 DUP2 PUSH2 0x4BD9 JUMP JUMPDEST SWAP1 POP SWAP3 SWAP2 POP POP JUMP JUMPDEST PUSH32 0x596F7520646F6E277420686176652061636365737320746F2076696577207365 PUSH0 DUP3 ADD MSTORE PUSH32 0x7276696365207265717565737420696E666F0000000000000000000000000000 PUSH1 0x20 DUP3 ADD MSTORE POP JUMP JUMPDEST PUSH0 PUSH2 0x4C88 PUSH1 0x32 DUP4 PUSH2 0x457B JUMP JUMPDEST SWAP2 POP PUSH2 0x4C93 DUP3 PUSH2 0x4C2E JUMP JUMPDEST PUSH1 0x40 DUP3 ADD SWAP1 POP SWAP2 SWAP1 POP JUMP JUMPDEST PUSH0 PUSH1 0x40 DUP3 ADD SWAP1 POP DUP2 DUP2 SUB PUSH0 DUP4 ADD MSTORE PUSH2 0x4CB6 DUP2 DUP5 PUSH2 0x458B JUMP JUMPDEST SWAP1 POP DUP2 DUP2 SUB PUSH1 0x20 DUP4 ADD MSTORE PUSH2 0x4CC9 DUP2 PUSH2 0x4C7C JUMP JUMPDEST SWAP1 POP SWAP3 SWAP2 POP POP JUMP JUMPDEST PUSH32 0x536572766963652052657175657374206973206E6F7420696E20445241465420 PUSH0 DUP3 ADD MSTORE PUSH32 0x7374617475730000000000000000000000000000000000000000000000000000 PUSH1 0x20 DUP3 ADD MSTORE POP JUMP JUMPDEST PUSH0 PUSH2 0x4D2B PUSH1 0x26 DUP4 PUSH2 0x457B JUMP JUMPDEST SWAP2 POP PUSH2 0x4D36 DUP3 PUSH2 0x4CD1 JUMP JUMPDEST PUSH1 0x40 DUP3 ADD SWAP1 POP SWAP2 SWAP1 POP JUMP JUMPDEST PUSH0 PUSH1 0x40 DUP3 ADD SWAP1 POP DUP2 DUP2 SUB PUSH0 DUP4 ADD MSTORE PUSH2 0x4D59 DUP2 DUP5 PUSH2 0x458B JUMP JUMPDEST SWAP1 POP DUP2 DUP2 SUB PUSH1 0x20 DUP4 ADD MSTORE PUSH2 0x4D6C DUP2 PUSH2 0x4D1F JUMP JUMPDEST SWAP1 POP SWAP3 SWAP2 POP POP JUMP JUMPDEST PUSH32 0x4E487B7100000000000000000000000000000000000000000000000000000000 PUSH0 MSTORE PUSH1 0x22 PUSH1 0x4 MSTORE PUSH1 0x24 PUSH0 REVERT JUMPDEST PUSH0 PUSH1 0x2 DUP3 DIV SWAP1 POP PUSH1 0x1 DUP3 AND DUP1 PUSH2 0x4DB8 JUMPI PUSH1 0x7F DUP3 AND SWAP2 POP JUMPDEST PUSH1 0x20 DUP3 LT DUP2 SUB PUSH2 0x4DCB JUMPI PUSH2 0x4DCA PUSH2 0x4D74 JUMP JUMPDEST JUMPDEST POP SWAP2 SWAP1 POP JUMP JUMPDEST PUSH0 PUSH2 0x4DDB DUP3 PUSH2 0x3B6C JUMP JUMPDEST SWAP2 POP PUSH32 0xFFFFFFFFFFFFFFFFFFFFFFFFFFFFFFFFFFFFFFFFFFFFFFFFFFFFFFFFFFFFFFFF DUP3 SUB PUSH2 0x4E0D JUMPI PUSH2 0x4E0C PUSH2 0x450D JUMP JUMPDEST JUMPDEST PUSH1 0x1 DUP3 ADD SWAP1 POP SWAP2 SWAP1 POP JUMP JUMPDEST PUSH32 0x4F6E6C792061737369676E6564206472697665722063616E2075706461746520 PUSH0 DUP3 ADD MSTORE PUSH32 0x7468652073746174757300000000000000000000000000000000000000000000 PUSH1 0x20 DUP3 ADD MSTORE POP JUMP JUMPDEST PUSH0 PUSH2 0x4E72 PUSH1 0x2A DUP4 PUSH2 0x457B JUMP JUMPDEST SWAP2 POP PUSH2 0x4E7D DUP3 PUSH2 0x4E18 JUMP JUMPDEST PUSH1 0x40 DUP3 ADD SWAP1 POP SWAP2 SWAP1 POP JUMP JUMPDEST PUSH0 PUSH1 0x40 DUP3 ADD SWAP1 POP DUP2 DUP2 SUB PUSH0 DUP4 ADD MSTORE PUSH2 0x4EA0 DUP2 DUP5 PUSH2 0x458B JUMP JUMPDEST SWAP1 POP DUP2 DUP2 SUB PUSH1 0x20 DUP4 ADD MSTORE PUSH2 0x4EB3 DUP2 PUSH2 0x4E66 JUMP JUMPDEST SWAP1 POP SWAP3 SWAP2 POP POP JUMP JUMPDEST PUSH32 0x4452495645525F415252495645445F41545F4F524947494E2073746174757320 PUSH0 DUP3 ADD MSTORE PUSH32 0x63616E206F6E6C792062652075706461746564207768656E2052454144595F46 PUSH1 0x20 DUP3 ADD MSTORE PUSH32 0x4F525F5049434B55502073746174757300000000000000000000000000000000 PUSH1 0x40 DUP3 ADD MSTORE POP JUMP JUMPDEST PUSH0 PUSH2 0x4F3B PUSH1 0x50 DUP4 PUSH2 0x457B JUMP JUMPDEST SWAP2 POP PUSH2 0x4F46 DUP3 PUSH2 0x4EBB JUMP JUMPDEST PUSH1 0x60 DUP3 ADD SWAP1 POP SWAP2 SWAP1 POP JUMP JUMPDEST PUSH0 PUSH1 0x40 DUP3 ADD SWAP1 POP DUP2 DUP2 SUB PUSH0 DUP4 ADD MSTORE PUSH2 0x4F69 DUP2 DUP5 PUSH2 0x458B JUMP JUMPDEST SWAP1 POP DUP2 DUP2 SUB PUSH1 0x20 DUP4 ADD MSTORE PUSH2 0x4F7C DUP2 PUSH2 0x4F2F JUMP JUMPDEST SWAP1 POP SWAP3 SWAP2 POP POP JUMP JUMPDEST PUSH32 0x50415243454C5F5049434B45445F5550207374617475732063616E206F6E6C79 PUSH0 DUP3 ADD MSTORE PUSH32 0x2062652075706461746564207768656E204452495645525F415252495645445F PUSH1 0x20 DUP3 ADD MSTORE PUSH32 0x41545F4F524947494E2073746174757300000000000000000000000000000000 PUSH1 0x40 DUP3 ADD MSTORE POP JUMP JUMPDEST PUSH0 PUSH2 0x5004 PUSH1 0x50 DUP4 PUSH2 0x457B JUMP JUMPDEST SWAP2 POP PUSH2 0x500F DUP3 PUSH2 0x4F84 JUMP JUMPDEST PUSH1 0x60 DUP3 ADD SWAP1 POP SWAP2 SWAP1 POP JUMP JUMPDEST PUSH0 PUSH1 0x40 DUP3 ADD SWAP1 POP DUP2 DUP2 SUB PUSH0 DUP4 ADD MSTORE PUSH2 0x5032 DUP2 DUP5 PUSH2 0x458B JUMP JUMPDEST SWAP1 POP DUP2 DUP2 SUB PUSH1 0x20 DUP4 ADD MSTORE PUSH2 0x5045 DUP2 PUSH2 0x4FF8 JUMP JUMPDEST SWAP1 POP SWAP3 SWAP2 POP POP JUMP JUMPDEST PUSH32 0x4F55545F464F525F44454C4956455259207374617475732063616E206F6E6C79 PUSH0 DUP3 ADD MSTORE PUSH32 0x2062652075706461746564207768656E2050415243454C5F5049434B45445F55 PUSH1 0x20 DUP3 ADD MSTORE PUSH32 0x5020737461747573000000000000000000000000000000000000000000000000 PUSH1 0x40 DUP3 ADD MSTORE POP JUMP JUMPDEST PUSH0 PUSH2 0x50CD PUSH1 0x48 DUP4 PUSH2 0x457B JUMP JUMPDEST SWAP2 POP PUSH2 0x50D8 DUP3 PUSH2 0x504D JUMP JUMPDEST PUSH1 0x60 DUP3 ADD SWAP1 POP SWAP2 SWAP1 POP JUMP JUMPDEST PUSH0 PUSH1 0x40 DUP3 ADD SWAP1 POP DUP2 DUP2 SUB PUSH0 DUP4 ADD MSTORE PUSH2 0x50FB DUP2 DUP5 PUSH2 0x458B JUMP JUMPDEST SWAP1 POP DUP2 DUP2 SUB PUSH1 0x20 DUP4 ADD MSTORE PUSH2 0x510E DUP2 PUSH2 0x50C1 JUMP JUMPDEST SWAP1 POP SWAP3 SWAP2 POP POP JUMP JUMPDEST PUSH32 0x4452495645525F415252495645445F41545F44455354494E4154494F4E207374 PUSH0 DUP3 ADD MSTORE PUSH32 0x617475732063616E206F6E6C792062652075706461746564207768656E204F55 PUSH1 0x20 DUP3 ADD MSTORE PUSH32 0x545F464F525F44454C4956455259207374617475730000000000000000000000 PUSH1 0x40 DUP3 ADD MSTORE POP JUMP JUMPDEST PUSH0 PUSH2 0x5196 PUSH1 0x55 DUP4 PUSH2 0x457B JUMP JUMPDEST SWAP2 POP PUSH2 0x51A1 DUP3 PUSH2 0x5116 JUMP JUMPDEST PUSH1 0x60 DUP3 ADD SWAP1 POP SWAP2 SWAP1 POP JUMP JUMPDEST PUSH0 PUSH1 0x40 DUP3 ADD SWAP1 POP DUP2 DUP2 SUB PUSH0 DUP4 ADD MSTORE PUSH2 0x51C4 DUP2 DUP5 PUSH2 0x458B JUMP JUMPDEST SWAP1 POP DUP2 DUP2 SUB PUSH1 0x20 DUP4 ADD MSTORE PUSH2 0x51D7 DUP2 PUSH2 0x518A JUMP JUMPDEST SWAP1 POP SWAP3 SWAP2 POP POP JUMP JUMPDEST PUSH32 0x4472697665722063616E206F6E6C792075706461746520737461747573203A20 PUSH0 DUP3 ADD MSTORE PUSH32 0x4452495645525F415252495645445F41545F4F524947494E2C2050415243454C PUSH1 0x20 DUP3 ADD MSTORE PUSH32 0x5F5049434B45445F55502C204F55545F464F525F44454C49564552592C204452 PUSH1 0x40 DUP3 ADD MSTORE PUSH32 0x495645525F415252495645445F41545F44455354494E4154494F4E0000000000 PUSH1 0x60 DUP3 ADD MSTORE POP JUMP JUMPDEST PUSH0 PUSH2 0x5285 PUSH1 0x7B DUP4 PUSH2 0x457B JUMP JUMPDEST SWAP2 POP PUSH2 0x5290 DUP3 PUSH2 0x51DF JUMP JUMPDEST PUSH1 0x80 DUP3 ADD SWAP1 POP SWAP2 SWAP1 POP JUMP JUMPDEST PUSH0 PUSH1 0x40 DUP3 ADD SWAP1 POP DUP2 DUP2 SUB PUSH0 DUP4 ADD MSTORE PUSH2 0x52B3 DUP2 DUP5 PUSH2 0x458B JUMP JUMPDEST SWAP1 POP DUP2 DUP2 SUB PUSH1 0x20 DUP4 ADD MSTORE PUSH2 0x52C6 DUP2 PUSH2 0x5279 JUMP JUMPDEST SWAP1 POP SWAP3 SWAP2 POP POP JUMP JUMPDEST PUSH32 0x4F6E6C7920736869707065722063616E2063616E63656C6C6564207468652073 PUSH0 DUP3 ADD MSTORE PUSH32 0x6572766963652072657175657374000000000000000000000000000000000000 PUSH1 0x20 DUP3 ADD MSTORE POP JUMP JUMPDEST PUSH0 PUSH2 0x5328 PUSH1 0x2E DUP4 PUSH2 0x457B JUMP JUMPDEST SWAP2 POP PUSH2 0x5333 DUP3 PUSH2 0x52CE JUMP JUMPDEST PUSH1 0x40 DUP3 ADD SWAP1 POP SWAP2 SWAP1 POP JUMP JUMPDEST PUSH0 PUSH1 0x40 DUP3 ADD SWAP1 POP DUP2 DUP2 SUB PUSH0 DUP4 ADD MSTORE PUSH2 0x5356 DUP2 DUP5 PUSH2 0x458B JUMP JUMPDEST SWAP1 POP DUP2 DUP2 SUB PUSH1 0x20 DUP4 ADD MSTORE PUSH2 0x5369 DUP2 PUSH2 0x531C JUMP JUMPDEST SWAP1 POP SWAP3 SWAP2 POP POP JUMP JUMPDEST PUSH32 0x5365727669636520726571756573742063616E6E6F742062652063616E63656C PUSH0 DUP3 ADD MSTORE PUSH32 0x6C65642C206173206472697665722069732061737369676E6564000000000000 PUSH1 0x20 DUP3 ADD MSTORE POP JUMP JUMPDEST PUSH0 PUSH2 0x53CB PUSH1 0x3A DUP4 PUSH2 0x457B JUMP JUMPDEST SWAP2 POP PUSH2 0x53D6 DUP3 PUSH2 0x5371 JUMP JUMPDEST PUSH1 0x40 DUP3 ADD SWAP1 POP SWAP2 SWAP1 POP JUMP JUMPDEST PUSH0 PUSH1 0x40 DUP3 ADD SWAP1 POP DUP2 DUP2 SUB PUSH0 DUP4 ADD MSTORE PUSH2 0x53F9 DUP2 DUP5 PUSH2 0x458B JUMP JUMPDEST SWAP1 POP DUP2 DUP2 SUB PUSH1 0x20 DUP4 ADD MSTORE PUSH2 0x540C DUP2 PUSH2 0x53BF JUMP JUMPDEST SWAP1 POP SWAP3 SWAP2 POP POP JUMP JUMPDEST PUSH0 PUSH1 0x40 DUP3 ADD SWAP1 POP DUP2 DUP2 SUB PUSH0 DUP4 ADD MSTORE PUSH2 0x542C DUP2 DUP6 PUSH2 0x458B JUMP JUMPDEST SWAP1 POP PUSH2 0x543B PUSH1 0x20 DUP4 ADD DUP5 PUSH2 0x4957 JUMP JUMPDEST SWAP4 SWAP3 POP POP POP JUMP JUMPDEST PUSH32 0x5365727669636520726571756573742063616E6E6F742062652063616E63656C PUSH0 DUP3 ADD MSTORE PUSH32 0x6C65640000000000000000000000000000000000000000000000000000000000 PUSH1 0x20 DUP3 ADD MSTORE POP JUMP JUMPDEST PUSH0 PUSH2 0x549C PUSH1 0x23 DUP4 PUSH2 0x457B JUMP JUMPDEST SWAP2 POP PUSH2 0x54A7 DUP3 PUSH2 0x5442 JUMP JUMPDEST PUSH1 0x40 DUP3 ADD SWAP1 POP SWAP2 SWAP1 POP JUMP JUMPDEST PUSH0 PUSH1 0x40 DUP3 ADD SWAP1 POP DUP2 DUP2 SUB PUSH0 DUP4 ADD MSTORE PUSH2 0x54CA DUP2 DUP5 PUSH2 0x458B JUMP JUMPDEST SWAP1 POP DUP2 DUP2 SUB PUSH1 0x20 DUP4 ADD MSTORE PUSH2 0x54DD DUP2 PUSH2 0x5490 JUMP JUMPDEST SWAP1 POP SWAP3 SWAP2 POP POP JUMP JUMPDEST PUSH0 DUP2 SWAP1 POP DUP2 PUSH0 MSTORE PUSH1 0x20 PUSH0 KECCAK256 SWAP1 POP SWAP2 SWAP1 POP JUMP JUMPDEST PUSH0 PUSH1 0x20 PUSH1 0x1F DUP4 ADD DIV SWAP1 POP SWAP2 SWAP1 POP JUMP JUMPDEST PUSH0 DUP3 DUP3 SHL SWAP1 POP SWAP3 SWAP2 POP POP JUMP JUMPDEST PUSH0 PUSH1 0x8 DUP4 MUL PUSH2 0x5541 PUSH32 0xFFFFFFFFFFFFFFFFFFFFFFFFFFFFFFFFFFFFFFFFFFFFFFFFFFFFFFFFFFFFFFFF DUP3 PUSH2 0x5506 JUMP JUMPDEST PUSH2 0x554B DUP7 DUP4 PUSH2 0x5506 JUMP JUMPDEST SWAP6 POP DUP1 NOT DUP5 AND SWAP4 POP DUP1 DUP7 AND DUP5 OR SWAP3 POP POP POP SWAP4 SWAP3 POP POP POP JUMP JUMPDEST PUSH0 DUP2 SWAP1 POP SWAP2 SWAP1 POP JUMP JUMPDEST PUSH0 PUSH2 0x5586 PUSH2 0x5581 PUSH2 0x557C DUP5 PUSH2 0x3B6C JUMP JUMPDEST PUSH2 0x5563 JUMP JUMPDEST PUSH2 0x3B6C JUMP JUMPDEST SWAP1 POP SWAP2 SWAP1 POP JUMP JUMPDEST PUSH0 DUP2 SWAP1 POP SWAP2 SWAP1 POP JUMP JUMPDEST PUSH2 0x559F DUP4 PUSH2 0x556C JUMP JUMPDEST PUSH2 0x55B3 PUSH2 0x55AB DUP3 PUSH2 0x558D JUMP JUMPDEST DUP5 DUP5 SLOAD PUSH2 0x5512 JUMP JUMPDEST DUP3 SSTORE POP POP POP POP JUMP JUMPDEST PUSH0 SWAP1 JUMP JUMPDEST PUSH2 0x55C7 PUSH2 0x55BB JUMP JUMPDEST PUSH2 0x55D2 DUP2 DUP5 DUP5 PUSH2 0x5596 JUMP JUMPDEST POP POP POP JUMP JUMPDEST JUMPDEST DUP2 DUP2 LT ISZERO PUSH2 0x55F5 JUMPI PUSH2 0x55EA PUSH0 DUP3 PUSH2 0x55BF JUMP JUMPDEST PUSH1 0x1 DUP2 ADD SWAP1 POP PUSH2 0x55D8 JUMP JUMPDEST POP POP JUMP JUMPDEST PUSH1 0x1F DUP3 GT ISZERO PUSH2 0x563A JUMPI PUSH2 0x560B DUP2 PUSH2 0x54E5 JUMP JUMPDEST PUSH2 0x5614 DUP5 PUSH2 0x54F7 JUMP JUMPDEST DUP2 ADD PUSH1 0x20 DUP6 LT ISZERO PUSH2 0x5623 JUMPI DUP2 SWAP1 POP JUMPDEST PUSH2 0x5637 PUSH2 0x562F DUP6 PUSH2 0x54F7 JUMP JUMPDEST DUP4 ADD DUP3 PUSH2 0x55D7 JUMP JUMPDEST POP POP JUMPDEST POP POP POP JUMP JUMPDEST PUSH0 DUP3 DUP3 SHR SWAP1 POP SWAP3 SWAP2 POP POP JUMP JUMPDEST PUSH0 PUSH2 0x565A PUSH0 NOT DUP5 PUSH1 0x8 MUL PUSH2 0x563F JUMP JUMPDEST NOT DUP1 DUP4 AND SWAP2 POP POP SWAP3 SWAP2 POP POP JUMP JUMPDEST PUSH0 PUSH2 0x5672 DUP4 DUP4 PUSH2 0x564B JUMP JUMPDEST SWAP2 POP DUP3 PUSH1 0x2 MUL DUP3 OR SWAP1 POP SWAP3 SWAP2 POP POP JUMP JUMPDEST PUSH2 0x568B DUP3 PUSH2 0x3CBD JUMP JUMPDEST PUSH8 0xFFFFFFFFFFFFFFFF DUP2 GT ISZERO PUSH2 0x56A4 JUMPI PUSH2 0x56A3 PUSH2 0x3A48 JUMP JUMPDEST JUMPDEST PUSH2 0x56AE DUP3 SLOAD PUSH2 0x4DA1 JUMP JUMPDEST PUSH2 0x56B9 DUP3 DUP3 DUP6 PUSH2 0x55F9 JUMP JUMPDEST PUSH0 PUSH1 0x20 SWAP1 POP PUSH1 0x1F DUP4 GT PUSH1 0x1 DUP2 EQ PUSH2 0x56EA JUMPI PUSH0 DUP5 ISZERO PUSH2 0x56D8 JUMPI DUP3 DUP8 ADD MLOAD SWAP1 POP JUMPDEST PUSH2 0x56E2 DUP6 DUP3 PUSH2 0x5667 JUMP JUMPDEST DUP7 SSTORE POP PUSH2 0x5749 JUMP JUMPDEST PUSH1 0x1F NOT DUP5 AND PUSH2 0x56F8 DUP7 PUSH2 0x54E5 JUMP JUMPDEST PUSH0 JUMPDEST DUP3 DUP2 LT ISZERO PUSH2 0x571F JUMPI DUP5 DUP10 ADD MLOAD DUP3 SSTORE PUSH1 0x1 DUP3 ADD SWAP2 POP PUSH1 0x20 DUP6 ADD SWAP5 POP PUSH1 0x20 DUP2 ADD SWAP1 POP PUSH2 0x56FA JUMP JUMPDEST DUP7 DUP4 LT ISZERO PUSH2 0x573C JUMPI DUP5 DUP10 ADD MLOAD PUSH2 0x5738 PUSH1 0x1F DUP10 AND DUP3 PUSH2 0x564B JUMP JUMPDEST DUP4 SSTORE POP JUMPDEST PUSH1 0x1 PUSH1 0x2 DUP9 MUL ADD DUP9 SSTORE POP POP POP JUMPDEST POP POP POP POP POP POP JUMP JUMPDEST PUSH32 0x5365727669636520526571756573742063726561746564207375636365737366 PUSH0 DUP3 ADD MSTORE PUSH32 0x756C6C7900000000000000000000000000000000000000000000000000000000 PUSH1 0x20 DUP3 ADD MSTORE POP JUMP JUMPDEST PUSH0 PUSH2 0x57AB PUSH1 0x24 DUP4 PUSH2 0x457B JUMP JUMPDEST SWAP2 POP PUSH2 0x57B6 DUP3 PUSH2 0x5751 JUMP JUMPDEST PUSH1 0x40 DUP3 ADD SWAP1 POP SWAP2 SWAP1 POP JUMP JUMPDEST PUSH0 PUSH1 0x40 DUP3 ADD SWAP1 POP DUP2 DUP2 SUB PUSH0 DUP4 ADD MSTORE PUSH2 0x57D9 DUP2 DUP5 PUSH2 0x3DF6 JUMP JUMPDEST SWAP1 POP DUP2 DUP2 SUB PUSH1 0x20 DUP4 ADD MSTORE PUSH2 0x57EC DUP2 PUSH2 0x579F JUMP JUMPDEST SWAP1 POP SWAP3 SWAP2 POP POP JUMP JUMPDEST PUSH32 0x4F6E6C792072656365697665722063616E207570646174652074686520737461 PUSH0 DUP3 ADD MSTORE PUSH32 0x7475730000000000000000000000000000000000000000000000000000000000 PUSH1 0x20 DUP3 ADD MSTORE POP JUMP JUMPDEST PUSH0 PUSH2 0x584E PUSH1 0x23 DUP4 PUSH2 0x457B JUMP JUMPDEST SWAP2 POP PUSH2 0x5859 DUP3 PUSH2 0x57F4 JUMP JUMPDEST PUSH1 0x40 DUP3 ADD SWAP1 POP SWAP2 SWAP1 POP JUMP JUMPDEST PUSH0 PUSH1 0x40 DUP3 ADD SWAP1 POP DUP2 DUP2 SUB PUSH0 DUP4 ADD MSTORE PUSH2 0x587C DUP2 DUP5 PUSH2 0x458B JUMP JUMPDEST SWAP1 POP DUP2 DUP2 SUB PUSH1 0x20 DUP4 ADD MSTORE PUSH2 0x588F DUP2 PUSH2 0x5842 JUMP JUMPDEST SWAP1 POP SWAP3 SWAP2 POP POP JUMP JUMPDEST PUSH32 0x44726976657220686173206E6F7420726561636865642061742064657374696E PUSH0 DUP3 ADD MSTORE PUSH32 0x6174696F6E207965742C2063616E6E6F74207570646174652073746174757320 PUSH1 0x20 DUP3 ADD MSTORE PUSH32 0x746F2044454C4956455245440000000000000000000000000000000000000000 PUSH1 0x40 DUP3 ADD MSTORE POP JUMP JUMPDEST PUSH0 PUSH2 0x5917 PUSH1 0x4C DUP4 PUSH2 0x457B JUMP JUMPDEST SWAP2 POP PUSH2 0x5922 DUP3 PUSH2 0x5897 JUMP JUMPDEST PUSH1 0x60 DUP3 ADD SWAP1 POP SWAP2 SWAP1 POP JUMP JUMPDEST PUSH0 PUSH1 0x40 DUP3 ADD SWAP1 POP DUP2 DUP2 SUB PUSH0 DUP4 ADD MSTORE PUSH2 0x5945 DUP2 DUP5 PUSH2 0x458B JUMP JUMPDEST SWAP1 POP DUP2 DUP2 SUB PUSH1 0x20 DUP4 ADD MSTORE PUSH2 0x5958 DUP2 PUSH2 0x590B JUMP JUMPDEST SWAP1 POP SWAP3 SWAP2 POP POP JUMP JUMPDEST PUSH1 0x2 DUP2 LT PUSH2 0x5971 JUMPI PUSH2 0x5970 PUSH2 0x3D83 JUMP JUMPDEST JUMPDEST POP JUMP JUMPDEST PUSH0 DUP2 SWAP1 POP PUSH2 0x5981 DUP3 PUSH2 0x5960 JUMP JUMPDEST SWAP2 SWAP1 POP JUMP JUMPDEST PUSH0 PUSH2 0x5990 DUP3 PUSH2 0x5974 JUMP JUMPDEST SWAP1 POP SWAP2 SWAP1 POP JUMP JUMPDEST PUSH2 0x59A0 DUP2 PUSH2 0x5986 JUMP JUMPDEST DUP3 MSTORE POP POP JUMP JUMPDEST PUSH0 PUSH1 0x60 DUP3 ADD SWAP1 POP PUSH2 0x59B9 PUSH0 DUP4 ADD DUP7 PUSH2 0x4957 JUMP JUMPDEST PUSH2 0x59C6 PUSH1 0x20 DUP4 ADD DUP6 PUSH2 0x4786 JUMP JUMPDEST PUSH2 0x59D3 PUSH1 0x40 DUP4 ADD DUP5 PUSH2 0x5997 JUMP JUMPDEST SWAP5 SWAP4 POP POP POP POP JUMP JUMPDEST PUSH32 0x52656365697665722063616E206F6E6C79207570646174652073746174757320 PUSH0 DUP3 ADD MSTORE PUSH32 0x3A2044454C495645524544000000000000000000000000000000000000000000 PUSH1 0x20 DUP3 ADD MSTORE POP JUMP JUMPDEST PUSH0 PUSH2 0x5A35 PUSH1 0x2B DUP4 PUSH2 0x457B JUMP JUMPDEST SWAP2 POP PUSH2 0x5A40 DUP3 PUSH2 0x59DB JUMP JUMPDEST PUSH1 0x40 DUP3 ADD SWAP1 POP SWAP2 SWAP1 POP JUMP JUMPDEST PUSH0 PUSH1 0x40 DUP3 ADD SWAP1 POP DUP2 DUP2 SUB PUSH0 DUP4 ADD MSTORE PUSH2 0x5A63 DUP2 DUP5 PUSH2 0x458B JUMP JUMPDEST SWAP1 POP DUP2 DUP2 SUB PUSH1 0x20 DUP4 ADD MSTORE PUSH2 0x5A76 DUP2 PUSH2 0x5A29 JUMP JUMPDEST SWAP1 POP SWAP3 SWAP2 POP POP JUMP JUMPDEST PUSH32 0x41756374696F6E207374696C6C20696E70726F67726573730000000000000000 PUSH0 DUP3 ADD MSTORE POP JUMP JUMPDEST PUSH0 PUSH2 0x5AB2 PUSH1 0x18 DUP4 PUSH2 0x457B JUMP JUMPDEST SWAP2 POP PUSH2 0x5ABD DUP3 PUSH2 0x5A7E JUMP JUMPDEST PUSH1 0x20 DUP3 ADD SWAP1 POP SWAP2 SWAP1 POP JUMP JUMPDEST PUSH0 PUSH1 0x40 DUP3 ADD SWAP1 POP DUP2 DUP2 SUB PUSH0 DUP4 ADD MSTORE PUSH2 0x5AE0 DUP2 DUP5 PUSH2 0x458B JUMP JUMPDEST SWAP1 POP DUP2 DUP2 SUB PUSH1 0x20 DUP4 ADD MSTORE PUSH2 0x5AF3 DUP2 PUSH2 0x5AA6 JUMP JUMPDEST SWAP1 POP SWAP3 SWAP2 POP POP JUMP JUMPDEST PUSH32 0x496E637265617365642061756374696F6E2074696D6520666F72207365727669 PUSH0 DUP3 ADD MSTORE PUSH32 0x636520726571756573742062792035206D696E75746573000000000000000000 PUSH1 0x20 DUP3 ADD MSTORE POP JUMP JUMPDEST PUSH0 PUSH2 0x5B55 PUSH1 0x37 DUP4 PUSH2 0x457B JUMP JUMPDEST SWAP2 POP PUSH2 0x5B60 DUP3 PUSH2 0x5AFB JUMP JUMPDEST PUSH1 0x40 DUP3 ADD SWAP1 POP SWAP2 SWAP1 POP JUMP JUMPDEST PUSH0 PUSH1 0x40 DUP3 ADD SWAP1 POP DUP2 DUP2 SUB PUSH0 DUP4 ADD MSTORE PUSH2 0x5B83 DUP2 DUP5 PUSH2 0x458B JUMP JUMPDEST SWAP1 POP DUP2 DUP2 SUB PUSH1 0x20 DUP4 ADD MSTORE PUSH2 0x5B96 DUP2 PUSH2 0x5B49 JUMP JUMPDEST SWAP1 POP SWAP3 SWAP2 POP POP JUMP JUMPDEST PUSH32 0x596F75206861766520776F6E207468652061756374696F6E0000000000000000 PUSH0 DUP3 ADD MSTORE POP JUMP JUMPDEST PUSH0 PUSH2 0x5BD2 PUSH1 0x18 DUP4 PUSH2 0x457B JUMP JUMPDEST SWAP2 POP PUSH2 0x5BDD DUP3 PUSH2 0x5B9E JUMP JUMPDEST PUSH1 0x20 DUP3 ADD SWAP1 POP SWAP2 SWAP1 POP JUMP JUMPDEST PUSH0 PUSH1 0x40 DUP3 ADD SWAP1 POP DUP2 DUP2 SUB PUSH0 DUP4 ADD MSTORE PUSH2 0x5C00 DUP2 DUP5 PUSH2 0x458B JUMP JUMPDEST SWAP1 POP DUP2 DUP2 SUB PUSH1 0x20 DUP4 ADD MSTORE PUSH2 0x5C13 DUP2 PUSH2 0x5BC6 JUMP JUMPDEST SWAP1 POP SWAP3 SWAP2 POP POP JUMP JUMPDEST PUSH0 DUP3 DUP3 MSTORE PUSH1 0x20 DUP3 ADD SWAP1 POP SWAP3 SWAP2 POP POP JUMP JUMPDEST PUSH0 DUP2 SLOAD PUSH2 0x5C37 DUP2 PUSH2 0x4DA1 JUMP JUMPDEST PUSH2 0x5C41 DUP2 DUP7 PUSH2 0x5C1B JUMP JUMPDEST SWAP5 POP PUSH1 0x1 DUP3 AND PUSH0 DUP2 EQ PUSH2 0x5C5B JUMPI PUSH1 0x1 DUP2 EQ PUSH2 0x5C71 JUMPI PUSH2 0x5CA3 JUMP JUMPDEST PUSH1 0xFF NOT DUP4 AND DUP7 MSTORE DUP2 ISZERO ISZERO PUSH1 0x20 MUL DUP7 ADD SWAP4 POP PUSH2 0x5CA3 JUMP JUMPDEST PUSH2 0x5C7A DUP6 PUSH2 0x54E5 JUMP JUMPDEST PUSH0 JUMPDEST DUP4 DUP2 LT ISZERO PUSH2 0x5C9B JUMPI DUP2 SLOAD DUP2 DUP10 ADD MSTORE PUSH1 0x1 DUP3 ADD SWAP2 POP PUSH1 0x20 DUP2 ADD SWAP1 POP PUSH2 0x5C7C JUMP JUMPDEST DUP1 DUP9 ADD SWAP6 POP POP POP JUMPDEST POP POP POP SWAP3 SWAP2 POP POP JUMP JUMPDEST PUSH0 PUSH2 0x5CB6 DUP3 PUSH2 0x3CBD JUMP JUMPDEST PUSH2 0x5CC0 DUP2 DUP6 PUSH2 0x5C1B JUMP JUMPDEST SWAP4 POP PUSH2 0x5CD0 DUP2 DUP6 PUSH1 0x20 DUP7 ADD PUSH2 0x3CD7 JUMP JUMPDEST PUSH2 0x5CD9 DUP2 PUSH2 0x3A38 JUMP JUMPDEST DUP5 ADD SWAP2 POP POP SWAP3 SWAP2 POP POP JUMP JUMPDEST PUSH0 PUSH1 0x40 DUP3 ADD SWAP1 POP DUP2 DUP2 SUB PUSH0 DUP4 ADD MSTORE PUSH2 0x5CFC DUP2 DUP6 PUSH2 0x5C2B JUMP JUMPDEST SWAP1 POP DUP2 DUP2 SUB PUSH1 0x20 DUP4 ADD MSTORE PUSH2 0x5D10 DUP2 DUP5 PUSH2 0x5CAC JUMP JUMPDEST SWAP1 POP SWAP4 SWAP3 POP POP POP JUMP JUMPDEST PUSH0 DUP2 ISZERO ISZERO SWAP1 POP SWAP2 SWAP1 POP JUMP JUMPDEST PUSH2 0x5D2D DUP2 PUSH2 0x5D19 JUMP JUMPDEST DUP2 EQ PUSH2 0x5D37 JUMPI PUSH0 DUP1 REVERT JUMPDEST POP JUMP JUMPDEST PUSH0 DUP2 MLOAD SWAP1 POP PUSH2 0x5D48 DUP2 PUSH2 0x5D24 JUMP JUMPDEST SWAP3 SWAP2 POP POP JUMP JUMPDEST PUSH0 PUSH1 0x20 DUP3 DUP5 SUB SLT ISZERO PUSH2 0x5D63 JUMPI PUSH2 0x5D62 PUSH2 0x3A28 JUMP JUMPDEST JUMPDEST PUSH0 PUSH2 0x5D70 DUP5 DUP3 DUP6 ADD PUSH2 0x5D3A JUMP JUMPDEST SWAP2 POP POP SWAP3 SWAP2 POP POP JUMP JUMPDEST PUSH32 0x53657276696365207265717565737420646F6573206E6F742065786973747300 PUSH0 DUP3 ADD MSTORE POP JUMP JUMPDEST PUSH0 PUSH2 0x5DAD PUSH1 0x1F DUP4 PUSH2 0x457B JUMP JUMPDEST SWAP2 POP PUSH2 0x5DB8 DUP3 PUSH2 0x5D79 JUMP JUMPDEST PUSH1 0x20 DUP3 ADD SWAP1 POP SWAP2 SWAP1 POP JUMP JUMPDEST PUSH0 PUSH1 0x40 DUP3 ADD SWAP1 POP DUP2 DUP2 SUB PUSH0 DUP4 ADD MSTORE PUSH2 0x5DDB DUP2 DUP5 PUSH2 0x458B JUMP JUMPDEST SWAP1 POP DUP2 DUP2 SUB PUSH1 0x20 DUP4 ADD MSTORE PUSH2 0x5DEE DUP2 PUSH2 0x5DA1 JUMP JUMPDEST SWAP1 POP SWAP3 SWAP2 POP POP JUMP JUMPDEST PUSH32 0x596F75206861766520616C72656164792062696464656420666F722074686973 PUSH0 DUP3 ADD MSTORE PUSH32 0x2073657276696365207265717565737400000000000000000000000000000000 PUSH1 0x20 DUP3 ADD MSTORE POP JUMP JUMPDEST PUSH0 PUSH2 0x5E50 PUSH1 0x30 DUP4 PUSH2 0x457B JUMP JUMPDEST SWAP2 POP PUSH2 0x5E5B DUP3 PUSH2 0x5DF6 JUMP JUMPDEST PUSH1 0x40 DUP3 ADD SWAP1 POP SWAP2 SWAP1 POP JUMP JUMPDEST PUSH0 PUSH1 0x40 DUP3 ADD SWAP1 POP PUSH2 0x5E79 PUSH0 DUP4 ADD DUP5 PUSH2 0x4957 JUMP JUMPDEST DUP2 DUP2 SUB PUSH1 0x20 DUP4 ADD MSTORE PUSH2 0x5E8A DUP2 PUSH2 0x5E44 JUMP JUMPDEST SWAP1 POP SWAP3 SWAP2 POP POP JUMP JUMPDEST PUSH32 0x456D707479206465736372697074696F6E2076616C7565000000000000000000 PUSH0 DUP3 ADD MSTORE POP JUMP JUMPDEST PUSH0 PUSH2 0x5EC6 PUSH1 0x17 DUP4 PUSH2 0x457B JUMP JUMPDEST SWAP2 POP PUSH2 0x5ED1 DUP3 PUSH2 0x5E92 JUMP JUMPDEST PUSH1 0x20 DUP3 ADD SWAP1 POP SWAP2 SWAP1 POP JUMP JUMPDEST PUSH0 PUSH1 0x40 DUP3 ADD SWAP1 POP DUP2 DUP2 SUB PUSH0 DUP4 ADD MSTORE PUSH2 0x5EF4 DUP2 DUP5 PUSH2 0x458B JUMP JUMPDEST SWAP1 POP DUP2 DUP2 SUB PUSH1 0x20 DUP4 ADD MSTORE PUSH2 0x5F07 DUP2 PUSH2 0x5EBA JUMP JUMPDEST SWAP1 POP SWAP3 SWAP2 POP POP JUMP JUMPDEST PUSH32 0x436172676F20696E737572616E63652076616C7565206E6F742076616C696400 PUSH0 DUP3 ADD MSTORE POP JUMP JUMPDEST PUSH0 PUSH2 0x5F43 PUSH1 0x1F DUP4 PUSH2 0x457B JUMP JUMPDEST SWAP2 POP PUSH2 0x5F4E DUP3 PUSH2 0x5F0F JUMP JUMPDEST PUSH1 0x20 DUP3 ADD SWAP1 POP SWAP2 SWAP1 POP JUMP JUMPDEST PUSH0 PUSH1 0x40 DUP3 ADD SWAP1 POP PUSH2 0x5F6C PUSH0 DUP4 ADD DUP5 PUSH2 0x4786 JUMP JUMPDEST DUP2 DUP2 SUB PUSH1 0x20 DUP4 ADD MSTORE PUSH2 0x5F7D DUP2 PUSH2 0x5F37 JUMP JUMPDEST SWAP1 POP SWAP3 SWAP2 POP POP JUMP JUMPDEST PUSH32 0x536572766963652076616C7565206E6F742076616C6964000000000000000000 PUSH0 DUP3 ADD MSTORE POP JUMP JUMPDEST PUSH0 PUSH2 0x5FB9 PUSH1 0x17 DUP4 PUSH2 0x457B JUMP JUMPDEST SWAP2 POP PUSH2 0x5FC4 DUP3 PUSH2 0x5F85 JUMP JUMPDEST PUSH1 0x20 DUP3 ADD SWAP1 POP SWAP2 SWAP1 POP JUMP JUMPDEST PUSH0 PUSH1 0x40 DUP3 ADD SWAP1 POP PUSH2 0x5FE2 PUSH0 DUP4 ADD DUP5 PUSH2 0x4786 JUMP JUMPDEST DUP2 DUP2 SUB PUSH1 0x20 DUP4 ADD MSTORE PUSH2 0x5FF3 DUP2 PUSH2 0x5FAD JUMP JUMPDEST SWAP1 POP SWAP3 SWAP2 POP POP JUMP JUMPDEST PUSH0 DUP2 SWAP1 POP SWAP2 SWAP1 POP JUMP JUMPDEST PUSH2 0x6015 PUSH2 0x6010 DUP3 PUSH2 0x3B6C JUMP JUMPDEST PUSH2 0x5FFB JUMP JUMPDEST DUP3 MSTORE POP POP JUMP JUMPDEST PUSH0 DUP2 SWAP1 POP SWAP2 SWAP1 POP JUMP JUMPDEST PUSH0 DUP2 SWAP1 POP SWAP2 SWAP1 POP JUMP JUMPDEST PUSH2 0x603E PUSH2 0x6039 DUP3 PUSH2 0x601B JUMP JUMPDEST PUSH2 0x6024 JUMP JUMPDEST DUP3 MSTORE POP POP JUMP JUMPDEST PUSH0 PUSH2 0x604F DUP3 DUP7 PUSH2 0x6004 JUMP JUMPDEST PUSH1 0x20 DUP3 ADD SWAP2 POP PUSH2 0x605F DUP3 DUP6 PUSH2 0x602D JUMP JUMPDEST PUSH1 0x20 DUP3 ADD SWAP2 POP PUSH2 0x606F DUP3 DUP5 PUSH2 0x6004 JUMP JUMPDEST PUSH1 0x20 DUP3 ADD SWAP2 POP DUP2 SWAP1 POP SWAP5 SWAP4 POP POP POP POP JUMP JUMPDEST PUSH32 0x4E487B7100000000000000000000000000000000000000000000000000000000 PUSH0 MSTORE PUSH1 0x12 PUSH1 0x4 MSTORE PUSH1 0x24 PUSH0 REVERT JUMPDEST PUSH0 PUSH2 0x60B7 DUP3 PUSH2 0x3B6C JUMP JUMPDEST SWAP2 POP PUSH2 0x60C2 DUP4 PUSH2 0x3B6C JUMP JUMPDEST SWAP3 POP DUP3 PUSH2 0x60D2 JUMPI PUSH2 0x60D1 PUSH2 0x6080 JUMP JUMPDEST JUMPDEST DUP3 DUP3 MOD SWAP1 POP SWAP3 SWAP2 POP POP JUMP JUMPDEST PUSH32 0x596F75206C6F7374207468652061756374696F6E212100000000000000000000 PUSH0 DUP3 ADD MSTORE POP JUMP JUMPDEST PUSH0 PUSH2 0x6111 PUSH1 0x16 DUP4 PUSH2 0x457B JUMP JUMPDEST SWAP2 POP PUSH2 0x611C DUP3 PUSH2 0x60DD JUMP JUMPDEST PUSH1 0x20 DUP3 ADD SWAP1 POP SWAP2 SWAP1 POP JUMP JUMPDEST PUSH0 PUSH1 0x40 DUP3 ADD SWAP1 POP DUP2 DUP2 SUB PUSH0 DUP4 ADD MSTORE PUSH2 0x613F DUP2 DUP5 PUSH2 0x458B JUMP JUMPDEST SWAP1 POP DUP2 DUP2 SUB PUSH1 0x20 DUP4 ADD MSTORE PUSH2 0x6152 DUP2 PUSH2 0x6105 JUMP JUMPDEST SWAP1 POP SWAP3 SWAP2 POP POP JUMP JUMPDEST PUSH0 PUSH1 0x60 DUP3 ADD SWAP1 POP PUSH2 0x616D PUSH0 DUP4 ADD DUP7 PUSH2 0x4957 JUMP JUMPDEST PUSH2 0x617A PUSH1 0x20 DUP4 ADD DUP6 PUSH2 0x4957 JUMP JUMPDEST PUSH2 0x6187 PUSH1 0x40 DUP4 ADD DUP5 PUSH2 0x4786 JUMP JUMPDEST SWAP5 SWAP4 POP POP POP POP JUMP JUMPDEST PUSH32 0x596F752061726520616C726561647920726566756E64656420666F7220746869 PUSH0 DUP3 ADD MSTORE PUSH32 0x7320736572766963652072657175657374000000000000000000000000000000 PUSH1 0x20 DUP3 ADD MSTORE POP JUMP JUMPDEST PUSH0 PUSH2 0x61E9 PUSH1 0x31 DUP4 PUSH2 0x457B JUMP JUMPDEST SWAP2 POP PUSH2 0x61F4 DUP3 PUSH2 0x618F JUMP JUMPDEST PUSH1 0x40 DUP3 ADD SWAP1 POP SWAP2 SWAP1 POP JUMP JUMPDEST PUSH0 PUSH1 0x40 DUP3 ADD SWAP1 POP DUP2 DUP2 SUB PUSH0 DUP4 ADD MSTORE PUSH2 0x6217 DUP2 DUP5 PUSH2 0x458B JUMP JUMPDEST SWAP1 POP DUP2 DUP2 SUB PUSH1 0x20 DUP4 ADD MSTORE PUSH2 0x622A DUP2 PUSH2 0x61DD JUMP JUMPDEST SWAP1 POP SWAP3 SWAP2 POP POP JUMP JUMPDEST PUSH32 0x596F752068617665206E6F742062696464656420666F72207468697320736572 PUSH0 DUP3 ADD MSTORE PUSH32 0x7669636520726571756573740000000000000000000000000000000000000000 PUSH1 0x20 DUP3 ADD MSTORE POP JUMP JUMPDEST PUSH0 PUSH2 0x628C PUSH1 0x2C DUP4 PUSH2 0x457B JUMP JUMPDEST SWAP2 POP PUSH2 0x6297 DUP3 PUSH2 0x6232 JUMP JUMPDEST PUSH1 0x40 DUP3 ADD SWAP1 POP SWAP2 SWAP1 POP JUMP JUMPDEST PUSH0 PUSH1 0x40 DUP3 ADD SWAP1 POP DUP2 DUP2 SUB PUSH0 DUP4 ADD MSTORE PUSH2 0x62BA DUP2 DUP5 PUSH2 0x458B JUMP JUMPDEST SWAP1 POP DUP2 DUP2 SUB PUSH1 0x20 DUP4 ADD MSTORE PUSH2 0x62CD DUP2 PUSH2 0x6280 JUMP JUMPDEST SWAP1 POP SWAP3 SWAP2 POP POP JUMP JUMPDEST PUSH2 0x62DE DUP2 PUSH2 0x3D5C JUMP JUMPDEST DUP3 MSTORE POP POP JUMP JUMPDEST PUSH32 0x456E7465722076616C6964206C6174697475646520636F6F7264696E61746573 PUSH0 DUP3 ADD MSTORE POP JUMP JUMPDEST PUSH0 PUSH2 0x6318 PUSH1 0x20 DUP4 PUSH2 0x457B JUMP JUMPDEST SWAP2 POP PUSH2 0x6323 DUP3 PUSH2 0x62E4 JUMP JUMPDEST PUSH1 0x20 DUP3 ADD SWAP1 POP SWAP2 SWAP1 POP JUMP JUMPDEST PUSH0 PUSH1 0x60 DUP3 ADD SWAP1 POP PUSH2 0x6341 PUSH0 DUP4 ADD DUP6 PUSH2 0x62D5 JUMP JUMPDEST PUSH2 0x634E PUSH1 0x20 DUP4 ADD DUP5 PUSH2 0x62D5 JUMP JUMPDEST DUP2 DUP2 SUB PUSH1 0x40 DUP4 ADD MSTORE PUSH2 0x635F DUP2 PUSH2 0x630C JUMP JUMPDEST SWAP1 POP SWAP4 SWAP3 POP POP POP JUMP JUMPDEST PUSH32 0x456E7465722076616C6964206C6F6E67697475646520636F6F7264696E617465 PUSH0 DUP3 ADD MSTORE PUSH32 0x7300000000000000000000000000000000000000000000000000000000000000 PUSH1 0x20 DUP3 ADD MSTORE POP JUMP JUMPDEST PUSH0 PUSH2 0x63C2 PUSH1 0x21 DUP4 PUSH2 0x457B JUMP JUMPDEST SWAP2 POP PUSH2 0x63CD DUP3 PUSH2 0x6368 JUMP JUMPDEST PUSH1 0x40 DUP3 ADD SWAP1 POP SWAP2 SWAP1 POP JUMP JUMPDEST PUSH0 PUSH1 0x60 DUP3 ADD SWAP1 POP PUSH2 0x63EB PUSH0 DUP4 ADD DUP6 PUSH2 0x62D5 JUMP JUMPDEST PUSH2 0x63F8 PUSH1 0x20 DUP4 ADD DUP5 PUSH2 0x62D5 JUMP JUMPDEST DUP2 DUP2 SUB PUSH1 0x40 DUP4 ADD MSTORE PUSH2 0x6409 DUP2 PUSH2 0x63B6 JUMP JUMPDEST SWAP1 POP SWAP4 SWAP3 POP POP POP JUMP JUMPDEST PUSH32 0x47656F486173682063616E6E6F7420626520656D707479000000000000000000 PUSH0 DUP3 ADD MSTORE POP JUMP JUMPDEST PUSH0 PUSH2 0x6446 PUSH1 0x17 DUP4 PUSH2 0x457B JUMP JUMPDEST SWAP2 POP PUSH2 0x6451 DUP3 PUSH2 0x6412 JUMP JUMPDEST PUSH1 0x20 DUP3 ADD SWAP1 POP SWAP2 SWAP1 POP JUMP JUMPDEST PUSH0 PUSH1 0x40 DUP3 ADD SWAP1 POP DUP2 DUP2 SUB PUSH0 DUP4 ADD MSTORE PUSH2 0x6474 DUP2 DUP5 PUSH2 0x458B JUMP JUMPDEST SWAP1 POP DUP2 DUP2 SUB PUSH1 0x20 DUP4 ADD MSTORE PUSH2 0x6487 DUP2 PUSH2 0x643A JUMP JUMPDEST SWAP1 POP SWAP3 SWAP2 POP POP JUMP JUMPDEST PUSH32 0x506C656173652070726F766964652076616C69642061756374696F6E2074696D PUSH0 DUP3 ADD MSTORE PUSH32 0x6500000000000000000000000000000000000000000000000000000000000000 PUSH1 0x20 DUP3 ADD MSTORE POP JUMP JUMPDEST PUSH0 PUSH2 0x64E9 PUSH1 0x21 DUP4 PUSH2 0x457B JUMP JUMPDEST SWAP2 POP PUSH2 0x64F4 DUP3 PUSH2 0x648F JUMP JUMPDEST PUSH1 0x40 DUP3 ADD SWAP1 POP SWAP2 SWAP1 POP JUMP JUMPDEST PUSH0 PUSH1 0x40 DUP3 ADD SWAP1 POP PUSH2 0x6512 PUSH0 DUP4 ADD DUP5 PUSH2 0x4786 JUMP JUMPDEST DUP2 DUP2 SUB PUSH1 0x20 DUP4 ADD MSTORE PUSH2 0x6523 DUP2 PUSH2 0x64DD JUMP JUMPDEST SWAP1 POP SWAP3 SWAP2 POP POP JUMP JUMPDEST PUSH32 0x52657175657374207069636B75702074696D65206D75737420626520696E2074 PUSH0 DUP3 ADD MSTORE PUSH32 0x6865206675747572650000000000000000000000000000000000000000000000 PUSH1 0x20 DUP3 ADD MSTORE POP JUMP JUMPDEST PUSH0 PUSH2 0x6585 PUSH1 0x29 DUP4 PUSH2 0x457B JUMP JUMPDEST SWAP2 POP PUSH2 0x6590 DUP3 PUSH2 0x652B JUMP JUMPDEST PUSH1 0x40 DUP3 ADD SWAP1 POP SWAP2 SWAP1 POP JUMP JUMPDEST PUSH0 PUSH1 0x40 DUP3 ADD SWAP1 POP PUSH2 0x65AE PUSH0 DUP4 ADD DUP5 PUSH2 0x4786 JUMP JUMPDEST DUP2 DUP2 SUB PUSH1 0x20 DUP4 ADD MSTORE PUSH2 0x65BF DUP2 PUSH2 0x6579 JUMP JUMPDEST SWAP1 POP SWAP3 SWAP2 POP POP JUMP JUMPDEST PUSH32 0x526571756573742064656C69766572792074696D65206D75737420626520696E PUSH0 DUP3 ADD MSTORE PUSH32 0x2074686520667574757265000000000000000000000000000000000000000000 PUSH1 0x20 DUP3 ADD MSTORE POP JUMP JUMPDEST PUSH0 PUSH2 0x6621 PUSH1 0x2B DUP4 PUSH2 0x457B JUMP JUMPDEST SWAP2 POP PUSH2 0x662C DUP3 PUSH2 0x65C7 JUMP JUMPDEST PUSH1 0x40 DUP3 ADD SWAP1 POP SWAP2 SWAP1 POP JUMP JUMPDEST PUSH0 PUSH1 0x40 DUP3 ADD SWAP1 POP PUSH2 0x664A PUSH0 DUP4 ADD DUP5 PUSH2 0x4786 JUMP JUMPDEST DUP2 DUP2 SUB PUSH1 0x20 DUP4 ADD MSTORE PUSH2 0x665B DUP2 PUSH2 0x6615 JUMP JUMPDEST SWAP1 POP SWAP3 SWAP2 POP POP JUMP JUMPDEST PUSH32 0x5265717565737465642064656C69766572792074696D65206D75737420626520 PUSH0 DUP3 ADD MSTORE PUSH32 0x616674657220726571756573746564207069636B75702074696D650000000000 PUSH1 0x20 DUP3 ADD MSTORE POP JUMP JUMPDEST PUSH0 PUSH2 0x66BD PUSH1 0x3B DUP4 PUSH2 0x457B JUMP JUMPDEST SWAP2 POP PUSH2 0x66C8 DUP3 PUSH2 0x6663 JUMP JUMPDEST PUSH1 0x40 DUP3 ADD SWAP1 POP SWAP2 SWAP1 POP JUMP JUMPDEST PUSH0 PUSH1 0x40 DUP3 ADD SWAP1 POP PUSH2 0x66E6 PUSH0 DUP4 ADD DUP5 PUSH2 0x4786 JUMP JUMPDEST DUP2 DUP2 SUB PUSH1 0x20 DUP4 ADD MSTORE PUSH2 0x66F7 DUP2 PUSH2 0x66B1 JUMP JUMPDEST SWAP1 POP SWAP3 SWAP2 POP POP JUMP INVALID PUSH2 0x6263 PUSH5 0x6566676869 PUSH11 0x6B6C6D6E6F707172737475 PUSH23 0x7778797A4142434445464748494A4B4C4D4E4F50515253 SLOAD SSTORE JUMP JUMPI PC MSIZE GAS ADDRESS BALANCE ORIGIN CALLER CALLVALUE CALLDATALOAD CALLDATASIZE CALLDATACOPY CODESIZE CODECOPY LOG2 PUSH5 0x6970667358 0x22 SLT KECCAK256 SIGNEXTEND RETURNDATACOPY 0xC5 SELFDESTRUCT SIGNEXTEND LOG2 PUSH30 0xB80C3F8DDE77A585A3BA09E569813D2A759D9A0B1F57DEB08964736F6C63 NUMBER STOP ADDMOD NOT STOP CALLER "
		},
		"gasEstimates": {
			"creation": {
				"codeDepositCost": "5296600",
				"executionCost": "infinite",
				"totalCost": "infinite"
			},
			"external": {
				"cancelServiceRequest(string)": "infinite",
				"createServiceRequest((string,address,address,int256,int256,int256,int256,string,string,uint256,uint256,uint256,uint256,uint8))": "infinite",
				"decideWinner(string)": "infinite",
				"dutchBid(string,uint256)": "infinite",
				"getAllServiceRequestInfosInGeoHash(string)": "infinite",
				"getAllServiceRequestOfUser()": "infinite",
				"getServiceRequestInfoById(string)": "infinite",
				"updateDraftedServiceRequest(string)": "infinite",
				"updateServiceRequestStatusByDriver(string,uint8)": "infinite",
				"updateServiceRequestStatusByReceiver(string,uint8,uint8)": "infinite",
				"updateServiceRequestStatusByShipper(string,uint8)": "infinite"
			},
			"internal": {
				"checkAlreadyBidded(address,struct Types.DriverInfoDto memory[] memory)": "infinite",
				"checkValidGeoHash(string memory)": "infinite",
				"checkValidGpsCoordinates(int256,int256)": "infinite",
				"checkValidTimmings(uint256,uint256,uint256)": "infinite",
				"checkValidationsForServiceRequestCreation(struct Types.ServiceRequestInfoDto memory,uint256)": "infinite",
				"getDriverGeoHash(address)": "infinite",
				"getServiceRequestById(string memory)": "infinite",
				"refundCargoValue(string memory,address)": "infinite"
			}
		},
		"methodIdentifiers": {
			"cancelServiceRequest(string)": "816c2cb7",
			"createServiceRequest((string,address,address,int256,int256,int256,int256,string,string,uint256,uint256,uint256,uint256,uint8))": "c2da97ba",
			"decideWinner(string)": "ef693b98",
			"dutchBid(string,uint256)": "12b28b3c",
			"getAllServiceRequestInfosInGeoHash(string)": "7a1cf72f",
			"getAllServiceRequestOfUser()": "8879a530",
			"getServiceRequestInfoById(string)": "5b664fcb",
			"updateDraftedServiceRequest(string)": "750e0abd",
			"updateServiceRequestStatusByDriver(string,uint8)": "7a335cef",
			"updateServiceRequestStatusByReceiver(string,uint8,uint8)": "c928fd1d",
			"updateServiceRequestStatusByShipper(string,uint8)": "1821fb39"
		}
	},
	"abi": [
		{
			"inputs": [
				{
					"internalType": "address",
					"name": "_geekToken",
					"type": "address"
				}
			],
			"stateMutability": "nonpayable",
			"type": "constructor"
		},
		{
			"inputs": [
				{
					"internalType": "string",
					"name": "serviceRequestId",
					"type": "string"
				},
				{
					"internalType": "string",
					"name": "message",
					"type": "string"
				}
			],
			"name": "AccessDenied",
			"type": "error"
		},
		{
			"inputs": [
				{
					"internalType": "address",
					"name": "bidder",
					"type": "address"
				},
				{
					"internalType": "string",
					"name": "message",
					"type": "string"
				}
			],
			"name": "AlreadyBidded",
			"type": "error"
		},
		{
			"inputs": [
				{
					"internalType": "string",
					"name": "serviceRequestId",
					"type": "string"
				},
				{
					"internalType": "string",
					"name": "message",
					"type": "string"
				}
			],
			"name": "AuctionEnded",
			"type": "error"
		},
		{
			"inputs": [
				{
					"internalType": "string",
					"name": "serviceRequestId",
					"type": "string"
				},
				{
					"internalType": "string",
					"name": "message",
					"type": "string"
				}
			],
			"name": "AuctionInProgress",
			"type": "error"
		},
		{
			"inputs": [
				{
					"internalType": "string",
					"name": "serviceRequestId",
					"type": "string"
				},
				{
					"internalType": "string",
					"name": "message",
					"type": "string"
				}
			],
			"name": "AuctionNotStarted",
			"type": "error"
		},
		{
			"inputs": [
				{
					"internalType": "uint256",
					"name": "cargoInsuranceValue",
					"type": "uint256"
				},
				{
					"internalType": "string",
					"name": "message",
					"type": "string"
				}
			],
			"name": "InvalidCargoInsuranceValue",
			"type": "error"
		},
		{
			"inputs": [
				{
					"internalType": "int256",
					"name": "latitude",
					"type": "int256"
				},
				{
					"internalType": "int256",
					"name": "longitude",
					"type": "int256"
				},
				{
					"internalType": "string",
					"name": "message",
					"type": "string"
				}
			],
			"name": "InvalidCoordinates",
			"type": "error"
		},
		{
			"inputs": [
				{
					"internalType": "string",
					"name": "description",
					"type": "string"
				},
				{
					"internalType": "string",
					"name": "message",
					"type": "string"
				}
			],
			"name": "InvalidDescription",
			"type": "error"
		},
		{
			"inputs": [
				{
					"internalType": "string",
					"name": "geoHash",
					"type": "string"
				},
				{
					"internalType": "string",
					"name": "message",
					"type": "string"
				}
			],
			"name": "InvalidGeoHash",
			"type": "error"
		},
		{
			"inputs": [
				{
					"internalType": "uint256",
					"name": "value",
					"type": "uint256"
				},
				{
					"internalType": "string",
					"name": "message",
					"type": "string"
				}
			],
			"name": "InvalidProductValue",
			"type": "error"
		},
		{
			"inputs": [
				{
					"internalType": "uint256",
					"name": "serviceFee",
					"type": "uint256"
				},
				{
					"internalType": "string",
					"name": "message",
					"type": "string"
				}
			],
			"name": "InvalidServiceFee",
			"type": "error"
		},
		{
			"inputs": [
				{
					"internalType": "uint256",
					"name": "timestamp",
					"type": "uint256"
				},
				{
					"internalType": "string",
					"name": "message",
					"type": "string"
				}
			],
			"name": "InvalidTimmings",
			"type": "error"
		},
		{
			"inputs": [
				{
					"internalType": "string",
					"name": "serviceRequestId",
					"type": "string"
				},
				{
					"internalType": "string",
					"name": "message",
					"type": "string"
				}
			],
			"name": "SRCannotBeUpdated",
			"type": "error"
		},
		{
			"inputs": [
				{
					"internalType": "string",
					"name": "serviceRequestId",
					"type": "string"
				},
				{
					"internalType": "string",
					"name": "message",
					"type": "string"
				}
			],
			"name": "ServiceRequestCannotBeCancelled",
			"type": "error"
		},
		{
			"inputs": [
				{
					"internalType": "string",
					"name": "serviceRequestId",
					"type": "string"
				},
				{
					"internalType": "string",
					"name": "message",
					"type": "string"
				}
			],
			"name": "ServiceRequestDoesNotExists",
			"type": "error"
		},
		{
			"inputs": [
				{
					"internalType": "string",
					"name": "serviceRequestId",
					"type": "string"
				},
				{
					"internalType": "string",
					"name": "message",
					"type": "string"
				}
			],
			"name": "ServiceRequestOutOfRegion",
			"type": "error"
		},
		{
			"anonymous": false,
			"inputs": [
				{
					"indexed": false,
					"internalType": "string",
					"name": "serviceRequestId",
					"type": "string"
				},
				{
					"indexed": false,
					"internalType": "string",
					"name": "message",
					"type": "string"
				}
			],
			"name": "AuctionResult",
			"type": "event"
		},
		{
			"anonymous": false,
			"inputs": [
				{
					"indexed": false,
					"internalType": "string",
					"name": "serviceRequestId",
					"type": "string"
				},
				{
					"indexed": false,
					"internalType": "uint256",
					"name": "serviceFee",
					"type": "uint256"
				},
				{
					"indexed": false,
					"internalType": "address",
					"name": "bidder",
					"type": "address"
				}
			],
			"name": "BiddedSuccessfully",
			"type": "event"
		},
		{
			"anonymous": false,
			"inputs": [
				{
					"indexed": false,
					"internalType": "address",
					"name": "from",
					"type": "address"
				},
				{
					"indexed": false,
					"internalType": "address",
					"name": "to",
					"type": "address"
				},
				{
					"indexed": false,
					"internalType": "uint256",
					"name": "cargoAmountValue",
					"type": "uint256"
				}
			],
			"name": "CargoValueRefunded",
			"type": "event"
		},
		{
			"anonymous": false,
			"inputs": [
				{
					"indexed": false,
					"internalType": "string",
					"name": "serviceRequestId",
					"type": "string"
				},
				{
					"indexed": false,
					"internalType": "string",
					"name": "message",
					"type": "string"
				}
			],
			"name": "IncreasedAuctionTimeForSR",
			"type": "event"
		},
		{
			"anonymous": false,
			"inputs": [
				{
					"indexed": false,
					"internalType": "string",
					"name": "serviceRequestId",
					"type": "string"
				},
				{
					"indexed": false,
					"internalType": "address",
					"name": "shipperAddr",
					"type": "address"
				}
			],
			"name": "ServiceRequestCancelled",
			"type": "event"
		},
		{
			"anonymous": false,
			"inputs": [
				{
					"components": [
						{
							"internalType": "string",
							"name": "serviceRequestId",
							"type": "string"
						},
						{
							"internalType": "string",
							"name": "description",
							"type": "string"
						},
						{
							"internalType": "address",
							"name": "shipperAddr",
							"type": "address"
						},
						{
							"internalType": "address",
							"name": "receiverAddr",
							"type": "address"
						},
						{
							"internalType": "int256",
							"name": "originLatitude",
							"type": "int256"
						},
						{
							"internalType": "int256",
							"name": "originLongitude",
							"type": "int256"
						},
						{
							"internalType": "int256",
							"name": "destinationLatitude",
							"type": "int256"
						},
						{
							"internalType": "int256",
							"name": "destinationLongitude",
							"type": "int256"
						},
						{
							"internalType": "string",
							"name": "originLink",
							"type": "string"
						},
						{
							"internalType": "string",
							"name": "destinationLink",
							"type": "string"
						},
						{
							"internalType": "uint256",
							"name": "cargoInsurableValue",
							"type": "uint256"
						},
						{
							"internalType": "uint256",
							"name": "serviceFee",
							"type": "uint256"
						},
						{
							"internalType": "uint256",
							"name": "serviceFeeByBidder",
							"type": "uint256"
						},
						{
							"internalType": "uint256",
							"name": "requestedPickupTime",
							"type": "uint256"
						},
						{
							"internalType": "uint256",
							"name": "requestedDeliveryTime",
							"type": "uint256"
						},
						{
							"internalType": "uint256",
							"name": "auctionTime",
							"type": "uint256"
						},
						{
							"internalType": "address",
							"name": "driverAssigned",
							"type": "address"
						},
						{
							"internalType": "enum Types.Status",
							"name": "status",
							"type": "uint8"
						}
					],
					"indexed": false,
					"internalType": "struct Types.ServiceRequestInfo",
					"name": "serviceRequestInfo",
					"type": "tuple"
				},
				{
					"indexed": false,
					"internalType": "string",
					"name": "message",
					"type": "string"
				}
			],
			"name": "ServiceRequestCreated",
			"type": "event"
		},
		{
			"anonymous": false,
			"inputs": [
				{
					"indexed": false,
					"internalType": "string",
					"name": "serviceRequestId",
					"type": "string"
				},
				{
					"indexed": false,
					"internalType": "string",
					"name": "message",
					"type": "string"
				}
			],
			"name": "UpdatedSRStatus",
			"type": "event"
		},
		{
			"inputs": [
				{
					"internalType": "string",
					"name": "_serviceRequestId",
					"type": "string"
				}
			],
			"name": "cancelServiceRequest",
			"outputs": [],
			"stateMutability": "nonpayable",
			"type": "function"
		},
		{
			"inputs": [
				{
					"components": [
						{
							"internalType": "string",
							"name": "description",
							"type": "string"
						},
						{
							"internalType": "address",
							"name": "shipperAddr",
							"type": "address"
						},
						{
							"internalType": "address",
							"name": "receiverAddr",
							"type": "address"
						},
						{
							"internalType": "int256",
							"name": "originLatitude",
							"type": "int256"
						},
						{
							"internalType": "int256",
							"name": "originLongitude",
							"type": "int256"
						},
						{
							"internalType": "int256",
							"name": "destinationLatitude",
							"type": "int256"
						},
						{
							"internalType": "int256",
							"name": "destinationLongitude",
							"type": "int256"
						},
						{
							"internalType": "string",
							"name": "originLink",
							"type": "string"
						},
						{
							"internalType": "string",
							"name": "destinationLink",
							"type": "string"
						},
						{
							"internalType": "uint256",
							"name": "cargoInsurableValue",
							"type": "uint256"
						},
						{
							"internalType": "uint256",
							"name": "requestedPickupTime",
							"type": "uint256"
						},
						{
							"internalType": "uint256",
							"name": "requestedDeliveryTime",
							"type": "uint256"
						},
						{
							"internalType": "uint256",
							"name": "auctionTime",
							"type": "uint256"
						},
						{
							"internalType": "enum Types.ServiceRequestInitialStatus",
							"name": "status",
							"type": "uint8"
						}
					],
					"internalType": "struct Types.ServiceRequestInfoDto",
					"name": "_serviceRequestInfoDto",
					"type": "tuple"
				}
			],
			"name": "createServiceRequest",
			"outputs": [],
			"stateMutability": "payable",
			"type": "function"
		},
		{
			"inputs": [
				{
					"internalType": "string",
					"name": "_serviceRequestId",
					"type": "string"
				}
			],
			"name": "decideWinner",
			"outputs": [],
			"stateMutability": "nonpayable",
			"type": "function"
		},
		{
			"inputs": [
				{
					"internalType": "string",
					"name": "_serviceRequestId",
					"type": "string"
				},
				{
					"internalType": "uint256",
					"name": "_serviceFee",
					"type": "uint256"
				}
			],
			"name": "dutchBid",
			"outputs": [],
			"stateMutability": "payable",
			"type": "function"
		},
		{
			"inputs": [
				{
					"internalType": "string",
					"name": "_geoHash",
					"type": "string"
				}
			],
			"name": "getAllServiceRequestInfosInGeoHash",
			"outputs": [
				{
					"components": [
						{
							"internalType": "string",
							"name": "serviceRequestId",
							"type": "string"
						},
						{
							"internalType": "string",
							"name": "description",
							"type": "string"
						},
						{
							"internalType": "address",
							"name": "shipperAddr",
							"type": "address"
						},
						{
							"internalType": "address",
							"name": "receiverAddr",
							"type": "address"
						},
						{
							"internalType": "int256",
							"name": "originLatitude",
							"type": "int256"
						},
						{
							"internalType": "int256",
							"name": "originLongitude",
							"type": "int256"
						},
						{
							"internalType": "int256",
							"name": "destinationLatitude",
							"type": "int256"
						},
						{
							"internalType": "int256",
							"name": "destinationLongitude",
							"type": "int256"
						},
						{
							"internalType": "string",
							"name": "originLink",
							"type": "string"
						},
						{
							"internalType": "string",
							"name": "destinationLink",
							"type": "string"
						},
						{
							"internalType": "uint256",
							"name": "cargoInsurableValue",
							"type": "uint256"
						},
						{
							"internalType": "uint256",
							"name": "serviceFee",
							"type": "uint256"
						},
						{
							"internalType": "uint256",
							"name": "serviceFeeByBidder",
							"type": "uint256"
						},
						{
							"internalType": "uint256",
							"name": "requestedPickupTime",
							"type": "uint256"
						},
						{
							"internalType": "uint256",
							"name": "requestedDeliveryTime",
							"type": "uint256"
						},
						{
							"internalType": "uint256",
							"name": "auctionTime",
							"type": "uint256"
						},
						{
							"internalType": "address",
							"name": "driverAssigned",
							"type": "address"
						},
						{
							"internalType": "enum Types.Status",
							"name": "status",
							"type": "uint8"
						}
					],
					"internalType": "struct Types.ServiceRequestInfo[]",
					"name": "",
					"type": "tuple[]"
				}
			],
			"stateMutability": "view",
			"type": "function"
		},
		{
			"inputs": [],
			"name": "getAllServiceRequestOfUser",
			"outputs": [
				{
					"components": [
						{
							"internalType": "string",
							"name": "serviceRequestId",
							"type": "string"
						},
						{
							"internalType": "string",
							"name": "description",
							"type": "string"
						},
						{
							"internalType": "address",
							"name": "shipperAddr",
							"type": "address"
						},
						{
							"internalType": "address",
							"name": "receiverAddr",
							"type": "address"
						},
						{
							"internalType": "int256",
							"name": "originLatitude",
							"type": "int256"
						},
						{
							"internalType": "int256",
							"name": "originLongitude",
							"type": "int256"
						},
						{
							"internalType": "int256",
							"name": "destinationLatitude",
							"type": "int256"
						},
						{
							"internalType": "int256",
							"name": "destinationLongitude",
							"type": "int256"
						},
						{
							"internalType": "string",
							"name": "originLink",
							"type": "string"
						},
						{
							"internalType": "string",
							"name": "destinationLink",
							"type": "string"
						},
						{
							"internalType": "uint256",
							"name": "cargoInsurableValue",
							"type": "uint256"
						},
						{
							"internalType": "uint256",
							"name": "serviceFee",
							"type": "uint256"
						},
						{
							"internalType": "uint256",
							"name": "serviceFeeByBidder",
							"type": "uint256"
						},
						{
							"internalType": "uint256",
							"name": "requestedPickupTime",
							"type": "uint256"
						},
						{
							"internalType": "uint256",
							"name": "requestedDeliveryTime",
							"type": "uint256"
						},
						{
							"internalType": "uint256",
							"name": "auctionTime",
							"type": "uint256"
						},
						{
							"internalType": "address",
							"name": "driverAssigned",
							"type": "address"
						},
						{
							"internalType": "enum Types.Status",
							"name": "status",
							"type": "uint8"
						}
					],
					"internalType": "struct Types.ServiceRequestInfo[]",
					"name": "",
					"type": "tuple[]"
				}
			],
			"stateMutability": "view",
			"type": "function"
		},
		{
			"inputs": [
				{
					"internalType": "string",
					"name": "_serviceRequestId",
					"type": "string"
				}
			],
			"name": "getServiceRequestInfoById",
			"outputs": [
				{
					"components": [
						{
							"internalType": "string",
							"name": "serviceRequestId",
							"type": "string"
						},
						{
							"internalType": "string",
							"name": "description",
							"type": "string"
						},
						{
							"internalType": "address",
							"name": "shipperAddr",
							"type": "address"
						},
						{
							"internalType": "address",
							"name": "receiverAddr",
							"type": "address"
						},
						{
							"internalType": "int256",
							"name": "originLatitude",
							"type": "int256"
						},
						{
							"internalType": "int256",
							"name": "originLongitude",
							"type": "int256"
						},
						{
							"internalType": "int256",
							"name": "destinationLatitude",
							"type": "int256"
						},
						{
							"internalType": "int256",
							"name": "destinationLongitude",
							"type": "int256"
						},
						{
							"internalType": "string",
							"name": "originLink",
							"type": "string"
						},
						{
							"internalType": "string",
							"name": "destinationLink",
							"type": "string"
						},
						{
							"internalType": "uint256",
							"name": "cargoInsurableValue",
							"type": "uint256"
						},
						{
							"internalType": "uint256",
							"name": "serviceFee",
							"type": "uint256"
						},
						{
							"internalType": "uint256",
							"name": "serviceFeeByBidder",
							"type": "uint256"
						},
						{
							"internalType": "uint256",
							"name": "requestedPickupTime",
							"type": "uint256"
						},
						{
							"internalType": "uint256",
							"name": "requestedDeliveryTime",
							"type": "uint256"
						},
						{
							"internalType": "uint256",
							"name": "auctionTime",
							"type": "uint256"
						},
						{
							"internalType": "address",
							"name": "driverAssigned",
							"type": "address"
						},
						{
							"internalType": "enum Types.Status",
							"name": "status",
							"type": "uint8"
						}
					],
					"internalType": "struct Types.ServiceRequestInfo",
					"name": "",
					"type": "tuple"
				}
			],
			"stateMutability": "view",
			"type": "function"
		},
		{
			"inputs": [
				{
					"internalType": "string",
					"name": "_serviceRequestId",
					"type": "string"
				}
			],
			"name": "updateDraftedServiceRequest",
			"outputs": [],
			"stateMutability": "nonpayable",
			"type": "function"
		},
		{
			"inputs": [
				{
					"internalType": "string",
					"name": "_serviceRequestId",
					"type": "string"
				},
				{
					"internalType": "enum Types.Status",
					"name": "_status",
					"type": "uint8"
				}
			],
			"name": "updateServiceRequestStatusByDriver",
			"outputs": [],
			"stateMutability": "nonpayable",
			"type": "function"
		},
		{
			"inputs": [
				{
					"internalType": "string",
					"name": "_serviceRequestId",
					"type": "string"
				},
				{
					"internalType": "enum Types.Status",
					"name": "_status",
					"type": "uint8"
				},
				{
					"internalType": "enum Types.Acceptance",
					"name": "acceptance",
					"type": "uint8"
				}
			],
			"name": "updateServiceRequestStatusByReceiver",
			"outputs": [],
			"stateMutability": "nonpayable",
			"type": "function"
		},
		{
			"inputs": [
				{
					"internalType": "string",
					"name": "_serviceRequestId",
					"type": "string"
				},
				{
					"internalType": "enum Types.Status",
					"name": "_status",
					"type": "uint8"
				}
			],
			"name": "updateServiceRequestStatusByShipper",
			"outputs": [],
			"stateMutability": "nonpayable",
			"type": "function"
		}
	]
}