{
	"data": {
		"bytecode": {
			"linkReferences": {},
			"object": "608060405234801561000f575f80fd5b50611e148061001d5f395ff3fe608060405260043610610028575f3560e01c80632e0aac3e1461002c5780636b5425b214610056575b5f80fd5b348015610037575f80fd5b50610040610072565b60405161004d9190610e7f565b60405180910390f35b610070600480360381019061006b91906111f2565b610093565b005b60605f5b5f8054905081101561008f578080600101915050610076565b5090565b805f01515f73ffffffffffffffffffffffffffffffffffffffff168173ffffffffffffffffffffffffffffffffffffffff1614806100d657506100d5816107aa565b5b1561011857806040517ff7693c3d00000000000000000000000000000000000000000000000000000000815260040161010f91906112a2565b60405180910390fd5b81602001515f73ffffffffffffffffffffffffffffffffffffffff168173ffffffffffffffffffffffffffffffffffffffff16148061015c575061015b816107aa565b5b1561019e57806040517ff7693c3d00000000000000000000000000000000000000000000000000000000815260040161019591906112a2565b60405180910390fd5b826040015183606001517fffffffffffffffffffffffffffffffffffffffffffffffffffffffffffffffa68212806101d65750605a82135b1561021a5781816040517fde0e81dd000000000000000000000000000000000000000000000000000000008152600401610211929190611327565b60405180910390fd5b7fffffffffffffffffffffffffffffffffffffffffffffffffffffffffffffff4c811280610248575060b481135b1561028c5781816040517fde0e81dd000000000000000000000000000000000000000000000000000000008152600401610283929190611327565b60405180910390fd5b84608001518560a001517fffffffffffffffffffffffffffffffffffffffffffffffffffffffffffffffa68212806102c45750605a82135b156103085781816040517fde0e81dd0000000000000000000000000000000000000000000000000000000081526004016102ff929190611327565b60405180910390fd5b7fffffffffffffffffffffffffffffffffffffffffffffffffffffffffffffff4c811280610336575060b481135b1561037a5781816040517fde0e81dd000000000000000000000000000000000000000000000000000000008152600401610371929190611327565b60405180910390fd5b8660c001515f8151036103c457806040517f8b677a5c0000000000000000000000000000000000000000000000000000000081526004016103bb91906113e3565b60405180910390fd5b8760e001515f81510361040e57806040517f8b677a5c00000000000000000000000000000000000000000000000000000000815260040161040591906113e3565b60405180910390fd5b886101000151345f820361045957816040517f80f71e12000000000000000000000000000000000000000000000000000000008152600401610450919061146f565b60405180910390fd5b5f810361049d57806040517f80f71e1200000000000000000000000000000000000000000000000000000000815260040161049491906114e5565b60405180910390fd5b6104b78b61012001518c61014001518d61016001516107b4565b5f6104c260206109d9565b90505f604051806101e001604052808381526020013373ffffffffffffffffffffffffffffffffffffffff1681526020018e6020015173ffffffffffffffffffffffffffffffffffffffff1681526020018e6040015181526020018e6060015181526020018e6080015181526020018e60a0015181526020018e60c0015181526020018e60e0015181526020018e610100015181526020013481526020018e610120015181526020018e610140015181526020018e610160015181526020015f600181111561059457610593610c2c565b5b8f610180015160018111156105ac576105ab610c2c565b5b146105b85760016105ba565b5f5b600a8111156105cc576105cb610c2c565b5b81525090503073ffffffffffffffffffffffffffffffffffffffff166108fc3490811502906040515f60405180830381858888f19350505050158015610614573d5f803e3d5ffd5b505f81908060018154018082558091505060019003905f5260205f2090600f02015f909190919091505f820151815f019081610650919061170b565b506020820151816001015f6101000a81548173ffffffffffffffffffffffffffffffffffffffff021916908373ffffffffffffffffffffffffffffffffffffffff1602179055506040820151816002015f6101000a81548173ffffffffffffffffffffffffffffffffffffffff021916908373ffffffffffffffffffffffffffffffffffffffff160217905550606082015181600301556080820151816004015560a0820151816005015560c0820151816006015560e082015181600701908161071a919061170b565b50610100820151816008019081610731919061170b565b50610120820151816009015561014082015181600a015561016082015181600b015561018082015181600c01556101a082015181600d01556101c082015181600e015f6101000a81548160ff0219169083600a81111561079457610793610c2c565b5b0217905550505050505050505050505050505050565b5f60019050919050565b5f81116107f857806040517f11a242af0000000000000000000000000000000000000000000000000000000081526004016107ef919061184a565b60405180910390fd5b5f831161083c57826040517f11a242af00000000000000000000000000000000000000000000000000000000815260040161083391906118e6565b60405180910390fd5b5f821161088057816040517f11a242af0000000000000000000000000000000000000000000000000000000081526004016108779190611982565b60405180910390fd5b4281116108c457806040517f11a242af0000000000000000000000000000000000000000000000000000000081526004016108bb9190611a1e565b60405180910390fd5b42831161090857826040517f11a242af0000000000000000000000000000000000000000000000000000000081526004016108ff9190611aba565b60405180910390fd5b42821161094c57816040517f11a242af0000000000000000000000000000000000000000000000000000000081526004016109439190611b56565b60405180910390fd5b82811061099057806040517f11a242af0000000000000000000000000000000000000000000000000000000081526004016109879190611bf2565b60405180910390fd5b8282116109d457816040517f11a242af0000000000000000000000000000000000000000000000000000000081526004016109cb9190611c8e565b60405180910390fd5b505050565b60605f6040518060600160405280603e8152602001611da1603e913990505f8367ffffffffffffffff811115610a1257610a11610eb4565b5b6040519080825280601f01601f191660200182016040528015610a445781602001600182028036833780820191505090505b5090505f825190505f5b85811015610afe575f82424484604051602001610a6d93929190611cda565b604051602081830303815290604052805190602001205f1c610a8f9190611d43565b9050848181518110610aa457610aa3611d73565b5b602001015160f81c60f81b848381518110610ac257610ac1611d73565b5b60200101907effffffffffffffffffffffffffffffffffffffffffffffffffffffffffffff191690815f1a905350508080600101915050610a4e565b50819350505050919050565b5f81519050919050565b5f82825260208201905092915050565b5f819050602082019050919050565b5f81519050919050565b5f82825260208201905092915050565b5f5b83811015610b6a578082015181840152602081019050610b4f565b5f8484015250505050565b5f601f19601f8301169050919050565b5f610b8f82610b33565b610b998185610b3d565b9350610ba9818560208601610b4d565b610bb281610b75565b840191505092915050565b5f73ffffffffffffffffffffffffffffffffffffffff82169050919050565b5f610be682610bbd565b9050919050565b610bf681610bdc565b82525050565b5f819050919050565b610c0e81610bfc565b82525050565b5f819050919050565b610c2681610c14565b82525050565b7f4e487b71000000000000000000000000000000000000000000000000000000005f52602160045260245ffd5b600b8110610c6a57610c69610c2c565b5b50565b5f819050610c7a82610c59565b919050565b5f610c8982610c6d565b9050919050565b610c9981610c7f565b82525050565b5f6101e083015f8301518482035f860152610cba8282610b85565b9150506020830151610ccf6020860182610bed565b506040830151610ce26040860182610bed565b506060830151610cf56060860182610c05565b506080830151610d086080860182610c05565b5060a0830151610d1b60a0860182610c05565b5060c0830151610d2e60c0860182610c05565b5060e083015184820360e0860152610d468282610b85565b915050610100830151848203610100860152610d628282610b85565b915050610120830151610d79610120860182610c1d565b50610140830151610d8e610140860182610c1d565b50610160830151610da3610160860182610c1d565b50610180830151610db8610180860182610c1d565b506101a0830151610dcd6101a0860182610c1d565b506101c0830151610de26101c0860182610c90565b508091505092915050565b5f610df88383610c9f565b905092915050565b5f602082019050919050565b5f610e1682610b0a565b610e208185610b14565b935083602082028501610e3285610b24565b805f5b85811015610e6d5784840389528151610e4e8582610ded565b9450610e5983610e00565b925060208a01995050600181019050610e35565b50829750879550505050505092915050565b5f6020820190508181035f830152610e978184610e0c565b905092915050565b5f604051905090565b5f80fd5b5f80fd5b5f80fd5b7f4e487b71000000000000000000000000000000000000000000000000000000005f52604160045260245ffd5b610eea82610b75565b810181811067ffffffffffffffff82111715610f0957610f08610eb4565b5b80604052505050565b5f610f1b610e9f565b9050610f278282610ee1565b919050565b5f80fd5b610f3981610bdc565b8114610f43575f80fd5b50565b5f81359050610f5481610f30565b92915050565b610f6381610bfc565b8114610f6d575f80fd5b50565b5f81359050610f7e81610f5a565b92915050565b5f80fd5b5f80fd5b5f67ffffffffffffffff821115610fa657610fa5610eb4565b5b610faf82610b75565b9050602081019050919050565b828183375f83830152505050565b5f610fdc610fd784610f8c565b610f12565b905082815260208101848484011115610ff857610ff7610f88565b5b611003848285610fbc565b509392505050565b5f82601f83011261101f5761101e610f84565b5b813561102f848260208601610fca565b91505092915050565b61104181610c14565b811461104b575f80fd5b50565b5f8135905061105c81611038565b92915050565b6002811061106e575f80fd5b50565b5f8135905061107f81611062565b92915050565b5f6101a0828403121561109b5761109a610eb0565b5b6110a66101a0610f12565b90505f6110b584828501610f46565b5f8301525060206110c884828501610f46565b60208301525060406110dc84828501610f70565b60408301525060606110f084828501610f70565b606083015250608061110484828501610f70565b60808301525060a061111884828501610f70565b60a08301525060c082013567ffffffffffffffff81111561113c5761113b610f2c565b5b6111488482850161100b565b60c08301525060e082013567ffffffffffffffff81111561116c5761116b610f2c565b5b6111788482850161100b565b60e08301525061010061118d8482850161104e565b610100830152506101206111a38482850161104e565b610120830152506101406111b98482850161104e565b610140830152506101606111cf8482850161104e565b610160830152506101806111e584828501611071565b6101808301525092915050565b5f6020828403121561120757611206610ea8565b5b5f82013567ffffffffffffffff81111561122457611223610eac565b5b61123084828501611085565b91505092915050565b61124281610bdc565b82525050565b5f82825260208201905092915050565b7f41646472657373206973206e6f742076616c69640000000000000000000000005f82015250565b5f61128c601483611248565b915061129782611258565b602082019050919050565b5f6040820190506112b55f830184611239565b81810360208301526112c681611280565b905092915050565b6112d781610bfc565b82525050565b7f456e7465722076616c696420636f6f7264696e617465730000000000000000005f82015250565b5f611311601783611248565b915061131c826112dd565b602082019050919050565b5f60608201905061133a5f8301856112ce565b61134760208301846112ce565b818103604083015261135881611305565b90509392505050565b5f61136b82610b33565b6113758185611248565b9350611385818560208601610b4d565b61138e81610b75565b840191505092915050565b7f456e7465722076616c69642047656f48617368000000000000000000000000005f82015250565b5f6113cd601383611248565b91506113d882611399565b602082019050919050565b5f6040820190508181035f8301526113fb8184611361565b9050818103602083015261140e816113c1565b905092915050565b61141f81610c14565b82525050565b7f436172676f20696e737572616e63652076616c7565206e6f742076616c6964005f82015250565b5f611459601f83611248565b915061146482611425565b602082019050919050565b5f6040820190506114825f830184611416565b81810360208301526114938161144d565b905092915050565b7f536572766963652076616c7565206e6f742076616c69640000000000000000005f82015250565b5f6114cf601783611248565b91506114da8261149b565b602082019050919050565b5f6040820190506114f85f830184611416565b8181036020830152611509816114c3565b905092915050565b7f4e487b71000000000000000000000000000000000000000000000000000000005f52602260045260245ffd5b5f600282049050600182168061155557607f821691505b60208210810361156857611567611511565b5b50919050565b5f819050815f5260205f209050919050565b5f6020601f8301049050919050565b5f82821b905092915050565b5f600883026115ca7fffffffffffffffffffffffffffffffffffffffffffffffffffffffffffffffff8261158f565b6115d4868361158f565b95508019841693508086168417925050509392505050565b5f819050919050565b5f61160f61160a61160584610c14565b6115ec565b610c14565b9050919050565b5f819050919050565b611628836115f5565b61163c61163482611616565b84845461159b565b825550505050565b5f90565b611650611644565b61165b81848461161f565b505050565b5b8181101561167e576116735f82611648565b600181019050611661565b5050565b601f8211156116c3576116948161156e565b61169d84611580565b810160208510156116ac578190505b6116c06116b885611580565b830182611660565b50505b505050565b5f82821c905092915050565b5f6116e35f19846008026116c8565b1980831691505092915050565b5f6116fb83836116d4565b9150826002028217905092915050565b61171482610b33565b67ffffffffffffffff81111561172d5761172c610eb4565b5b611737825461153e565b611742828285611682565b5f60209050601f831160018114611773575f8415611761578287015190505b61176b85826116f0565b8655506117d2565b601f1984166117818661156e565b5f5b828110156117a857848901518255600182019150602085019450602081019050611783565b868310156117c557848901516117c1601f8916826116d4565b8355505b6001600288020188555050505b505050505050565b7f41756374696f6e2073746172742074696d65206d7573742062652070726f76695f8201527f6465640000000000000000000000000000000000000000000000000000000000602082015250565b5f611834602383611248565b915061183f826117da565b604082019050919050565b5f60408201905061185d5f830184611416565b818103602083015261186e81611828565b905092915050565b7f526571756573746564207069636b75702074696d65206d7573742062652070725f8201527f6f76696465640000000000000000000000000000000000000000000000000000602082015250565b5f6118d0602683611248565b91506118db82611876565b604082019050919050565b5f6040820190506118f95f830184611416565b818103602083015261190a816118c4565b905092915050565b7f5265717565737465642064656c69766572792074696d65206d757374206265205f8201527f70726f7669646564000000000000000000000000000000000000000000000000602082015250565b5f61196c602883611248565b915061197782611912565b604082019050919050565b5f6040820190506119955f830184611416565b81810360208301526119a681611960565b905092915050565b7f41756374696f6e2073746172742074696d65206d75737420626520696e2074685f8201527f6520667574757265000000000000000000000000000000000000000000000000602082015250565b5f611a08602883611248565b9150611a13826119ae565b604082019050919050565b5f604082019050611a315f830184611416565b8181036020830152611a42816119fc565b905092915050565b7f52657175657374207069636b75702074696d65206d75737420626520696e20745f8201527f6865206675747572650000000000000000000000000000000000000000000000602082015250565b5f611aa4602983611248565b9150611aaf82611a4a565b604082019050919050565b5f604082019050611acd5f830184611416565b8181036020830152611ade81611a98565b905092915050565b7f526571756573742064656c69766572792074696d65206d75737420626520696e5f8201527f2074686520667574757265000000000000000000000000000000000000000000602082015250565b5f611b40602b83611248565b9150611b4b82611ae6565b604082019050919050565b5f604082019050611b695f830184611416565b8181036020830152611b7a81611b34565b905092915050565b7f41756374696f6e2073746172742074696d65206d757374206265206265666f725f8201527f652072657175657374207069636b75702074696d650000000000000000000000602082015250565b5f611bdc603583611248565b9150611be782611b82565b604082019050919050565b5f604082019050611c055f830184611416565b8181036020830152611c1681611bd0565b905092915050565b7f5265717565737465642064656c69766572792074696d65206d757374206265205f8201527f616674657220726571756573746564207069636b75702074696d650000000000602082015250565b5f611c78603b83611248565b9150611c8382611c1e565b604082019050919050565b5f604082019050611ca15f830184611416565b8181036020830152611cb281611c6c565b905092915050565b5f819050919050565b611cd4611ccf82610c14565b611cba565b82525050565b5f611ce58286611cc3565b602082019150611cf58285611cc3565b602082019150611d058284611cc3565b602082019150819050949350505050565b7f4e487b71000000000000000000000000000000000000000000000000000000005f52601260045260245ffd5b5f611d4d82610c14565b9150611d5883610c14565b925082611d6857611d67611d16565b5b828206905092915050565b7f4e487b71000000000000000000000000000000000000000000000000000000005f52603260045260245ffdfe6162636465666768696a6b6c6d6e6f707172737475767778797a4142434445464748494a4b4c4d4e4f505152535455565758595a30313233343536373839a264697066735822122044baf4a392e653792d75bfc5a51aa76df0aaf8e7a5f2637956c832e3505ed64b64736f6c63430008180033",
			"opcodes": "PUSH1 0x80 PUSH1 0x40 MSTORE CALLVALUE DUP1 ISZERO PUSH2 0xF JUMPI PUSH0 DUP1 REVERT JUMPDEST POP PUSH2 0x1E14 DUP1 PUSH2 0x1D PUSH0 CODECOPY PUSH0 RETURN INVALID PUSH1 0x80 PUSH1 0x40 MSTORE PUSH1 0x4 CALLDATASIZE LT PUSH2 0x28 JUMPI PUSH0 CALLDATALOAD PUSH1 0xE0 SHR DUP1 PUSH4 0x2E0AAC3E EQ PUSH2 0x2C JUMPI DUP1 PUSH4 0x6B5425B2 EQ PUSH2 0x56 JUMPI JUMPDEST PUSH0 DUP1 REVERT JUMPDEST CALLVALUE DUP1 ISZERO PUSH2 0x37 JUMPI PUSH0 DUP1 REVERT JUMPDEST POP PUSH2 0x40 PUSH2 0x72 JUMP JUMPDEST PUSH1 0x40 MLOAD PUSH2 0x4D SWAP2 SWAP1 PUSH2 0xE7F JUMP JUMPDEST PUSH1 0x40 MLOAD DUP1 SWAP2 SUB SWAP1 RETURN JUMPDEST PUSH2 0x70 PUSH1 0x4 DUP1 CALLDATASIZE SUB DUP2 ADD SWAP1 PUSH2 0x6B SWAP2 SWAP1 PUSH2 0x11F2 JUMP JUMPDEST PUSH2 0x93 JUMP JUMPDEST STOP JUMPDEST PUSH1 0x60 PUSH0 JUMPDEST PUSH0 DUP1 SLOAD SWAP1 POP DUP2 LT ISZERO PUSH2 0x8F JUMPI DUP1 DUP1 PUSH1 0x1 ADD SWAP2 POP POP PUSH2 0x76 JUMP JUMPDEST POP SWAP1 JUMP JUMPDEST DUP1 PUSH0 ADD MLOAD PUSH0 PUSH20 0xFFFFFFFFFFFFFFFFFFFFFFFFFFFFFFFFFFFFFFFF AND DUP2 PUSH20 0xFFFFFFFFFFFFFFFFFFFFFFFFFFFFFFFFFFFFFFFF AND EQ DUP1 PUSH2 0xD6 JUMPI POP PUSH2 0xD5 DUP2 PUSH2 0x7AA JUMP JUMPDEST JUMPDEST ISZERO PUSH2 0x118 JUMPI DUP1 PUSH1 0x40 MLOAD PUSH32 0xF7693C3D00000000000000000000000000000000000000000000000000000000 DUP2 MSTORE PUSH1 0x4 ADD PUSH2 0x10F SWAP2 SWAP1 PUSH2 0x12A2 JUMP JUMPDEST PUSH1 0x40 MLOAD DUP1 SWAP2 SUB SWAP1 REVERT JUMPDEST DUP2 PUSH1 0x20 ADD MLOAD PUSH0 PUSH20 0xFFFFFFFFFFFFFFFFFFFFFFFFFFFFFFFFFFFFFFFF AND DUP2 PUSH20 0xFFFFFFFFFFFFFFFFFFFFFFFFFFFFFFFFFFFFFFFF AND EQ DUP1 PUSH2 0x15C JUMPI POP PUSH2 0x15B DUP2 PUSH2 0x7AA JUMP JUMPDEST JUMPDEST ISZERO PUSH2 0x19E JUMPI DUP1 PUSH1 0x40 MLOAD PUSH32 0xF7693C3D00000000000000000000000000000000000000000000000000000000 DUP2 MSTORE PUSH1 0x4 ADD PUSH2 0x195 SWAP2 SWAP1 PUSH2 0x12A2 JUMP JUMPDEST PUSH1 0x40 MLOAD DUP1 SWAP2 SUB SWAP1 REVERT JUMPDEST DUP3 PUSH1 0x40 ADD MLOAD DUP4 PUSH1 0x60 ADD MLOAD PUSH32 0xFFFFFFFFFFFFFFFFFFFFFFFFFFFFFFFFFFFFFFFFFFFFFFFFFFFFFFFFFFFFFFA6 DUP3 SLT DUP1 PUSH2 0x1D6 JUMPI POP PUSH1 0x5A DUP3 SGT JUMPDEST ISZERO PUSH2 0x21A JUMPI DUP2 DUP2 PUSH1 0x40 MLOAD PUSH32 0xDE0E81DD00000000000000000000000000000000000000000000000000000000 DUP2 MSTORE PUSH1 0x4 ADD PUSH2 0x211 SWAP3 SWAP2 SWAP1 PUSH2 0x1327 JUMP JUMPDEST PUSH1 0x40 MLOAD DUP1 SWAP2 SUB SWAP1 REVERT JUMPDEST PUSH32 0xFFFFFFFFFFFFFFFFFFFFFFFFFFFFFFFFFFFFFFFFFFFFFFFFFFFFFFFFFFFFFF4C DUP2 SLT DUP1 PUSH2 0x248 JUMPI POP PUSH1 0xB4 DUP2 SGT JUMPDEST ISZERO PUSH2 0x28C JUMPI DUP2 DUP2 PUSH1 0x40 MLOAD PUSH32 0xDE0E81DD00000000000000000000000000000000000000000000000000000000 DUP2 MSTORE PUSH1 0x4 ADD PUSH2 0x283 SWAP3 SWAP2 SWAP1 PUSH2 0x1327 JUMP JUMPDEST PUSH1 0x40 MLOAD DUP1 SWAP2 SUB SWAP1 REVERT JUMPDEST DUP5 PUSH1 0x80 ADD MLOAD DUP6 PUSH1 0xA0 ADD MLOAD PUSH32 0xFFFFFFFFFFFFFFFFFFFFFFFFFFFFFFFFFFFFFFFFFFFFFFFFFFFFFFFFFFFFFFA6 DUP3 SLT DUP1 PUSH2 0x2C4 JUMPI POP PUSH1 0x5A DUP3 SGT JUMPDEST ISZERO PUSH2 0x308 JUMPI DUP2 DUP2 PUSH1 0x40 MLOAD PUSH32 0xDE0E81DD00000000000000000000000000000000000000000000000000000000 DUP2 MSTORE PUSH1 0x4 ADD PUSH2 0x2FF SWAP3 SWAP2 SWAP1 PUSH2 0x1327 JUMP JUMPDEST PUSH1 0x40 MLOAD DUP1 SWAP2 SUB SWAP1 REVERT JUMPDEST PUSH32 0xFFFFFFFFFFFFFFFFFFFFFFFFFFFFFFFFFFFFFFFFFFFFFFFFFFFFFFFFFFFFFF4C DUP2 SLT DUP1 PUSH2 0x336 JUMPI POP PUSH1 0xB4 DUP2 SGT JUMPDEST ISZERO PUSH2 0x37A JUMPI DUP2 DUP2 PUSH1 0x40 MLOAD PUSH32 0xDE0E81DD00000000000000000000000000000000000000000000000000000000 DUP2 MSTORE PUSH1 0x4 ADD PUSH2 0x371 SWAP3 SWAP2 SWAP1 PUSH2 0x1327 JUMP JUMPDEST PUSH1 0x40 MLOAD DUP1 SWAP2 SUB SWAP1 REVERT JUMPDEST DUP7 PUSH1 0xC0 ADD MLOAD PUSH0 DUP2 MLOAD SUB PUSH2 0x3C4 JUMPI DUP1 PUSH1 0x40 MLOAD PUSH32 0x8B677A5C00000000000000000000000000000000000000000000000000000000 DUP2 MSTORE PUSH1 0x4 ADD PUSH2 0x3BB SWAP2 SWAP1 PUSH2 0x13E3 JUMP JUMPDEST PUSH1 0x40 MLOAD DUP1 SWAP2 SUB SWAP1 REVERT JUMPDEST DUP8 PUSH1 0xE0 ADD MLOAD PUSH0 DUP2 MLOAD SUB PUSH2 0x40E JUMPI DUP1 PUSH1 0x40 MLOAD PUSH32 0x8B677A5C00000000000000000000000000000000000000000000000000000000 DUP2 MSTORE PUSH1 0x4 ADD PUSH2 0x405 SWAP2 SWAP1 PUSH2 0x13E3 JUMP JUMPDEST PUSH1 0x40 MLOAD DUP1 SWAP2 SUB SWAP1 REVERT JUMPDEST DUP9 PUSH2 0x100 ADD MLOAD CALLVALUE PUSH0 DUP3 SUB PUSH2 0x459 JUMPI DUP2 PUSH1 0x40 MLOAD PUSH32 0x80F71E1200000000000000000000000000000000000000000000000000000000 DUP2 MSTORE PUSH1 0x4 ADD PUSH2 0x450 SWAP2 SWAP1 PUSH2 0x146F JUMP JUMPDEST PUSH1 0x40 MLOAD DUP1 SWAP2 SUB SWAP1 REVERT JUMPDEST PUSH0 DUP2 SUB PUSH2 0x49D JUMPI DUP1 PUSH1 0x40 MLOAD PUSH32 0x80F71E1200000000000000000000000000000000000000000000000000000000 DUP2 MSTORE PUSH1 0x4 ADD PUSH2 0x494 SWAP2 SWAP1 PUSH2 0x14E5 JUMP JUMPDEST PUSH1 0x40 MLOAD DUP1 SWAP2 SUB SWAP1 REVERT JUMPDEST PUSH2 0x4B7 DUP12 PUSH2 0x120 ADD MLOAD DUP13 PUSH2 0x140 ADD MLOAD DUP14 PUSH2 0x160 ADD MLOAD PUSH2 0x7B4 JUMP JUMPDEST PUSH0 PUSH2 0x4C2 PUSH1 0x20 PUSH2 0x9D9 JUMP JUMPDEST SWAP1 POP PUSH0 PUSH1 0x40 MLOAD DUP1 PUSH2 0x1E0 ADD PUSH1 0x40 MSTORE DUP1 DUP4 DUP2 MSTORE PUSH1 0x20 ADD CALLER PUSH20 0xFFFFFFFFFFFFFFFFFFFFFFFFFFFFFFFFFFFFFFFF AND DUP2 MSTORE PUSH1 0x20 ADD DUP15 PUSH1 0x20 ADD MLOAD PUSH20 0xFFFFFFFFFFFFFFFFFFFFFFFFFFFFFFFFFFFFFFFF AND DUP2 MSTORE PUSH1 0x20 ADD DUP15 PUSH1 0x40 ADD MLOAD DUP2 MSTORE PUSH1 0x20 ADD DUP15 PUSH1 0x60 ADD MLOAD DUP2 MSTORE PUSH1 0x20 ADD DUP15 PUSH1 0x80 ADD MLOAD DUP2 MSTORE PUSH1 0x20 ADD DUP15 PUSH1 0xA0 ADD MLOAD DUP2 MSTORE PUSH1 0x20 ADD DUP15 PUSH1 0xC0 ADD MLOAD DUP2 MSTORE PUSH1 0x20 ADD DUP15 PUSH1 0xE0 ADD MLOAD DUP2 MSTORE PUSH1 0x20 ADD DUP15 PUSH2 0x100 ADD MLOAD DUP2 MSTORE PUSH1 0x20 ADD CALLVALUE DUP2 MSTORE PUSH1 0x20 ADD DUP15 PUSH2 0x120 ADD MLOAD DUP2 MSTORE PUSH1 0x20 ADD DUP15 PUSH2 0x140 ADD MLOAD DUP2 MSTORE PUSH1 0x20 ADD DUP15 PUSH2 0x160 ADD MLOAD DUP2 MSTORE PUSH1 0x20 ADD PUSH0 PUSH1 0x1 DUP2 GT ISZERO PUSH2 0x594 JUMPI PUSH2 0x593 PUSH2 0xC2C JUMP JUMPDEST JUMPDEST DUP16 PUSH2 0x180 ADD MLOAD PUSH1 0x1 DUP2 GT ISZERO PUSH2 0x5AC JUMPI PUSH2 0x5AB PUSH2 0xC2C JUMP JUMPDEST JUMPDEST EQ PUSH2 0x5B8 JUMPI PUSH1 0x1 PUSH2 0x5BA JUMP JUMPDEST PUSH0 JUMPDEST PUSH1 0xA DUP2 GT ISZERO PUSH2 0x5CC JUMPI PUSH2 0x5CB PUSH2 0xC2C JUMP JUMPDEST JUMPDEST DUP2 MSTORE POP SWAP1 POP ADDRESS PUSH20 0xFFFFFFFFFFFFFFFFFFFFFFFFFFFFFFFFFFFFFFFF AND PUSH2 0x8FC CALLVALUE SWAP1 DUP2 ISZERO MUL SWAP1 PUSH1 0x40 MLOAD PUSH0 PUSH1 0x40 MLOAD DUP1 DUP4 SUB DUP2 DUP6 DUP9 DUP9 CALL SWAP4 POP POP POP POP ISZERO DUP1 ISZERO PUSH2 0x614 JUMPI RETURNDATASIZE PUSH0 DUP1 RETURNDATACOPY RETURNDATASIZE PUSH0 REVERT JUMPDEST POP PUSH0 DUP2 SWAP1 DUP1 PUSH1 0x1 DUP2 SLOAD ADD DUP1 DUP3 SSTORE DUP1 SWAP2 POP POP PUSH1 0x1 SWAP1 SUB SWAP1 PUSH0 MSTORE PUSH1 0x20 PUSH0 KECCAK256 SWAP1 PUSH1 0xF MUL ADD PUSH0 SWAP1 SWAP2 SWAP1 SWAP2 SWAP1 SWAP2 POP PUSH0 DUP3 ADD MLOAD DUP2 PUSH0 ADD SWAP1 DUP2 PUSH2 0x650 SWAP2 SWAP1 PUSH2 0x170B JUMP JUMPDEST POP PUSH1 0x20 DUP3 ADD MLOAD DUP2 PUSH1 0x1 ADD PUSH0 PUSH2 0x100 EXP DUP2 SLOAD DUP2 PUSH20 0xFFFFFFFFFFFFFFFFFFFFFFFFFFFFFFFFFFFFFFFF MUL NOT AND SWAP1 DUP4 PUSH20 0xFFFFFFFFFFFFFFFFFFFFFFFFFFFFFFFFFFFFFFFF AND MUL OR SWAP1 SSTORE POP PUSH1 0x40 DUP3 ADD MLOAD DUP2 PUSH1 0x2 ADD PUSH0 PUSH2 0x100 EXP DUP2 SLOAD DUP2 PUSH20 0xFFFFFFFFFFFFFFFFFFFFFFFFFFFFFFFFFFFFFFFF MUL NOT AND SWAP1 DUP4 PUSH20 0xFFFFFFFFFFFFFFFFFFFFFFFFFFFFFFFFFFFFFFFF AND MUL OR SWAP1 SSTORE POP PUSH1 0x60 DUP3 ADD MLOAD DUP2 PUSH1 0x3 ADD SSTORE PUSH1 0x80 DUP3 ADD MLOAD DUP2 PUSH1 0x4 ADD SSTORE PUSH1 0xA0 DUP3 ADD MLOAD DUP2 PUSH1 0x5 ADD SSTORE PUSH1 0xC0 DUP3 ADD MLOAD DUP2 PUSH1 0x6 ADD SSTORE PUSH1 0xE0 DUP3 ADD MLOAD DUP2 PUSH1 0x7 ADD SWAP1 DUP2 PUSH2 0x71A SWAP2 SWAP1 PUSH2 0x170B JUMP JUMPDEST POP PUSH2 0x100 DUP3 ADD MLOAD DUP2 PUSH1 0x8 ADD SWAP1 DUP2 PUSH2 0x731 SWAP2 SWAP1 PUSH2 0x170B JUMP JUMPDEST POP PUSH2 0x120 DUP3 ADD MLOAD DUP2 PUSH1 0x9 ADD SSTORE PUSH2 0x140 DUP3 ADD MLOAD DUP2 PUSH1 0xA ADD SSTORE PUSH2 0x160 DUP3 ADD MLOAD DUP2 PUSH1 0xB ADD SSTORE PUSH2 0x180 DUP3 ADD MLOAD DUP2 PUSH1 0xC ADD SSTORE PUSH2 0x1A0 DUP3 ADD MLOAD DUP2 PUSH1 0xD ADD SSTORE PUSH2 0x1C0 DUP3 ADD MLOAD DUP2 PUSH1 0xE ADD PUSH0 PUSH2 0x100 EXP DUP2 SLOAD DUP2 PUSH1 0xFF MUL NOT AND SWAP1 DUP4 PUSH1 0xA DUP2 GT ISZERO PUSH2 0x794 JUMPI PUSH2 0x793 PUSH2 0xC2C JUMP JUMPDEST JUMPDEST MUL OR SWAP1 SSTORE POP POP POP POP POP POP POP POP POP POP POP POP POP POP POP POP JUMP JUMPDEST PUSH0 PUSH1 0x1 SWAP1 POP SWAP2 SWAP1 POP JUMP JUMPDEST PUSH0 DUP2 GT PUSH2 0x7F8 JUMPI DUP1 PUSH1 0x40 MLOAD PUSH32 0x11A242AF00000000000000000000000000000000000000000000000000000000 DUP2 MSTORE PUSH1 0x4 ADD PUSH2 0x7EF SWAP2 SWAP1 PUSH2 0x184A JUMP JUMPDEST PUSH1 0x40 MLOAD DUP1 SWAP2 SUB SWAP1 REVERT JUMPDEST PUSH0 DUP4 GT PUSH2 0x83C JUMPI DUP3 PUSH1 0x40 MLOAD PUSH32 0x11A242AF00000000000000000000000000000000000000000000000000000000 DUP2 MSTORE PUSH1 0x4 ADD PUSH2 0x833 SWAP2 SWAP1 PUSH2 0x18E6 JUMP JUMPDEST PUSH1 0x40 MLOAD DUP1 SWAP2 SUB SWAP1 REVERT JUMPDEST PUSH0 DUP3 GT PUSH2 0x880 JUMPI DUP2 PUSH1 0x40 MLOAD PUSH32 0x11A242AF00000000000000000000000000000000000000000000000000000000 DUP2 MSTORE PUSH1 0x4 ADD PUSH2 0x877 SWAP2 SWAP1 PUSH2 0x1982 JUMP JUMPDEST PUSH1 0x40 MLOAD DUP1 SWAP2 SUB SWAP1 REVERT JUMPDEST TIMESTAMP DUP2 GT PUSH2 0x8C4 JUMPI DUP1 PUSH1 0x40 MLOAD PUSH32 0x11A242AF00000000000000000000000000000000000000000000000000000000 DUP2 MSTORE PUSH1 0x4 ADD PUSH2 0x8BB SWAP2 SWAP1 PUSH2 0x1A1E JUMP JUMPDEST PUSH1 0x40 MLOAD DUP1 SWAP2 SUB SWAP1 REVERT JUMPDEST TIMESTAMP DUP4 GT PUSH2 0x908 JUMPI DUP3 PUSH1 0x40 MLOAD PUSH32 0x11A242AF00000000000000000000000000000000000000000000000000000000 DUP2 MSTORE PUSH1 0x4 ADD PUSH2 0x8FF SWAP2 SWAP1 PUSH2 0x1ABA JUMP JUMPDEST PUSH1 0x40 MLOAD DUP1 SWAP2 SUB SWAP1 REVERT JUMPDEST TIMESTAMP DUP3 GT PUSH2 0x94C JUMPI DUP2 PUSH1 0x40 MLOAD PUSH32 0x11A242AF00000000000000000000000000000000000000000000000000000000 DUP2 MSTORE PUSH1 0x4 ADD PUSH2 0x943 SWAP2 SWAP1 PUSH2 0x1B56 JUMP JUMPDEST PUSH1 0x40 MLOAD DUP1 SWAP2 SUB SWAP1 REVERT JUMPDEST DUP3 DUP2 LT PUSH2 0x990 JUMPI DUP1 PUSH1 0x40 MLOAD PUSH32 0x11A242AF00000000000000000000000000000000000000000000000000000000 DUP2 MSTORE PUSH1 0x4 ADD PUSH2 0x987 SWAP2 SWAP1 PUSH2 0x1BF2 JUMP JUMPDEST PUSH1 0x40 MLOAD DUP1 SWAP2 SUB SWAP1 REVERT JUMPDEST DUP3 DUP3 GT PUSH2 0x9D4 JUMPI DUP2 PUSH1 0x40 MLOAD PUSH32 0x11A242AF00000000000000000000000000000000000000000000000000000000 DUP2 MSTORE PUSH1 0x4 ADD PUSH2 0x9CB SWAP2 SWAP1 PUSH2 0x1C8E JUMP JUMPDEST PUSH1 0x40 MLOAD DUP1 SWAP2 SUB SWAP1 REVERT JUMPDEST POP POP POP JUMP JUMPDEST PUSH1 0x60 PUSH0 PUSH1 0x40 MLOAD DUP1 PUSH1 0x60 ADD PUSH1 0x40 MSTORE DUP1 PUSH1 0x3E DUP2 MSTORE PUSH1 0x20 ADD PUSH2 0x1DA1 PUSH1 0x3E SWAP2 CODECOPY SWAP1 POP PUSH0 DUP4 PUSH8 0xFFFFFFFFFFFFFFFF DUP2 GT ISZERO PUSH2 0xA12 JUMPI PUSH2 0xA11 PUSH2 0xEB4 JUMP JUMPDEST JUMPDEST PUSH1 0x40 MLOAD SWAP1 DUP1 DUP3 MSTORE DUP1 PUSH1 0x1F ADD PUSH1 0x1F NOT AND PUSH1 0x20 ADD DUP3 ADD PUSH1 0x40 MSTORE DUP1 ISZERO PUSH2 0xA44 JUMPI DUP2 PUSH1 0x20 ADD PUSH1 0x1 DUP3 MUL DUP1 CALLDATASIZE DUP4 CALLDATACOPY DUP1 DUP3 ADD SWAP2 POP POP SWAP1 POP JUMPDEST POP SWAP1 POP PUSH0 DUP3 MLOAD SWAP1 POP PUSH0 JUMPDEST DUP6 DUP2 LT ISZERO PUSH2 0xAFE JUMPI PUSH0 DUP3 TIMESTAMP PREVRANDAO DUP5 PUSH1 0x40 MLOAD PUSH1 0x20 ADD PUSH2 0xA6D SWAP4 SWAP3 SWAP2 SWAP1 PUSH2 0x1CDA JUMP JUMPDEST PUSH1 0x40 MLOAD PUSH1 0x20 DUP2 DUP4 SUB SUB DUP2 MSTORE SWAP1 PUSH1 0x40 MSTORE DUP1 MLOAD SWAP1 PUSH1 0x20 ADD KECCAK256 PUSH0 SHR PUSH2 0xA8F SWAP2 SWAP1 PUSH2 0x1D43 JUMP JUMPDEST SWAP1 POP DUP5 DUP2 DUP2 MLOAD DUP2 LT PUSH2 0xAA4 JUMPI PUSH2 0xAA3 PUSH2 0x1D73 JUMP JUMPDEST JUMPDEST PUSH1 0x20 ADD ADD MLOAD PUSH1 0xF8 SHR PUSH1 0xF8 SHL DUP5 DUP4 DUP2 MLOAD DUP2 LT PUSH2 0xAC2 JUMPI PUSH2 0xAC1 PUSH2 0x1D73 JUMP JUMPDEST JUMPDEST PUSH1 0x20 ADD ADD SWAP1 PUSH31 0xFFFFFFFFFFFFFFFFFFFFFFFFFFFFFFFFFFFFFFFFFFFFFFFFFFFFFFFFFFFFFF NOT AND SWAP1 DUP2 PUSH0 BYTE SWAP1 MSTORE8 POP POP DUP1 DUP1 PUSH1 0x1 ADD SWAP2 POP POP PUSH2 0xA4E JUMP JUMPDEST POP DUP2 SWAP4 POP POP POP POP SWAP2 SWAP1 POP JUMP JUMPDEST PUSH0 DUP2 MLOAD SWAP1 POP SWAP2 SWAP1 POP JUMP JUMPDEST PUSH0 DUP3 DUP3 MSTORE PUSH1 0x20 DUP3 ADD SWAP1 POP SWAP3 SWAP2 POP POP JUMP JUMPDEST PUSH0 DUP2 SWAP1 POP PUSH1 0x20 DUP3 ADD SWAP1 POP SWAP2 SWAP1 POP JUMP JUMPDEST PUSH0 DUP2 MLOAD SWAP1 POP SWAP2 SWAP1 POP JUMP JUMPDEST PUSH0 DUP3 DUP3 MSTORE PUSH1 0x20 DUP3 ADD SWAP1 POP SWAP3 SWAP2 POP POP JUMP JUMPDEST PUSH0 JUMPDEST DUP4 DUP2 LT ISZERO PUSH2 0xB6A JUMPI DUP1 DUP3 ADD MLOAD DUP2 DUP5 ADD MSTORE PUSH1 0x20 DUP2 ADD SWAP1 POP PUSH2 0xB4F JUMP JUMPDEST PUSH0 DUP5 DUP5 ADD MSTORE POP POP POP POP JUMP JUMPDEST PUSH0 PUSH1 0x1F NOT PUSH1 0x1F DUP4 ADD AND SWAP1 POP SWAP2 SWAP1 POP JUMP JUMPDEST PUSH0 PUSH2 0xB8F DUP3 PUSH2 0xB33 JUMP JUMPDEST PUSH2 0xB99 DUP2 DUP6 PUSH2 0xB3D JUMP JUMPDEST SWAP4 POP PUSH2 0xBA9 DUP2 DUP6 PUSH1 0x20 DUP7 ADD PUSH2 0xB4D JUMP JUMPDEST PUSH2 0xBB2 DUP2 PUSH2 0xB75 JUMP JUMPDEST DUP5 ADD SWAP2 POP POP SWAP3 SWAP2 POP POP JUMP JUMPDEST PUSH0 PUSH20 0xFFFFFFFFFFFFFFFFFFFFFFFFFFFFFFFFFFFFFFFF DUP3 AND SWAP1 POP SWAP2 SWAP1 POP JUMP JUMPDEST PUSH0 PUSH2 0xBE6 DUP3 PUSH2 0xBBD JUMP JUMPDEST SWAP1 POP SWAP2 SWAP1 POP JUMP JUMPDEST PUSH2 0xBF6 DUP2 PUSH2 0xBDC JUMP JUMPDEST DUP3 MSTORE POP POP JUMP JUMPDEST PUSH0 DUP2 SWAP1 POP SWAP2 SWAP1 POP JUMP JUMPDEST PUSH2 0xC0E DUP2 PUSH2 0xBFC JUMP JUMPDEST DUP3 MSTORE POP POP JUMP JUMPDEST PUSH0 DUP2 SWAP1 POP SWAP2 SWAP1 POP JUMP JUMPDEST PUSH2 0xC26 DUP2 PUSH2 0xC14 JUMP JUMPDEST DUP3 MSTORE POP POP JUMP JUMPDEST PUSH32 0x4E487B7100000000000000000000000000000000000000000000000000000000 PUSH0 MSTORE PUSH1 0x21 PUSH1 0x4 MSTORE PUSH1 0x24 PUSH0 REVERT JUMPDEST PUSH1 0xB DUP2 LT PUSH2 0xC6A JUMPI PUSH2 0xC69 PUSH2 0xC2C JUMP JUMPDEST JUMPDEST POP JUMP JUMPDEST PUSH0 DUP2 SWAP1 POP PUSH2 0xC7A DUP3 PUSH2 0xC59 JUMP JUMPDEST SWAP2 SWAP1 POP JUMP JUMPDEST PUSH0 PUSH2 0xC89 DUP3 PUSH2 0xC6D JUMP JUMPDEST SWAP1 POP SWAP2 SWAP1 POP JUMP JUMPDEST PUSH2 0xC99 DUP2 PUSH2 0xC7F JUMP JUMPDEST DUP3 MSTORE POP POP JUMP JUMPDEST PUSH0 PUSH2 0x1E0 DUP4 ADD PUSH0 DUP4 ADD MLOAD DUP5 DUP3 SUB PUSH0 DUP7 ADD MSTORE PUSH2 0xCBA DUP3 DUP3 PUSH2 0xB85 JUMP JUMPDEST SWAP2 POP POP PUSH1 0x20 DUP4 ADD MLOAD PUSH2 0xCCF PUSH1 0x20 DUP7 ADD DUP3 PUSH2 0xBED JUMP JUMPDEST POP PUSH1 0x40 DUP4 ADD MLOAD PUSH2 0xCE2 PUSH1 0x40 DUP7 ADD DUP3 PUSH2 0xBED JUMP JUMPDEST POP PUSH1 0x60 DUP4 ADD MLOAD PUSH2 0xCF5 PUSH1 0x60 DUP7 ADD DUP3 PUSH2 0xC05 JUMP JUMPDEST POP PUSH1 0x80 DUP4 ADD MLOAD PUSH2 0xD08 PUSH1 0x80 DUP7 ADD DUP3 PUSH2 0xC05 JUMP JUMPDEST POP PUSH1 0xA0 DUP4 ADD MLOAD PUSH2 0xD1B PUSH1 0xA0 DUP7 ADD DUP3 PUSH2 0xC05 JUMP JUMPDEST POP PUSH1 0xC0 DUP4 ADD MLOAD PUSH2 0xD2E PUSH1 0xC0 DUP7 ADD DUP3 PUSH2 0xC05 JUMP JUMPDEST POP PUSH1 0xE0 DUP4 ADD MLOAD DUP5 DUP3 SUB PUSH1 0xE0 DUP7 ADD MSTORE PUSH2 0xD46 DUP3 DUP3 PUSH2 0xB85 JUMP JUMPDEST SWAP2 POP POP PUSH2 0x100 DUP4 ADD MLOAD DUP5 DUP3 SUB PUSH2 0x100 DUP7 ADD MSTORE PUSH2 0xD62 DUP3 DUP3 PUSH2 0xB85 JUMP JUMPDEST SWAP2 POP POP PUSH2 0x120 DUP4 ADD MLOAD PUSH2 0xD79 PUSH2 0x120 DUP7 ADD DUP3 PUSH2 0xC1D JUMP JUMPDEST POP PUSH2 0x140 DUP4 ADD MLOAD PUSH2 0xD8E PUSH2 0x140 DUP7 ADD DUP3 PUSH2 0xC1D JUMP JUMPDEST POP PUSH2 0x160 DUP4 ADD MLOAD PUSH2 0xDA3 PUSH2 0x160 DUP7 ADD DUP3 PUSH2 0xC1D JUMP JUMPDEST POP PUSH2 0x180 DUP4 ADD MLOAD PUSH2 0xDB8 PUSH2 0x180 DUP7 ADD DUP3 PUSH2 0xC1D JUMP JUMPDEST POP PUSH2 0x1A0 DUP4 ADD MLOAD PUSH2 0xDCD PUSH2 0x1A0 DUP7 ADD DUP3 PUSH2 0xC1D JUMP JUMPDEST POP PUSH2 0x1C0 DUP4 ADD MLOAD PUSH2 0xDE2 PUSH2 0x1C0 DUP7 ADD DUP3 PUSH2 0xC90 JUMP JUMPDEST POP DUP1 SWAP2 POP POP SWAP3 SWAP2 POP POP JUMP JUMPDEST PUSH0 PUSH2 0xDF8 DUP4 DUP4 PUSH2 0xC9F JUMP JUMPDEST SWAP1 POP SWAP3 SWAP2 POP POP JUMP JUMPDEST PUSH0 PUSH1 0x20 DUP3 ADD SWAP1 POP SWAP2 SWAP1 POP JUMP JUMPDEST PUSH0 PUSH2 0xE16 DUP3 PUSH2 0xB0A JUMP JUMPDEST PUSH2 0xE20 DUP2 DUP6 PUSH2 0xB14 JUMP JUMPDEST SWAP4 POP DUP4 PUSH1 0x20 DUP3 MUL DUP6 ADD PUSH2 0xE32 DUP6 PUSH2 0xB24 JUMP JUMPDEST DUP1 PUSH0 JUMPDEST DUP6 DUP2 LT ISZERO PUSH2 0xE6D JUMPI DUP5 DUP5 SUB DUP10 MSTORE DUP2 MLOAD PUSH2 0xE4E DUP6 DUP3 PUSH2 0xDED JUMP JUMPDEST SWAP5 POP PUSH2 0xE59 DUP4 PUSH2 0xE00 JUMP JUMPDEST SWAP3 POP PUSH1 0x20 DUP11 ADD SWAP10 POP POP PUSH1 0x1 DUP2 ADD SWAP1 POP PUSH2 0xE35 JUMP JUMPDEST POP DUP3 SWAP8 POP DUP8 SWAP6 POP POP POP POP POP POP SWAP3 SWAP2 POP POP JUMP JUMPDEST PUSH0 PUSH1 0x20 DUP3 ADD SWAP1 POP DUP2 DUP2 SUB PUSH0 DUP4 ADD MSTORE PUSH2 0xE97 DUP2 DUP5 PUSH2 0xE0C JUMP JUMPDEST SWAP1 POP SWAP3 SWAP2 POP POP JUMP JUMPDEST PUSH0 PUSH1 0x40 MLOAD SWAP1 POP SWAP1 JUMP JUMPDEST PUSH0 DUP1 REVERT JUMPDEST PUSH0 DUP1 REVERT JUMPDEST PUSH0 DUP1 REVERT JUMPDEST PUSH32 0x4E487B7100000000000000000000000000000000000000000000000000000000 PUSH0 MSTORE PUSH1 0x41 PUSH1 0x4 MSTORE PUSH1 0x24 PUSH0 REVERT JUMPDEST PUSH2 0xEEA DUP3 PUSH2 0xB75 JUMP JUMPDEST DUP2 ADD DUP2 DUP2 LT PUSH8 0xFFFFFFFFFFFFFFFF DUP3 GT OR ISZERO PUSH2 0xF09 JUMPI PUSH2 0xF08 PUSH2 0xEB4 JUMP JUMPDEST JUMPDEST DUP1 PUSH1 0x40 MSTORE POP POP POP JUMP JUMPDEST PUSH0 PUSH2 0xF1B PUSH2 0xE9F JUMP JUMPDEST SWAP1 POP PUSH2 0xF27 DUP3 DUP3 PUSH2 0xEE1 JUMP JUMPDEST SWAP2 SWAP1 POP JUMP JUMPDEST PUSH0 DUP1 REVERT JUMPDEST PUSH2 0xF39 DUP2 PUSH2 0xBDC JUMP JUMPDEST DUP2 EQ PUSH2 0xF43 JUMPI PUSH0 DUP1 REVERT JUMPDEST POP JUMP JUMPDEST PUSH0 DUP2 CALLDATALOAD SWAP1 POP PUSH2 0xF54 DUP2 PUSH2 0xF30 JUMP JUMPDEST SWAP3 SWAP2 POP POP JUMP JUMPDEST PUSH2 0xF63 DUP2 PUSH2 0xBFC JUMP JUMPDEST DUP2 EQ PUSH2 0xF6D JUMPI PUSH0 DUP1 REVERT JUMPDEST POP JUMP JUMPDEST PUSH0 DUP2 CALLDATALOAD SWAP1 POP PUSH2 0xF7E DUP2 PUSH2 0xF5A JUMP JUMPDEST SWAP3 SWAP2 POP POP JUMP JUMPDEST PUSH0 DUP1 REVERT JUMPDEST PUSH0 DUP1 REVERT JUMPDEST PUSH0 PUSH8 0xFFFFFFFFFFFFFFFF DUP3 GT ISZERO PUSH2 0xFA6 JUMPI PUSH2 0xFA5 PUSH2 0xEB4 JUMP JUMPDEST JUMPDEST PUSH2 0xFAF DUP3 PUSH2 0xB75 JUMP JUMPDEST SWAP1 POP PUSH1 0x20 DUP2 ADD SWAP1 POP SWAP2 SWAP1 POP JUMP JUMPDEST DUP3 DUP2 DUP4 CALLDATACOPY PUSH0 DUP4 DUP4 ADD MSTORE POP POP POP JUMP JUMPDEST PUSH0 PUSH2 0xFDC PUSH2 0xFD7 DUP5 PUSH2 0xF8C JUMP JUMPDEST PUSH2 0xF12 JUMP JUMPDEST SWAP1 POP DUP3 DUP2 MSTORE PUSH1 0x20 DUP2 ADD DUP5 DUP5 DUP5 ADD GT ISZERO PUSH2 0xFF8 JUMPI PUSH2 0xFF7 PUSH2 0xF88 JUMP JUMPDEST JUMPDEST PUSH2 0x1003 DUP5 DUP3 DUP6 PUSH2 0xFBC JUMP JUMPDEST POP SWAP4 SWAP3 POP POP POP JUMP JUMPDEST PUSH0 DUP3 PUSH1 0x1F DUP4 ADD SLT PUSH2 0x101F JUMPI PUSH2 0x101E PUSH2 0xF84 JUMP JUMPDEST JUMPDEST DUP2 CALLDATALOAD PUSH2 0x102F DUP5 DUP3 PUSH1 0x20 DUP7 ADD PUSH2 0xFCA JUMP JUMPDEST SWAP2 POP POP SWAP3 SWAP2 POP POP JUMP JUMPDEST PUSH2 0x1041 DUP2 PUSH2 0xC14 JUMP JUMPDEST DUP2 EQ PUSH2 0x104B JUMPI PUSH0 DUP1 REVERT JUMPDEST POP JUMP JUMPDEST PUSH0 DUP2 CALLDATALOAD SWAP1 POP PUSH2 0x105C DUP2 PUSH2 0x1038 JUMP JUMPDEST SWAP3 SWAP2 POP POP JUMP JUMPDEST PUSH1 0x2 DUP2 LT PUSH2 0x106E JUMPI PUSH0 DUP1 REVERT JUMPDEST POP JUMP JUMPDEST PUSH0 DUP2 CALLDATALOAD SWAP1 POP PUSH2 0x107F DUP2 PUSH2 0x1062 JUMP JUMPDEST SWAP3 SWAP2 POP POP JUMP JUMPDEST PUSH0 PUSH2 0x1A0 DUP3 DUP5 SUB SLT ISZERO PUSH2 0x109B JUMPI PUSH2 0x109A PUSH2 0xEB0 JUMP JUMPDEST JUMPDEST PUSH2 0x10A6 PUSH2 0x1A0 PUSH2 0xF12 JUMP JUMPDEST SWAP1 POP PUSH0 PUSH2 0x10B5 DUP5 DUP3 DUP6 ADD PUSH2 0xF46 JUMP JUMPDEST PUSH0 DUP4 ADD MSTORE POP PUSH1 0x20 PUSH2 0x10C8 DUP5 DUP3 DUP6 ADD PUSH2 0xF46 JUMP JUMPDEST PUSH1 0x20 DUP4 ADD MSTORE POP PUSH1 0x40 PUSH2 0x10DC DUP5 DUP3 DUP6 ADD PUSH2 0xF70 JUMP JUMPDEST PUSH1 0x40 DUP4 ADD MSTORE POP PUSH1 0x60 PUSH2 0x10F0 DUP5 DUP3 DUP6 ADD PUSH2 0xF70 JUMP JUMPDEST PUSH1 0x60 DUP4 ADD MSTORE POP PUSH1 0x80 PUSH2 0x1104 DUP5 DUP3 DUP6 ADD PUSH2 0xF70 JUMP JUMPDEST PUSH1 0x80 DUP4 ADD MSTORE POP PUSH1 0xA0 PUSH2 0x1118 DUP5 DUP3 DUP6 ADD PUSH2 0xF70 JUMP JUMPDEST PUSH1 0xA0 DUP4 ADD MSTORE POP PUSH1 0xC0 DUP3 ADD CALLDATALOAD PUSH8 0xFFFFFFFFFFFFFFFF DUP2 GT ISZERO PUSH2 0x113C JUMPI PUSH2 0x113B PUSH2 0xF2C JUMP JUMPDEST JUMPDEST PUSH2 0x1148 DUP5 DUP3 DUP6 ADD PUSH2 0x100B JUMP JUMPDEST PUSH1 0xC0 DUP4 ADD MSTORE POP PUSH1 0xE0 DUP3 ADD CALLDATALOAD PUSH8 0xFFFFFFFFFFFFFFFF DUP2 GT ISZERO PUSH2 0x116C JUMPI PUSH2 0x116B PUSH2 0xF2C JUMP JUMPDEST JUMPDEST PUSH2 0x1178 DUP5 DUP3 DUP6 ADD PUSH2 0x100B JUMP JUMPDEST PUSH1 0xE0 DUP4 ADD MSTORE POP PUSH2 0x100 PUSH2 0x118D DUP5 DUP3 DUP6 ADD PUSH2 0x104E JUMP JUMPDEST PUSH2 0x100 DUP4 ADD MSTORE POP PUSH2 0x120 PUSH2 0x11A3 DUP5 DUP3 DUP6 ADD PUSH2 0x104E JUMP JUMPDEST PUSH2 0x120 DUP4 ADD MSTORE POP PUSH2 0x140 PUSH2 0x11B9 DUP5 DUP3 DUP6 ADD PUSH2 0x104E JUMP JUMPDEST PUSH2 0x140 DUP4 ADD MSTORE POP PUSH2 0x160 PUSH2 0x11CF DUP5 DUP3 DUP6 ADD PUSH2 0x104E JUMP JUMPDEST PUSH2 0x160 DUP4 ADD MSTORE POP PUSH2 0x180 PUSH2 0x11E5 DUP5 DUP3 DUP6 ADD PUSH2 0x1071 JUMP JUMPDEST PUSH2 0x180 DUP4 ADD MSTORE POP SWAP3 SWAP2 POP POP JUMP JUMPDEST PUSH0 PUSH1 0x20 DUP3 DUP5 SUB SLT ISZERO PUSH2 0x1207 JUMPI PUSH2 0x1206 PUSH2 0xEA8 JUMP JUMPDEST JUMPDEST PUSH0 DUP3 ADD CALLDATALOAD PUSH8 0xFFFFFFFFFFFFFFFF DUP2 GT ISZERO PUSH2 0x1224 JUMPI PUSH2 0x1223 PUSH2 0xEAC JUMP JUMPDEST JUMPDEST PUSH2 0x1230 DUP5 DUP3 DUP6 ADD PUSH2 0x1085 JUMP JUMPDEST SWAP2 POP POP SWAP3 SWAP2 POP POP JUMP JUMPDEST PUSH2 0x1242 DUP2 PUSH2 0xBDC JUMP JUMPDEST DUP3 MSTORE POP POP JUMP JUMPDEST PUSH0 DUP3 DUP3 MSTORE PUSH1 0x20 DUP3 ADD SWAP1 POP SWAP3 SWAP2 POP POP JUMP JUMPDEST PUSH32 0x41646472657373206973206E6F742076616C6964000000000000000000000000 PUSH0 DUP3 ADD MSTORE POP JUMP JUMPDEST PUSH0 PUSH2 0x128C PUSH1 0x14 DUP4 PUSH2 0x1248 JUMP JUMPDEST SWAP2 POP PUSH2 0x1297 DUP3 PUSH2 0x1258 JUMP JUMPDEST PUSH1 0x20 DUP3 ADD SWAP1 POP SWAP2 SWAP1 POP JUMP JUMPDEST PUSH0 PUSH1 0x40 DUP3 ADD SWAP1 POP PUSH2 0x12B5 PUSH0 DUP4 ADD DUP5 PUSH2 0x1239 JUMP JUMPDEST DUP2 DUP2 SUB PUSH1 0x20 DUP4 ADD MSTORE PUSH2 0x12C6 DUP2 PUSH2 0x1280 JUMP JUMPDEST SWAP1 POP SWAP3 SWAP2 POP POP JUMP JUMPDEST PUSH2 0x12D7 DUP2 PUSH2 0xBFC JUMP JUMPDEST DUP3 MSTORE POP POP JUMP JUMPDEST PUSH32 0x456E7465722076616C696420636F6F7264696E61746573000000000000000000 PUSH0 DUP3 ADD MSTORE POP JUMP JUMPDEST PUSH0 PUSH2 0x1311 PUSH1 0x17 DUP4 PUSH2 0x1248 JUMP JUMPDEST SWAP2 POP PUSH2 0x131C DUP3 PUSH2 0x12DD JUMP JUMPDEST PUSH1 0x20 DUP3 ADD SWAP1 POP SWAP2 SWAP1 POP JUMP JUMPDEST PUSH0 PUSH1 0x60 DUP3 ADD SWAP1 POP PUSH2 0x133A PUSH0 DUP4 ADD DUP6 PUSH2 0x12CE JUMP JUMPDEST PUSH2 0x1347 PUSH1 0x20 DUP4 ADD DUP5 PUSH2 0x12CE JUMP JUMPDEST DUP2 DUP2 SUB PUSH1 0x40 DUP4 ADD MSTORE PUSH2 0x1358 DUP2 PUSH2 0x1305 JUMP JUMPDEST SWAP1 POP SWAP4 SWAP3 POP POP POP JUMP JUMPDEST PUSH0 PUSH2 0x136B DUP3 PUSH2 0xB33 JUMP JUMPDEST PUSH2 0x1375 DUP2 DUP6 PUSH2 0x1248 JUMP JUMPDEST SWAP4 POP PUSH2 0x1385 DUP2 DUP6 PUSH1 0x20 DUP7 ADD PUSH2 0xB4D JUMP JUMPDEST PUSH2 0x138E DUP2 PUSH2 0xB75 JUMP JUMPDEST DUP5 ADD SWAP2 POP POP SWAP3 SWAP2 POP POP JUMP JUMPDEST PUSH32 0x456E7465722076616C69642047656F4861736800000000000000000000000000 PUSH0 DUP3 ADD MSTORE POP JUMP JUMPDEST PUSH0 PUSH2 0x13CD PUSH1 0x13 DUP4 PUSH2 0x1248 JUMP JUMPDEST SWAP2 POP PUSH2 0x13D8 DUP3 PUSH2 0x1399 JUMP JUMPDEST PUSH1 0x20 DUP3 ADD SWAP1 POP SWAP2 SWAP1 POP JUMP JUMPDEST PUSH0 PUSH1 0x40 DUP3 ADD SWAP1 POP DUP2 DUP2 SUB PUSH0 DUP4 ADD MSTORE PUSH2 0x13FB DUP2 DUP5 PUSH2 0x1361 JUMP JUMPDEST SWAP1 POP DUP2 DUP2 SUB PUSH1 0x20 DUP4 ADD MSTORE PUSH2 0x140E DUP2 PUSH2 0x13C1 JUMP JUMPDEST SWAP1 POP SWAP3 SWAP2 POP POP JUMP JUMPDEST PUSH2 0x141F DUP2 PUSH2 0xC14 JUMP JUMPDEST DUP3 MSTORE POP POP JUMP JUMPDEST PUSH32 0x436172676F20696E737572616E63652076616C7565206E6F742076616C696400 PUSH0 DUP3 ADD MSTORE POP JUMP JUMPDEST PUSH0 PUSH2 0x1459 PUSH1 0x1F DUP4 PUSH2 0x1248 JUMP JUMPDEST SWAP2 POP PUSH2 0x1464 DUP3 PUSH2 0x1425 JUMP JUMPDEST PUSH1 0x20 DUP3 ADD SWAP1 POP SWAP2 SWAP1 POP JUMP JUMPDEST PUSH0 PUSH1 0x40 DUP3 ADD SWAP1 POP PUSH2 0x1482 PUSH0 DUP4 ADD DUP5 PUSH2 0x1416 JUMP JUMPDEST DUP2 DUP2 SUB PUSH1 0x20 DUP4 ADD MSTORE PUSH2 0x1493 DUP2 PUSH2 0x144D JUMP JUMPDEST SWAP1 POP SWAP3 SWAP2 POP POP JUMP JUMPDEST PUSH32 0x536572766963652076616C7565206E6F742076616C6964000000000000000000 PUSH0 DUP3 ADD MSTORE POP JUMP JUMPDEST PUSH0 PUSH2 0x14CF PUSH1 0x17 DUP4 PUSH2 0x1248 JUMP JUMPDEST SWAP2 POP PUSH2 0x14DA DUP3 PUSH2 0x149B JUMP JUMPDEST PUSH1 0x20 DUP3 ADD SWAP1 POP SWAP2 SWAP1 POP JUMP JUMPDEST PUSH0 PUSH1 0x40 DUP3 ADD SWAP1 POP PUSH2 0x14F8 PUSH0 DUP4 ADD DUP5 PUSH2 0x1416 JUMP JUMPDEST DUP2 DUP2 SUB PUSH1 0x20 DUP4 ADD MSTORE PUSH2 0x1509 DUP2 PUSH2 0x14C3 JUMP JUMPDEST SWAP1 POP SWAP3 SWAP2 POP POP JUMP JUMPDEST PUSH32 0x4E487B7100000000000000000000000000000000000000000000000000000000 PUSH0 MSTORE PUSH1 0x22 PUSH1 0x4 MSTORE PUSH1 0x24 PUSH0 REVERT JUMPDEST PUSH0 PUSH1 0x2 DUP3 DIV SWAP1 POP PUSH1 0x1 DUP3 AND DUP1 PUSH2 0x1555 JUMPI PUSH1 0x7F DUP3 AND SWAP2 POP JUMPDEST PUSH1 0x20 DUP3 LT DUP2 SUB PUSH2 0x1568 JUMPI PUSH2 0x1567 PUSH2 0x1511 JUMP JUMPDEST JUMPDEST POP SWAP2 SWAP1 POP JUMP JUMPDEST PUSH0 DUP2 SWAP1 POP DUP2 PUSH0 MSTORE PUSH1 0x20 PUSH0 KECCAK256 SWAP1 POP SWAP2 SWAP1 POP JUMP JUMPDEST PUSH0 PUSH1 0x20 PUSH1 0x1F DUP4 ADD DIV SWAP1 POP SWAP2 SWAP1 POP JUMP JUMPDEST PUSH0 DUP3 DUP3 SHL SWAP1 POP SWAP3 SWAP2 POP POP JUMP JUMPDEST PUSH0 PUSH1 0x8 DUP4 MUL PUSH2 0x15CA PUSH32 0xFFFFFFFFFFFFFFFFFFFFFFFFFFFFFFFFFFFFFFFFFFFFFFFFFFFFFFFFFFFFFFFF DUP3 PUSH2 0x158F JUMP JUMPDEST PUSH2 0x15D4 DUP7 DUP4 PUSH2 0x158F JUMP JUMPDEST SWAP6 POP DUP1 NOT DUP5 AND SWAP4 POP DUP1 DUP7 AND DUP5 OR SWAP3 POP POP POP SWAP4 SWAP3 POP POP POP JUMP JUMPDEST PUSH0 DUP2 SWAP1 POP SWAP2 SWAP1 POP JUMP JUMPDEST PUSH0 PUSH2 0x160F PUSH2 0x160A PUSH2 0x1605 DUP5 PUSH2 0xC14 JUMP JUMPDEST PUSH2 0x15EC JUMP JUMPDEST PUSH2 0xC14 JUMP JUMPDEST SWAP1 POP SWAP2 SWAP1 POP JUMP JUMPDEST PUSH0 DUP2 SWAP1 POP SWAP2 SWAP1 POP JUMP JUMPDEST PUSH2 0x1628 DUP4 PUSH2 0x15F5 JUMP JUMPDEST PUSH2 0x163C PUSH2 0x1634 DUP3 PUSH2 0x1616 JUMP JUMPDEST DUP5 DUP5 SLOAD PUSH2 0x159B JUMP JUMPDEST DUP3 SSTORE POP POP POP POP JUMP JUMPDEST PUSH0 SWAP1 JUMP JUMPDEST PUSH2 0x1650 PUSH2 0x1644 JUMP JUMPDEST PUSH2 0x165B DUP2 DUP5 DUP5 PUSH2 0x161F JUMP JUMPDEST POP POP POP JUMP JUMPDEST JUMPDEST DUP2 DUP2 LT ISZERO PUSH2 0x167E JUMPI PUSH2 0x1673 PUSH0 DUP3 PUSH2 0x1648 JUMP JUMPDEST PUSH1 0x1 DUP2 ADD SWAP1 POP PUSH2 0x1661 JUMP JUMPDEST POP POP JUMP JUMPDEST PUSH1 0x1F DUP3 GT ISZERO PUSH2 0x16C3 JUMPI PUSH2 0x1694 DUP2 PUSH2 0x156E JUMP JUMPDEST PUSH2 0x169D DUP5 PUSH2 0x1580 JUMP JUMPDEST DUP2 ADD PUSH1 0x20 DUP6 LT ISZERO PUSH2 0x16AC JUMPI DUP2 SWAP1 POP JUMPDEST PUSH2 0x16C0 PUSH2 0x16B8 DUP6 PUSH2 0x1580 JUMP JUMPDEST DUP4 ADD DUP3 PUSH2 0x1660 JUMP JUMPDEST POP POP JUMPDEST POP POP POP JUMP JUMPDEST PUSH0 DUP3 DUP3 SHR SWAP1 POP SWAP3 SWAP2 POP POP JUMP JUMPDEST PUSH0 PUSH2 0x16E3 PUSH0 NOT DUP5 PUSH1 0x8 MUL PUSH2 0x16C8 JUMP JUMPDEST NOT DUP1 DUP4 AND SWAP2 POP POP SWAP3 SWAP2 POP POP JUMP JUMPDEST PUSH0 PUSH2 0x16FB DUP4 DUP4 PUSH2 0x16D4 JUMP JUMPDEST SWAP2 POP DUP3 PUSH1 0x2 MUL DUP3 OR SWAP1 POP SWAP3 SWAP2 POP POP JUMP JUMPDEST PUSH2 0x1714 DUP3 PUSH2 0xB33 JUMP JUMPDEST PUSH8 0xFFFFFFFFFFFFFFFF DUP2 GT ISZERO PUSH2 0x172D JUMPI PUSH2 0x172C PUSH2 0xEB4 JUMP JUMPDEST JUMPDEST PUSH2 0x1737 DUP3 SLOAD PUSH2 0x153E JUMP JUMPDEST PUSH2 0x1742 DUP3 DUP3 DUP6 PUSH2 0x1682 JUMP JUMPDEST PUSH0 PUSH1 0x20 SWAP1 POP PUSH1 0x1F DUP4 GT PUSH1 0x1 DUP2 EQ PUSH2 0x1773 JUMPI PUSH0 DUP5 ISZERO PUSH2 0x1761 JUMPI DUP3 DUP8 ADD MLOAD SWAP1 POP JUMPDEST PUSH2 0x176B DUP6 DUP3 PUSH2 0x16F0 JUMP JUMPDEST DUP7 SSTORE POP PUSH2 0x17D2 JUMP JUMPDEST PUSH1 0x1F NOT DUP5 AND PUSH2 0x1781 DUP7 PUSH2 0x156E JUMP JUMPDEST PUSH0 JUMPDEST DUP3 DUP2 LT ISZERO PUSH2 0x17A8 JUMPI DUP5 DUP10 ADD MLOAD DUP3 SSTORE PUSH1 0x1 DUP3 ADD SWAP2 POP PUSH1 0x20 DUP6 ADD SWAP5 POP PUSH1 0x20 DUP2 ADD SWAP1 POP PUSH2 0x1783 JUMP JUMPDEST DUP7 DUP4 LT ISZERO PUSH2 0x17C5 JUMPI DUP5 DUP10 ADD MLOAD PUSH2 0x17C1 PUSH1 0x1F DUP10 AND DUP3 PUSH2 0x16D4 JUMP JUMPDEST DUP4 SSTORE POP JUMPDEST PUSH1 0x1 PUSH1 0x2 DUP9 MUL ADD DUP9 SSTORE POP POP POP JUMPDEST POP POP POP POP POP POP JUMP JUMPDEST PUSH32 0x41756374696F6E2073746172742074696D65206D7573742062652070726F7669 PUSH0 DUP3 ADD MSTORE PUSH32 0x6465640000000000000000000000000000000000000000000000000000000000 PUSH1 0x20 DUP3 ADD MSTORE POP JUMP JUMPDEST PUSH0 PUSH2 0x1834 PUSH1 0x23 DUP4 PUSH2 0x1248 JUMP JUMPDEST SWAP2 POP PUSH2 0x183F DUP3 PUSH2 0x17DA JUMP JUMPDEST PUSH1 0x40 DUP3 ADD SWAP1 POP SWAP2 SWAP1 POP JUMP JUMPDEST PUSH0 PUSH1 0x40 DUP3 ADD SWAP1 POP PUSH2 0x185D PUSH0 DUP4 ADD DUP5 PUSH2 0x1416 JUMP JUMPDEST DUP2 DUP2 SUB PUSH1 0x20 DUP4 ADD MSTORE PUSH2 0x186E DUP2 PUSH2 0x1828 JUMP JUMPDEST SWAP1 POP SWAP3 SWAP2 POP POP JUMP JUMPDEST PUSH32 0x526571756573746564207069636B75702074696D65206D757374206265207072 PUSH0 DUP3 ADD MSTORE PUSH32 0x6F76696465640000000000000000000000000000000000000000000000000000 PUSH1 0x20 DUP3 ADD MSTORE POP JUMP JUMPDEST PUSH0 PUSH2 0x18D0 PUSH1 0x26 DUP4 PUSH2 0x1248 JUMP JUMPDEST SWAP2 POP PUSH2 0x18DB DUP3 PUSH2 0x1876 JUMP JUMPDEST PUSH1 0x40 DUP3 ADD SWAP1 POP SWAP2 SWAP1 POP JUMP JUMPDEST PUSH0 PUSH1 0x40 DUP3 ADD SWAP1 POP PUSH2 0x18F9 PUSH0 DUP4 ADD DUP5 PUSH2 0x1416 JUMP JUMPDEST DUP2 DUP2 SUB PUSH1 0x20 DUP4 ADD MSTORE PUSH2 0x190A DUP2 PUSH2 0x18C4 JUMP JUMPDEST SWAP1 POP SWAP3 SWAP2 POP POP JUMP JUMPDEST PUSH32 0x5265717565737465642064656C69766572792074696D65206D75737420626520 PUSH0 DUP3 ADD MSTORE PUSH32 0x70726F7669646564000000000000000000000000000000000000000000000000 PUSH1 0x20 DUP3 ADD MSTORE POP JUMP JUMPDEST PUSH0 PUSH2 0x196C PUSH1 0x28 DUP4 PUSH2 0x1248 JUMP JUMPDEST SWAP2 POP PUSH2 0x1977 DUP3 PUSH2 0x1912 JUMP JUMPDEST PUSH1 0x40 DUP3 ADD SWAP1 POP SWAP2 SWAP1 POP JUMP JUMPDEST PUSH0 PUSH1 0x40 DUP3 ADD SWAP1 POP PUSH2 0x1995 PUSH0 DUP4 ADD DUP5 PUSH2 0x1416 JUMP JUMPDEST DUP2 DUP2 SUB PUSH1 0x20 DUP4 ADD MSTORE PUSH2 0x19A6 DUP2 PUSH2 0x1960 JUMP JUMPDEST SWAP1 POP SWAP3 SWAP2 POP POP JUMP JUMPDEST PUSH32 0x41756374696F6E2073746172742074696D65206D75737420626520696E207468 PUSH0 DUP3 ADD MSTORE PUSH32 0x6520667574757265000000000000000000000000000000000000000000000000 PUSH1 0x20 DUP3 ADD MSTORE POP JUMP JUMPDEST PUSH0 PUSH2 0x1A08 PUSH1 0x28 DUP4 PUSH2 0x1248 JUMP JUMPDEST SWAP2 POP PUSH2 0x1A13 DUP3 PUSH2 0x19AE JUMP JUMPDEST PUSH1 0x40 DUP3 ADD SWAP1 POP SWAP2 SWAP1 POP JUMP JUMPDEST PUSH0 PUSH1 0x40 DUP3 ADD SWAP1 POP PUSH2 0x1A31 PUSH0 DUP4 ADD DUP5 PUSH2 0x1416 JUMP JUMPDEST DUP2 DUP2 SUB PUSH1 0x20 DUP4 ADD MSTORE PUSH2 0x1A42 DUP2 PUSH2 0x19FC JUMP JUMPDEST SWAP1 POP SWAP3 SWAP2 POP POP JUMP JUMPDEST PUSH32 0x52657175657374207069636B75702074696D65206D75737420626520696E2074 PUSH0 DUP3 ADD MSTORE PUSH32 0x6865206675747572650000000000000000000000000000000000000000000000 PUSH1 0x20 DUP3 ADD MSTORE POP JUMP JUMPDEST PUSH0 PUSH2 0x1AA4 PUSH1 0x29 DUP4 PUSH2 0x1248 JUMP JUMPDEST SWAP2 POP PUSH2 0x1AAF DUP3 PUSH2 0x1A4A JUMP JUMPDEST PUSH1 0x40 DUP3 ADD SWAP1 POP SWAP2 SWAP1 POP JUMP JUMPDEST PUSH0 PUSH1 0x40 DUP3 ADD SWAP1 POP PUSH2 0x1ACD PUSH0 DUP4 ADD DUP5 PUSH2 0x1416 JUMP JUMPDEST DUP2 DUP2 SUB PUSH1 0x20 DUP4 ADD MSTORE PUSH2 0x1ADE DUP2 PUSH2 0x1A98 JUMP JUMPDEST SWAP1 POP SWAP3 SWAP2 POP POP JUMP JUMPDEST PUSH32 0x526571756573742064656C69766572792074696D65206D75737420626520696E PUSH0 DUP3 ADD MSTORE PUSH32 0x2074686520667574757265000000000000000000000000000000000000000000 PUSH1 0x20 DUP3 ADD MSTORE POP JUMP JUMPDEST PUSH0 PUSH2 0x1B40 PUSH1 0x2B DUP4 PUSH2 0x1248 JUMP JUMPDEST SWAP2 POP PUSH2 0x1B4B DUP3 PUSH2 0x1AE6 JUMP JUMPDEST PUSH1 0x40 DUP3 ADD SWAP1 POP SWAP2 SWAP1 POP JUMP JUMPDEST PUSH0 PUSH1 0x40 DUP3 ADD SWAP1 POP PUSH2 0x1B69 PUSH0 DUP4 ADD DUP5 PUSH2 0x1416 JUMP JUMPDEST DUP2 DUP2 SUB PUSH1 0x20 DUP4 ADD MSTORE PUSH2 0x1B7A DUP2 PUSH2 0x1B34 JUMP JUMPDEST SWAP1 POP SWAP3 SWAP2 POP POP JUMP JUMPDEST PUSH32 0x41756374696F6E2073746172742074696D65206D757374206265206265666F72 PUSH0 DUP3 ADD MSTORE PUSH32 0x652072657175657374207069636B75702074696D650000000000000000000000 PUSH1 0x20 DUP3 ADD MSTORE POP JUMP JUMPDEST PUSH0 PUSH2 0x1BDC PUSH1 0x35 DUP4 PUSH2 0x1248 JUMP JUMPDEST SWAP2 POP PUSH2 0x1BE7 DUP3 PUSH2 0x1B82 JUMP JUMPDEST PUSH1 0x40 DUP3 ADD SWAP1 POP SWAP2 SWAP1 POP JUMP JUMPDEST PUSH0 PUSH1 0x40 DUP3 ADD SWAP1 POP PUSH2 0x1C05 PUSH0 DUP4 ADD DUP5 PUSH2 0x1416 JUMP JUMPDEST DUP2 DUP2 SUB PUSH1 0x20 DUP4 ADD MSTORE PUSH2 0x1C16 DUP2 PUSH2 0x1BD0 JUMP JUMPDEST SWAP1 POP SWAP3 SWAP2 POP POP JUMP JUMPDEST PUSH32 0x5265717565737465642064656C69766572792074696D65206D75737420626520 PUSH0 DUP3 ADD MSTORE PUSH32 0x616674657220726571756573746564207069636B75702074696D650000000000 PUSH1 0x20 DUP3 ADD MSTORE POP JUMP JUMPDEST PUSH0 PUSH2 0x1C78 PUSH1 0x3B DUP4 PUSH2 0x1248 JUMP JUMPDEST SWAP2 POP PUSH2 0x1C83 DUP3 PUSH2 0x1C1E JUMP JUMPDEST PUSH1 0x40 DUP3 ADD SWAP1 POP SWAP2 SWAP1 POP JUMP JUMPDEST PUSH0 PUSH1 0x40 DUP3 ADD SWAP1 POP PUSH2 0x1CA1 PUSH0 DUP4 ADD DUP5 PUSH2 0x1416 JUMP JUMPDEST DUP2 DUP2 SUB PUSH1 0x20 DUP4 ADD MSTORE PUSH2 0x1CB2 DUP2 PUSH2 0x1C6C JUMP JUMPDEST SWAP1 POP SWAP3 SWAP2 POP POP JUMP JUMPDEST PUSH0 DUP2 SWAP1 POP SWAP2 SWAP1 POP JUMP JUMPDEST PUSH2 0x1CD4 PUSH2 0x1CCF DUP3 PUSH2 0xC14 JUMP JUMPDEST PUSH2 0x1CBA JUMP JUMPDEST DUP3 MSTORE POP POP JUMP JUMPDEST PUSH0 PUSH2 0x1CE5 DUP3 DUP7 PUSH2 0x1CC3 JUMP JUMPDEST PUSH1 0x20 DUP3 ADD SWAP2 POP PUSH2 0x1CF5 DUP3 DUP6 PUSH2 0x1CC3 JUMP JUMPDEST PUSH1 0x20 DUP3 ADD SWAP2 POP PUSH2 0x1D05 DUP3 DUP5 PUSH2 0x1CC3 JUMP JUMPDEST PUSH1 0x20 DUP3 ADD SWAP2 POP DUP2 SWAP1 POP SWAP5 SWAP4 POP POP POP POP JUMP JUMPDEST PUSH32 0x4E487B7100000000000000000000000000000000000000000000000000000000 PUSH0 MSTORE PUSH1 0x12 PUSH1 0x4 MSTORE PUSH1 0x24 PUSH0 REVERT JUMPDEST PUSH0 PUSH2 0x1D4D DUP3 PUSH2 0xC14 JUMP JUMPDEST SWAP2 POP PUSH2 0x1D58 DUP4 PUSH2 0xC14 JUMP JUMPDEST SWAP3 POP DUP3 PUSH2 0x1D68 JUMPI PUSH2 0x1D67 PUSH2 0x1D16 JUMP JUMPDEST JUMPDEST DUP3 DUP3 MOD SWAP1 POP SWAP3 SWAP2 POP POP JUMP JUMPDEST PUSH32 0x4E487B7100000000000000000000000000000000000000000000000000000000 PUSH0 MSTORE PUSH1 0x32 PUSH1 0x4 MSTORE PUSH1 0x24 PUSH0 REVERT INVALID PUSH2 0x6263 PUSH5 0x6566676869 PUSH11 0x6B6C6D6E6F707172737475 PUSH23 0x7778797A4142434445464748494A4B4C4D4E4F50515253 SLOAD SSTORE JUMP JUMPI PC MSIZE GAS ADDRESS BALANCE ORIGIN CALLER CALLVALUE CALLDATALOAD CALLDATASIZE CALLDATACOPY CODESIZE CODECOPY LOG2 PUSH5 0x6970667358 0x22 SLT KECCAK256 PREVRANDAO 0xBA DELEGATECALL LOG3 SWAP3 0xE6 MSTORE8 PUSH26 0x2D75BFC5A51AA76DF0AAF8E7A5F2637956C832E3505ED64B6473 PUSH16 0x6C634300081800330000000000000000 "
		},
		"gasEstimates": {
			"creation": {
				"codeDepositCost": "1540000",
				"executionCost": "1608",
				"totalCost": "1541608"
			},
			"external": {
				"createServiceRequest((address,address,int256,int256,int256,int256,string,string,uint256,uint256,uint256,uint256,uint8))": "infinite",
				"getAllServiceRequestInfos()": "infinite"
			},
			"internal": {
				"CheckValidTimmings(uint256,uint256,uint256)": "infinite",
				"checkUserExists(address)": "27",
				"generateRandomString(uint256)": "infinite"
			}
		},
		"methodIdentifiers": {
			"createServiceRequest((address,address,int256,int256,int256,int256,string,string,uint256,uint256,uint256,uint256,uint8))": "6b5425b2",
			"getAllServiceRequestInfos()": "2e0aac3e"
		}
	},
	"abi": [
		{
			"inputs": [
				{
					"internalType": "address",
					"name": "addr",
					"type": "address"
				},
				{
					"internalType": "string",
					"name": "message",
					"type": "string"
				}
			],
			"name": "InvalidAddress",
			"type": "error"
		},
		{
			"inputs": [
				{
					"internalType": "int256",
					"name": "latitude",
					"type": "int256"
				},
				{
					"internalType": "int256",
					"name": "longitude",
					"type": "int256"
				},
				{
					"internalType": "string",
					"name": "message",
					"type": "string"
				}
			],
			"name": "InvalidCoordinates",
			"type": "error"
		},
		{
			"inputs": [
				{
					"internalType": "string",
					"name": "geoHash",
					"type": "string"
				},
				{
					"internalType": "string",
					"name": "message",
					"type": "string"
				}
			],
			"name": "InvalidGeoHash",
			"type": "error"
		},
		{
			"inputs": [
				{
					"internalType": "uint256",
					"name": "value",
					"type": "uint256"
				},
				{
					"internalType": "string",
					"name": "message",
					"type": "string"
				}
			],
			"name": "InvalidProductValue",
			"type": "error"
		},
		{
			"inputs": [
				{
					"internalType": "uint256",
					"name": "timestamp",
					"type": "uint256"
				},
				{
					"internalType": "string",
					"name": "message",
					"type": "string"
				}
			],
			"name": "InvalidTimmings",
			"type": "error"
		},
		{
			"inputs": [
				{
					"components": [
						{
							"internalType": "address",
							"name": "shipperAddr",
							"type": "address"
						},
						{
							"internalType": "address",
							"name": "receiverAddr",
							"type": "address"
						},
						{
							"internalType": "int256",
							"name": "originLatitude",
							"type": "int256"
						},
						{
							"internalType": "int256",
							"name": "originLongitude",
							"type": "int256"
						},
						{
							"internalType": "int256",
							"name": "destinationLatitude",
							"type": "int256"
						},
						{
							"internalType": "int256",
							"name": "destinationLongitude",
							"type": "int256"
						},
						{
							"internalType": "string",
							"name": "originLink",
							"type": "string"
						},
						{
							"internalType": "string",
							"name": "destinationLink",
							"type": "string"
						},
						{
							"internalType": "uint256",
							"name": "cargoInsurableValue",
							"type": "uint256"
						},
						{
							"internalType": "uint256",
							"name": "requestedPickupTime",
							"type": "uint256"
						},
						{
							"internalType": "uint256",
							"name": "requestedDeliveryTime",
							"type": "uint256"
						},
						{
							"internalType": "uint256",
							"name": "auctionStartTime",
							"type": "uint256"
						},
						{
							"internalType": "enum Types.ServiceRequestInitialStatus",
							"name": "status",
							"type": "uint8"
						}
					],
					"internalType": "struct Types.ServiceRequestInfoDto",
					"name": "serviceRequestInfoDto",
					"type": "tuple"
				}
			],
			"name": "createServiceRequest",
			"outputs": [],
			"stateMutability": "payable",
			"type": "function"
		},
		{
			"inputs": [],
			"name": "getAllServiceRequestInfos",
			"outputs": [
				{
					"components": [
						{
							"internalType": "string",
							"name": "serviceRequestId",
							"type": "string"
						},
						{
							"internalType": "address",
							"name": "shipperAddr",
							"type": "address"
						},
						{
							"internalType": "address",
							"name": "receiverAddr",
							"type": "address"
						},
						{
							"internalType": "int256",
							"name": "originLatitude",
							"type": "int256"
						},
						{
							"internalType": "int256",
							"name": "originLongitude",
							"type": "int256"
						},
						{
							"internalType": "int256",
							"name": "destinationLatitude",
							"type": "int256"
						},
						{
							"internalType": "int256",
							"name": "destinationLongitude",
							"type": "int256"
						},
						{
							"internalType": "string",
							"name": "originLink",
							"type": "string"
						},
						{
							"internalType": "string",
							"name": "destinationLink",
							"type": "string"
						},
						{
							"internalType": "uint256",
							"name": "cargoInsurableValue",
							"type": "uint256"
						},
						{
							"internalType": "uint256",
							"name": "serviceFee",
							"type": "uint256"
						},
						{
							"internalType": "uint256",
							"name": "requestedPickupTime",
							"type": "uint256"
						},
						{
							"internalType": "uint256",
							"name": "requestedDeliveryTime",
							"type": "uint256"
						},
						{
							"internalType": "uint256",
							"name": "auctionStartTime",
							"type": "uint256"
						},
						{
							"internalType": "enum Types.Status",
							"name": "status",
							"type": "uint8"
						}
					],
					"internalType": "struct Types.ServiceRequestInfo[]",
					"name": "",
					"type": "tuple[]"
				}
			],
			"stateMutability": "nonpayable",
			"type": "function"
		}
	]
}